{
  "_format": "hh-sol-artifact-1",
  "contractName": "AgentMechSubscription",
  "sourceName": "contracts/integrations/nevermined/AgentMechSubscription.sol",
  "abi": [
    {
      "inputs": [
        {
          "internalType": "address",
          "name": "_registry",
          "type": "address"
        },
        {
          "internalType": "uint256",
          "name": "_tokenId",
          "type": "uint256"
        },
        {
          "internalType": "uint256",
          "name": "_minCreditsPerRequest",
          "type": "uint256"
        },
        {
          "internalType": "address",
          "name": "_subscriptionNFT",
          "type": "address"
        },
        {
          "internalType": "uint256",
          "name": "_subscriptionTokenId",
          "type": "uint256"
        },
        {
          "internalType": "address",
          "name": "_mechMarketplace",
          "type": "address"
        }
      ],
      "stateMutability": "nonpayable",
      "type": "constructor"
    },
    {
      "inputs": [
        {
          "internalType": "uint256",
          "name": "agentId",
          "type": "uint256"
        }
      ],
      "name": "AgentNotFound",
      "type": "error"
    },
    {
      "inputs": [
        {
          "internalType": "address",
          "name": "mechMarketplace",
          "type": "address"
        }
      ],
      "name": "MarketplaceExists",
      "type": "error"
    },
    {
      "inputs": [
        {
          "internalType": "address",
          "name": "sender",
          "type": "address"
        },
        {
          "internalType": "address",
          "name": "manager",
          "type": "address"
        }
      ],
      "name": "MarketplaceOnly",
      "type": "error"
    },
    {
      "inputs": [
        {
          "internalType": "uint256",
          "name": "amount",
          "type": "uint256"
        }
      ],
      "name": "NoDepositAllowed",
      "type": "error"
    },
    {
      "inputs": [
        {
          "internalType": "uint256",
          "name": "creditsBalance",
          "type": "uint256"
        },
        {
          "internalType": "uint256",
          "name": "minCreditsPerRequest",
          "type": "uint256"
        }
      ],
      "name": "NotEnoughCredits",
      "type": "error"
    },
    {
      "inputs": [
        {
          "internalType": "uint256",
          "name": "provided",
          "type": "uint256"
        },
        {
          "internalType": "uint256",
          "name": "max",
          "type": "uint256"
        }
      ],
      "name": "Overflow",
      "type": "error"
    },
    {
      "inputs": [],
      "name": "ReentrancyGuard",
      "type": "error"
    },
    {
      "inputs": [
        {
          "internalType": "uint256",
          "name": "requestId",
          "type": "uint256"
        }
      ],
      "name": "RequestIdNotFound",
      "type": "error"
    },
    {
      "inputs": [],
      "name": "ZeroAddress",
      "type": "error"
    },
    {
      "inputs": [],
      "name": "ZeroSubscriptionAddress",
      "type": "error"
    },
    {
      "inputs": [],
      "name": "ZeroTokenId",
      "type": "error"
    },
    {
      "anonymous": false,
      "inputs": [
        {
          "indexed": true,
          "internalType": "address",
          "name": "sender",
          "type": "address"
        },
        {
          "indexed": false,
          "internalType": "uint256",
          "name": "requestId",
          "type": "uint256"
        },
        {
          "indexed": false,
          "internalType": "bytes",
          "name": "data",
          "type": "bytes"
        }
      ],
      "name": "Deliver",
      "type": "event"
    },
    {
      "anonymous": false,
      "inputs": [
        {
          "indexed": true,
          "internalType": "uint256",
          "name": "requestId",
          "type": "uint256"
        },
        {
          "indexed": false,
          "internalType": "uint256",
          "name": "deliverPrice",
          "type": "uint256"
        },
        {
          "indexed": false,
          "internalType": "uint256",
          "name": "creditsToBurn",
          "type": "uint256"
        }
      ],
      "name": "DeliverPrice",
      "type": "event"
    },
    {
      "anonymous": false,
      "inputs": [
        {
          "indexed": true,
          "internalType": "address",
          "name": "mechMarketplace",
          "type": "address"
        }
      ],
      "name": "MechMarketplaceUpdated",
      "type": "event"
    },
    {
      "anonymous": false,
      "inputs": [
        {
          "indexed": false,
          "internalType": "uint256",
          "name": "price",
          "type": "uint256"
        }
      ],
      "name": "PriceUpdated",
      "type": "event"
    },
    {
      "anonymous": false,
      "inputs": [
        {
          "indexed": true,
          "internalType": "address",
          "name": "sender",
          "type": "address"
        },
        {
          "indexed": false,
          "internalType": "uint256",
          "name": "requestId",
          "type": "uint256"
        },
        {
          "indexed": false,
          "internalType": "bytes",
          "name": "data",
          "type": "bytes"
        }
      ],
      "name": "Request",
      "type": "event"
    },
    {
      "anonymous": false,
      "inputs": [
        {
          "indexed": true,
          "internalType": "address",
          "name": "sender",
          "type": "address"
        },
        {
          "indexed": false,
          "internalType": "uint256",
          "name": "requestId",
          "type": "uint256"
        }
      ],
      "name": "RevokeRequest",
      "type": "event"
    },
    {
      "anonymous": false,
      "inputs": [
        {
          "indexed": true,
          "internalType": "address",
          "name": "subscriptionNFT",
          "type": "address"
        },
        {
          "indexed": false,
          "internalType": "uint256",
          "name": "subscriptionTokenId",
          "type": "uint256"
        }
      ],
      "name": "SubscriptionUpdated",
      "type": "event"
    },
    {
      "inputs": [],
      "name": "DOMAIN_SEPARATOR_TYPE_HASH",
      "outputs": [
        {
          "internalType": "bytes32",
          "name": "",
          "type": "bytes32"
        }
      ],
      "stateMutability": "view",
      "type": "function"
    },
    {
      "inputs": [],
      "name": "VERSION",
      "outputs": [
        {
          "internalType": "string",
          "name": "",
          "type": "string"
        }
      ],
      "stateMutability": "view",
      "type": "function"
    },
    {
      "inputs": [],
      "name": "chainId",
      "outputs": [
        {
          "internalType": "uint256",
          "name": "",
          "type": "uint256"
        }
      ],
      "stateMutability": "view",
      "type": "function"
    },
    {
      "inputs": [
        {
          "internalType": "uint256",
          "name": "requestId",
          "type": "uint256"
        },
        {
          "internalType": "bytes",
          "name": "data",
          "type": "bytes"
        }
      ],
      "name": "deliver",
      "outputs": [],
      "stateMutability": "nonpayable",
      "type": "function"
    },
    {
      "inputs": [
        {
          "internalType": "uint256",
          "name": "requestId",
          "type": "uint256"
        },
        {
          "internalType": "bytes",
          "name": "data",
          "type": "bytes"
        },
        {
          "internalType": "address",
          "name": "mechStakingInstance",
          "type": "address"
        },
        {
          "internalType": "uint256",
          "name": "mechServiceId",
          "type": "uint256"
        }
      ],
      "name": "deliverToMarketplace",
      "outputs": [],
      "stateMutability": "nonpayable",
      "type": "function"
    },
    {
      "inputs": [],
      "name": "domainSeparator",
      "outputs": [
        {
          "internalType": "bytes32",
          "name": "",
          "type": "bytes32"
        }
      ],
      "stateMutability": "view",
      "type": "function"
    },
    {
      "inputs": [],
      "name": "entryPoint",
      "outputs": [
        {
          "internalType": "contract IEntryPoint",
          "name": "",
          "type": "address"
        }
      ],
      "stateMutability": "view",
      "type": "function"
    },
    {
      "inputs": [
        {
          "internalType": "address",
          "name": "to",
          "type": "address"
        },
        {
          "internalType": "uint256",
          "name": "value",
          "type": "uint256"
        },
        {
          "internalType": "bytes",
          "name": "data",
          "type": "bytes"
        },
        {
          "internalType": "enum Enum.Operation",
          "name": "operation",
          "type": "uint8"
        },
        {
          "internalType": "uint256",
          "name": "txGas",
          "type": "uint256"
        }
      ],
      "name": "exec",
      "outputs": [
        {
          "internalType": "bytes",
          "name": "returnData",
          "type": "bytes"
        }
      ],
      "stateMutability": "nonpayable",
      "type": "function"
    },
    {
      "inputs": [
        {
          "internalType": "address",
          "name": "account",
          "type": "address"
        }
      ],
      "name": "getDeliveriesCount",
      "outputs": [
        {
          "internalType": "uint256",
          "name": "",
          "type": "uint256"
        }
      ],
      "stateMutability": "view",
      "type": "function"
    },
    {
      "inputs": [],
      "name": "getDomainSeparator",
      "outputs": [
        {
          "internalType": "bytes32",
          "name": "",
          "type": "bytes32"
        }
      ],
      "stateMutability": "view",
      "type": "function"
    },
    {
      "inputs": [
        {
          "internalType": "address",
          "name": "account",
          "type": "address"
        },
        {
          "internalType": "bytes",
          "name": "data",
          "type": "bytes"
        },
        {
          "internalType": "uint256",
          "name": "nonce",
          "type": "uint256"
        }
      ],
      "name": "getRequestId",
      "outputs": [
        {
          "internalType": "uint256",
          "name": "requestId",
          "type": "uint256"
        }
      ],
      "stateMutability": "view",
      "type": "function"
    },
    {
      "inputs": [
        {
          "internalType": "uint256",
          "name": "requestId",
          "type": "uint256"
        }
      ],
      "name": "getRequestStatus",
      "outputs": [
        {
          "internalType": "enum AgentMech.RequestStatus",
          "name": "status",
          "type": "uint8"
        }
      ],
      "stateMutability": "view",
      "type": "function"
    },
    {
      "inputs": [
        {
          "internalType": "address",
          "name": "account",
          "type": "address"
        }
      ],
      "name": "getRequestsCount",
      "outputs": [
        {
          "internalType": "uint256",
          "name": "",
          "type": "uint256"
        }
      ],
      "stateMutability": "view",
      "type": "function"
    },
    {
      "inputs": [
        {
          "internalType": "uint256",
          "name": "size",
          "type": "uint256"
        },
        {
          "internalType": "uint256",
          "name": "offset",
          "type": "uint256"
        }
      ],
      "name": "getUndeliveredRequestIds",
      "outputs": [
        {
          "internalType": "uint256[]",
          "name": "requestIds",
          "type": "uint256[]"
        }
      ],
      "stateMutability": "view",
      "type": "function"
    },
    {
      "inputs": [
        {
          "internalType": "address",
          "name": "signer",
          "type": "address"
        }
      ],
      "name": "isOperator",
      "outputs": [
        {
          "internalType": "bool",
          "name": "",
          "type": "bool"
        }
      ],
      "stateMutability": "view",
      "type": "function"
    },
    {
      "inputs": [
        {
          "internalType": "bytes32",
          "name": "hash",
          "type": "bytes32"
        },
        {
          "internalType": "bytes",
          "name": "signature",
          "type": "bytes"
        }
      ],
      "name": "isValidSignature",
      "outputs": [
        {
          "internalType": "bytes4",
          "name": "magicValue",
          "type": "bytes4"
        }
      ],
      "stateMutability": "view",
      "type": "function"
    },
    {
      "inputs": [
        {
          "internalType": "address",
          "name": "",
          "type": "address"
        }
      ],
      "name": "mapDeliveryCounts",
      "outputs": [
        {
          "internalType": "uint256",
          "name": "",
          "type": "uint256"
        }
      ],
      "stateMutability": "view",
      "type": "function"
    },
    {
      "inputs": [
        {
          "internalType": "address",
          "name": "",
          "type": "address"
        }
      ],
      "name": "mapNonces",
      "outputs": [
        {
          "internalType": "uint256",
          "name": "",
          "type": "uint256"
        }
      ],
      "stateMutability": "view",
      "type": "function"
    },
    {
      "inputs": [
        {
          "internalType": "uint256",
          "name": "",
          "type": "uint256"
        }
      ],
      "name": "mapRequestAddresses",
      "outputs": [
        {
          "internalType": "address",
          "name": "",
          "type": "address"
        }
      ],
      "stateMutability": "view",
      "type": "function"
    },
    {
      "inputs": [
        {
          "internalType": "address",
          "name": "",
          "type": "address"
        }
      ],
      "name": "mapRequestCounts",
      "outputs": [
        {
          "internalType": "uint256",
          "name": "",
          "type": "uint256"
        }
      ],
      "stateMutability": "view",
      "type": "function"
    },
    {
      "inputs": [
        {
          "internalType": "uint256",
          "name": "",
          "type": "uint256"
        },
        {
          "internalType": "uint256",
          "name": "",
          "type": "uint256"
        }
      ],
      "name": "mapRequestIds",
      "outputs": [
        {
          "internalType": "uint256",
          "name": "",
          "type": "uint256"
        }
      ],
      "stateMutability": "view",
      "type": "function"
    },
    {
      "inputs": [
        {
          "internalType": "address",
          "name": "",
          "type": "address"
        }
      ],
      "name": "mapUndeliveredRequestsCounts",
      "outputs": [
        {
          "internalType": "uint256",
          "name": "",
          "type": "uint256"
        }
      ],
      "stateMutability": "view",
      "type": "function"
    },
    {
      "inputs": [],
      "name": "mechMarketplace",
      "outputs": [
        {
          "internalType": "address",
          "name": "",
          "type": "address"
        }
      ],
      "stateMutability": "view",
      "type": "function"
    },
    {
      "inputs": [],
      "name": "nonce",
      "outputs": [
        {
          "internalType": "uint256",
          "name": "",
          "type": "uint256"
        }
      ],
      "stateMutability": "view",
      "type": "function"
    },
    {
      "inputs": [],
      "name": "numTotalDeliveries",
      "outputs": [
        {
          "internalType": "uint256",
          "name": "",
          "type": "uint256"
        }
      ],
      "stateMutability": "view",
      "type": "function"
    },
    {
      "inputs": [],
      "name": "numTotalRequests",
      "outputs": [
        {
          "internalType": "uint256",
          "name": "",
          "type": "uint256"
        }
      ],
      "stateMutability": "view",
      "type": "function"
    },
    {
      "inputs": [],
      "name": "numUndeliveredRequests",
      "outputs": [
        {
          "internalType": "uint256",
          "name": "",
          "type": "uint256"
        }
      ],
      "stateMutability": "view",
      "type": "function"
    },
    {
      "inputs": [
        {
          "internalType": "address",
          "name": "",
          "type": "address"
        },
        {
          "internalType": "address",
          "name": "",
          "type": "address"
        },
        {
          "internalType": "uint256[]",
          "name": "",
          "type": "uint256[]"
        },
        {
          "internalType": "uint256[]",
          "name": "",
          "type": "uint256[]"
        },
        {
          "internalType": "bytes",
          "name": "",
          "type": "bytes"
        }
      ],
      "name": "onERC1155BatchReceived",
      "outputs": [
        {
          "internalType": "bytes4",
          "name": "",
          "type": "bytes4"
        }
      ],
      "stateMutability": "pure",
      "type": "function"
    },
    {
      "inputs": [
        {
          "internalType": "address",
          "name": "",
          "type": "address"
        },
        {
          "internalType": "address",
          "name": "",
          "type": "address"
        },
        {
          "internalType": "uint256",
          "name": "",
          "type": "uint256"
        },
        {
          "internalType": "uint256",
          "name": "",
          "type": "uint256"
        },
        {
          "internalType": "bytes",
          "name": "",
          "type": "bytes"
        }
      ],
      "name": "onERC1155Received",
      "outputs": [
        {
          "internalType": "bytes4",
          "name": "",
          "type": "bytes4"
        }
      ],
      "stateMutability": "pure",
      "type": "function"
    },
    {
      "inputs": [
        {
          "internalType": "address",
          "name": "",
          "type": "address"
        },
        {
          "internalType": "address",
          "name": "",
          "type": "address"
        },
        {
          "internalType": "uint256",
          "name": "",
          "type": "uint256"
        },
        {
          "internalType": "bytes",
          "name": "",
          "type": "bytes"
        }
      ],
      "name": "onERC721Received",
      "outputs": [
        {
          "internalType": "bytes4",
          "name": "",
          "type": "bytes4"
        }
      ],
      "stateMutability": "pure",
      "type": "function"
    },
    {
      "inputs": [],
      "name": "price",
      "outputs": [
        {
          "internalType": "uint256",
          "name": "",
          "type": "uint256"
        }
      ],
      "stateMutability": "view",
      "type": "function"
    },
    {
      "inputs": [
        {
          "internalType": "bytes",
          "name": "data",
          "type": "bytes"
        }
      ],
      "name": "request",
      "outputs": [
        {
          "internalType": "uint256",
          "name": "requestId",
          "type": "uint256"
        }
      ],
      "stateMutability": "payable",
      "type": "function"
    },
    {
      "inputs": [
        {
          "internalType": "address",
          "name": "account",
          "type": "address"
        },
        {
          "internalType": "bytes",
          "name": "data",
          "type": "bytes"
        },
        {
          "internalType": "uint256",
          "name": "requestId",
          "type": "uint256"
        }
      ],
      "name": "requestFromMarketplace",
      "outputs": [],
      "stateMutability": "payable",
      "type": "function"
    },
    {
      "inputs": [
        {
          "internalType": "uint256",
          "name": "requestId",
          "type": "uint256"
        }
      ],
      "name": "revokeRequest",
      "outputs": [],
      "stateMutability": "nonpayable",
      "type": "function"
    },
    {
      "inputs": [
        {
          "internalType": "uint256",
          "name": "newPrice",
          "type": "uint256"
        }
      ],
      "name": "setPrice",
      "outputs": [],
      "stateMutability": "nonpayable",
      "type": "function"
    },
    {
      "inputs": [
        {
          "internalType": "address",
          "name": "_subscriptionNFT",
          "type": "address"
        },
        {
          "internalType": "uint256",
          "name": "_subscriptionTokenId",
          "type": "uint256"
        }
      ],
      "name": "setSubscription",
      "outputs": [],
      "stateMutability": "nonpayable",
      "type": "function"
    },
    {
      "inputs": [
        {
          "internalType": "bytes",
          "name": "initParams",
          "type": "bytes"
        }
      ],
      "name": "setUp",
      "outputs": [],
      "stateMutability": "nonpayable",
      "type": "function"
    },
    {
      "inputs": [],
      "name": "subscriptionNFT",
      "outputs": [
        {
          "internalType": "address",
          "name": "",
          "type": "address"
        }
      ],
      "stateMutability": "view",
      "type": "function"
    },
    {
      "inputs": [],
      "name": "subscriptionTokenId",
      "outputs": [
        {
          "internalType": "uint256",
          "name": "",
          "type": "uint256"
        }
      ],
      "stateMutability": "view",
      "type": "function"
    },
    {
      "inputs": [],
      "name": "token",
      "outputs": [
        {
          "internalType": "contract IERC721",
          "name": "",
          "type": "address"
        }
      ],
      "stateMutability": "view",
      "type": "function"
    },
    {
      "inputs": [],
      "name": "tokenId",
      "outputs": [
        {
          "internalType": "uint256",
          "name": "",
          "type": "uint256"
        }
      ],
      "stateMutability": "view",
      "type": "function"
    },
    {
      "inputs": [
        {
          "internalType": "address",
          "name": "",
          "type": "address"
        },
        {
          "internalType": "address",
          "name": "",
          "type": "address"
        },
        {
          "internalType": "address",
          "name": "",
          "type": "address"
        },
        {
          "internalType": "uint256",
          "name": "",
          "type": "uint256"
        },
        {
          "internalType": "bytes",
          "name": "",
          "type": "bytes"
        },
        {
          "internalType": "bytes",
          "name": "",
          "type": "bytes"
        }
      ],
      "name": "tokensReceived",
      "outputs": [],
      "stateMutability": "pure",
      "type": "function"
    },
    {
      "inputs": [
        {
          "components": [
            {
              "internalType": "address",
              "name": "sender",
              "type": "address"
            },
            {
              "internalType": "uint256",
              "name": "nonce",
              "type": "uint256"
            },
            {
              "internalType": "bytes",
              "name": "initCode",
              "type": "bytes"
            },
            {
              "internalType": "bytes",
              "name": "callData",
              "type": "bytes"
            },
            {
              "internalType": "uint256",
              "name": "callGasLimit",
              "type": "uint256"
            },
            {
              "internalType": "uint256",
              "name": "verificationGasLimit",
              "type": "uint256"
            },
            {
              "internalType": "uint256",
              "name": "preVerificationGas",
              "type": "uint256"
            },
            {
              "internalType": "uint256",
              "name": "maxFeePerGas",
              "type": "uint256"
            },
            {
              "internalType": "uint256",
              "name": "maxPriorityFeePerGas",
              "type": "uint256"
            },
            {
              "internalType": "bytes",
              "name": "paymasterAndData",
              "type": "bytes"
            },
            {
              "internalType": "bytes",
              "name": "signature",
              "type": "bytes"
            }
          ],
          "internalType": "struct UserOperation",
          "name": "userOp",
          "type": "tuple"
        },
        {
          "internalType": "bytes32",
          "name": "userOpHash",
          "type": "bytes32"
        },
        {
          "internalType": "uint256",
          "name": "missingAccountFunds",
          "type": "uint256"
        }
      ],
      "name": "validateUserOp",
      "outputs": [
        {
          "internalType": "uint256",
          "name": "validationData",
          "type": "uint256"
        }
      ],
      "stateMutability": "nonpayable",
      "type": "function"
    },
    {
      "stateMutability": "payable",
      "type": "receive"
    }
  ],
  "bytecode": "0x60c06040525f80556001600655348015610017575f80fd5b50604051613e3f380380613e3f833981016040819052610036916104ec565b8585858383835f82826040516020016100649291906001600160a01b03929092168252602082015260400190565b60408051601f19818403018152919052905061007f816101ee565b5050506001600160a01b0384166100a95760405163d92e233d60e01b815260040160405180910390fd5b6040516331a9108f60e11b8152600481018490525f906001600160a01b03861690636352211e90602401602060405180830381865afa1580156100ee573d5f803e3d5ffd5b505050506040513d601f19601f820116820180604052508101906101129190610547565b90506001600160a01b03811661014357604051630ede975960e01b8152600481018590526024015b60405180910390fd5b600580546001600160a01b0319166001600160a01b03841617905560018390554660a05261016f610250565b6080525050506001600160a01b03851691506101a0905057604051631f0f7ba560e11b815260040160405180910390fd5b815f036101c057604051631fed7fc560e01b815260040160405180910390fd5b50600d80546001600160a01b0319166001600160a01b039390931692909217909155600e555061062f915050565b6101f6610318565b51156102445760405162461bcd60e51b815260206004820152601360248201527f416c726561647920696e697469616c697a656400000000000000000000000000604482015260640161013a565b61024d81610380565b50565b5f7f8b73c3c69bb8fe3d512ecc4cf759cc79239f7b179b0ffacaa9a75d522b39400f7f493aeac1d921aa02a044029e7fe4be43b1a4e80b40706fa5819e8fbb0d093525604051806040016040528060058152602001640312e312e360dc1b8152506040516020016102c19190610567565b60408051601f1981840301815282825280516020918201209083019490945281019190915260608101919091524660808201523060a082015260c00160405160208183030381529060405280519060200120905090565b606061037b610376604051606b60f91b6020820152602560fa1b60218201526001600160601b03193060601b166022820152600160f81b60368201525f90603701604051602081830303815290604052805190602001205f1c905090565b610444565b905090565b5f61038a82610499565b90505f8151602083015ff090506103f0604051606b60f91b6020820152602560fa1b60218201526001600160601b03193060601b166022820152600160f81b60368201525f90603701604051602081830303815290604052805190602001205f1c905090565b6001600160a01b0316816001600160a01b03161461043f5760405162461bcd60e51b815260206004820152600c60248201526b15dc9a5d194819985a5b195960a21b604482015260640161013a565b505050565b6060813b6001811161046557505060408051602081019091525f8152919050565b8061046f816105b0565b9150506040519150601f19601f602083010116820160405280825280600160208401853c50919050565b6060815160016104a991906105c5565b826040516020016104bb9291906105de565b6040516020818303038152906040529050919050565b80516001600160a01b03811681146104e7575f80fd5b919050565b5f805f805f8060c08789031215610501575f80fd5b61050a876104d1565b95506020870151945060408701519350610526606088016104d1565b92506080870151915061053b60a088016104d1565b90509295509295509295565b5f60208284031215610557575f80fd5b610560826104d1565b9392505050565b602081525f82518060208401528060208501604085015e5f604082850101526040601f19601f83011684010191505092915050565b634e487b7160e01b5f52601160045260245ffd5b5f816105be576105be61059c565b505f190190565b808201808211156105d8576105d861059c565b92915050565b606360f81b815260e083901b6001600160e01b03191660018201526880600e6000396000f360b81b60058201525f600e820181905282518060208501600f85015e5f9201600f019182525092915050565b60805160a0516137e161065e5f395f8181610651015261194e01525f818161094e015261198301526137e15ff3fe6080604052600436106102cd575f3560e01c80639c5e95901161017b578063cbd6407a116100d1578063f23a6e6111610087578063f698da2511610062578063f698da251461093d578063fc0c546a14610970578063ffa1ad7414610984575f80fd5b8063f23a6e61146108a6578063f5dcb7bb146108eb578063f6171e441461091e575f80fd5b8063d8a4676f116100b7578063d8a4676f14610847578063e7d915cf14610873578063ed24911d14610892575f80fd5b8063cbd6407a146107db578063d843b7f414610806575f80fd5b8063affed0e011610131578063bc197c811161010c578063bc197c8114610753578063bdf863171461079a578063c7dec3fc146107af575f80fd5b8063affed0e014610707578063b0d691fe1461071a578063b94207d314610740575f80fd5b8063a035b1fe11610161578063a035b1fe146106be578063a4f9edbf146106d3578063a669aaf9146106f2575f80fd5b80639c5e9590146106735780639ec4a5bf1461069f575f80fd5b80634ada3e611161023057806385cf7244116101e657806391b7f5ed116101c157806391b7f5ed146105f6578063982c0db3146106155780639a8a059214610640575f80fd5b806385cf72441461054f578063878b1132146105a05780638fb847ef146105b5575f80fd5b80636d70f7ae116102165780636d70f7ae146104cc57806379412518146104fb5780637af734731461050e575f80fd5b80634ada3e611461048b57806358ce0909146104a0575f80fd5b806317d70f7c116102855780632ebfc9271161026b5780632ebfc9271461042e5780633a871cdd1461044d5780634954bbf11461046c575f80fd5b806317d70f7c146103ef5780631bbbeeb814610403575f80fd5b8063150b7a02116102b5578063150b7a021461033c578063157305fe146103b15780631626ba7e146103d0575f80fd5b806223de29146102d8578062427c54146102fe575f80fd5b366102d457005b5f80fd5b3480156102e3575f80fd5b506102fc6102f2366004612c80565b5050505050505050565b005b348015610309575f80fd5b50610329610318366004612d2a565b60086020525f908152604090205481565b6040519081526020015b60405180910390f35b348015610347575f80fd5b50610380610356366004612d45565b7f150b7a020000000000000000000000000000000000000000000000000000000095945050505050565b6040517fffffffff000000000000000000000000000000000000000000000000000000009091168152602001610333565b3480156103bc575f80fd5b506102fc6103cb366004612ec6565b6109cc565b3480156103db575f80fd5b506103806103ea366004612ec6565b610b46565b3480156103fa575f80fd5b50610329610ce9565b34801561040e575f80fd5b5061032961041d366004612d2a565b60076020525f908152604090205481565b348015610439575f80fd5b506102fc610448366004612f0a565b610d0d565b348015610458575f80fd5b50610329610467366004612f34565b610ec6565b348015610477575f80fd5b506102fc610486366004612f83565b610f02565b348015610496575f80fd5b5061032960035481565b3480156104ab575f80fd5b506104bf6104ba366004612fe0565b6110e7565b6040516103339190613000565b3480156104d7575f80fd5b506104eb6104e6366004612d2a565b61123e565b6040519015158152602001610333565b6102fc610509366004613043565b611310565b348015610519575f80fd5b50610329610528366004612d2a565b73ffffffffffffffffffffffffffffffffffffffff165f9081526007602052604090205490565b34801561055a575f80fd5b50600d5461057b9073ffffffffffffffffffffffffffffffffffffffff1681565b60405173ffffffffffffffffffffffffffffffffffffffff9091168152602001610333565b3480156105ab575f80fd5b50610329600e5481565b3480156105c0575f80fd5b506103296105cf366004612d2a565b73ffffffffffffffffffffffffffffffffffffffff165f9081526008602052604090205490565b348015610601575f80fd5b506102fc610610366004613098565b611393565b348015610620575f80fd5b5061032961062f366004612d2a565b60096020525f908152604090205481565b34801561064b575f80fd5b506103297f000000000000000000000000000000000000000000000000000000000000000081565b34801561067e575f80fd5b5060055461057b9073ffffffffffffffffffffffffffffffffffffffff1681565b3480156106aa575f80fd5b506103296106b9366004613043565b611481565b3480156106c9575f80fd5b5061032960015481565b3480156106de575f80fd5b506102fc6106ed3660046130af565b611535565b3480156106fd575f80fd5b5061032960045481565b348015610712575f80fd5b505f54610329565b348015610725575f80fd5b50730576a174d229e3cfa37253523e645a78a0c91b5761057b565b61032961074e3660046130af565b6115b1565b34801561075e575f80fd5b5061038061076d36600461312a565b7fbc197c810000000000000000000000000000000000000000000000000000000098975050505050505050565b3480156107a5575f80fd5b5061032960025481565b3480156107ba575f80fd5b506107ce6107c93660046131c0565b61166c565b604051610333919061327e565b3480156107e6575f80fd5b506103296107f5366004612d2a565b600c6020525f908152604090205481565b348015610811575f80fd5b5061057b610820366004613098565b600b6020525f908152604090205473ffffffffffffffffffffffffffffffffffffffff1681565b348015610852575f80fd5b50610866610861366004613098565b611756565b60405161033391906132bd565b34801561087e575f80fd5b506102fc61088d366004613098565b61182b565b34801561089d575f80fd5b5061032961194b565b3480156108b1575f80fd5b506103806108c03660046132fc565b7ff23a6e61000000000000000000000000000000000000000000000000000000009695505050505050565b3480156108f6575f80fd5b506103297f8b73c3c69bb8fe3d512ecc4cf759cc79239f7b179b0ffacaa9a75d522b39400f81565b348015610929575f80fd5b50610329610938366004612fe0565b6119a5565b348015610948575f80fd5b506103297f000000000000000000000000000000000000000000000000000000000000000081565b34801561097b575f80fd5b5061057b6119c7565b34801561098f575f80fd5b506107ce6040518060400160405280600581526020017f312e312e3000000000000000000000000000000000000000000000000000000081525081565b6109d53361123e565b806109f3575033730576a174d229e3cfa37253523e645a78a0c91b57145b610a84576040517f08c379a000000000000000000000000000000000000000000000000000000000815260206004820152603e60248201527f4f6e6c792063616c6c61626c6520627920746865206d656368206f706572617460448201527f6f72206f722074686520656e74727920706f696e7420636f6e7472616374000060648201526084015b60405180910390fd5b60016006541115610ac1576040517f8beb9d1600000000000000000000000000000000000000000000000000000000815260040160405180910390fd5b600260065560055473ffffffffffffffffffffffffffffffffffffffff1615610b32576005546040517f4b6c692700000000000000000000000000000000000000000000000000000000815273ffffffffffffffffffffffffffffffffffffffff9091166004820152602401610a7b565b610b3c82826119e4565b5050600160065550565b5f805f80610b6685602081015160408201516060909201515f1a92909190565b9094509250905060ff81165f03610c7c5782858301602001610b878261123e565b158015610baa575073ffffffffffffffffffffffffffffffffffffffff82163014155b15610bdd57507fffffffff000000000000000000000000000000000000000000000000000000009450610ce39350505050565b6040517f1626ba7e00000000000000000000000000000000000000000000000000000000815273ffffffffffffffffffffffffffffffffffffffff831690631626ba7e90610c31908b908590600401613373565b602060405180830381865afa158015610c4c573d5f803e3d5ffd5b505050506040513d601f19601f82011682018060405250810190610c70919061338b565b95505050505050610ce3565b610c8b6104e687838686611bd4565b15610cbc57507f1626ba7e000000000000000000000000000000000000000000000000000000009250610ce3915050565b507fffffffff00000000000000000000000000000000000000000000000000000000925050505b92915050565b5f80610cf3611bf0565b806020019051810190610d0691906133ca565b9392505050565b610d163361123e565b80610d34575033730576a174d229e3cfa37253523e645a78a0c91b57145b610dc0576040517f08c379a000000000000000000000000000000000000000000000000000000000815260206004820152603e60248201527f4f6e6c792063616c6c61626c6520627920746865206d656368206f706572617460448201527f6f72206f722074686520656e74727920706f696e7420636f6e747261637400006064820152608401610a7b565b73ffffffffffffffffffffffffffffffffffffffff8216610e0d576040517f3e1ef74a00000000000000000000000000000000000000000000000000000000815260040160405180910390fd5b805f03610e46576040517f1fed7fc500000000000000000000000000000000000000000000000000000000815260040160405180910390fd5b600d80547fffffffffffffffffffffffff00000000000000000000000000000000000000001673ffffffffffffffffffffffffffffffffffffffff8416908117909155600e8290556040518281527fa739b38899b4a928ed52e053d6cad069a2f5e76ebeea63aa310f9595e28c5f20906020015b60405180910390a25050565b5f610ecf611cbf565b610ed98484611d3e565b9050610ee860408501856133f6565b90505f03610ef957610ef984611e12565b610d0682611e90565b610f0b3361123e565b80610f29575033730576a174d229e3cfa37253523e645a78a0c91b57145b610fb5576040517f08c379a000000000000000000000000000000000000000000000000000000000815260206004820152603e60248201527f4f6e6c792063616c6c61626c6520627920746865206d656368206f706572617460448201527f6f72206f722074686520656e74727920706f696e7420636f6e747261637400006064820152608401610a7b565b60016006541115610ff2576040517f8beb9d1600000000000000000000000000000000000000000000000000000000815260040160405180910390fd5b600260065560055473ffffffffffffffffffffffffffffffffffffffff16611046576040517fd92e233d00000000000000000000000000000000000000000000000000000000815260040160405180910390fd5b5f61105185856119e4565b6005546040517f56d0819e00000000000000000000000000000000000000000000000000000000815291925073ffffffffffffffffffffffffffffffffffffffff16906356d0819e906110ae908890859088908890600401613457565b5f604051808303815f87803b1580156110c5575f80fd5b505af11580156110d7573d5f803e3d5ffd5b5050600160065550505050505050565b6002546060905f8490036110f9578093505b8061110484866134c5565b11156111515761111483856134c5565b6040517f7ae59685000000000000000000000000000000000000000000000000000000008152600481019190915260248101829052604401610a7b565b8315611237578367ffffffffffffffff81111561117057611170612db3565b604051908082528060200260200182016040528015611199578160200160208202803683370190505b505f808052600a6020527f13da86008ba1c6922daee3e07db95305ef49ebced9f5467a0b8613fcc6b343e4549193505b848110156111ec575f828152600a602052604090206001015491506001016111c9565b505f5b85811015611234578184828151811061120a5761120a6134d8565b6020908102919091018101919091525f838152600a909152604090206001015491506001016111ef565b50505b5092915050565b5f805f611249611bf0565b80602001905181019061125c91906133ca565b915091508373ffffffffffffffffffffffffffffffffffffffff168273ffffffffffffffffffffffffffffffffffffffff16636352211e836040518263ffffffff1660e01b81526004016112b291815260200190565b602060405180830381865afa1580156112cd573d5f803e3d5ffd5b505050506040513d601f19601f820116820180604052508101906112f19190613505565b73ffffffffffffffffffffffffffffffffffffffff1614949350505050565b60055473ffffffffffffffffffffffffffffffffffffffff163314611383576005546040517fe56895c000000000000000000000000000000000000000000000000000000000815233600482015273ffffffffffffffffffffffffffffffffffffffff9091166024820152604401610a7b565b61138e838383611f04565b505050565b61139c3361123e565b806113ba575033730576a174d229e3cfa37253523e645a78a0c91b57145b611446576040517f08c379a000000000000000000000000000000000000000000000000000000000815260206004820152603e60248201527f4f6e6c792063616c6c61626c6520627920746865206d656368206f706572617460448201527f6f72206f722074686520656e74727920706f696e7420636f6e747261637400006064820152608401610a7b565b60018190556040518181527f66cbca4f3c64fecf1dcb9ce094abcf7f68c3450a1d4e3a8e917dd621edb4ebe09060200160405180910390a150565b5f61148a61194b565b84848460405160200161149f93929190613520565b604051602081830303815290604052805190602001206040516020016114f79291907f190100000000000000000000000000000000000000000000000000000000000081526002810192909252602282015260420190565b604080517fffffffffffffffffffffffffffffffffffffffffffffffffffffffffffffffe08184030181529190528051602090910120949350505050565b61153d611bf0565b51156115a5576040517f08c379a000000000000000000000000000000000000000000000000000000000815260206004820152601360248201527f416c726561647920696e697469616c697a6564000000000000000000000000006044820152606401610a7b565b6115ae816120ac565b50565b6005545f9073ffffffffffffffffffffffffffffffffffffffff161561161f576005546040517f4b6c692700000000000000000000000000000000000000000000000000000000815273ffffffffffffffffffffffffffffffffffffffff9091166004820152602401610a7b565b335f818152600c602052604090205461163a91908490611481565b335f908152600c602052604081208054929350906116578361355e565b9190505550611667338383611f04565b919050565b60606116773361123e565b80611695575033730576a174d229e3cfa37253523e645a78a0c91b57145b611721576040517f08c379a000000000000000000000000000000000000000000000000000000000815260206004820152603e60248201527f4f6e6c792063616c6c61626c6520627920746865206d656368206f706572617460448201527f6f72206f722074686520656e74727920706f696e7420636f6e747261637400006064820152608401610a7b565b5f61173b878787878715611735578761221c565b5a61221c565b925090508061174c57815160208301fd5b5095945050505050565b5f818152600b602052604081205473ffffffffffffffffffffffffffffffffffffffff1615611667575f828152600a60205260408082208151808301928390529160029082845b81548152602001906001019080831161179d5750505050509050805f600281106117c9576117c96134d8565b60200201511580156117dd57506020810151155b801561181257505f8052600a6020527f13da86008ba1c6922daee3e07db95305ef49ebced9f5467a0b8613fcc6b343e3548314155b156118205760029150611825565b600191505b50919050565b60055473ffffffffffffffffffffffffffffffffffffffff16331461189e576005546040517fe56895c000000000000000000000000000000000000000000000000000000000815233600482015273ffffffffffffffffffffffffffffffffffffffff9091166024820152604401610a7b565b5f818152600b602052604090205473ffffffffffffffffffffffffffffffffffffffff16806118f9576040517fd92e233d00000000000000000000000000000000000000000000000000000000815260040160405180910390fd5b611903818361231f565b8073ffffffffffffffffffffffffffffffffffffffff167fa36a540c5fea3a5e69d4b1c2247b28a93fd183ef1314af26a8db7b3ae080bcd083604051610eba91815260200190565b5f7f000000000000000000000000000000000000000000000000000000000000000046146119805761197b612472565b905090565b507f000000000000000000000000000000000000000000000000000000000000000090565b600a602052815f5260405f2081600281106119be575f80fd5b01549150829050565b5f806119d1611bf0565b806020019051810190610ce39190613505565b5f828152600b602052604090205460609073ffffffffffffffffffffffffffffffffffffffff1680611b1c5760055473ffffffffffffffffffffffffffffffffffffffff1615611ac7576005546040517ff2e433bf0000000000000000000000000000000000000000000000000000000081526004810186905273ffffffffffffffffffffffffffffffffffffffff9091169063f2e433bf906024016080604051808303815f875af1158015611a9c573d5f803e3d5ffd5b505050506040513d601f19601f82011682018060405250810190611ac09190613595565b6040015190505b73ffffffffffffffffffffffffffffffffffffffff8116611b17576040517ffe23980400000000000000000000000000000000000000000000000000000000815260048101859052602401610a7b565b611b26565b611b26818561231f565b611b31818585612570565b73ffffffffffffffffffffffffffffffffffffffff82165f908152600860205260408120805492945090611b648361355e565b909155505060048054905f611b788361355e565b91905055503373ffffffffffffffffffffffffffffffffffffffff167f0cd979445339c62199996f208428d987b1cea24d18e62b79ec24d94b636e8b708584604051611bc5929190613373565b60405180910390a25092915050565b5f805f611be38787878761275c565b9150915061174c81612844565b606061197b611cba6040517fd60000000000000000000000000000000000000000000000000000000000000060208201527f940000000000000000000000000000000000000000000000000000000000000060218201527fffffffffffffffffffffffffffffffffffffffff0000000000000000000000003060601b1660228201527f010000000000000000000000000000000000000000000000000000000000000060368201525f90603701604051602081830303815290604052805190602001205f1c905090565b6129f6565b33730576a174d229e3cfa37253523e645a78a0c91b5714611d3c576040517f08c379a000000000000000000000000000000000000000000000000000000000815260206004820152601c60248201527f6163636f756e743a206e6f742066726f6d20456e747279506f696e74000000006044820152606401610a7b565b565b7f19457468657265756d205369676e6564204d6573736167653a0a3332000000005f908152601c829052603c81207f1626ba7e00000000000000000000000000000000000000000000000000000000611dd882611d9f6101408801886133f6565b8080601f0160208091040260200160405190810160405280939291908181526020018383808284375f92019190915250610b4692505050565b7fffffffff000000000000000000000000000000000000000000000000000000001614611e09576001915050610ce3565b505f9392505050565b5f805460208301359180611e258361355e565b91905055146115ae576040517f08c379a000000000000000000000000000000000000000000000000000000000815260206004820152600d60248201527f496e76616c6964206e6f6e6365000000000000000000000000000000000000006044820152606401610a7b565b80156115ae576040515f9033907fffffffffffffffffffffffffffffffffffffffffffffffffffffffffffffffff90849084818181858888f193505050503d805f8114611ef8576040519150601f19603f3d011682016040523d82523d5f602084013e611efd565b606091505b5050505050565b611f0f348284612a4b565b73ffffffffffffffffffffffffffffffffffffffff83165f908152600760205260408120805491611f3f8361355e565b909155505073ffffffffffffffffffffffffffffffffffffffff83165f908152600960205260408120805491611f748361355e565b90915550505f818152600b6020908152604080832080547fffffffffffffffffffffffff00000000000000000000000000000000000000001673ffffffffffffffffffffffffffffffffffffffff8816179055600a9091528082207f13da86008ba1c6922daee3e07db95305ef49ebced9f5467a0b8613fcc6b343e480546001830181905590859055808452918320849055600280547f13da86008ba1c6922daee3e07db95305ef49ebced9f5467a0b8613fcc6b343e39492939290919061203b8361355e565b909155505060038054905f61204f8361355e565b91905055508573ffffffffffffffffffffffffffffffffffffffff167f4bda649efe6b98b0f9c1d5e859c29e20910f45c66dabfe6fad4a4881f7faf9cc858760405161209c929190613373565b60405180910390a2505050505050565b5f6120b682612be2565b90505f8151602083015ff090506121886040517fd60000000000000000000000000000000000000000000000000000000000000060208201527f940000000000000000000000000000000000000000000000000000000000000060218201527fffffffffffffffffffffffffffffffffffffffff0000000000000000000000003060601b1660228201527f010000000000000000000000000000000000000000000000000000000000000060368201525f90603701604051602081830303815290604052805190602001205f1c905090565b73ffffffffffffffffffffffffffffffffffffffff168173ffffffffffffffffffffffffffffffffffffffff161461138e576040517f08c379a000000000000000000000000000000000000000000000000000000000815260206004820152600c60248201527f5772697465206661696c656400000000000000000000000000000000000000006044820152606401610a7b565b5f6060600184600181111561223357612233613290565b036122a7578673ffffffffffffffffffffffffffffffffffffffff16838660405161225e9190613637565b5f604051808303818686f4925050503d805f8114612297576040519150601f19603f3d011682016040523d82523d5f602084013e61229c565b606091505b509092509050612315565b8673ffffffffffffffffffffffffffffffffffffffff168387876040516122ce9190613637565b5f60405180830381858888f193505050503d805f8114612309576040519150601f19603f3d011682016040523d82523d5f602084013e61230e565b606091505b5090925090505b9550959350505050565b73ffffffffffffffffffffffffffffffffffffffff82165f90815260096020526040812080549161234f83613642565b909155505060028054905f61236383613642565b90915550505f818152600a60205260408082208151808301928390529160029082845b8154815260200190600101908083116123865750505050509050805f600281106123b2576123b26134d8565b60200201511580156123c657506020810151155b80156123fb57505f8052600a6020527f13da86008ba1c6922daee3e07db95305ef49ebced9f5467a0b8613fcc6b343e3548214155b15612435576040517ffe23980400000000000000000000000000000000000000000000000000000000815260048101839052602401610a7b565b6020818101805183515f908152600a9093526040808420600190810192909255935191518352838320919091559281529081208181559091015550565b5f7f8b73c3c69bb8fe3d512ecc4cf759cc79239f7b179b0ffacaa9a75d522b39400f7f493aeac1d921aa02a044029e7fe4be43b1a4e80b40706fa5819e8fbb0d0935256040518060400160405280600581526020017f312e312e300000000000000000000000000000000000000000000000000000008152506040516020016124fb919061327e565b604080517fffffffffffffffffffffffffffffffffffffffffffffffffffffffffffffffe081840301815282825280516020918201209083019490945281019190915260608101919091524660808201523060a082015260c00160405160208183030381529060405280519060200120905090565b6060600160065411156125af576040517f8beb9d1600000000000000000000000000000000000000000000000000000000815260040160405180910390fd5b600260065581515f906125cb9084016020908101908501613676565b600d54600e546040517efdd58e00000000000000000000000000000000000000000000000000000000815273ffffffffffffffffffffffffffffffffffffffff8a8116600483015260248201929092529295509293505f92169062fdd58e90604401602060405180830381865afa158015612648573d5f803e3d5ffd5b505050506040513d601f19601f8201168201806040525081019061266c91906136f5565b9050818181111561267a5750805b801561271257600d54600e546040517ff5298aca00000000000000000000000000000000000000000000000000000000815273ffffffffffffffffffffffffffffffffffffffff8a8116600483015260248201929092526044810184905291169063f5298aca906064015f604051808303815f87803b1580156126fb575f80fd5b505af115801561270d573d5f803e3d5ffd5b505050505b604080518481526020810183905287917fc618cebcfec26828410db514432d580b183e1e3e9e97cc6ab5ef9922b0a1c4c1910160405180910390a250506001600655509392505050565b5f807f7fffffffffffffffffffffffffffffff5d576e7357a4501ddfe92f46681b20a083111561279157505f9050600361283b565b604080515f8082526020820180845289905260ff881692820192909252606081018690526080810185905260019060a0016020604051602081039080840390855afa1580156127e2573d5f803e3d5ffd5b50506040517fffffffffffffffffffffffffffffffffffffffffffffffffffffffffffffffe0015191505073ffffffffffffffffffffffffffffffffffffffff8116612835575f6001925092505061283b565b91505f90505b94509492505050565b5f81600481111561285757612857613290565b0361285f5750565b600181600481111561287357612873613290565b036128da576040517f08c379a000000000000000000000000000000000000000000000000000000000815260206004820152601860248201527f45434453413a20696e76616c6964207369676e617475726500000000000000006044820152606401610a7b565b60028160048111156128ee576128ee613290565b03612955576040517f08c379a000000000000000000000000000000000000000000000000000000000815260206004820152601f60248201527f45434453413a20696e76616c6964207369676e6174757265206c656e677468006044820152606401610a7b565b600381600481111561296957612969613290565b036115ae576040517f08c379a000000000000000000000000000000000000000000000000000000000815260206004820152602260248201527f45434453413a20696e76616c6964207369676e6174757265202773272076616c60448201527f75650000000000000000000000000000000000000000000000000000000000006064820152608401610a7b565b6060813b60018111612a1757505060408051602081019091525f8152919050565b80612a2181613642565b9150506040519150601f19601f602083010116820160405280825280600160208401853c50919050565b60016006541115612a88576040517f8beb9d1600000000000000000000000000000000000000000000000000000000815260040160405180910390fd5b60026006558215612ac8576040517f0f0fe74c00000000000000000000000000000000000000000000000000000000815260048101849052602401610a7b565b600d54600e546040517efdd58e00000000000000000000000000000000000000000000000000000000815233600482015260248101919091525f9173ffffffffffffffffffffffffffffffffffffffff169062fdd58e90604401602060405180830381865afa158015612b3d573d5f803e3d5ffd5b505050506040513d601f19601f82011682018060405250810190612b6191906136f5565b335f9081526009602052604081205460018054939450909290612b859084906134c5565b612b8f919061370c565b905080831015612bd5576040517facff13ae0000000000000000000000000000000000000000000000000000000081526004810184905260248101829052604401610a7b565b5050600160065550505050565b606081516001612bf291906134c5565b82604051602001612c04929190613723565b6040516020818303038152906040529050919050565b73ffffffffffffffffffffffffffffffffffffffff811681146115ae575f80fd5b5f8083601f840112612c4b575f80fd5b50813567ffffffffffffffff811115612c62575f80fd5b602083019150836020828501011115612c79575f80fd5b9250929050565b5f805f805f805f8060c0898b031215612c97575f80fd5b8835612ca281612c1a565b97506020890135612cb281612c1a565b96506040890135612cc281612c1a565b955060608901359450608089013567ffffffffffffffff80821115612ce5575f80fd5b612cf18c838d01612c3b565b909650945060a08b0135915080821115612d09575f80fd5b50612d168b828c01612c3b565b999c989b5096995094979396929594505050565b5f60208284031215612d3a575f80fd5b8135610d0681612c1a565b5f805f805f60808688031215612d59575f80fd5b8535612d6481612c1a565b94506020860135612d7481612c1a565b935060408601359250606086013567ffffffffffffffff811115612d96575f80fd5b612da288828901612c3b565b969995985093965092949392505050565b7f4e487b71000000000000000000000000000000000000000000000000000000005f52604160045260245ffd5b604051601f82017fffffffffffffffffffffffffffffffffffffffffffffffffffffffffffffffe016810167ffffffffffffffff81118282101715612e2757612e27612db3565b604052919050565b5f67ffffffffffffffff821115612e4857612e48612db3565b50601f017fffffffffffffffffffffffffffffffffffffffffffffffffffffffffffffffe01660200190565b5f82601f830112612e83575f80fd5b8135612e96612e9182612e2f565b612de0565b818152846020838601011115612eaa575f80fd5b816020850160208301375f918101602001919091529392505050565b5f8060408385031215612ed7575f80fd5b82359150602083013567ffffffffffffffff811115612ef4575f80fd5b612f0085828601612e74565b9150509250929050565b5f8060408385031215612f1b575f80fd5b8235612f2681612c1a565b946020939093013593505050565b5f805f60608486031215612f46575f80fd5b833567ffffffffffffffff811115612f5c575f80fd5b84016101608187031215612f6e575f80fd5b95602085013595506040909401359392505050565b5f805f8060808587031215612f96575f80fd5b84359350602085013567ffffffffffffffff811115612fb3575f80fd5b612fbf87828801612e74565b9350506040850135612fd081612c1a565b9396929550929360600135925050565b5f8060408385031215612ff1575f80fd5b50508035926020909101359150565b602080825282518282018190525f9190848201906040850190845b818110156130375783518352928401929184019160010161301b565b50909695505050505050565b5f805f60608486031215613055575f80fd5b833561306081612c1a565b9250602084013567ffffffffffffffff81111561307b575f80fd5b61308786828701612e74565b925050604084013590509250925092565b5f602082840312156130a8575f80fd5b5035919050565b5f602082840312156130bf575f80fd5b813567ffffffffffffffff8111156130d5575f80fd5b6130e184828501612e74565b949350505050565b5f8083601f8401126130f9575f80fd5b50813567ffffffffffffffff811115613110575f80fd5b6020830191508360208260051b8501011115612c79575f80fd5b5f805f805f805f8060a0898b031215613141575f80fd5b883561314c81612c1a565b9750602089013561315c81612c1a565b9650604089013567ffffffffffffffff80821115613178575f80fd5b6131848c838d016130e9565b909850965060608b013591508082111561319c575f80fd5b6131a88c838d016130e9565b909650945060808b0135915080821115612d09575f80fd5b5f805f805f60a086880312156131d4575f80fd5b85356131df81612c1a565b945060208601359350604086013567ffffffffffffffff811115613201575f80fd5b61320d88828901612e74565b935050606086013560028110613221575f80fd5b949793965091946080013592915050565b5f81518084528060208401602086015e5f6020828601015260207fffffffffffffffffffffffffffffffffffffffffffffffffffffffffffffffe0601f83011685010191505092915050565b602081525f610d066020830184613232565b7f4e487b71000000000000000000000000000000000000000000000000000000005f52602160045260245ffd5b60208101600383106132f6577f4e487b71000000000000000000000000000000000000000000000000000000005f52602160045260245ffd5b91905290565b5f805f805f8060a08789031215613311575f80fd5b863561331c81612c1a565b9550602087013561332c81612c1a565b94506040870135935060608701359250608087013567ffffffffffffffff811115613355575f80fd5b61336189828a01612c3b565b979a9699509497509295939492505050565b828152604060208201525f6130e16040830184613232565b5f6020828403121561339b575f80fd5b81517fffffffff0000000000000000000000000000000000000000000000000000000081168114610d06575f80fd5b5f80604083850312156133db575f80fd5b82516133e681612c1a565b6020939093015192949293505050565b5f8083357fffffffffffffffffffffffffffffffffffffffffffffffffffffffffffffffe1843603018112613429575f80fd5b83018035915067ffffffffffffffff821115613443575f80fd5b602001915036819003821315612c79575f80fd5b848152608060208201525f61346f6080830186613232565b73ffffffffffffffffffffffffffffffffffffffff949094166040830152506060015292915050565b7f4e487b71000000000000000000000000000000000000000000000000000000005f52601160045260245ffd5b80820180821115610ce357610ce3613498565b7f4e487b71000000000000000000000000000000000000000000000000000000005f52603260045260245ffd5b5f60208284031215613515575f80fd5b8151610d0681612c1a565b73ffffffffffffffffffffffffffffffffffffffff84168152606060208201525f61354e6060830185613232565b9050826040830152949350505050565b5f7fffffffffffffffffffffffffffffffffffffffffffffffffffffffffffffffff820361358e5761358e613498565b5060010190565b5f608082840312156135a5575f80fd5b6040516080810181811067ffffffffffffffff821117156135c8576135c8612db3565b60405282516135d681612c1a565b815260208301516135e681612c1a565b602082015260408301516135f981612c1a565b6040820152606083015163ffffffff81168114613614575f80fd5b60608201529392505050565b5f81518060208401855e5f93019283525090919050565b5f610d068284613620565b5f8161365057613650613498565b507fffffffffffffffffffffffffffffffffffffffffffffffffffffffffffffffff0190565b5f8060408385031215613687575f80fd5b82519150602083015167ffffffffffffffff8111156136a4575f80fd5b8301601f810185136136b4575f80fd5b80516136c2612e9182612e2f565b8181528660208385010111156136d6575f80fd5b8160208401602083015e5f602083830101528093505050509250929050565b5f60208284031215613705575f80fd5b5051919050565b8082028115828204841417610ce357610ce3613498565b7f630000000000000000000000000000000000000000000000000000000000000081527fffffffff000000000000000000000000000000000000000000000000000000008360e01b1660018201527f80600e6000396000f3000000000000000000000000000000000000000000000060058201525f600e8201525f6130e1600f83018461362056fea2646970667358221220b69d0d2f43cba0bbdf8f7740bd7daf3d66080b5d267f8439fc3baa25a7b3367e64736f6c63430008190033",
  "linkReferences": {},
  "deployedLinkReferences": {}
}