{
  "_format": "hh-sol-artifact-1",
  "contractName": "Karma",
  "sourceName": "contracts/Karma.sol",
  "abi": [
    {
      "inputs": [],
      "name": "AlreadyInitialized",
      "type": "error"
    },
    {
      "inputs": [
        {
          "internalType": "address",
          "name": "sender",
          "type": "address"
        },
        {
          "internalType": "address",
          "name": "owner",
          "type": "address"
        }
      ],
      "name": "OwnerOnly",
      "type": "error"
    },
    {
      "inputs": [
        {
          "internalType": "address",
          "name": "account",
          "type": "address"
        }
      ],
      "name": "UnauthorizedAccount",
      "type": "error"
    },
    {
      "inputs": [
        {
          "internalType": "uint256",
          "name": "numValues1",
          "type": "uint256"
        },
        {
          "internalType": "uint256",
          "name": "numValues2",
          "type": "uint256"
        }
      ],
      "name": "WrongArrayLength",
      "type": "error"
    },
    {
      "inputs": [],
      "name": "ZeroAddress",
      "type": "error"
    },
    {
      "anonymous": false,
      "inputs": [
        {
          "indexed": true,
          "internalType": "address",
          "name": "implementation",
          "type": "address"
        }
      ],
      "name": "ImplementationUpdated",
      "type": "event"
    },
    {
      "anonymous": false,
      "inputs": [
        {
          "indexed": true,
          "internalType": "address",
          "name": "mech",
          "type": "address"
        },
        {
          "indexed": false,
          "internalType": "int256",
          "name": "karmaChange",
          "type": "int256"
        }
      ],
      "name": "MechKarmaChanged",
      "type": "event"
    },
    {
      "anonymous": false,
      "inputs": [
        {
          "indexed": true,
          "internalType": "address",
          "name": "owner",
          "type": "address"
        }
      ],
      "name": "OwnerUpdated",
      "type": "event"
    },
    {
      "anonymous": false,
      "inputs": [
        {
          "indexed": true,
          "internalType": "address",
          "name": "requester",
          "type": "address"
        },
        {
          "indexed": true,
          "internalType": "address",
          "name": "mech",
          "type": "address"
        },
        {
          "indexed": false,
          "internalType": "int256",
          "name": "karmaChange",
          "type": "int256"
        }
      ],
      "name": "RequesterMechKarmaChanged",
      "type": "event"
    },
    {
      "anonymous": false,
      "inputs": [
        {
          "indexed": false,
          "internalType": "address[]",
          "name": "mechMarketplaces",
          "type": "address[]"
        },
        {
          "indexed": false,
          "internalType": "bool[]",
          "name": "statuses",
          "type": "bool[]"
        }
      ],
      "name": "SetMechMarketplaceStatuses",
      "type": "event"
    },
    {
      "inputs": [],
      "name": "KARMA_PROXY",
      "outputs": [
        {
          "internalType": "bytes32",
          "name": "",
          "type": "bytes32"
        }
      ],
      "stateMutability": "view",
      "type": "function"
    },
    {
      "inputs": [],
      "name": "VERSION",
      "outputs": [
        {
          "internalType": "string",
          "name": "",
          "type": "string"
        }
      ],
      "stateMutability": "view",
      "type": "function"
    },
    {
      "inputs": [
        {
          "internalType": "address",
          "name": "newImplementation",
          "type": "address"
        }
      ],
      "name": "changeImplementation",
      "outputs": [],
      "stateMutability": "nonpayable",
      "type": "function"
    },
    {
      "inputs": [
        {
          "internalType": "address",
          "name": "mech",
          "type": "address"
        },
        {
          "internalType": "int256",
          "name": "karmaChange",
          "type": "int256"
        }
      ],
      "name": "changeMechKarma",
      "outputs": [],
      "stateMutability": "nonpayable",
      "type": "function"
    },
    {
      "inputs": [
        {
          "internalType": "address",
          "name": "newOwner",
          "type": "address"
        }
      ],
      "name": "changeOwner",
      "outputs": [],
      "stateMutability": "nonpayable",
      "type": "function"
    },
    {
      "inputs": [
        {
          "internalType": "address",
          "name": "requester",
          "type": "address"
        },
        {
          "internalType": "address",
          "name": "mech",
          "type": "address"
        },
        {
          "internalType": "int256",
          "name": "karmaChange",
          "type": "int256"
        }
      ],
      "name": "changeRequesterMechKarma",
      "outputs": [],
      "stateMutability": "nonpayable",
      "type": "function"
    },
    {
      "inputs": [],
      "name": "getImplementation",
      "outputs": [
        {
          "internalType": "address",
          "name": "implementation",
          "type": "address"
        }
      ],
      "stateMutability": "view",
      "type": "function"
    },
    {
      "inputs": [],
      "name": "initialize",
      "outputs": [],
      "stateMutability": "nonpayable",
      "type": "function"
    },
    {
      "inputs": [
        {
          "internalType": "address",
          "name": "",
          "type": "address"
        }
      ],
      "name": "mapMechKarma",
      "outputs": [
        {
          "internalType": "int256",
          "name": "",
          "type": "int256"
        }
      ],
      "stateMutability": "view",
      "type": "function"
    },
    {
      "inputs": [
        {
          "internalType": "address",
          "name": "",
          "type": "address"
        }
      ],
      "name": "mapMechMarketplaces",
      "outputs": [
        {
          "internalType": "bool",
          "name": "",
          "type": "bool"
        }
      ],
      "stateMutability": "view",
      "type": "function"
    },
    {
      "inputs": [
        {
          "internalType": "address",
          "name": "",
          "type": "address"
        },
        {
          "internalType": "address",
          "name": "",
          "type": "address"
        }
      ],
      "name": "mapRequesterMechKarma",
      "outputs": [
        {
          "internalType": "int256",
          "name": "",
          "type": "int256"
        }
      ],
      "stateMutability": "view",
      "type": "function"
    },
    {
      "inputs": [],
      "name": "owner",
      "outputs": [
        {
          "internalType": "address",
          "name": "",
          "type": "address"
        }
      ],
      "stateMutability": "view",
      "type": "function"
    },
    {
      "inputs": [
        {
          "internalType": "address[]",
          "name": "mechMarketplaces",
          "type": "address[]"
        },
        {
          "internalType": "bool[]",
          "name": "statuses",
          "type": "bool[]"
        }
      ],
      "name": "setMechMarketplaceStatuses",
      "outputs": [],
      "stateMutability": "nonpayable",
      "type": "function"
    }
  ],
  "bytecode": "0x6080604052348015600e575f80fd5b50610da28061001c5f395ff3fe608060405234801561000f575f80fd5b50600436106100da575f3560e01c80638129fc1c11610088578063a6f9dae111610063578063a6f9dae114610206578063aaf10f4214610219578063fc3aecd014610240578063ffa1ad7414610267575f80fd5b80638129fc1c1461019b5780638da5cb5b146101a35780639ecfd0ef146101e7575f80fd5b80634225d37a116100b85780634225d37a1461014357806355e7d04414610156578063643f28d914610169575f80fd5b80630aa4a379146100de57806317a68dd8146100f357806330a2c84314610106575b5f80fd5b6100f16100ec366004610aa3565b6102b0565b005b6100f1610101366004610b5d565b6104c8565b610130610114366004610b7d565b600360209081525f928352604080842090915290825290205481565b6040519081526020015b60405180910390f35b6100f1610151366004610bae565b6105ed565b6100f1610164366004610bd6565b6106bf565b61018b610177366004610b5d565b60016020525f908152604090205460ff1681565b604051901515815260200161013a565b6100f16107bf565b5f546101c29073ffffffffffffffffffffffffffffffffffffffff1681565b60405173ffffffffffffffffffffffffffffffffffffffff909116815260200161013a565b6101306101f5366004610b5d565b60026020525f908152604090205481565b6100f1610214366004610b5d565b610839565b7f1e4b6d67098d4183ce03b91c95f9376a98c5440ec22f2cf171d6dca04a5a29d8546101c2565b6101307f1e4b6d67098d4183ce03b91c95f9376a98c5440ec22f2cf171d6dca04a5a29d881565b6102a36040518060400160405280600581526020017f312e302e3000000000000000000000000000000000000000000000000000000081525081565b60405161013a9190610c0f565b5f5473ffffffffffffffffffffffffffffffffffffffff163314610326575f546040517fa43d6ada00000000000000000000000000000000000000000000000000000000815233600482015273ffffffffffffffffffffffffffffffffffffffff90911660248201526044015b60405180910390fd5b805182511461036e57815181516040517f8151c1100000000000000000000000000000000000000000000000000000000081526004810192909252602482015260440161031d565b5f5b825181101561048a575f73ffffffffffffffffffffffffffffffffffffffff168382815181106103a2576103a2610c62565b602002602001015173ffffffffffffffffffffffffffffffffffffffff16036103f7576040517fd92e233d00000000000000000000000000000000000000000000000000000000815260040160405180910390fd5b81818151811061040957610409610c62565b602002602001015160015f85848151811061042657610426610c62565b60209081029190910181015173ffffffffffffffffffffffffffffffffffffffff1682528101919091526040015f2080547fffffffffffffffffffffffffffffffffffffffffffffffffffffffffffffff0016911515919091179055600101610370565b507fa643ff1a5a85bb4fd8c0288e824ec47c8cd49401b14544c4bcb2f40ec8adda6982826040516104bc929190610c8f565b60405180910390a15050565b5f5473ffffffffffffffffffffffffffffffffffffffff163314610539575f546040517fa43d6ada00000000000000000000000000000000000000000000000000000000815233600482015273ffffffffffffffffffffffffffffffffffffffff909116602482015260440161031d565b73ffffffffffffffffffffffffffffffffffffffff8116610586576040517fd92e233d00000000000000000000000000000000000000000000000000000000815260040160405180910390fd5b7f1e4b6d67098d4183ce03b91c95f9376a98c5440ec22f2cf171d6dca04a5a29d881905560405173ffffffffffffffffffffffffffffffffffffffff8216907f310ba5f1d2ed074b51e2eccd052a47ae9ab7c6b800d1fca3db3999d6a592ca03905f90a250565b335f9081526001602052604090205460ff16610637576040517f32b2baa300000000000000000000000000000000000000000000000000000000815233600482015260240161031d565b73ffffffffffffffffffffffffffffffffffffffff82165f908152600260205260408120805483929061066b908490610d20565b909155505060405181815273ffffffffffffffffffffffffffffffffffffffff8316907f417740bdbf75bcc9cd063a95c8af25366c2a27f49d23d5eeafc2db269143af5f9060200160405180910390a25050565b335f9081526001602052604090205460ff16610709576040517f32b2baa300000000000000000000000000000000000000000000000000000000815233600482015260240161031d565b73ffffffffffffffffffffffffffffffffffffffff8084165f9081526003602090815260408083209386168352929052908120805483929061074c908490610d20565b925050819055508173ffffffffffffffffffffffffffffffffffffffff168373ffffffffffffffffffffffffffffffffffffffff167f3df02d68ad731eb0c4caab8f9424137610f574d333c6a00ce3e0ef6b6d032ba4836040516107b291815260200190565b60405180910390a3505050565b5f5473ffffffffffffffffffffffffffffffffffffffff161561080e576040517f0dc149f000000000000000000000000000000000000000000000000000000000815260040160405180910390fd5b5f80547fffffffffffffffffffffffff00000000000000000000000000000000000000001633179055565b5f5473ffffffffffffffffffffffffffffffffffffffff1633146108aa575f546040517fa43d6ada00000000000000000000000000000000000000000000000000000000815233600482015273ffffffffffffffffffffffffffffffffffffffff909116602482015260440161031d565b73ffffffffffffffffffffffffffffffffffffffff81166108f7576040517fd92e233d00000000000000000000000000000000000000000000000000000000815260040160405180910390fd5b5f80547fffffffffffffffffffffffff00000000000000000000000000000000000000001673ffffffffffffffffffffffffffffffffffffffff8316908117825560405190917f4ffd725fc4a22075e9ec71c59edf9c38cdeb588a91b24fc5b61388c5be41282b91a250565b7f4e487b71000000000000000000000000000000000000000000000000000000005f52604160045260245ffd5b604051601f82017fffffffffffffffffffffffffffffffffffffffffffffffffffffffffffffffe016810167ffffffffffffffff811182821017156109d7576109d7610963565b604052919050565b5f67ffffffffffffffff8211156109f8576109f8610963565b5060051b60200190565b803573ffffffffffffffffffffffffffffffffffffffff81168114610a25575f80fd5b919050565b5f82601f830112610a39575f80fd5b81356020610a4e610a49836109df565b610990565b8083825260208201915060208460051b870101935086841115610a6f575f80fd5b602086015b84811015610a985780358015158114610a8b575f80fd5b8352918301918301610a74565b509695505050505050565b5f8060408385031215610ab4575f80fd5b823567ffffffffffffffff80821115610acb575f80fd5b818501915085601f830112610ade575f80fd5b81356020610aee610a49836109df565b82815260059290921b84018101918181019089841115610b0c575f80fd5b948201945b83861015610b3157610b2286610a02565b82529482019490820190610b11565b96505086013592505080821115610b46575f80fd5b50610b5385828601610a2a565b9150509250929050565b5f60208284031215610b6d575f80fd5b610b7682610a02565b9392505050565b5f8060408385031215610b8e575f80fd5b610b9783610a02565b9150610ba560208401610a02565b90509250929050565b5f8060408385031215610bbf575f80fd5b610bc883610a02565b946020939093013593505050565b5f805f60608486031215610be8575f80fd5b610bf184610a02565b9250610bff60208501610a02565b9150604084013590509250925092565b602081525f82518060208401528060208501604085015e5f6040828501015260407fffffffffffffffffffffffffffffffffffffffffffffffffffffffffffffffe0601f83011684010191505092915050565b7f4e487b71000000000000000000000000000000000000000000000000000000005f52603260045260245ffd5b604080825283519082018190525f906020906060840190828701845b82811015610cdd57815173ffffffffffffffffffffffffffffffffffffffff1684529284019290840190600101610cab565b505050838103828501528451808252858301918301905f5b81811015610d13578351151583529284019291840191600101610cf5565b5090979650505050505050565b8082018281125f831280158216821582161715610d64577f4e487b71000000000000000000000000000000000000000000000000000000005f52601160045260245ffd5b50509291505056fea2646970667358221220f45805d602c723aed68b2ed0a08190c7459573dbd69bc2238ad2a8bd7249a3f264736f6c63430008190033",
  "linkReferences": {},
  "deployedLinkReferences": {}
}