{
  "_format": "hh-sol-artifact-1",
  "contractName": "BalanceTrackerFixedPriceNative",
  "sourceName": "contracts/mechs/native/BalanceTrackerFixedPriceNative.sol",
  "abi": [
    {
      "inputs": [
        {
          "internalType": "address",
          "name": "_mechMarketplace",
          "type": "address"
        },
        {
          "internalType": "address",
          "name": "_drainer",
          "type": "address"
        },
        {
          "internalType": "address",
          "name": "_wrappedNativeToken",
          "type": "address"
        }
      ],
      "stateMutability": "nonpayable",
      "type": "constructor"
    },
    {
      "inputs": [
        {
          "internalType": "uint256",
          "name": "current",
          "type": "uint256"
        },
        {
          "internalType": "uint256",
          "name": "required",
          "type": "uint256"
        }
      ],
      "name": "InsufficientBalance",
      "type": "error"
    },
    {
      "inputs": [
        {
          "internalType": "address",
          "name": "sender",
          "type": "address"
        },
        {
          "internalType": "address",
          "name": "marketplace",
          "type": "address"
        }
      ],
      "name": "MarketplaceOnly",
      "type": "error"
    },
    {
      "inputs": [],
      "name": "ReentrancyGuard",
      "type": "error"
    },
    {
      "inputs": [
        {
          "internalType": "address",
          "name": "token",
          "type": "address"
        },
        {
          "internalType": "address",
          "name": "from",
          "type": "address"
        },
        {
          "internalType": "address",
          "name": "to",
          "type": "address"
        },
        {
          "internalType": "uint256",
          "name": "amount",
          "type": "uint256"
        }
      ],
      "name": "TransferFailed",
      "type": "error"
    },
    {
      "inputs": [
        {
          "internalType": "address",
          "name": "account",
          "type": "address"
        }
      ],
      "name": "UnauthorizedAccount",
      "type": "error"
    },
    {
      "inputs": [],
      "name": "ZeroAddress",
      "type": "error"
    },
    {
      "inputs": [],
      "name": "ZeroValue",
      "type": "error"
    },
    {
      "anonymous": false,
      "inputs": [
        {
          "indexed": true,
          "internalType": "address",
          "name": "account",
          "type": "address"
        },
        {
          "indexed": true,
          "internalType": "address",
          "name": "token",
          "type": "address"
        },
        {
          "indexed": false,
          "internalType": "uint256",
          "name": "amount",
          "type": "uint256"
        }
      ],
      "name": "Deposit",
      "type": "event"
    },
    {
      "anonymous": false,
      "inputs": [
        {
          "indexed": true,
          "internalType": "address",
          "name": "token",
          "type": "address"
        },
        {
          "indexed": false,
          "internalType": "uint256",
          "name": "collectedFees",
          "type": "uint256"
        }
      ],
      "name": "Drained",
      "type": "event"
    },
    {
      "anonymous": false,
      "inputs": [
        {
          "indexed": true,
          "internalType": "address",
          "name": "mech",
          "type": "address"
        },
        {
          "indexed": false,
          "internalType": "uint256",
          "name": "deliveryRate",
          "type": "uint256"
        },
        {
          "indexed": false,
          "internalType": "uint256",
          "name": "balance",
          "type": "uint256"
        },
        {
          "indexed": false,
          "internalType": "uint256",
          "name": "rateDiff",
          "type": "uint256"
        }
      ],
      "name": "MechBalanceAdjusted",
      "type": "event"
    },
    {
      "anonymous": false,
      "inputs": [
        {
          "indexed": true,
          "internalType": "address",
          "name": "requester",
          "type": "address"
        },
        {
          "indexed": false,
          "internalType": "uint256",
          "name": "deliveryRate",
          "type": "uint256"
        },
        {
          "indexed": false,
          "internalType": "uint256",
          "name": "balance",
          "type": "uint256"
        }
      ],
      "name": "RequesterBalanceAdjusted",
      "type": "event"
    },
    {
      "anonymous": false,
      "inputs": [
        {
          "indexed": true,
          "internalType": "address",
          "name": "account",
          "type": "address"
        },
        {
          "indexed": true,
          "internalType": "address",
          "name": "token",
          "type": "address"
        },
        {
          "indexed": false,
          "internalType": "uint256",
          "name": "amount",
          "type": "uint256"
        }
      ],
      "name": "Withdraw",
      "type": "event"
    },
    {
      "inputs": [],
      "name": "MAX_FEE_FACTOR",
      "outputs": [
        {
          "internalType": "uint256",
          "name": "",
          "type": "uint256"
        }
      ],
      "stateMutability": "view",
      "type": "function"
    },
    {
      "inputs": [],
      "name": "MIN_MECH_BALANCE",
      "outputs": [
        {
          "internalType": "uint256",
          "name": "",
          "type": "uint256"
        }
      ],
      "stateMutability": "view",
      "type": "function"
    },
    {
      "inputs": [
        {
          "internalType": "address",
          "name": "mech",
          "type": "address"
        },
        {
          "internalType": "address",
          "name": "requester",
          "type": "address"
        },
        {
          "internalType": "uint256[]",
          "name": "mechDeliveryRates",
          "type": "uint256[]"
        },
        {
          "internalType": "bytes",
          "name": "paymentData",
          "type": "bytes"
        }
      ],
      "name": "adjustMechRequesterBalances",
      "outputs": [],
      "stateMutability": "nonpayable",
      "type": "function"
    },
    {
      "inputs": [
        {
          "internalType": "address",
          "name": "requester",
          "type": "address"
        },
        {
          "internalType": "uint256",
          "name": "numRequests",
          "type": "uint256"
        },
        {
          "internalType": "uint256",
          "name": "deliveryRate",
          "type": "uint256"
        },
        {
          "internalType": "bytes",
          "name": "paymentData",
          "type": "bytes"
        }
      ],
      "name": "checkAndRecordDeliveryRates",
      "outputs": [],
      "stateMutability": "payable",
      "type": "function"
    },
    {
      "inputs": [],
      "name": "collectedFees",
      "outputs": [
        {
          "internalType": "uint256",
          "name": "",
          "type": "uint256"
        }
      ],
      "stateMutability": "view",
      "type": "function"
    },
    {
      "inputs": [
        {
          "internalType": "address",
          "name": "account",
          "type": "address"
        }
      ],
      "name": "depositFor",
      "outputs": [],
      "stateMutability": "payable",
      "type": "function"
    },
    {
      "inputs": [],
      "name": "drain",
      "outputs": [],
      "stateMutability": "nonpayable",
      "type": "function"
    },
    {
      "inputs": [],
      "name": "drainer",
      "outputs": [
        {
          "internalType": "address",
          "name": "",
          "type": "address"
        }
      ],
      "stateMutability": "view",
      "type": "function"
    },
    {
      "inputs": [
        {
          "internalType": "address",
          "name": "mech",
          "type": "address"
        },
        {
          "internalType": "address[]",
          "name": "requesters",
          "type": "address[]"
        },
        {
          "internalType": "bool[]",
          "name": "deliveredRequests",
          "type": "bool[]"
        },
        {
          "internalType": "uint256[]",
          "name": "mechDeliveryRates",
          "type": "uint256[]"
        },
        {
          "internalType": "uint256[]",
          "name": "requesterDeliveryRates",
          "type": "uint256[]"
        }
      ],
      "name": "finalizeDeliveryRates",
      "outputs": [],
      "stateMutability": "nonpayable",
      "type": "function"
    },
    {
      "inputs": [
        {
          "internalType": "address",
          "name": "",
          "type": "address"
        }
      ],
      "name": "mapMechBalances",
      "outputs": [
        {
          "internalType": "uint256",
          "name": "",
          "type": "uint256"
        }
      ],
      "stateMutability": "view",
      "type": "function"
    },
    {
      "inputs": [
        {
          "internalType": "address",
          "name": "",
          "type": "address"
        }
      ],
      "name": "mapRequesterBalances",
      "outputs": [
        {
          "internalType": "uint256",
          "name": "",
          "type": "uint256"
        }
      ],
      "stateMutability": "view",
      "type": "function"
    },
    {
      "inputs": [],
      "name": "mechMarketplace",
      "outputs": [
        {
          "internalType": "address",
          "name": "",
          "type": "address"
        }
      ],
      "stateMutability": "view",
      "type": "function"
    },
    {
      "inputs": [],
      "name": "processPayment",
      "outputs": [
        {
          "internalType": "uint256",
          "name": "mechPayment",
          "type": "uint256"
        },
        {
          "internalType": "uint256",
          "name": "marketplaceFee",
          "type": "uint256"
        }
      ],
      "stateMutability": "nonpayable",
      "type": "function"
    },
    {
      "inputs": [
        {
          "internalType": "address",
          "name": "mech",
          "type": "address"
        }
      ],
      "name": "processPaymentByMultisig",
      "outputs": [
        {
          "internalType": "uint256",
          "name": "mechPayment",
          "type": "uint256"
        },
        {
          "internalType": "uint256",
          "name": "marketplaceFee",
          "type": "uint256"
        }
      ],
      "stateMutability": "nonpayable",
      "type": "function"
    },
    {
      "inputs": [],
      "name": "wrappedNativeToken",
      "outputs": [
        {
          "internalType": "address",
          "name": "",
          "type": "address"
        }
      ],
      "stateMutability": "view",
      "type": "function"
    },
    {
      "stateMutability": "payable",
      "type": "receive"
    }
  ],
  "bytecode": "0x60e060405260018055348015610013575f5ffd5b50604051611961380380611961833981016040819052610032916100d0565b82826001600160a01b038216158061005157506001600160a01b038116155b1561006f5760405163d92e233d60e01b815260040160405180910390fd5b6001600160a01b03918216608052811660a05281166100a15760405163d92e233d60e01b815260040160405180910390fd5b6001600160a01b031660c052506101109050565b80516001600160a01b03811681146100cb575f5ffd5b919050565b5f5f5f606084860312156100e2575f5ffd5b6100eb846100b5565b92506100f9602085016100b5565b9150610107604085016100b5565b90509250925092565b60805160a05160c0516117e86101795f395f818161018401528181610f8301528181610ff001526111f301525f818161021a0152610f5401525f81816102de015281816104240152818161048c01528181610793015281816107fb015261106401526117e85ff3fe6080604052600436106100e7575f3560e01c806379e4afe811610087578063aa67c91911610057578063aa67c91914610300578063af4937fc14610313578063e679803514610328578063f965a87314610353575f5ffd5b806379e4afe8146102865780639003adfe146102a55780639890220b146102b95780639c5e9590146102cd575f5ffd5b806338603a39116100c257806338603a39146101f457806357838e85146102095780636072dd2c1461023c5780636aeeffa81461025b575f5ffd5b8063163ad7151461014c57806317fcb39b1461017357806322081c12146101cb575f5ffd5b3661014857335f908152600260205260408120805434929061010a90849061129e565b90915550506040513481525f9033907f5548c837ab068cf56a2c2479df0882a4922fd203edb7517321831d95078c5f629060200160405180910390a3005b5f5ffd5b348015610157575f5ffd5b50610160600281565b6040519081526020015b60405180910390f35b34801561017e575f5ffd5b506101a67f000000000000000000000000000000000000000000000000000000000000000081565b60405173ffffffffffffffffffffffffffffffffffffffff909116815260200161016a565b3480156101d6575f5ffd5b506101df610372565b6040805192835260208301919091520161016a565b6102076102023660046113df565b6103cb565b005b348015610214575f5ffd5b506101a67f000000000000000000000000000000000000000000000000000000000000000081565b348015610247575f5ffd5b506102076102563660046114c9565b610589565b348015610266575f5ffd5b50610160610275366004611536565b60026020525f908152604090205481565b348015610291575f5ffd5b506102076102a03660046115c3565b61073a565b3480156102b0575f5ffd5b506101605f5481565b3480156102c4575f5ffd5b50610207610a9f565b3480156102d8575f5ffd5b506101a67f000000000000000000000000000000000000000000000000000000000000000081565b61020761030e366004611536565b610b30565b34801561031e575f5ffd5b5061016061271081565b348015610333575f5ffd5b50610160610342366004611536565b60036020525f908152604090205481565b34801561035e575f5ffd5b506101df61036d366004611536565b610bb9565b5f5f6001546002036103b0576040517f8beb9d1600000000000000000000000000000000000000000000000000000000815260040160405180910390fd5b60026001556103be33610cd7565b6001805590939092509050565b600154600203610407576040517f8beb9d1600000000000000000000000000000000000000000000000000000000815260040160405180910390fd5b60026001553373ffffffffffffffffffffffffffffffffffffffff7f000000000000000000000000000000000000000000000000000000000000000016146104be576040517fe56895c000000000000000000000000000000000000000000000000000000000815233600482015273ffffffffffffffffffffffffffffffffffffffff7f00000000000000000000000000000000000000000000000000000000000000001660248201526044015b60405180910390fd5b5f6104c7610e16565b73ffffffffffffffffffffffffffffffffffffffff86165f90815260026020526040812054919250906104fb90839061129e565b90505f61050886866116ea565b905061051687838387610e5a565b73ffffffffffffffffffffffffffffffffffffffff88165f81815260026020908152604091829020849055815185815290810184905292945090917e572a5ba2b0e6be13dc09fac07a0c06782c5defdef8694b0085972ebdb1201291015b60405180910390a25050600180555050505050565b6001546002036105c5576040517f8beb9d1600000000000000000000000000000000000000000000000000000000815260040160405180910390fd5b60026001555f805b8351811015610605578381815181106105e8576105e8611701565b6020026020010151826105fb919061129e565b91506001016105cd565b5073ffffffffffffffffffffffffffffffffffffffff84165f9081526002602052604090205461063785828486610e5a565b73ffffffffffffffffffffffffffffffffffffffff8087165f908152600260209081526040808320859055928a16825260039052205490915061067a838261129e565b73ffffffffffffffffffffffffffffffffffffffff8881165f908152600360209081526040918290208490558151878152908101869052929350908816917e572a5ba2b0e6be13dc09fac07a0c06782c5defdef8694b0085972ebdb12012910160405180910390a260408051848152602081018390525f9181019190915273ffffffffffffffffffffffffffffffffffffffff8816907fd11af879a940c7604caa3933cb8a021f09a06692f4d05a5843fe06a003abed6890606001610574565b600154600203610776576040517f8beb9d1600000000000000000000000000000000000000000000000000000000815260040160405180910390fd5b60026001553373ffffffffffffffffffffffffffffffffffffffff7f00000000000000000000000000000000000000000000000000000000000000001614610828576040517fe56895c000000000000000000000000000000000000000000000000000000000815233600482015273ffffffffffffffffffffffffffffffffffffffff7f00000000000000000000000000000000000000000000000000000000000000001660248201526044016104b5565b82515f808080805b858110156109b75788818151811061084a5761084a611701565b6020026020010151156109af5787818151811061086957610869611701565b60200260200101518461087c919061129e565b935086818151811061089057610890611701565b6020026020010151836108a3919061129e565b92505f8882815181106108b8576108b8611701565b60200260200101518883815181106108d2576108d2611701565b602002602001015111156109ad578882815181106108f2576108f2611701565b602002602001015188838151811061090c5761090c611701565b602002602001015161091e919061172e565b905061092a818461129e565b925061094f8b838151811061094157610941611701565b602002602001015182610ed5565b95508560025f8d858151811061096757610967611701565b602002602001015173ffffffffffffffffffffffffffffffffffffffff1673ffffffffffffffffffffffffffffffffffffffff1681526020019081526020015f20819055505b505b600101610830565b50825f036109f1576040517f7c946ed700000000000000000000000000000000000000000000000000000000815260040160405180910390fd5b73ffffffffffffffffffffffffffffffffffffffff8a165f908152600360205260409020549350610a22838561129e565b73ffffffffffffffffffffffffffffffffffffffff8b165f818152600360209081526040918290208490558151878152908101849052908101849052919550907fd11af879a940c7604caa3933cb8a021f09a06692f4d05a5843fe06a003abed689060600160405180910390a25050600180555050505050505050565b600154600203610adb576040517f8beb9d1600000000000000000000000000000000000000000000000000000000815260040160405180910390fd5b60026001555f805490819003610b1d576040517f7c946ed700000000000000000000000000000000000000000000000000000000815260040160405180910390fd5b5f8055610b2981610f0e565b5060018055565b73ffffffffffffffffffffffffffffffffffffffff81165f9081526002602052604081208054349290610b6490849061129e565b90915550506040513481525f9073ffffffffffffffffffffffffffffffffffffffff8316907f5548c837ab068cf56a2c2479df0882a4922fd203edb7517321831d95078c5f629060200160405180910390a350565b5f5f600154600203610bf7576040517f8beb9d1600000000000000000000000000000000000000000000000000000000815260040160405180910390fd5b60026001556040517f6d70f7ae00000000000000000000000000000000000000000000000000000000815233600482015273ffffffffffffffffffffffffffffffffffffffff841690636d70f7ae90602401602060405180830381865afa158015610c64573d5f5f3e3d5ffd5b505050506040513d601f19601f82011682018060405250810190610c889190611741565b610cc0576040517f32b2baa30000000000000000000000000000000000000000000000000000000081523360048201526024016104b5565b610cc983610cd7565b600180559094909350915050565b73ffffffffffffffffffffffffffffffffffffffff81165f9081526003602052604081205481906002811015610d39576040517f7c946ed700000000000000000000000000000000000000000000000000000000815260040160405180910390fd5b5f610d42611061565b9050612710610d5260018261172e565b610d5c83856116ea565b610d66919061129e565b610d709190611763565b9250610d7c838361172e565b93505f81118015610d8b575082155b80610d94575083155b15610dcb576040517f7c946ed700000000000000000000000000000000000000000000000000000000815260040160405180910390fd5b825f5f828254610ddb919061129e565b909155505073ffffffffffffffffffffffffffffffffffffffff85165f90815260036020526040812055610e0f85856110f4565b5050915091565b5f3415610e55576040513481525f9033907f5548c837ab068cf56a2c2479df0882a4922fd203edb7517321831d95078c5f629060200160405180910390a35b503490565b5f82841015610ec2575f610e6e858561172e565b9050610e7a5f8661129e565b945083851015610ec0576040517fcf47918100000000000000000000000000000000000000000000000000000000815260048101869052602481018590526044016104b5565b505b610ecc838561172e565b95945050505050565b73ffffffffffffffffffffffffffffffffffffffff82165f90815260026020526040812054610f0590839061129e565b90505b92915050565b610f17816111f1565b6040517fa9059cbb00000000000000000000000000000000000000000000000000000000815273ffffffffffffffffffffffffffffffffffffffff7f000000000000000000000000000000000000000000000000000000000000000081166004830152602482018390527f0000000000000000000000000000000000000000000000000000000000000000169063a9059cbb906044016020604051808303815f875af1158015610fc9573d5f5f3e3d5ffd5b505050506040513d601f19601f82011682018060405250810190610fed9190611741565b507f000000000000000000000000000000000000000000000000000000000000000073ffffffffffffffffffffffffffffffffffffffff167fb2559daa129ad136aac2133ac6a0c75920abbef7d6663a017a94e181b13786c38260405161105691815260200190565b60405180910390a250565b5f7f000000000000000000000000000000000000000000000000000000000000000073ffffffffffffffffffffffffffffffffffffffff1663ddca3f436040518163ffffffff1660e01b8152600401602060405180830381865afa1580156110cb573d5f5f3e3d5ffd5b505050506040513d601f19601f820116820180604052508101906110ef919061179b565b905090565b5f8273ffffffffffffffffffffffffffffffffffffffff16826040515f6040518083038185875af1925050503d805f811461114a576040519150601f19603f3d011682016040523d82523d5f602084013e61114f565b606091505b50509050806111b5576040517fcd3f16590000000000000000000000000000000000000000000000000000000081525f600482015230602482015273ffffffffffffffffffffffffffffffffffffffff84166044820152606481018390526084016104b5565b6040518281525f9033907f9b1bfa7fa9ee420a16e124f794c35ac9f90472acc99140eb2f6447c714cad8eb9060200160405180910390a3505050565b7f000000000000000000000000000000000000000000000000000000000000000073ffffffffffffffffffffffffffffffffffffffff1663d0e30db0826040518263ffffffff1660e01b81526004015f604051808303818588803b158015611257575f5ffd5b505af1158015611269573d5f5f3e3d5ffd5b505050505050565b7f4e487b71000000000000000000000000000000000000000000000000000000005f52601160045260245ffd5b80820180821115610f0857610f08611271565b803573ffffffffffffffffffffffffffffffffffffffff811681146112d4575f5ffd5b919050565b7f4e487b71000000000000000000000000000000000000000000000000000000005f52604160045260245ffd5b604051601f82017fffffffffffffffffffffffffffffffffffffffffffffffffffffffffffffffe016810167ffffffffffffffff8111828210171561134d5761134d6112d9565b604052919050565b5f82601f830112611364575f5ffd5b813567ffffffffffffffff81111561137e5761137e6112d9565b6113af60207fffffffffffffffffffffffffffffffffffffffffffffffffffffffffffffffe0601f84011601611306565b8181528460208386010111156113c3575f5ffd5b816020850160208301375f918101602001919091529392505050565b5f5f5f5f608085870312156113f2575f5ffd5b6113fb856112b1565b93506020850135925060408501359150606085013567ffffffffffffffff811115611424575f5ffd5b61143087828801611355565b91505092959194509250565b5f67ffffffffffffffff821115611455576114556112d9565b5060051b60200190565b5f82601f83011261146e575f5ffd5b813561148161147c8261143c565b611306565b8082825260208201915060208360051b8601019250858311156114a2575f5ffd5b602085015b838110156114bf5780358352602092830192016114a7565b5095945050505050565b5f5f5f5f608085870312156114dc575f5ffd5b6114e5856112b1565b93506114f3602086016112b1565b9250604085013567ffffffffffffffff81111561150e575f5ffd5b61151a8782880161145f565b925050606085013567ffffffffffffffff811115611424575f5ffd5b5f60208284031215611546575f5ffd5b610f05826112b1565b801515811461155c575f5ffd5b50565b5f82601f83011261156e575f5ffd5b813561157c61147c8261143c565b8082825260208201915060208360051b86010192508583111561159d575f5ffd5b602085015b838110156114bf5780356115b58161154f565b8352602092830192016115a2565b5f5f5f5f5f60a086880312156115d7575f5ffd5b6115e0866112b1565b9450602086013567ffffffffffffffff8111156115fb575f5ffd5b8601601f8101881361160b575f5ffd5b803561161961147c8261143c565b8082825260208201915060208360051b85010192508a83111561163a575f5ffd5b6020840193505b8284101561166357611652846112b1565b825260209384019390910190611641565b9650505050604086013567ffffffffffffffff811115611681575f5ffd5b61168d8882890161155f565b935050606086013567ffffffffffffffff8111156116a9575f5ffd5b6116b58882890161145f565b925050608086013567ffffffffffffffff8111156116d1575f5ffd5b6116dd8882890161145f565b9150509295509295909350565b8082028115828204841417610f0857610f08611271565b7f4e487b71000000000000000000000000000000000000000000000000000000005f52603260045260245ffd5b81810381811115610f0857610f08611271565b5f60208284031215611751575f5ffd5b815161175c8161154f565b9392505050565b5f82611796577f4e487b71000000000000000000000000000000000000000000000000000000005f52601260045260245ffd5b500490565b5f602082840312156117ab575f5ffd5b505191905056fea2646970667358221220e0e63cf252e87cefcb72e8dd6a05cfa4d56dadfbed04de3a727a8ca148b072f464736f6c634300081c0033",
  "linkReferences": {},
  "deployedLinkReferences": {}
}