{
  "_format": "hh-sol-artifact-1",
  "contractName": "BalanceTrackerFixedPriceNative",
  "sourceName": "contracts/mechs/native/BalanceTrackerFixedPriceNative.sol",
  "abi": [
    {
      "inputs": [
        {
          "internalType": "address",
          "name": "_mechMarketplace",
          "type": "address"
        },
        {
          "internalType": "address",
          "name": "_buyBackBurner",
          "type": "address"
        },
        {
          "internalType": "address",
          "name": "_wrappedNativeToken",
          "type": "address"
        }
      ],
      "stateMutability": "nonpayable",
      "type": "constructor"
    },
    {
      "inputs": [
        {
          "internalType": "uint256",
          "name": "current",
          "type": "uint256"
        },
        {
          "internalType": "uint256",
          "name": "required",
          "type": "uint256"
        }
      ],
      "name": "InsufficientBalance",
      "type": "error"
    },
    {
      "inputs": [
        {
          "internalType": "address",
          "name": "sender",
          "type": "address"
        },
        {
          "internalType": "address",
          "name": "marketplace",
          "type": "address"
        }
      ],
      "name": "MarketplaceOnly",
      "type": "error"
    },
    {
      "inputs": [],
      "name": "ReentrancyGuard",
      "type": "error"
    },
    {
      "inputs": [
        {
          "internalType": "address",
          "name": "token",
          "type": "address"
        },
        {
          "internalType": "address",
          "name": "from",
          "type": "address"
        },
        {
          "internalType": "address",
          "name": "to",
          "type": "address"
        },
        {
          "internalType": "uint256",
          "name": "amount",
          "type": "uint256"
        }
      ],
      "name": "TransferFailed",
      "type": "error"
    },
    {
      "inputs": [
        {
          "internalType": "address",
          "name": "account",
          "type": "address"
        }
      ],
      "name": "UnauthorizedAccount",
      "type": "error"
    },
    {
      "inputs": [],
      "name": "ZeroAddress",
      "type": "error"
    },
    {
      "inputs": [],
      "name": "ZeroValue",
      "type": "error"
    },
    {
      "anonymous": false,
      "inputs": [
        {
          "indexed": true,
          "internalType": "address",
          "name": "account",
          "type": "address"
        },
        {
          "indexed": true,
          "internalType": "address",
          "name": "token",
          "type": "address"
        },
        {
          "indexed": false,
          "internalType": "uint256",
          "name": "amount",
          "type": "uint256"
        }
      ],
      "name": "Deposit",
      "type": "event"
    },
    {
      "anonymous": false,
      "inputs": [
        {
          "indexed": true,
          "internalType": "address",
          "name": "token",
          "type": "address"
        },
        {
          "indexed": false,
          "internalType": "uint256",
          "name": "collectedFees",
          "type": "uint256"
        }
      ],
      "name": "Drained",
      "type": "event"
    },
    {
      "anonymous": false,
      "inputs": [
        {
          "indexed": true,
          "internalType": "address",
          "name": "mech",
          "type": "address"
        },
        {
          "indexed": true,
          "internalType": "uint256",
          "name": "requestId",
          "type": "uint256"
        },
        {
          "indexed": false,
          "internalType": "uint256",
          "name": "deliveryRate",
          "type": "uint256"
        },
        {
          "indexed": false,
          "internalType": "uint256",
          "name": "rateDiff",
          "type": "uint256"
        }
      ],
      "name": "MechPaymentCalculated",
      "type": "event"
    },
    {
      "anonymous": false,
      "inputs": [
        {
          "indexed": true,
          "internalType": "address",
          "name": "account",
          "type": "address"
        },
        {
          "indexed": true,
          "internalType": "address",
          "name": "token",
          "type": "address"
        },
        {
          "indexed": false,
          "internalType": "uint256",
          "name": "amount",
          "type": "uint256"
        }
      ],
      "name": "Withdraw",
      "type": "event"
    },
    {
      "inputs": [],
      "name": "MAX_FEE_FACTOR",
      "outputs": [
        {
          "internalType": "uint256",
          "name": "",
          "type": "uint256"
        }
      ],
      "stateMutability": "view",
      "type": "function"
    },
    {
      "inputs": [],
      "name": "buyBackBurner",
      "outputs": [
        {
          "internalType": "address",
          "name": "",
          "type": "address"
        }
      ],
      "stateMutability": "view",
      "type": "function"
    },
    {
      "inputs": [
        {
          "internalType": "address",
          "name": "requester",
          "type": "address"
        },
        {
          "internalType": "uint256",
          "name": "maxDeliveryRate",
          "type": "uint256"
        },
        {
          "internalType": "bytes",
          "name": "",
          "type": "bytes"
        }
      ],
      "name": "checkAndRecordDeliveryRate",
      "outputs": [],
      "stateMutability": "payable",
      "type": "function"
    },
    {
      "inputs": [],
      "name": "collectedFees",
      "outputs": [
        {
          "internalType": "uint256",
          "name": "",
          "type": "uint256"
        }
      ],
      "stateMutability": "view",
      "type": "function"
    },
    {
      "inputs": [],
      "name": "drain",
      "outputs": [],
      "stateMutability": "nonpayable",
      "type": "function"
    },
    {
      "inputs": [
        {
          "internalType": "address",
          "name": "mech",
          "type": "address"
        },
        {
          "internalType": "address",
          "name": "requester",
          "type": "address"
        },
        {
          "internalType": "uint256",
          "name": "requestId",
          "type": "uint256"
        },
        {
          "internalType": "uint256",
          "name": "maxDeliveryRate",
          "type": "uint256"
        }
      ],
      "name": "finalizeDeliveryRate",
      "outputs": [],
      "stateMutability": "nonpayable",
      "type": "function"
    },
    {
      "inputs": [
        {
          "internalType": "address",
          "name": "",
          "type": "address"
        }
      ],
      "name": "mapMechBalances",
      "outputs": [
        {
          "internalType": "uint256",
          "name": "",
          "type": "uint256"
        }
      ],
      "stateMutability": "view",
      "type": "function"
    },
    {
      "inputs": [
        {
          "internalType": "address",
          "name": "",
          "type": "address"
        }
      ],
      "name": "mapRequesterBalances",
      "outputs": [
        {
          "internalType": "uint256",
          "name": "",
          "type": "uint256"
        }
      ],
      "stateMutability": "view",
      "type": "function"
    },
    {
      "inputs": [],
      "name": "mechMarketplace",
      "outputs": [
        {
          "internalType": "address",
          "name": "",
          "type": "address"
        }
      ],
      "stateMutability": "view",
      "type": "function"
    },
    {
      "inputs": [],
      "name": "processPayment",
      "outputs": [
        {
          "internalType": "uint256",
          "name": "",
          "type": "uint256"
        },
        {
          "internalType": "uint256",
          "name": "",
          "type": "uint256"
        }
      ],
      "stateMutability": "nonpayable",
      "type": "function"
    },
    {
      "inputs": [
        {
          "internalType": "address",
          "name": "mech",
          "type": "address"
        }
      ],
      "name": "processPaymentByMultisig",
      "outputs": [
        {
          "internalType": "uint256",
          "name": "",
          "type": "uint256"
        },
        {
          "internalType": "uint256",
          "name": "",
          "type": "uint256"
        }
      ],
      "stateMutability": "nonpayable",
      "type": "function"
    },
    {
      "inputs": [],
      "name": "withdraw",
      "outputs": [],
      "stateMutability": "nonpayable",
      "type": "function"
    },
    {
      "inputs": [],
      "name": "wrappedNativeToken",
      "outputs": [
        {
          "internalType": "address",
          "name": "",
          "type": "address"
        }
      ],
      "stateMutability": "view",
      "type": "function"
    },
    {
      "stateMutability": "payable",
      "type": "receive"
    }
  ],
  "bytecode": "0x60e060405260018055348015610013575f5ffd5b506040516112f73803806112f7833981016040819052610032916100d0565b82826001600160a01b038216158061005157506001600160a01b038116155b1561006f5760405163d92e233d60e01b815260040160405180910390fd5b6001600160a01b03918216608052811660a05281166100a15760405163d92e233d60e01b815260040160405180910390fd5b6001600160a01b031660c052506101109050565b80516001600160a01b03811681146100cb575f5ffd5b919050565b5f5f5f606084860312156100e2575f5ffd5b6100eb846100b5565b92506100f9602085016100b5565b9150610107604085016100b5565b90509250925092565b60805160a05160c05161117e6101795f395f818161014701528181610d5501528181610dc20152610e3501525f818161021c0152610d2601525f818161028a01528181610443015281816104ab01528181610746015281816107ae0152610a3c015261117e5ff3fe6080604052600436106100d1575f3560e01c80639003adfe1161007c578063af4937fc11610057578063af4937fc146102ac578063e6798035146102c1578063f965a873146102ec578063fe71c4241461030b575f5ffd5b80639003adfe146102515780639890220b146102655780639c5e959014610279575f5ffd5b80636aeeffa8116100ac5780636aeeffa8146101d2578063803551a91461020b5780638a7e698d1461023e575f5ffd5b806317fcb39b1461013657806322081c12146101935780633ccfd60b146101bc575f5ffd5b3661013257335f90815260026020526040812080543492906100f4908490610ee0565b90915550506040513481525f9033907f5548c837ab068cf56a2c2479df0882a4922fd203edb7517321831d95078c5f629060200160405180910390a3005b5f5ffd5b348015610141575f5ffd5b506101697f000000000000000000000000000000000000000000000000000000000000000081565b60405173ffffffffffffffffffffffffffffffffffffffff90911681526020015b60405180910390f35b34801561019e575f5ffd5b506101a761032a565b6040805192835260208301919091520161018a565b3480156101c7575f5ffd5b506101d061033d565b005b3480156101dd575f5ffd5b506101fd6101ec366004610f1b565b60026020525f908152604090205481565b60405190815260200161018a565b348015610216575f5ffd5b506101697f000000000000000000000000000000000000000000000000000000000000000081565b6101d061024c366004610f68565b6103ea565b34801561025c575f5ffd5b506101fd5f5481565b348015610270575f5ffd5b506101d06105ca565b348015610284575f5ffd5b506101697f000000000000000000000000000000000000000000000000000000000000000081565b3480156102b7575f5ffd5b506101fd61271081565b3480156102cc575f5ffd5b506101fd6102db366004610f1b565b60036020525f908152604090205481565b3480156102f7575f5ffd5b506101a7610306366004610f1b565b610654565b348015610316575f5ffd5b506101d0610325366004611071565b61072e565b5f5f61033533610995565b915091509091565b600180541115610379576040517f8beb9d1600000000000000000000000000000000000000000000000000000000815260040160405180910390fd5b60026001819055335f9081526020919091526040812054908190036103ca576040517f7c946ed700000000000000000000000000000000000000000000000000000000815260040160405180910390fd5b335f818152600260205260408120556103e39082610b97565b5060018055565b600180541115610426576040517f8beb9d1600000000000000000000000000000000000000000000000000000000815260040160405180910390fd5b60026001553373ffffffffffffffffffffffffffffffffffffffff7f000000000000000000000000000000000000000000000000000000000000000016146104dd576040517fe56895c000000000000000000000000000000000000000000000000000000000815233600482015273ffffffffffffffffffffffffffffffffffffffff7f00000000000000000000000000000000000000000000000000000000000000001660248201526044015b60405180910390fd5b5f6104e6610c94565b73ffffffffffffffffffffffffffffffffffffffff85165f908152600260205260408120549192509061051a908390610ee0565b905083811015610549575f61052f82866110b0565b905061053b8682610cd8565b6105459083610ee0565b9150505b8381101561058d576040517fcf47918100000000000000000000000000000000000000000000000000000000815260048101829052602481018590526044016104d4565b61059784826110b0565b73ffffffffffffffffffffffffffffffffffffffff9095165f908152600260205260409020949094555050600180555050565b600180541115610606576040517f8beb9d1600000000000000000000000000000000000000000000000000000000815260040160405180910390fd5b60026001555f805490819003610648576040517f7c946ed700000000000000000000000000000000000000000000000000000000815260040160405180910390fd5b5f80556103e381610ce0565b6040517f6d70f7ae0000000000000000000000000000000000000000000000000000000081523360048201525f90819073ffffffffffffffffffffffffffffffffffffffff841690636d70f7ae90602401602060405180830381865afa1580156106c0573d5f5f3e3d5ffd5b505050506040513d601f19601f820116820180604052508101906106e491906110c3565b61071c576040517f32b2baa30000000000000000000000000000000000000000000000000000000081523360048201526024016104d4565b61072583610995565b91509150915091565b3373ffffffffffffffffffffffffffffffffffffffff7f000000000000000000000000000000000000000000000000000000000000000016146107db576040517fe56895c000000000000000000000000000000000000000000000000000000000815233600482015273ffffffffffffffffffffffffffffffffffffffff7f00000000000000000000000000000000000000000000000000000000000000001660248201526044016104d4565b6040517f6d99a988000000000000000000000000000000000000000000000000000000008152600481018390525f9073ffffffffffffffffffffffffffffffffffffffff861690636d99a988906024016020604051808303815f875af1158015610847573d5f5f3e3d5ffd5b505050506040513d601f19601f8201168201806040525081019061086b91906110e2565b9050805f036108a6576040517f7c946ed700000000000000000000000000000000000000000000000000000000815260040160405180910390fd5b5f818311156108fd576108b982846110b0565b73ffffffffffffffffffffffffffffffffffffffff86165f908152600260205260408120805492935083929091906108f2908490610ee0565b909155506109019050565b8291505b73ffffffffffffffffffffffffffffffffffffffff86165f9081526003602052604081208054849290610935908490610ee0565b90915550506040805183815260208101839052859173ffffffffffffffffffffffffffffffffffffffff8916917f7b4da18496c57421bb616b0a649b583873b6a44693d24433507fee64844970da910160405180910390a3505050505050565b5f5f6001805411156109d3576040517f8beb9d1600000000000000000000000000000000000000000000000000000000815260040160405180910390fd5b6002600181905573ffffffffffffffffffffffffffffffffffffffff84165f9081526003602052604090205490811015610a39576040517f7c946ed700000000000000000000000000000000000000000000000000000000815260040160405180910390fd5b5f7f000000000000000000000000000000000000000000000000000000000000000073ffffffffffffffffffffffffffffffffffffffff1663ddca3f436040518163ffffffff1660e01b81526004016020604051808303815f875af1158015610aa4573d5f5f3e3d5ffd5b505050506040513d601f19601f82011682018060405250810190610ac891906110e2565b9050612710610ad86001826110b0565b610ae283856110f9565b610aec9190610ee0565b610af69190611110565b9250610b0283836110b0565b9350821580610b0f575083155b15610b46576040517f7c946ed700000000000000000000000000000000000000000000000000000000815260040160405180910390fd5b825f5f828254610b569190610ee0565b909155505073ffffffffffffffffffffffffffffffffffffffff85165f90815260036020526040812055610b8a8585610b97565b5050600180559092909150565b5f8273ffffffffffffffffffffffffffffffffffffffff16826040515f6040518083038185875af1925050503d805f8114610bed576040519150601f19603f3d011682016040523d82523d5f602084013e610bf2565b606091505b5050905080610c58576040517fcd3f16590000000000000000000000000000000000000000000000000000000081525f600482015230602482015273ffffffffffffffffffffffffffffffffffffffff84166044820152606481018390526084016104d4565b6040518281525f9033907f9b1bfa7fa9ee420a16e124f794c35ac9f90472acc99140eb2f6447c714cad8eb9060200160405180910390a3505050565b5f3415610cd3576040513481525f9033907f5548c837ab068cf56a2c2479df0882a4922fd203edb7517321831d95078c5f629060200160405180910390a35b503490565b5f5b92915050565b610ce981610e33565b6040517fa9059cbb00000000000000000000000000000000000000000000000000000000815273ffffffffffffffffffffffffffffffffffffffff7f000000000000000000000000000000000000000000000000000000000000000081166004830152602482018390527f0000000000000000000000000000000000000000000000000000000000000000169063a9059cbb906044016020604051808303815f875af1158015610d9b573d5f5f3e3d5ffd5b505050506040513d601f19601f82011682018060405250810190610dbf91906110c3565b507f000000000000000000000000000000000000000000000000000000000000000073ffffffffffffffffffffffffffffffffffffffff167fb2559daa129ad136aac2133ac6a0c75920abbef7d6663a017a94e181b13786c382604051610e2891815260200190565b60405180910390a250565b7f000000000000000000000000000000000000000000000000000000000000000073ffffffffffffffffffffffffffffffffffffffff1663d0e30db0826040518263ffffffff1660e01b81526004015f604051808303818588803b158015610e99575f5ffd5b505af1158015610eab573d5f5f3e3d5ffd5b505050505050565b7f4e487b71000000000000000000000000000000000000000000000000000000005f52601160045260245ffd5b80820180821115610cda57610cda610eb3565b803573ffffffffffffffffffffffffffffffffffffffff81168114610f16575f5ffd5b919050565b5f60208284031215610f2b575f5ffd5b610f3482610ef3565b9392505050565b7f4e487b71000000000000000000000000000000000000000000000000000000005f52604160045260245ffd5b5f5f5f60608486031215610f7a575f5ffd5b610f8384610ef3565b925060208401359150604084013567ffffffffffffffff811115610fa5575f5ffd5b8401601f81018613610fb5575f5ffd5b803567ffffffffffffffff811115610fcf57610fcf610f3b565b6040517fffffffffffffffffffffffffffffffffffffffffffffffffffffffffffffffe0603f7fffffffffffffffffffffffffffffffffffffffffffffffffffffffffffffffe0601f8501160116810181811067ffffffffffffffff8211171561103b5761103b610f3b565b604052818152828201602001881015611052575f5ffd5b816020840160208301375f602083830101528093505050509250925092565b5f5f5f5f60808587031215611084575f5ffd5b61108d85610ef3565b935061109b60208601610ef3565b93969395505050506040820135916060013590565b81810381811115610cda57610cda610eb3565b5f602082840312156110d3575f5ffd5b81518015158114610f34575f5ffd5b5f602082840312156110f2575f5ffd5b5051919050565b8082028115828204841417610cda57610cda610eb3565b5f82611143577f4e487b71000000000000000000000000000000000000000000000000000000005f52601260045260245ffd5b50049056fea2646970667358221220499b933c50a39b496096403412d02e9aaa18e539d3c5b431d3f4ef8a382511b064736f6c634300081c0033",
  "linkReferences": {},
  "deployedLinkReferences": {}
}