{
  "_format": "hh-sol-artifact-1",
  "contractName": "BalanceTrackerFixedPriceToken",
  "sourceName": "contracts/mechs/token/BalanceTrackerFixedPriceToken.sol",
  "abi": [
    {
      "inputs": [
        {
          "internalType": "address",
          "name": "_mechMarketplace",
          "type": "address"
        },
        {
          "internalType": "address",
          "name": "_buyBackBurner",
          "type": "address"
        },
        {
          "internalType": "address",
          "name": "_token",
          "type": "address"
        }
      ],
      "stateMutability": "nonpayable",
      "type": "constructor"
    },
    {
      "inputs": [
        {
          "internalType": "uint256",
          "name": "current",
          "type": "uint256"
        },
        {
          "internalType": "uint256",
          "name": "required",
          "type": "uint256"
        }
      ],
      "name": "InsufficientBalance",
      "type": "error"
    },
    {
      "inputs": [
        {
          "internalType": "address",
          "name": "sender",
          "type": "address"
        },
        {
          "internalType": "address",
          "name": "marketplace",
          "type": "address"
        }
      ],
      "name": "MarketplaceOnly",
      "type": "error"
    },
    {
      "inputs": [
        {
          "internalType": "uint256",
          "name": "amount",
          "type": "uint256"
        }
      ],
      "name": "NoDepositAllowed",
      "type": "error"
    },
    {
      "inputs": [],
      "name": "ReentrancyGuard",
      "type": "error"
    },
    {
      "inputs": [
        {
          "internalType": "address",
          "name": "account",
          "type": "address"
        }
      ],
      "name": "UnauthorizedAccount",
      "type": "error"
    },
    {
      "inputs": [],
      "name": "ZeroAddress",
      "type": "error"
    },
    {
      "inputs": [],
      "name": "ZeroValue",
      "type": "error"
    },
    {
      "anonymous": false,
      "inputs": [
        {
          "indexed": true,
          "internalType": "address",
          "name": "account",
          "type": "address"
        },
        {
          "indexed": true,
          "internalType": "address",
          "name": "token",
          "type": "address"
        },
        {
          "indexed": false,
          "internalType": "uint256",
          "name": "amount",
          "type": "uint256"
        }
      ],
      "name": "Deposit",
      "type": "event"
    },
    {
      "anonymous": false,
      "inputs": [
        {
          "indexed": true,
          "internalType": "address",
          "name": "token",
          "type": "address"
        },
        {
          "indexed": false,
          "internalType": "uint256",
          "name": "collectedFees",
          "type": "uint256"
        }
      ],
      "name": "Drained",
      "type": "event"
    },
    {
      "anonymous": false,
      "inputs": [
        {
          "indexed": true,
          "internalType": "address",
          "name": "mech",
          "type": "address"
        },
        {
          "indexed": true,
          "internalType": "uint256",
          "name": "requestId",
          "type": "uint256"
        },
        {
          "indexed": false,
          "internalType": "uint256",
          "name": "deliveryRate",
          "type": "uint256"
        },
        {
          "indexed": false,
          "internalType": "uint256",
          "name": "rateDiff",
          "type": "uint256"
        }
      ],
      "name": "MechPaymentCalculated",
      "type": "event"
    },
    {
      "anonymous": false,
      "inputs": [
        {
          "indexed": true,
          "internalType": "address",
          "name": "account",
          "type": "address"
        },
        {
          "indexed": true,
          "internalType": "address",
          "name": "token",
          "type": "address"
        },
        {
          "indexed": false,
          "internalType": "uint256",
          "name": "amount",
          "type": "uint256"
        }
      ],
      "name": "Withdraw",
      "type": "event"
    },
    {
      "inputs": [],
      "name": "MAX_FEE_FACTOR",
      "outputs": [
        {
          "internalType": "uint256",
          "name": "",
          "type": "uint256"
        }
      ],
      "stateMutability": "view",
      "type": "function"
    },
    {
      "inputs": [],
      "name": "buyBackBurner",
      "outputs": [
        {
          "internalType": "address",
          "name": "",
          "type": "address"
        }
      ],
      "stateMutability": "view",
      "type": "function"
    },
    {
      "inputs": [
        {
          "internalType": "address",
          "name": "requester",
          "type": "address"
        },
        {
          "internalType": "uint256",
          "name": "maxDeliveryRate",
          "type": "uint256"
        },
        {
          "internalType": "bytes",
          "name": "",
          "type": "bytes"
        }
      ],
      "name": "checkAndRecordDeliveryRate",
      "outputs": [],
      "stateMutability": "payable",
      "type": "function"
    },
    {
      "inputs": [],
      "name": "collectedFees",
      "outputs": [
        {
          "internalType": "uint256",
          "name": "",
          "type": "uint256"
        }
      ],
      "stateMutability": "view",
      "type": "function"
    },
    {
      "inputs": [
        {
          "internalType": "uint256",
          "name": "amount",
          "type": "uint256"
        }
      ],
      "name": "deposit",
      "outputs": [],
      "stateMutability": "nonpayable",
      "type": "function"
    },
    {
      "inputs": [],
      "name": "drain",
      "outputs": [],
      "stateMutability": "nonpayable",
      "type": "function"
    },
    {
      "inputs": [
        {
          "internalType": "address",
          "name": "mech",
          "type": "address"
        },
        {
          "internalType": "address",
          "name": "requester",
          "type": "address"
        },
        {
          "internalType": "uint256",
          "name": "requestId",
          "type": "uint256"
        },
        {
          "internalType": "uint256",
          "name": "maxDeliveryRate",
          "type": "uint256"
        }
      ],
      "name": "finalizeDeliveryRate",
      "outputs": [],
      "stateMutability": "nonpayable",
      "type": "function"
    },
    {
      "inputs": [
        {
          "internalType": "address",
          "name": "",
          "type": "address"
        }
      ],
      "name": "mapMechBalances",
      "outputs": [
        {
          "internalType": "uint256",
          "name": "",
          "type": "uint256"
        }
      ],
      "stateMutability": "view",
      "type": "function"
    },
    {
      "inputs": [
        {
          "internalType": "address",
          "name": "",
          "type": "address"
        }
      ],
      "name": "mapRequesterBalances",
      "outputs": [
        {
          "internalType": "uint256",
          "name": "",
          "type": "uint256"
        }
      ],
      "stateMutability": "view",
      "type": "function"
    },
    {
      "inputs": [],
      "name": "mechMarketplace",
      "outputs": [
        {
          "internalType": "address",
          "name": "",
          "type": "address"
        }
      ],
      "stateMutability": "view",
      "type": "function"
    },
    {
      "inputs": [],
      "name": "processPayment",
      "outputs": [
        {
          "internalType": "uint256",
          "name": "",
          "type": "uint256"
        },
        {
          "internalType": "uint256",
          "name": "",
          "type": "uint256"
        }
      ],
      "stateMutability": "nonpayable",
      "type": "function"
    },
    {
      "inputs": [
        {
          "internalType": "address",
          "name": "mech",
          "type": "address"
        }
      ],
      "name": "processPaymentByMultisig",
      "outputs": [
        {
          "internalType": "uint256",
          "name": "",
          "type": "uint256"
        },
        {
          "internalType": "uint256",
          "name": "",
          "type": "uint256"
        }
      ],
      "stateMutability": "nonpayable",
      "type": "function"
    },
    {
      "inputs": [],
      "name": "token",
      "outputs": [
        {
          "internalType": "address",
          "name": "",
          "type": "address"
        }
      ],
      "stateMutability": "view",
      "type": "function"
    },
    {
      "inputs": [],
      "name": "withdraw",
      "outputs": [],
      "stateMutability": "nonpayable",
      "type": "function"
    }
  ],
  "bytecode": "0x60e060405260018055348015610013575f5ffd5b50604051611512380380611512833981016040819052610032916100d0565b82826001600160a01b038216158061005157506001600160a01b038116155b1561006f5760405163d92e233d60e01b815260040160405180910390fd5b6001600160a01b03918216608052811660a05281166100a15760405163d92e233d60e01b815260040160405180910390fd5b6001600160a01b031660c052506101109050565b80516001600160a01b03811681146100cb575f5ffd5b919050565b5f5f5f606084860312156100e2575f5ffd5b6100eb846100b5565b92506100f9602085016100b5565b9150610107604085016100b5565b90509250925092565b60805160a05160c05161137661019c5f395f81816102af015281816106780152818161071501528181610cf701528181610d7f01528181610e6701528181610ef101528181610fb6015261102301525f818161016b0152610f8701525f81816101fe01528181610409015281816104710152818161085a015281816108c20152610b5001526113765ff3fe6080604052600436106100d9575f3560e01c80639c5e95901161007c578063e679803511610057578063e679803514610254578063f965a8731461027f578063fc0c546a1461029e578063fe71c424146102d1575f5ffd5b80639c5e9590146101ed578063af4937fc14610220578063b6b55f2514610235575f5ffd5b8063803551a9116100b7578063803551a91461015a5780638a7e698d146101b25780639003adfe146101c55780639890220b146101d9575f5ffd5b806322081c12146100dd5780633ccfd60b1461010b5780636aeeffa814610121575b5f5ffd5b3480156100e8575f5ffd5b506100f16102f0565b604080519283526020830191909152015b60405180910390f35b348015610116575f5ffd5b5061011f610303565b005b34801561012c575f5ffd5b5061014c61013b3660046110bc565b60026020525f908152604090205481565b604051908152602001610102565b348015610165575f5ffd5b5061018d7f000000000000000000000000000000000000000000000000000000000000000081565b60405173ffffffffffffffffffffffffffffffffffffffff9091168152602001610102565b61011f6101c0366004611109565b6103b0565b3480156101d0575f5ffd5b5061014c5f5481565b3480156101e4575f5ffd5b5061011f610590565b3480156101f8575f5ffd5b5061018d7f000000000000000000000000000000000000000000000000000000000000000081565b34801561022b575f5ffd5b5061014c61271081565b348015610240575f5ffd5b5061011f61024f366004611212565b61061a565b34801561025f575f5ffd5b5061014c61026e3660046110bc565b60036020525f908152604090205481565b34801561028a575f5ffd5b506100f16102993660046110bc565b610768565b3480156102a9575f5ffd5b5061018d7f000000000000000000000000000000000000000000000000000000000000000081565b3480156102dc575f5ffd5b5061011f6102eb366004611229565b610842565b5f5f6102fb33610aa9565b915091509091565b60018054111561033f576040517f8beb9d1600000000000000000000000000000000000000000000000000000000815260040160405180910390fd5b60026001819055335f908152602091909152604081205490819003610390576040517f7c946ed700000000000000000000000000000000000000000000000000000000815260040160405180910390fd5b335f818152600260205260408120556103a99082610cab565b5060018055565b6001805411156103ec576040517f8beb9d1600000000000000000000000000000000000000000000000000000000815260040160405180910390fd5b60026001553373ffffffffffffffffffffffffffffffffffffffff7f000000000000000000000000000000000000000000000000000000000000000016146104a3576040517fe56895c000000000000000000000000000000000000000000000000000000000815233600482015273ffffffffffffffffffffffffffffffffffffffff7f00000000000000000000000000000000000000000000000000000000000000001660248201526044015b60405180910390fd5b5f6104ac610dd3565b73ffffffffffffffffffffffffffffffffffffffff85165f90815260026020526040812054919250906104e0908390611295565b90508381101561050f575f6104f582866112a8565b90506105018682610e13565b61050b9083611295565b9150505b83811015610553576040517fcf479181000000000000000000000000000000000000000000000000000000008152600481018290526024810185905260440161049a565b61055d84826112a8565b73ffffffffffffffffffffffffffffffffffffffff9095165f908152600260205260409020949094555050600180555050565b6001805411156105cc576040517f8beb9d1600000000000000000000000000000000000000000000000000000000815260040160405180910390fd5b60026001555f80549081900361060e576040517f7c946ed700000000000000000000000000000000000000000000000000000000815260040160405180910390fd5b5f80556103a981610f4a565b335f9081526002602052604081208054839290610638908490611295565b90915550506040517f23b872dd000000000000000000000000000000000000000000000000000000008152336004820152306024820152604481018290527f000000000000000000000000000000000000000000000000000000000000000073ffffffffffffffffffffffffffffffffffffffff16906323b872dd906064016020604051808303815f875af11580156106d3573d5f5f3e3d5ffd5b505050506040513d601f19601f820116820180604052508101906106f791906112bb565b5060405181815273ffffffffffffffffffffffffffffffffffffffff7f0000000000000000000000000000000000000000000000000000000000000000169033907f5548c837ab068cf56a2c2479df0882a4922fd203edb7517321831d95078c5f629060200160405180910390a350565b6040517f6d70f7ae0000000000000000000000000000000000000000000000000000000081523360048201525f90819073ffffffffffffffffffffffffffffffffffffffff841690636d70f7ae90602401602060405180830381865afa1580156107d4573d5f5f3e3d5ffd5b505050506040513d601f19601f820116820180604052508101906107f891906112bb565b610830576040517f32b2baa300000000000000000000000000000000000000000000000000000000815233600482015260240161049a565b61083983610aa9565b91509150915091565b3373ffffffffffffffffffffffffffffffffffffffff7f000000000000000000000000000000000000000000000000000000000000000016146108ef576040517fe56895c000000000000000000000000000000000000000000000000000000000815233600482015273ffffffffffffffffffffffffffffffffffffffff7f000000000000000000000000000000000000000000000000000000000000000016602482015260440161049a565b6040517f6d99a988000000000000000000000000000000000000000000000000000000008152600481018390525f9073ffffffffffffffffffffffffffffffffffffffff861690636d99a988906024016020604051808303815f875af115801561095b573d5f5f3e3d5ffd5b505050506040513d601f19601f8201168201806040525081019061097f91906112da565b9050805f036109ba576040517f7c946ed700000000000000000000000000000000000000000000000000000000815260040160405180910390fd5b5f81831115610a11576109cd82846112a8565b73ffffffffffffffffffffffffffffffffffffffff86165f90815260026020526040812080549293508392909190610a06908490611295565b90915550610a159050565b8291505b73ffffffffffffffffffffffffffffffffffffffff86165f9081526003602052604081208054849290610a49908490611295565b90915550506040805183815260208101839052859173ffffffffffffffffffffffffffffffffffffffff8916917f7b4da18496c57421bb616b0a649b583873b6a44693d24433507fee64844970da910160405180910390a3505050505050565b5f5f600180541115610ae7576040517f8beb9d1600000000000000000000000000000000000000000000000000000000815260040160405180910390fd5b6002600181905573ffffffffffffffffffffffffffffffffffffffff84165f9081526003602052604090205490811015610b4d576040517f7c946ed700000000000000000000000000000000000000000000000000000000815260040160405180910390fd5b5f7f000000000000000000000000000000000000000000000000000000000000000073ffffffffffffffffffffffffffffffffffffffff1663ddca3f436040518163ffffffff1660e01b81526004016020604051808303815f875af1158015610bb8573d5f5f3e3d5ffd5b505050506040513d601f19601f82011682018060405250810190610bdc91906112da565b9050612710610bec6001826112a8565b610bf683856112f1565b610c009190611295565b610c0a9190611308565b9250610c1683836112a8565b9350821580610c23575083155b15610c5a576040517f7c946ed700000000000000000000000000000000000000000000000000000000815260040160405180910390fd5b825f5f828254610c6a9190611295565b909155505073ffffffffffffffffffffffffffffffffffffffff85165f90815260036020526040812055610c9e8585610cab565b5050600180559092909150565b6040517fa9059cbb00000000000000000000000000000000000000000000000000000000815273ffffffffffffffffffffffffffffffffffffffff8381166004830152602482018390527f0000000000000000000000000000000000000000000000000000000000000000169063a9059cbb906044016020604051808303815f875af1158015610d3d573d5f5f3e3d5ffd5b505050506040513d601f19601f82011682018060405250810190610d6191906112bb565b5060405181815273ffffffffffffffffffffffffffffffffffffffff7f0000000000000000000000000000000000000000000000000000000000000000169033907f9b1bfa7fa9ee420a16e124f794c35ac9f90472acc99140eb2f6447c714cad8eb9060200160405180910390a35050565b5f3415610e0e576040517f0f0fe74c00000000000000000000000000000000000000000000000000000000815234600482015260240161049a565b505f90565b6040517f23b872dd00000000000000000000000000000000000000000000000000000000815273ffffffffffffffffffffffffffffffffffffffff8381166004830152306024830152604482018390525f917f0000000000000000000000000000000000000000000000000000000000000000909116906323b872dd906064016020604051808303815f875af1158015610eaf573d5f5f3e3d5ffd5b505050506040513d601f19601f82011682018060405250810190610ed391906112bb565b5060405182815273ffffffffffffffffffffffffffffffffffffffff7f0000000000000000000000000000000000000000000000000000000000000000169033907f5548c837ab068cf56a2c2479df0882a4922fd203edb7517321831d95078c5f629060200160405180910390a350805b92915050565b6040517fa9059cbb00000000000000000000000000000000000000000000000000000000815273ffffffffffffffffffffffffffffffffffffffff7f000000000000000000000000000000000000000000000000000000000000000081166004830152602482018390527f0000000000000000000000000000000000000000000000000000000000000000169063a9059cbb906044016020604051808303815f875af1158015610ffc573d5f5f3e3d5ffd5b505050506040513d601f19601f8201168201806040525081019061102091906112bb565b507f000000000000000000000000000000000000000000000000000000000000000073ffffffffffffffffffffffffffffffffffffffff167fb2559daa129ad136aac2133ac6a0c75920abbef7d6663a017a94e181b13786c38260405161108991815260200190565b60405180910390a250565b803573ffffffffffffffffffffffffffffffffffffffff811681146110b7575f5ffd5b919050565b5f602082840312156110cc575f5ffd5b6110d582611094565b9392505050565b7f4e487b71000000000000000000000000000000000000000000000000000000005f52604160045260245ffd5b5f5f5f6060848603121561111b575f5ffd5b61112484611094565b925060208401359150604084013567ffffffffffffffff811115611146575f5ffd5b8401601f81018613611156575f5ffd5b803567ffffffffffffffff811115611170576111706110dc565b6040517fffffffffffffffffffffffffffffffffffffffffffffffffffffffffffffffe0603f7fffffffffffffffffffffffffffffffffffffffffffffffffffffffffffffffe0601f8501160116810181811067ffffffffffffffff821117156111dc576111dc6110dc565b6040528181528282016020018810156111f3575f5ffd5b816020840160208301375f602083830101528093505050509250925092565b5f60208284031215611222575f5ffd5b5035919050565b5f5f5f5f6080858703121561123c575f5ffd5b61124585611094565b935061125360208601611094565b93969395505050506040820135916060013590565b7f4e487b71000000000000000000000000000000000000000000000000000000005f52601160045260245ffd5b80820180821115610f4457610f44611268565b81810381811115610f4457610f44611268565b5f602082840312156112cb575f5ffd5b815180151581146110d5575f5ffd5b5f602082840312156112ea575f5ffd5b5051919050565b8082028115828204841417610f4457610f44611268565b5f8261133b577f4e487b71000000000000000000000000000000000000000000000000000000005f52601260045260245ffd5b50049056fea2646970667358221220372dcbd45d486c03ec97baed420737c534306f31c83f71d908fb27040248b33d64736f6c634300081c0033",
  "linkReferences": {},
  "deployedLinkReferences": {}
}