{
  "_format": "hh-sol-artifact-1",
  "contractName": "BalanceTrackerFixedPriceToken",
  "sourceName": "contracts/mechs/token/BalanceTrackerFixedPriceToken.sol",
  "abi": [
    {
      "inputs": [
        {
          "internalType": "address",
          "name": "_mechMarketplace",
          "type": "address"
        },
        {
          "internalType": "address",
          "name": "_buyBackBurner",
          "type": "address"
        },
        {
          "internalType": "address",
          "name": "_olas",
          "type": "address"
        }
      ],
      "stateMutability": "nonpayable",
      "type": "constructor"
    },
    {
      "inputs": [
        {
          "internalType": "uint256",
          "name": "current",
          "type": "uint256"
        },
        {
          "internalType": "uint256",
          "name": "required",
          "type": "uint256"
        }
      ],
      "name": "InsufficientBalance",
      "type": "error"
    },
    {
      "inputs": [
        {
          "internalType": "address",
          "name": "sender",
          "type": "address"
        },
        {
          "internalType": "address",
          "name": "marketplace",
          "type": "address"
        }
      ],
      "name": "MarketplaceOnly",
      "type": "error"
    },
    {
      "inputs": [
        {
          "internalType": "uint256",
          "name": "amount",
          "type": "uint256"
        }
      ],
      "name": "NoDepositAllowed",
      "type": "error"
    },
    {
      "inputs": [],
      "name": "ReentrancyGuard",
      "type": "error"
    },
    {
      "inputs": [
        {
          "internalType": "address",
          "name": "account",
          "type": "address"
        }
      ],
      "name": "UnauthorizedAccount",
      "type": "error"
    },
    {
      "inputs": [],
      "name": "ZeroAddress",
      "type": "error"
    },
    {
      "inputs": [],
      "name": "ZeroValue",
      "type": "error"
    },
    {
      "anonymous": false,
      "inputs": [
        {
          "indexed": true,
          "internalType": "address",
          "name": "account",
          "type": "address"
        },
        {
          "indexed": true,
          "internalType": "address",
          "name": "token",
          "type": "address"
        },
        {
          "indexed": false,
          "internalType": "uint256",
          "name": "amount",
          "type": "uint256"
        }
      ],
      "name": "Deposit",
      "type": "event"
    },
    {
      "anonymous": false,
      "inputs": [
        {
          "indexed": true,
          "internalType": "address",
          "name": "token",
          "type": "address"
        },
        {
          "indexed": false,
          "internalType": "uint256",
          "name": "collectedFees",
          "type": "uint256"
        }
      ],
      "name": "Drained",
      "type": "event"
    },
    {
      "anonymous": false,
      "inputs": [
        {
          "indexed": true,
          "internalType": "address",
          "name": "mech",
          "type": "address"
        },
        {
          "indexed": true,
          "internalType": "uint256",
          "name": "requestId",
          "type": "uint256"
        },
        {
          "indexed": false,
          "internalType": "uint256",
          "name": "deliveryRate",
          "type": "uint256"
        },
        {
          "indexed": false,
          "internalType": "uint256",
          "name": "rateDiff",
          "type": "uint256"
        }
      ],
      "name": "MechPaymentCalculated",
      "type": "event"
    },
    {
      "anonymous": false,
      "inputs": [
        {
          "indexed": true,
          "internalType": "address",
          "name": "account",
          "type": "address"
        },
        {
          "indexed": true,
          "internalType": "address",
          "name": "token",
          "type": "address"
        },
        {
          "indexed": false,
          "internalType": "uint256",
          "name": "amount",
          "type": "uint256"
        }
      ],
      "name": "Withdraw",
      "type": "event"
    },
    {
      "inputs": [],
      "name": "MAX_FEE_FACTOR",
      "outputs": [
        {
          "internalType": "uint256",
          "name": "",
          "type": "uint256"
        }
      ],
      "stateMutability": "view",
      "type": "function"
    },
    {
      "inputs": [],
      "name": "buyBackBurner",
      "outputs": [
        {
          "internalType": "address",
          "name": "",
          "type": "address"
        }
      ],
      "stateMutability": "view",
      "type": "function"
    },
    {
      "inputs": [
        {
          "internalType": "address",
          "name": "requester",
          "type": "address"
        },
        {
          "internalType": "uint256",
          "name": "maxDeliveryRate",
          "type": "uint256"
        },
        {
          "internalType": "bytes",
          "name": "",
          "type": "bytes"
        }
      ],
      "name": "checkAndRecordDeliveryRate",
      "outputs": [],
      "stateMutability": "payable",
      "type": "function"
    },
    {
      "inputs": [],
      "name": "collectedFees",
      "outputs": [
        {
          "internalType": "uint256",
          "name": "",
          "type": "uint256"
        }
      ],
      "stateMutability": "view",
      "type": "function"
    },
    {
      "inputs": [
        {
          "internalType": "uint256",
          "name": "amount",
          "type": "uint256"
        }
      ],
      "name": "deposit",
      "outputs": [],
      "stateMutability": "nonpayable",
      "type": "function"
    },
    {
      "inputs": [],
      "name": "drain",
      "outputs": [],
      "stateMutability": "nonpayable",
      "type": "function"
    },
    {
      "inputs": [
        {
          "internalType": "address",
          "name": "mech",
          "type": "address"
        },
        {
          "internalType": "address",
          "name": "requester",
          "type": "address"
        },
        {
          "internalType": "uint256",
          "name": "requestId",
          "type": "uint256"
        },
        {
          "internalType": "uint256",
          "name": "maxDeliveryRate",
          "type": "uint256"
        }
      ],
      "name": "finalizeDeliveryRate",
      "outputs": [],
      "stateMutability": "nonpayable",
      "type": "function"
    },
    {
      "inputs": [
        {
          "internalType": "address",
          "name": "",
          "type": "address"
        }
      ],
      "name": "mapMechBalances",
      "outputs": [
        {
          "internalType": "uint256",
          "name": "",
          "type": "uint256"
        }
      ],
      "stateMutability": "view",
      "type": "function"
    },
    {
      "inputs": [
        {
          "internalType": "address",
          "name": "",
          "type": "address"
        }
      ],
      "name": "mapRequesterBalances",
      "outputs": [
        {
          "internalType": "uint256",
          "name": "",
          "type": "uint256"
        }
      ],
      "stateMutability": "view",
      "type": "function"
    },
    {
      "inputs": [],
      "name": "mechMarketplace",
      "outputs": [
        {
          "internalType": "address",
          "name": "",
          "type": "address"
        }
      ],
      "stateMutability": "view",
      "type": "function"
    },
    {
      "inputs": [],
      "name": "olas",
      "outputs": [
        {
          "internalType": "address",
          "name": "",
          "type": "address"
        }
      ],
      "stateMutability": "view",
      "type": "function"
    },
    {
      "inputs": [],
      "name": "processPayment",
      "outputs": [
        {
          "internalType": "uint256",
          "name": "",
          "type": "uint256"
        },
        {
          "internalType": "uint256",
          "name": "",
          "type": "uint256"
        }
      ],
      "stateMutability": "nonpayable",
      "type": "function"
    },
    {
      "inputs": [
        {
          "internalType": "address",
          "name": "mech",
          "type": "address"
        }
      ],
      "name": "processPaymentByMultisig",
      "outputs": [
        {
          "internalType": "uint256",
          "name": "",
          "type": "uint256"
        },
        {
          "internalType": "uint256",
          "name": "",
          "type": "uint256"
        }
      ],
      "stateMutability": "nonpayable",
      "type": "function"
    },
    {
      "inputs": [],
      "name": "withdraw",
      "outputs": [],
      "stateMutability": "nonpayable",
      "type": "function"
    }
  ],
  "bytecode": "0x60e060405260018055348015610013575f5ffd5b50604051611510380380611510833981016040819052610032916100d0565b82826001600160a01b038216158061005157506001600160a01b038116155b1561006f5760405163d92e233d60e01b815260040160405180910390fd5b6001600160a01b03918216608052811660a05281166100a15760405163d92e233d60e01b815260040160405180910390fd5b6001600160a01b031660c052506101109050565b80516001600160a01b03811681146100cb575f5ffd5b919050565b5f5f5f606084860312156100e2575f5ffd5b6100eb846100b5565b92506100f9602085016100b5565b9150610107604085016100b5565b90509250925092565b60805160a05160c05161137561019b5f395f818160ed015281816106770152818161071401528181610cf601528181610d7e01528181610e6601528181610ef001528181610fb5015261102201525f81816101c20152610f8601525f8181610230015281816104080152818161047001528181610859015281816108c10152610b4f01526113755ff3fe6080604052600436106100d8575f3560e01c80639890220b1161007c578063b6b55f2511610057578063b6b55f2514610267578063e679803514610286578063f965a873146102b1578063fe71c424146102d0575f5ffd5b80639890220b1461020b5780639c5e95901461021f578063af4937fc14610252575f5ffd5b80636aeeffa8116100b75780636aeeffa814610178578063803551a9146101b15780638a7e698d146101e45780639003adfe146101f7575f5ffd5b806231d115146100dc57806322081c12146101395780633ccfd60b14610162575b5f5ffd5b3480156100e7575f5ffd5b5061010f7f000000000000000000000000000000000000000000000000000000000000000081565b60405173ffffffffffffffffffffffffffffffffffffffff90911681526020015b60405180910390f35b348015610144575f5ffd5b5061014d6102ef565b60408051928352602083019190915201610130565b34801561016d575f5ffd5b50610176610302565b005b348015610183575f5ffd5b506101a36101923660046110bb565b60026020525f908152604090205481565b604051908152602001610130565b3480156101bc575f5ffd5b5061010f7f000000000000000000000000000000000000000000000000000000000000000081565b6101766101f2366004611108565b6103af565b348015610202575f5ffd5b506101a35f5481565b348015610216575f5ffd5b5061017661058f565b34801561022a575f5ffd5b5061010f7f000000000000000000000000000000000000000000000000000000000000000081565b34801561025d575f5ffd5b506101a361271081565b348015610272575f5ffd5b50610176610281366004611211565b610619565b348015610291575f5ffd5b506101a36102a03660046110bb565b60036020525f908152604090205481565b3480156102bc575f5ffd5b5061014d6102cb3660046110bb565b610767565b3480156102db575f5ffd5b506101766102ea366004611228565b610841565b5f5f6102fa33610aa8565b915091509091565b60018054111561033e576040517f8beb9d1600000000000000000000000000000000000000000000000000000000815260040160405180910390fd5b60026001819055335f90815260209190915260408120549081900361038f576040517f7c946ed700000000000000000000000000000000000000000000000000000000815260040160405180910390fd5b335f818152600260205260408120556103a89082610caa565b5060018055565b6001805411156103eb576040517f8beb9d1600000000000000000000000000000000000000000000000000000000815260040160405180910390fd5b60026001553373ffffffffffffffffffffffffffffffffffffffff7f000000000000000000000000000000000000000000000000000000000000000016146104a2576040517fe56895c000000000000000000000000000000000000000000000000000000000815233600482015273ffffffffffffffffffffffffffffffffffffffff7f00000000000000000000000000000000000000000000000000000000000000001660248201526044015b60405180910390fd5b5f6104ab610dd2565b73ffffffffffffffffffffffffffffffffffffffff85165f90815260026020526040812054919250906104df908390611294565b90508381101561050e575f6104f482866112a7565b90506105008682610e12565b61050a9083611294565b9150505b83811015610552576040517fcf4791810000000000000000000000000000000000000000000000000000000081526004810182905260248101859052604401610499565b61055c84826112a7565b73ffffffffffffffffffffffffffffffffffffffff9095165f908152600260205260409020949094555050600180555050565b6001805411156105cb576040517f8beb9d1600000000000000000000000000000000000000000000000000000000815260040160405180910390fd5b60026001555f80549081900361060d576040517f7c946ed700000000000000000000000000000000000000000000000000000000815260040160405180910390fd5b5f80556103a881610f49565b335f9081526002602052604081208054839290610637908490611294565b90915550506040517f23b872dd000000000000000000000000000000000000000000000000000000008152336004820152306024820152604481018290527f000000000000000000000000000000000000000000000000000000000000000073ffffffffffffffffffffffffffffffffffffffff16906323b872dd906064016020604051808303815f875af11580156106d2573d5f5f3e3d5ffd5b505050506040513d601f19601f820116820180604052508101906106f691906112ba565b5060405181815273ffffffffffffffffffffffffffffffffffffffff7f0000000000000000000000000000000000000000000000000000000000000000169033907f5548c837ab068cf56a2c2479df0882a4922fd203edb7517321831d95078c5f629060200160405180910390a350565b6040517f6d70f7ae0000000000000000000000000000000000000000000000000000000081523360048201525f90819073ffffffffffffffffffffffffffffffffffffffff841690636d70f7ae90602401602060405180830381865afa1580156107d3573d5f5f3e3d5ffd5b505050506040513d601f19601f820116820180604052508101906107f791906112ba565b61082f576040517f32b2baa3000000000000000000000000000000000000000000000000000000008152336004820152602401610499565b61083883610aa8565b91509150915091565b3373ffffffffffffffffffffffffffffffffffffffff7f000000000000000000000000000000000000000000000000000000000000000016146108ee576040517fe56895c000000000000000000000000000000000000000000000000000000000815233600482015273ffffffffffffffffffffffffffffffffffffffff7f0000000000000000000000000000000000000000000000000000000000000000166024820152604401610499565b6040517f6d99a988000000000000000000000000000000000000000000000000000000008152600481018390525f9073ffffffffffffffffffffffffffffffffffffffff861690636d99a988906024016020604051808303815f875af115801561095a573d5f5f3e3d5ffd5b505050506040513d601f19601f8201168201806040525081019061097e91906112d9565b9050805f036109b9576040517f7c946ed700000000000000000000000000000000000000000000000000000000815260040160405180910390fd5b5f81831115610a10576109cc82846112a7565b73ffffffffffffffffffffffffffffffffffffffff86165f90815260026020526040812080549293508392909190610a05908490611294565b90915550610a149050565b8291505b73ffffffffffffffffffffffffffffffffffffffff86165f9081526003602052604081208054849290610a48908490611294565b90915550506040805183815260208101839052859173ffffffffffffffffffffffffffffffffffffffff8916917f7b4da18496c57421bb616b0a649b583873b6a44693d24433507fee64844970da910160405180910390a3505050505050565b5f5f600180541115610ae6576040517f8beb9d1600000000000000000000000000000000000000000000000000000000815260040160405180910390fd5b6002600181905573ffffffffffffffffffffffffffffffffffffffff84165f9081526003602052604090205490811015610b4c576040517f7c946ed700000000000000000000000000000000000000000000000000000000815260040160405180910390fd5b5f7f000000000000000000000000000000000000000000000000000000000000000073ffffffffffffffffffffffffffffffffffffffff1663ddca3f436040518163ffffffff1660e01b81526004016020604051808303815f875af1158015610bb7573d5f5f3e3d5ffd5b505050506040513d601f19601f82011682018060405250810190610bdb91906112d9565b9050612710610beb6001826112a7565b610bf583856112f0565b610bff9190611294565b610c099190611307565b9250610c1583836112a7565b9350821580610c22575083155b15610c59576040517f7c946ed700000000000000000000000000000000000000000000000000000000815260040160405180910390fd5b825f5f828254610c699190611294565b909155505073ffffffffffffffffffffffffffffffffffffffff85165f90815260036020526040812055610c9d8585610caa565b5050600180559092909150565b6040517fa9059cbb00000000000000000000000000000000000000000000000000000000815273ffffffffffffffffffffffffffffffffffffffff8381166004830152602482018390527f0000000000000000000000000000000000000000000000000000000000000000169063a9059cbb906044016020604051808303815f875af1158015610d3c573d5f5f3e3d5ffd5b505050506040513d601f19601f82011682018060405250810190610d6091906112ba565b5060405181815273ffffffffffffffffffffffffffffffffffffffff7f0000000000000000000000000000000000000000000000000000000000000000169033907f9b1bfa7fa9ee420a16e124f794c35ac9f90472acc99140eb2f6447c714cad8eb9060200160405180910390a35050565b5f3415610e0d576040517f0f0fe74c000000000000000000000000000000000000000000000000000000008152346004820152602401610499565b505f90565b6040517f23b872dd00000000000000000000000000000000000000000000000000000000815273ffffffffffffffffffffffffffffffffffffffff8381166004830152306024830152604482018390525f917f0000000000000000000000000000000000000000000000000000000000000000909116906323b872dd906064016020604051808303815f875af1158015610eae573d5f5f3e3d5ffd5b505050506040513d601f19601f82011682018060405250810190610ed291906112ba565b5060405182815273ffffffffffffffffffffffffffffffffffffffff7f0000000000000000000000000000000000000000000000000000000000000000169033907f5548c837ab068cf56a2c2479df0882a4922fd203edb7517321831d95078c5f629060200160405180910390a350805b92915050565b6040517fa9059cbb00000000000000000000000000000000000000000000000000000000815273ffffffffffffffffffffffffffffffffffffffff7f000000000000000000000000000000000000000000000000000000000000000081166004830152602482018390527f0000000000000000000000000000000000000000000000000000000000000000169063a9059cbb906044016020604051808303815f875af1158015610ffb573d5f5f3e3d5ffd5b505050506040513d601f19601f8201168201806040525081019061101f91906112ba565b507f000000000000000000000000000000000000000000000000000000000000000073ffffffffffffffffffffffffffffffffffffffff167fb2559daa129ad136aac2133ac6a0c75920abbef7d6663a017a94e181b13786c38260405161108891815260200190565b60405180910390a250565b803573ffffffffffffffffffffffffffffffffffffffff811681146110b6575f5ffd5b919050565b5f602082840312156110cb575f5ffd5b6110d482611093565b9392505050565b7f4e487b71000000000000000000000000000000000000000000000000000000005f52604160045260245ffd5b5f5f5f6060848603121561111a575f5ffd5b61112384611093565b925060208401359150604084013567ffffffffffffffff811115611145575f5ffd5b8401601f81018613611155575f5ffd5b803567ffffffffffffffff81111561116f5761116f6110db565b6040517fffffffffffffffffffffffffffffffffffffffffffffffffffffffffffffffe0603f7fffffffffffffffffffffffffffffffffffffffffffffffffffffffffffffffe0601f8501160116810181811067ffffffffffffffff821117156111db576111db6110db565b6040528181528282016020018810156111f2575f5ffd5b816020840160208301375f602083830101528093505050509250925092565b5f60208284031215611221575f5ffd5b5035919050565b5f5f5f5f6080858703121561123b575f5ffd5b61124485611093565b935061125260208601611093565b93969395505050506040820135916060013590565b7f4e487b71000000000000000000000000000000000000000000000000000000005f52601160045260245ffd5b80820180821115610f4357610f43611267565b81810381811115610f4357610f43611267565b5f602082840312156112ca575f5ffd5b815180151581146110d4575f5ffd5b5f602082840312156112e9575f5ffd5b5051919050565b8082028115828204841417610f4357610f43611267565b5f8261133a577f4e487b71000000000000000000000000000000000000000000000000000000005f52601260045260245ffd5b50049056fea264697066735822122032889365accc91c67c9979875a49fa2cd900d0899dec1d7045dfce7c43b0a4cd64736f6c634300081c0033",
  "linkReferences": {},
  "deployedLinkReferences": {}
}