{
  "_format": "hh-sol-artifact-1",
  "contractName": "BalanceTrackerFixedPriceToken",
  "sourceName": "contracts/mechs/token/BalanceTrackerFixedPriceToken.sol",
  "abi": [
    {
      "inputs": [
        {
          "internalType": "address",
          "name": "_mechMarketplace",
          "type": "address"
        },
        {
          "internalType": "address",
          "name": "_buyBackBurner",
          "type": "address"
        },
        {
          "internalType": "address",
          "name": "_token",
          "type": "address"
        }
      ],
      "stateMutability": "nonpayable",
      "type": "constructor"
    },
    {
      "inputs": [
        {
          "internalType": "uint256",
          "name": "current",
          "type": "uint256"
        },
        {
          "internalType": "uint256",
          "name": "required",
          "type": "uint256"
        }
      ],
      "name": "InsufficientBalance",
      "type": "error"
    },
    {
      "inputs": [
        {
          "internalType": "address",
          "name": "sender",
          "type": "address"
        },
        {
          "internalType": "address",
          "name": "marketplace",
          "type": "address"
        }
      ],
      "name": "MarketplaceOnly",
      "type": "error"
    },
    {
      "inputs": [
        {
          "internalType": "uint256",
          "name": "amount",
          "type": "uint256"
        }
      ],
      "name": "NoDepositAllowed",
      "type": "error"
    },
    {
      "inputs": [],
      "name": "ReentrancyGuard",
      "type": "error"
    },
    {
      "inputs": [
        {
          "internalType": "address",
          "name": "account",
          "type": "address"
        }
      ],
      "name": "UnauthorizedAccount",
      "type": "error"
    },
    {
      "inputs": [],
      "name": "ZeroAddress",
      "type": "error"
    },
    {
      "inputs": [],
      "name": "ZeroValue",
      "type": "error"
    },
    {
      "anonymous": false,
      "inputs": [
        {
          "indexed": true,
          "internalType": "address",
          "name": "account",
          "type": "address"
        },
        {
          "indexed": true,
          "internalType": "address",
          "name": "token",
          "type": "address"
        },
        {
          "indexed": false,
          "internalType": "uint256",
          "name": "amount",
          "type": "uint256"
        }
      ],
      "name": "Deposit",
      "type": "event"
    },
    {
      "anonymous": false,
      "inputs": [
        {
          "indexed": true,
          "internalType": "address",
          "name": "token",
          "type": "address"
        },
        {
          "indexed": false,
          "internalType": "uint256",
          "name": "collectedFees",
          "type": "uint256"
        }
      ],
      "name": "Drained",
      "type": "event"
    },
    {
      "anonymous": false,
      "inputs": [
        {
          "indexed": true,
          "internalType": "address",
          "name": "mech",
          "type": "address"
        },
        {
          "indexed": false,
          "internalType": "uint256",
          "name": "deliveryRate",
          "type": "uint256"
        },
        {
          "indexed": false,
          "internalType": "uint256",
          "name": "balance",
          "type": "uint256"
        },
        {
          "indexed": false,
          "internalType": "uint256",
          "name": "rateDiff",
          "type": "uint256"
        }
      ],
      "name": "MechBalanceAdjusted",
      "type": "event"
    },
    {
      "anonymous": false,
      "inputs": [
        {
          "indexed": true,
          "internalType": "address",
          "name": "requester",
          "type": "address"
        },
        {
          "indexed": false,
          "internalType": "uint256",
          "name": "deliveryRate",
          "type": "uint256"
        },
        {
          "indexed": false,
          "internalType": "uint256",
          "name": "balance",
          "type": "uint256"
        }
      ],
      "name": "RequesterBalanceAdjusted",
      "type": "event"
    },
    {
      "anonymous": false,
      "inputs": [
        {
          "indexed": true,
          "internalType": "address",
          "name": "account",
          "type": "address"
        },
        {
          "indexed": true,
          "internalType": "address",
          "name": "token",
          "type": "address"
        },
        {
          "indexed": false,
          "internalType": "uint256",
          "name": "amount",
          "type": "uint256"
        }
      ],
      "name": "Withdraw",
      "type": "event"
    },
    {
      "inputs": [],
      "name": "MAX_FEE_FACTOR",
      "outputs": [
        {
          "internalType": "uint256",
          "name": "",
          "type": "uint256"
        }
      ],
      "stateMutability": "view",
      "type": "function"
    },
    {
      "inputs": [],
      "name": "MIN_MECH_BALANCE",
      "outputs": [
        {
          "internalType": "uint256",
          "name": "",
          "type": "uint256"
        }
      ],
      "stateMutability": "view",
      "type": "function"
    },
    {
      "inputs": [
        {
          "internalType": "address",
          "name": "mech",
          "type": "address"
        },
        {
          "internalType": "address",
          "name": "requester",
          "type": "address"
        },
        {
          "internalType": "uint256[]",
          "name": "mechDeliveryRates",
          "type": "uint256[]"
        },
        {
          "internalType": "bytes",
          "name": "",
          "type": "bytes"
        }
      ],
      "name": "adjustMechRequesterBalances",
      "outputs": [],
      "stateMutability": "nonpayable",
      "type": "function"
    },
    {
      "inputs": [],
      "name": "buyBackBurner",
      "outputs": [
        {
          "internalType": "address",
          "name": "",
          "type": "address"
        }
      ],
      "stateMutability": "view",
      "type": "function"
    },
    {
      "inputs": [
        {
          "internalType": "address",
          "name": "requester",
          "type": "address"
        },
        {
          "internalType": "uint256",
          "name": "numRequests",
          "type": "uint256"
        },
        {
          "internalType": "uint256",
          "name": "deliveryRate",
          "type": "uint256"
        },
        {
          "internalType": "bytes",
          "name": "paymentData",
          "type": "bytes"
        }
      ],
      "name": "checkAndRecordDeliveryRates",
      "outputs": [],
      "stateMutability": "payable",
      "type": "function"
    },
    {
      "inputs": [],
      "name": "collectedFees",
      "outputs": [
        {
          "internalType": "uint256",
          "name": "",
          "type": "uint256"
        }
      ],
      "stateMutability": "view",
      "type": "function"
    },
    {
      "inputs": [
        {
          "internalType": "uint256",
          "name": "amount",
          "type": "uint256"
        }
      ],
      "name": "deposit",
      "outputs": [],
      "stateMutability": "nonpayable",
      "type": "function"
    },
    {
      "inputs": [
        {
          "internalType": "address",
          "name": "account",
          "type": "address"
        },
        {
          "internalType": "uint256",
          "name": "amount",
          "type": "uint256"
        }
      ],
      "name": "depositFor",
      "outputs": [],
      "stateMutability": "nonpayable",
      "type": "function"
    },
    {
      "inputs": [],
      "name": "drain",
      "outputs": [],
      "stateMutability": "nonpayable",
      "type": "function"
    },
    {
      "inputs": [
        {
          "internalType": "address",
          "name": "mech",
          "type": "address"
        },
        {
          "internalType": "address[]",
          "name": "requesters",
          "type": "address[]"
        },
        {
          "internalType": "bool[]",
          "name": "deliveredRequests",
          "type": "bool[]"
        },
        {
          "internalType": "uint256[]",
          "name": "mechDeliveryRates",
          "type": "uint256[]"
        },
        {
          "internalType": "uint256[]",
          "name": "requesterDeliveryRates",
          "type": "uint256[]"
        }
      ],
      "name": "finalizeDeliveryRates",
      "outputs": [],
      "stateMutability": "nonpayable",
      "type": "function"
    },
    {
      "inputs": [
        {
          "internalType": "address",
          "name": "",
          "type": "address"
        }
      ],
      "name": "mapMechBalances",
      "outputs": [
        {
          "internalType": "uint256",
          "name": "",
          "type": "uint256"
        }
      ],
      "stateMutability": "view",
      "type": "function"
    },
    {
      "inputs": [
        {
          "internalType": "address",
          "name": "",
          "type": "address"
        }
      ],
      "name": "mapRequesterBalances",
      "outputs": [
        {
          "internalType": "uint256",
          "name": "",
          "type": "uint256"
        }
      ],
      "stateMutability": "view",
      "type": "function"
    },
    {
      "inputs": [],
      "name": "mechMarketplace",
      "outputs": [
        {
          "internalType": "address",
          "name": "",
          "type": "address"
        }
      ],
      "stateMutability": "view",
      "type": "function"
    },
    {
      "inputs": [],
      "name": "processPayment",
      "outputs": [
        {
          "internalType": "uint256",
          "name": "mechPayment",
          "type": "uint256"
        },
        {
          "internalType": "uint256",
          "name": "marketplaceFee",
          "type": "uint256"
        }
      ],
      "stateMutability": "nonpayable",
      "type": "function"
    },
    {
      "inputs": [
        {
          "internalType": "address",
          "name": "mech",
          "type": "address"
        }
      ],
      "name": "processPaymentByMultisig",
      "outputs": [
        {
          "internalType": "uint256",
          "name": "mechPayment",
          "type": "uint256"
        },
        {
          "internalType": "uint256",
          "name": "marketplaceFee",
          "type": "uint256"
        }
      ],
      "stateMutability": "nonpayable",
      "type": "function"
    },
    {
      "inputs": [],
      "name": "token",
      "outputs": [
        {
          "internalType": "address",
          "name": "",
          "type": "address"
        }
      ],
      "stateMutability": "view",
      "type": "function"
    }
  ],
  "bytecode": "0x60e060405260018055348015610013575f5ffd5b50604051611cfe380380611cfe833981016040819052610032916100d0565b82826001600160a01b038216158061005157506001600160a01b038116155b1561006f5760405163d92e233d60e01b815260040160405180910390fd5b6001600160a01b03918216608052811660a05281166100a15760405163d92e233d60e01b815260040160405180910390fd5b6001600160a01b031660c052506101109050565b80516001600160a01b03811681146100cb575f5ffd5b919050565b5f5f5f606084860312156100e2575f5ffd5b6100eb846100b5565b92506100f9602085016100b5565b9150610107604085016100b5565b90509250925092565b60805160a05160c051611b546101aa5f395f8181610322015281816104110152818161049301528181610d2101528181610dbe015281816111d801528181611245015281816113950152818161141d015281816114be015261154801525f81816101f101526111a901525f818161027101528181610575015281816105dd015281816109260152818161098e01526112b90152611b545ff3fe6080604052600436106100ef575f3560e01c80639003adfe11610087578063b6b55f2511610057578063b6b55f25146102a8578063e6798035146102c7578063f965a873146102f2578063fc0c546a14610311575f5ffd5b80639003adfe146102385780639890220b1461024c5780639c5e959014610260578063af4937fc14610293575f5ffd5b80636072dd2c116100c25780636072dd2c146101775780636aeeffa81461019657806379e4afe8146101c1578063803551a9146101e0575f5ffd5b8063163ad715146100f357806322081c121461011a5780632f4f21e21461014357806338603a3914610164575b5f5ffd5b3480156100fe575f5ffd5b50610107600281565b6040519081526020015b60405180910390f35b348015610125575f5ffd5b5061012e610344565b60408051928352602083019190915201610111565b34801561014e575f5ffd5b5061016261015d3660046115c6565b61039d565b005b6101626101723660046116f4565b61051c565b348015610182575f5ffd5b506101626101913660046117de565b6106da565b3480156101a1575f5ffd5b506101076101b036600461184b565b60026020525f908152604090205481565b3480156101cc575f5ffd5b506101626101db3660046118d8565b6108cd565b3480156101eb575f5ffd5b506102137f000000000000000000000000000000000000000000000000000000000000000081565b60405173ffffffffffffffffffffffffffffffffffffffff9091168152602001610111565b348015610243575f5ffd5b506101075f5481565b348015610257575f5ffd5b50610162610c32565b34801561026b575f5ffd5b506102137f000000000000000000000000000000000000000000000000000000000000000081565b34801561029e575f5ffd5b5061010761271081565b3480156102b3575f5ffd5b506101626102c23660046119ff565b610cc3565b3480156102d2575f5ffd5b506101076102e136600461184b565b60036020525f908152604090205481565b3480156102fd575f5ffd5b5061012e61030c36600461184b565b610e11565b34801561031c575f5ffd5b506102137f000000000000000000000000000000000000000000000000000000000000000081565b5f5f600154600203610382576040517f8beb9d1600000000000000000000000000000000000000000000000000000000815260040160405180910390fd5b600260015561039033610f2f565b6001805590939092509050565b73ffffffffffffffffffffffffffffffffffffffff82165f90815260026020526040812080548392906103d1908490611a43565b90915550506040517f23b872dd000000000000000000000000000000000000000000000000000000008152336004820152306024820152604481018290527f000000000000000000000000000000000000000000000000000000000000000073ffffffffffffffffffffffffffffffffffffffff16906323b872dd906064016020604051808303815f875af115801561046c573d5f5f3e3d5ffd5b505050506040513d601f19601f820116820180604052508101906104909190611a56565b507f000000000000000000000000000000000000000000000000000000000000000073ffffffffffffffffffffffffffffffffffffffff168273ffffffffffffffffffffffffffffffffffffffff167f5548c837ab068cf56a2c2479df0882a4922fd203edb7517321831d95078c5f628360405161051091815260200190565b60405180910390a35050565b600154600203610558576040517f8beb9d1600000000000000000000000000000000000000000000000000000000815260040160405180910390fd5b60026001553373ffffffffffffffffffffffffffffffffffffffff7f0000000000000000000000000000000000000000000000000000000000000000161461060f576040517fe56895c000000000000000000000000000000000000000000000000000000000815233600482015273ffffffffffffffffffffffffffffffffffffffff7f00000000000000000000000000000000000000000000000000000000000000001660248201526044015b60405180910390fd5b5f61061861106e565b73ffffffffffffffffffffffffffffffffffffffff86165f908152600260205260408120549192509061064c908390611a43565b90505f6106598686611a78565b9050610667878383876110ae565b73ffffffffffffffffffffffffffffffffffffffff88165f81815260026020908152604091829020849055815185815290810184905292945090917e572a5ba2b0e6be13dc09fac07a0c06782c5defdef8694b0085972ebdb1201291015b60405180910390a25050600180555050505050565b600154600203610716576040517f8beb9d1600000000000000000000000000000000000000000000000000000000815260040160405180910390fd5b60026001555f805b83518110156107565783818151811061073957610739611a8f565b60200260200101518261074c9190611a43565b915060010161071e565b5073ffffffffffffffffffffffffffffffffffffffff84165f90815260026020526040902054818110156107c0576040517fcf4791810000000000000000000000000000000000000000000000000000000081526004810182905260248101839052604401610606565b6107ca8282611abc565b73ffffffffffffffffffffffffffffffffffffffff8087165f908152600260209081526040808320859055928a16825260039052205490915061080d8382611a43565b73ffffffffffffffffffffffffffffffffffffffff8881165f908152600360209081526040918290208490558151878152908101869052929350908816917e572a5ba2b0e6be13dc09fac07a0c06782c5defdef8694b0085972ebdb12012910160405180910390a260408051848152602081018390525f9181019190915273ffffffffffffffffffffffffffffffffffffffff8816907fd11af879a940c7604caa3933cb8a021f09a06692f4d05a5843fe06a003abed68906060016106c5565b600154600203610909576040517f8beb9d1600000000000000000000000000000000000000000000000000000000815260040160405180910390fd5b60026001553373ffffffffffffffffffffffffffffffffffffffff7f000000000000000000000000000000000000000000000000000000000000000016146109bb576040517fe56895c000000000000000000000000000000000000000000000000000000000815233600482015273ffffffffffffffffffffffffffffffffffffffff7f0000000000000000000000000000000000000000000000000000000000000000166024820152604401610606565b82515f808080805b85811015610b4a578881815181106109dd576109dd611a8f565b602002602001015115610b42578781815181106109fc576109fc611a8f565b602002602001015184610a0f9190611a43565b9350868181518110610a2357610a23611a8f565b602002602001015183610a369190611a43565b92505f888281518110610a4b57610a4b611a8f565b6020026020010151888381518110610a6557610a65611a8f565b60200260200101511115610b4057888281518110610a8557610a85611a8f565b6020026020010151888381518110610a9f57610a9f611a8f565b6020026020010151610ab19190611abc565b9050610abd8184611a43565b9250610ae28b8381518110610ad457610ad4611a8f565b602002602001015182611133565b95508560025f8d8581518110610afa57610afa611a8f565b602002602001015173ffffffffffffffffffffffffffffffffffffffff1673ffffffffffffffffffffffffffffffffffffffff1681526020019081526020015f20819055505b505b6001016109c3565b50825f03610b84576040517f7c946ed700000000000000000000000000000000000000000000000000000000815260040160405180910390fd5b73ffffffffffffffffffffffffffffffffffffffff8a165f908152600360205260409020549350610bb58385611a43565b73ffffffffffffffffffffffffffffffffffffffff8b165f818152600360209081526040918290208490558151878152908101849052908101849052919550907fd11af879a940c7604caa3933cb8a021f09a06692f4d05a5843fe06a003abed689060600160405180910390a25050600180555050505050505050565b600154600203610c6e576040517f8beb9d1600000000000000000000000000000000000000000000000000000000815260040160405180910390fd5b60026001555f805490819003610cb0576040517f7c946ed700000000000000000000000000000000000000000000000000000000815260040160405180910390fd5b5f8055610cbc8161116c565b5060018055565b335f9081526002602052604081208054839290610ce1908490611a43565b90915550506040517f23b872dd000000000000000000000000000000000000000000000000000000008152336004820152306024820152604481018290527f000000000000000000000000000000000000000000000000000000000000000073ffffffffffffffffffffffffffffffffffffffff16906323b872dd906064016020604051808303815f875af1158015610d7c573d5f5f3e3d5ffd5b505050506040513d601f19601f82011682018060405250810190610da09190611a56565b5060405181815273ffffffffffffffffffffffffffffffffffffffff7f0000000000000000000000000000000000000000000000000000000000000000169033907f5548c837ab068cf56a2c2479df0882a4922fd203edb7517321831d95078c5f629060200160405180910390a350565b5f5f600154600203610e4f576040517f8beb9d1600000000000000000000000000000000000000000000000000000000815260040160405180910390fd5b60026001556040517f6d70f7ae00000000000000000000000000000000000000000000000000000000815233600482015273ffffffffffffffffffffffffffffffffffffffff841690636d70f7ae90602401602060405180830381865afa158015610ebc573d5f5f3e3d5ffd5b505050506040513d601f19601f82011682018060405250810190610ee09190611a56565b610f18576040517f32b2baa3000000000000000000000000000000000000000000000000000000008152336004820152602401610606565b610f2183610f2f565b600180559094909350915050565b73ffffffffffffffffffffffffffffffffffffffff81165f9081526003602052604081205481906002811015610f91576040517f7c946ed700000000000000000000000000000000000000000000000000000000815260040160405180910390fd5b5f610f9a6112b6565b9050612710610faa600182611abc565b610fb48385611a78565b610fbe9190611a43565b610fc89190611acf565b9250610fd48383611abc565b93505f81118015610fe3575082155b80610fec575083155b15611023576040517f7c946ed700000000000000000000000000000000000000000000000000000000815260040160405180910390fd5b825f5f8282546110339190611a43565b909155505073ffffffffffffffffffffffffffffffffffffffff85165f908152600360205260408120556110678585611349565b5050915091565b5f34156110a9576040517f0f0fe74c000000000000000000000000000000000000000000000000000000008152346004820152602401610606565b505f90565b5f828410156110dc575f6110c28585611abc565b90506110ce868261146a565b6110d89086611a43565b9450505b82841015611120576040517fcf4791810000000000000000000000000000000000000000000000000000000081526004810185905260248101849052604401610606565b61112a8385611abc565b95945050505050565b73ffffffffffffffffffffffffffffffffffffffff82165f90815260026020526040812054611163908390611a43565b90505b92915050565b6040517fa9059cbb00000000000000000000000000000000000000000000000000000000815273ffffffffffffffffffffffffffffffffffffffff7f000000000000000000000000000000000000000000000000000000000000000081166004830152602482018390527f0000000000000000000000000000000000000000000000000000000000000000169063a9059cbb906044016020604051808303815f875af115801561121e573d5f5f3e3d5ffd5b505050506040513d601f19601f820116820180604052508101906112429190611a56565b507f000000000000000000000000000000000000000000000000000000000000000073ffffffffffffffffffffffffffffffffffffffff167fb2559daa129ad136aac2133ac6a0c75920abbef7d6663a017a94e181b13786c3826040516112ab91815260200190565b60405180910390a250565b5f7f000000000000000000000000000000000000000000000000000000000000000073ffffffffffffffffffffffffffffffffffffffff1663ddca3f436040518163ffffffff1660e01b8152600401602060405180830381865afa158015611320573d5f5f3e3d5ffd5b505050506040513d601f19601f820116820180604052508101906113449190611b07565b905090565b6040517fa9059cbb00000000000000000000000000000000000000000000000000000000815273ffffffffffffffffffffffffffffffffffffffff8381166004830152602482018390527f0000000000000000000000000000000000000000000000000000000000000000169063a9059cbb906044016020604051808303815f875af11580156113db573d5f5f3e3d5ffd5b505050506040513d601f19601f820116820180604052508101906113ff9190611a56565b5060405181815273ffffffffffffffffffffffffffffffffffffffff7f0000000000000000000000000000000000000000000000000000000000000000169033907f9b1bfa7fa9ee420a16e124f794c35ac9f90472acc99140eb2f6447c714cad8eb90602001610510565b6040517f23b872dd00000000000000000000000000000000000000000000000000000000815273ffffffffffffffffffffffffffffffffffffffff8381166004830152306024830152604482018390525f917f0000000000000000000000000000000000000000000000000000000000000000909116906323b872dd906064016020604051808303815f875af1158015611506573d5f5f3e3d5ffd5b505050506040513d601f19601f8201168201806040525081019061152a9190611a56565b5060405182815273ffffffffffffffffffffffffffffffffffffffff7f0000000000000000000000000000000000000000000000000000000000000000169033907f5548c837ab068cf56a2c2479df0882a4922fd203edb7517321831d95078c5f629060200160405180910390a350919050565b803573ffffffffffffffffffffffffffffffffffffffff811681146115c1575f5ffd5b919050565b5f5f604083850312156115d7575f5ffd5b6115e08361159e565b946020939093013593505050565b7f4e487b71000000000000000000000000000000000000000000000000000000005f52604160045260245ffd5b604051601f82017fffffffffffffffffffffffffffffffffffffffffffffffffffffffffffffffe016810167ffffffffffffffff81118282101715611662576116626115ee565b604052919050565b5f82601f830112611679575f5ffd5b813567ffffffffffffffff811115611693576116936115ee565b6116c460207fffffffffffffffffffffffffffffffffffffffffffffffffffffffffffffffe0601f8401160161161b565b8181528460208386010111156116d8575f5ffd5b816020850160208301375f918101602001919091529392505050565b5f5f5f5f60808587031215611707575f5ffd5b6117108561159e565b93506020850135925060408501359150606085013567ffffffffffffffff811115611739575f5ffd5b6117458782880161166a565b91505092959194509250565b5f67ffffffffffffffff82111561176a5761176a6115ee565b5060051b60200190565b5f82601f830112611783575f5ffd5b813561179661179182611751565b61161b565b8082825260208201915060208360051b8601019250858311156117b7575f5ffd5b602085015b838110156117d45780358352602092830192016117bc565b5095945050505050565b5f5f5f5f608085870312156117f1575f5ffd5b6117fa8561159e565b93506118086020860161159e565b9250604085013567ffffffffffffffff811115611823575f5ffd5b61182f87828801611774565b925050606085013567ffffffffffffffff811115611739575f5ffd5b5f6020828403121561185b575f5ffd5b6111638261159e565b8015158114611871575f5ffd5b50565b5f82601f830112611883575f5ffd5b813561189161179182611751565b8082825260208201915060208360051b8601019250858311156118b2575f5ffd5b602085015b838110156117d45780356118ca81611864565b8352602092830192016118b7565b5f5f5f5f5f60a086880312156118ec575f5ffd5b6118f58661159e565b9450602086013567ffffffffffffffff811115611910575f5ffd5b8601601f81018813611920575f5ffd5b803561192e61179182611751565b8082825260208201915060208360051b85010192508a83111561194f575f5ffd5b6020840193505b82841015611978576119678461159e565b825260209384019390910190611956565b9650505050604086013567ffffffffffffffff811115611996575f5ffd5b6119a288828901611874565b935050606086013567ffffffffffffffff8111156119be575f5ffd5b6119ca88828901611774565b925050608086013567ffffffffffffffff8111156119e6575f5ffd5b6119f288828901611774565b9150509295509295909350565b5f60208284031215611a0f575f5ffd5b5035919050565b7f4e487b71000000000000000000000000000000000000000000000000000000005f52601160045260245ffd5b8082018082111561116657611166611a16565b5f60208284031215611a66575f5ffd5b8151611a7181611864565b9392505050565b808202811582820484141761116657611166611a16565b7f4e487b71000000000000000000000000000000000000000000000000000000005f52603260045260245ffd5b8181038181111561116657611166611a16565b5f82611b02577f4e487b71000000000000000000000000000000000000000000000000000000005f52601260045260245ffd5b500490565b5f60208284031215611b17575f5ffd5b505191905056fea26469706673582212201425b058d3ddb38c59ad583766edd8f6e0d29897b2675476dbb0e3ac8368602d64736f6c634300081c0033",
  "linkReferences": {},
  "deployedLinkReferences": {}
}