{
  "_format": "hh-sol-artifact-1",
  "contractName": "BalanceTrackerNvmSubscriptionNative",
  "sourceName": "contracts/mechs/nevermined/BalanceTrackerNvmSubscriptionNative.sol",
  "abi": [
    {
      "inputs": [
        {
          "internalType": "address",
          "name": "_mechMarketplace",
          "type": "address"
        },
        {
          "internalType": "address",
          "name": "_drainer",
          "type": "address"
        },
        {
          "internalType": "address",
          "name": "_wrappedNativeToken",
          "type": "address"
        },
        {
          "internalType": "uint256",
          "name": "_tokenCreditRatio",
          "type": "uint256"
        }
      ],
      "stateMutability": "nonpayable",
      "type": "constructor"
    },
    {
      "inputs": [
        {
          "internalType": "uint256",
          "name": "current",
          "type": "uint256"
        },
        {
          "internalType": "uint256",
          "name": "required",
          "type": "uint256"
        }
      ],
      "name": "InsufficientBalance",
      "type": "error"
    },
    {
      "inputs": [
        {
          "internalType": "address",
          "name": "sender",
          "type": "address"
        },
        {
          "internalType": "address",
          "name": "marketplace",
          "type": "address"
        }
      ],
      "name": "MarketplaceOnly",
      "type": "error"
    },
    {
      "inputs": [
        {
          "internalType": "uint256",
          "name": "amount",
          "type": "uint256"
        }
      ],
      "name": "NoDepositAllowed",
      "type": "error"
    },
    {
      "inputs": [
        {
          "internalType": "uint256",
          "name": "provided",
          "type": "uint256"
        },
        {
          "internalType": "uint256",
          "name": "max",
          "type": "uint256"
        }
      ],
      "name": "Overflow",
      "type": "error"
    },
    {
      "inputs": [
        {
          "internalType": "address",
          "name": "sender",
          "type": "address"
        },
        {
          "internalType": "address",
          "name": "owner",
          "type": "address"
        }
      ],
      "name": "OwnerOnly",
      "type": "error"
    },
    {
      "inputs": [],
      "name": "ReentrancyGuard",
      "type": "error"
    },
    {
      "inputs": [
        {
          "internalType": "address",
          "name": "token",
          "type": "address"
        },
        {
          "internalType": "address",
          "name": "from",
          "type": "address"
        },
        {
          "internalType": "address",
          "name": "to",
          "type": "address"
        },
        {
          "internalType": "uint256",
          "name": "amount",
          "type": "uint256"
        }
      ],
      "name": "TransferFailed",
      "type": "error"
    },
    {
      "inputs": [
        {
          "internalType": "address",
          "name": "account",
          "type": "address"
        }
      ],
      "name": "UnauthorizedAccount",
      "type": "error"
    },
    {
      "inputs": [],
      "name": "ZeroAddress",
      "type": "error"
    },
    {
      "inputs": [],
      "name": "ZeroValue",
      "type": "error"
    },
    {
      "anonymous": false,
      "inputs": [
        {
          "indexed": true,
          "internalType": "address",
          "name": "account",
          "type": "address"
        },
        {
          "indexed": true,
          "internalType": "address",
          "name": "token",
          "type": "address"
        },
        {
          "indexed": false,
          "internalType": "uint256",
          "name": "amount",
          "type": "uint256"
        }
      ],
      "name": "Deposit",
      "type": "event"
    },
    {
      "anonymous": false,
      "inputs": [
        {
          "indexed": true,
          "internalType": "address",
          "name": "token",
          "type": "address"
        },
        {
          "indexed": false,
          "internalType": "uint256",
          "name": "collectedFees",
          "type": "uint256"
        }
      ],
      "name": "Drained",
      "type": "event"
    },
    {
      "anonymous": false,
      "inputs": [
        {
          "indexed": true,
          "internalType": "address",
          "name": "mech",
          "type": "address"
        },
        {
          "indexed": false,
          "internalType": "uint256",
          "name": "deliveryRate",
          "type": "uint256"
        },
        {
          "indexed": false,
          "internalType": "uint256",
          "name": "balance",
          "type": "uint256"
        },
        {
          "indexed": false,
          "internalType": "uint256",
          "name": "rateDiff",
          "type": "uint256"
        }
      ],
      "name": "MechBalanceAdjusted",
      "type": "event"
    },
    {
      "anonymous": false,
      "inputs": [
        {
          "indexed": true,
          "internalType": "address",
          "name": "requester",
          "type": "address"
        },
        {
          "indexed": false,
          "internalType": "uint256",
          "name": "deliveryRate",
          "type": "uint256"
        },
        {
          "indexed": false,
          "internalType": "uint256",
          "name": "balance",
          "type": "uint256"
        }
      ],
      "name": "RequesterBalanceAdjusted",
      "type": "event"
    },
    {
      "anonymous": false,
      "inputs": [
        {
          "indexed": true,
          "internalType": "address",
          "name": "account",
          "type": "address"
        },
        {
          "indexed": false,
          "internalType": "uint256",
          "name": "amount",
          "type": "uint256"
        }
      ],
      "name": "RequesterCreditsRedeemed",
      "type": "event"
    },
    {
      "anonymous": false,
      "inputs": [
        {
          "indexed": true,
          "internalType": "address",
          "name": "token",
          "type": "address"
        },
        {
          "indexed": true,
          "internalType": "uint256",
          "name": "tokenId",
          "type": "uint256"
        }
      ],
      "name": "SubscriptionSet",
      "type": "event"
    },
    {
      "anonymous": false,
      "inputs": [
        {
          "indexed": true,
          "internalType": "address",
          "name": "account",
          "type": "address"
        },
        {
          "indexed": true,
          "internalType": "address",
          "name": "token",
          "type": "address"
        },
        {
          "indexed": false,
          "internalType": "uint256",
          "name": "amount",
          "type": "uint256"
        }
      ],
      "name": "Withdraw",
      "type": "event"
    },
    {
      "inputs": [],
      "name": "MAX_FEE_FACTOR",
      "outputs": [
        {
          "internalType": "uint256",
          "name": "",
          "type": "uint256"
        }
      ],
      "stateMutability": "view",
      "type": "function"
    },
    {
      "inputs": [],
      "name": "MIN_MECH_BALANCE",
      "outputs": [
        {
          "internalType": "uint256",
          "name": "",
          "type": "uint256"
        }
      ],
      "stateMutability": "view",
      "type": "function"
    },
    {
      "inputs": [
        {
          "internalType": "address",
          "name": "mech",
          "type": "address"
        },
        {
          "internalType": "address",
          "name": "requester",
          "type": "address"
        },
        {
          "internalType": "uint256[]",
          "name": "mechDeliveryRates",
          "type": "uint256[]"
        },
        {
          "internalType": "bytes",
          "name": "paymentData",
          "type": "bytes"
        }
      ],
      "name": "adjustMechRequesterBalances",
      "outputs": [],
      "stateMutability": "nonpayable",
      "type": "function"
    },
    {
      "inputs": [
        {
          "internalType": "address",
          "name": "requester",
          "type": "address"
        },
        {
          "internalType": "uint256",
          "name": "numRequests",
          "type": "uint256"
        },
        {
          "internalType": "uint256",
          "name": "deliveryRate",
          "type": "uint256"
        },
        {
          "internalType": "bytes",
          "name": "paymentData",
          "type": "bytes"
        }
      ],
      "name": "checkAndRecordDeliveryRates",
      "outputs": [],
      "stateMutability": "payable",
      "type": "function"
    },
    {
      "inputs": [],
      "name": "collectedFees",
      "outputs": [
        {
          "internalType": "uint256",
          "name": "",
          "type": "uint256"
        }
      ],
      "stateMutability": "view",
      "type": "function"
    },
    {
      "inputs": [
        {
          "internalType": "address",
          "name": "account",
          "type": "address"
        }
      ],
      "name": "depositFor",
      "outputs": [],
      "stateMutability": "payable",
      "type": "function"
    },
    {
      "inputs": [],
      "name": "drain",
      "outputs": [],
      "stateMutability": "nonpayable",
      "type": "function"
    },
    {
      "inputs": [],
      "name": "drainer",
      "outputs": [
        {
          "internalType": "address",
          "name": "",
          "type": "address"
        }
      ],
      "stateMutability": "view",
      "type": "function"
    },
    {
      "inputs": [
        {
          "internalType": "address",
          "name": "mech",
          "type": "address"
        },
        {
          "internalType": "address[]",
          "name": "requesters",
          "type": "address[]"
        },
        {
          "internalType": "bool[]",
          "name": "deliveredRequests",
          "type": "bool[]"
        },
        {
          "internalType": "uint256[]",
          "name": "mechDeliveryRates",
          "type": "uint256[]"
        },
        {
          "internalType": "uint256[]",
          "name": "requesterDeliveryRates",
          "type": "uint256[]"
        }
      ],
      "name": "finalizeDeliveryRates",
      "outputs": [],
      "stateMutability": "nonpayable",
      "type": "function"
    },
    {
      "inputs": [
        {
          "internalType": "address",
          "name": "",
          "type": "address"
        }
      ],
      "name": "mapMechBalances",
      "outputs": [
        {
          "internalType": "uint256",
          "name": "",
          "type": "uint256"
        }
      ],
      "stateMutability": "view",
      "type": "function"
    },
    {
      "inputs": [
        {
          "internalType": "address",
          "name": "",
          "type": "address"
        }
      ],
      "name": "mapRequesterBalances",
      "outputs": [
        {
          "internalType": "uint256",
          "name": "",
          "type": "uint256"
        }
      ],
      "stateMutability": "view",
      "type": "function"
    },
    {
      "inputs": [],
      "name": "mechMarketplace",
      "outputs": [
        {
          "internalType": "address",
          "name": "",
          "type": "address"
        }
      ],
      "stateMutability": "view",
      "type": "function"
    },
    {
      "inputs": [],
      "name": "owner",
      "outputs": [
        {
          "internalType": "address",
          "name": "",
          "type": "address"
        }
      ],
      "stateMutability": "view",
      "type": "function"
    },
    {
      "inputs": [],
      "name": "processPayment",
      "outputs": [
        {
          "internalType": "uint256",
          "name": "mechPayment",
          "type": "uint256"
        },
        {
          "internalType": "uint256",
          "name": "marketplaceFee",
          "type": "uint256"
        }
      ],
      "stateMutability": "nonpayable",
      "type": "function"
    },
    {
      "inputs": [
        {
          "internalType": "address",
          "name": "mech",
          "type": "address"
        }
      ],
      "name": "processPaymentByMultisig",
      "outputs": [
        {
          "internalType": "uint256",
          "name": "mechPayment",
          "type": "uint256"
        },
        {
          "internalType": "uint256",
          "name": "marketplaceFee",
          "type": "uint256"
        }
      ],
      "stateMutability": "nonpayable",
      "type": "function"
    },
    {
      "inputs": [
        {
          "internalType": "address",
          "name": "requester",
          "type": "address"
        }
      ],
      "name": "redeemRequesterCredits",
      "outputs": [],
      "stateMutability": "nonpayable",
      "type": "function"
    },
    {
      "inputs": [
        {
          "internalType": "address",
          "name": "_subscriptionNFT",
          "type": "address"
        },
        {
          "internalType": "uint256",
          "name": "_subscriptionTokenId",
          "type": "uint256"
        }
      ],
      "name": "setSubscription",
      "outputs": [],
      "stateMutability": "nonpayable",
      "type": "function"
    },
    {
      "inputs": [],
      "name": "subscriptionNFT",
      "outputs": [
        {
          "internalType": "address",
          "name": "",
          "type": "address"
        }
      ],
      "stateMutability": "view",
      "type": "function"
    },
    {
      "inputs": [],
      "name": "subscriptionTokenId",
      "outputs": [
        {
          "internalType": "uint256",
          "name": "",
          "type": "uint256"
        }
      ],
      "stateMutability": "view",
      "type": "function"
    },
    {
      "inputs": [],
      "name": "tokenCreditRatio",
      "outputs": [
        {
          "internalType": "uint256",
          "name": "",
          "type": "uint256"
        }
      ],
      "stateMutability": "view",
      "type": "function"
    },
    {
      "inputs": [],
      "name": "trackerBalance",
      "outputs": [
        {
          "internalType": "uint256",
          "name": "",
          "type": "uint256"
        }
      ],
      "stateMutability": "view",
      "type": "function"
    },
    {
      "inputs": [],
      "name": "wrappedNativeToken",
      "outputs": [
        {
          "internalType": "address",
          "name": "",
          "type": "address"
        }
      ],
      "stateMutability": "view",
      "type": "function"
    },
    {
      "stateMutability": "payable",
      "type": "receive"
    }
  ],
  "bytecode": "0x61010060405260018055348015610014575f5ffd5b506040516120fc3803806120fc8339810160408190526100339161010c565b83838382826001600160a01b038216158061005557506001600160a01b038116155b156100735760405163d92e233d60e01b815260040160405180910390fd5b6001600160a01b03918216608052811660a05281166100a55760405163d92e233d60e01b815260040160405180910390fd5b6001600160a01b031660c05250505f8190036100d457604051637c946ed760e01b815260040160405180910390fd5b60e0525050600780546001600160a01b0319163317905550610154565b80516001600160a01b0381168114610107575f5ffd5b919050565b5f5f5f5f6080858703121561011f575f5ffd5b610128856100f1565b9350610136602086016100f1565b9250610144604086016100f1565b6060959095015193969295505050565b60805160a05160c05160e051611f2f6101cd5f395f8181610460015261126601525f818161020001528181611563015281816115d0015261178201525f81816102b5015261153401525f8181610405015281816107120152818161077a01528181610cb401528181610d1c01526118030152611f2f5ff3fe608060405260043610610170575f3560e01c8063878b1132116100c6578063aa67c9191161007c578063dd90cf5111610057578063dd90cf5114610482578063e679803514610497578063f965a873146104c2575f5ffd5b8063aa67c91914610427578063af4937fc1461043a578063b901af8a1461044f575f5ffd5b80639003adfe116100ac5780639003adfe146103cc5780639890220b146103e05780639c5e9590146103f4575f5ffd5b8063878b11321461038b5780638da5cb5b146103a0575f5ffd5b806357838e85116101265780636aeeffa8116101015780636aeeffa81461031557806379e4afe81461034057806385cf72441461035f575f5ffd5b806357838e85146102a45780636072dd2c146102d7578063693205c6146102f6575f5ffd5b806322081c121161015657806322081c12146102475780632ebfc9271461027057806338603a3914610291575f5ffd5b8063163ad715146101c857806317fcb39b146101ef575f5ffd5b366101c4573460065f82825461018691906119bd565b90915550506040513481525f9033907f5548c837ab068cf56a2c2479df0882a4922fd203edb7517321831d95078c5f629060200160405180910390a3005b5f5ffd5b3480156101d3575f5ffd5b506101dc600281565b6040519081526020015b60405180910390f35b3480156101fa575f5ffd5b506102227f000000000000000000000000000000000000000000000000000000000000000081565b60405173ffffffffffffffffffffffffffffffffffffffff90911681526020016101e6565b348015610252575f5ffd5b5061025b6104e1565b604080519283526020830191909152016101e6565b34801561027b575f5ffd5b5061028f61028a3660046119f8565b61053a565b005b61028f61029f366004611b26565b6106b9565b3480156102af575f5ffd5b506102227f000000000000000000000000000000000000000000000000000000000000000081565b3480156102e2575f5ffd5b5061028f6102f1366004611c10565b610872565b348015610301575f5ffd5b5061028f610310366004611c7d565b610a23565b348015610320575f5ffd5b506101dc61032f366004611c7d565b60026020525f908152604090205481565b34801561034b575f5ffd5b5061028f61035a366004611d11565b610c5b565b34801561036a575f5ffd5b506004546102229073ffffffffffffffffffffffffffffffffffffffff1681565b348015610396575f5ffd5b506101dc60055481565b3480156103ab575f5ffd5b506007546102229073ffffffffffffffffffffffffffffffffffffffff1681565b3480156103d7575f5ffd5b506101dc5f5481565b3480156103eb575f5ffd5b5061028f610fc0565b3480156103ff575f5ffd5b506102227f000000000000000000000000000000000000000000000000000000000000000081565b61028f610435366004611c7d565b611051565b348015610445575f5ffd5b506101dc61271081565b34801561045a575f5ffd5b506101dc7f000000000000000000000000000000000000000000000000000000000000000081565b34801561048d575f5ffd5b506101dc60065481565b3480156104a2575f5ffd5b506101dc6104b1366004611c7d565b60036020525f908152604090205481565b3480156104cd575f5ffd5b5061025b6104dc366004611c7d565b6110da565b5f5f60015460020361051f576040517f8beb9d1600000000000000000000000000000000000000000000000000000000815260040160405180910390fd5b600260015561052d336111f8565b6001805590939092509050565b60075473ffffffffffffffffffffffffffffffffffffffff1633146105b2576007546040517fa43d6ada00000000000000000000000000000000000000000000000000000000815233600482015273ffffffffffffffffffffffffffffffffffffffff90911660248201526044015b60405180910390fd5b73ffffffffffffffffffffffffffffffffffffffff82166105ff576040517fd92e233d00000000000000000000000000000000000000000000000000000000815260040160405180910390fd5b805f03610638576040517f7c946ed700000000000000000000000000000000000000000000000000000000815260040160405180910390fd5b6004805473ffffffffffffffffffffffffffffffffffffffff84167fffffffffffffffffffffffff0000000000000000000000000000000000000000918216811790925560058390556007805490911690556040518291907fb114dce0ae3b403c43fc24c911fcee78f120917c510db18042396f72cf6e7c82905f90a35050565b6001546002036106f5576040517f8beb9d1600000000000000000000000000000000000000000000000000000000815260040160405180910390fd5b60026001553373ffffffffffffffffffffffffffffffffffffffff7f000000000000000000000000000000000000000000000000000000000000000016146107a7576040517fe56895c000000000000000000000000000000000000000000000000000000000815233600482015273ffffffffffffffffffffffffffffffffffffffff7f00000000000000000000000000000000000000000000000000000000000000001660248201526044016105a9565b5f6107b061131c565b73ffffffffffffffffffffffffffffffffffffffff86165f90815260026020526040812054919250906107e49083906119bd565b90505f6107f18686611e38565b90506107ff8783838761135c565b73ffffffffffffffffffffffffffffffffffffffff88165f81815260026020908152604091829020849055815185815290810184905292945090917e572a5ba2b0e6be13dc09fac07a0c06782c5defdef8694b0085972ebdb1201291015b60405180910390a25050600180555050505050565b6001546002036108ae576040517f8beb9d1600000000000000000000000000000000000000000000000000000000815260040160405180910390fd5b60026001555f805b83518110156108ee578381815181106108d1576108d1611e4f565b6020026020010151826108e491906119bd565b91506001016108b6565b5073ffffffffffffffffffffffffffffffffffffffff84165f908152600260205260409020546109208582848661135c565b73ffffffffffffffffffffffffffffffffffffffff8087165f908152600260209081526040808320859055928a16825260039052205490915061096383826119bd565b73ffffffffffffffffffffffffffffffffffffffff8881165f908152600360209081526040918290208490558151878152908101869052929350908816917e572a5ba2b0e6be13dc09fac07a0c06782c5defdef8694b0085972ebdb12012910160405180910390a260408051848152602081018390525f9181019190915273ffffffffffffffffffffffffffffffffffffffff8816907fd11af879a940c7604caa3933cb8a021f09a06692f4d05a5843fe06a003abed689060600161085d565b600154600203610a5f576040517f8beb9d1600000000000000000000000000000000000000000000000000000000815260040160405180910390fd5b6002600181905573ffffffffffffffffffffffffffffffffffffffff8281165f8181526020939093526040808420546004805460055493517efdd58e0000000000000000000000000000000000000000000000000000000081529182019490945260248101929092529392919091169062fdd58e90604401602060405180830381865afa158015610af2573d5f5f3e3d5ffd5b505050506040513d601f19601f82011682018060405250810190610b169190611e7c565b905081811015610b24578091505b815f03610b5d576040517f7c946ed700000000000000000000000000000000000000000000000000000000815260040160405180910390fd5b73ffffffffffffffffffffffffffffffffffffffff8381165f81815260026020526040808220919091556004805460055492517ff5298aca0000000000000000000000000000000000000000000000000000000081529182019390935260248101919091526044810185905291169063f5298aca906064015f604051808303815f87803b158015610bec575f5ffd5b505af1158015610bfe573d5f5f3e3d5ffd5b505050508273ffffffffffffffffffffffffffffffffffffffff167f233634049b8efac027b540e625ee928314223b888a6c592965257899c7a0ee9283604051610c4a91815260200190565b60405180910390a250506001805550565b600154600203610c97576040517f8beb9d1600000000000000000000000000000000000000000000000000000000815260040160405180910390fd5b60026001553373ffffffffffffffffffffffffffffffffffffffff7f00000000000000000000000000000000000000000000000000000000000000001614610d49576040517fe56895c000000000000000000000000000000000000000000000000000000000815233600482015273ffffffffffffffffffffffffffffffffffffffff7f00000000000000000000000000000000000000000000000000000000000000001660248201526044016105a9565b82515f808080805b85811015610ed857888181518110610d6b57610d6b611e4f565b602002602001015115610ed057878181518110610d8a57610d8a611e4f565b602002602001015184610d9d91906119bd565b9350868181518110610db157610db1611e4f565b602002602001015183610dc491906119bd565b92505f888281518110610dd957610dd9611e4f565b6020026020010151888381518110610df357610df3611e4f565b60200260200101511115610ece57888281518110610e1357610e13611e4f565b6020026020010151888381518110610e2d57610e2d611e4f565b6020026020010151610e3f9190611e93565b9050610e4b81846119bd565b9250610e708b8381518110610e6257610e62611e4f565b602002602001015182611471565b95508560025f8d8581518110610e8857610e88611e4f565b602002602001015173ffffffffffffffffffffffffffffffffffffffff1673ffffffffffffffffffffffffffffffffffffffff1681526020019081526020015f20819055505b505b600101610d51565b50825f03610f12576040517f7c946ed700000000000000000000000000000000000000000000000000000000815260040160405180910390fd5b73ffffffffffffffffffffffffffffffffffffffff8a165f908152600360205260409020549350610f4383856119bd565b73ffffffffffffffffffffffffffffffffffffffff8b165f818152600360209081526040918290208490558151878152908101849052908101849052919550907fd11af879a940c7604caa3933cb8a021f09a06692f4d05a5843fe06a003abed689060600160405180910390a25050600180555050505050505050565b600154600203610ffc576040517f8beb9d1600000000000000000000000000000000000000000000000000000000815260040160405180910390fd5b60026001555f80549081900361103e576040517f7c946ed700000000000000000000000000000000000000000000000000000000815260040160405180910390fd5b5f805561104a816114ee565b5060018055565b73ffffffffffffffffffffffffffffffffffffffff81165f90815260026020526040812080543492906110859084906119bd565b90915550506040513481525f9073ffffffffffffffffffffffffffffffffffffffff8316907f5548c837ab068cf56a2c2479df0882a4922fd203edb7517321831d95078c5f629060200160405180910390a350565b5f5f600154600203611118576040517f8beb9d1600000000000000000000000000000000000000000000000000000000815260040160405180910390fd5b60026001556040517f6d70f7ae00000000000000000000000000000000000000000000000000000000815233600482015273ffffffffffffffffffffffffffffffffffffffff841690636d70f7ae90602401602060405180830381865afa158015611185573d5f5f3e3d5ffd5b505050506040513d601f19601f820116820180604052508101906111a99190611ea6565b6111e1576040517f32b2baa30000000000000000000000000000000000000000000000000000000081523360048201526024016105a9565b6111ea836111f8565b600180559094909350915050565b73ffffffffffffffffffffffffffffffffffffffff81165f908152600360205260408120548190808203611258576040517f7c946ed700000000000000000000000000000000000000000000000000000000815260040160405180910390fd5b670de0b6b3a764000061128b7f000000000000000000000000000000000000000000000000000000000000000083611e38565b6112959190611ec1565b73ffffffffffffffffffffffffffffffffffffffff85165f908152600360205260409020819055600654909150811115611309576006546040517f7ae596850000000000000000000000000000000000000000000000000000000081526105a9918391600401918252602082015260400190565b61131284611641565b9250925050915091565b5f3415611357576040517f0f0fe74c0000000000000000000000000000000000000000000000000000000081523460048201526024016105a9565b505f90565b600480546005546040517efdd58e0000000000000000000000000000000000000000000000000000000081525f93849373ffffffffffffffffffffffffffffffffffffffff169262fdd58e926113d6928b92910173ffffffffffffffffffffffffffffffffffffffff929092168252602082015260400190565b602060405180830381865afa1580156113f1573d5f5f3e3d5ffd5b505050506040513d601f19601f820116820180604052508101906114159190611e7c565b905061142184866119bd565b945084811015611467576040517fcf47918100000000000000000000000000000000000000000000000000000000815260048101829052602481018690526044016105a9565b5092949350505050565b73ffffffffffffffffffffffffffffffffffffffff82165f90815260026020526040812054808311156114da576040517f7ae5968500000000000000000000000000000000000000000000000000000000815260048101849052602481018290526044016105a9565b6114e48382611e93565b9150505b92915050565b6114f781611780565b6040517fa9059cbb00000000000000000000000000000000000000000000000000000000815273ffffffffffffffffffffffffffffffffffffffff7f000000000000000000000000000000000000000000000000000000000000000081166004830152602482018390527f0000000000000000000000000000000000000000000000000000000000000000169063a9059cbb906044016020604051808303815f875af11580156115a9573d5f5f3e3d5ffd5b505050506040513d601f19601f820116820180604052508101906115cd9190611ea6565b507f000000000000000000000000000000000000000000000000000000000000000073ffffffffffffffffffffffffffffffffffffffff167fb2559daa129ad136aac2133ac6a0c75920abbef7d6663a017a94e181b13786c38260405161163691815260200190565b60405180910390a250565b73ffffffffffffffffffffffffffffffffffffffff81165f90815260036020526040812054819060028110156116a3576040517f7c946ed700000000000000000000000000000000000000000000000000000000815260040160405180910390fd5b5f6116ac611800565b90506127106116bc600182611e93565b6116c68385611e38565b6116d091906119bd565b6116da9190611ec1565b92506116e68383611e93565b93505f811180156116f5575082155b806116fe575083155b15611735576040517f7c946ed700000000000000000000000000000000000000000000000000000000815260040160405180910390fd5b825f5f82825461174591906119bd565b909155505073ffffffffffffffffffffffffffffffffffffffff85165f908152600360205260408120556117798585611893565b5050915091565b7f000000000000000000000000000000000000000000000000000000000000000073ffffffffffffffffffffffffffffffffffffffff1663d0e30db0826040518263ffffffff1660e01b81526004015f604051808303818588803b1580156117e6575f5ffd5b505af11580156117f8573d5f5f3e3d5ffd5b505050505050565b5f7f000000000000000000000000000000000000000000000000000000000000000073ffffffffffffffffffffffffffffffffffffffff1663ddca3f436040518163ffffffff1660e01b8152600401602060405180830381865afa15801561186a573d5f5f3e3d5ffd5b505050506040513d601f19601f8201168201806040525081019061188e9190611e7c565b905090565b5f8273ffffffffffffffffffffffffffffffffffffffff16826040515f6040518083038185875af1925050503d805f81146118e9576040519150601f19603f3d011682016040523d82523d5f602084013e6118ee565b606091505b5050905080611954576040517fcd3f16590000000000000000000000000000000000000000000000000000000081525f600482015230602482015273ffffffffffffffffffffffffffffffffffffffff84166044820152606481018390526084016105a9565b6040518281525f9033907f9b1bfa7fa9ee420a16e124f794c35ac9f90472acc99140eb2f6447c714cad8eb9060200160405180910390a3505050565b7f4e487b71000000000000000000000000000000000000000000000000000000005f52601160045260245ffd5b808201808211156114e8576114e8611990565b803573ffffffffffffffffffffffffffffffffffffffff811681146119f3575f5ffd5b919050565b5f5f60408385031215611a09575f5ffd5b611a12836119d0565b946020939093013593505050565b7f4e487b71000000000000000000000000000000000000000000000000000000005f52604160045260245ffd5b604051601f82017fffffffffffffffffffffffffffffffffffffffffffffffffffffffffffffffe016810167ffffffffffffffff81118282101715611a9457611a94611a20565b604052919050565b5f82601f830112611aab575f5ffd5b813567ffffffffffffffff811115611ac557611ac5611a20565b611af660207fffffffffffffffffffffffffffffffffffffffffffffffffffffffffffffffe0601f84011601611a4d565b818152846020838601011115611b0a575f5ffd5b816020850160208301375f918101602001919091529392505050565b5f5f5f5f60808587031215611b39575f5ffd5b611b42856119d0565b93506020850135925060408501359150606085013567ffffffffffffffff811115611b6b575f5ffd5b611b7787828801611a9c565b91505092959194509250565b5f67ffffffffffffffff821115611b9c57611b9c611a20565b5060051b60200190565b5f82601f830112611bb5575f5ffd5b8135611bc8611bc382611b83565b611a4d565b8082825260208201915060208360051b860101925085831115611be9575f5ffd5b602085015b83811015611c06578035835260209283019201611bee565b5095945050505050565b5f5f5f5f60808587031215611c23575f5ffd5b611c2c856119d0565b9350611c3a602086016119d0565b9250604085013567ffffffffffffffff811115611c55575f5ffd5b611c6187828801611ba6565b925050606085013567ffffffffffffffff811115611b6b575f5ffd5b5f60208284031215611c8d575f5ffd5b611c96826119d0565b9392505050565b8015158114611caa575f5ffd5b50565b5f82601f830112611cbc575f5ffd5b8135611cca611bc382611b83565b8082825260208201915060208360051b860101925085831115611ceb575f5ffd5b602085015b83811015611c06578035611d0381611c9d565b835260209283019201611cf0565b5f5f5f5f5f60a08688031215611d25575f5ffd5b611d2e866119d0565b9450602086013567ffffffffffffffff811115611d49575f5ffd5b8601601f81018813611d59575f5ffd5b8035611d67611bc382611b83565b8082825260208201915060208360051b85010192508a831115611d88575f5ffd5b6020840193505b82841015611db157611da0846119d0565b825260209384019390910190611d8f565b9650505050604086013567ffffffffffffffff811115611dcf575f5ffd5b611ddb88828901611cad565b935050606086013567ffffffffffffffff811115611df7575f5ffd5b611e0388828901611ba6565b925050608086013567ffffffffffffffff811115611e1f575f5ffd5b611e2b88828901611ba6565b9150509295509295909350565b80820281158282048414176114e8576114e8611990565b7f4e487b71000000000000000000000000000000000000000000000000000000005f52603260045260245ffd5b5f60208284031215611e8c575f5ffd5b5051919050565b818103818111156114e8576114e8611990565b5f60208284031215611eb6575f5ffd5b8151611c9681611c9d565b5f82611ef4577f4e487b71000000000000000000000000000000000000000000000000000000005f52601260045260245ffd5b50049056fea2646970667358221220854999ed2e5699cbaecba8188f4a3dc5e4f62f6f3475c599116e38c00b5ea63064736f6c634300081c0033",
  "linkReferences": {},
  "deployedLinkReferences": {}
}