{
  "_format": "hh-sol-artifact-1",
  "contractName": "BalanceTrackerNvmSubscriptionNative",
  "sourceName": "contracts/mechs/nevermined/BalanceTrackerNvmSubscriptionNative.sol",
  "abi": [
    {
      "inputs": [
        {
          "internalType": "address",
          "name": "_mechMarketplace",
          "type": "address"
        },
        {
          "internalType": "address",
          "name": "_drainer",
          "type": "address"
        },
        {
          "internalType": "address",
          "name": "_wrappedNativeToken",
          "type": "address"
        },
        {
          "internalType": "uint256",
          "name": "_tokenCreditRatio",
          "type": "uint256"
        }
      ],
      "stateMutability": "nonpayable",
      "type": "constructor"
    },
    {
      "inputs": [
        {
          "internalType": "uint256",
          "name": "current",
          "type": "uint256"
        },
        {
          "internalType": "uint256",
          "name": "required",
          "type": "uint256"
        }
      ],
      "name": "InsufficientBalance",
      "type": "error"
    },
    {
      "inputs": [
        {
          "internalType": "address",
          "name": "sender",
          "type": "address"
        },
        {
          "internalType": "address",
          "name": "marketplace",
          "type": "address"
        }
      ],
      "name": "MarketplaceOnly",
      "type": "error"
    },
    {
      "inputs": [
        {
          "internalType": "uint256",
          "name": "amount",
          "type": "uint256"
        }
      ],
      "name": "NoDepositAllowed",
      "type": "error"
    },
    {
      "inputs": [
        {
          "internalType": "uint256",
          "name": "provided",
          "type": "uint256"
        },
        {
          "internalType": "uint256",
          "name": "max",
          "type": "uint256"
        }
      ],
      "name": "Overflow",
      "type": "error"
    },
    {
      "inputs": [
        {
          "internalType": "address",
          "name": "sender",
          "type": "address"
        },
        {
          "internalType": "address",
          "name": "owner",
          "type": "address"
        }
      ],
      "name": "OwnerOnly",
      "type": "error"
    },
    {
      "inputs": [],
      "name": "ReentrancyGuard",
      "type": "error"
    },
    {
      "inputs": [
        {
          "internalType": "address",
          "name": "token",
          "type": "address"
        },
        {
          "internalType": "address",
          "name": "from",
          "type": "address"
        },
        {
          "internalType": "address",
          "name": "to",
          "type": "address"
        },
        {
          "internalType": "uint256",
          "name": "amount",
          "type": "uint256"
        }
      ],
      "name": "TransferFailed",
      "type": "error"
    },
    {
      "inputs": [
        {
          "internalType": "address",
          "name": "account",
          "type": "address"
        }
      ],
      "name": "UnauthorizedAccount",
      "type": "error"
    },
    {
      "inputs": [],
      "name": "ZeroAddress",
      "type": "error"
    },
    {
      "inputs": [],
      "name": "ZeroValue",
      "type": "error"
    },
    {
      "anonymous": false,
      "inputs": [
        {
          "indexed": true,
          "internalType": "address",
          "name": "account",
          "type": "address"
        },
        {
          "indexed": true,
          "internalType": "address",
          "name": "token",
          "type": "address"
        },
        {
          "indexed": false,
          "internalType": "uint256",
          "name": "amount",
          "type": "uint256"
        }
      ],
      "name": "Deposit",
      "type": "event"
    },
    {
      "anonymous": false,
      "inputs": [
        {
          "indexed": true,
          "internalType": "address",
          "name": "token",
          "type": "address"
        },
        {
          "indexed": false,
          "internalType": "uint256",
          "name": "collectedFees",
          "type": "uint256"
        }
      ],
      "name": "Drained",
      "type": "event"
    },
    {
      "anonymous": false,
      "inputs": [
        {
          "indexed": true,
          "internalType": "address",
          "name": "mech",
          "type": "address"
        },
        {
          "indexed": false,
          "internalType": "uint256",
          "name": "deliveryRate",
          "type": "uint256"
        },
        {
          "indexed": false,
          "internalType": "uint256",
          "name": "balance",
          "type": "uint256"
        },
        {
          "indexed": false,
          "internalType": "uint256",
          "name": "rateDiff",
          "type": "uint256"
        }
      ],
      "name": "MechBalanceAdjusted",
      "type": "event"
    },
    {
      "anonymous": false,
      "inputs": [
        {
          "indexed": true,
          "internalType": "address",
          "name": "requester",
          "type": "address"
        },
        {
          "indexed": false,
          "internalType": "uint256",
          "name": "deliveryRate",
          "type": "uint256"
        },
        {
          "indexed": false,
          "internalType": "uint256",
          "name": "balance",
          "type": "uint256"
        }
      ],
      "name": "RequesterBalanceAdjusted",
      "type": "event"
    },
    {
      "anonymous": false,
      "inputs": [
        {
          "indexed": true,
          "internalType": "address",
          "name": "account",
          "type": "address"
        },
        {
          "indexed": false,
          "internalType": "uint256",
          "name": "amount",
          "type": "uint256"
        }
      ],
      "name": "RequesterCreditsRedeemed",
      "type": "event"
    },
    {
      "anonymous": false,
      "inputs": [
        {
          "indexed": true,
          "internalType": "address",
          "name": "token",
          "type": "address"
        },
        {
          "indexed": true,
          "internalType": "uint256",
          "name": "tokenId",
          "type": "uint256"
        }
      ],
      "name": "SubscriptionSet",
      "type": "event"
    },
    {
      "anonymous": false,
      "inputs": [
        {
          "indexed": true,
          "internalType": "address",
          "name": "account",
          "type": "address"
        },
        {
          "indexed": true,
          "internalType": "address",
          "name": "token",
          "type": "address"
        },
        {
          "indexed": false,
          "internalType": "uint256",
          "name": "amount",
          "type": "uint256"
        }
      ],
      "name": "Withdraw",
      "type": "event"
    },
    {
      "inputs": [],
      "name": "MAX_FEE_FACTOR",
      "outputs": [
        {
          "internalType": "uint256",
          "name": "",
          "type": "uint256"
        }
      ],
      "stateMutability": "view",
      "type": "function"
    },
    {
      "inputs": [],
      "name": "MIN_MECH_BALANCE",
      "outputs": [
        {
          "internalType": "uint256",
          "name": "",
          "type": "uint256"
        }
      ],
      "stateMutability": "view",
      "type": "function"
    },
    {
      "inputs": [
        {
          "internalType": "address",
          "name": "mech",
          "type": "address"
        },
        {
          "internalType": "address",
          "name": "requester",
          "type": "address"
        },
        {
          "internalType": "uint256[]",
          "name": "mechDeliveryRates",
          "type": "uint256[]"
        },
        {
          "internalType": "bytes",
          "name": "paymentData",
          "type": "bytes"
        }
      ],
      "name": "adjustMechRequesterBalances",
      "outputs": [],
      "stateMutability": "nonpayable",
      "type": "function"
    },
    {
      "inputs": [
        {
          "internalType": "address",
          "name": "requester",
          "type": "address"
        },
        {
          "internalType": "uint256",
          "name": "numRequests",
          "type": "uint256"
        },
        {
          "internalType": "uint256",
          "name": "deliveryRate",
          "type": "uint256"
        },
        {
          "internalType": "bytes",
          "name": "paymentData",
          "type": "bytes"
        }
      ],
      "name": "checkAndRecordDeliveryRates",
      "outputs": [],
      "stateMutability": "payable",
      "type": "function"
    },
    {
      "inputs": [],
      "name": "collectedFees",
      "outputs": [
        {
          "internalType": "uint256",
          "name": "",
          "type": "uint256"
        }
      ],
      "stateMutability": "view",
      "type": "function"
    },
    {
      "inputs": [
        {
          "internalType": "address",
          "name": "account",
          "type": "address"
        }
      ],
      "name": "depositFor",
      "outputs": [],
      "stateMutability": "payable",
      "type": "function"
    },
    {
      "inputs": [],
      "name": "drain",
      "outputs": [],
      "stateMutability": "nonpayable",
      "type": "function"
    },
    {
      "inputs": [],
      "name": "drainer",
      "outputs": [
        {
          "internalType": "address",
          "name": "",
          "type": "address"
        }
      ],
      "stateMutability": "view",
      "type": "function"
    },
    {
      "inputs": [
        {
          "internalType": "address",
          "name": "mech",
          "type": "address"
        },
        {
          "internalType": "address[]",
          "name": "requesters",
          "type": "address[]"
        },
        {
          "internalType": "bool[]",
          "name": "deliveredRequests",
          "type": "bool[]"
        },
        {
          "internalType": "uint256[]",
          "name": "mechDeliveryRates",
          "type": "uint256[]"
        },
        {
          "internalType": "uint256[]",
          "name": "requesterDeliveryRates",
          "type": "uint256[]"
        }
      ],
      "name": "finalizeDeliveryRates",
      "outputs": [],
      "stateMutability": "nonpayable",
      "type": "function"
    },
    {
      "inputs": [
        {
          "internalType": "address",
          "name": "",
          "type": "address"
        }
      ],
      "name": "mapMechBalances",
      "outputs": [
        {
          "internalType": "uint256",
          "name": "",
          "type": "uint256"
        }
      ],
      "stateMutability": "view",
      "type": "function"
    },
    {
      "inputs": [
        {
          "internalType": "address",
          "name": "",
          "type": "address"
        }
      ],
      "name": "mapRequesterBalances",
      "outputs": [
        {
          "internalType": "uint256",
          "name": "",
          "type": "uint256"
        }
      ],
      "stateMutability": "view",
      "type": "function"
    },
    {
      "inputs": [],
      "name": "mechMarketplace",
      "outputs": [
        {
          "internalType": "address",
          "name": "",
          "type": "address"
        }
      ],
      "stateMutability": "view",
      "type": "function"
    },
    {
      "inputs": [],
      "name": "owner",
      "outputs": [
        {
          "internalType": "address",
          "name": "",
          "type": "address"
        }
      ],
      "stateMutability": "view",
      "type": "function"
    },
    {
      "inputs": [],
      "name": "processPayment",
      "outputs": [
        {
          "internalType": "uint256",
          "name": "mechPayment",
          "type": "uint256"
        },
        {
          "internalType": "uint256",
          "name": "marketplaceFee",
          "type": "uint256"
        }
      ],
      "stateMutability": "nonpayable",
      "type": "function"
    },
    {
      "inputs": [
        {
          "internalType": "address",
          "name": "mech",
          "type": "address"
        }
      ],
      "name": "processPaymentByMultisig",
      "outputs": [
        {
          "internalType": "uint256",
          "name": "mechPayment",
          "type": "uint256"
        },
        {
          "internalType": "uint256",
          "name": "marketplaceFee",
          "type": "uint256"
        }
      ],
      "stateMutability": "nonpayable",
      "type": "function"
    },
    {
      "inputs": [
        {
          "internalType": "address",
          "name": "_subscriptionNFT",
          "type": "address"
        },
        {
          "internalType": "uint256",
          "name": "_subscriptionTokenId",
          "type": "uint256"
        }
      ],
      "name": "setSubscription",
      "outputs": [],
      "stateMutability": "nonpayable",
      "type": "function"
    },
    {
      "inputs": [],
      "name": "subscriptionNFT",
      "outputs": [
        {
          "internalType": "address",
          "name": "",
          "type": "address"
        }
      ],
      "stateMutability": "view",
      "type": "function"
    },
    {
      "inputs": [],
      "name": "subscriptionTokenId",
      "outputs": [
        {
          "internalType": "uint256",
          "name": "",
          "type": "uint256"
        }
      ],
      "stateMutability": "view",
      "type": "function"
    },
    {
      "inputs": [],
      "name": "tokenCreditRatio",
      "outputs": [
        {
          "internalType": "uint256",
          "name": "",
          "type": "uint256"
        }
      ],
      "stateMutability": "view",
      "type": "function"
    },
    {
      "inputs": [],
      "name": "trackerBalance",
      "outputs": [
        {
          "internalType": "uint256",
          "name": "",
          "type": "uint256"
        }
      ],
      "stateMutability": "view",
      "type": "function"
    },
    {
      "inputs": [],
      "name": "wrappedNativeToken",
      "outputs": [
        {
          "internalType": "address",
          "name": "",
          "type": "address"
        }
      ],
      "stateMutability": "view",
      "type": "function"
    },
    {
      "stateMutability": "payable",
      "type": "receive"
    }
  ],
  "bytecode": "0x61010060405260018055348015610014575f5ffd5b50604051611fb1380380611fb18339810160408190526100339161010c565b83838382826001600160a01b038216158061005557506001600160a01b038116155b156100735760405163d92e233d60e01b815260040160405180910390fd5b6001600160a01b03918216608052811660a05281166100a55760405163d92e233d60e01b815260040160405180910390fd5b6001600160a01b031660c05250505f8190036100d457604051637c946ed760e01b815260040160405180910390fd5b60e0525050600780546001600160a01b0319163317905550610154565b80516001600160a01b0381168114610107575f5ffd5b919050565b5f5f5f5f6080858703121561011f575f5ffd5b610128856100f1565b9350610136602086016100f1565b9250610144604086016100f1565b6060959095015193969295505050565b60805160a05160c05160e051611dd66101db5f395f818161043601526111c501525f81816101f501528181611568015281816115d5015261178701525f81816102aa015261153901525f81816103db015281816106e801528181610750015281816108d60152818161093e01528181610bcb01528181610c3301526118080152611dd65ff3fe608060405260043610610165575f3560e01c8063878b1132116100c6578063aa67c9191161007c578063dd90cf5111610057578063dd90cf5114610458578063e67980351461046d578063f965a87314610498575f5ffd5b8063aa67c919146103fd578063af4937fc14610410578063b901af8a14610425575f5ffd5b80639003adfe116100ac5780639003adfe146103a25780639890220b146103b65780639c5e9590146103ca575f5ffd5b8063878b1132146103615780638da5cb5b14610376575f5ffd5b806357838e851161011b5780636aeeffa8116101015780636aeeffa8146102eb57806379e4afe81461031657806385cf724414610335575f5ffd5b806357838e85146102995780636072dd2c146102cc575f5ffd5b806322081c121161014b57806322081c121461023c5780632ebfc9271461026557806338603a3914610286575f5ffd5b8063163ad715146101bd57806317fcb39b146101e4575f5ffd5b366101b9573460065f82825461017b91906119d8565b90915550506040513481525f9033907f5548c837ab068cf56a2c2479df0882a4922fd203edb7517321831d95078c5f629060200160405180910390a3005b5f5ffd5b3480156101c8575f5ffd5b506101d1600281565b6040519081526020015b60405180910390f35b3480156101ef575f5ffd5b506102177f000000000000000000000000000000000000000000000000000000000000000081565b60405173ffffffffffffffffffffffffffffffffffffffff90911681526020016101db565b348015610247575f5ffd5b506102506104b7565b604080519283526020830191909152016101db565b348015610270575f5ffd5b5061028461027f366004611a13565b610510565b005b610284610294366004611a80565b61068f565b3480156102a4575f5ffd5b506102177f000000000000000000000000000000000000000000000000000000000000000081565b3480156102d7575f5ffd5b506102846102e6366004611b24565b61087d565b3480156102f6575f5ffd5b506101d1610305366004611bb4565b60026020525f908152604090205481565b348015610321575f5ffd5b50610284610330366004611bcd565b610b72565b348015610340575f5ffd5b506004546102179073ffffffffffffffffffffffffffffffffffffffff1681565b34801561036c575f5ffd5b506101d160055481565b348015610381575f5ffd5b506007546102179073ffffffffffffffffffffffffffffffffffffffff1681565b3480156103ad575f5ffd5b506101d15f5481565b3480156103c1575f5ffd5b50610284610f1f565b3480156103d5575f5ffd5b506102177f000000000000000000000000000000000000000000000000000000000000000081565b61028461040b366004611bb4565b610fb0565b34801561041b575f5ffd5b506101d161271081565b348015610430575f5ffd5b506101d17f000000000000000000000000000000000000000000000000000000000000000081565b348015610463575f5ffd5b506101d160065481565b348015610478575f5ffd5b506101d1610487366004611bb4565b60036020525f908152604090205481565b3480156104a3575f5ffd5b506102506104b2366004611bb4565b611039565b5f5f6001546002036104f5576040517f8beb9d1600000000000000000000000000000000000000000000000000000000815260040160405180910390fd5b600260015561050333611157565b6001805590939092509050565b60075473ffffffffffffffffffffffffffffffffffffffff163314610588576007546040517fa43d6ada00000000000000000000000000000000000000000000000000000000815233600482015273ffffffffffffffffffffffffffffffffffffffff90911660248201526044015b60405180910390fd5b73ffffffffffffffffffffffffffffffffffffffff82166105d5576040517fd92e233d00000000000000000000000000000000000000000000000000000000815260040160405180910390fd5b805f0361060e576040517f7c946ed700000000000000000000000000000000000000000000000000000000815260040160405180910390fd5b6004805473ffffffffffffffffffffffffffffffffffffffff84167fffffffffffffffffffffffff0000000000000000000000000000000000000000918216811790925560058390556007805490911690556040518291907fb114dce0ae3b403c43fc24c911fcee78f120917c510db18042396f72cf6e7c82905f90a35050565b6001546002036106cb576040517f8beb9d1600000000000000000000000000000000000000000000000000000000815260040160405180910390fd5b60026001553373ffffffffffffffffffffffffffffffffffffffff7f0000000000000000000000000000000000000000000000000000000000000000161461077d576040517fe56895c000000000000000000000000000000000000000000000000000000000815233600482015273ffffffffffffffffffffffffffffffffffffffff7f000000000000000000000000000000000000000000000000000000000000000016602482015260440161057f565b5f61078661127b565b73ffffffffffffffffffffffffffffffffffffffff87165f90815260026020526040812054919250906107ba9083906119d8565b90505f6107c78787611cad565b905061080a88838388888080601f0160208091040260200160405190810160405280939291908181526020018383808284375f920191909152506112bb92505050565b73ffffffffffffffffffffffffffffffffffffffff89165f81815260026020908152604091829020849055815185815290810184905292945090917e572a5ba2b0e6be13dc09fac07a0c06782c5defdef8694b0085972ebdb12012910160405180910390a2505060018055505050505050565b6001546002036108b9576040517f8beb9d1600000000000000000000000000000000000000000000000000000000815260040160405180910390fd5b60026001553373ffffffffffffffffffffffffffffffffffffffff7f0000000000000000000000000000000000000000000000000000000000000000161461096b576040517fe56895c000000000000000000000000000000000000000000000000000000000815233600482015273ffffffffffffffffffffffffffffffffffffffff7f000000000000000000000000000000000000000000000000000000000000000016602482015260440161057f565b5f805b848110156109a45785858281811061098857610988611cc4565b905060200201358261099a91906119d8565b915060010161096e565b50805f036109de576040517f7c946ed700000000000000000000000000000000000000000000000000000000815260040160405180910390fd5b5f60025f8873ffffffffffffffffffffffffffffffffffffffff1673ffffffffffffffffffffffffffffffffffffffff1681526020019081526020015f20549050610a6087828487878080601f0160208091040260200160405190810160405280939291908181526020018383808284375f920191909152506112bb92505050565b73ffffffffffffffffffffffffffffffffffffffff8089165f908152600260209081526040808320859055928c168252600390522054909150610aa383826119d8565b73ffffffffffffffffffffffffffffffffffffffff8a81165f908152600360209081526040918290208490558151878152908101869052929350908a16917e572a5ba2b0e6be13dc09fac07a0c06782c5defdef8694b0085972ebdb12012910160405180910390a260408051848152602081018390525f81830152905173ffffffffffffffffffffffffffffffffffffffff8b16917fd11af879a940c7604caa3933cb8a021f09a06692f4d05a5843fe06a003abed68919081900360600190a250506001805550505050505050565b600154600203610bae576040517f8beb9d1600000000000000000000000000000000000000000000000000000000815260040160405180910390fd5b60026001553373ffffffffffffffffffffffffffffffffffffffff7f00000000000000000000000000000000000000000000000000000000000000001614610c60576040517fe56895c000000000000000000000000000000000000000000000000000000000815233600482015273ffffffffffffffffffffffffffffffffffffffff7f000000000000000000000000000000000000000000000000000000000000000016602482015260440161057f565b5f80805b87811015610e0d57888882818110610c7e57610c7e611cc4565b9050602002016020810190610c939190611d01565b15610e0557868682818110610caa57610caa611cc4565b9050602002013583610cbc91906119d8565b9250868682818110610cd057610cd0611cc4565b90506020020135858583818110610ce957610ce9611cc4565b905060200201351115610e05575f878783818110610d0957610d09611cc4565b90506020020135868684818110610d2257610d22611cc4565b90506020020135610d339190611d23565b9050610d3f81846119d8565b92505f60025f8e8e86818110610d5757610d57611cc4565b9050602002016020810190610d6c9190611bb4565b73ffffffffffffffffffffffffffffffffffffffff1673ffffffffffffffffffffffffffffffffffffffff1681526020019081526020015f20549050610db281836114df565b60025f8f8f87818110610dc757610dc7611cc4565b9050602002016020810190610ddc9190611bb4565b73ffffffffffffffffffffffffffffffffffffffff16815260208101919091526040015f205550505b600101610c64565b50815f03610e47576040517f7c946ed700000000000000000000000000000000000000000000000000000000815260040160405180910390fd5b73ffffffffffffffffffffffffffffffffffffffff8b165f90815260036020526040902054610e7683826119d8565b73ffffffffffffffffffffffffffffffffffffffff8d165f90815260036020526040812080549293508592909190610eaf9084906119d8565b9091555050604080518481526020810183905290810183905273ffffffffffffffffffffffffffffffffffffffff8d16907fd11af879a940c7604caa3933cb8a021f09a06692f4d05a5843fe06a003abed689060600160405180910390a250506001805550505050505050505050565b600154600203610f5b576040517f8beb9d1600000000000000000000000000000000000000000000000000000000815260040160405180910390fd5b60026001555f805490819003610f9d576040517f7c946ed700000000000000000000000000000000000000000000000000000000815260040160405180910390fd5b5f8055610fa9816114f3565b5060018055565b73ffffffffffffffffffffffffffffffffffffffff81165f9081526002602052604081208054349290610fe49084906119d8565b90915550506040513481525f9073ffffffffffffffffffffffffffffffffffffffff8316907f5548c837ab068cf56a2c2479df0882a4922fd203edb7517321831d95078c5f629060200160405180910390a350565b5f5f600154600203611077576040517f8beb9d1600000000000000000000000000000000000000000000000000000000815260040160405180910390fd5b60026001556040517f6d70f7ae00000000000000000000000000000000000000000000000000000000815233600482015273ffffffffffffffffffffffffffffffffffffffff841690636d70f7ae90602401602060405180830381865afa1580156110e4573d5f5f3e3d5ffd5b505050506040513d601f19601f820116820180604052508101906111089190611d36565b611140576040517f32b2baa300000000000000000000000000000000000000000000000000000000815233600482015260240161057f565b61114983611157565b600180559094909350915050565b73ffffffffffffffffffffffffffffffffffffffff81165f9081526003602052604081205481908082036111b7576040517f7c946ed700000000000000000000000000000000000000000000000000000000815260040160405180910390fd5b670de0b6b3a76400006111ea7f000000000000000000000000000000000000000000000000000000000000000083611cad565b6111f49190611d51565b73ffffffffffffffffffffffffffffffffffffffff85165f908152600360205260409020819055600654909150811115611268576006546040517f7ae5968500000000000000000000000000000000000000000000000000000000815261057f918391600401918252602082015260400190565b61127184611646565b9250925050915091565b5f34156112b6576040517f0f0fe74c00000000000000000000000000000000000000000000000000000000815234600482015260240161057f565b505f90565b600480546005546040517efdd58e0000000000000000000000000000000000000000000000000000000081525f93849373ffffffffffffffffffffffffffffffffffffffff169262fdd58e92611335928b92910173ffffffffffffffffffffffffffffffffffffffff929092168252602082015260400190565b602060405180830381865afa158015611350573d5f5f3e3d5ffd5b505050506040513d601f19601f820116820180604052508101906113749190611d89565b90505f61138182876119d8565b9050848110156113c7576040517fcf479181000000000000000000000000000000000000000000000000000000008152600481018290526024810186905260440161057f565b848611156113e0576113d98587611d23565b9550611484565b6113ea8686611d23565b600480546005546040517ff5298aca00000000000000000000000000000000000000000000000000000000815273ffffffffffffffffffffffffffffffffffffffff8c8116948201949094526024810191909152604481018490525f9950929750169063f5298aca906064015f604051808303815f87803b15801561146d575f5ffd5b505af115801561147f573d5f5f3e3d5ffd5b505050505b8673ffffffffffffffffffffffffffffffffffffffff167f233634049b8efac027b540e625ee928314223b888a6c592965257899c7a0ee92866040516114cc91815260200190565b60405180910390a2509395945050505050565b5f6114ea82846119d8565b90505b92915050565b6114fc81611785565b6040517fa9059cbb00000000000000000000000000000000000000000000000000000000815273ffffffffffffffffffffffffffffffffffffffff7f000000000000000000000000000000000000000000000000000000000000000081166004830152602482018390527f0000000000000000000000000000000000000000000000000000000000000000169063a9059cbb906044016020604051808303815f875af11580156115ae573d5f5f3e3d5ffd5b505050506040513d601f19601f820116820180604052508101906115d29190611d36565b507f000000000000000000000000000000000000000000000000000000000000000073ffffffffffffffffffffffffffffffffffffffff167fb2559daa129ad136aac2133ac6a0c75920abbef7d6663a017a94e181b13786c38260405161163b91815260200190565b60405180910390a250565b73ffffffffffffffffffffffffffffffffffffffff81165f90815260036020526040812054819060028110156116a8576040517f7c946ed700000000000000000000000000000000000000000000000000000000815260040160405180910390fd5b5f6116b1611805565b90506127106116c1600182611d23565b6116cb8385611cad565b6116d591906119d8565b6116df9190611d51565b92506116eb8383611d23565b93505f811180156116fa575082155b80611703575083155b1561173a576040517f7c946ed700000000000000000000000000000000000000000000000000000000815260040160405180910390fd5b825f5f82825461174a91906119d8565b909155505073ffffffffffffffffffffffffffffffffffffffff85165f9081526003602052604081205561177e8585611898565b5050915091565b7f000000000000000000000000000000000000000000000000000000000000000073ffffffffffffffffffffffffffffffffffffffff1663d0e30db0826040518263ffffffff1660e01b81526004015f604051808303818588803b1580156117eb575f5ffd5b505af11580156117fd573d5f5f3e3d5ffd5b505050505050565b5f7f000000000000000000000000000000000000000000000000000000000000000073ffffffffffffffffffffffffffffffffffffffff1663ddca3f436040518163ffffffff1660e01b8152600401602060405180830381865afa15801561186f573d5f5f3e3d5ffd5b505050506040513d601f19601f820116820180604052508101906118939190611d89565b905090565b5f8273ffffffffffffffffffffffffffffffffffffffff16826040515f6040518083038185875af1925050503d805f81146118ee576040519150601f19603f3d011682016040523d82523d5f602084013e6118f3565b606091505b5050905080611959576040517fcd3f16590000000000000000000000000000000000000000000000000000000081525f600482015230602482015273ffffffffffffffffffffffffffffffffffffffff841660448201526064810183905260840161057f565b6040518281525f9073ffffffffffffffffffffffffffffffffffffffff8516907f9b1bfa7fa9ee420a16e124f794c35ac9f90472acc99140eb2f6447c714cad8eb9060200160405180910390a3505050565b7f4e487b71000000000000000000000000000000000000000000000000000000005f52601160045260245ffd5b808201808211156114ed576114ed6119ab565b803573ffffffffffffffffffffffffffffffffffffffff81168114611a0e575f5ffd5b919050565b5f5f60408385031215611a24575f5ffd5b611a2d836119eb565b946020939093013593505050565b5f5f83601f840112611a4b575f5ffd5b50813567ffffffffffffffff811115611a62575f5ffd5b602083019150836020828501011115611a79575f5ffd5b9250929050565b5f5f5f5f5f60808688031215611a94575f5ffd5b611a9d866119eb565b94506020860135935060408601359250606086013567ffffffffffffffff811115611ac6575f5ffd5b611ad288828901611a3b565b969995985093965092949392505050565b5f5f83601f840112611af3575f5ffd5b50813567ffffffffffffffff811115611b0a575f5ffd5b6020830191508360208260051b8501011115611a79575f5ffd5b5f5f5f5f5f5f60808789031215611b39575f5ffd5b611b42876119eb565b9550611b50602088016119eb565b9450604087013567ffffffffffffffff811115611b6b575f5ffd5b611b7789828a01611ae3565b909550935050606087013567ffffffffffffffff811115611b96575f5ffd5b611ba289828a01611a3b565b979a9699509497509295939492505050565b5f60208284031215611bc4575f5ffd5b6114ea826119eb565b5f5f5f5f5f5f5f5f5f60a08a8c031215611be5575f5ffd5b611bee8a6119eb565b985060208a013567ffffffffffffffff811115611c09575f5ffd5b611c158c828d01611ae3565b90995097505060408a013567ffffffffffffffff811115611c34575f5ffd5b611c408c828d01611ae3565b90975095505060608a013567ffffffffffffffff811115611c5f575f5ffd5b611c6b8c828d01611ae3565b90955093505060808a013567ffffffffffffffff811115611c8a575f5ffd5b611c968c828d01611ae3565b915080935050809150509295985092959850929598565b80820281158282048414176114ed576114ed6119ab565b7f4e487b71000000000000000000000000000000000000000000000000000000005f52603260045260245ffd5b8015158114611cfe575f5ffd5b50565b5f60208284031215611d11575f5ffd5b8135611d1c81611cf1565b9392505050565b818103818111156114ed576114ed6119ab565b5f60208284031215611d46575f5ffd5b8151611d1c81611cf1565b5f82611d84577f4e487b71000000000000000000000000000000000000000000000000000000005f52601260045260245ffd5b500490565b5f60208284031215611d99575f5ffd5b505191905056fea2646970667358221220120bf121fff0064d4c51ee0209fc16f7b67a270471c3b2cfffed89e52350894864736f6c634300081c0033",
  "linkReferences": {},
  "deployedLinkReferences": {}
}