{
  "_format": "hh-sol-artifact-1",
  "contractName": "BalanceTrackerNvmSubscriptionToken",
  "sourceName": "contracts/mechs/nevermined_token/BalanceTrackerNvmSubscriptionToken.sol",
  "abi": [
    {
      "inputs": [
        {
          "internalType": "address",
          "name": "_mechMarketplace",
          "type": "address"
        },
        {
          "internalType": "address",
          "name": "_drainer",
          "type": "address"
        },
        {
          "internalType": "address",
          "name": "_token",
          "type": "address"
        }
      ],
      "stateMutability": "nonpayable",
      "type": "constructor"
    },
    {
      "inputs": [
        {
          "internalType": "uint256",
          "name": "current",
          "type": "uint256"
        },
        {
          "internalType": "uint256",
          "name": "required",
          "type": "uint256"
        }
      ],
      "name": "InsufficientBalance",
      "type": "error"
    },
    {
      "inputs": [
        {
          "internalType": "address",
          "name": "sender",
          "type": "address"
        },
        {
          "internalType": "address",
          "name": "marketplace",
          "type": "address"
        }
      ],
      "name": "MarketplaceOnly",
      "type": "error"
    },
    {
      "inputs": [
        {
          "internalType": "uint256",
          "name": "amount",
          "type": "uint256"
        }
      ],
      "name": "NoDepositAllowed",
      "type": "error"
    },
    {
      "inputs": [
        {
          "internalType": "uint256",
          "name": "provided",
          "type": "uint256"
        },
        {
          "internalType": "uint256",
          "name": "max",
          "type": "uint256"
        }
      ],
      "name": "Overflow",
      "type": "error"
    },
    {
      "inputs": [
        {
          "internalType": "address",
          "name": "sender",
          "type": "address"
        },
        {
          "internalType": "address",
          "name": "owner",
          "type": "address"
        }
      ],
      "name": "OwnerOnly",
      "type": "error"
    },
    {
      "inputs": [],
      "name": "ReentrancyGuard",
      "type": "error"
    },
    {
      "inputs": [
        {
          "internalType": "address",
          "name": "account",
          "type": "address"
        }
      ],
      "name": "UnauthorizedAccount",
      "type": "error"
    },
    {
      "inputs": [],
      "name": "ZeroAddress",
      "type": "error"
    },
    {
      "inputs": [],
      "name": "ZeroValue",
      "type": "error"
    },
    {
      "anonymous": false,
      "inputs": [
        {
          "indexed": true,
          "internalType": "address",
          "name": "account",
          "type": "address"
        },
        {
          "indexed": true,
          "internalType": "address",
          "name": "token",
          "type": "address"
        },
        {
          "indexed": false,
          "internalType": "uint256",
          "name": "amount",
          "type": "uint256"
        }
      ],
      "name": "Deposit",
      "type": "event"
    },
    {
      "anonymous": false,
      "inputs": [
        {
          "indexed": true,
          "internalType": "address",
          "name": "token",
          "type": "address"
        },
        {
          "indexed": false,
          "internalType": "uint256",
          "name": "collectedFees",
          "type": "uint256"
        }
      ],
      "name": "Drained",
      "type": "event"
    },
    {
      "anonymous": false,
      "inputs": [
        {
          "indexed": true,
          "internalType": "address",
          "name": "mech",
          "type": "address"
        },
        {
          "indexed": false,
          "internalType": "uint256",
          "name": "deliveryRate",
          "type": "uint256"
        },
        {
          "indexed": false,
          "internalType": "uint256",
          "name": "balance",
          "type": "uint256"
        },
        {
          "indexed": false,
          "internalType": "uint256",
          "name": "rateDiff",
          "type": "uint256"
        }
      ],
      "name": "MechBalanceAdjusted",
      "type": "event"
    },
    {
      "anonymous": false,
      "inputs": [
        {
          "indexed": true,
          "internalType": "address",
          "name": "requester",
          "type": "address"
        },
        {
          "indexed": false,
          "internalType": "uint256",
          "name": "deliveryRate",
          "type": "uint256"
        },
        {
          "indexed": false,
          "internalType": "uint256",
          "name": "balance",
          "type": "uint256"
        }
      ],
      "name": "RequesterBalanceAdjusted",
      "type": "event"
    },
    {
      "anonymous": false,
      "inputs": [
        {
          "indexed": true,
          "internalType": "address",
          "name": "account",
          "type": "address"
        },
        {
          "indexed": false,
          "internalType": "uint256",
          "name": "amount",
          "type": "uint256"
        }
      ],
      "name": "RequesterCreditsRedeemed",
      "type": "event"
    },
    {
      "anonymous": false,
      "inputs": [
        {
          "indexed": true,
          "internalType": "address",
          "name": "token",
          "type": "address"
        },
        {
          "indexed": true,
          "internalType": "uint256",
          "name": "tokenId",
          "type": "uint256"
        }
      ],
      "name": "SubscriptionSet",
      "type": "event"
    },
    {
      "anonymous": false,
      "inputs": [
        {
          "indexed": true,
          "internalType": "address",
          "name": "account",
          "type": "address"
        },
        {
          "indexed": true,
          "internalType": "address",
          "name": "token",
          "type": "address"
        },
        {
          "indexed": false,
          "internalType": "uint256",
          "name": "amount",
          "type": "uint256"
        }
      ],
      "name": "Withdraw",
      "type": "event"
    },
    {
      "inputs": [],
      "name": "MAX_FEE_FACTOR",
      "outputs": [
        {
          "internalType": "uint256",
          "name": "",
          "type": "uint256"
        }
      ],
      "stateMutability": "view",
      "type": "function"
    },
    {
      "inputs": [],
      "name": "MIN_MECH_BALANCE",
      "outputs": [
        {
          "internalType": "uint256",
          "name": "",
          "type": "uint256"
        }
      ],
      "stateMutability": "view",
      "type": "function"
    },
    {
      "inputs": [
        {
          "internalType": "address",
          "name": "mech",
          "type": "address"
        },
        {
          "internalType": "address",
          "name": "requester",
          "type": "address"
        },
        {
          "internalType": "uint256[]",
          "name": "mechDeliveryRates",
          "type": "uint256[]"
        },
        {
          "internalType": "bytes",
          "name": "paymentData",
          "type": "bytes"
        }
      ],
      "name": "adjustMechRequesterBalances",
      "outputs": [],
      "stateMutability": "nonpayable",
      "type": "function"
    },
    {
      "inputs": [
        {
          "internalType": "address",
          "name": "requester",
          "type": "address"
        },
        {
          "internalType": "uint256",
          "name": "numRequests",
          "type": "uint256"
        },
        {
          "internalType": "uint256",
          "name": "deliveryRate",
          "type": "uint256"
        },
        {
          "internalType": "bytes",
          "name": "paymentData",
          "type": "bytes"
        }
      ],
      "name": "checkAndRecordDeliveryRates",
      "outputs": [],
      "stateMutability": "payable",
      "type": "function"
    },
    {
      "inputs": [],
      "name": "collectedFees",
      "outputs": [
        {
          "internalType": "uint256",
          "name": "",
          "type": "uint256"
        }
      ],
      "stateMutability": "view",
      "type": "function"
    },
    {
      "inputs": [
        {
          "internalType": "uint256",
          "name": "amount",
          "type": "uint256"
        }
      ],
      "name": "deposit",
      "outputs": [],
      "stateMutability": "pure",
      "type": "function"
    },
    {
      "inputs": [
        {
          "internalType": "address",
          "name": "",
          "type": "address"
        },
        {
          "internalType": "uint256",
          "name": "amount",
          "type": "uint256"
        }
      ],
      "name": "depositFor",
      "outputs": [],
      "stateMutability": "pure",
      "type": "function"
    },
    {
      "inputs": [],
      "name": "drain",
      "outputs": [],
      "stateMutability": "nonpayable",
      "type": "function"
    },
    {
      "inputs": [],
      "name": "drainer",
      "outputs": [
        {
          "internalType": "address",
          "name": "",
          "type": "address"
        }
      ],
      "stateMutability": "view",
      "type": "function"
    },
    {
      "inputs": [
        {
          "internalType": "address",
          "name": "mech",
          "type": "address"
        },
        {
          "internalType": "address[]",
          "name": "requesters",
          "type": "address[]"
        },
        {
          "internalType": "bool[]",
          "name": "deliveredRequests",
          "type": "bool[]"
        },
        {
          "internalType": "uint256[]",
          "name": "mechDeliveryRates",
          "type": "uint256[]"
        },
        {
          "internalType": "uint256[]",
          "name": "requesterDeliveryRates",
          "type": "uint256[]"
        }
      ],
      "name": "finalizeDeliveryRates",
      "outputs": [],
      "stateMutability": "nonpayable",
      "type": "function"
    },
    {
      "inputs": [
        {
          "internalType": "address",
          "name": "",
          "type": "address"
        }
      ],
      "name": "mapMechBalances",
      "outputs": [
        {
          "internalType": "uint256",
          "name": "",
          "type": "uint256"
        }
      ],
      "stateMutability": "view",
      "type": "function"
    },
    {
      "inputs": [
        {
          "internalType": "address",
          "name": "",
          "type": "address"
        }
      ],
      "name": "mapRequesterBalances",
      "outputs": [
        {
          "internalType": "uint256",
          "name": "",
          "type": "uint256"
        }
      ],
      "stateMutability": "view",
      "type": "function"
    },
    {
      "inputs": [],
      "name": "mechMarketplace",
      "outputs": [
        {
          "internalType": "address",
          "name": "",
          "type": "address"
        }
      ],
      "stateMutability": "view",
      "type": "function"
    },
    {
      "inputs": [],
      "name": "owner",
      "outputs": [
        {
          "internalType": "address",
          "name": "",
          "type": "address"
        }
      ],
      "stateMutability": "view",
      "type": "function"
    },
    {
      "inputs": [],
      "name": "processPayment",
      "outputs": [
        {
          "internalType": "uint256",
          "name": "mechPayment",
          "type": "uint256"
        },
        {
          "internalType": "uint256",
          "name": "marketplaceFee",
          "type": "uint256"
        }
      ],
      "stateMutability": "nonpayable",
      "type": "function"
    },
    {
      "inputs": [
        {
          "internalType": "address",
          "name": "mech",
          "type": "address"
        }
      ],
      "name": "processPaymentByMultisig",
      "outputs": [
        {
          "internalType": "uint256",
          "name": "mechPayment",
          "type": "uint256"
        },
        {
          "internalType": "uint256",
          "name": "marketplaceFee",
          "type": "uint256"
        }
      ],
      "stateMutability": "nonpayable",
      "type": "function"
    },
    {
      "inputs": [
        {
          "internalType": "address",
          "name": "_subscriptionNFT",
          "type": "address"
        },
        {
          "internalType": "uint256",
          "name": "_subscriptionTokenId",
          "type": "uint256"
        },
        {
          "internalType": "uint256",
          "name": "_tokenCreditRatio",
          "type": "uint256"
        }
      ],
      "name": "setSubscription",
      "outputs": [],
      "stateMutability": "nonpayable",
      "type": "function"
    },
    {
      "inputs": [],
      "name": "subscriptionNFT",
      "outputs": [
        {
          "internalType": "address",
          "name": "",
          "type": "address"
        }
      ],
      "stateMutability": "view",
      "type": "function"
    },
    {
      "inputs": [],
      "name": "subscriptionTokenId",
      "outputs": [
        {
          "internalType": "uint256",
          "name": "",
          "type": "uint256"
        }
      ],
      "stateMutability": "view",
      "type": "function"
    },
    {
      "inputs": [],
      "name": "token",
      "outputs": [
        {
          "internalType": "address",
          "name": "",
          "type": "address"
        }
      ],
      "stateMutability": "view",
      "type": "function"
    },
    {
      "inputs": [],
      "name": "tokenCreditRatio",
      "outputs": [
        {
          "internalType": "uint256",
          "name": "",
          "type": "uint256"
        }
      ],
      "stateMutability": "view",
      "type": "function"
    },
    {
      "inputs": [],
      "name": "trackerBalance",
      "outputs": [
        {
          "internalType": "uint256",
          "name": "",
          "type": "uint256"
        }
      ],
      "stateMutability": "view",
      "type": "function"
    }
  ],
  "bytecode": "0x60e060405260018055348015610013575f5ffd5b50604051611e9a380380611e9a833981016040819052610032916100e8565b82828282826001600160a01b038216158061005457506001600160a01b038116155b156100725760405163d92e233d60e01b815260040160405180910390fd5b6001600160a01b03918216608052811660a05281166100a45760405163d92e233d60e01b815260040160405180910390fd5b6001600160a01b031660c0525050600880546001600160a01b0319163317905550610128915050565b80516001600160a01b03811681146100e3575f5ffd5b919050565b5f5f5f606084860312156100fa575f5ffd5b610103846100cd565b9250610111602085016100cd565b915061011f604085016100cd565b90509250925092565b60805160a05160c051611cf46101a65f395f818161045101528181611490015281816114fd0152818161178c01526117f901525f8181610225015261146101525f818161037b0152818161055f015281816105c7015281816108d60152818161093e01528181610bcb01528181610c3301526116b00152611cf45ff3fe60806040526004361061016d575f3560e01c80638da5cb5b116100c6578063b6b55f251161007c578063e679803511610057578063e6798035146103f6578063f965a87314610421578063fc0c546a14610440575f5ffd5b8063b6b55f25146103b2578063b901af8a146103cc578063dd90cf51146103e1575f5ffd5b80639890220b116100ac5780639890220b146103565780639c5e95901461036a578063af4937fc1461039d575f5ffd5b80638da5cb5b146103165780639003adfe14610342575f5ffd5b806357838e851161012657806379e4afe81161010157806379e4afe8146102b657806385cf7244146102d5578063878b113214610301575f5ffd5b806357838e85146102145780636072dd2c1461026c5780636aeeffa81461028b575f5ffd5b80632f4f21e2116101565780632f4f21e2146101c157806338603a39146101e25780633a1395de146101f5575f5ffd5b8063163ad7151461017157806322081c1214610198575b5f5ffd5b34801561017c575f5ffd5b50610185600281565b6040519081526020015b60405180910390f35b3480156101a3575f5ffd5b506101ac610473565b6040805192835260208301919091520161018f565b3480156101cc575f5ffd5b506101e06101db3660046118aa565b6104cc565b005b6101e06101f0366004611917565b610506565b348015610200575f5ffd5b506101e061020f36600461197a565b6106f4565b34801561021f575f5ffd5b506102477f000000000000000000000000000000000000000000000000000000000000000081565b60405173ffffffffffffffffffffffffffffffffffffffff909116815260200161018f565b348015610277575f5ffd5b506101e06102863660046119eb565b61087d565b348015610296575f5ffd5b506101856102a5366004611a7b565b60026020525f908152604090205481565b3480156102c1575f5ffd5b506101e06102d0366004611a94565b610b72565b3480156102e0575f5ffd5b506004546102479073ffffffffffffffffffffffffffffffffffffffff1681565b34801561030c575f5ffd5b5061018560055481565b348015610321575f5ffd5b506008546102479073ffffffffffffffffffffffffffffffffffffffff1681565b34801561034d575f5ffd5b506101855f5481565b348015610361575f5ffd5b506101e0610ef5565b348015610375575f5ffd5b506102477f000000000000000000000000000000000000000000000000000000000000000081565b3480156103a8575f5ffd5b5061018561271081565b3480156103bd575f5ffd5b506101e06101db366004611b74565b3480156103d7575f5ffd5b5061018560065481565b3480156103ec575f5ffd5b5061018560075481565b348015610401575f5ffd5b50610185610410366004611a7b565b60036020525f908152604090205481565b34801561042c575f5ffd5b506101ac61043b366004611a7b565b610f86565b34801561044b575f5ffd5b506102477f000000000000000000000000000000000000000000000000000000000000000081565b5f5f6001546002036104b1576040517f8beb9d1600000000000000000000000000000000000000000000000000000000815260040160405180910390fd5b60026001556104bf336110a4565b6001805590939092509050565b6040517f0f0fe74c000000000000000000000000000000000000000000000000000000008152600481018290526024015b60405180910390fd5b600154600203610542576040517f8beb9d1600000000000000000000000000000000000000000000000000000000815260040160405180910390fd5b60026001553373ffffffffffffffffffffffffffffffffffffffff7f000000000000000000000000000000000000000000000000000000000000000016146105f4576040517fe56895c000000000000000000000000000000000000000000000000000000000815233600482015273ffffffffffffffffffffffffffffffffffffffff7f00000000000000000000000000000000000000000000000000000000000000001660248201526044016104fd565b5f6105fd6111ac565b73ffffffffffffffffffffffffffffffffffffffff87165f9081526002602052604081205491925090610631908390611bb8565b90505f61063e8787611bcb565b905061068188838388888080601f0160208091040260200160405190810160405280939291908181526020018383808284375f920191909152506111ec92505050565b73ffffffffffffffffffffffffffffffffffffffff89165f81815260026020908152604091829020849055815185815290810184905292945090917e572a5ba2b0e6be13dc09fac07a0c06782c5defdef8694b0085972ebdb12012910160405180910390a2505060018055505050505050565b60085473ffffffffffffffffffffffffffffffffffffffff163314610767576008546040517fa43d6ada00000000000000000000000000000000000000000000000000000000815233600482015273ffffffffffffffffffffffffffffffffffffffff90911660248201526044016104fd565b73ffffffffffffffffffffffffffffffffffffffff83166107b4576040517fd92e233d00000000000000000000000000000000000000000000000000000000815260040160405180910390fd5b8115806107bf575080155b156107f6576040517f7c946ed700000000000000000000000000000000000000000000000000000000815260040160405180910390fd5b6004805473ffffffffffffffffffffffffffffffffffffffff85167fffffffffffffffffffffffff00000000000000000000000000000000000000009182168117909255600584905560068390556008805490911690556040518391907fb114dce0ae3b403c43fc24c911fcee78f120917c510db18042396f72cf6e7c82905f90a3505050565b6001546002036108b9576040517f8beb9d1600000000000000000000000000000000000000000000000000000000815260040160405180910390fd5b60026001553373ffffffffffffffffffffffffffffffffffffffff7f0000000000000000000000000000000000000000000000000000000000000000161461096b576040517fe56895c000000000000000000000000000000000000000000000000000000000815233600482015273ffffffffffffffffffffffffffffffffffffffff7f00000000000000000000000000000000000000000000000000000000000000001660248201526044016104fd565b5f805b848110156109a45785858281811061098857610988611be2565b905060200201358261099a9190611bb8565b915060010161096e565b50805f036109de576040517f7c946ed700000000000000000000000000000000000000000000000000000000815260040160405180910390fd5b5f60025f8873ffffffffffffffffffffffffffffffffffffffff1673ffffffffffffffffffffffffffffffffffffffff1681526020019081526020015f20549050610a6087828487878080601f0160208091040260200160405190810160405280939291908181526020018383808284375f920191909152506111ec92505050565b73ffffffffffffffffffffffffffffffffffffffff8089165f908152600260209081526040808320859055928c168252600390522054909150610aa38382611bb8565b73ffffffffffffffffffffffffffffffffffffffff8a81165f908152600360209081526040918290208490558151878152908101869052929350908a16917e572a5ba2b0e6be13dc09fac07a0c06782c5defdef8694b0085972ebdb12012910160405180910390a260408051848152602081018390525f81830152905173ffffffffffffffffffffffffffffffffffffffff8b16917fd11af879a940c7604caa3933cb8a021f09a06692f4d05a5843fe06a003abed68919081900360600190a250506001805550505050505050565b600154600203610bae576040517f8beb9d1600000000000000000000000000000000000000000000000000000000815260040160405180910390fd5b60026001553373ffffffffffffffffffffffffffffffffffffffff7f00000000000000000000000000000000000000000000000000000000000000001614610c60576040517fe56895c000000000000000000000000000000000000000000000000000000000815233600482015273ffffffffffffffffffffffffffffffffffffffff7f00000000000000000000000000000000000000000000000000000000000000001660248201526044016104fd565b5f80805b87811015610e0d57888882818110610c7e57610c7e611be2565b9050602002016020810190610c939190611c1f565b15610e0557868682818110610caa57610caa611be2565b9050602002013583610cbc9190611bb8565b9250868682818110610cd057610cd0611be2565b90506020020135858583818110610ce957610ce9611be2565b905060200201351115610e05575f878783818110610d0957610d09611be2565b90506020020135868684818110610d2257610d22611be2565b90506020020135610d339190611c41565b9050610d3f8184611bb8565b92505f60025f8e8e86818110610d5757610d57611be2565b9050602002016020810190610d6c9190611a7b565b73ffffffffffffffffffffffffffffffffffffffff1673ffffffffffffffffffffffffffffffffffffffff1681526020019081526020015f20549050610db28183611410565b60025f8f8f87818110610dc757610dc7611be2565b9050602002016020810190610ddc9190611a7b565b73ffffffffffffffffffffffffffffffffffffffff16815260208101919091526040015f205550505b600101610c64565b50815f03610e47576040517f7c946ed700000000000000000000000000000000000000000000000000000000815260040160405180910390fd5b73ffffffffffffffffffffffffffffffffffffffff8b165f90815260036020526040902054610e768382611bb8565b73ffffffffffffffffffffffffffffffffffffffff8d165f818152600360209081526040918290208490558151878152908101849052908101859052919250907fd11af879a940c7604caa3933cb8a021f09a06692f4d05a5843fe06a003abed689060600160405180910390a250506001805550505050505050505050565b600154600203610f31576040517f8beb9d1600000000000000000000000000000000000000000000000000000000815260040160405180910390fd5b60026001555f805490819003610f73576040517f7c946ed700000000000000000000000000000000000000000000000000000000815260040160405180910390fd5b5f8055610f7f81611424565b5060018055565b5f5f600154600203610fc4576040517f8beb9d1600000000000000000000000000000000000000000000000000000000815260040160405180910390fd5b60026001556040517f6d70f7ae00000000000000000000000000000000000000000000000000000000815233600482015273ffffffffffffffffffffffffffffffffffffffff841690636d70f7ae90602401602060405180830381865afa158015611031573d5f5f3e3d5ffd5b505050506040513d601f19601f820116820180604052508101906110559190611c54565b61108d576040517f32b2baa30000000000000000000000000000000000000000000000000000000081523360048201526024016104fd565b611096836110a4565b600180559094909350915050565b73ffffffffffffffffffffffffffffffffffffffff81165f908152600360205260408120548190808203611104576040517f7c946ed700000000000000000000000000000000000000000000000000000000815260040160405180910390fd5b670de0b6b3a76400006006548261111b9190611bcb565b6111259190611c6f565b73ffffffffffffffffffffffffffffffffffffffff85165f908152600360205260409020819055600754909150811115611199576007546040517f7ae596850000000000000000000000000000000000000000000000000000000081526104fd918391600401918252602082015260400190565b6111a28461156e565b9250925050915091565b5f34156111e7576040517f0f0fe74c0000000000000000000000000000000000000000000000000000000081523460048201526024016104fd565b505f90565b600480546005546040517efdd58e0000000000000000000000000000000000000000000000000000000081525f93849373ffffffffffffffffffffffffffffffffffffffff169262fdd58e92611266928b92910173ffffffffffffffffffffffffffffffffffffffff929092168252602082015260400190565b602060405180830381865afa158015611281573d5f5f3e3d5ffd5b505050506040513d601f19601f820116820180604052508101906112a59190611ca7565b90505f6112b28287611bb8565b9050848110156112f8576040517fcf47918100000000000000000000000000000000000000000000000000000000815260048101829052602481018690526044016104fd565b848611156113115761130a8587611c41565b9550611405565b61131b8686611c41565b600480546005546040517ff5298aca00000000000000000000000000000000000000000000000000000000815273ffffffffffffffffffffffffffffffffffffffff8c8116948201949094526024810191909152604481018490525f9950929750169063f5298aca906064015f604051808303815f87803b15801561139e575f5ffd5b505af11580156113b0573d5f5f3e3d5ffd5b505050508673ffffffffffffffffffffffffffffffffffffffff167f233634049b8efac027b540e625ee928314223b888a6c592965257899c7a0ee92866040516113fc91815260200190565b60405180910390a25b509395945050505050565b5f61141b8284611bb8565b90505b92915050565b6040517fa9059cbb00000000000000000000000000000000000000000000000000000000815273ffffffffffffffffffffffffffffffffffffffff7f000000000000000000000000000000000000000000000000000000000000000081166004830152602482018390527f0000000000000000000000000000000000000000000000000000000000000000169063a9059cbb906044016020604051808303815f875af11580156114d6573d5f5f3e3d5ffd5b505050506040513d601f19601f820116820180604052508101906114fa9190611c54565b507f000000000000000000000000000000000000000000000000000000000000000073ffffffffffffffffffffffffffffffffffffffff167fb2559daa129ad136aac2133ac6a0c75920abbef7d6663a017a94e181b13786c38260405161156391815260200190565b60405180910390a250565b73ffffffffffffffffffffffffffffffffffffffff81165f90815260036020526040812054819060028110156115d0576040517f7c946ed700000000000000000000000000000000000000000000000000000000815260040160405180910390fd5b5f6115d96116ad565b90506127106115e9600182611c41565b6115f38385611bcb565b6115fd9190611bb8565b6116079190611c6f565b92506116138383611c41565b93505f81118015611622575082155b8061162b575083155b15611662576040517f7c946ed700000000000000000000000000000000000000000000000000000000815260040160405180910390fd5b825f5f8282546116729190611bb8565b909155505073ffffffffffffffffffffffffffffffffffffffff85165f908152600360205260408120556116a68585611740565b5050915091565b5f7f000000000000000000000000000000000000000000000000000000000000000073ffffffffffffffffffffffffffffffffffffffff1663ddca3f436040518163ffffffff1660e01b8152600401602060405180830381865afa158015611717573d5f5f3e3d5ffd5b505050506040513d601f19601f8201168201806040525081019061173b9190611ca7565b905090565b6040517fa9059cbb00000000000000000000000000000000000000000000000000000000815273ffffffffffffffffffffffffffffffffffffffff8381166004830152602482018390527f0000000000000000000000000000000000000000000000000000000000000000169063a9059cbb906044016020604051808303815f875af11580156117d2573d5f5f3e3d5ffd5b505050506040513d601f19601f820116820180604052508101906117f69190611c54565b507f000000000000000000000000000000000000000000000000000000000000000073ffffffffffffffffffffffffffffffffffffffff168273ffffffffffffffffffffffffffffffffffffffff167f9b1bfa7fa9ee420a16e124f794c35ac9f90472acc99140eb2f6447c714cad8eb8360405161187691815260200190565b60405180910390a35050565b803573ffffffffffffffffffffffffffffffffffffffff811681146118a5575f5ffd5b919050565b5f5f604083850312156118bb575f5ffd5b6118c483611882565b946020939093013593505050565b5f5f83601f8401126118e2575f5ffd5b50813567ffffffffffffffff8111156118f9575f5ffd5b602083019150836020828501011115611910575f5ffd5b9250929050565b5f5f5f5f5f6080868803121561192b575f5ffd5b61193486611882565b94506020860135935060408601359250606086013567ffffffffffffffff81111561195d575f5ffd5b611969888289016118d2565b969995985093965092949392505050565b5f5f5f6060848603121561198c575f5ffd5b61199584611882565b95602085013595506040909401359392505050565b5f5f83601f8401126119ba575f5ffd5b50813567ffffffffffffffff8111156119d1575f5ffd5b6020830191508360208260051b8501011115611910575f5ffd5b5f5f5f5f5f5f60808789031215611a00575f5ffd5b611a0987611882565b9550611a1760208801611882565b9450604087013567ffffffffffffffff811115611a32575f5ffd5b611a3e89828a016119aa565b909550935050606087013567ffffffffffffffff811115611a5d575f5ffd5b611a6989828a016118d2565b979a9699509497509295939492505050565b5f60208284031215611a8b575f5ffd5b61141b82611882565b5f5f5f5f5f5f5f5f5f60a08a8c031215611aac575f5ffd5b611ab58a611882565b985060208a013567ffffffffffffffff811115611ad0575f5ffd5b611adc8c828d016119aa565b90995097505060408a013567ffffffffffffffff811115611afb575f5ffd5b611b078c828d016119aa565b90975095505060608a013567ffffffffffffffff811115611b26575f5ffd5b611b328c828d016119aa565b90955093505060808a013567ffffffffffffffff811115611b51575f5ffd5b611b5d8c828d016119aa565b915080935050809150509295985092959850929598565b5f60208284031215611b84575f5ffd5b5035919050565b7f4e487b71000000000000000000000000000000000000000000000000000000005f52601160045260245ffd5b8082018082111561141e5761141e611b8b565b808202811582820484141761141e5761141e611b8b565b7f4e487b71000000000000000000000000000000000000000000000000000000005f52603260045260245ffd5b8015158114611c1c575f5ffd5b50565b5f60208284031215611c2f575f5ffd5b8135611c3a81611c0f565b9392505050565b8181038181111561141e5761141e611b8b565b5f60208284031215611c64575f5ffd5b8151611c3a81611c0f565b5f82611ca2577f4e487b71000000000000000000000000000000000000000000000000000000005f52601260045260245ffd5b500490565b5f60208284031215611cb7575f5ffd5b505191905056fea2646970667358221220fb8655fb4e4bc06b5a122802b2d6d14a604167561949cb8ce796eb89dfe6117b64736f6c634300081c0033",
  "linkReferences": {},
  "deployedLinkReferences": {}
}