{
  "_format": "hh-sol-artifact-1",
  "contractName": "BalanceTrackerNvmSubscriptionNative",
  "sourceName": "contracts/mechs/nevermined/BalanceTrackerNvmSubscriptionNative.sol",
  "abi": [
    {
      "inputs": [
        {
          "internalType": "address",
          "name": "_mechMarketplace",
          "type": "address"
        },
        {
          "internalType": "address",
          "name": "_drainer",
          "type": "address"
        },
        {
          "internalType": "address",
          "name": "_wrappedNativeToken",
          "type": "address"
        }
      ],
      "stateMutability": "nonpayable",
      "type": "constructor"
    },
    {
      "inputs": [
        {
          "internalType": "uint256",
          "name": "current",
          "type": "uint256"
        },
        {
          "internalType": "uint256",
          "name": "required",
          "type": "uint256"
        }
      ],
      "name": "InsufficientBalance",
      "type": "error"
    },
    {
      "inputs": [
        {
          "internalType": "address",
          "name": "sender",
          "type": "address"
        },
        {
          "internalType": "address",
          "name": "marketplace",
          "type": "address"
        }
      ],
      "name": "MarketplaceOnly",
      "type": "error"
    },
    {
      "inputs": [
        {
          "internalType": "uint256",
          "name": "amount",
          "type": "uint256"
        }
      ],
      "name": "NoDepositAllowed",
      "type": "error"
    },
    {
      "inputs": [
        {
          "internalType": "uint256",
          "name": "provided",
          "type": "uint256"
        },
        {
          "internalType": "uint256",
          "name": "max",
          "type": "uint256"
        }
      ],
      "name": "Overflow",
      "type": "error"
    },
    {
      "inputs": [
        {
          "internalType": "address",
          "name": "sender",
          "type": "address"
        },
        {
          "internalType": "address",
          "name": "owner",
          "type": "address"
        }
      ],
      "name": "OwnerOnly",
      "type": "error"
    },
    {
      "inputs": [],
      "name": "ReentrancyGuard",
      "type": "error"
    },
    {
      "inputs": [
        {
          "internalType": "address",
          "name": "token",
          "type": "address"
        },
        {
          "internalType": "address",
          "name": "from",
          "type": "address"
        },
        {
          "internalType": "address",
          "name": "to",
          "type": "address"
        },
        {
          "internalType": "uint256",
          "name": "amount",
          "type": "uint256"
        }
      ],
      "name": "TransferFailed",
      "type": "error"
    },
    {
      "inputs": [
        {
          "internalType": "address",
          "name": "account",
          "type": "address"
        }
      ],
      "name": "UnauthorizedAccount",
      "type": "error"
    },
    {
      "inputs": [],
      "name": "ZeroAddress",
      "type": "error"
    },
    {
      "inputs": [],
      "name": "ZeroValue",
      "type": "error"
    },
    {
      "anonymous": false,
      "inputs": [
        {
          "indexed": true,
          "internalType": "address",
          "name": "account",
          "type": "address"
        },
        {
          "indexed": true,
          "internalType": "address",
          "name": "token",
          "type": "address"
        },
        {
          "indexed": false,
          "internalType": "uint256",
          "name": "amount",
          "type": "uint256"
        }
      ],
      "name": "Deposit",
      "type": "event"
    },
    {
      "anonymous": false,
      "inputs": [
        {
          "indexed": true,
          "internalType": "address",
          "name": "token",
          "type": "address"
        },
        {
          "indexed": false,
          "internalType": "uint256",
          "name": "collectedFees",
          "type": "uint256"
        }
      ],
      "name": "Drained",
      "type": "event"
    },
    {
      "anonymous": false,
      "inputs": [
        {
          "indexed": true,
          "internalType": "address",
          "name": "mech",
          "type": "address"
        },
        {
          "indexed": false,
          "internalType": "uint256",
          "name": "deliveryRate",
          "type": "uint256"
        },
        {
          "indexed": false,
          "internalType": "uint256",
          "name": "balance",
          "type": "uint256"
        },
        {
          "indexed": false,
          "internalType": "uint256",
          "name": "rateDiff",
          "type": "uint256"
        }
      ],
      "name": "MechBalanceAdjusted",
      "type": "event"
    },
    {
      "anonymous": false,
      "inputs": [
        {
          "indexed": true,
          "internalType": "address",
          "name": "requester",
          "type": "address"
        },
        {
          "indexed": false,
          "internalType": "uint256",
          "name": "deliveryRate",
          "type": "uint256"
        },
        {
          "indexed": false,
          "internalType": "uint256",
          "name": "balance",
          "type": "uint256"
        }
      ],
      "name": "RequesterBalanceAdjusted",
      "type": "event"
    },
    {
      "anonymous": false,
      "inputs": [
        {
          "indexed": true,
          "internalType": "address",
          "name": "account",
          "type": "address"
        },
        {
          "indexed": false,
          "internalType": "uint256",
          "name": "amount",
          "type": "uint256"
        }
      ],
      "name": "RequesterCreditsRedeemed",
      "type": "event"
    },
    {
      "anonymous": false,
      "inputs": [
        {
          "indexed": true,
          "internalType": "address",
          "name": "token",
          "type": "address"
        },
        {
          "indexed": true,
          "internalType": "uint256",
          "name": "tokenId",
          "type": "uint256"
        }
      ],
      "name": "SubscriptionSet",
      "type": "event"
    },
    {
      "anonymous": false,
      "inputs": [
        {
          "indexed": true,
          "internalType": "address",
          "name": "account",
          "type": "address"
        },
        {
          "indexed": true,
          "internalType": "address",
          "name": "token",
          "type": "address"
        },
        {
          "indexed": false,
          "internalType": "uint256",
          "name": "amount",
          "type": "uint256"
        }
      ],
      "name": "Withdraw",
      "type": "event"
    },
    {
      "inputs": [],
      "name": "MAX_FEE_FACTOR",
      "outputs": [
        {
          "internalType": "uint256",
          "name": "",
          "type": "uint256"
        }
      ],
      "stateMutability": "view",
      "type": "function"
    },
    {
      "inputs": [],
      "name": "MIN_MECH_BALANCE",
      "outputs": [
        {
          "internalType": "uint256",
          "name": "",
          "type": "uint256"
        }
      ],
      "stateMutability": "view",
      "type": "function"
    },
    {
      "inputs": [
        {
          "internalType": "address",
          "name": "mech",
          "type": "address"
        },
        {
          "internalType": "address",
          "name": "requester",
          "type": "address"
        },
        {
          "internalType": "uint256[]",
          "name": "mechDeliveryRates",
          "type": "uint256[]"
        },
        {
          "internalType": "bytes",
          "name": "paymentData",
          "type": "bytes"
        }
      ],
      "name": "adjustMechRequesterBalances",
      "outputs": [],
      "stateMutability": "nonpayable",
      "type": "function"
    },
    {
      "inputs": [
        {
          "internalType": "address",
          "name": "requester",
          "type": "address"
        },
        {
          "internalType": "uint256",
          "name": "numRequests",
          "type": "uint256"
        },
        {
          "internalType": "uint256",
          "name": "deliveryRate",
          "type": "uint256"
        },
        {
          "internalType": "bytes",
          "name": "paymentData",
          "type": "bytes"
        }
      ],
      "name": "checkAndRecordDeliveryRates",
      "outputs": [],
      "stateMutability": "payable",
      "type": "function"
    },
    {
      "inputs": [],
      "name": "collectedFees",
      "outputs": [
        {
          "internalType": "uint256",
          "name": "",
          "type": "uint256"
        }
      ],
      "stateMutability": "view",
      "type": "function"
    },
    {
      "inputs": [
        {
          "internalType": "address",
          "name": "account",
          "type": "address"
        }
      ],
      "name": "depositFor",
      "outputs": [],
      "stateMutability": "payable",
      "type": "function"
    },
    {
      "inputs": [],
      "name": "drain",
      "outputs": [],
      "stateMutability": "nonpayable",
      "type": "function"
    },
    {
      "inputs": [],
      "name": "drainer",
      "outputs": [
        {
          "internalType": "address",
          "name": "",
          "type": "address"
        }
      ],
      "stateMutability": "view",
      "type": "function"
    },
    {
      "inputs": [
        {
          "internalType": "address",
          "name": "mech",
          "type": "address"
        },
        {
          "internalType": "address[]",
          "name": "requesters",
          "type": "address[]"
        },
        {
          "internalType": "bool[]",
          "name": "deliveredRequests",
          "type": "bool[]"
        },
        {
          "internalType": "uint256[]",
          "name": "mechDeliveryRates",
          "type": "uint256[]"
        },
        {
          "internalType": "uint256[]",
          "name": "requesterDeliveryRates",
          "type": "uint256[]"
        }
      ],
      "name": "finalizeDeliveryRates",
      "outputs": [],
      "stateMutability": "nonpayable",
      "type": "function"
    },
    {
      "inputs": [
        {
          "internalType": "address",
          "name": "",
          "type": "address"
        }
      ],
      "name": "mapMechBalances",
      "outputs": [
        {
          "internalType": "uint256",
          "name": "",
          "type": "uint256"
        }
      ],
      "stateMutability": "view",
      "type": "function"
    },
    {
      "inputs": [
        {
          "internalType": "address",
          "name": "",
          "type": "address"
        }
      ],
      "name": "mapRequesterBalances",
      "outputs": [
        {
          "internalType": "uint256",
          "name": "",
          "type": "uint256"
        }
      ],
      "stateMutability": "view",
      "type": "function"
    },
    {
      "inputs": [],
      "name": "mechMarketplace",
      "outputs": [
        {
          "internalType": "address",
          "name": "",
          "type": "address"
        }
      ],
      "stateMutability": "view",
      "type": "function"
    },
    {
      "inputs": [],
      "name": "owner",
      "outputs": [
        {
          "internalType": "address",
          "name": "",
          "type": "address"
        }
      ],
      "stateMutability": "view",
      "type": "function"
    },
    {
      "inputs": [],
      "name": "processPayment",
      "outputs": [
        {
          "internalType": "uint256",
          "name": "mechPayment",
          "type": "uint256"
        },
        {
          "internalType": "uint256",
          "name": "marketplaceFee",
          "type": "uint256"
        }
      ],
      "stateMutability": "nonpayable",
      "type": "function"
    },
    {
      "inputs": [
        {
          "internalType": "address",
          "name": "mech",
          "type": "address"
        }
      ],
      "name": "processPaymentByMultisig",
      "outputs": [
        {
          "internalType": "uint256",
          "name": "mechPayment",
          "type": "uint256"
        },
        {
          "internalType": "uint256",
          "name": "marketplaceFee",
          "type": "uint256"
        }
      ],
      "stateMutability": "nonpayable",
      "type": "function"
    },
    {
      "inputs": [
        {
          "internalType": "address",
          "name": "_subscriptionNFT",
          "type": "address"
        },
        {
          "internalType": "uint256",
          "name": "_subscriptionTokenId",
          "type": "uint256"
        },
        {
          "internalType": "uint256",
          "name": "_tokenCreditRatio",
          "type": "uint256"
        }
      ],
      "name": "setSubscription",
      "outputs": [],
      "stateMutability": "nonpayable",
      "type": "function"
    },
    {
      "inputs": [],
      "name": "subscriptionNFT",
      "outputs": [
        {
          "internalType": "address",
          "name": "",
          "type": "address"
        }
      ],
      "stateMutability": "view",
      "type": "function"
    },
    {
      "inputs": [],
      "name": "subscriptionTokenId",
      "outputs": [
        {
          "internalType": "uint256",
          "name": "",
          "type": "uint256"
        }
      ],
      "stateMutability": "view",
      "type": "function"
    },
    {
      "inputs": [],
      "name": "tokenCreditRatio",
      "outputs": [
        {
          "internalType": "uint256",
          "name": "",
          "type": "uint256"
        }
      ],
      "stateMutability": "view",
      "type": "function"
    },
    {
      "inputs": [],
      "name": "trackerBalance",
      "outputs": [
        {
          "internalType": "uint256",
          "name": "",
          "type": "uint256"
        }
      ],
      "stateMutability": "view",
      "type": "function"
    },
    {
      "inputs": [],
      "name": "wrappedNativeToken",
      "outputs": [
        {
          "internalType": "address",
          "name": "",
          "type": "address"
        }
      ],
      "stateMutability": "view",
      "type": "function"
    },
    {
      "stateMutability": "payable",
      "type": "receive"
    }
  ],
  "bytecode": "0x60e060405260018055348015610013575f5ffd5b50604051611f28380380611f28833981016040819052610032916100e8565b82828282826001600160a01b038216158061005457506001600160a01b038116155b156100725760405163d92e233d60e01b815260040160405180910390fd5b6001600160a01b03918216608052811660a05281166100a45760405163d92e233d60e01b815260040160405180910390fd5b6001600160a01b031660c0525050600880546001600160a01b0319163317905550610128915050565b80516001600160a01b03811681146100e3575f5ffd5b919050565b5f5f5f606084860312156100fa575f5ffd5b610103846100cd565b9250610111602085016100cd565b915061011f604085016100cd565b90509250925092565b60805160a05160c051611d8961019f5f395f81816101f50152818161151301528181611580015261173201525f81816102aa01526114e401525f81816103db0152818161054b015281816105b3015281816108c70152818161092f01528181610bbc01528181610c2401526117b30152611d895ff3fe608060405260043610610165575f3560e01c8063878b1132116100c6578063aa67c9191161007c578063dd90cf5111610057578063dd90cf511461043a578063e67980351461044f578063f965a8731461047a575f5ffd5b8063aa67c919146103fd578063af4937fc14610410578063b901af8a14610425575f5ffd5b80639003adfe116100ac5780639003adfe146103a25780639890220b146103b65780639c5e9590146103ca575f5ffd5b8063878b1132146103615780638da5cb5b14610376575f5ffd5b806357838e851161011b5780636aeeffa8116101015780636aeeffa8146102eb57806379e4afe81461031657806385cf724414610335575f5ffd5b806357838e85146102995780636072dd2c146102cc575f5ffd5b806322081c121161014b57806322081c121461023c57806338603a39146102655780633a1395de1461027a575f5ffd5b8063163ad715146101bd57806317fcb39b146101e4575f5ffd5b366101b9573460075f82825461017b9190611983565b90915550506040513481525f9033907f5548c837ab068cf56a2c2479df0882a4922fd203edb7517321831d95078c5f629060200160405180910390a3005b5f5ffd5b3480156101c8575f5ffd5b506101d1600281565b6040519081526020015b60405180910390f35b3480156101ef575f5ffd5b506102177f000000000000000000000000000000000000000000000000000000000000000081565b60405173ffffffffffffffffffffffffffffffffffffffff90911681526020016101db565b348015610247575f5ffd5b50610250610499565b604080519283526020830191909152016101db565b610278610273366004611a03565b6104f2565b005b348015610285575f5ffd5b50610278610294366004611a66565b6106e5565b3480156102a4575f5ffd5b506102177f000000000000000000000000000000000000000000000000000000000000000081565b3480156102d7575f5ffd5b506102786102e6366004611ad7565b61086e565b3480156102f6575f5ffd5b506101d1610305366004611b67565b60026020525f908152604090205481565b348015610321575f5ffd5b50610278610330366004611b80565b610b63565b348015610340575f5ffd5b506004546102179073ffffffffffffffffffffffffffffffffffffffff1681565b34801561036c575f5ffd5b506101d160055481565b348015610381575f5ffd5b506008546102179073ffffffffffffffffffffffffffffffffffffffff1681565b3480156103ad575f5ffd5b506101d15f5481565b3480156103c1575f5ffd5b50610278610ee6565b3480156103d5575f5ffd5b506102177f000000000000000000000000000000000000000000000000000000000000000081565b61027861040b366004611b67565b610f77565b34801561041b575f5ffd5b506101d161271081565b348015610430575f5ffd5b506101d160065481565b348015610445575f5ffd5b506101d160075481565b34801561045a575f5ffd5b506101d1610469366004611b67565b60036020525f908152604090205481565b348015610485575f5ffd5b50610250610494366004611b67565b611000565b5f5f6001546002036104d7576040517f8beb9d1600000000000000000000000000000000000000000000000000000000815260040160405180910390fd5b60026001556104e53361111e565b6001805590939092509050565b60015460020361052e576040517f8beb9d1600000000000000000000000000000000000000000000000000000000815260040160405180910390fd5b60026001553373ffffffffffffffffffffffffffffffffffffffff7f000000000000000000000000000000000000000000000000000000000000000016146105e5576040517fe56895c000000000000000000000000000000000000000000000000000000000815233600482015273ffffffffffffffffffffffffffffffffffffffff7f00000000000000000000000000000000000000000000000000000000000000001660248201526044015b60405180910390fd5b5f6105ee611226565b73ffffffffffffffffffffffffffffffffffffffff87165f9081526002602052604081205491925090610622908390611983565b90505f61062f8787611c60565b905061067288838388888080601f0160208091040260200160405190810160405280939291908181526020018383808284375f9201919091525061126692505050565b73ffffffffffffffffffffffffffffffffffffffff89165f81815260026020908152604091829020849055815185815290810184905292945090917e572a5ba2b0e6be13dc09fac07a0c06782c5defdef8694b0085972ebdb12012910160405180910390a2505060018055505050505050565b60085473ffffffffffffffffffffffffffffffffffffffff163314610758576008546040517fa43d6ada00000000000000000000000000000000000000000000000000000000815233600482015273ffffffffffffffffffffffffffffffffffffffff90911660248201526044016105dc565b73ffffffffffffffffffffffffffffffffffffffff83166107a5576040517fd92e233d00000000000000000000000000000000000000000000000000000000815260040160405180910390fd5b8115806107b0575080155b156107e7576040517f7c946ed700000000000000000000000000000000000000000000000000000000815260040160405180910390fd5b6004805473ffffffffffffffffffffffffffffffffffffffff85167fffffffffffffffffffffffff00000000000000000000000000000000000000009182168117909255600584905560068390556008805490911690556040518391907fb114dce0ae3b403c43fc24c911fcee78f120917c510db18042396f72cf6e7c82905f90a3505050565b6001546002036108aa576040517f8beb9d1600000000000000000000000000000000000000000000000000000000815260040160405180910390fd5b60026001553373ffffffffffffffffffffffffffffffffffffffff7f0000000000000000000000000000000000000000000000000000000000000000161461095c576040517fe56895c000000000000000000000000000000000000000000000000000000000815233600482015273ffffffffffffffffffffffffffffffffffffffff7f00000000000000000000000000000000000000000000000000000000000000001660248201526044016105dc565b5f805b848110156109955785858281811061097957610979611c77565b905060200201358261098b9190611983565b915060010161095f565b50805f036109cf576040517f7c946ed700000000000000000000000000000000000000000000000000000000815260040160405180910390fd5b5f60025f8873ffffffffffffffffffffffffffffffffffffffff1673ffffffffffffffffffffffffffffffffffffffff1681526020019081526020015f20549050610a5187828487878080601f0160208091040260200160405190810160405280939291908181526020018383808284375f9201919091525061126692505050565b73ffffffffffffffffffffffffffffffffffffffff8089165f908152600260209081526040808320859055928c168252600390522054909150610a948382611983565b73ffffffffffffffffffffffffffffffffffffffff8a81165f908152600360209081526040918290208490558151878152908101869052929350908a16917e572a5ba2b0e6be13dc09fac07a0c06782c5defdef8694b0085972ebdb12012910160405180910390a260408051848152602081018390525f81830152905173ffffffffffffffffffffffffffffffffffffffff8b16917fd11af879a940c7604caa3933cb8a021f09a06692f4d05a5843fe06a003abed68919081900360600190a250506001805550505050505050565b600154600203610b9f576040517f8beb9d1600000000000000000000000000000000000000000000000000000000815260040160405180910390fd5b60026001553373ffffffffffffffffffffffffffffffffffffffff7f00000000000000000000000000000000000000000000000000000000000000001614610c51576040517fe56895c000000000000000000000000000000000000000000000000000000000815233600482015273ffffffffffffffffffffffffffffffffffffffff7f00000000000000000000000000000000000000000000000000000000000000001660248201526044016105dc565b5f80805b87811015610dfe57888882818110610c6f57610c6f611c77565b9050602002016020810190610c849190611cb4565b15610df657868682818110610c9b57610c9b611c77565b9050602002013583610cad9190611983565b9250868682818110610cc157610cc1611c77565b90506020020135858583818110610cda57610cda611c77565b905060200201351115610df6575f878783818110610cfa57610cfa611c77565b90506020020135868684818110610d1357610d13611c77565b90506020020135610d249190611cd6565b9050610d308184611983565b92505f60025f8e8e86818110610d4857610d48611c77565b9050602002016020810190610d5d9190611b67565b73ffffffffffffffffffffffffffffffffffffffff1673ffffffffffffffffffffffffffffffffffffffff1681526020019081526020015f20549050610da3818361148a565b60025f8f8f87818110610db857610db8611c77565b9050602002016020810190610dcd9190611b67565b73ffffffffffffffffffffffffffffffffffffffff16815260208101919091526040015f205550505b600101610c55565b50815f03610e38576040517f7c946ed700000000000000000000000000000000000000000000000000000000815260040160405180910390fd5b73ffffffffffffffffffffffffffffffffffffffff8b165f90815260036020526040902054610e678382611983565b73ffffffffffffffffffffffffffffffffffffffff8d165f818152600360209081526040918290208490558151878152908101849052908101859052919250907fd11af879a940c7604caa3933cb8a021f09a06692f4d05a5843fe06a003abed689060600160405180910390a250506001805550505050505050505050565b600154600203610f22576040517f8beb9d1600000000000000000000000000000000000000000000000000000000815260040160405180910390fd5b60026001555f805490819003610f64576040517f7c946ed700000000000000000000000000000000000000000000000000000000815260040160405180910390fd5b5f8055610f708161149e565b5060018055565b73ffffffffffffffffffffffffffffffffffffffff81165f9081526002602052604081208054349290610fab908490611983565b90915550506040513481525f9073ffffffffffffffffffffffffffffffffffffffff8316907f5548c837ab068cf56a2c2479df0882a4922fd203edb7517321831d95078c5f629060200160405180910390a350565b5f5f60015460020361103e576040517f8beb9d1600000000000000000000000000000000000000000000000000000000815260040160405180910390fd5b60026001556040517f6d70f7ae00000000000000000000000000000000000000000000000000000000815233600482015273ffffffffffffffffffffffffffffffffffffffff841690636d70f7ae90602401602060405180830381865afa1580156110ab573d5f5f3e3d5ffd5b505050506040513d601f19601f820116820180604052508101906110cf9190611ce9565b611107576040517f32b2baa30000000000000000000000000000000000000000000000000000000081523360048201526024016105dc565b6111108361111e565b600180559094909350915050565b73ffffffffffffffffffffffffffffffffffffffff81165f90815260036020526040812054819080820361117e576040517f7c946ed700000000000000000000000000000000000000000000000000000000815260040160405180910390fd5b670de0b6b3a7640000600654826111959190611c60565b61119f9190611d04565b73ffffffffffffffffffffffffffffffffffffffff85165f908152600360205260409020819055600754909150811115611213576007546040517f7ae596850000000000000000000000000000000000000000000000000000000081526105dc918391600401918252602082015260400190565b61121c846115f1565b9250925050915091565b5f3415611261576040517f0f0fe74c0000000000000000000000000000000000000000000000000000000081523460048201526024016105dc565b505f90565b600480546005546040517efdd58e0000000000000000000000000000000000000000000000000000000081525f93849373ffffffffffffffffffffffffffffffffffffffff169262fdd58e926112e0928b92910173ffffffffffffffffffffffffffffffffffffffff929092168252602082015260400190565b602060405180830381865afa1580156112fb573d5f5f3e3d5ffd5b505050506040513d601f19601f8201168201806040525081019061131f9190611d3c565b90505f61132c8287611983565b905084811015611372576040517fcf47918100000000000000000000000000000000000000000000000000000000815260048101829052602481018690526044016105dc565b8486111561138b576113848587611cd6565b955061147f565b6113958686611cd6565b600480546005546040517ff5298aca00000000000000000000000000000000000000000000000000000000815273ffffffffffffffffffffffffffffffffffffffff8c8116948201949094526024810191909152604481018490525f9950929750169063f5298aca906064015f604051808303815f87803b158015611418575f5ffd5b505af115801561142a573d5f5f3e3d5ffd5b505050508673ffffffffffffffffffffffffffffffffffffffff167f233634049b8efac027b540e625ee928314223b888a6c592965257899c7a0ee928660405161147691815260200190565b60405180910390a25b509395945050505050565b5f6114958284611983565b90505b92915050565b6114a781611730565b6040517fa9059cbb00000000000000000000000000000000000000000000000000000000815273ffffffffffffffffffffffffffffffffffffffff7f000000000000000000000000000000000000000000000000000000000000000081166004830152602482018390527f0000000000000000000000000000000000000000000000000000000000000000169063a9059cbb906044016020604051808303815f875af1158015611559573d5f5f3e3d5ffd5b505050506040513d601f19601f8201168201806040525081019061157d9190611ce9565b507f000000000000000000000000000000000000000000000000000000000000000073ffffffffffffffffffffffffffffffffffffffff167fb2559daa129ad136aac2133ac6a0c75920abbef7d6663a017a94e181b13786c3826040516115e691815260200190565b60405180910390a250565b73ffffffffffffffffffffffffffffffffffffffff81165f9081526003602052604081205481906002811015611653576040517f7c946ed700000000000000000000000000000000000000000000000000000000815260040160405180910390fd5b5f61165c6117b0565b905061271061166c600182611cd6565b6116768385611c60565b6116809190611983565b61168a9190611d04565b92506116968383611cd6565b93505f811180156116a5575082155b806116ae575083155b156116e5576040517f7c946ed700000000000000000000000000000000000000000000000000000000815260040160405180910390fd5b825f5f8282546116f59190611983565b909155505073ffffffffffffffffffffffffffffffffffffffff85165f908152600360205260408120556117298585611843565b5050915091565b7f000000000000000000000000000000000000000000000000000000000000000073ffffffffffffffffffffffffffffffffffffffff1663d0e30db0826040518263ffffffff1660e01b81526004015f604051808303818588803b158015611796575f5ffd5b505af11580156117a8573d5f5f3e3d5ffd5b505050505050565b5f7f000000000000000000000000000000000000000000000000000000000000000073ffffffffffffffffffffffffffffffffffffffff1663ddca3f436040518163ffffffff1660e01b8152600401602060405180830381865afa15801561181a573d5f5f3e3d5ffd5b505050506040513d601f19601f8201168201806040525081019061183e9190611d3c565b905090565b5f8273ffffffffffffffffffffffffffffffffffffffff16826040515f6040518083038185875af1925050503d805f8114611899576040519150601f19603f3d011682016040523d82523d5f602084013e61189e565b606091505b5050905080611904576040517fcd3f16590000000000000000000000000000000000000000000000000000000081525f600482015230602482015273ffffffffffffffffffffffffffffffffffffffff84166044820152606481018390526084016105dc565b6040518281525f9073ffffffffffffffffffffffffffffffffffffffff8516907f9b1bfa7fa9ee420a16e124f794c35ac9f90472acc99140eb2f6447c714cad8eb9060200160405180910390a3505050565b7f4e487b71000000000000000000000000000000000000000000000000000000005f52601160045260245ffd5b8082018082111561149857611498611956565b803573ffffffffffffffffffffffffffffffffffffffff811681146119b9575f5ffd5b919050565b5f5f83601f8401126119ce575f5ffd5b50813567ffffffffffffffff8111156119e5575f5ffd5b6020830191508360208285010111156119fc575f5ffd5b9250929050565b5f5f5f5f5f60808688031215611a17575f5ffd5b611a2086611996565b94506020860135935060408601359250606086013567ffffffffffffffff811115611a49575f5ffd5b611a55888289016119be565b969995985093965092949392505050565b5f5f5f60608486031215611a78575f5ffd5b611a8184611996565b95602085013595506040909401359392505050565b5f5f83601f840112611aa6575f5ffd5b50813567ffffffffffffffff811115611abd575f5ffd5b6020830191508360208260051b85010111156119fc575f5ffd5b5f5f5f5f5f5f60808789031215611aec575f5ffd5b611af587611996565b9550611b0360208801611996565b9450604087013567ffffffffffffffff811115611b1e575f5ffd5b611b2a89828a01611a96565b909550935050606087013567ffffffffffffffff811115611b49575f5ffd5b611b5589828a016119be565b979a9699509497509295939492505050565b5f60208284031215611b77575f5ffd5b61149582611996565b5f5f5f5f5f5f5f5f5f60a08a8c031215611b98575f5ffd5b611ba18a611996565b985060208a013567ffffffffffffffff811115611bbc575f5ffd5b611bc88c828d01611a96565b90995097505060408a013567ffffffffffffffff811115611be7575f5ffd5b611bf38c828d01611a96565b90975095505060608a013567ffffffffffffffff811115611c12575f5ffd5b611c1e8c828d01611a96565b90955093505060808a013567ffffffffffffffff811115611c3d575f5ffd5b611c498c828d01611a96565b915080935050809150509295985092959850929598565b808202811582820484141761149857611498611956565b7f4e487b71000000000000000000000000000000000000000000000000000000005f52603260045260245ffd5b8015158114611cb1575f5ffd5b50565b5f60208284031215611cc4575f5ffd5b8135611ccf81611ca4565b9392505050565b8181038181111561149857611498611956565b5f60208284031215611cf9575f5ffd5b8151611ccf81611ca4565b5f82611d37577f4e487b71000000000000000000000000000000000000000000000000000000005f52601260045260245ffd5b500490565b5f60208284031215611d4c575f5ffd5b505191905056fea2646970667358221220f0906949fcddef70c8add4517fc316d168af4d9e3ce3518d40c9ddc5fb997bac64736f6c634300081c0033",
  "linkReferences": {},
  "deployedLinkReferences": {}
}