{
  "_format": "hh-sol-artifact-1",
  "contractName": "BalanceTrackerFixedPriceToken",
  "sourceName": "contracts/mechs/token/BalanceTrackerFixedPriceToken.sol",
  "abi": [
    {
      "inputs": [
        {
          "internalType": "address",
          "name": "_mechMarketplace",
          "type": "address"
        },
        {
          "internalType": "address",
          "name": "_drainer",
          "type": "address"
        },
        {
          "internalType": "address",
          "name": "_token",
          "type": "address"
        }
      ],
      "stateMutability": "nonpayable",
      "type": "constructor"
    },
    {
      "inputs": [
        {
          "internalType": "uint256",
          "name": "current",
          "type": "uint256"
        },
        {
          "internalType": "uint256",
          "name": "required",
          "type": "uint256"
        }
      ],
      "name": "InsufficientBalance",
      "type": "error"
    },
    {
      "inputs": [
        {
          "internalType": "address",
          "name": "sender",
          "type": "address"
        },
        {
          "internalType": "address",
          "name": "marketplace",
          "type": "address"
        }
      ],
      "name": "MarketplaceOnly",
      "type": "error"
    },
    {
      "inputs": [
        {
          "internalType": "uint256",
          "name": "amount",
          "type": "uint256"
        }
      ],
      "name": "NoDepositAllowed",
      "type": "error"
    },
    {
      "inputs": [],
      "name": "ReentrancyGuard",
      "type": "error"
    },
    {
      "inputs": [
        {
          "internalType": "address",
          "name": "account",
          "type": "address"
        }
      ],
      "name": "UnauthorizedAccount",
      "type": "error"
    },
    {
      "inputs": [],
      "name": "ZeroAddress",
      "type": "error"
    },
    {
      "inputs": [],
      "name": "ZeroValue",
      "type": "error"
    },
    {
      "anonymous": false,
      "inputs": [
        {
          "indexed": true,
          "internalType": "address",
          "name": "account",
          "type": "address"
        },
        {
          "indexed": true,
          "internalType": "address",
          "name": "token",
          "type": "address"
        },
        {
          "indexed": false,
          "internalType": "uint256",
          "name": "amount",
          "type": "uint256"
        }
      ],
      "name": "Deposit",
      "type": "event"
    },
    {
      "anonymous": false,
      "inputs": [
        {
          "indexed": true,
          "internalType": "address",
          "name": "token",
          "type": "address"
        },
        {
          "indexed": false,
          "internalType": "uint256",
          "name": "collectedFees",
          "type": "uint256"
        }
      ],
      "name": "Drained",
      "type": "event"
    },
    {
      "anonymous": false,
      "inputs": [
        {
          "indexed": true,
          "internalType": "address",
          "name": "mech",
          "type": "address"
        },
        {
          "indexed": false,
          "internalType": "uint256",
          "name": "deliveryRate",
          "type": "uint256"
        },
        {
          "indexed": false,
          "internalType": "uint256",
          "name": "balance",
          "type": "uint256"
        },
        {
          "indexed": false,
          "internalType": "uint256",
          "name": "rateDiff",
          "type": "uint256"
        }
      ],
      "name": "MechBalanceAdjusted",
      "type": "event"
    },
    {
      "anonymous": false,
      "inputs": [
        {
          "indexed": true,
          "internalType": "address",
          "name": "requester",
          "type": "address"
        },
        {
          "indexed": false,
          "internalType": "uint256",
          "name": "deliveryRate",
          "type": "uint256"
        },
        {
          "indexed": false,
          "internalType": "uint256",
          "name": "balance",
          "type": "uint256"
        }
      ],
      "name": "RequesterBalanceAdjusted",
      "type": "event"
    },
    {
      "anonymous": false,
      "inputs": [
        {
          "indexed": true,
          "internalType": "address",
          "name": "account",
          "type": "address"
        },
        {
          "indexed": true,
          "internalType": "address",
          "name": "token",
          "type": "address"
        },
        {
          "indexed": false,
          "internalType": "uint256",
          "name": "amount",
          "type": "uint256"
        }
      ],
      "name": "Withdraw",
      "type": "event"
    },
    {
      "inputs": [],
      "name": "MAX_FEE_FACTOR",
      "outputs": [
        {
          "internalType": "uint256",
          "name": "",
          "type": "uint256"
        }
      ],
      "stateMutability": "view",
      "type": "function"
    },
    {
      "inputs": [],
      "name": "MIN_MECH_BALANCE",
      "outputs": [
        {
          "internalType": "uint256",
          "name": "",
          "type": "uint256"
        }
      ],
      "stateMutability": "view",
      "type": "function"
    },
    {
      "inputs": [
        {
          "internalType": "address",
          "name": "mech",
          "type": "address"
        },
        {
          "internalType": "address",
          "name": "requester",
          "type": "address"
        },
        {
          "internalType": "uint256[]",
          "name": "mechDeliveryRates",
          "type": "uint256[]"
        },
        {
          "internalType": "bytes",
          "name": "paymentData",
          "type": "bytes"
        }
      ],
      "name": "adjustMechRequesterBalances",
      "outputs": [],
      "stateMutability": "nonpayable",
      "type": "function"
    },
    {
      "inputs": [
        {
          "internalType": "address",
          "name": "requester",
          "type": "address"
        },
        {
          "internalType": "uint256",
          "name": "numRequests",
          "type": "uint256"
        },
        {
          "internalType": "uint256",
          "name": "deliveryRate",
          "type": "uint256"
        },
        {
          "internalType": "bytes",
          "name": "paymentData",
          "type": "bytes"
        }
      ],
      "name": "checkAndRecordDeliveryRates",
      "outputs": [],
      "stateMutability": "payable",
      "type": "function"
    },
    {
      "inputs": [],
      "name": "collectedFees",
      "outputs": [
        {
          "internalType": "uint256",
          "name": "",
          "type": "uint256"
        }
      ],
      "stateMutability": "view",
      "type": "function"
    },
    {
      "inputs": [
        {
          "internalType": "uint256",
          "name": "amount",
          "type": "uint256"
        }
      ],
      "name": "deposit",
      "outputs": [],
      "stateMutability": "nonpayable",
      "type": "function"
    },
    {
      "inputs": [
        {
          "internalType": "address",
          "name": "account",
          "type": "address"
        },
        {
          "internalType": "uint256",
          "name": "amount",
          "type": "uint256"
        }
      ],
      "name": "depositFor",
      "outputs": [],
      "stateMutability": "nonpayable",
      "type": "function"
    },
    {
      "inputs": [],
      "name": "drain",
      "outputs": [],
      "stateMutability": "nonpayable",
      "type": "function"
    },
    {
      "inputs": [],
      "name": "drainer",
      "outputs": [
        {
          "internalType": "address",
          "name": "",
          "type": "address"
        }
      ],
      "stateMutability": "view",
      "type": "function"
    },
    {
      "inputs": [
        {
          "internalType": "address",
          "name": "mech",
          "type": "address"
        },
        {
          "internalType": "address[]",
          "name": "requesters",
          "type": "address[]"
        },
        {
          "internalType": "bool[]",
          "name": "deliveredRequests",
          "type": "bool[]"
        },
        {
          "internalType": "uint256[]",
          "name": "mechDeliveryRates",
          "type": "uint256[]"
        },
        {
          "internalType": "uint256[]",
          "name": "requesterDeliveryRates",
          "type": "uint256[]"
        }
      ],
      "name": "finalizeDeliveryRates",
      "outputs": [],
      "stateMutability": "nonpayable",
      "type": "function"
    },
    {
      "inputs": [
        {
          "internalType": "address",
          "name": "",
          "type": "address"
        }
      ],
      "name": "mapMechBalances",
      "outputs": [
        {
          "internalType": "uint256",
          "name": "",
          "type": "uint256"
        }
      ],
      "stateMutability": "view",
      "type": "function"
    },
    {
      "inputs": [
        {
          "internalType": "address",
          "name": "",
          "type": "address"
        }
      ],
      "name": "mapRequesterBalances",
      "outputs": [
        {
          "internalType": "uint256",
          "name": "",
          "type": "uint256"
        }
      ],
      "stateMutability": "view",
      "type": "function"
    },
    {
      "inputs": [],
      "name": "mechMarketplace",
      "outputs": [
        {
          "internalType": "address",
          "name": "",
          "type": "address"
        }
      ],
      "stateMutability": "view",
      "type": "function"
    },
    {
      "inputs": [],
      "name": "processPayment",
      "outputs": [
        {
          "internalType": "uint256",
          "name": "mechPayment",
          "type": "uint256"
        },
        {
          "internalType": "uint256",
          "name": "marketplaceFee",
          "type": "uint256"
        }
      ],
      "stateMutability": "nonpayable",
      "type": "function"
    },
    {
      "inputs": [
        {
          "internalType": "address",
          "name": "mech",
          "type": "address"
        }
      ],
      "name": "processPaymentByMultisig",
      "outputs": [
        {
          "internalType": "uint256",
          "name": "mechPayment",
          "type": "uint256"
        },
        {
          "internalType": "uint256",
          "name": "marketplaceFee",
          "type": "uint256"
        }
      ],
      "stateMutability": "nonpayable",
      "type": "function"
    },
    {
      "inputs": [],
      "name": "token",
      "outputs": [
        {
          "internalType": "address",
          "name": "",
          "type": "address"
        }
      ],
      "stateMutability": "view",
      "type": "function"
    }
  ],
  "bytecode": "0x60e060405260018055348015610013575f5ffd5b50604051611cbc380380611cbc833981016040819052610032916100d0565b82826001600160a01b038216158061005157506001600160a01b038116155b1561006f5760405163d92e233d60e01b815260040160405180910390fd5b6001600160a01b03918216608052811660a05281166100a15760405163d92e233d60e01b815260040160405180910390fd5b6001600160a01b031660c052506101109050565b80516001600160a01b03811681146100cb575f5ffd5b919050565b5f5f5f606084860312156100e2575f5ffd5b6100eb846100b5565b92506100f9602085016100b5565b9150610107604085016100b5565b90509250925092565b60805160a05160c051611b126101aa5f395f8181610322015281816104110152818161049301528181610cdf01528181610d7c015281816111960152818161120301528181611353015281816113db0152818161147c015261150601525f8181610188015261116701525f818161027101528181610575015281816105dd015281816108e40152818161094c01526112770152611b125ff3fe6080604052600436106100ef575f3560e01c80639003adfe11610087578063b6b55f2511610057578063b6b55f25146102a8578063e6798035146102c7578063f965a873146102f2578063fc0c546a14610311575f5ffd5b80639003adfe146102385780639890220b1461024c5780639c5e959014610260578063af4937fc14610293575f5ffd5b806357838e85116100c257806357838e85146101775780636072dd2c146101cf5780636aeeffa8146101ee57806379e4afe814610219575f5ffd5b8063163ad715146100f357806322081c121461011a5780632f4f21e21461014357806338603a3914610164575b5f5ffd5b3480156100fe575f5ffd5b50610107600281565b6040519081526020015b60405180910390f35b348015610125575f5ffd5b5061012e610344565b60408051928352602083019190915201610111565b34801561014e575f5ffd5b5061016261015d366004611584565b61039d565b005b6101626101723660046116b2565b61051c565b348015610182575f5ffd5b506101aa7f000000000000000000000000000000000000000000000000000000000000000081565b60405173ffffffffffffffffffffffffffffffffffffffff9091168152602001610111565b3480156101da575f5ffd5b506101626101e936600461179c565b6106da565b3480156101f9575f5ffd5b50610107610208366004611809565b60026020525f908152604090205481565b348015610224575f5ffd5b50610162610233366004611896565b61088b565b348015610243575f5ffd5b506101075f5481565b348015610257575f5ffd5b50610162610bf0565b34801561026b575f5ffd5b506101aa7f000000000000000000000000000000000000000000000000000000000000000081565b34801561029e575f5ffd5b5061010761271081565b3480156102b3575f5ffd5b506101626102c23660046119bd565b610c81565b3480156102d2575f5ffd5b506101076102e1366004611809565b60036020525f908152604090205481565b3480156102fd575f5ffd5b5061012e61030c366004611809565b610dcf565b34801561031c575f5ffd5b506101aa7f000000000000000000000000000000000000000000000000000000000000000081565b5f5f600154600203610382576040517f8beb9d1600000000000000000000000000000000000000000000000000000000815260040160405180910390fd5b600260015561039033610eed565b6001805590939092509050565b73ffffffffffffffffffffffffffffffffffffffff82165f90815260026020526040812080548392906103d1908490611a01565b90915550506040517f23b872dd000000000000000000000000000000000000000000000000000000008152336004820152306024820152604481018290527f000000000000000000000000000000000000000000000000000000000000000073ffffffffffffffffffffffffffffffffffffffff16906323b872dd906064016020604051808303815f875af115801561046c573d5f5f3e3d5ffd5b505050506040513d601f19601f820116820180604052508101906104909190611a14565b507f000000000000000000000000000000000000000000000000000000000000000073ffffffffffffffffffffffffffffffffffffffff168273ffffffffffffffffffffffffffffffffffffffff167f5548c837ab068cf56a2c2479df0882a4922fd203edb7517321831d95078c5f628360405161051091815260200190565b60405180910390a35050565b600154600203610558576040517f8beb9d1600000000000000000000000000000000000000000000000000000000815260040160405180910390fd5b60026001553373ffffffffffffffffffffffffffffffffffffffff7f0000000000000000000000000000000000000000000000000000000000000000161461060f576040517fe56895c000000000000000000000000000000000000000000000000000000000815233600482015273ffffffffffffffffffffffffffffffffffffffff7f00000000000000000000000000000000000000000000000000000000000000001660248201526044015b60405180910390fd5b5f61061861102c565b73ffffffffffffffffffffffffffffffffffffffff86165f908152600260205260408120549192509061064c908390611a01565b90505f6106598686611a36565b90506106678783838761106c565b73ffffffffffffffffffffffffffffffffffffffff88165f81815260026020908152604091829020849055815185815290810184905292945090917e572a5ba2b0e6be13dc09fac07a0c06782c5defdef8694b0085972ebdb1201291015b60405180910390a25050600180555050505050565b600154600203610716576040517f8beb9d1600000000000000000000000000000000000000000000000000000000815260040160405180910390fd5b60026001555f805b83518110156107565783818151811061073957610739611a4d565b60200260200101518261074c9190611a01565b915060010161071e565b5073ffffffffffffffffffffffffffffffffffffffff84165f908152600260205260409020546107888582848661106c565b73ffffffffffffffffffffffffffffffffffffffff8087165f908152600260209081526040808320859055928a1682526003905220549091506107cb8382611a01565b73ffffffffffffffffffffffffffffffffffffffff8881165f908152600360209081526040918290208490558151878152908101869052929350908816917e572a5ba2b0e6be13dc09fac07a0c06782c5defdef8694b0085972ebdb12012910160405180910390a260408051848152602081018390525f9181019190915273ffffffffffffffffffffffffffffffffffffffff8816907fd11af879a940c7604caa3933cb8a021f09a06692f4d05a5843fe06a003abed68906060016106c5565b6001546002036108c7576040517f8beb9d1600000000000000000000000000000000000000000000000000000000815260040160405180910390fd5b60026001553373ffffffffffffffffffffffffffffffffffffffff7f00000000000000000000000000000000000000000000000000000000000000001614610979576040517fe56895c000000000000000000000000000000000000000000000000000000000815233600482015273ffffffffffffffffffffffffffffffffffffffff7f0000000000000000000000000000000000000000000000000000000000000000166024820152604401610606565b82515f808080805b85811015610b085788818151811061099b5761099b611a4d565b602002602001015115610b00578781815181106109ba576109ba611a4d565b6020026020010151846109cd9190611a01565b93508681815181106109e1576109e1611a4d565b6020026020010151836109f49190611a01565b92505f888281518110610a0957610a09611a4d565b6020026020010151888381518110610a2357610a23611a4d565b60200260200101511115610afe57888281518110610a4357610a43611a4d565b6020026020010151888381518110610a5d57610a5d611a4d565b6020026020010151610a6f9190611a7a565b9050610a7b8184611a01565b9250610aa08b8381518110610a9257610a92611a4d565b6020026020010151826110f1565b95508560025f8d8581518110610ab857610ab8611a4d565b602002602001015173ffffffffffffffffffffffffffffffffffffffff1673ffffffffffffffffffffffffffffffffffffffff1681526020019081526020015f20819055505b505b600101610981565b50825f03610b42576040517f7c946ed700000000000000000000000000000000000000000000000000000000815260040160405180910390fd5b73ffffffffffffffffffffffffffffffffffffffff8a165f908152600360205260409020549350610b738385611a01565b73ffffffffffffffffffffffffffffffffffffffff8b165f818152600360209081526040918290208490558151878152908101849052908101849052919550907fd11af879a940c7604caa3933cb8a021f09a06692f4d05a5843fe06a003abed689060600160405180910390a25050600180555050505050505050565b600154600203610c2c576040517f8beb9d1600000000000000000000000000000000000000000000000000000000815260040160405180910390fd5b60026001555f805490819003610c6e576040517f7c946ed700000000000000000000000000000000000000000000000000000000815260040160405180910390fd5b5f8055610c7a8161112a565b5060018055565b335f9081526002602052604081208054839290610c9f908490611a01565b90915550506040517f23b872dd000000000000000000000000000000000000000000000000000000008152336004820152306024820152604481018290527f000000000000000000000000000000000000000000000000000000000000000073ffffffffffffffffffffffffffffffffffffffff16906323b872dd906064016020604051808303815f875af1158015610d3a573d5f5f3e3d5ffd5b505050506040513d601f19601f82011682018060405250810190610d5e9190611a14565b5060405181815273ffffffffffffffffffffffffffffffffffffffff7f0000000000000000000000000000000000000000000000000000000000000000169033907f5548c837ab068cf56a2c2479df0882a4922fd203edb7517321831d95078c5f629060200160405180910390a350565b5f5f600154600203610e0d576040517f8beb9d1600000000000000000000000000000000000000000000000000000000815260040160405180910390fd5b60026001556040517f6d70f7ae00000000000000000000000000000000000000000000000000000000815233600482015273ffffffffffffffffffffffffffffffffffffffff841690636d70f7ae90602401602060405180830381865afa158015610e7a573d5f5f3e3d5ffd5b505050506040513d601f19601f82011682018060405250810190610e9e9190611a14565b610ed6576040517f32b2baa3000000000000000000000000000000000000000000000000000000008152336004820152602401610606565b610edf83610eed565b600180559094909350915050565b73ffffffffffffffffffffffffffffffffffffffff81165f9081526003602052604081205481906002811015610f4f576040517f7c946ed700000000000000000000000000000000000000000000000000000000815260040160405180910390fd5b5f610f58611274565b9050612710610f68600182611a7a565b610f728385611a36565b610f7c9190611a01565b610f869190611a8d565b9250610f928383611a7a565b93505f81118015610fa1575082155b80610faa575083155b15610fe1576040517f7c946ed700000000000000000000000000000000000000000000000000000000815260040160405180910390fd5b825f5f828254610ff19190611a01565b909155505073ffffffffffffffffffffffffffffffffffffffff85165f908152600360205260408120556110258585611307565b5050915091565b5f3415611067576040517f0f0fe74c000000000000000000000000000000000000000000000000000000008152346004820152602401610606565b505f90565b5f828410156110de575f6110808585611a7a565b905061108c8682611428565b6110969086611a01565b9450838510156110dc576040517fcf4791810000000000000000000000000000000000000000000000000000000081526004810186905260248101859052604401610606565b505b6110e88385611a7a565b95945050505050565b73ffffffffffffffffffffffffffffffffffffffff82165f90815260026020526040812054611121908390611a01565b90505b92915050565b6040517fa9059cbb00000000000000000000000000000000000000000000000000000000815273ffffffffffffffffffffffffffffffffffffffff7f000000000000000000000000000000000000000000000000000000000000000081166004830152602482018390527f0000000000000000000000000000000000000000000000000000000000000000169063a9059cbb906044016020604051808303815f875af11580156111dc573d5f5f3e3d5ffd5b505050506040513d601f19601f820116820180604052508101906112009190611a14565b507f000000000000000000000000000000000000000000000000000000000000000073ffffffffffffffffffffffffffffffffffffffff167fb2559daa129ad136aac2133ac6a0c75920abbef7d6663a017a94e181b13786c38260405161126991815260200190565b60405180910390a250565b5f7f000000000000000000000000000000000000000000000000000000000000000073ffffffffffffffffffffffffffffffffffffffff1663ddca3f436040518163ffffffff1660e01b8152600401602060405180830381865afa1580156112de573d5f5f3e3d5ffd5b505050506040513d601f19601f820116820180604052508101906113029190611ac5565b905090565b6040517fa9059cbb00000000000000000000000000000000000000000000000000000000815273ffffffffffffffffffffffffffffffffffffffff8381166004830152602482018390527f0000000000000000000000000000000000000000000000000000000000000000169063a9059cbb906044016020604051808303815f875af1158015611399573d5f5f3e3d5ffd5b505050506040513d601f19601f820116820180604052508101906113bd9190611a14565b5060405181815273ffffffffffffffffffffffffffffffffffffffff7f0000000000000000000000000000000000000000000000000000000000000000169033907f9b1bfa7fa9ee420a16e124f794c35ac9f90472acc99140eb2f6447c714cad8eb90602001610510565b6040517f23b872dd00000000000000000000000000000000000000000000000000000000815273ffffffffffffffffffffffffffffffffffffffff8381166004830152306024830152604482018390525f917f0000000000000000000000000000000000000000000000000000000000000000909116906323b872dd906064016020604051808303815f875af11580156114c4573d5f5f3e3d5ffd5b505050506040513d601f19601f820116820180604052508101906114e89190611a14565b5060405182815273ffffffffffffffffffffffffffffffffffffffff7f0000000000000000000000000000000000000000000000000000000000000000169033907f5548c837ab068cf56a2c2479df0882a4922fd203edb7517321831d95078c5f629060200160405180910390a350919050565b803573ffffffffffffffffffffffffffffffffffffffff8116811461157f575f5ffd5b919050565b5f5f60408385031215611595575f5ffd5b61159e8361155c565b946020939093013593505050565b7f4e487b71000000000000000000000000000000000000000000000000000000005f52604160045260245ffd5b604051601f82017fffffffffffffffffffffffffffffffffffffffffffffffffffffffffffffffe016810167ffffffffffffffff81118282101715611620576116206115ac565b604052919050565b5f82601f830112611637575f5ffd5b813567ffffffffffffffff811115611651576116516115ac565b61168260207fffffffffffffffffffffffffffffffffffffffffffffffffffffffffffffffe0601f840116016115d9565b818152846020838601011115611696575f5ffd5b816020850160208301375f918101602001919091529392505050565b5f5f5f5f608085870312156116c5575f5ffd5b6116ce8561155c565b93506020850135925060408501359150606085013567ffffffffffffffff8111156116f7575f5ffd5b61170387828801611628565b91505092959194509250565b5f67ffffffffffffffff821115611728576117286115ac565b5060051b60200190565b5f82601f830112611741575f5ffd5b813561175461174f8261170f565b6115d9565b8082825260208201915060208360051b860101925085831115611775575f5ffd5b602085015b8381101561179257803583526020928301920161177a565b5095945050505050565b5f5f5f5f608085870312156117af575f5ffd5b6117b88561155c565b93506117c66020860161155c565b9250604085013567ffffffffffffffff8111156117e1575f5ffd5b6117ed87828801611732565b925050606085013567ffffffffffffffff8111156116f7575f5ffd5b5f60208284031215611819575f5ffd5b6111218261155c565b801515811461182f575f5ffd5b50565b5f82601f830112611841575f5ffd5b813561184f61174f8261170f565b8082825260208201915060208360051b860101925085831115611870575f5ffd5b602085015b8381101561179257803561188881611822565b835260209283019201611875565b5f5f5f5f5f60a086880312156118aa575f5ffd5b6118b38661155c565b9450602086013567ffffffffffffffff8111156118ce575f5ffd5b8601601f810188136118de575f5ffd5b80356118ec61174f8261170f565b8082825260208201915060208360051b85010192508a83111561190d575f5ffd5b6020840193505b82841015611936576119258461155c565b825260209384019390910190611914565b9650505050604086013567ffffffffffffffff811115611954575f5ffd5b61196088828901611832565b935050606086013567ffffffffffffffff81111561197c575f5ffd5b61198888828901611732565b925050608086013567ffffffffffffffff8111156119a4575f5ffd5b6119b088828901611732565b9150509295509295909350565b5f602082840312156119cd575f5ffd5b5035919050565b7f4e487b71000000000000000000000000000000000000000000000000000000005f52601160045260245ffd5b80820180821115611124576111246119d4565b5f60208284031215611a24575f5ffd5b8151611a2f81611822565b9392505050565b8082028115828204841417611124576111246119d4565b7f4e487b71000000000000000000000000000000000000000000000000000000005f52603260045260245ffd5b81810381811115611124576111246119d4565b5f82611ac0577f4e487b71000000000000000000000000000000000000000000000000000000005f52601260045260245ffd5b500490565b5f60208284031215611ad5575f5ffd5b505191905056fea264697066735822122097fc9f522afc0700c64069906ae7de883c689c50d68dadbc45580fc5911fdd1064736f6c634300081c0033",
  "linkReferences": {},
  "deployedLinkReferences": {}
}