{
  "_format": "hh-sol-artifact-1",
  "contractName": "BalanceTrackerNvmSubscriptionNative",
  "sourceName": "contracts/mechs/nevermined/BalanceTrackerNvmSubscriptionNative.sol",
  "abi": [
    {
      "inputs": [
        {
          "internalType": "address",
          "name": "_mechMarketplace",
          "type": "address"
        },
        {
          "internalType": "address",
          "name": "_buyBackBurner",
          "type": "address"
        },
        {
          "internalType": "address",
          "name": "_wrappedNativeToken",
          "type": "address"
        },
        {
          "internalType": "uint256",
          "name": "_creditTokenRatio",
          "type": "uint256"
        }
      ],
      "stateMutability": "nonpayable",
      "type": "constructor"
    },
    {
      "inputs": [
        {
          "internalType": "uint256",
          "name": "current",
          "type": "uint256"
        },
        {
          "internalType": "uint256",
          "name": "required",
          "type": "uint256"
        }
      ],
      "name": "InsufficientBalance",
      "type": "error"
    },
    {
      "inputs": [
        {
          "internalType": "address",
          "name": "sender",
          "type": "address"
        },
        {
          "internalType": "address",
          "name": "marketplace",
          "type": "address"
        }
      ],
      "name": "MarketplaceOnly",
      "type": "error"
    },
    {
      "inputs": [
        {
          "internalType": "uint256",
          "name": "amount",
          "type": "uint256"
        }
      ],
      "name": "NoDepositAllowed",
      "type": "error"
    },
    {
      "inputs": [
        {
          "internalType": "uint256",
          "name": "provided",
          "type": "uint256"
        },
        {
          "internalType": "uint256",
          "name": "max",
          "type": "uint256"
        }
      ],
      "name": "Overflow",
      "type": "error"
    },
    {
      "inputs": [
        {
          "internalType": "address",
          "name": "sender",
          "type": "address"
        },
        {
          "internalType": "address",
          "name": "owner",
          "type": "address"
        }
      ],
      "name": "OwnerOnly",
      "type": "error"
    },
    {
      "inputs": [],
      "name": "ReentrancyGuard",
      "type": "error"
    },
    {
      "inputs": [
        {
          "internalType": "address",
          "name": "token",
          "type": "address"
        },
        {
          "internalType": "address",
          "name": "from",
          "type": "address"
        },
        {
          "internalType": "address",
          "name": "to",
          "type": "address"
        },
        {
          "internalType": "uint256",
          "name": "amount",
          "type": "uint256"
        }
      ],
      "name": "TransferFailed",
      "type": "error"
    },
    {
      "inputs": [
        {
          "internalType": "address",
          "name": "account",
          "type": "address"
        }
      ],
      "name": "UnauthorizedAccount",
      "type": "error"
    },
    {
      "inputs": [],
      "name": "ZeroAddress",
      "type": "error"
    },
    {
      "inputs": [],
      "name": "ZeroValue",
      "type": "error"
    },
    {
      "anonymous": false,
      "inputs": [
        {
          "indexed": true,
          "internalType": "address",
          "name": "account",
          "type": "address"
        },
        {
          "indexed": true,
          "internalType": "address",
          "name": "token",
          "type": "address"
        },
        {
          "indexed": false,
          "internalType": "uint256",
          "name": "amount",
          "type": "uint256"
        }
      ],
      "name": "Deposit",
      "type": "event"
    },
    {
      "anonymous": false,
      "inputs": [
        {
          "indexed": true,
          "internalType": "address",
          "name": "token",
          "type": "address"
        },
        {
          "indexed": false,
          "internalType": "uint256",
          "name": "collectedFees",
          "type": "uint256"
        }
      ],
      "name": "Drained",
      "type": "event"
    },
    {
      "anonymous": false,
      "inputs": [
        {
          "indexed": true,
          "internalType": "address",
          "name": "mech",
          "type": "address"
        },
        {
          "indexed": false,
          "internalType": "uint256",
          "name": "deliveryRate",
          "type": "uint256"
        },
        {
          "indexed": false,
          "internalType": "uint256",
          "name": "balance",
          "type": "uint256"
        },
        {
          "indexed": false,
          "internalType": "uint256",
          "name": "rateDiff",
          "type": "uint256"
        }
      ],
      "name": "MechBalanceAdjusted",
      "type": "event"
    },
    {
      "anonymous": false,
      "inputs": [
        {
          "indexed": true,
          "internalType": "address",
          "name": "requester",
          "type": "address"
        },
        {
          "indexed": false,
          "internalType": "uint256",
          "name": "deliveryRate",
          "type": "uint256"
        },
        {
          "indexed": false,
          "internalType": "uint256",
          "name": "balance",
          "type": "uint256"
        }
      ],
      "name": "RequesterBalanceAdjusted",
      "type": "event"
    },
    {
      "anonymous": false,
      "inputs": [
        {
          "indexed": true,
          "internalType": "address",
          "name": "account",
          "type": "address"
        },
        {
          "indexed": false,
          "internalType": "uint256",
          "name": "amount",
          "type": "uint256"
        }
      ],
      "name": "RequesterCreditsRedeemed",
      "type": "event"
    },
    {
      "anonymous": false,
      "inputs": [
        {
          "indexed": true,
          "internalType": "address",
          "name": "token",
          "type": "address"
        },
        {
          "indexed": true,
          "internalType": "uint256",
          "name": "tokenId",
          "type": "uint256"
        }
      ],
      "name": "SubscriptionSet",
      "type": "event"
    },
    {
      "anonymous": false,
      "inputs": [
        {
          "indexed": true,
          "internalType": "address",
          "name": "account",
          "type": "address"
        },
        {
          "indexed": true,
          "internalType": "address",
          "name": "token",
          "type": "address"
        },
        {
          "indexed": false,
          "internalType": "uint256",
          "name": "amount",
          "type": "uint256"
        }
      ],
      "name": "Withdraw",
      "type": "event"
    },
    {
      "inputs": [],
      "name": "MAX_FEE_FACTOR",
      "outputs": [
        {
          "internalType": "uint256",
          "name": "",
          "type": "uint256"
        }
      ],
      "stateMutability": "view",
      "type": "function"
    },
    {
      "inputs": [],
      "name": "MIN_MECH_BALANCE",
      "outputs": [
        {
          "internalType": "uint256",
          "name": "",
          "type": "uint256"
        }
      ],
      "stateMutability": "view",
      "type": "function"
    },
    {
      "inputs": [
        {
          "internalType": "address",
          "name": "mech",
          "type": "address"
        },
        {
          "internalType": "address",
          "name": "requester",
          "type": "address"
        },
        {
          "internalType": "uint256[]",
          "name": "mechDeliveryRates",
          "type": "uint256[]"
        },
        {
          "internalType": "bytes",
          "name": "",
          "type": "bytes"
        }
      ],
      "name": "adjustMechRequesterBalances",
      "outputs": [],
      "stateMutability": "nonpayable",
      "type": "function"
    },
    {
      "inputs": [],
      "name": "buyBackBurner",
      "outputs": [
        {
          "internalType": "address",
          "name": "",
          "type": "address"
        }
      ],
      "stateMutability": "view",
      "type": "function"
    },
    {
      "inputs": [
        {
          "internalType": "address",
          "name": "requester",
          "type": "address"
        },
        {
          "internalType": "uint256",
          "name": "numRequests",
          "type": "uint256"
        },
        {
          "internalType": "uint256",
          "name": "deliveryRate",
          "type": "uint256"
        },
        {
          "internalType": "bytes",
          "name": "paymentData",
          "type": "bytes"
        }
      ],
      "name": "checkAndRecordDeliveryRates",
      "outputs": [],
      "stateMutability": "payable",
      "type": "function"
    },
    {
      "inputs": [],
      "name": "collectedFees",
      "outputs": [
        {
          "internalType": "uint256",
          "name": "",
          "type": "uint256"
        }
      ],
      "stateMutability": "view",
      "type": "function"
    },
    {
      "inputs": [],
      "name": "creditTokenRatio",
      "outputs": [
        {
          "internalType": "uint256",
          "name": "",
          "type": "uint256"
        }
      ],
      "stateMutability": "view",
      "type": "function"
    },
    {
      "inputs": [
        {
          "internalType": "address",
          "name": "account",
          "type": "address"
        }
      ],
      "name": "depositFor",
      "outputs": [],
      "stateMutability": "payable",
      "type": "function"
    },
    {
      "inputs": [],
      "name": "drain",
      "outputs": [],
      "stateMutability": "nonpayable",
      "type": "function"
    },
    {
      "inputs": [
        {
          "internalType": "address",
          "name": "mech",
          "type": "address"
        },
        {
          "internalType": "address[]",
          "name": "requesters",
          "type": "address[]"
        },
        {
          "internalType": "bool[]",
          "name": "deliveredRequests",
          "type": "bool[]"
        },
        {
          "internalType": "uint256[]",
          "name": "mechDeliveryRates",
          "type": "uint256[]"
        },
        {
          "internalType": "uint256[]",
          "name": "requesterDeliveryRates",
          "type": "uint256[]"
        }
      ],
      "name": "finalizeDeliveryRates",
      "outputs": [],
      "stateMutability": "nonpayable",
      "type": "function"
    },
    {
      "inputs": [
        {
          "internalType": "address",
          "name": "",
          "type": "address"
        }
      ],
      "name": "mapMechBalances",
      "outputs": [
        {
          "internalType": "uint256",
          "name": "",
          "type": "uint256"
        }
      ],
      "stateMutability": "view",
      "type": "function"
    },
    {
      "inputs": [
        {
          "internalType": "address",
          "name": "",
          "type": "address"
        }
      ],
      "name": "mapRequesterBalances",
      "outputs": [
        {
          "internalType": "uint256",
          "name": "",
          "type": "uint256"
        }
      ],
      "stateMutability": "view",
      "type": "function"
    },
    {
      "inputs": [],
      "name": "mechMarketplace",
      "outputs": [
        {
          "internalType": "address",
          "name": "",
          "type": "address"
        }
      ],
      "stateMutability": "view",
      "type": "function"
    },
    {
      "inputs": [],
      "name": "owner",
      "outputs": [
        {
          "internalType": "address",
          "name": "",
          "type": "address"
        }
      ],
      "stateMutability": "view",
      "type": "function"
    },
    {
      "inputs": [],
      "name": "processPayment",
      "outputs": [
        {
          "internalType": "uint256",
          "name": "mechPayment",
          "type": "uint256"
        },
        {
          "internalType": "uint256",
          "name": "marketplaceFee",
          "type": "uint256"
        }
      ],
      "stateMutability": "nonpayable",
      "type": "function"
    },
    {
      "inputs": [
        {
          "internalType": "address",
          "name": "mech",
          "type": "address"
        }
      ],
      "name": "processPaymentByMultisig",
      "outputs": [
        {
          "internalType": "uint256",
          "name": "mechPayment",
          "type": "uint256"
        },
        {
          "internalType": "uint256",
          "name": "marketplaceFee",
          "type": "uint256"
        }
      ],
      "stateMutability": "nonpayable",
      "type": "function"
    },
    {
      "inputs": [
        {
          "internalType": "address",
          "name": "requester",
          "type": "address"
        }
      ],
      "name": "redeemRequesterCredits",
      "outputs": [],
      "stateMutability": "nonpayable",
      "type": "function"
    },
    {
      "inputs": [
        {
          "internalType": "address",
          "name": "_subscriptionNFT",
          "type": "address"
        },
        {
          "internalType": "uint256",
          "name": "_subscriptionTokenId",
          "type": "uint256"
        }
      ],
      "name": "setSubscription",
      "outputs": [],
      "stateMutability": "nonpayable",
      "type": "function"
    },
    {
      "inputs": [],
      "name": "subscriptionNFT",
      "outputs": [
        {
          "internalType": "address",
          "name": "",
          "type": "address"
        }
      ],
      "stateMutability": "view",
      "type": "function"
    },
    {
      "inputs": [],
      "name": "subscriptionTokenId",
      "outputs": [
        {
          "internalType": "uint256",
          "name": "",
          "type": "uint256"
        }
      ],
      "stateMutability": "view",
      "type": "function"
    },
    {
      "inputs": [],
      "name": "trackerBalance",
      "outputs": [
        {
          "internalType": "uint256",
          "name": "",
          "type": "uint256"
        }
      ],
      "stateMutability": "view",
      "type": "function"
    },
    {
      "inputs": [],
      "name": "wrappedNativeToken",
      "outputs": [
        {
          "internalType": "address",
          "name": "",
          "type": "address"
        }
      ],
      "stateMutability": "view",
      "type": "function"
    },
    {
      "stateMutability": "payable",
      "type": "receive"
    }
  ],
  "bytecode": "0x61010060405260018055348015610014575f5ffd5b5060405161212b38038061212b8339810160408190526100339161010c565b83838382826001600160a01b038216158061005557506001600160a01b038116155b156100735760405163d92e233d60e01b815260040160405180910390fd5b6001600160a01b03918216608052811660a05281166100a55760405163d92e233d60e01b815260040160405180910390fd5b6001600160a01b031660c05250505f8190036100d457604051637c946ed760e01b815260040160405180910390fd5b60e0525050600780546001600160a01b0319163317905550610154565b80516001600160a01b0381168114610107575f5ffd5b919050565b5f5f5f5f6080858703121561011f575f5ffd5b610128856100f1565b9350610136602086016100f1565b9250610144604086016100f1565b6060959095015193969295505050565b60805160a05160c05160e051611f5e6101cd5f395f8181610460015261129f01525f818161020001528181611592015281816115ff01526117b101525f818161033d015261156301525f8181610405015281816107120152818161077a01528181610cf601528181610d5e01526118320152611f5e5ff3fe608060405260043610610170575f3560e01c8063878b1132116100c6578063aa67c9191161007c578063dd90cf5111610057578063dd90cf5114610482578063e679803514610497578063f965a873146104c2575f5ffd5b8063aa67c91914610427578063af4937fc1461043a578063d38dd0b81461044f575f5ffd5b80639003adfe116100ac5780639003adfe146103cc5780639890220b146103e05780639c5e9590146103f4575f5ffd5b8063878b11321461038b5780638da5cb5b146103a0575f5ffd5b80636072dd2c1161012657806379e4afe81161010157806379e4afe81461030d578063803551a91461032c57806385cf72441461035f575f5ffd5b80636072dd2c146102a4578063693205c6146102c35780636aeeffa8146102e2575f5ffd5b806322081c121161015657806322081c12146102475780632ebfc9271461027057806338603a3914610291575f5ffd5b8063163ad715146101c857806317fcb39b146101ef575f5ffd5b366101c4573460065f82825461018691906119ec565b90915550506040513481525f9033907f5548c837ab068cf56a2c2479df0882a4922fd203edb7517321831d95078c5f629060200160405180910390a3005b5f5ffd5b3480156101d3575f5ffd5b506101dc600281565b6040519081526020015b60405180910390f35b3480156101fa575f5ffd5b506102227f000000000000000000000000000000000000000000000000000000000000000081565b60405173ffffffffffffffffffffffffffffffffffffffff90911681526020016101e6565b348015610252575f5ffd5b5061025b6104e1565b604080519283526020830191909152016101e6565b34801561027b575f5ffd5b5061028f61028a366004611a27565b61053a565b005b61028f61029f366004611b55565b6106b9565b3480156102af575f5ffd5b5061028f6102be366004611c3f565b610872565b3480156102ce575f5ffd5b5061028f6102dd366004611cac565b610a65565b3480156102ed575f5ffd5b506101dc6102fc366004611cac565b60026020525f908152604090205481565b348015610318575f5ffd5b5061028f610327366004611d40565b610c9d565b348015610337575f5ffd5b506102227f000000000000000000000000000000000000000000000000000000000000000081565b34801561036a575f5ffd5b506004546102229073ffffffffffffffffffffffffffffffffffffffff1681565b348015610396575f5ffd5b506101dc60055481565b3480156103ab575f5ffd5b506007546102229073ffffffffffffffffffffffffffffffffffffffff1681565b3480156103d7575f5ffd5b506101dc5f5481565b3480156103eb575f5ffd5b5061028f611002565b3480156103ff575f5ffd5b506102227f000000000000000000000000000000000000000000000000000000000000000081565b61028f610435366004611cac565b611093565b348015610445575f5ffd5b506101dc61271081565b34801561045a575f5ffd5b506101dc7f000000000000000000000000000000000000000000000000000000000000000081565b34801561048d575f5ffd5b506101dc60065481565b3480156104a2575f5ffd5b506101dc6104b1366004611cac565b60036020525f908152604090205481565b3480156104cd575f5ffd5b5061025b6104dc366004611cac565b61111c565b5f5f60015460020361051f576040517f8beb9d1600000000000000000000000000000000000000000000000000000000815260040160405180910390fd5b600260015561052d3361123a565b6001805590939092509050565b60075473ffffffffffffffffffffffffffffffffffffffff1633146105b2576007546040517fa43d6ada00000000000000000000000000000000000000000000000000000000815233600482015273ffffffffffffffffffffffffffffffffffffffff90911660248201526044015b60405180910390fd5b73ffffffffffffffffffffffffffffffffffffffff82166105ff576040517fd92e233d00000000000000000000000000000000000000000000000000000000815260040160405180910390fd5b805f03610638576040517f7c946ed700000000000000000000000000000000000000000000000000000000815260040160405180910390fd5b6004805473ffffffffffffffffffffffffffffffffffffffff84167fffffffffffffffffffffffff0000000000000000000000000000000000000000918216811790925560058390556007805490911690556040518291907fb114dce0ae3b403c43fc24c911fcee78f120917c510db18042396f72cf6e7c82905f90a35050565b6001546002036106f5576040517f8beb9d1600000000000000000000000000000000000000000000000000000000815260040160405180910390fd5b60026001553373ffffffffffffffffffffffffffffffffffffffff7f000000000000000000000000000000000000000000000000000000000000000016146107a7576040517fe56895c000000000000000000000000000000000000000000000000000000000815233600482015273ffffffffffffffffffffffffffffffffffffffff7f00000000000000000000000000000000000000000000000000000000000000001660248201526044016105a9565b5f6107b061134b565b73ffffffffffffffffffffffffffffffffffffffff86165f90815260026020526040812054919250906107e49083906119ec565b90505f6107f18686611e67565b90506107ff8783838761138b565b73ffffffffffffffffffffffffffffffffffffffff88165f81815260026020908152604091829020849055815185815290810184905292945090917e572a5ba2b0e6be13dc09fac07a0c06782c5defdef8694b0085972ebdb1201291015b60405180910390a25050600180555050505050565b6001546002036108ae576040517f8beb9d1600000000000000000000000000000000000000000000000000000000815260040160405180910390fd5b60026001555f805b83518110156108ee578381815181106108d1576108d1611e7e565b6020026020010151826108e491906119ec565b91506001016108b6565b5073ffffffffffffffffffffffffffffffffffffffff84165f9081526002602052604090205481811015610958576040517fcf47918100000000000000000000000000000000000000000000000000000000815260048101829052602481018390526044016105a9565b6109628282611eab565b73ffffffffffffffffffffffffffffffffffffffff8087165f908152600260209081526040808320859055928a1682526003905220549091506109a583826119ec565b73ffffffffffffffffffffffffffffffffffffffff8881165f908152600360209081526040918290208490558151878152908101869052929350908816917e572a5ba2b0e6be13dc09fac07a0c06782c5defdef8694b0085972ebdb12012910160405180910390a260408051848152602081018390525f9181019190915273ffffffffffffffffffffffffffffffffffffffff8816907fd11af879a940c7604caa3933cb8a021f09a06692f4d05a5843fe06a003abed689060600161085d565b600154600203610aa1576040517f8beb9d1600000000000000000000000000000000000000000000000000000000815260040160405180910390fd5b6002600181905573ffffffffffffffffffffffffffffffffffffffff8281165f8181526020939093526040808420546004805460055493517efdd58e0000000000000000000000000000000000000000000000000000000081529182019490945260248101929092529392919091169062fdd58e90604401602060405180830381865afa158015610b34573d5f5f3e3d5ffd5b505050506040513d601f19601f82011682018060405250810190610b589190611ebe565b905081811015610b66578091505b815f03610b9f576040517f7c946ed700000000000000000000000000000000000000000000000000000000815260040160405180910390fd5b73ffffffffffffffffffffffffffffffffffffffff8381165f81815260026020526040808220919091556004805460055492517ff5298aca0000000000000000000000000000000000000000000000000000000081529182019390935260248101919091526044810185905291169063f5298aca906064015f604051808303815f87803b158015610c2e575f5ffd5b505af1158015610c40573d5f5f3e3d5ffd5b505050508273ffffffffffffffffffffffffffffffffffffffff167f233634049b8efac027b540e625ee928314223b888a6c592965257899c7a0ee9283604051610c8c91815260200190565b60405180910390a250506001805550565b600154600203610cd9576040517f8beb9d1600000000000000000000000000000000000000000000000000000000815260040160405180910390fd5b60026001553373ffffffffffffffffffffffffffffffffffffffff7f00000000000000000000000000000000000000000000000000000000000000001614610d8b576040517fe56895c000000000000000000000000000000000000000000000000000000000815233600482015273ffffffffffffffffffffffffffffffffffffffff7f00000000000000000000000000000000000000000000000000000000000000001660248201526044016105a9565b82515f808080805b85811015610f1a57888181518110610dad57610dad611e7e565b602002602001015115610f1257878181518110610dcc57610dcc611e7e565b602002602001015184610ddf91906119ec565b9350868181518110610df357610df3611e7e565b602002602001015183610e0691906119ec565b92505f888281518110610e1b57610e1b611e7e565b6020026020010151888381518110610e3557610e35611e7e565b60200260200101511115610f1057888281518110610e5557610e55611e7e565b6020026020010151888381518110610e6f57610e6f611e7e565b6020026020010151610e819190611eab565b9050610e8d81846119ec565b9250610eb28b8381518110610ea457610ea4611e7e565b6020026020010151826114a0565b95508560025f8d8581518110610eca57610eca611e7e565b602002602001015173ffffffffffffffffffffffffffffffffffffffff1673ffffffffffffffffffffffffffffffffffffffff1681526020019081526020015f20819055505b505b600101610d93565b50825f03610f54576040517f7c946ed700000000000000000000000000000000000000000000000000000000815260040160405180910390fd5b73ffffffffffffffffffffffffffffffffffffffff8a165f908152600360205260409020549350610f8583856119ec565b73ffffffffffffffffffffffffffffffffffffffff8b165f818152600360209081526040918290208490558151878152908101849052908101849052919550907fd11af879a940c7604caa3933cb8a021f09a06692f4d05a5843fe06a003abed689060600160405180910390a25050600180555050505050505050565b60015460020361103e576040517f8beb9d1600000000000000000000000000000000000000000000000000000000815260040160405180910390fd5b60026001555f805490819003611080576040517f7c946ed700000000000000000000000000000000000000000000000000000000815260040160405180910390fd5b5f805561108c8161151d565b5060018055565b73ffffffffffffffffffffffffffffffffffffffff81165f90815260026020526040812080543492906110c79084906119ec565b90915550506040513481525f9073ffffffffffffffffffffffffffffffffffffffff8316907f5548c837ab068cf56a2c2479df0882a4922fd203edb7517321831d95078c5f629060200160405180910390a350565b5f5f60015460020361115a576040517f8beb9d1600000000000000000000000000000000000000000000000000000000815260040160405180910390fd5b60026001556040517f6d70f7ae00000000000000000000000000000000000000000000000000000000815233600482015273ffffffffffffffffffffffffffffffffffffffff841690636d70f7ae90602401602060405180830381865afa1580156111c7573d5f5f3e3d5ffd5b505050506040513d601f19601f820116820180604052508101906111eb9190611ed5565b611223576040517f32b2baa30000000000000000000000000000000000000000000000000000000081523360048201526024016105a9565b61122c8361123a565b600180559094909350915050565b73ffffffffffffffffffffffffffffffffffffffff81165f90815260036020526040812054819080820361129a576040517f7c946ed700000000000000000000000000000000000000000000000000000000815260040160405180910390fd5b6112c47f000000000000000000000000000000000000000000000000000000000000000082611e67565b73ffffffffffffffffffffffffffffffffffffffff85165f908152600360205260409020819055600654909150811115611338576006546040517f7ae596850000000000000000000000000000000000000000000000000000000081526105a9918391600401918252602082015260400190565b61134184611670565b9250925050915091565b5f3415611386576040517f0f0fe74c0000000000000000000000000000000000000000000000000000000081523460048201526024016105a9565b505f90565b600480546005546040517efdd58e0000000000000000000000000000000000000000000000000000000081525f93849373ffffffffffffffffffffffffffffffffffffffff169262fdd58e92611405928b92910173ffffffffffffffffffffffffffffffffffffffff929092168252602082015260400190565b602060405180830381865afa158015611420573d5f5f3e3d5ffd5b505050506040513d601f19601f820116820180604052508101906114449190611ebe565b905061145084866119ec565b945084811015611496576040517fcf47918100000000000000000000000000000000000000000000000000000000815260048101829052602481018690526044016105a9565b5092949350505050565b73ffffffffffffffffffffffffffffffffffffffff82165f9081526002602052604081205480831115611509576040517f7ae5968500000000000000000000000000000000000000000000000000000000815260048101849052602481018290526044016105a9565b6115138382611eab565b9150505b92915050565b611526816117af565b6040517fa9059cbb00000000000000000000000000000000000000000000000000000000815273ffffffffffffffffffffffffffffffffffffffff7f000000000000000000000000000000000000000000000000000000000000000081166004830152602482018390527f0000000000000000000000000000000000000000000000000000000000000000169063a9059cbb906044016020604051808303815f875af11580156115d8573d5f5f3e3d5ffd5b505050506040513d601f19601f820116820180604052508101906115fc9190611ed5565b507f000000000000000000000000000000000000000000000000000000000000000073ffffffffffffffffffffffffffffffffffffffff167fb2559daa129ad136aac2133ac6a0c75920abbef7d6663a017a94e181b13786c38260405161166591815260200190565b60405180910390a250565b73ffffffffffffffffffffffffffffffffffffffff81165f90815260036020526040812054819060028110156116d2576040517f7c946ed700000000000000000000000000000000000000000000000000000000815260040160405180910390fd5b5f6116db61182f565b90506127106116eb600182611eab565b6116f58385611e67565b6116ff91906119ec565b6117099190611ef0565b92506117158383611eab565b93505f81118015611724575082155b8061172d575083155b15611764576040517f7c946ed700000000000000000000000000000000000000000000000000000000815260040160405180910390fd5b825f5f82825461177491906119ec565b909155505073ffffffffffffffffffffffffffffffffffffffff85165f908152600360205260408120556117a885856118c2565b5050915091565b7f000000000000000000000000000000000000000000000000000000000000000073ffffffffffffffffffffffffffffffffffffffff1663d0e30db0826040518263ffffffff1660e01b81526004015f604051808303818588803b158015611815575f5ffd5b505af1158015611827573d5f5f3e3d5ffd5b505050505050565b5f7f000000000000000000000000000000000000000000000000000000000000000073ffffffffffffffffffffffffffffffffffffffff1663ddca3f436040518163ffffffff1660e01b8152600401602060405180830381865afa158015611899573d5f5f3e3d5ffd5b505050506040513d601f19601f820116820180604052508101906118bd9190611ebe565b905090565b5f8273ffffffffffffffffffffffffffffffffffffffff16826040515f6040518083038185875af1925050503d805f8114611918576040519150601f19603f3d011682016040523d82523d5f602084013e61191d565b606091505b5050905080611983576040517fcd3f16590000000000000000000000000000000000000000000000000000000081525f600482015230602482015273ffffffffffffffffffffffffffffffffffffffff84166044820152606481018390526084016105a9565b6040518281525f9033907f9b1bfa7fa9ee420a16e124f794c35ac9f90472acc99140eb2f6447c714cad8eb9060200160405180910390a3505050565b7f4e487b71000000000000000000000000000000000000000000000000000000005f52601160045260245ffd5b80820180821115611517576115176119bf565b803573ffffffffffffffffffffffffffffffffffffffff81168114611a22575f5ffd5b919050565b5f5f60408385031215611a38575f5ffd5b611a41836119ff565b946020939093013593505050565b7f4e487b71000000000000000000000000000000000000000000000000000000005f52604160045260245ffd5b604051601f82017fffffffffffffffffffffffffffffffffffffffffffffffffffffffffffffffe016810167ffffffffffffffff81118282101715611ac357611ac3611a4f565b604052919050565b5f82601f830112611ada575f5ffd5b813567ffffffffffffffff811115611af457611af4611a4f565b611b2560207fffffffffffffffffffffffffffffffffffffffffffffffffffffffffffffffe0601f84011601611a7c565b818152846020838601011115611b39575f5ffd5b816020850160208301375f918101602001919091529392505050565b5f5f5f5f60808587031215611b68575f5ffd5b611b71856119ff565b93506020850135925060408501359150606085013567ffffffffffffffff811115611b9a575f5ffd5b611ba687828801611acb565b91505092959194509250565b5f67ffffffffffffffff821115611bcb57611bcb611a4f565b5060051b60200190565b5f82601f830112611be4575f5ffd5b8135611bf7611bf282611bb2565b611a7c565b8082825260208201915060208360051b860101925085831115611c18575f5ffd5b602085015b83811015611c35578035835260209283019201611c1d565b5095945050505050565b5f5f5f5f60808587031215611c52575f5ffd5b611c5b856119ff565b9350611c69602086016119ff565b9250604085013567ffffffffffffffff811115611c84575f5ffd5b611c9087828801611bd5565b925050606085013567ffffffffffffffff811115611b9a575f5ffd5b5f60208284031215611cbc575f5ffd5b611cc5826119ff565b9392505050565b8015158114611cd9575f5ffd5b50565b5f82601f830112611ceb575f5ffd5b8135611cf9611bf282611bb2565b8082825260208201915060208360051b860101925085831115611d1a575f5ffd5b602085015b83811015611c35578035611d3281611ccc565b835260209283019201611d1f565b5f5f5f5f5f60a08688031215611d54575f5ffd5b611d5d866119ff565b9450602086013567ffffffffffffffff811115611d78575f5ffd5b8601601f81018813611d88575f5ffd5b8035611d96611bf282611bb2565b8082825260208201915060208360051b85010192508a831115611db7575f5ffd5b6020840193505b82841015611de057611dcf846119ff565b825260209384019390910190611dbe565b9650505050604086013567ffffffffffffffff811115611dfe575f5ffd5b611e0a88828901611cdc565b935050606086013567ffffffffffffffff811115611e26575f5ffd5b611e3288828901611bd5565b925050608086013567ffffffffffffffff811115611e4e575f5ffd5b611e5a88828901611bd5565b9150509295509295909350565b8082028115828204841417611517576115176119bf565b7f4e487b71000000000000000000000000000000000000000000000000000000005f52603260045260245ffd5b81810381811115611517576115176119bf565b5f60208284031215611ece575f5ffd5b5051919050565b5f60208284031215611ee5575f5ffd5b8151611cc581611ccc565b5f82611f23577f4e487b71000000000000000000000000000000000000000000000000000000005f52601260045260245ffd5b50049056fea2646970667358221220c93f323163690f89a5f7ab5ed4a389d40f502816513c4bc4d3fcfe1c41d20c0664736f6c634300081c0033",
  "linkReferences": {},
  "deployedLinkReferences": {}
}