{
  "_format": "hh-sol-artifact-1",
  "contractName": "BalanceTrackerFixedPriceNative",
  "sourceName": "contracts/mechs/native/BalanceTrackerFixedPriceNative.sol",
  "abi": [
    {
      "inputs": [
        {
          "internalType": "address",
          "name": "_mechMarketplace",
          "type": "address"
        },
        {
          "internalType": "address",
          "name": "_buyBackBurner",
          "type": "address"
        },
        {
          "internalType": "address",
          "name": "_wrappedNativeToken",
          "type": "address"
        }
      ],
      "stateMutability": "nonpayable",
      "type": "constructor"
    },
    {
      "inputs": [
        {
          "internalType": "uint256",
          "name": "current",
          "type": "uint256"
        },
        {
          "internalType": "uint256",
          "name": "required",
          "type": "uint256"
        }
      ],
      "name": "InsufficientBalance",
      "type": "error"
    },
    {
      "inputs": [
        {
          "internalType": "address",
          "name": "sender",
          "type": "address"
        },
        {
          "internalType": "address",
          "name": "marketplace",
          "type": "address"
        }
      ],
      "name": "MarketplaceOnly",
      "type": "error"
    },
    {
      "inputs": [],
      "name": "ReentrancyGuard",
      "type": "error"
    },
    {
      "inputs": [
        {
          "internalType": "address",
          "name": "token",
          "type": "address"
        },
        {
          "internalType": "address",
          "name": "from",
          "type": "address"
        },
        {
          "internalType": "address",
          "name": "to",
          "type": "address"
        },
        {
          "internalType": "uint256",
          "name": "amount",
          "type": "uint256"
        }
      ],
      "name": "TransferFailed",
      "type": "error"
    },
    {
      "inputs": [
        {
          "internalType": "address",
          "name": "account",
          "type": "address"
        }
      ],
      "name": "UnauthorizedAccount",
      "type": "error"
    },
    {
      "inputs": [],
      "name": "ZeroAddress",
      "type": "error"
    },
    {
      "inputs": [],
      "name": "ZeroValue",
      "type": "error"
    },
    {
      "anonymous": false,
      "inputs": [
        {
          "indexed": true,
          "internalType": "address",
          "name": "account",
          "type": "address"
        },
        {
          "indexed": true,
          "internalType": "address",
          "name": "token",
          "type": "address"
        },
        {
          "indexed": false,
          "internalType": "uint256",
          "name": "amount",
          "type": "uint256"
        }
      ],
      "name": "Deposit",
      "type": "event"
    },
    {
      "anonymous": false,
      "inputs": [
        {
          "indexed": true,
          "internalType": "address",
          "name": "token",
          "type": "address"
        },
        {
          "indexed": false,
          "internalType": "uint256",
          "name": "collectedFees",
          "type": "uint256"
        }
      ],
      "name": "Drained",
      "type": "event"
    },
    {
      "anonymous": false,
      "inputs": [
        {
          "indexed": true,
          "internalType": "address",
          "name": "mech",
          "type": "address"
        },
        {
          "indexed": false,
          "internalType": "uint256",
          "name": "deliveryRate",
          "type": "uint256"
        },
        {
          "indexed": false,
          "internalType": "uint256",
          "name": "balance",
          "type": "uint256"
        },
        {
          "indexed": false,
          "internalType": "uint256",
          "name": "rateDiff",
          "type": "uint256"
        }
      ],
      "name": "MechBalanceAdjusted",
      "type": "event"
    },
    {
      "anonymous": false,
      "inputs": [
        {
          "indexed": true,
          "internalType": "address",
          "name": "requester",
          "type": "address"
        },
        {
          "indexed": false,
          "internalType": "uint256",
          "name": "deliveryRate",
          "type": "uint256"
        },
        {
          "indexed": false,
          "internalType": "uint256",
          "name": "balance",
          "type": "uint256"
        }
      ],
      "name": "RequesterBalanceAdjusted",
      "type": "event"
    },
    {
      "anonymous": false,
      "inputs": [
        {
          "indexed": true,
          "internalType": "address",
          "name": "account",
          "type": "address"
        },
        {
          "indexed": true,
          "internalType": "address",
          "name": "token",
          "type": "address"
        },
        {
          "indexed": false,
          "internalType": "uint256",
          "name": "amount",
          "type": "uint256"
        }
      ],
      "name": "Withdraw",
      "type": "event"
    },
    {
      "inputs": [],
      "name": "MAX_FEE_FACTOR",
      "outputs": [
        {
          "internalType": "uint256",
          "name": "",
          "type": "uint256"
        }
      ],
      "stateMutability": "view",
      "type": "function"
    },
    {
      "inputs": [],
      "name": "MIN_MECH_BALANCE",
      "outputs": [
        {
          "internalType": "uint256",
          "name": "",
          "type": "uint256"
        }
      ],
      "stateMutability": "view",
      "type": "function"
    },
    {
      "inputs": [
        {
          "internalType": "address",
          "name": "mech",
          "type": "address"
        },
        {
          "internalType": "address",
          "name": "requester",
          "type": "address"
        },
        {
          "internalType": "uint256[]",
          "name": "mechDeliveryRates",
          "type": "uint256[]"
        },
        {
          "internalType": "bytes",
          "name": "",
          "type": "bytes"
        }
      ],
      "name": "adjustMechRequesterBalances",
      "outputs": [],
      "stateMutability": "nonpayable",
      "type": "function"
    },
    {
      "inputs": [],
      "name": "buyBackBurner",
      "outputs": [
        {
          "internalType": "address",
          "name": "",
          "type": "address"
        }
      ],
      "stateMutability": "view",
      "type": "function"
    },
    {
      "inputs": [
        {
          "internalType": "address",
          "name": "requester",
          "type": "address"
        },
        {
          "internalType": "uint256",
          "name": "numRequests",
          "type": "uint256"
        },
        {
          "internalType": "uint256",
          "name": "deliveryRate",
          "type": "uint256"
        },
        {
          "internalType": "bytes",
          "name": "paymentData",
          "type": "bytes"
        }
      ],
      "name": "checkAndRecordDeliveryRates",
      "outputs": [],
      "stateMutability": "payable",
      "type": "function"
    },
    {
      "inputs": [],
      "name": "collectedFees",
      "outputs": [
        {
          "internalType": "uint256",
          "name": "",
          "type": "uint256"
        }
      ],
      "stateMutability": "view",
      "type": "function"
    },
    {
      "inputs": [
        {
          "internalType": "address",
          "name": "account",
          "type": "address"
        }
      ],
      "name": "depositFor",
      "outputs": [],
      "stateMutability": "payable",
      "type": "function"
    },
    {
      "inputs": [],
      "name": "drain",
      "outputs": [],
      "stateMutability": "nonpayable",
      "type": "function"
    },
    {
      "inputs": [
        {
          "internalType": "address",
          "name": "mech",
          "type": "address"
        },
        {
          "internalType": "address[]",
          "name": "requesters",
          "type": "address[]"
        },
        {
          "internalType": "bool[]",
          "name": "deliveredRequests",
          "type": "bool[]"
        },
        {
          "internalType": "uint256[]",
          "name": "mechDeliveryRates",
          "type": "uint256[]"
        },
        {
          "internalType": "uint256[]",
          "name": "requesterDeliveryRates",
          "type": "uint256[]"
        }
      ],
      "name": "finalizeDeliveryRates",
      "outputs": [],
      "stateMutability": "nonpayable",
      "type": "function"
    },
    {
      "inputs": [
        {
          "internalType": "address",
          "name": "",
          "type": "address"
        }
      ],
      "name": "mapMechBalances",
      "outputs": [
        {
          "internalType": "uint256",
          "name": "",
          "type": "uint256"
        }
      ],
      "stateMutability": "view",
      "type": "function"
    },
    {
      "inputs": [
        {
          "internalType": "address",
          "name": "",
          "type": "address"
        }
      ],
      "name": "mapRequesterBalances",
      "outputs": [
        {
          "internalType": "uint256",
          "name": "",
          "type": "uint256"
        }
      ],
      "stateMutability": "view",
      "type": "function"
    },
    {
      "inputs": [],
      "name": "mechMarketplace",
      "outputs": [
        {
          "internalType": "address",
          "name": "",
          "type": "address"
        }
      ],
      "stateMutability": "view",
      "type": "function"
    },
    {
      "inputs": [],
      "name": "processPayment",
      "outputs": [
        {
          "internalType": "uint256",
          "name": "mechPayment",
          "type": "uint256"
        },
        {
          "internalType": "uint256",
          "name": "marketplaceFee",
          "type": "uint256"
        }
      ],
      "stateMutability": "nonpayable",
      "type": "function"
    },
    {
      "inputs": [
        {
          "internalType": "address",
          "name": "mech",
          "type": "address"
        }
      ],
      "name": "processPaymentByMultisig",
      "outputs": [
        {
          "internalType": "uint256",
          "name": "mechPayment",
          "type": "uint256"
        },
        {
          "internalType": "uint256",
          "name": "marketplaceFee",
          "type": "uint256"
        }
      ],
      "stateMutability": "nonpayable",
      "type": "function"
    },
    {
      "inputs": [],
      "name": "wrappedNativeToken",
      "outputs": [
        {
          "internalType": "address",
          "name": "",
          "type": "address"
        }
      ],
      "stateMutability": "view",
      "type": "function"
    },
    {
      "stateMutability": "payable",
      "type": "receive"
    }
  ],
  "bytecode": "0x60e060405260018055348015610013575f5ffd5b506040516119a33803806119a3833981016040819052610032916100d0565b82826001600160a01b038216158061005157506001600160a01b038116155b1561006f5760405163d92e233d60e01b815260040160405180910390fd5b6001600160a01b03918216608052811660a05281166100a15760405163d92e233d60e01b815260040160405180910390fd5b6001600160a01b031660c052506101109050565b80516001600160a01b03811681146100cb575f5ffd5b919050565b5f5f5f606084860312156100e2575f5ffd5b6100eb846100b5565b92506100f9602085016100b5565b9150610107604085016100b5565b90509250925092565b60805160a05160c05161182a6101795f395f818161018401528181610fc501528181611032015261123501525f81816102830152610f9601525f81816102de015281816104240152818161048c015281816107d50152818161083d01526110a6015261182a5ff3fe6080604052600436106100e7575f3560e01c8063803551a911610087578063aa67c91911610057578063aa67c91914610300578063af4937fc14610313578063e679803514610328578063f965a87314610353575f5ffd5b8063803551a9146102725780639003adfe146102a55780639890220b146102b95780639c5e9590146102cd575f5ffd5b806338603a39116100c257806338603a39146101f45780636072dd2c146102095780636aeeffa81461022857806379e4afe814610253575f5ffd5b8063163ad7151461014c57806317fcb39b1461017357806322081c12146101cb575f5ffd5b3661014857335f908152600260205260408120805434929061010a9084906112e0565b90915550506040513481525f9033907f5548c837ab068cf56a2c2479df0882a4922fd203edb7517321831d95078c5f629060200160405180910390a3005b5f5ffd5b348015610157575f5ffd5b50610160600281565b6040519081526020015b60405180910390f35b34801561017e575f5ffd5b506101a67f000000000000000000000000000000000000000000000000000000000000000081565b60405173ffffffffffffffffffffffffffffffffffffffff909116815260200161016a565b3480156101d6575f5ffd5b506101df610372565b6040805192835260208301919091520161016a565b610207610202366004611421565b6103cb565b005b348015610214575f5ffd5b5061020761022336600461150b565b610589565b348015610233575f5ffd5b50610160610242366004611578565b60026020525f908152604090205481565b34801561025e575f5ffd5b5061020761026d366004611605565b61077c565b34801561027d575f5ffd5b506101a67f000000000000000000000000000000000000000000000000000000000000000081565b3480156102b0575f5ffd5b506101605f5481565b3480156102c4575f5ffd5b50610207610ae1565b3480156102d8575f5ffd5b506101a67f000000000000000000000000000000000000000000000000000000000000000081565b61020761030e366004611578565b610b72565b34801561031e575f5ffd5b5061016061271081565b348015610333575f5ffd5b50610160610342366004611578565b60036020525f908152604090205481565b34801561035e575f5ffd5b506101df61036d366004611578565b610bfb565b5f5f6001546002036103b0576040517f8beb9d1600000000000000000000000000000000000000000000000000000000815260040160405180910390fd5b60026001556103be33610d19565b6001805590939092509050565b600154600203610407576040517f8beb9d1600000000000000000000000000000000000000000000000000000000815260040160405180910390fd5b60026001553373ffffffffffffffffffffffffffffffffffffffff7f000000000000000000000000000000000000000000000000000000000000000016146104be576040517fe56895c000000000000000000000000000000000000000000000000000000000815233600482015273ffffffffffffffffffffffffffffffffffffffff7f00000000000000000000000000000000000000000000000000000000000000001660248201526044015b60405180910390fd5b5f6104c7610e58565b73ffffffffffffffffffffffffffffffffffffffff86165f90815260026020526040812054919250906104fb9083906112e0565b90505f610508868661172c565b905061051687838387610e9c565b73ffffffffffffffffffffffffffffffffffffffff88165f81815260026020908152604091829020849055815185815290810184905292945090917e572a5ba2b0e6be13dc09fac07a0c06782c5defdef8694b0085972ebdb1201291015b60405180910390a25050600180555050505050565b6001546002036105c5576040517f8beb9d1600000000000000000000000000000000000000000000000000000000815260040160405180910390fd5b60026001555f805b8351811015610605578381815181106105e8576105e8611743565b6020026020010151826105fb91906112e0565b91506001016105cd565b5073ffffffffffffffffffffffffffffffffffffffff84165f908152600260205260409020548181101561066f576040517fcf47918100000000000000000000000000000000000000000000000000000000815260048101829052602481018390526044016104b5565b6106798282611770565b73ffffffffffffffffffffffffffffffffffffffff8087165f908152600260209081526040808320859055928a1682526003905220549091506106bc83826112e0565b73ffffffffffffffffffffffffffffffffffffffff8881165f908152600360209081526040918290208490558151878152908101869052929350908816917e572a5ba2b0e6be13dc09fac07a0c06782c5defdef8694b0085972ebdb12012910160405180910390a260408051848152602081018390525f9181019190915273ffffffffffffffffffffffffffffffffffffffff8816907fd11af879a940c7604caa3933cb8a021f09a06692f4d05a5843fe06a003abed6890606001610574565b6001546002036107b8576040517f8beb9d1600000000000000000000000000000000000000000000000000000000815260040160405180910390fd5b60026001553373ffffffffffffffffffffffffffffffffffffffff7f0000000000000000000000000000000000000000000000000000000000000000161461086a576040517fe56895c000000000000000000000000000000000000000000000000000000000815233600482015273ffffffffffffffffffffffffffffffffffffffff7f00000000000000000000000000000000000000000000000000000000000000001660248201526044016104b5565b82515f808080805b858110156109f95788818151811061088c5761088c611743565b6020026020010151156109f1578781815181106108ab576108ab611743565b6020026020010151846108be91906112e0565b93508681815181106108d2576108d2611743565b6020026020010151836108e591906112e0565b92505f8882815181106108fa576108fa611743565b602002602001015188838151811061091457610914611743565b602002602001015111156109ef5788828151811061093457610934611743565b602002602001015188838151811061094e5761094e611743565b60200260200101516109609190611770565b905061096c81846112e0565b92506109918b838151811061098357610983611743565b602002602001015182610f17565b95508560025f8d85815181106109a9576109a9611743565b602002602001015173ffffffffffffffffffffffffffffffffffffffff1673ffffffffffffffffffffffffffffffffffffffff1681526020019081526020015f20819055505b505b600101610872565b50825f03610a33576040517f7c946ed700000000000000000000000000000000000000000000000000000000815260040160405180910390fd5b73ffffffffffffffffffffffffffffffffffffffff8a165f908152600360205260409020549350610a6483856112e0565b73ffffffffffffffffffffffffffffffffffffffff8b165f818152600360209081526040918290208490558151878152908101849052908101849052919550907fd11af879a940c7604caa3933cb8a021f09a06692f4d05a5843fe06a003abed689060600160405180910390a25050600180555050505050505050565b600154600203610b1d576040517f8beb9d1600000000000000000000000000000000000000000000000000000000815260040160405180910390fd5b60026001555f805490819003610b5f576040517f7c946ed700000000000000000000000000000000000000000000000000000000815260040160405180910390fd5b5f8055610b6b81610f50565b5060018055565b73ffffffffffffffffffffffffffffffffffffffff81165f9081526002602052604081208054349290610ba69084906112e0565b90915550506040513481525f9073ffffffffffffffffffffffffffffffffffffffff8316907f5548c837ab068cf56a2c2479df0882a4922fd203edb7517321831d95078c5f629060200160405180910390a350565b5f5f600154600203610c39576040517f8beb9d1600000000000000000000000000000000000000000000000000000000815260040160405180910390fd5b60026001556040517f6d70f7ae00000000000000000000000000000000000000000000000000000000815233600482015273ffffffffffffffffffffffffffffffffffffffff841690636d70f7ae90602401602060405180830381865afa158015610ca6573d5f5f3e3d5ffd5b505050506040513d601f19601f82011682018060405250810190610cca9190611783565b610d02576040517f32b2baa30000000000000000000000000000000000000000000000000000000081523360048201526024016104b5565b610d0b83610d19565b600180559094909350915050565b73ffffffffffffffffffffffffffffffffffffffff81165f9081526003602052604081205481906002811015610d7b576040517f7c946ed700000000000000000000000000000000000000000000000000000000815260040160405180910390fd5b5f610d846110a3565b9050612710610d94600182611770565b610d9e838561172c565b610da891906112e0565b610db291906117a5565b9250610dbe8383611770565b93505f81118015610dcd575082155b80610dd6575083155b15610e0d576040517f7c946ed700000000000000000000000000000000000000000000000000000000815260040160405180910390fd5b825f5f828254610e1d91906112e0565b909155505073ffffffffffffffffffffffffffffffffffffffff85165f90815260036020526040812055610e518585611136565b5050915091565b5f3415610e97576040513481525f9033907f5548c837ab068cf56a2c2479df0882a4922fd203edb7517321831d95078c5f629060200160405180910390a35b503490565b5f82841015610ec0575f610eb08585611770565b9050610ebc5f866112e0565b9450505b82841015610f04576040517fcf47918100000000000000000000000000000000000000000000000000000000815260048101859052602481018490526044016104b5565b610f0e8385611770565b95945050505050565b73ffffffffffffffffffffffffffffffffffffffff82165f90815260026020526040812054610f479083906112e0565b90505b92915050565b610f5981611233565b6040517fa9059cbb00000000000000000000000000000000000000000000000000000000815273ffffffffffffffffffffffffffffffffffffffff7f000000000000000000000000000000000000000000000000000000000000000081166004830152602482018390527f0000000000000000000000000000000000000000000000000000000000000000169063a9059cbb906044016020604051808303815f875af115801561100b573d5f5f3e3d5ffd5b505050506040513d601f19601f8201168201806040525081019061102f9190611783565b507f000000000000000000000000000000000000000000000000000000000000000073ffffffffffffffffffffffffffffffffffffffff167fb2559daa129ad136aac2133ac6a0c75920abbef7d6663a017a94e181b13786c38260405161109891815260200190565b60405180910390a250565b5f7f000000000000000000000000000000000000000000000000000000000000000073ffffffffffffffffffffffffffffffffffffffff1663ddca3f436040518163ffffffff1660e01b8152600401602060405180830381865afa15801561110d573d5f5f3e3d5ffd5b505050506040513d601f19601f8201168201806040525081019061113191906117dd565b905090565b5f8273ffffffffffffffffffffffffffffffffffffffff16826040515f6040518083038185875af1925050503d805f811461118c576040519150601f19603f3d011682016040523d82523d5f602084013e611191565b606091505b50509050806111f7576040517fcd3f16590000000000000000000000000000000000000000000000000000000081525f600482015230602482015273ffffffffffffffffffffffffffffffffffffffff84166044820152606481018390526084016104b5565b6040518281525f9033907f9b1bfa7fa9ee420a16e124f794c35ac9f90472acc99140eb2f6447c714cad8eb9060200160405180910390a3505050565b7f000000000000000000000000000000000000000000000000000000000000000073ffffffffffffffffffffffffffffffffffffffff1663d0e30db0826040518263ffffffff1660e01b81526004015f604051808303818588803b158015611299575f5ffd5b505af11580156112ab573d5f5f3e3d5ffd5b505050505050565b7f4e487b71000000000000000000000000000000000000000000000000000000005f52601160045260245ffd5b80820180821115610f4a57610f4a6112b3565b803573ffffffffffffffffffffffffffffffffffffffff81168114611316575f5ffd5b919050565b7f4e487b71000000000000000000000000000000000000000000000000000000005f52604160045260245ffd5b604051601f82017fffffffffffffffffffffffffffffffffffffffffffffffffffffffffffffffe016810167ffffffffffffffff8111828210171561138f5761138f61131b565b604052919050565b5f82601f8301126113a6575f5ffd5b813567ffffffffffffffff8111156113c0576113c061131b565b6113f160207fffffffffffffffffffffffffffffffffffffffffffffffffffffffffffffffe0601f84011601611348565b818152846020838601011115611405575f5ffd5b816020850160208301375f918101602001919091529392505050565b5f5f5f5f60808587031215611434575f5ffd5b61143d856112f3565b93506020850135925060408501359150606085013567ffffffffffffffff811115611466575f5ffd5b61147287828801611397565b91505092959194509250565b5f67ffffffffffffffff8211156114975761149761131b565b5060051b60200190565b5f82601f8301126114b0575f5ffd5b81356114c36114be8261147e565b611348565b8082825260208201915060208360051b8601019250858311156114e4575f5ffd5b602085015b838110156115015780358352602092830192016114e9565b5095945050505050565b5f5f5f5f6080858703121561151e575f5ffd5b611527856112f3565b9350611535602086016112f3565b9250604085013567ffffffffffffffff811115611550575f5ffd5b61155c878288016114a1565b925050606085013567ffffffffffffffff811115611466575f5ffd5b5f60208284031215611588575f5ffd5b610f47826112f3565b801515811461159e575f5ffd5b50565b5f82601f8301126115b0575f5ffd5b81356115be6114be8261147e565b8082825260208201915060208360051b8601019250858311156115df575f5ffd5b602085015b838110156115015780356115f781611591565b8352602092830192016115e4565b5f5f5f5f5f60a08688031215611619575f5ffd5b611622866112f3565b9450602086013567ffffffffffffffff81111561163d575f5ffd5b8601601f8101881361164d575f5ffd5b803561165b6114be8261147e565b8082825260208201915060208360051b85010192508a83111561167c575f5ffd5b6020840193505b828410156116a557611694846112f3565b825260209384019390910190611683565b9650505050604086013567ffffffffffffffff8111156116c3575f5ffd5b6116cf888289016115a1565b935050606086013567ffffffffffffffff8111156116eb575f5ffd5b6116f7888289016114a1565b925050608086013567ffffffffffffffff811115611713575f5ffd5b61171f888289016114a1565b9150509295509295909350565b8082028115828204841417610f4a57610f4a6112b3565b7f4e487b71000000000000000000000000000000000000000000000000000000005f52603260045260245ffd5b81810381811115610f4a57610f4a6112b3565b5f60208284031215611793575f5ffd5b815161179e81611591565b9392505050565b5f826117d8577f4e487b71000000000000000000000000000000000000000000000000000000005f52601260045260245ffd5b500490565b5f602082840312156117ed575f5ffd5b505191905056fea26469706673582212200e2ad52e6178eed879ce3af9dfd1fda228c6205202c0c94c2aa44238e1830a7e64736f6c634300081c0033",
  "linkReferences": {},
  "deployedLinkReferences": {}
}