{
  "_format": "hh-sol-artifact-1",
  "contractName": "Karma",
  "sourceName": "contracts/Karma.sol",
  "abi": [
    {
      "inputs": [],
      "name": "AlreadyInitialized",
      "type": "error"
    },
    {
      "inputs": [
        {
          "internalType": "address",
          "name": "sender",
          "type": "address"
        },
        {
          "internalType": "address",
          "name": "owner",
          "type": "address"
        }
      ],
      "name": "OwnerOnly",
      "type": "error"
    },
    {
      "inputs": [
        {
          "internalType": "address",
          "name": "account",
          "type": "address"
        }
      ],
      "name": "UnauthorizedAccount",
      "type": "error"
    },
    {
      "inputs": [
        {
          "internalType": "uint256",
          "name": "numValues1",
          "type": "uint256"
        },
        {
          "internalType": "uint256",
          "name": "numValues2",
          "type": "uint256"
        }
      ],
      "name": "WrongArrayLength",
      "type": "error"
    },
    {
      "inputs": [],
      "name": "ZeroAddress",
      "type": "error"
    },
    {
      "anonymous": false,
      "inputs": [
        {
          "indexed": true,
          "internalType": "address",
          "name": "implementation",
          "type": "address"
        }
      ],
      "name": "ImplementationUpdated",
      "type": "event"
    },
    {
      "anonymous": false,
      "inputs": [
        {
          "indexed": true,
          "internalType": "address",
          "name": "mech",
          "type": "address"
        },
        {
          "indexed": false,
          "internalType": "int256",
          "name": "karmaChange",
          "type": "int256"
        }
      ],
      "name": "MechKarmaChanged",
      "type": "event"
    },
    {
      "anonymous": false,
      "inputs": [
        {
          "indexed": true,
          "internalType": "address",
          "name": "owner",
          "type": "address"
        }
      ],
      "name": "OwnerUpdated",
      "type": "event"
    },
    {
      "anonymous": false,
      "inputs": [
        {
          "indexed": true,
          "internalType": "address",
          "name": "requester",
          "type": "address"
        },
        {
          "indexed": true,
          "internalType": "address",
          "name": "mech",
          "type": "address"
        },
        {
          "indexed": false,
          "internalType": "int256",
          "name": "karmaChange",
          "type": "int256"
        }
      ],
      "name": "RequesterMechKarmaChanged",
      "type": "event"
    },
    {
      "anonymous": false,
      "inputs": [
        {
          "indexed": false,
          "internalType": "address[]",
          "name": "mechMarketplaces",
          "type": "address[]"
        },
        {
          "indexed": false,
          "internalType": "bool[]",
          "name": "statuses",
          "type": "bool[]"
        }
      ],
      "name": "SetMechMarketplaceStatuses",
      "type": "event"
    },
    {
      "inputs": [],
      "name": "KARMA_PROXY",
      "outputs": [
        {
          "internalType": "bytes32",
          "name": "",
          "type": "bytes32"
        }
      ],
      "stateMutability": "view",
      "type": "function"
    },
    {
      "inputs": [],
      "name": "VERSION",
      "outputs": [
        {
          "internalType": "string",
          "name": "",
          "type": "string"
        }
      ],
      "stateMutability": "view",
      "type": "function"
    },
    {
      "inputs": [
        {
          "internalType": "address",
          "name": "newImplementation",
          "type": "address"
        }
      ],
      "name": "changeImplementation",
      "outputs": [],
      "stateMutability": "nonpayable",
      "type": "function"
    },
    {
      "inputs": [
        {
          "internalType": "address",
          "name": "mech",
          "type": "address"
        },
        {
          "internalType": "int256",
          "name": "karmaChange",
          "type": "int256"
        }
      ],
      "name": "changeMechKarma",
      "outputs": [],
      "stateMutability": "nonpayable",
      "type": "function"
    },
    {
      "inputs": [
        {
          "internalType": "address",
          "name": "newOwner",
          "type": "address"
        }
      ],
      "name": "changeOwner",
      "outputs": [],
      "stateMutability": "nonpayable",
      "type": "function"
    },
    {
      "inputs": [
        {
          "internalType": "address",
          "name": "requester",
          "type": "address"
        },
        {
          "internalType": "address",
          "name": "mech",
          "type": "address"
        },
        {
          "internalType": "int256",
          "name": "karmaChange",
          "type": "int256"
        }
      ],
      "name": "changeRequesterMechKarma",
      "outputs": [],
      "stateMutability": "nonpayable",
      "type": "function"
    },
    {
      "inputs": [],
      "name": "getImplementation",
      "outputs": [
        {
          "internalType": "address",
          "name": "implementation",
          "type": "address"
        }
      ],
      "stateMutability": "view",
      "type": "function"
    },
    {
      "inputs": [],
      "name": "initialize",
      "outputs": [],
      "stateMutability": "nonpayable",
      "type": "function"
    },
    {
      "inputs": [
        {
          "internalType": "address",
          "name": "",
          "type": "address"
        }
      ],
      "name": "mapMechKarma",
      "outputs": [
        {
          "internalType": "int256",
          "name": "",
          "type": "int256"
        }
      ],
      "stateMutability": "view",
      "type": "function"
    },
    {
      "inputs": [
        {
          "internalType": "address",
          "name": "",
          "type": "address"
        }
      ],
      "name": "mapMechMarketplaces",
      "outputs": [
        {
          "internalType": "bool",
          "name": "",
          "type": "bool"
        }
      ],
      "stateMutability": "view",
      "type": "function"
    },
    {
      "inputs": [
        {
          "internalType": "address",
          "name": "",
          "type": "address"
        },
        {
          "internalType": "address",
          "name": "",
          "type": "address"
        }
      ],
      "name": "mapRequesterMechKarma",
      "outputs": [
        {
          "internalType": "int256",
          "name": "",
          "type": "int256"
        }
      ],
      "stateMutability": "view",
      "type": "function"
    },
    {
      "inputs": [],
      "name": "owner",
      "outputs": [
        {
          "internalType": "address",
          "name": "",
          "type": "address"
        }
      ],
      "stateMutability": "view",
      "type": "function"
    },
    {
      "inputs": [
        {
          "internalType": "address[]",
          "name": "mechMarketplaces",
          "type": "address[]"
        },
        {
          "internalType": "bool[]",
          "name": "statuses",
          "type": "bool[]"
        }
      ],
      "name": "setMechMarketplaceStatuses",
      "outputs": [],
      "stateMutability": "nonpayable",
      "type": "function"
    }
  ],
  "bytecode": "0x6080604052348015600e575f5ffd5b50610db18061001c5f395ff3fe608060405234801561000f575f5ffd5b50600436106100da575f3560e01c80638129fc1c11610088578063a6f9dae111610063578063a6f9dae114610206578063aaf10f4214610219578063fc3aecd014610240578063ffa1ad7414610267575f5ffd5b80638129fc1c1461019b5780638da5cb5b146101a35780639ecfd0ef146101e7575f5ffd5b80634225d37a116100b85780634225d37a1461014357806355e7d04414610156578063643f28d914610169575f5ffd5b80630aa4a379146100de57806317a68dd8146100f357806330a2c84314610106575b5f5ffd5b6100f16100ec366004610aa1565b6102b0565b005b6100f1610101366004610b64565b6104c8565b610130610114366004610b84565b600360209081525f928352604080842090915290825290205481565b6040519081526020015b60405180910390f35b6100f1610151366004610bb5565b6105ed565b6100f1610164366004610bdd565b6106bf565b61018b610177366004610b64565b60016020525f908152604090205460ff1681565b604051901515815260200161013a565b6100f16107bf565b5f546101c29073ffffffffffffffffffffffffffffffffffffffff1681565b60405173ffffffffffffffffffffffffffffffffffffffff909116815260200161013a565b6101306101f5366004610b64565b60026020525f908152604090205481565b6100f1610214366004610b64565b610839565b7f1e4b6d67098d4183ce03b91c95f9376a98c5440ec22f2cf171d6dca04a5a29d8546101c2565b6101307f1e4b6d67098d4183ce03b91c95f9376a98c5440ec22f2cf171d6dca04a5a29d881565b6102a36040518060400160405280600581526020017f312e302e3000000000000000000000000000000000000000000000000000000081525081565b60405161013a9190610c17565b5f5473ffffffffffffffffffffffffffffffffffffffff163314610326575f546040517fa43d6ada00000000000000000000000000000000000000000000000000000000815233600482015273ffffffffffffffffffffffffffffffffffffffff90911660248201526044015b60405180910390fd5b805182511461036e57815181516040517f8151c1100000000000000000000000000000000000000000000000000000000081526004810192909252602482015260440161031d565b5f5b825181101561048a575f73ffffffffffffffffffffffffffffffffffffffff168382815181106103a2576103a2610c6a565b602002602001015173ffffffffffffffffffffffffffffffffffffffff16036103f7576040517fd92e233d00000000000000000000000000000000000000000000000000000000815260040160405180910390fd5b81818151811061040957610409610c6a565b602002602001015160015f85848151811061042657610426610c6a565b60209081029190910181015173ffffffffffffffffffffffffffffffffffffffff1682528101919091526040015f2080547fffffffffffffffffffffffffffffffffffffffffffffffffffffffffffffff0016911515919091179055600101610370565b507fa643ff1a5a85bb4fd8c0288e824ec47c8cd49401b14544c4bcb2f40ec8adda6982826040516104bc929190610c97565b60405180910390a15050565b5f5473ffffffffffffffffffffffffffffffffffffffff163314610539575f546040517fa43d6ada00000000000000000000000000000000000000000000000000000000815233600482015273ffffffffffffffffffffffffffffffffffffffff909116602482015260440161031d565b73ffffffffffffffffffffffffffffffffffffffff8116610586576040517fd92e233d00000000000000000000000000000000000000000000000000000000815260040160405180910390fd5b7f1e4b6d67098d4183ce03b91c95f9376a98c5440ec22f2cf171d6dca04a5a29d881905560405173ffffffffffffffffffffffffffffffffffffffff8216907f310ba5f1d2ed074b51e2eccd052a47ae9ab7c6b800d1fca3db3999d6a592ca03905f90a250565b335f9081526001602052604090205460ff16610637576040517f32b2baa300000000000000000000000000000000000000000000000000000000815233600482015260240161031d565b73ffffffffffffffffffffffffffffffffffffffff82165f908152600260205260408120805483929061066b908490610d2f565b909155505060405181815273ffffffffffffffffffffffffffffffffffffffff8316907f417740bdbf75bcc9cd063a95c8af25366c2a27f49d23d5eeafc2db269143af5f9060200160405180910390a25050565b335f9081526001602052604090205460ff16610709576040517f32b2baa300000000000000000000000000000000000000000000000000000000815233600482015260240161031d565b73ffffffffffffffffffffffffffffffffffffffff8084165f9081526003602090815260408083209386168352929052908120805483929061074c908490610d2f565b925050819055508173ffffffffffffffffffffffffffffffffffffffff168373ffffffffffffffffffffffffffffffffffffffff167f3df02d68ad731eb0c4caab8f9424137610f574d333c6a00ce3e0ef6b6d032ba4836040516107b291815260200190565b60405180910390a3505050565b5f5473ffffffffffffffffffffffffffffffffffffffff161561080e576040517f0dc149f000000000000000000000000000000000000000000000000000000000815260040160405180910390fd5b5f80547fffffffffffffffffffffffff00000000000000000000000000000000000000001633179055565b5f5473ffffffffffffffffffffffffffffffffffffffff1633146108aa575f546040517fa43d6ada00000000000000000000000000000000000000000000000000000000815233600482015273ffffffffffffffffffffffffffffffffffffffff909116602482015260440161031d565b73ffffffffffffffffffffffffffffffffffffffff81166108f7576040517fd92e233d00000000000000000000000000000000000000000000000000000000815260040160405180910390fd5b5f80547fffffffffffffffffffffffff00000000000000000000000000000000000000001673ffffffffffffffffffffffffffffffffffffffff8316908117825560405190917f4ffd725fc4a22075e9ec71c59edf9c38cdeb588a91b24fc5b61388c5be41282b91a250565b7f4e487b71000000000000000000000000000000000000000000000000000000005f52604160045260245ffd5b604051601f82017fffffffffffffffffffffffffffffffffffffffffffffffffffffffffffffffe016810167ffffffffffffffff811182821017156109d7576109d7610963565b604052919050565b5f67ffffffffffffffff8211156109f8576109f8610963565b5060051b60200190565b803573ffffffffffffffffffffffffffffffffffffffff81168114610a25575f5ffd5b919050565b5f82601f830112610a39575f5ffd5b8135610a4c610a47826109df565b610990565b8082825260208201915060208360051b860101925085831115610a6d575f5ffd5b602085015b83811015610a975780358015158114610a89575f5ffd5b835260209283019201610a72565b5095945050505050565b5f5f60408385031215610ab2575f5ffd5b823567ffffffffffffffff811115610ac8575f5ffd5b8301601f81018513610ad8575f5ffd5b8035610ae6610a47826109df565b8082825260208201915060208360051b850101925087831115610b07575f5ffd5b6020840193505b82841015610b3057610b1f84610a02565b825260209384019390910190610b0e565b9450505050602083013567ffffffffffffffff811115610b4e575f5ffd5b610b5a85828601610a2a565b9150509250929050565b5f60208284031215610b74575f5ffd5b610b7d82610a02565b9392505050565b5f5f60408385031215610b95575f5ffd5b610b9e83610a02565b9150610bac60208401610a02565b90509250929050565b5f5f60408385031215610bc6575f5ffd5b610bcf83610a02565b946020939093013593505050565b5f5f5f60608486031215610bef575f5ffd5b610bf884610a02565b9250610c0660208501610a02565b929592945050506040919091013590565b602081525f82518060208401528060208501604085015e5f6040828501015260407fffffffffffffffffffffffffffffffffffffffffffffffffffffffffffffffe0601f83011684010191505092915050565b7f4e487b71000000000000000000000000000000000000000000000000000000005f52603260045260245ffd5b604080825283519082018190525f9060208501906060840190835b81811015610ce657835173ffffffffffffffffffffffffffffffffffffffff16835260209384019390920191600101610cb2565b5050838103602080860191909152855180835291810192508501905f5b81811015610d235782511515845260209384019390920191600101610d03565b50919695505050505050565b8082018281125f831280158216821582161715610d73577f4e487b71000000000000000000000000000000000000000000000000000000005f52601160045260245ffd5b50509291505056fea26469706673582212205136f6d55e626592aa0ba550233413009045fbdee203b4a62fd1450476ef353c64736f6c634300081c0033",
  "linkReferences": {},
  "deployedLinkReferences": {}
}