{
  "_format": "hh-sol-artifact-1",
  "contractName": "MechNvmSubscriptionNative",
  "sourceName": "contracts/mechs/nevermined/MechNvmSubscriptionNative.sol",
  "abi": [
    {
      "inputs": [
        {
          "internalType": "address",
          "name": "_mechMarketplace",
          "type": "address"
        },
        {
          "internalType": "address",
          "name": "_serviceRegistry",
          "type": "address"
        },
        {
          "internalType": "uint256",
          "name": "_serviceId",
          "type": "uint256"
        },
        {
          "internalType": "uint256",
          "name": "_maxDeliveryRate",
          "type": "uint256"
        }
      ],
      "stateMutability": "nonpayable",
      "type": "constructor"
    },
    {
      "inputs": [],
      "name": "AlreadyInitialized",
      "type": "error"
    },
    {
      "inputs": [
        {
          "internalType": "address",
          "name": "sender",
          "type": "address"
        },
        {
          "internalType": "address",
          "name": "marketplace",
          "type": "address"
        }
      ],
      "name": "MarketplaceOnly",
      "type": "error"
    },
    {
      "inputs": [
        {
          "internalType": "uint256",
          "name": "provided",
          "type": "uint256"
        },
        {
          "internalType": "uint256",
          "name": "max",
          "type": "uint256"
        }
      ],
      "name": "Overflow",
      "type": "error"
    },
    {
      "inputs": [],
      "name": "ReentrancyGuard",
      "type": "error"
    },
    {
      "inputs": [
        {
          "internalType": "uint256",
          "name": "numValues1",
          "type": "uint256"
        },
        {
          "internalType": "uint256",
          "name": "numValues2",
          "type": "uint256"
        }
      ],
      "name": "WrongArrayLength",
      "type": "error"
    },
    {
      "inputs": [
        {
          "internalType": "uint256",
          "name": "state",
          "type": "uint256"
        },
        {
          "internalType": "uint256",
          "name": "serviceId",
          "type": "uint256"
        }
      ],
      "name": "WrongServiceState",
      "type": "error"
    },
    {
      "inputs": [],
      "name": "ZeroAddress",
      "type": "error"
    },
    {
      "inputs": [],
      "name": "ZeroValue",
      "type": "error"
    },
    {
      "anonymous": false,
      "inputs": [
        {
          "indexed": true,
          "internalType": "address",
          "name": "mech",
          "type": "address"
        },
        {
          "indexed": true,
          "internalType": "address",
          "name": "mechServiceMultisig",
          "type": "address"
        },
        {
          "indexed": false,
          "internalType": "bytes32",
          "name": "requestId",
          "type": "bytes32"
        },
        {
          "indexed": false,
          "internalType": "uint256",
          "name": "deliveryRate",
          "type": "uint256"
        },
        {
          "indexed": false,
          "internalType": "bytes",
          "name": "data",
          "type": "bytes"
        }
      ],
      "name": "Deliver",
      "type": "event"
    },
    {
      "anonymous": false,
      "inputs": [
        {
          "indexed": false,
          "internalType": "uint256",
          "name": "maxDeliveryRate",
          "type": "uint256"
        }
      ],
      "name": "MaxDeliveryRateUpdated",
      "type": "event"
    },
    {
      "anonymous": false,
      "inputs": [
        {
          "indexed": false,
          "internalType": "uint256",
          "name": "numRequests",
          "type": "uint256"
        }
      ],
      "name": "NumRequestsIncrease",
      "type": "event"
    },
    {
      "anonymous": false,
      "inputs": [
        {
          "indexed": true,
          "internalType": "address",
          "name": "mech",
          "type": "address"
        },
        {
          "indexed": false,
          "internalType": "bytes32",
          "name": "requestId",
          "type": "bytes32"
        },
        {
          "indexed": false,
          "internalType": "bytes",
          "name": "data",
          "type": "bytes"
        }
      ],
      "name": "Request",
      "type": "event"
    },
    {
      "anonymous": false,
      "inputs": [
        {
          "indexed": true,
          "internalType": "bytes32",
          "name": "requestId",
          "type": "bytes32"
        },
        {
          "indexed": false,
          "internalType": "uint256",
          "name": "deliveryRate",
          "type": "uint256"
        }
      ],
      "name": "RequestRateFinalized",
      "type": "event"
    },
    {
      "anonymous": false,
      "inputs": [
        {
          "indexed": false,
          "internalType": "bytes32",
          "name": "requestId",
          "type": "bytes32"
        }
      ],
      "name": "RevokeRequest",
      "type": "event"
    },
    {
      "inputs": [],
      "name": "PAYMENT_TYPE",
      "outputs": [
        {
          "internalType": "bytes32",
          "name": "",
          "type": "bytes32"
        }
      ],
      "stateMutability": "view",
      "type": "function"
    },
    {
      "inputs": [],
      "name": "VERSION",
      "outputs": [
        {
          "internalType": "string",
          "name": "",
          "type": "string"
        }
      ],
      "stateMutability": "view",
      "type": "function"
    },
    {
      "inputs": [
        {
          "internalType": "uint256",
          "name": "newMaxDeliveryRate",
          "type": "uint256"
        }
      ],
      "name": "changeMaxDeliveryRate",
      "outputs": [],
      "stateMutability": "nonpayable",
      "type": "function"
    },
    {
      "inputs": [
        {
          "internalType": "address",
          "name": "requester",
          "type": "address"
        },
        {
          "components": [
            {
              "internalType": "bytes",
              "name": "requestData",
              "type": "bytes"
            },
            {
              "internalType": "bytes",
              "name": "signature",
              "type": "bytes"
            },
            {
              "internalType": "bytes",
              "name": "deliveryData",
              "type": "bytes"
            }
          ],
          "internalType": "struct DeliverWithSignature[]",
          "name": "deliverWithSignatures",
          "type": "tuple[]"
        },
        {
          "internalType": "uint256[]",
          "name": "deliveryRates",
          "type": "uint256[]"
        },
        {
          "internalType": "bytes",
          "name": "paymentData",
          "type": "bytes"
        }
      ],
      "name": "deliverMarketplaceWithSignatures",
      "outputs": [],
      "stateMutability": "nonpayable",
      "type": "function"
    },
    {
      "inputs": [
        {
          "internalType": "bytes32[]",
          "name": "requestIds",
          "type": "bytes32[]"
        },
        {
          "internalType": "bytes[]",
          "name": "datas",
          "type": "bytes[]"
        }
      ],
      "name": "deliverToMarketplace",
      "outputs": [
        {
          "internalType": "bool[]",
          "name": "deliveredRequests",
          "type": "bool[]"
        }
      ],
      "stateMutability": "nonpayable",
      "type": "function"
    },
    {
      "inputs": [],
      "name": "entryPoint",
      "outputs": [
        {
          "internalType": "contract IEntryPoint",
          "name": "",
          "type": "address"
        }
      ],
      "stateMutability": "view",
      "type": "function"
    },
    {
      "inputs": [
        {
          "internalType": "address",
          "name": "to",
          "type": "address"
        },
        {
          "internalType": "uint256",
          "name": "value",
          "type": "uint256"
        },
        {
          "internalType": "bytes",
          "name": "data",
          "type": "bytes"
        },
        {
          "internalType": "enum Enum.Operation",
          "name": "operation",
          "type": "uint8"
        },
        {
          "internalType": "uint256",
          "name": "txGas",
          "type": "uint256"
        }
      ],
      "name": "exec",
      "outputs": [
        {
          "internalType": "bytes",
          "name": "returnData",
          "type": "bytes"
        }
      ],
      "stateMutability": "nonpayable",
      "type": "function"
    },
    {
      "inputs": [],
      "name": "getOperator",
      "outputs": [
        {
          "internalType": "address",
          "name": "",
          "type": "address"
        }
      ],
      "stateMutability": "view",
      "type": "function"
    },
    {
      "inputs": [
        {
          "internalType": "uint256",
          "name": "size",
          "type": "uint256"
        },
        {
          "internalType": "uint256",
          "name": "offset",
          "type": "uint256"
        }
      ],
      "name": "getUndeliveredRequestIds",
      "outputs": [
        {
          "internalType": "bytes32[]",
          "name": "requestIds",
          "type": "bytes32[]"
        }
      ],
      "stateMutability": "view",
      "type": "function"
    },
    {
      "inputs": [
        {
          "internalType": "address",
          "name": "multisig",
          "type": "address"
        }
      ],
      "name": "isOperator",
      "outputs": [
        {
          "internalType": "bool",
          "name": "",
          "type": "bool"
        }
      ],
      "stateMutability": "view",
      "type": "function"
    },
    {
      "inputs": [
        {
          "internalType": "bytes32",
          "name": "hash",
          "type": "bytes32"
        },
        {
          "internalType": "bytes",
          "name": "signature",
          "type": "bytes"
        }
      ],
      "name": "isValidSignature",
      "outputs": [
        {
          "internalType": "bytes4",
          "name": "magicValue",
          "type": "bytes4"
        }
      ],
      "stateMutability": "view",
      "type": "function"
    },
    {
      "inputs": [
        {
          "internalType": "bytes32",
          "name": "",
          "type": "bytes32"
        },
        {
          "internalType": "uint256",
          "name": "",
          "type": "uint256"
        }
      ],
      "name": "mapRequestIds",
      "outputs": [
        {
          "internalType": "bytes32",
          "name": "",
          "type": "bytes32"
        }
      ],
      "stateMutability": "view",
      "type": "function"
    },
    {
      "inputs": [],
      "name": "maxDeliveryRate",
      "outputs": [
        {
          "internalType": "uint256",
          "name": "",
          "type": "uint256"
        }
      ],
      "stateMutability": "view",
      "type": "function"
    },
    {
      "inputs": [],
      "name": "mechMarketplace",
      "outputs": [
        {
          "internalType": "address",
          "name": "",
          "type": "address"
        }
      ],
      "stateMutability": "view",
      "type": "function"
    },
    {
      "inputs": [],
      "name": "nonce",
      "outputs": [
        {
          "internalType": "uint256",
          "name": "",
          "type": "uint256"
        }
      ],
      "stateMutability": "view",
      "type": "function"
    },
    {
      "inputs": [],
      "name": "numTotalDeliveries",
      "outputs": [
        {
          "internalType": "uint256",
          "name": "",
          "type": "uint256"
        }
      ],
      "stateMutability": "view",
      "type": "function"
    },
    {
      "inputs": [],
      "name": "numTotalRequests",
      "outputs": [
        {
          "internalType": "uint256",
          "name": "",
          "type": "uint256"
        }
      ],
      "stateMutability": "view",
      "type": "function"
    },
    {
      "inputs": [],
      "name": "numUndeliveredRequests",
      "outputs": [
        {
          "internalType": "uint256",
          "name": "",
          "type": "uint256"
        }
      ],
      "stateMutability": "view",
      "type": "function"
    },
    {
      "inputs": [
        {
          "internalType": "address",
          "name": "",
          "type": "address"
        },
        {
          "internalType": "address",
          "name": "",
          "type": "address"
        },
        {
          "internalType": "uint256[]",
          "name": "",
          "type": "uint256[]"
        },
        {
          "internalType": "uint256[]",
          "name": "",
          "type": "uint256[]"
        },
        {
          "internalType": "bytes",
          "name": "",
          "type": "bytes"
        }
      ],
      "name": "onERC1155BatchReceived",
      "outputs": [
        {
          "internalType": "bytes4",
          "name": "",
          "type": "bytes4"
        }
      ],
      "stateMutability": "pure",
      "type": "function"
    },
    {
      "inputs": [
        {
          "internalType": "address",
          "name": "",
          "type": "address"
        },
        {
          "internalType": "address",
          "name": "",
          "type": "address"
        },
        {
          "internalType": "uint256",
          "name": "",
          "type": "uint256"
        },
        {
          "internalType": "uint256",
          "name": "",
          "type": "uint256"
        },
        {
          "internalType": "bytes",
          "name": "",
          "type": "bytes"
        }
      ],
      "name": "onERC1155Received",
      "outputs": [
        {
          "internalType": "bytes4",
          "name": "",
          "type": "bytes4"
        }
      ],
      "stateMutability": "pure",
      "type": "function"
    },
    {
      "inputs": [
        {
          "internalType": "address",
          "name": "",
          "type": "address"
        },
        {
          "internalType": "address",
          "name": "",
          "type": "address"
        },
        {
          "internalType": "uint256",
          "name": "",
          "type": "uint256"
        },
        {
          "internalType": "bytes",
          "name": "",
          "type": "bytes"
        }
      ],
      "name": "onERC721Received",
      "outputs": [
        {
          "internalType": "bytes4",
          "name": "",
          "type": "bytes4"
        }
      ],
      "stateMutability": "pure",
      "type": "function"
    },
    {
      "inputs": [],
      "name": "paymentType",
      "outputs": [
        {
          "internalType": "bytes32",
          "name": "",
          "type": "bytes32"
        }
      ],
      "stateMutability": "view",
      "type": "function"
    },
    {
      "inputs": [
        {
          "internalType": "bytes32[]",
          "name": "requestIds",
          "type": "bytes32[]"
        },
        {
          "internalType": "bytes[]",
          "name": "datas",
          "type": "bytes[]"
        }
      ],
      "name": "requestFromMarketplace",
      "outputs": [],
      "stateMutability": "nonpayable",
      "type": "function"
    },
    {
      "inputs": [],
      "name": "serviceId",
      "outputs": [
        {
          "internalType": "uint256",
          "name": "",
          "type": "uint256"
        }
      ],
      "stateMutability": "view",
      "type": "function"
    },
    {
      "inputs": [],
      "name": "serviceRegistry",
      "outputs": [
        {
          "internalType": "address",
          "name": "",
          "type": "address"
        }
      ],
      "stateMutability": "view",
      "type": "function"
    },
    {
      "inputs": [
        {
          "internalType": "bytes",
          "name": "initParams",
          "type": "bytes"
        }
      ],
      "name": "setUp",
      "outputs": [],
      "stateMutability": "nonpayable",
      "type": "function"
    },
    {
      "inputs": [],
      "name": "token",
      "outputs": [
        {
          "internalType": "address",
          "name": "",
          "type": "address"
        }
      ],
      "stateMutability": "view",
      "type": "function"
    },
    {
      "inputs": [],
      "name": "tokenId",
      "outputs": [
        {
          "internalType": "uint256",
          "name": "",
          "type": "uint256"
        }
      ],
      "stateMutability": "view",
      "type": "function"
    },
    {
      "inputs": [
        {
          "internalType": "address",
          "name": "",
          "type": "address"
        },
        {
          "internalType": "address",
          "name": "",
          "type": "address"
        },
        {
          "internalType": "address",
          "name": "",
          "type": "address"
        },
        {
          "internalType": "uint256",
          "name": "",
          "type": "uint256"
        },
        {
          "internalType": "bytes",
          "name": "",
          "type": "bytes"
        },
        {
          "internalType": "bytes",
          "name": "",
          "type": "bytes"
        }
      ],
      "name": "tokensReceived",
      "outputs": [],
      "stateMutability": "pure",
      "type": "function"
    },
    {
      "inputs": [
        {
          "internalType": "uint256",
          "name": "numRequests",
          "type": "uint256"
        }
      ],
      "name": "updateNumRequests",
      "outputs": [],
      "stateMutability": "nonpayable",
      "type": "function"
    },
    {
      "inputs": [
        {
          "components": [
            {
              "internalType": "address",
              "name": "sender",
              "type": "address"
            },
            {
              "internalType": "uint256",
              "name": "nonce",
              "type": "uint256"
            },
            {
              "internalType": "bytes",
              "name": "initCode",
              "type": "bytes"
            },
            {
              "internalType": "bytes",
              "name": "callData",
              "type": "bytes"
            },
            {
              "internalType": "uint256",
              "name": "callGasLimit",
              "type": "uint256"
            },
            {
              "internalType": "uint256",
              "name": "verificationGasLimit",
              "type": "uint256"
            },
            {
              "internalType": "uint256",
              "name": "preVerificationGas",
              "type": "uint256"
            },
            {
              "internalType": "uint256",
              "name": "maxFeePerGas",
              "type": "uint256"
            },
            {
              "internalType": "uint256",
              "name": "maxPriorityFeePerGas",
              "type": "uint256"
            },
            {
              "internalType": "bytes",
              "name": "paymasterAndData",
              "type": "bytes"
            },
            {
              "internalType": "bytes",
              "name": "signature",
              "type": "bytes"
            }
          ],
          "internalType": "struct UserOperation",
          "name": "userOp",
          "type": "tuple"
        },
        {
          "internalType": "bytes32",
          "name": "userOpHash",
          "type": "bytes32"
        },
        {
          "internalType": "uint256",
          "name": "missingAccountFunds",
          "type": "uint256"
        }
      ],
      "name": "validateUserOp",
      "outputs": [
        {
          "internalType": "uint256",
          "name": "validationData",
          "type": "uint256"
        }
      ],
      "stateMutability": "nonpayable",
      "type": "function"
    },
    {
      "stateMutability": "payable",
      "type": "receive"
    }
  ],
  "bytecode": "0x6101006040525f5f556001600555348015610018575f5ffd5b506040516136973803806136978339810160408190526100379161043d565b838383837f803dd08fe79d91027fc9024e254a0942372b92f3ccabc1bd19f4a5c2b251c3166001600160a01b0385166100835760405163d92e233d60e01b815260040160405180910390fd5b6001600160a01b0384166100aa5760405163d92e233d60e01b815260040160405180910390fd5b8215806100b5575081155b806100be575080155b156100dc57604051637c946ed760e01b815260040160405180910390fd5b604051630846d5ff60e31b8152600481018490525f9081906001600160a01b03871690634236aff89060240160e060405180830381865afa158015610123573d5f5f3e3d5ffd5b505050506040513d601f19601f820116820180604052508101906101479190610490565b9650505050509250505f6001600160a01b0316826001600160a01b0316036101825760405163d92e233d60e01b815260040160405180910390fd5b60048160058111156101965761019661051e565b146101d6578060058111156101ad576101ad61051e565b604051633c053f9d60e21b81526004810191909152602481018690526044015b60405180910390fd5b604080516001600160a01b0388166020820152808201879052815180820383018152606090910190915261020981610237565b5050506001600160a01b039485166080529290931660a05260c05260019190915560e052506105c592505050565b61023f610269565b511561025d5760405162dc149f60e41b815260040160405180910390fd5b610266816102d1565b50565b60606102cc6102c7604051606b60f91b6020820152602560fa1b60218201526001600160601b03193060601b166022820152600160f81b60368201525f90603701604051602081830303815290604052805190602001205f1c905090565b610395565b905090565b5f6102db826103ea565b90505f8151602083015ff09050610341604051606b60f91b6020820152602560fa1b60218201526001600160601b03193060601b166022820152600160f81b60368201525f90603701604051602081830303815290604052805190602001205f1c905090565b6001600160a01b0316816001600160a01b0316146103905760405162461bcd60e51b815260206004820152600c60248201526b15dc9a5d194819985a5b195960a21b60448201526064016101cd565b505050565b6060813b600181116103b657505060408051602081019091525f8152919050565b806103c081610546565b9150506040519150601f19601f602083010116820160405280825280600160208401853c50919050565b6060815160016103fa919061055b565b8260405160200161040c929190610574565b6040516020818303038152906040529050919050565b80516001600160a01b0381168114610438575f5ffd5b919050565b5f5f5f5f60808587031215610450575f5ffd5b61045985610422565b935061046760208601610422565b6040860151606090960151949790965092505050565b805163ffffffff81168114610438575f5ffd5b5f5f5f5f5f5f5f60e0888a0312156104a6575f5ffd5b87516001600160601b03811681146104bc575f5ffd5b96506104ca60208901610422565b9550604088015194506104df6060890161047d565b93506104ed6080890161047d565b92506104fb60a0890161047d565b915060c08801516006811061050e575f5ffd5b8091505092959891949750929550565b634e487b7160e01b5f52602160045260245ffd5b634e487b7160e01b5f52601160045260245ffd5b5f8161055457610554610532565b505f190190565b8082018082111561056e5761056e610532565b92915050565b606360f81b815260e083901b6001600160e01b03191660018201526880600e6000396000f360b81b60058201525f600e820181905282518060208501600f85015e5f9201600f019182525092915050565b60805160a05160c05160e0516130526106455f395f61030701525f81816102c801528181610606015281816113fe015261151d01525f81816105d3015281816106c2015261143f01525f818161044801528181610b3101528181610ed1015281816110cc0152818161113401528181611223015261128b01526130525ff3fe6080604052600436106101d1575f3560e01c8063a4f9edbf116100fd578063c7dec3fc11610092578063ecf050e311610062578063ecf050e31461063c578063f23a6e611461066f578063fc0c546a146106b4578063ffa1ad74146106e6575f5ffd5b8063c7dec3fc14610596578063cbcf252a146105c2578063da20ec6a146105f5578063e7f43c6814610628575f5ffd5b8063bc197c81116100cd578063bc197c81146104fc578063bdf8631714610543578063be2641de14610558578063c2825d9214610577575f5ffd5b8063a4f9edbf1461048f578063a669aaf9146104ae578063affed0e0146104c3578063b0d691fe146104d6575f5ffd5b80633a871cdd116101735780636d70f7ae116101435780636d70f7ae146103bd5780636f6885bb146103ec5780639680b603146104185780639c5e959014610437575f5ffd5b80633a871cdd1461033e5780634ada3e611461035d5780634e894dd11461037257806358ce090914610391575f5ffd5b80631626ba7e116101ae5780631626ba7e1461029b57806317d70f7c146102ba5780632763b8da146102f65780632cc0fcb214610329575f5ffd5b806223de29146101dc578062f20c7114610202578063150b7a0214610221575f5ffd5b366101d857005b5f5ffd5b3480156101e7575f5ffd5b506102006101f6366004612251565b5050505050505050565b005b34801561020d575f5ffd5b5061020061021c366004612300565b61072e565b34801561022c575f5ffd5b5061026561023b366004612317565b7f150b7a020000000000000000000000000000000000000000000000000000000095945050505050565b6040517fffffffff0000000000000000000000000000000000000000000000000000000090911681526020015b60405180910390f35b3480156102a6575f5ffd5b506102656102b536600461248b565b61085b565b3480156102c5575f5ffd5b507f00000000000000000000000000000000000000000000000000000000000000005b604051908152602001610292565b348015610301575f5ffd5b506102e87f000000000000000000000000000000000000000000000000000000000000000081565b348015610334575f5ffd5b506102e860015481565b348015610349575f5ffd5b506102e86103583660046124cf565b6109fe565b348015610368575f5ffd5b506102e860035481565b34801561037d575f5ffd5b5061020061038c36600461255f565b610a41565b34801561039c575f5ffd5b506103b06103ab366004612610565b610ba8565b6040516102929190612630565b3480156103c8575f5ffd5b506103dc6103d7366004612672565b610cff565b6040519015158152602001610292565b3480156103f7575f5ffd5b5061040b61040636600461268d565b610d3d565b60405161029291906126f9565b348015610423575f5ffd5b50610200610432366004612300565b6110b4565b348015610442575f5ffd5b5061046a7f000000000000000000000000000000000000000000000000000000000000000081565b60405173ffffffffffffffffffffffffffffffffffffffff9091168152602001610292565b34801561049a575f5ffd5b506102006104a9366004612732565b6111bf565b3480156104b9575f5ffd5b506102e860045481565b3480156104ce575f5ffd5b505f546102e8565b3480156104e1575f5ffd5b50730576a174d229e3cfa37253523e645a78a0c91b5761046a565b348015610507575f5ffd5b5061026561051636600461276c565b7fbc197c810000000000000000000000000000000000000000000000000000000098975050505050505050565b34801561054e575f5ffd5b506102e860025481565b348015610563575f5ffd5b5061020061057236600461268d565b61120b565b348015610582575f5ffd5b506102e8610591366004612610565b6112ca565b3480156105a1575f5ffd5b506105b56105b036600461280f565b6112ec565b60405161029291906128cd565b3480156105cd575f5ffd5b5061046a7f000000000000000000000000000000000000000000000000000000000000000081565b348015610600575f5ffd5b506102e87f000000000000000000000000000000000000000000000000000000000000000081565b348015610633575f5ffd5b5061046a6113d6565b348015610647575f5ffd5b506102e87f803dd08fe79d91027fc9024e254a0942372b92f3ccabc1bd19f4a5c2b251c31681565b34801561067a575f5ffd5b506102656106893660046128df565b7ff23a6e61000000000000000000000000000000000000000000000000000000009695505050505050565b3480156106bf575f5ffd5b507f000000000000000000000000000000000000000000000000000000000000000061046a565b3480156106f1575f5ffd5b506105b56040518060400160405280600581526020017f312e302e3000000000000000000000000000000000000000000000000000000081525081565b61073733610cff565b80610755575033730576a174d229e3cfa37253523e645a78a0c91b57145b6107e6576040517f08c379a000000000000000000000000000000000000000000000000000000000815260206004820152603e60248201527f4f6e6c792063616c6c61626c6520627920746865206d656368206f706572617460448201527f6f72206f722074686520656e74727920706f696e7420636f6e7472616374000060648201526084015b60405180910390fd5b805f0361081f576040517f7c946ed700000000000000000000000000000000000000000000000000000000815260040160405180910390fd5b60018190556040518181527fb912b1469d50f9612d4378acbbf5469b04e6da0f6fe174443169d704ad534258906020015b60405180910390a150565b5f5f5f5f61087b85602081015160408201516060909201515f1a92909190565b9094509250905060ff81165f03610991578285830160200161089c82610cff565b1580156108bf575073ffffffffffffffffffffffffffffffffffffffff82163014155b156108f257507fffffffff0000000000000000000000000000000000000000000000000000000094506109f89350505050565b6040517f1626ba7e00000000000000000000000000000000000000000000000000000000815273ffffffffffffffffffffffffffffffffffffffff831690631626ba7e90610946908b908590600401612956565b602060405180830381865afa158015610961573d5f5f3e3d5ffd5b505050506040513d601f19601f82011682018060405250810190610985919061296e565b955050505050506109f8565b6109a06103d78783868661154f565b156109d157507f1626ba7e0000000000000000000000000000000000000000000000000000000092506109f8915050565b507fffffffff00000000000000000000000000000000000000000000000000000000925050505b92915050565b5f610a0761156b565b610a1184846115ea565b9050610a2060408501856129ad565b90505f03610a3157610a31846116be565b610a3a8261173c565b9392505050565b610a4a33610cff565b80610a68575033730576a174d229e3cfa37253523e645a78a0c91b57145b610af4576040517f08c379a000000000000000000000000000000000000000000000000000000000815260206004820152603e60248201527f4f6e6c792063616c6c61626c6520627920746865206d656368206f706572617460448201527f6f72206f722074686520656e74727920706f696e7420636f6e7472616374000060648201526084016107dd565b6040517f4e894dd100000000000000000000000000000000000000000000000000000000815273ffffffffffffffffffffffffffffffffffffffff7f00000000000000000000000000000000000000000000000000000000000000001690634e894dd190610b72908a908a908a908a908a908a908a90600401612afe565b5f604051808303815f87803b158015610b89575f5ffd5b505af1158015610b9b573d5f5f3e3d5ffd5b5050505050505050505050565b6002546060905f849003610bba578093505b80610bc58486612c86565b1115610c1257610bd58385612c86565b6040517f7ae596850000000000000000000000000000000000000000000000000000000081526004810191909152602481018290526044016107dd565b8315610cf8578367ffffffffffffffff811115610c3157610c31612385565b604051908082528060200260200182016040528015610c5a578160200160208202803683370190505b505f80805260066020527f54cdd369e4e8a8515e52ca72ec816c2101831ad1f18bf44102ed171459c9b4f9549193505b84811015610cad575f828152600660205260409020600101549150600101610c8a565b505f5b85811015610cf55781848281518110610ccb57610ccb612c99565b6020908102919091018101919091525f838152600690915260409020600101549150600101610cb0565b50505b5092915050565b5f610d086113d6565b73ffffffffffffffffffffffffffffffffffffffff168273ffffffffffffffffffffffffffffffffffffffff16149050919050565b6060610d4833610cff565b80610d66575033730576a174d229e3cfa37253523e645a78a0c91b57145b610df2576040517f08c379a000000000000000000000000000000000000000000000000000000000815260206004820152603e60248201527f4f6e6c792063616c6c61626c6520627920746865206d656368206f706572617460448201527f6f72206f722074686520656e74727920706f696e7420636f6e7472616374000060648201526084016107dd565b600554600203610e2e576040517f8beb9d1600000000000000000000000000000000000000000000000000000000815260040160405180910390fd5b6002600555831580610e405750838214155b15610e81576040517f8151c11000000000000000000000000000000000000000000000000000000000815260048101859052602481018390526044016107dd565b5f5f610e8f878787876117b0565b6040517f9e592bb9000000000000000000000000000000000000000000000000000000008152919350915073ffffffffffffffffffffffffffffffffffffffff7f00000000000000000000000000000000000000000000000000000000000000001690639e592bb990610f0a908a908a908690600401612cc6565b5f604051808303815f875af1158015610f25573d5f5f3e3d5ffd5b505050506040513d5f823e601f3d9081017fffffffffffffffffffffffffffffffffffffffffffffffffffffffffffffffe0168201604052610f6a9190810190612d20565b9250855f805b8281101561108b57858181518110610f8a57610f8a612c99565b6020026020010151156110315781610fa181612dd8565b9250339050307fb0d013658abb05dd269ff3ab257175d5ae3fa4107d4e142abd96e947cd5cb06f8c8c85818110610fda57610fda612c99565b90506020020135878581518110610ff357610ff3612c99565b602002602001015189868151811061100d5761100d612c99565b602002602001015160405161102493929190612e0f565b60405180910390a3611083565b7fb5863ad79417b48f982fe746b7d7e7c00369bec5f782d4b58537541ff65e841a8a8a8381811061106457611064612c99565b9050602002013560405161107a91815260200190565b60405180910390a15b600101610f70565b508060045f82825461109d9190612c86565b909155505060016005555092979650505050505050565b3373ffffffffffffffffffffffffffffffffffffffff7f00000000000000000000000000000000000000000000000000000000000000001614611161576040517fe56895c000000000000000000000000000000000000000000000000000000000815233600482015273ffffffffffffffffffffffffffffffffffffffff7f00000000000000000000000000000000000000000000000000000000000000001660248201526044016107dd565b8060035f8282546111729190612c86565b925050819055508060045f82825461118a9190612c86565b90915550506040518181527fa9650c1f534f48ac9fe2937c5af1eb577dd1c6ade5a0422a538a6253e5d9e52990602001610850565b6111c76119f0565b51156111ff576040517f0dc149f000000000000000000000000000000000000000000000000000000000815260040160405180910390fd5b61120881611ac4565b50565b3373ffffffffffffffffffffffffffffffffffffffff7f000000000000000000000000000000000000000000000000000000000000000016146112b8576040517fe56895c000000000000000000000000000000000000000000000000000000000815233600482015273ffffffffffffffffffffffffffffffffffffffff7f00000000000000000000000000000000000000000000000000000000000000001660248201526044016107dd565b6112c484848484611c39565b50505050565b6006602052815f5260405f2081600281106112e3575f80fd5b01549150829050565b60606112f733610cff565b80611315575033730576a174d229e3cfa37253523e645a78a0c91b57145b6113a1576040517f08c379a000000000000000000000000000000000000000000000000000000000815260206004820152603e60248201527f4f6e6c792063616c6c61626c6520627920746865206d656368206f706572617460448201527f6f72206f722074686520656e74727920706f696e7420636f6e7472616374000060648201526084016107dd565b5f6113bb8787878787156113b55787611d6f565b5a611d6f565b92509050806113cc57815160208301fd5b5095945050505050565b6040517f4236aff80000000000000000000000000000000000000000000000000000000081527f000000000000000000000000000000000000000000000000000000000000000060048201525f908190819073ffffffffffffffffffffffffffffffffffffffff7f00000000000000000000000000000000000000000000000000000000000000001690634236aff89060240160e060405180830381865afa158015611484573d5f5f3e3d5ffd5b505050506040513d601f19601f820116820180604052508101906114a89190612e4e565b965050505050925050600460058111156114c4576114c4612ee5565b8160058111156114d6576114d6612ee5565b14611549578060058111156114ed576114ed612ee5565b6040517ff014fe7400000000000000000000000000000000000000000000000000000000815260048101919091527f000000000000000000000000000000000000000000000000000000000000000060248201526044016107dd565b50919050565b5f5f5f61155e87878787611e72565b915091506113cc81611f5a565b33730576a174d229e3cfa37253523e645a78a0c91b57146115e8576040517f08c379a000000000000000000000000000000000000000000000000000000000815260206004820152601c60248201527f6163636f756e743a206e6f742066726f6d20456e747279506f696e740000000060448201526064016107dd565b565b7f19457468657265756d205369676e6564204d6573736167653a0a3332000000005f908152601c829052603c81207f1626ba7e000000000000000000000000000000000000000000000000000000006116848261164b6101408801886129ad565b8080601f0160208091040260200160405190810160405280939291908181526020018383808284375f9201919091525061085b92505050565b7fffffffff0000000000000000000000000000000000000000000000000000000016146116b55760019150506109f8565b505f9392505050565b5f8054602083013591806116d183612dd8565b9190505514611208576040517f08c379a000000000000000000000000000000000000000000000000000000000815260206004820152600d60248201527f496e76616c6964206e6f6e63650000000000000000000000000000000000000060448201526064016107dd565b8015611208576040515f9033907fffffffffffffffffffffffffffffffffffffffffffffffffffffffffffffffff90849084818181858888f193505050503d805f81146117a4576040519150601f19603f3d011682016040523d82523d5f602084013e6117a9565b606091505b5050505050565b606080848067ffffffffffffffff8111156117cd576117cd612385565b60405190808252806020026020018201604052801561180057816020015b60608152602001906001900390816117eb5790505b5092508067ffffffffffffffff81111561181c5761181c612385565b604051908082528060200260200182016040528015611845578160200160208202803683370190505b5091505f805b828110156119cc575f89898381811061186657611866612c99565b90506020020135905061189c8189898581811061188557611885612c99565b905060200281019061189791906129ad565b61210c565b8784815181106118ae576118ae612c99565b602002602001018785815181106118c7576118c7612c99565b602090810291909101810192909252919091525f828152600690915260408082208151808301928390529160029082845b8154815260200190600101908083116118f85750505050509050805f6002811061192457611924612c99565b602002015115801561193857506020810151155b801561196d57505f805260066020527f54cdd369e4e8a8515e52ca72ec816c2101831ad1f18bf44102ed171459c9b4f8548214155b156119795750506119c4565b8361198381612dd8565b6020838101805185515f9081526006909352604080842060019081019290925595519151835285832091909155948152928320838155909301919091555091505b60010161184b565b508060025f8282546119de9190612f12565b92505081905550505094509492505050565b6060611abf611aba6040517fd60000000000000000000000000000000000000000000000000000000000000060208201527f940000000000000000000000000000000000000000000000000000000000000060218201527fffffffffffffffffffffffffffffffffffffffff0000000000000000000000003060601b1660228201527f010000000000000000000000000000000000000000000000000000000000000060368201525f90603701604051602081830303815290604052805190602001205f1c905090565b61215e565b905090565b5f611ace826121b3565b90505f8151602083015ff09050611ba06040517fd60000000000000000000000000000000000000000000000000000000000000060208201527f940000000000000000000000000000000000000000000000000000000000000060218201527fffffffffffffffffffffffffffffffffffffffff0000000000000000000000003060601b1660228201527f010000000000000000000000000000000000000000000000000000000000000060368201525f90603701604051602081830303815290604052805190602001205f1c905090565b73ffffffffffffffffffffffffffffffffffffffff168173ffffffffffffffffffffffffffffffffffffffff1614611c34576040517f08c379a000000000000000000000000000000000000000000000000000000000815260206004820152600c60248201527f5772697465206661696c6564000000000000000000000000000000000000000060448201526064016107dd565b505050565b825f5b84811015611d39575f868683818110611c5757611c57612c99565b600660209081520291909101355f81815260408082207f54cdd369e4e8a8515e52ca72ec816c2101831ad1f18bf44102ed171459c9b4f980546001830181905590859055808452919092208390559193507f54cdd369e4e8a8515e52ca72ec816c2101831ad1f18bf44102ed171459c9b4f8925090307f1ebd17f97038d3a14148566de635eab9901371bf904262f5498331b0c62921ce858a8a89818110611d0157611d01612c99565b9050602002810190611d1391906129ad565b604051611d2293929190612f25565b60405180910390a250505050806001019050611c3c565b508060025f828254611d4b9190612c86565b925050819055508060035f828254611d639190612c86565b90915550505050505050565b5f60606001846001811115611d8657611d86612ee5565b03611dfa578673ffffffffffffffffffffffffffffffffffffffff168386604051611db19190612f55565b5f604051808303818686f4925050503d805f8114611dea576040519150601f19603f3d011682016040523d82523d5f602084013e611def565b606091505b509092509050611e68565b8673ffffffffffffffffffffffffffffffffffffffff16838787604051611e219190612f55565b5f60405180830381858888f193505050503d805f8114611e5c576040519150601f19603f3d011682016040523d82523d5f602084013e611e61565b606091505b5090925090505b9550959350505050565b5f807f7fffffffffffffffffffffffffffffff5d576e7357a4501ddfe92f46681b20a0831115611ea757505f90506003611f51565b604080515f8082526020820180845289905260ff881692820192909252606081018690526080810185905260019060a0016020604051602081039080840390855afa158015611ef8573d5f5f3e3d5ffd5b50506040517fffffffffffffffffffffffffffffffffffffffffffffffffffffffffffffffe0015191505073ffffffffffffffffffffffffffffffffffffffff8116611f4b575f60019250925050611f51565b91505f90505b94509492505050565b5f816004811115611f6d57611f6d612ee5565b03611f755750565b6001816004811115611f8957611f89612ee5565b03611ff0576040517f08c379a000000000000000000000000000000000000000000000000000000000815260206004820152601860248201527f45434453413a20696e76616c6964207369676e6174757265000000000000000060448201526064016107dd565b600281600481111561200457612004612ee5565b0361206b576040517f08c379a000000000000000000000000000000000000000000000000000000000815260206004820152601f60248201527f45434453413a20696e76616c6964207369676e6174757265206c656e6774680060448201526064016107dd565b600381600481111561207f5761207f612ee5565b03611208576040517f08c379a000000000000000000000000000000000000000000000000000000000815260206004820152602260248201527f45434453413a20696e76616c6964207369676e6174757265202773272076616c60448201527f756500000000000000000000000000000000000000000000000000000000000060648201526084016107dd565b60605f61211b8385018561248b565b60405182815290935090915085907fe965ec1e7fc17336f45a9a0cb807222c188d9791602501b6825c2001d79e765b9060200160405180910390a2935093915050565b6060813b6001811161217f57505060408051602081019091525f8152919050565b8061218981612f60565b9150506040519150601f19601f602083010116820160405280825280600160208401853c50919050565b6060815160016121c39190612c86565b826040516020016121d5929190612f94565b6040516020818303038152906040529050919050565b73ffffffffffffffffffffffffffffffffffffffff81168114611208575f5ffd5b5f5f83601f84011261221c575f5ffd5b50813567ffffffffffffffff811115612233575f5ffd5b60208301915083602082850101111561224a575f5ffd5b9250929050565b5f5f5f5f5f5f5f5f60c0898b031215612268575f5ffd5b8835612273816121eb565b97506020890135612283816121eb565b96506040890135612293816121eb565b955060608901359450608089013567ffffffffffffffff8111156122b5575f5ffd5b6122c18b828c0161220c565b90955093505060a089013567ffffffffffffffff8111156122e0575f5ffd5b6122ec8b828c0161220c565b999c989b5096995094979396929594505050565b5f60208284031215612310575f5ffd5b5035919050565b5f5f5f5f5f6080868803121561232b575f5ffd5b8535612336816121eb565b94506020860135612346816121eb565b935060408601359250606086013567ffffffffffffffff811115612368575f5ffd5b6123748882890161220c565b969995985093965092949392505050565b7f4e487b71000000000000000000000000000000000000000000000000000000005f52604160045260245ffd5b604051601f82017fffffffffffffffffffffffffffffffffffffffffffffffffffffffffffffffe016810167ffffffffffffffff811182821017156123f9576123f9612385565b604052919050565b5f82601f830112612410575f5ffd5b813567ffffffffffffffff81111561242a5761242a612385565b61245b60207fffffffffffffffffffffffffffffffffffffffffffffffffffffffffffffffe0601f840116016123b2565b81815284602083860101111561246f575f5ffd5b816020850160208301375f918101602001919091529392505050565b5f5f6040838503121561249c575f5ffd5b82359150602083013567ffffffffffffffff8111156124b9575f5ffd5b6124c585828601612401565b9150509250929050565b5f5f5f606084860312156124e1575f5ffd5b833567ffffffffffffffff8111156124f7575f5ffd5b84016101608187031215612509575f5ffd5b95602085013595506040909401359392505050565b5f5f83601f84011261252e575f5ffd5b50813567ffffffffffffffff811115612545575f5ffd5b6020830191508360208260051b850101111561224a575f5ffd5b5f5f5f5f5f5f5f6080888a031215612575575f5ffd5b8735612580816121eb565b9650602088013567ffffffffffffffff81111561259b575f5ffd5b6125a78a828b0161251e565b909750955050604088013567ffffffffffffffff8111156125c6575f5ffd5b6125d28a828b0161251e565b909550935050606088013567ffffffffffffffff8111156125f1575f5ffd5b6125fd8a828b0161220c565b989b979a50959850939692959293505050565b5f5f60408385031215612621575f5ffd5b50508035926020909101359150565b602080825282518282018190525f918401906040840190835b81811015612667578351835260209384019390920191600101612649565b509095945050505050565b5f60208284031215612682575f5ffd5b8135610a3a816121eb565b5f5f5f5f604085870312156126a0575f5ffd5b843567ffffffffffffffff8111156126b6575f5ffd5b6126c28782880161251e565b909550935050602085013567ffffffffffffffff8111156126e1575f5ffd5b6126ed8782880161251e565b95989497509550505050565b602080825282518282018190525f918401906040840190835b818110156126675783511515835260209384019390920191600101612712565b5f60208284031215612742575f5ffd5b813567ffffffffffffffff811115612758575f5ffd5b61276484828501612401565b949350505050565b5f5f5f5f5f5f5f5f60a0898b031215612783575f5ffd5b883561278e816121eb565b9750602089013561279e816121eb565b9650604089013567ffffffffffffffff8111156127b9575f5ffd5b6127c58b828c0161251e565b909750955050606089013567ffffffffffffffff8111156127e4575f5ffd5b6127f08b828c0161251e565b909550935050608089013567ffffffffffffffff8111156122e0575f5ffd5b5f5f5f5f5f60a08688031215612823575f5ffd5b853561282e816121eb565b945060208601359350604086013567ffffffffffffffff811115612850575f5ffd5b61285c88828901612401565b935050606086013560028110612870575f5ffd5b949793965091946080013592915050565b5f81518084528060208401602086015e5f6020828601015260207fffffffffffffffffffffffffffffffffffffffffffffffffffffffffffffffe0601f83011685010191505092915050565b602081525f610a3a6020830184612881565b5f5f5f5f5f5f60a087890312156128f4575f5ffd5b86356128ff816121eb565b9550602087013561290f816121eb565b94506040870135935060608701359250608087013567ffffffffffffffff811115612938575f5ffd5b61294489828a0161220c565b979a9699509497509295939492505050565b828152604060208201525f6127646040830184612881565b5f6020828403121561297e575f5ffd5b81517fffffffff0000000000000000000000000000000000000000000000000000000081168114610a3a575f5ffd5b5f5f83357fffffffffffffffffffffffffffffffffffffffffffffffffffffffffffffffe18436030181126129e0575f5ffd5b83018035915067ffffffffffffffff8211156129fa575f5ffd5b60200191503681900382131561224a575f5ffd5b5f5f83357fffffffffffffffffffffffffffffffffffffffffffffffffffffffffffffffe1843603018112612a41575f5ffd5b830160208101925035905067ffffffffffffffff811115612a60575f5ffd5b80360382131561224a575f5ffd5b81835281816020850137505f602082840101525f60207fffffffffffffffffffffffffffffffffffffffffffffffffffffffffffffffe0601f840116840101905092915050565b8183525f7f07ffffffffffffffffffffffffffffffffffffffffffffffffffffffffffffff831115612ae5575f5ffd5b8260051b80836020870137939093016020019392505050565b5f6080820173ffffffffffffffffffffffffffffffffffffffff8a168352608060208401528088825260a08401905060a08960051b8501019150895f7fffffffffffffffffffffffffffffffffffffffffffffffffffffffffffffffa18c3603015b8b821015612c1f577fffffffffffffffffffffffffffffffffffffffffffffffffffffffffffffff608786030184528235818112612b9c575f5ffd5b8d01612ba88180612a0e565b60608852612bba606089018284612a6e565b915050612bca6020830183612a0e565b88830360208a0152612bdd838284612a6e565b92505050612bee6040830183612a0e565b92508782036040890152612c03828483612a6e565b9750505050602083019250602084019350600182019150612b60565b505050508281036040840152612c36818789612ab5565b90508281036060840152612c4b818587612a6e565b9a9950505050505050505050565b7f4e487b71000000000000000000000000000000000000000000000000000000005f52601160045260245ffd5b808201808211156109f8576109f8612c59565b7f4e487b71000000000000000000000000000000000000000000000000000000005f52603260045260245ffd5b604081525f612cd9604083018587612ab5565b82810360208401528084518083526020830191506020860192505f5b81811015612d13578351835260209384019390920191600101612cf5565b5090979650505050505050565b5f60208284031215612d30575f5ffd5b815167ffffffffffffffff811115612d46575f5ffd5b8201601f81018413612d56575f5ffd5b805167ffffffffffffffff811115612d7057612d70612385565b8060051b612d80602082016123b2565b91825260208184018101929081019087841115612d9b575f5ffd5b6020850194505b83851015612dcd57845192508215158314612dbb575f5ffd5b82825260209485019490910190612da2565b979650505050505050565b5f7fffffffffffffffffffffffffffffffffffffffffffffffffffffffffffffffff8203612e0857612e08612c59565b5060010190565b838152826020820152606060408201525f612e2d6060830184612881565b95945050505050565b805163ffffffff81168114612e49575f5ffd5b919050565b5f5f5f5f5f5f5f60e0888a031215612e64575f5ffd5b87516bffffffffffffffffffffffff81168114612e7f575f5ffd5b6020890151909750612e90816121eb565b60408901519096509450612ea660608901612e36565b9350612eb460808901612e36565b9250612ec260a08901612e36565b915060c088015160068110612ed5575f5ffd5b8091505092959891949750929550565b7f4e487b71000000000000000000000000000000000000000000000000000000005f52602160045260245ffd5b818103818111156109f8576109f8612c59565b838152604060208201525f612e2d604083018486612a6e565b5f81518060208401855e5f93019283525090919050565b5f610a3a8284612f3e565b5f81612f6e57612f6e612c59565b507fffffffffffffffffffffffffffffffffffffffffffffffffffffffffffffffff0190565b7f630000000000000000000000000000000000000000000000000000000000000081527fffffffff000000000000000000000000000000000000000000000000000000008360e01b1660018201527f80600e6000396000f3000000000000000000000000000000000000000000000060058201525f600e8201525f612764600f830184612f3e56fea2646970667358221220bf3fe60eb3db7a9f6b580e60ec40678b038ce032729575e7ea5a545c416ed26b64736f6c634300081c0033",
  "linkReferences": {},
  "deployedLinkReferences": {}
}