{
  "_format": "hh-sol-artifact-1",
  "contractName": "MechMarketplace",
  "sourceName": "contracts/MechMarketplace.sol",
  "abi": [
    {
      "inputs": [
        {
          "internalType": "address",
          "name": "_serviceRegistry",
          "type": "address"
        },
        {
          "internalType": "address",
          "name": "_karma",
          "type": "address"
        }
      ],
      "stateMutability": "nonpayable",
      "type": "constructor"
    },
    {
      "inputs": [
        {
          "internalType": "bytes32",
          "name": "requestId",
          "type": "bytes32"
        }
      ],
      "name": "AlreadyDelivered",
      "type": "error"
    },
    {
      "inputs": [],
      "name": "AlreadyInitialized",
      "type": "error"
    },
    {
      "inputs": [
        {
          "internalType": "bytes32",
          "name": "requestId",
          "type": "bytes32"
        }
      ],
      "name": "AlreadyRequested",
      "type": "error"
    },
    {
      "inputs": [
        {
          "internalType": "bytes",
          "name": "signature",
          "type": "bytes"
        },
        {
          "internalType": "uint256",
          "name": "provided",
          "type": "uint256"
        },
        {
          "internalType": "uint256",
          "name": "expected",
          "type": "uint256"
        }
      ],
      "name": "IncorrectSignatureLength",
      "type": "error"
    },
    {
      "inputs": [
        {
          "internalType": "uint256",
          "name": "current",
          "type": "uint256"
        },
        {
          "internalType": "uint256",
          "name": "required",
          "type": "uint256"
        }
      ],
      "name": "InsufficientBalance",
      "type": "error"
    },
    {
      "inputs": [
        {
          "internalType": "uint256",
          "name": "amount",
          "type": "uint256"
        }
      ],
      "name": "NoDepositAllowed",
      "type": "error"
    },
    {
      "inputs": [
        {
          "internalType": "uint256",
          "name": "provided",
          "type": "uint256"
        },
        {
          "internalType": "uint256",
          "name": "min",
          "type": "uint256"
        },
        {
          "internalType": "uint256",
          "name": "max",
          "type": "uint256"
        }
      ],
      "name": "OutOfBounds",
      "type": "error"
    },
    {
      "inputs": [
        {
          "internalType": "uint256",
          "name": "provided",
          "type": "uint256"
        },
        {
          "internalType": "uint256",
          "name": "max",
          "type": "uint256"
        }
      ],
      "name": "Overflow",
      "type": "error"
    },
    {
      "inputs": [
        {
          "internalType": "address",
          "name": "sender",
          "type": "address"
        },
        {
          "internalType": "address",
          "name": "owner",
          "type": "address"
        }
      ],
      "name": "OwnerOnly",
      "type": "error"
    },
    {
      "inputs": [
        {
          "internalType": "uint256",
          "name": "expected",
          "type": "uint256"
        },
        {
          "internalType": "uint256",
          "name": "current",
          "type": "uint256"
        }
      ],
      "name": "PriorityMechResponseTimeout",
      "type": "error"
    },
    {
      "inputs": [],
      "name": "ReentrancyGuard",
      "type": "error"
    },
    {
      "inputs": [
        {
          "internalType": "bytes32",
          "name": "requestId",
          "type": "bytes32"
        }
      ],
      "name": "RequestIdNotFound",
      "type": "error"
    },
    {
      "inputs": [
        {
          "internalType": "address",
          "name": "stakingInstance",
          "type": "address"
        },
        {
          "internalType": "uint256",
          "name": "serviceId",
          "type": "uint256"
        }
      ],
      "name": "ServiceNotStaked",
      "type": "error"
    },
    {
      "inputs": [
        {
          "internalType": "address",
          "name": "requester",
          "type": "address"
        },
        {
          "internalType": "bytes32",
          "name": "msgHash",
          "type": "bytes32"
        },
        {
          "internalType": "bytes",
          "name": "signature",
          "type": "bytes"
        }
      ],
      "name": "SignatureNotValidated",
      "type": "error"
    },
    {
      "inputs": [
        {
          "internalType": "address",
          "name": "token",
          "type": "address"
        },
        {
          "internalType": "address",
          "name": "from",
          "type": "address"
        },
        {
          "internalType": "address",
          "name": "to",
          "type": "address"
        },
        {
          "internalType": "uint256",
          "name": "amount",
          "type": "uint256"
        }
      ],
      "name": "TransferFailed",
      "type": "error"
    },
    {
      "inputs": [
        {
          "internalType": "address",
          "name": "account",
          "type": "address"
        }
      ],
      "name": "UnauthorizedAccount",
      "type": "error"
    },
    {
      "inputs": [
        {
          "internalType": "uint256",
          "name": "numValues1",
          "type": "uint256"
        },
        {
          "internalType": "uint256",
          "name": "numValues2",
          "type": "uint256"
        }
      ],
      "name": "WrongArrayLength",
      "type": "error"
    },
    {
      "inputs": [
        {
          "internalType": "uint256",
          "name": "numValues1",
          "type": "uint256"
        },
        {
          "internalType": "uint256",
          "name": "numValues2",
          "type": "uint256"
        },
        {
          "internalType": "uint256",
          "name": "numValues3",
          "type": "uint256"
        }
      ],
      "name": "WrongArrayLength3",
      "type": "error"
    },
    {
      "inputs": [
        {
          "internalType": "uint256",
          "name": "numValues1",
          "type": "uint256"
        },
        {
          "internalType": "uint256",
          "name": "numValues2",
          "type": "uint256"
        },
        {
          "internalType": "uint256",
          "name": "numValues3",
          "type": "uint256"
        },
        {
          "internalType": "uint256",
          "name": "numValues4",
          "type": "uint256"
        }
      ],
      "name": "WrongArrayLength4",
      "type": "error"
    },
    {
      "inputs": [
        {
          "internalType": "bytes32",
          "name": "paymentType",
          "type": "bytes32"
        }
      ],
      "name": "WrongPaymentType",
      "type": "error"
    },
    {
      "inputs": [
        {
          "internalType": "uint256",
          "name": "state",
          "type": "uint256"
        },
        {
          "internalType": "uint256",
          "name": "serviceId",
          "type": "uint256"
        }
      ],
      "name": "WrongServiceState",
      "type": "error"
    },
    {
      "inputs": [],
      "name": "ZeroAddress",
      "type": "error"
    },
    {
      "inputs": [],
      "name": "ZeroValue",
      "type": "error"
    },
    {
      "anonymous": false,
      "inputs": [
        {
          "indexed": true,
          "internalType": "address",
          "name": "mech",
          "type": "address"
        },
        {
          "indexed": true,
          "internalType": "uint256",
          "name": "serviceId",
          "type": "uint256"
        }
      ],
      "name": "CreateMech",
      "type": "event"
    },
    {
      "anonymous": false,
      "inputs": [
        {
          "indexed": true,
          "internalType": "address",
          "name": "mech",
          "type": "address"
        },
        {
          "indexed": true,
          "internalType": "address",
          "name": "mechServiceMultisig",
          "type": "address"
        },
        {
          "indexed": false,
          "internalType": "bytes32",
          "name": "requestId",
          "type": "bytes32"
        },
        {
          "indexed": false,
          "internalType": "bytes",
          "name": "data",
          "type": "bytes"
        }
      ],
      "name": "Deliver",
      "type": "event"
    },
    {
      "anonymous": false,
      "inputs": [
        {
          "indexed": true,
          "internalType": "address",
          "name": "implementation",
          "type": "address"
        }
      ],
      "name": "ImplementationUpdated",
      "type": "event"
    },
    {
      "anonymous": false,
      "inputs": [
        {
          "indexed": true,
          "internalType": "address",
          "name": "deliveryMech",
          "type": "address"
        },
        {
          "indexed": true,
          "internalType": "address[]",
          "name": "requesters",
          "type": "address[]"
        },
        {
          "indexed": false,
          "internalType": "uint256",
          "name": "numDeliveries",
          "type": "uint256"
        },
        {
          "indexed": false,
          "internalType": "bytes32[]",
          "name": "requestIds",
          "type": "bytes32[]"
        },
        {
          "indexed": false,
          "internalType": "bool[]",
          "name": "deliveredRequests",
          "type": "bool[]"
        }
      ],
      "name": "MarketplaceDelivery",
      "type": "event"
    },
    {
      "anonymous": false,
      "inputs": [
        {
          "indexed": true,
          "internalType": "address",
          "name": "deliveryMech",
          "type": "address"
        },
        {
          "indexed": true,
          "internalType": "address",
          "name": "requester",
          "type": "address"
        },
        {
          "indexed": false,
          "internalType": "uint256",
          "name": "numRequests",
          "type": "uint256"
        },
        {
          "indexed": false,
          "internalType": "bytes32[]",
          "name": "requestIds",
          "type": "bytes32[]"
        }
      ],
      "name": "MarketplaceDeliveryWithSignatures",
      "type": "event"
    },
    {
      "anonymous": false,
      "inputs": [
        {
          "indexed": false,
          "internalType": "uint256",
          "name": "fee",
          "type": "uint256"
        },
        {
          "indexed": false,
          "internalType": "uint256",
          "name": "minResponseTimeout",
          "type": "uint256"
        },
        {
          "indexed": false,
          "internalType": "uint256",
          "name": "maxResponseTimeout",
          "type": "uint256"
        }
      ],
      "name": "MarketplaceParamsUpdated",
      "type": "event"
    },
    {
      "anonymous": false,
      "inputs": [
        {
          "indexed": true,
          "internalType": "address",
          "name": "priorityMech",
          "type": "address"
        },
        {
          "indexed": true,
          "internalType": "address",
          "name": "requester",
          "type": "address"
        },
        {
          "indexed": false,
          "internalType": "uint256",
          "name": "numRequests",
          "type": "uint256"
        },
        {
          "indexed": false,
          "internalType": "bytes32[]",
          "name": "requestIds",
          "type": "bytes32[]"
        }
      ],
      "name": "MarketplaceRequest",
      "type": "event"
    },
    {
      "anonymous": false,
      "inputs": [
        {
          "indexed": true,
          "internalType": "address",
          "name": "owner",
          "type": "address"
        }
      ],
      "name": "OwnerUpdated",
      "type": "event"
    },
    {
      "anonymous": false,
      "inputs": [
        {
          "indexed": true,
          "internalType": "address",
          "name": "requester",
          "type": "address"
        },
        {
          "indexed": false,
          "internalType": "bytes32",
          "name": "hash",
          "type": "bytes32"
        }
      ],
      "name": "RequesterHashApproved",
      "type": "event"
    },
    {
      "anonymous": false,
      "inputs": [
        {
          "indexed": false,
          "internalType": "address[]",
          "name": "mechFactories",
          "type": "address[]"
        },
        {
          "indexed": false,
          "internalType": "bool[]",
          "name": "statuses",
          "type": "bool[]"
        }
      ],
      "name": "SetMechFactoryStatuses",
      "type": "event"
    },
    {
      "anonymous": false,
      "inputs": [
        {
          "indexed": false,
          "internalType": "bytes32[]",
          "name": "paymentTypes",
          "type": "bytes32[]"
        },
        {
          "indexed": false,
          "internalType": "address[]",
          "name": "balanceTrackers",
          "type": "address[]"
        }
      ],
      "name": "SetPaymentTypeBalanceTrackers",
      "type": "event"
    },
    {
      "inputs": [],
      "name": "DOMAIN_SEPARATOR_TYPE_HASH",
      "outputs": [
        {
          "internalType": "bytes32",
          "name": "",
          "type": "bytes32"
        }
      ],
      "stateMutability": "view",
      "type": "function"
    },
    {
      "inputs": [],
      "name": "MAX_FEE_FACTOR",
      "outputs": [
        {
          "internalType": "uint256",
          "name": "",
          "type": "uint256"
        }
      ],
      "stateMutability": "view",
      "type": "function"
    },
    {
      "inputs": [],
      "name": "MECH_MARKETPLACE_PROXY",
      "outputs": [
        {
          "internalType": "bytes32",
          "name": "",
          "type": "bytes32"
        }
      ],
      "stateMutability": "view",
      "type": "function"
    },
    {
      "inputs": [],
      "name": "VERSION",
      "outputs": [
        {
          "internalType": "string",
          "name": "",
          "type": "string"
        }
      ],
      "stateMutability": "view",
      "type": "function"
    },
    {
      "inputs": [],
      "name": "chainId",
      "outputs": [
        {
          "internalType": "uint256",
          "name": "",
          "type": "uint256"
        }
      ],
      "stateMutability": "view",
      "type": "function"
    },
    {
      "inputs": [
        {
          "internalType": "address",
          "name": "newImplementation",
          "type": "address"
        }
      ],
      "name": "changeImplementation",
      "outputs": [],
      "stateMutability": "nonpayable",
      "type": "function"
    },
    {
      "inputs": [
        {
          "internalType": "uint256",
          "name": "newFee",
          "type": "uint256"
        },
        {
          "internalType": "uint256",
          "name": "newMinResponseTimeout",
          "type": "uint256"
        },
        {
          "internalType": "uint256",
          "name": "newMaxResponseTimeout",
          "type": "uint256"
        }
      ],
      "name": "changeMarketplaceParams",
      "outputs": [],
      "stateMutability": "nonpayable",
      "type": "function"
    },
    {
      "inputs": [
        {
          "internalType": "address",
          "name": "newOwner",
          "type": "address"
        }
      ],
      "name": "changeOwner",
      "outputs": [],
      "stateMutability": "nonpayable",
      "type": "function"
    },
    {
      "inputs": [
        {
          "internalType": "address",
          "name": "mech",
          "type": "address"
        }
      ],
      "name": "checkMech",
      "outputs": [
        {
          "internalType": "address",
          "name": "multisig",
          "type": "address"
        }
      ],
      "stateMutability": "view",
      "type": "function"
    },
    {
      "inputs": [
        {
          "internalType": "address",
          "name": "requester",
          "type": "address"
        },
        {
          "internalType": "uint256",
          "name": "requesterServiceId",
          "type": "uint256"
        }
      ],
      "name": "checkRequester",
      "outputs": [],
      "stateMutability": "view",
      "type": "function"
    },
    {
      "inputs": [
        {
          "internalType": "uint256",
          "name": "serviceId",
          "type": "uint256"
        },
        {
          "internalType": "address",
          "name": "mechFactory",
          "type": "address"
        },
        {
          "internalType": "bytes",
          "name": "payload",
          "type": "bytes"
        }
      ],
      "name": "create",
      "outputs": [
        {
          "internalType": "address",
          "name": "mech",
          "type": "address"
        }
      ],
      "stateMutability": "nonpayable",
      "type": "function"
    },
    {
      "inputs": [
        {
          "internalType": "bytes32[]",
          "name": "requestIds",
          "type": "bytes32[]"
        },
        {
          "internalType": "uint256[]",
          "name": "deliveryRates",
          "type": "uint256[]"
        },
        {
          "internalType": "bytes[]",
          "name": "deliveryDatas",
          "type": "bytes[]"
        }
      ],
      "name": "deliverMarketplace",
      "outputs": [
        {
          "internalType": "bool[]",
          "name": "deliveredRequests",
          "type": "bool[]"
        }
      ],
      "stateMutability": "nonpayable",
      "type": "function"
    },
    {
      "inputs": [
        {
          "internalType": "address",
          "name": "requester",
          "type": "address"
        },
        {
          "internalType": "uint256",
          "name": "requesterServiceId",
          "type": "uint256"
        },
        {
          "internalType": "bytes[]",
          "name": "requestDatas",
          "type": "bytes[]"
        },
        {
          "internalType": "bytes[]",
          "name": "signatures",
          "type": "bytes[]"
        },
        {
          "internalType": "bytes[]",
          "name": "deliveryDatas",
          "type": "bytes[]"
        },
        {
          "internalType": "uint256[]",
          "name": "deliveryRates",
          "type": "uint256[]"
        },
        {
          "internalType": "bytes",
          "name": "paymentData",
          "type": "bytes"
        }
      ],
      "name": "deliverMarketplaceWithSignatures",
      "outputs": [],
      "stateMutability": "nonpayable",
      "type": "function"
    },
    {
      "inputs": [],
      "name": "domainSeparator",
      "outputs": [
        {
          "internalType": "bytes32",
          "name": "",
          "type": "bytes32"
        }
      ],
      "stateMutability": "view",
      "type": "function"
    },
    {
      "inputs": [],
      "name": "fee",
      "outputs": [
        {
          "internalType": "uint256",
          "name": "",
          "type": "uint256"
        }
      ],
      "stateMutability": "view",
      "type": "function"
    },
    {
      "inputs": [],
      "name": "getDomainSeparator",
      "outputs": [
        {
          "internalType": "bytes32",
          "name": "",
          "type": "bytes32"
        }
      ],
      "stateMutability": "view",
      "type": "function"
    },
    {
      "inputs": [
        {
          "internalType": "address",
          "name": "account",
          "type": "address"
        },
        {
          "internalType": "bytes",
          "name": "data",
          "type": "bytes"
        },
        {
          "internalType": "uint256",
          "name": "nonce",
          "type": "uint256"
        }
      ],
      "name": "getRequestId",
      "outputs": [
        {
          "internalType": "bytes32",
          "name": "requestId",
          "type": "bytes32"
        }
      ],
      "stateMutability": "view",
      "type": "function"
    },
    {
      "inputs": [
        {
          "internalType": "bytes32",
          "name": "requestId",
          "type": "bytes32"
        }
      ],
      "name": "getRequestStatus",
      "outputs": [
        {
          "internalType": "enum MechMarketplace.RequestStatus",
          "name": "status",
          "type": "uint8"
        }
      ],
      "stateMutability": "view",
      "type": "function"
    },
    {
      "inputs": [
        {
          "internalType": "uint256",
          "name": "_fee",
          "type": "uint256"
        },
        {
          "internalType": "uint256",
          "name": "_minResponseTimeout",
          "type": "uint256"
        },
        {
          "internalType": "uint256",
          "name": "_maxResponseTimeout",
          "type": "uint256"
        }
      ],
      "name": "initialize",
      "outputs": [],
      "stateMutability": "nonpayable",
      "type": "function"
    },
    {
      "inputs": [],
      "name": "karma",
      "outputs": [
        {
          "internalType": "address",
          "name": "",
          "type": "address"
        }
      ],
      "stateMutability": "view",
      "type": "function"
    },
    {
      "inputs": [
        {
          "internalType": "address",
          "name": "",
          "type": "address"
        }
      ],
      "name": "mapAgentMechFactories",
      "outputs": [
        {
          "internalType": "address",
          "name": "",
          "type": "address"
        }
      ],
      "stateMutability": "view",
      "type": "function"
    },
    {
      "inputs": [
        {
          "internalType": "address",
          "name": "",
          "type": "address"
        }
      ],
      "name": "mapDeliveryCounts",
      "outputs": [
        {
          "internalType": "uint256",
          "name": "",
          "type": "uint256"
        }
      ],
      "stateMutability": "view",
      "type": "function"
    },
    {
      "inputs": [
        {
          "internalType": "address",
          "name": "",
          "type": "address"
        }
      ],
      "name": "mapMechDeliveryCounts",
      "outputs": [
        {
          "internalType": "uint256",
          "name": "",
          "type": "uint256"
        }
      ],
      "stateMutability": "view",
      "type": "function"
    },
    {
      "inputs": [
        {
          "internalType": "address",
          "name": "",
          "type": "address"
        }
      ],
      "name": "mapMechFactories",
      "outputs": [
        {
          "internalType": "bool",
          "name": "",
          "type": "bool"
        }
      ],
      "stateMutability": "view",
      "type": "function"
    },
    {
      "inputs": [
        {
          "internalType": "address",
          "name": "",
          "type": "address"
        }
      ],
      "name": "mapMechServiceDeliveryCounts",
      "outputs": [
        {
          "internalType": "uint256",
          "name": "",
          "type": "uint256"
        }
      ],
      "stateMutability": "view",
      "type": "function"
    },
    {
      "inputs": [
        {
          "internalType": "address",
          "name": "",
          "type": "address"
        }
      ],
      "name": "mapNonces",
      "outputs": [
        {
          "internalType": "uint256",
          "name": "",
          "type": "uint256"
        }
      ],
      "stateMutability": "view",
      "type": "function"
    },
    {
      "inputs": [
        {
          "internalType": "bytes32",
          "name": "",
          "type": "bytes32"
        }
      ],
      "name": "mapPaymentTypeBalanceTrackers",
      "outputs": [
        {
          "internalType": "address",
          "name": "",
          "type": "address"
        }
      ],
      "stateMutability": "view",
      "type": "function"
    },
    {
      "inputs": [
        {
          "internalType": "address",
          "name": "",
          "type": "address"
        }
      ],
      "name": "mapRequestCounts",
      "outputs": [
        {
          "internalType": "uint256",
          "name": "",
          "type": "uint256"
        }
      ],
      "stateMutability": "view",
      "type": "function"
    },
    {
      "inputs": [
        {
          "internalType": "bytes32",
          "name": "",
          "type": "bytes32"
        }
      ],
      "name": "mapRequestIdInfos",
      "outputs": [
        {
          "internalType": "address",
          "name": "priorityMech",
          "type": "address"
        },
        {
          "internalType": "address",
          "name": "deliveryMech",
          "type": "address"
        },
        {
          "internalType": "address",
          "name": "requester",
          "type": "address"
        },
        {
          "internalType": "uint256",
          "name": "responseTimeout",
          "type": "uint256"
        },
        {
          "internalType": "uint256",
          "name": "deliveryRate",
          "type": "uint256"
        },
        {
          "internalType": "bytes32",
          "name": "paymentType",
          "type": "bytes32"
        }
      ],
      "stateMutability": "view",
      "type": "function"
    },
    {
      "inputs": [
        {
          "internalType": "uint256",
          "name": "",
          "type": "uint256"
        }
      ],
      "name": "mapServiceIdMech",
      "outputs": [
        {
          "internalType": "address",
          "name": "",
          "type": "address"
        }
      ],
      "stateMutability": "view",
      "type": "function"
    },
    {
      "inputs": [],
      "name": "maxResponseTimeout",
      "outputs": [
        {
          "internalType": "uint256",
          "name": "",
          "type": "uint256"
        }
      ],
      "stateMutability": "view",
      "type": "function"
    },
    {
      "inputs": [],
      "name": "minResponseTimeout",
      "outputs": [
        {
          "internalType": "uint256",
          "name": "",
          "type": "uint256"
        }
      ],
      "stateMutability": "view",
      "type": "function"
    },
    {
      "inputs": [],
      "name": "numMechs",
      "outputs": [
        {
          "internalType": "uint256",
          "name": "",
          "type": "uint256"
        }
      ],
      "stateMutability": "view",
      "type": "function"
    },
    {
      "inputs": [],
      "name": "numTotalRequests",
      "outputs": [
        {
          "internalType": "uint256",
          "name": "",
          "type": "uint256"
        }
      ],
      "stateMutability": "view",
      "type": "function"
    },
    {
      "inputs": [],
      "name": "numUndeliveredRequests",
      "outputs": [
        {
          "internalType": "uint256",
          "name": "",
          "type": "uint256"
        }
      ],
      "stateMutability": "view",
      "type": "function"
    },
    {
      "inputs": [],
      "name": "owner",
      "outputs": [
        {
          "internalType": "address",
          "name": "",
          "type": "address"
        }
      ],
      "stateMutability": "view",
      "type": "function"
    },
    {
      "inputs": [
        {
          "internalType": "bytes",
          "name": "requestData",
          "type": "bytes"
        },
        {
          "internalType": "uint256",
          "name": "priorityMechServiceId",
          "type": "uint256"
        },
        {
          "internalType": "uint256",
          "name": "requesterServiceId",
          "type": "uint256"
        },
        {
          "internalType": "uint256",
          "name": "responseTimeout",
          "type": "uint256"
        },
        {
          "internalType": "bytes",
          "name": "paymentData",
          "type": "bytes"
        }
      ],
      "name": "request",
      "outputs": [
        {
          "internalType": "bytes32",
          "name": "requestId",
          "type": "bytes32"
        }
      ],
      "stateMutability": "payable",
      "type": "function"
    },
    {
      "inputs": [
        {
          "internalType": "bytes[]",
          "name": "requestDatas",
          "type": "bytes[]"
        },
        {
          "internalType": "uint256",
          "name": "priorityMechServiceId",
          "type": "uint256"
        },
        {
          "internalType": "uint256",
          "name": "requesterServiceId",
          "type": "uint256"
        },
        {
          "internalType": "uint256",
          "name": "responseTimeout",
          "type": "uint256"
        },
        {
          "internalType": "bytes",
          "name": "paymentData",
          "type": "bytes"
        }
      ],
      "name": "requestBatch",
      "outputs": [
        {
          "internalType": "bytes32[]",
          "name": "requestIds",
          "type": "bytes32[]"
        }
      ],
      "stateMutability": "payable",
      "type": "function"
    },
    {
      "inputs": [],
      "name": "serviceRegistry",
      "outputs": [
        {
          "internalType": "address",
          "name": "",
          "type": "address"
        }
      ],
      "stateMutability": "view",
      "type": "function"
    },
    {
      "inputs": [
        {
          "internalType": "address[]",
          "name": "mechFactories",
          "type": "address[]"
        },
        {
          "internalType": "bool[]",
          "name": "statuses",
          "type": "bool[]"
        }
      ],
      "name": "setMechFactoryStatuses",
      "outputs": [],
      "stateMutability": "nonpayable",
      "type": "function"
    },
    {
      "inputs": [
        {
          "internalType": "bytes32[]",
          "name": "paymentTypes",
          "type": "bytes32[]"
        },
        {
          "internalType": "address[]",
          "name": "balanceTrackers",
          "type": "address[]"
        }
      ],
      "name": "setPaymentTypeBalanceTrackers",
      "outputs": [],
      "stateMutability": "nonpayable",
      "type": "function"
    }
  ],
  "bytecode": "0x610100604052348015610010575f5ffd5b5060405161468b38038061468b83398101604081905261002f91610177565b6001600160a01b038216158061004c57506001600160a01b038116155b1561006a5760405163d92e233d60e01b815260040160405180910390fd5b6001600160a01b0380831660e052811660c0524660a052610089610094565b608052506101dd9050565b5f7f8b73c3c69bb8fe3d512ecc4cf759cc79239f7b179b0ffacaa9a75d522b39400f7ff376b6313a0837eb351511248cfe7dcc1cd26c49b8e0a47e1eb369dd62c425db604051806040016040528060058152602001640312e312e360dc1b81525060405160200161010591906101a8565b60408051601f1981840301815282825280516020918201209083019490945281019190915260608101919091524660808201523060a082015260c00160405160208183030381529060405280519060200120905090565b80516001600160a01b0381168114610172575f5ffd5b919050565b5f5f60408385031215610188575f5ffd5b6101918361015c565b915061019f6020840161015c565b90509250929050565b602081525f82518060208401528060208501604085015e5f604082850101526040601f19601f83011684010191505092915050565b60805160a05160c05160e05161443c61024f5f395f81816107ed0152818161181f0152611a4c01525f81816105df01528181610fbd01528181611248015281816124b20152818161253c0152612f6901525f818161071101526129ef01525f81816109410152612a24015261443c5ff3fe6080604052600436106102b5575f3560e01c806380d8591111610170578063cbd6407a116100d1578063e0cb19e811610087578063f5dcb7bb11610062578063f5dcb7bb146108fd578063f698da2514610930578063ffa1ad7414610963575f5ffd5b8063e0cb19e8146108a1578063e8eca22d146108b6578063ed24911d146108e9575f5ffd5b8063d64bf8b0116100b7578063d64bf8b014610859578063ddca3f4314610878578063ded812861461088c575f5ffd5b8063cbd6407a1461080f578063d466e70a1461083a575f5ffd5b8063a6f9dae111610126578063bdf863171161010c578063bdf8631714610786578063c69f6f9f1461079b578063cbcf252a146107dc575f5ffd5b8063a6f9dae114610752578063af4937fc14610771575f5ffd5b80638da5cb5b116101565780638da5cb5b146106d45780639a8a0592146107005780639ec4a5bf14610733575f5ffd5b806380d85911146106015780638342d20e14610620575f5ffd5b806343be96431161021a5780634eb07dd3116101d057806357c0762d116101b657806357c0762d1461059c5780635d24cd29146105bb57806374a8569b146105ce575f5ffd5b80634eb07dd31461053c57806355e1bfbb1461057d575f5ffd5b806346fbcbb21161020057806346fbcbb2146104e85780634ada3e61146105075780634e460b951461051c575f5ffd5b806343be96431461049157806345d07664146104bc575f5ffd5b8063176b8b011161026f5780631bbbeeb8116102555780631bbbeeb8146103e15780632394290e1461040c5780632685937b14610472575f5ffd5b8063176b8b011461039757806317a68dd8146103c2575f5ffd5b806308c38b0c1161029f57806308c38b0c146103185780630f41196a146103445780631399991414610359575f5ffd5b8062427c54146102b9578063087f08d4146102f7575b5f5ffd5b3480156102c4575f5ffd5b506102e46102d3366004613606565b60096020525f908152604090205481565b6040519081526020015b60405180910390f35b348015610302575f5ffd5b50610316610311366004613733565b6109b8565b005b348015610323575f5ffd5b50610337610332366004613962565b610bd2565b6040516102ee9190613a2c565b34801561034f575f5ffd5b506102e460015481565b348015610364575f5ffd5b50610387610373366004613606565b600d6020525f908152604090205460ff1681565b60405190151581526020016102ee565b3480156103a2575f5ffd5b506102e46103b1366004613606565b600a6020525f908152604090205481565b3480156103cd575f5ffd5b506103166103dc366004613606565b6113d3565b3480156103ec575f5ffd5b506102e46103fb366004613606565b60086020525f908152604090205481565b348015610417575f5ffd5b5061044d610426366004613a3e565b60116020525f908152604090205473ffffffffffffffffffffffffffffffffffffffff1681565b60405173ffffffffffffffffffffffffffffffffffffffff90911681526020016102ee565b34801561047d575f5ffd5b5061044d61048c366004613606565b6114fa565b34801561049c575f5ffd5b506102e46104ab366004613606565b600b6020525f908152604090205481565b3480156104c7575f5ffd5b506104db6104d6366004613a3e565b6116a4565b6040516102ee9190613a82565b3480156104f3575f5ffd5b5061044d610502366004613ac1565b61175f565b348015610512575f5ffd5b506102e460045481565b61052f61052a366004613b0c565b61199f565b6040516102ee9190613bbc565b348015610547575f5ffd5b5061044d610556366004613a3e565b600f6020525f908152604090205473ffffffffffffffffffffffffffffffffffffffff1681565b348015610588575f5ffd5b50610316610597366004613bce565b6119fe565b3480156105a7575f5ffd5b506103166105b6366004613bf8565b611bc3565b6102e46105c9366004613c21565b611c87565b3480156105d9575f5ffd5b5061044d7f000000000000000000000000000000000000000000000000000000000000000081565b34801561060c575f5ffd5b5061031661061b366004613bf8565b611d74565b34801561062b575f5ffd5b5061068961063a366004613a3e565b600c6020525f908152604090208054600182015460028301546003840154600485015460059095015473ffffffffffffffffffffffffffffffffffffffff948516959385169490921692909186565b6040805173ffffffffffffffffffffffffffffffffffffffff9788168152958716602087015293909516928401929092526060830152608082015260a081019190915260c0016102ee565b3480156106df575f5ffd5b5060075461044d9073ffffffffffffffffffffffffffffffffffffffff1681565b34801561070b575f5ffd5b506102e47f000000000000000000000000000000000000000000000000000000000000000081565b34801561073e575f5ffd5b506102e461074d366004613c57565b611e03565b34801561075d575f5ffd5b5061031661076c366004613606565b611e9a565b34801561077c575f5ffd5b506102e461271081565b348015610791575f5ffd5b506102e460035481565b3480156107a6575f5ffd5b5061044d6107b5366004613606565b600e6020525f908152604090205473ffffffffffffffffffffffffffffffffffffffff1681565b3480156107e7575f5ffd5b5061044d7f000000000000000000000000000000000000000000000000000000000000000081565b34801561081a575f5ffd5b506102e4610829366004613606565b60106020525f908152604090205481565b348015610845575f5ffd5b50610316610854366004613cad565b611fc8565b348015610864575f5ffd5b50610316610873366004613da9565b612796565b348015610883575f5ffd5b506102e45f5481565b348015610897575f5ffd5b506102e460025481565b3480156108ac575f5ffd5b506102e460055481565b3480156108c1575f5ffd5b506102e47fe6194b93a7bff0a54130ed8cd277223408a77f3e48bb5104a9db96d334f962ca81565b3480156108f4575f5ffd5b506102e46129ec565b348015610908575f5ffd5b506102e47f8b73c3c69bb8fe3d512ecc4cf759cc79239f7b179b0ffacaa9a75d522b39400f81565b34801561093b575f5ffd5b506102e47f000000000000000000000000000000000000000000000000000000000000000081565b34801561096e575f5ffd5b506109ab6040518060400160405280600581526020017f312e312e3000000000000000000000000000000000000000000000000000000081525081565b6040516102ee9190613e5a565b60075473ffffffffffffffffffffffffffffffffffffffff163314610a30576007546040517fa43d6ada00000000000000000000000000000000000000000000000000000000815233600482015273ffffffffffffffffffffffffffffffffffffffff90911660248201526044015b60405180910390fd5b8051825114610a7857815181516040517f8151c11000000000000000000000000000000000000000000000000000000000815260048101929092526024820152604401610a27565b5f5b8251811015610b94575f73ffffffffffffffffffffffffffffffffffffffff16838281518110610aac57610aac613e6c565b602002602001015173ffffffffffffffffffffffffffffffffffffffff1603610b01576040517fd92e233d00000000000000000000000000000000000000000000000000000000815260040160405180910390fd5b818181518110610b1357610b13613e6c565b6020026020010151600d5f858481518110610b3057610b30613e6c565b60209081029190910181015173ffffffffffffffffffffffffffffffffffffffff1682528101919091526040015f2080547fffffffffffffffffffffffffffffffffffffffffffffffffffffffffffffff0016911515919091179055600101610a7a565b507f8cc6be981009d13170c616af494b7d671ed2d84b7e6891e4c8f21fe065c00dfc8282604051610bc6929190613edf565b60405180910390a15050565b6060600654600203610c10576040517f8beb9d1600000000000000000000000000000000000000000000000000000000815260040160405180910390fd5b600260065583511580610c2557508251845114155b80610c3257508151845114155b15610c80578351835183516040517fd097c4da000000000000000000000000000000000000000000000000000000008152600481019390935260248301919091526044820152606401610a27565b5f610c8a336114fa565b85519091505f908067ffffffffffffffff811115610caa57610caa613621565b604051908082528060200260200182016040528015610cd3578160200160208202803683370190505b5093505f8167ffffffffffffffff811115610cf057610cf0613621565b604051908082528060200260200182016040528015610d19578160200160208202803683370190505b5090505f8267ffffffffffffffff811115610d3657610d36613621565b604051908082528060200260200182016040528015610d5f578160200160208202803683370190505b5090505f3373ffffffffffffffffffffffffffffffffffffffff16632763b8da6040518163ffffffff1660e01b81526004016020604051808303815f875af1158015610dad573d5f5f3e3d5ffd5b505050506040513d601f19601f82011682018060405250810190610dd19190613f0c565b90505f5b8481101561119a575f600c5f8d8481518110610df357610df3613e6c565b60209081029190910181015182528101919091526040015f20805490915073ffffffffffffffffffffffffffffffffffffffff1680610e5e576040517fd92e233d00000000000000000000000000000000000000000000000000000000815260040160405180910390fd5b83826005015414610e9e576040517f7fec71d700000000000000000000000000000000000000000000000000000000815260048101859052602401610a27565b600182015473ffffffffffffffffffffffffffffffffffffffff1615610ec5575050611192565b8160040154858481518110610edc57610edc613e6c565b602002602001018181525050848381518110610efa57610efa613e6c565b60200260200101518c8481518110610f1457610f14613e6c565b60200260200101511115610f29575050611192565b73ffffffffffffffffffffffffffffffffffffffff8116331461105a578160030154421115611019576040517f4225d37a00000000000000000000000000000000000000000000000000000000815273ffffffffffffffffffffffffffffffffffffffff82811660048301527fffffffffffffffffffffffffffffffffffffffffffffffffffffffffffffffff60248301527f00000000000000000000000000000000000000000000000000000000000000001690634225d37a906044015f604051808303815f87803b158015610ffe575f5ffd5b505af1158015611010573d5f5f3e3d5ffd5b5050505061105a565b60038201546040517f177d0c790000000000000000000000000000000000000000000000000000000081526004810191909152426024820152604401610a27565b6001820180547fffffffffffffffffffffffff000000000000000000000000000000000000000016331790556002820154865173ffffffffffffffffffffffffffffffffffffffff91909116908790859081106110b9576110b9613e6c565b602002602001019073ffffffffffffffffffffffffffffffffffffffff16908173ffffffffffffffffffffffffffffffffffffffff168152505060095f87858151811061110857611108613e6c565b602002602001015173ffffffffffffffffffffffffffffffffffffffff1673ffffffffffffffffffffffffffffffffffffffff1681526020019081526020015f205f81548092919061115990613f50565b919050555060018a848151811061117257611172613e6c565b911515602092830291909101909101528761118c81613f50565b98505050505b600101610dd5565b508415611358578460035f8282546111b29190613f87565b9091555050335f908152600a6020526040812080548792906111d5908490613fa0565b909155505073ffffffffffffffffffffffffffffffffffffffff86165f908152600b60205260408120805487929061120e908490613fa0565b90915550506040517f4225d37a000000000000000000000000000000000000000000000000000000008152336004820152602481018690527f000000000000000000000000000000000000000000000000000000000000000073ffffffffffffffffffffffffffffffffffffffff1690634225d37a906044015f604051808303815f87803b15801561129e575f5ffd5b505af11580156112b0573d5f5f3e3d5ffd5b505050505f600f5f8381526020019081526020015f205f9054906101000a900473ffffffffffffffffffffffffffffffffffffffff1690508073ffffffffffffffffffffffffffffffffffffffff166379e4afe833868b8e886040518663ffffffff1660e01b8152600401611329959493929190613fb3565b5f604051808303815f87803b158015611340575f5ffd5b505af1158015611352573d5f5f3e3d5ffd5b50505050505b826040516113669190614027565b60405180910390203373ffffffffffffffffffffffffffffffffffffffff167f894bb814a80f77e14febccf552394d95b38cc21a6dda1b0cf26434433fdf3e4c878d8b6040516113b893929190614072565b60405180910390a35050600160065550929695505050505050565b60075473ffffffffffffffffffffffffffffffffffffffff163314611446576007546040517fa43d6ada00000000000000000000000000000000000000000000000000000000815233600482015273ffffffffffffffffffffffffffffffffffffffff9091166024820152604401610a27565b73ffffffffffffffffffffffffffffffffffffffff8116611493576040517fd92e233d00000000000000000000000000000000000000000000000000000000815260040160405180910390fd5b7fe6194b93a7bff0a54130ed8cd277223408a77f3e48bb5104a9db96d334f962ca81905560405173ffffffffffffffffffffffffffffffffffffffff8216907f310ba5f1d2ed074b51e2eccd052a47ae9ab7c6b800d1fca3db3999d6a592ca03905f90a250565b5f73ffffffffffffffffffffffffffffffffffffffff8216611548576040517fd92e233d00000000000000000000000000000000000000000000000000000000815260040160405180910390fd5b5f8273ffffffffffffffffffffffffffffffffffffffff166317d70f7c6040518163ffffffff1660e01b8152600401602060405180830381865afa158015611592573d5f5f3e3d5ffd5b505050506040513d601f19601f820116820180604052508101906115b69190613f0c565b5f8181526011602052604090205490915073ffffffffffffffffffffffffffffffffffffffff848116911614611630576040517f32b2baa300000000000000000000000000000000000000000000000000000000815273ffffffffffffffffffffffffffffffffffffffff84166004820152602401610a27565b8273ffffffffffffffffffffffffffffffffffffffff1663e7f43c686040518163ffffffff1660e01b8152600401602060405180830381865afa158015611679573d5f5f3e3d5ffd5b505050506040513d601f19601f8201168201806040525081019061169d91906140a6565b9392505050565b5f818152600c60209081526040808320815160c081018352815473ffffffffffffffffffffffffffffffffffffffff90811680835260018401548216958301959095526002830154169281019290925260038101546060830152600481015460808301526005015460a0820152901561175957602081015173ffffffffffffffffffffffffffffffffffffffff1661175457806060015142111561174b5760029150611759565b60019150611759565b600391505b50919050565b73ffffffffffffffffffffffffffffffffffffffff82165f908152600d602052604081205460ff166117d5576040517f32b2baa300000000000000000000000000000000000000000000000000000000815273ffffffffffffffffffffffffffffffffffffffff84166004820152602401610a27565b6040517f0f7fb56d00000000000000000000000000000000000000000000000000000000815273ffffffffffffffffffffffffffffffffffffffff841690630f7fb56d9061184b907f000000000000000000000000000000000000000000000000000000000000000090889087906004016140c1565b6020604051808303815f875af1158015611867573d5f5f3e3d5ffd5b505050506040513d601f19601f8201168201806040525081019061188b91906140a6565b905073ffffffffffffffffffffffffffffffffffffffff81166118da576040517fd92e233d00000000000000000000000000000000000000000000000000000000815260040160405180910390fd5b73ffffffffffffffffffffffffffffffffffffffff8082165f818152600e6020908152604080832080549589167fffffffffffffffffffffffff0000000000000000000000000000000000000000968716179055888352601190915281208054909316909117909155600580549161195183613f50565b9091555050604051849073ffffffffffffffffffffffffffffffffffffffff8316907f0dab9459b2f129b692750bed5cc716b07a2fb19ba9fe0a0dc378428a62040367905f90a39392505050565b60606006546002036119dd576040517f8beb9d1600000000000000000000000000000000000000000000000000000000815260040160405180910390fd5b60026006556119ef8686868686612a46565b60016006559695505050505050565b8015611bbf576040517f4236aff8000000000000000000000000000000000000000000000000000000008152600481018290525f90819073ffffffffffffffffffffffffffffffffffffffff7f00000000000000000000000000000000000000000000000000000000000000001690634236aff89060240160e060405180830381865afa158015611a91573d5f5f3e3d5ffd5b505050506040513d601f19601f82011682018060405250810190611ab59190614108565b96505050505092505060046005811115611ad157611ad1613a55565b816005811115611ae357611ae3613a55565b14611b3757806005811115611afa57611afa613a55565b6040517ff014fe74000000000000000000000000000000000000000000000000000000008152600481019190915260248101849052604401610a27565b8373ffffffffffffffffffffffffffffffffffffffff168273ffffffffffffffffffffffffffffffffffffffff1614611bbc576040517fa43d6ada00000000000000000000000000000000000000000000000000000000815273ffffffffffffffffffffffffffffffffffffffff808616600483015283166024820152604401610a27565b50505b5050565b60075473ffffffffffffffffffffffffffffffffffffffff163314611c36576007546040517fa43d6ada00000000000000000000000000000000000000000000000000000000815233600482015273ffffffffffffffffffffffffffffffffffffffff9091166024820152604401610a27565b611c418383836130f8565b60408051848152602081018490529081018290527f64d0972bd5d0c2828d80911b61084d86d61214c3081656ca3a720047a88320359060600160405180910390a1505050565b5f600654600203611cc4576040517f8beb9d1600000000000000000000000000000000000000000000000000000000815260040160405180910390fd5b60026006556040805160018082528183019092525f91816020015b6060815260200190600190039081611cdf5750506040805160018082528183019092529192505f91906020808301908036833701905050905087825f81518110611d2b57611d2b613e6c565b6020026020010181905250611d438288888888612a46565b9050805f81518110611d5757611d57613e6c565b602002602001015192506001600681905550505095945050505050565b60075473ffffffffffffffffffffffffffffffffffffffff1615611dc4576040517f0dc149f000000000000000000000000000000000000000000000000000000000815260040160405180910390fd5b611dcf8383836130f8565b5050600780547fffffffffffffffffffffffff00000000000000000000000000000000000000001633179055506001600655565b5f611e0c6129ec565b30858585604051602001611e23949392919061419f565b60405160208183030381529060405280519060200120604051602001611e7b9291907f190100000000000000000000000000000000000000000000000000000000000081526002810192909252602282015260420190565b6040516020818303038152906040528051906020012090509392505050565b60075473ffffffffffffffffffffffffffffffffffffffff163314611f0d576007546040517fa43d6ada00000000000000000000000000000000000000000000000000000000815233600482015273ffffffffffffffffffffffffffffffffffffffff9091166024820152604401610a27565b73ffffffffffffffffffffffffffffffffffffffff8116611f5a576040517fd92e233d00000000000000000000000000000000000000000000000000000000815260040160405180910390fd5b600780547fffffffffffffffffffffffff00000000000000000000000000000000000000001673ffffffffffffffffffffffffffffffffffffffff83169081179091556040517f4ffd725fc4a22075e9ec71c59edf9c38cdeb588a91b24fc5b61388c5be41282b905f90a250565b600654600203612004576040517f8beb9d1600000000000000000000000000000000000000000000000000000000815260040160405180910390fd5b60026006558451158061201957508351855114155b8061202657508251855114155b8061203357508151855114155b156120885784518451845184516040517f884b5d060000000000000000000000000000000000000000000000000000000081526004810194909452602484019290925260448301526064820152608401610a27565b5f612092336114fa565b905061209e88886119fe565b85515f8167ffffffffffffffff8111156120ba576120ba613621565b6040519080825280602002602001820160405280156120e3578160200160208202803683370190505b5073ffffffffffffffffffffffffffffffffffffffff8b165f908152601060205260408120549192505b838110156123c9576121398c8b838151811061212b5761212b613e6c565b602002602001015184611e03565b83828151811061214b5761214b613e6c565b6020026020010181815250506121948c84838151811061216d5761216d613e6c565b60200260200101518b848151811061218757612187613e6c565b602002602001015161321d565b5f600c5f8584815181106121aa576121aa613e6c565b60209081029190910181015182528101919091526040015f20805490915073ffffffffffffffffffffffffffffffffffffffff1615612232578382815181106121f5576121f5613e6c565b60200260200101516040517fec0db698000000000000000000000000000000000000000000000000000000008152600401610a2791815260200190565b33815f015f6101000a81548173ffffffffffffffffffffffffffffffffffffffff021916908373ffffffffffffffffffffffffffffffffffffffff16021790555033816001015f6101000a81548173ffffffffffffffffffffffffffffffffffffffff021916908373ffffffffffffffffffffffffffffffffffffffff1602179055508c816002015f6101000a81548173ffffffffffffffffffffffffffffffffffffffff021916908373ffffffffffffffffffffffffffffffffffffffff16021790555087828151811061230957612309613e6c565b60200260200101518160040181905550828061232490613f50565b9350508573ffffffffffffffffffffffffffffffffffffffff163373ffffffffffffffffffffffffffffffffffffffff167fb26bbe1b5d72196ae18b7198ae5effbeafd5c75782ac31c6b8445c71f385f49b86858151811061238857612388613e6c565b60200260200101518c86815181106123a2576123a2613e6c565b60200260200101516040516123b89291906141fa565b60405180910390a35060010161210d565b5073ffffffffffffffffffffffffffffffffffffffff8b165f9081526010602090815260408083208490556009909152812080549161240783613f50565b9091555050335f908152600a6020526040812080549161242683613f50565b909155505073ffffffffffffffffffffffffffffffffffffffff84165f908152600b6020526040812080549161245b83613f50565b90915550506040517f55e7d04400000000000000000000000000000000000000000000000000000000815273ffffffffffffffffffffffffffffffffffffffff8c81166004830152336024830152604482018590527f000000000000000000000000000000000000000000000000000000000000000016906355e7d044906064015f604051808303815f87803b1580156124f3575f5ffd5b505af1158015612505573d5f5f3e3d5ffd5b50506040517f4225d37a000000000000000000000000000000000000000000000000000000008152336004820152602481018690527f000000000000000000000000000000000000000000000000000000000000000073ffffffffffffffffffffffffffffffffffffffff169250634225d37a91506044015f604051808303815f87803b158015612594575f5ffd5b505af11580156125a6573d5f5f3e3d5ffd5b505050505f600f5f3373ffffffffffffffffffffffffffffffffffffffff16632763b8da6040518163ffffffff1660e01b81526004016020604051808303815f875af11580156125f8573d5f5f3e3d5ffd5b505050506040513d601f19601f8201168201806040525081019061261c9190613f0c565b81526020019081526020015f205f9054906101000a900473ffffffffffffffffffffffffffffffffffffffff1690508073ffffffffffffffffffffffffffffffffffffffff16636072dd2c338e8a8a6040518563ffffffff1660e01b815260040161268a949392919061421a565b5f604051808303815f87803b1580156126a1575f5ffd5b505af11580156126b3573d5f5f3e3d5ffd5b50506040517f9680b60300000000000000000000000000000000000000000000000000000000815260048101879052339250639680b60391506024015f604051808303815f87803b158015612706575f5ffd5b505af1158015612718573d5f5f3e3d5ffd5b505050508b73ffffffffffffffffffffffffffffffffffffffff163373ffffffffffffffffffffffffffffffffffffffff167ff980d83e9456535b0f9f3634d171df2a5f052f5d5e706b75d30c4e0433da927d868660405161277b929190614281565b60405180910390a35050600160065550505050505050505050565b60075473ffffffffffffffffffffffffffffffffffffffff163314612809576007546040517fa43d6ada00000000000000000000000000000000000000000000000000000000815233600482015273ffffffffffffffffffffffffffffffffffffffff9091166024820152604401610a27565b805182511461285157815181516040517f8151c11000000000000000000000000000000000000000000000000000000000815260048101929092526024820152604401610a27565b5f5b82518110156129ba5782818151811061286e5761286e613e6c565b60200260200101515f5f1b036128b0576040517f7c946ed700000000000000000000000000000000000000000000000000000000815260040160405180910390fd5b5f73ffffffffffffffffffffffffffffffffffffffff168282815181106128d9576128d9613e6c565b602002602001015173ffffffffffffffffffffffffffffffffffffffff160361292e576040517fd92e233d00000000000000000000000000000000000000000000000000000000815260040160405180910390fd5b81818151811061294057612940613e6c565b6020026020010151600f5f85848151811061295d5761295d613e6c565b602002602001015181526020019081526020015f205f6101000a81548173ffffffffffffffffffffffffffffffffffffffff021916908373ffffffffffffffffffffffffffffffffffffffff160217905550806001019050612853565b507fa9759667b17e564f26a0d91ce1c5e4a1dc3910aee992dc3f5f4da0a59d48f3cb8282604051610bc6929190614299565b5f7f00000000000000000000000000000000000000000000000000000000000000004614612a2157612a1c6134d4565b905090565b507f000000000000000000000000000000000000000000000000000000000000000090565b606063ffffffff612a574285613fa0565b1115612aa757612a674284613fa0565b6040517f7ae59685000000000000000000000000000000000000000000000000000000008152600481019190915263ffffffff6024820152604401610a27565b600154831080612ab8575060025483115b15612b05576001546002546040517feb373cfe0000000000000000000000000000000000000000000000000000000081526004810186905260248101929092526044820152606401610a27565b85515f819003612b41576040517f7c946ed700000000000000000000000000000000000000000000000000000000815260040160405180910390fd5b5f8681526011602052604090205473ffffffffffffffffffffffffffffffffffffffff1680612b9c576040517fd92e233d00000000000000000000000000000000000000000000000000000000815260040160405180910390fd5b612ba633876119fe565b8167ffffffffffffffff811115612bbf57612bbf613621565b604051908082528060200260200182016040528015612be8578160200160208202803683370190505b5092505f8173ffffffffffffffffffffffffffffffffffffffff16632cc0fcb26040518163ffffffff1660e01b81526004016020604051808303815f875af1158015612c36573d5f5f3e3d5ffd5b505050506040513d601f19601f82011682018060405250810190612c5a9190613f0c565b90505f8273ffffffffffffffffffffffffffffffffffffffff16632763b8da6040518163ffffffff1660e01b81526004016020604051808303815f875af1158015612ca7573d5f5f3e3d5ffd5b505050506040513d601f19601f82011682018060405250810190612ccb9190613f0c565b335f908152601060205260408120549192505b8b51811015612e6f578b8181518110612cf957612cf9613e6c565b6020026020010151515f03612d3a576040517f7c946ed700000000000000000000000000000000000000000000000000000000815260040160405180910390fd5b612d50338d838151811061212b5761212b613e6c565b878281518110612d6257612d62613e6c565b6020026020010181815250505f600c5f898481518110612d8457612d84613e6c565b60209081029190910181015182528101919091526040015f20805490915073ffffffffffffffffffffffffffffffffffffffff1615612dcf578782815181106121f5576121f5613e6c565b80547fffffffffffffffffffffffff00000000000000000000000000000000000000001673ffffffffffffffffffffffffffffffffffffffff8716178155612e17428b613fa0565b60038201556002810180547fffffffffffffffffffffffff00000000000000000000000000000000000000001633179055600481018590556005810184905582612e6081613f50565b93505050806001019050612cde565b50335f818152601060209081526040808320859055858352600f909152908190205490517f38603a3900000000000000000000000000000000000000000000000000000000815273ffffffffffffffffffffffffffffffffffffffff9091169182916338603a39913491612eec91908b908a908f906004016142bd565b5f604051808303818588803b158015612f03575f5ffd5b505af1158015612f15573d5f5f3e3d5ffd5b50506040517f55e7d04400000000000000000000000000000000000000000000000000000000815233600482015273ffffffffffffffffffffffffffffffffffffffff8981166024830152604482018b90527f00000000000000000000000000000000000000000000000000000000000000001693506355e7d044925060640190505f604051808303815f87803b158015612fae575f5ffd5b505af1158015612fc0573d5f5f3e3d5ffd5b5050335f90815260086020526040812080548a9450909250612fe3908490613fa0565b925050819055508560035f828254612ffb9190613fa0565b925050819055508560045f8282546130139190613fa0565b925050819055508473ffffffffffffffffffffffffffffffffffffffff1663be2641de888e6040518363ffffffff1660e01b81526004016130559291906142f7565b5f604051808303815f87803b15801561306c575f5ffd5b505af115801561307e573d5f5f3e3d5ffd5b505050503373ffffffffffffffffffffffffffffffffffffffff168573ffffffffffffffffffffffffffffffffffffffff167f5d60556939d4ab71b3129033c865bf7e828306916fd94fd35019d3d530eb36b3888a6040516130e1929190614281565b60405180910390a350505050505095945050505050565b811580613103575080155b1561313a576040517f7c946ed700000000000000000000000000000000000000000000000000000000815260040160405180910390fd5b612710831115613181576040517f7ae59685000000000000000000000000000000000000000000000000000000008152600481018490526127106024820152604401610a27565b808211156131c5576040517f7ae596850000000000000000000000000000000000000000000000000000000081526004810183905260248101829052604401610a27565b63ffffffff811115613210576040517f7ae596850000000000000000000000000000000000000000000000000000000081526004810182905263ffffffff6024820152604401610a27565b5f92909255600155600255565b73ffffffffffffffffffffffffffffffffffffffff831661326a576040517fd92e233d00000000000000000000000000000000000000000000000000000000815260040160405180910390fd5b73ffffffffffffffffffffffffffffffffffffffff83163b15613380576040517f1626ba7e000000000000000000000000000000000000000000000000000000008082529073ffffffffffffffffffffffffffffffffffffffff851690631626ba7e906132dd90869086906004016141fa565b602060405180830381865afa1580156132f8573d5f5f3e3d5ffd5b505050506040513d601f19601f8201168201806040525081019061331c919061438a565b7fffffffff00000000000000000000000000000000000000000000000000000000160361334857505050565b8282826040517f02d51bb2000000000000000000000000000000000000000000000000000000008152600401610a27939291906140c1565b80516041146133c25780516040517f1d9f5a5f000000000000000000000000000000000000000000000000000000008152610a279183916041906004016143c9565b5f816040815181106133d6576133d6613e6c565b016020015160f81c905060048110156133f7576133f4601b826143ed565b90505b60208281015160408085015181515f80825294810180845288905260ff861692810192909252606082018390526080820181905291929060019060a0016020604051602081039080840390855afa158015613454573d5f5f3e3d5ffd5b5050506020604051035190508673ffffffffffffffffffffffffffffffffffffffff168173ffffffffffffffffffffffffffffffffffffffff16146134cb578686866040517f02d51bb2000000000000000000000000000000000000000000000000000000008152600401610a27939291906140c1565b50505050505050565b5f7f8b73c3c69bb8fe3d512ecc4cf759cc79239f7b179b0ffacaa9a75d522b39400f7ff376b6313a0837eb351511248cfe7dcc1cd26c49b8e0a47e1eb369dd62c425db6040518060400160405280600581526020017f312e312e3000000000000000000000000000000000000000000000000000000081525060405160200161355d9190613e5a565b604080517fffffffffffffffffffffffffffffffffffffffffffffffffffffffffffffffe081840301815282825280516020918201209083019490945281019190915260608101919091524660808201523060a082015260c00160405160208183030381529060405280519060200120905090565b73ffffffffffffffffffffffffffffffffffffffff811681146135f3575f5ffd5b50565b8035613601816135d2565b919050565b5f60208284031215613616575f5ffd5b813561169d816135d2565b7f4e487b71000000000000000000000000000000000000000000000000000000005f52604160045260245ffd5b604051601f82017fffffffffffffffffffffffffffffffffffffffffffffffffffffffffffffffe016810167ffffffffffffffff8111828210171561369557613695613621565b604052919050565b5f67ffffffffffffffff8211156136b6576136b6613621565b5060051b60200190565b5f82601f8301126136cf575f5ffd5b81356136e26136dd8261369d565b61364e565b8082825260208201915060208360051b860101925085831115613703575f5ffd5b602085015b8381101561372957803561371b816135d2565b835260209283019201613708565b5095945050505050565b5f5f60408385031215613744575f5ffd5b823567ffffffffffffffff81111561375a575f5ffd5b613766858286016136c0565b925050602083013567ffffffffffffffff811115613782575f5ffd5b8301601f81018513613792575f5ffd5b80356137a06136dd8261369d565b8082825260208201915060208360051b8501019250878311156137c1575f5ffd5b6020840193505b828410156137f057833580151581146137df575f5ffd5b8252602093840193909101906137c8565b809450505050509250929050565b5f82601f83011261380d575f5ffd5b813561381b6136dd8261369d565b8082825260208201915060208360051b86010192508583111561383c575f5ffd5b602085015b83811015613729578035835260209283019201613841565b5f82601f830112613868575f5ffd5b813567ffffffffffffffff81111561388257613882613621565b6138b360207fffffffffffffffffffffffffffffffffffffffffffffffffffffffffffffffe0601f8401160161364e565b8181528460208386010111156138c7575f5ffd5b816020850160208301375f918101602001919091529392505050565b5f82601f8301126138f2575f5ffd5b81356139006136dd8261369d565b8082825260208201915060208360051b860101925085831115613921575f5ffd5b602085015b8381101561372957803567ffffffffffffffff811115613944575f5ffd5b613953886020838a0101613859565b84525060209283019201613926565b5f5f5f60608486031215613974575f5ffd5b833567ffffffffffffffff81111561398a575f5ffd5b613996868287016137fe565b935050602084013567ffffffffffffffff8111156139b2575f5ffd5b6139be868287016137fe565b925050604084013567ffffffffffffffff8111156139da575f5ffd5b6139e6868287016138e3565b9150509250925092565b5f8151808452602084019350602083015f5b82811015613a225781511515865260209586019590910190600101613a02565b5093949350505050565b602081525f61169d60208301846139f0565b5f60208284031215613a4e575f5ffd5b5035919050565b7f4e487b71000000000000000000000000000000000000000000000000000000005f52602160045260245ffd5b6020810160048310613abb577f4e487b71000000000000000000000000000000000000000000000000000000005f52602160045260245ffd5b91905290565b5f5f5f60608486031215613ad3575f5ffd5b833592506020840135613ae5816135d2565b9150604084013567ffffffffffffffff811115613b00575f5ffd5b6139e686828701613859565b5f5f5f5f5f60a08688031215613b20575f5ffd5b853567ffffffffffffffff811115613b36575f5ffd5b613b42888289016138e3565b955050602086013593506040860135925060608601359150608086013567ffffffffffffffff811115613b73575f5ffd5b613b7f88828901613859565b9150509295509295909350565b5f8151808452602084019350602083015f5b82811015613a22578151865260209586019590910190600101613b9e565b602081525f61169d6020830184613b8c565b5f5f60408385031215613bdf575f5ffd5b8235613bea816135d2565b946020939093013593505050565b5f5f5f60608486031215613c0a575f5ffd5b505081359360208301359350604090920135919050565b5f5f5f5f5f60a08688031215613c35575f5ffd5b853567ffffffffffffffff811115613c4b575f5ffd5b613b4288828901613859565b5f5f5f60608486031215613c69575f5ffd5b8335613c74816135d2565b9250602084013567ffffffffffffffff811115613c8f575f5ffd5b613c9b86828701613859565b93969395505050506040919091013590565b5f5f5f5f5f5f5f60e0888a031215613cc3575f5ffd5b613ccc886135f6565b965060208801359550604088013567ffffffffffffffff811115613cee575f5ffd5b613cfa8a828b016138e3565b955050606088013567ffffffffffffffff811115613d16575f5ffd5b613d228a828b016138e3565b945050608088013567ffffffffffffffff811115613d3e575f5ffd5b613d4a8a828b016138e3565b93505060a088013567ffffffffffffffff811115613d66575f5ffd5b613d728a828b016137fe565b92505060c088013567ffffffffffffffff811115613d8e575f5ffd5b613d9a8a828b01613859565b91505092959891949750929550565b5f5f60408385031215613dba575f5ffd5b823567ffffffffffffffff811115613dd0575f5ffd5b613ddc858286016137fe565b925050602083013567ffffffffffffffff811115613df8575f5ffd5b613e04858286016136c0565b9150509250929050565b5f81518084528060208401602086015e5f6020828601015260207fffffffffffffffffffffffffffffffffffffffffffffffffffffffffffffffe0601f83011685010191505092915050565b602081525f61169d6020830184613e0e565b7f4e487b71000000000000000000000000000000000000000000000000000000005f52603260045260245ffd5b5f8151808452602084019350602083015f5b82811015613a2257815173ffffffffffffffffffffffffffffffffffffffff16865260209586019590910190600101613eab565b604081525f613ef16040830185613e99565b8281036020840152613f0381856139f0565b95945050505050565b5f60208284031215613f1c575f5ffd5b5051919050565b7f4e487b71000000000000000000000000000000000000000000000000000000005f52601160045260245ffd5b5f7fffffffffffffffffffffffffffffffffffffffffffffffffffffffffffffffff8203613f8057613f80613f23565b5060010190565b81810381811115613f9a57613f9a613f23565b92915050565b80820180821115613f9a57613f9a613f23565b73ffffffffffffffffffffffffffffffffffffffff8616815260a060208201525f613fe160a0830187613e99565b8281036040840152613ff381876139f0565b905082810360608401526140078186613b8c565b9050828103608084015261401b8185613b8c565b98975050505050505050565b81515f90829060208501835b8281101561406757815173ffffffffffffffffffffffffffffffffffffffff16845260209384019390910190600101614033565b509195945050505050565b838152606060208201525f61408a6060830185613b8c565b828103604084015261409c81856139f0565b9695505050505050565b5f602082840312156140b6575f5ffd5b815161169d816135d2565b73ffffffffffffffffffffffffffffffffffffffff84168152826020820152606060408201525f613f036060830184613e0e565b805163ffffffff81168114613601575f5ffd5b5f5f5f5f5f5f5f60e0888a03121561411e575f5ffd5b87516bffffffffffffffffffffffff81168114614139575f5ffd5b602089015190975061414a816135d2565b60408901519096509450614160606089016140f5565b935061416e608089016140f5565b925061417c60a089016140f5565b915060c08801516006811061418f575f5ffd5b8091505092959891949750929550565b73ffffffffffffffffffffffffffffffffffffffff8516815273ffffffffffffffffffffffffffffffffffffffff84166020820152608060408201525f6141e96080830185613e0e565b905082606083015295945050505050565b828152604060208201525f6142126040830184613e0e565b949350505050565b73ffffffffffffffffffffffffffffffffffffffff8516815273ffffffffffffffffffffffffffffffffffffffff84166020820152608060408201525f6142646080830185613b8c565b82810360608401526142768185613e0e565b979650505050505050565b828152604060208201525f6142126040830184613b8c565b604081525f6142ab6040830185613b8c565b8281036020840152613f038185613e99565b73ffffffffffffffffffffffffffffffffffffffff85168152836020820152826040820152608060608201525f61409c6080830184613e0e565b604081525f6143096040830185613b8c565b828103602084015280845180835260208301915060208160051b840101602087015f5b8381101561437c577fffffffffffffffffffffffffffffffffffffffffffffffffffffffffffffffe0868403018552614366838351613e0e565b602095860195909350919091019060010161432c565b509098975050505050505050565b5f6020828403121561439a575f5ffd5b81517fffffffff000000000000000000000000000000000000000000000000000000008116811461169d575f5ffd5b606081525f6143db6060830186613e0e565b60208301949094525060400152919050565b60ff8181168382160190811115613f9a57613f9a613f2356fea2646970667358221220a95e01677e848a86748677b7142992b9f06287852291f0474948be2fa0420eec64736f6c634300081c0033",
  "linkReferences": {},
  "deployedLinkReferences": {}
}