{
  "_format": "hh-sol-artifact-1",
  "contractName": "MechFixedPrice",
  "sourceName": "contracts/MechFixedPrice.sol",
  "abi": [
    {
      "inputs": [
        {
          "internalType": "address",
          "name": "_mechMarketplace",
          "type": "address"
        },
        {
          "internalType": "address",
          "name": "_serviceRegistry",
          "type": "address"
        },
        {
          "internalType": "uint256",
          "name": "_serviceId",
          "type": "uint256"
        },
        {
          "internalType": "uint256",
          "name": "_price",
          "type": "uint256"
        }
      ],
      "stateMutability": "nonpayable",
      "type": "constructor"
    },
    {
      "inputs": [
        {
          "internalType": "uint256",
          "name": "agentId",
          "type": "uint256"
        }
      ],
      "name": "AgentNotFound",
      "type": "error"
    },
    {
      "inputs": [
        {
          "internalType": "address",
          "name": "mechMarketplace",
          "type": "address"
        }
      ],
      "name": "MarketplaceExists",
      "type": "error"
    },
    {
      "inputs": [
        {
          "internalType": "address",
          "name": "mechMarketplace",
          "type": "address"
        }
      ],
      "name": "MarketplaceNotAuthorized",
      "type": "error"
    },
    {
      "inputs": [
        {
          "internalType": "uint256",
          "name": "provided",
          "type": "uint256"
        },
        {
          "internalType": "uint256",
          "name": "expected",
          "type": "uint256"
        }
      ],
      "name": "NotEnoughPaid",
      "type": "error"
    },
    {
      "inputs": [
        {
          "internalType": "uint256",
          "name": "provided",
          "type": "uint256"
        },
        {
          "internalType": "uint256",
          "name": "max",
          "type": "uint256"
        }
      ],
      "name": "Overflow",
      "type": "error"
    },
    {
      "inputs": [],
      "name": "ReentrancyGuard",
      "type": "error"
    },
    {
      "inputs": [
        {
          "internalType": "uint256",
          "name": "requestId",
          "type": "uint256"
        }
      ],
      "name": "RequestIdNotFound",
      "type": "error"
    },
    {
      "inputs": [
        {
          "internalType": "uint256",
          "name": "state",
          "type": "uint256"
        },
        {
          "internalType": "uint256",
          "name": "serviceId",
          "type": "uint256"
        }
      ],
      "name": "WrongServiceState",
      "type": "error"
    },
    {
      "inputs": [],
      "name": "ZeroAddress",
      "type": "error"
    },
    {
      "inputs": [],
      "name": "ZeroValue",
      "type": "error"
    },
    {
      "anonymous": false,
      "inputs": [
        {
          "indexed": true,
          "internalType": "address",
          "name": "sender",
          "type": "address"
        },
        {
          "indexed": false,
          "internalType": "uint256",
          "name": "requestId",
          "type": "uint256"
        },
        {
          "indexed": false,
          "internalType": "bytes",
          "name": "data",
          "type": "bytes"
        }
      ],
      "name": "Deliver",
      "type": "event"
    },
    {
      "anonymous": false,
      "inputs": [
        {
          "indexed": false,
          "internalType": "uint256",
          "name": "price",
          "type": "uint256"
        }
      ],
      "name": "PriceUpdated",
      "type": "event"
    },
    {
      "anonymous": false,
      "inputs": [
        {
          "indexed": true,
          "internalType": "address",
          "name": "sender",
          "type": "address"
        },
        {
          "indexed": false,
          "internalType": "uint256",
          "name": "requestId",
          "type": "uint256"
        },
        {
          "indexed": false,
          "internalType": "bytes",
          "name": "data",
          "type": "bytes"
        }
      ],
      "name": "Request",
      "type": "event"
    },
    {
      "anonymous": false,
      "inputs": [
        {
          "indexed": true,
          "internalType": "address",
          "name": "sender",
          "type": "address"
        },
        {
          "indexed": false,
          "internalType": "uint256",
          "name": "requestId",
          "type": "uint256"
        }
      ],
      "name": "RevokeRequest",
      "type": "event"
    },
    {
      "inputs": [],
      "name": "DOMAIN_SEPARATOR_TYPE_HASH",
      "outputs": [
        {
          "internalType": "bytes32",
          "name": "",
          "type": "bytes32"
        }
      ],
      "stateMutability": "view",
      "type": "function"
    },
    {
      "inputs": [],
      "name": "VERSION",
      "outputs": [
        {
          "internalType": "string",
          "name": "",
          "type": "string"
        }
      ],
      "stateMutability": "view",
      "type": "function"
    },
    {
      "inputs": [],
      "name": "chainId",
      "outputs": [
        {
          "internalType": "uint256",
          "name": "",
          "type": "uint256"
        }
      ],
      "stateMutability": "view",
      "type": "function"
    },
    {
      "inputs": [
        {
          "internalType": "uint256",
          "name": "requestId",
          "type": "uint256"
        },
        {
          "internalType": "bytes",
          "name": "data",
          "type": "bytes"
        },
        {
          "internalType": "address",
          "name": "mechStakingInstance",
          "type": "address"
        },
        {
          "internalType": "uint256",
          "name": "mechServiceId",
          "type": "uint256"
        }
      ],
      "name": "deliverToMarketplace",
      "outputs": [],
      "stateMutability": "nonpayable",
      "type": "function"
    },
    {
      "inputs": [],
      "name": "domainSeparator",
      "outputs": [
        {
          "internalType": "bytes32",
          "name": "",
          "type": "bytes32"
        }
      ],
      "stateMutability": "view",
      "type": "function"
    },
    {
      "inputs": [],
      "name": "entryPoint",
      "outputs": [
        {
          "internalType": "contract IEntryPoint",
          "name": "",
          "type": "address"
        }
      ],
      "stateMutability": "view",
      "type": "function"
    },
    {
      "inputs": [
        {
          "internalType": "address",
          "name": "to",
          "type": "address"
        },
        {
          "internalType": "uint256",
          "name": "value",
          "type": "uint256"
        },
        {
          "internalType": "bytes",
          "name": "data",
          "type": "bytes"
        },
        {
          "internalType": "enum Enum.Operation",
          "name": "operation",
          "type": "uint8"
        },
        {
          "internalType": "uint256",
          "name": "txGas",
          "type": "uint256"
        }
      ],
      "name": "exec",
      "outputs": [
        {
          "internalType": "bytes",
          "name": "returnData",
          "type": "bytes"
        }
      ],
      "stateMutability": "nonpayable",
      "type": "function"
    },
    {
      "inputs": [
        {
          "internalType": "address",
          "name": "account",
          "type": "address"
        }
      ],
      "name": "getDeliveriesCount",
      "outputs": [
        {
          "internalType": "uint256",
          "name": "",
          "type": "uint256"
        }
      ],
      "stateMutability": "view",
      "type": "function"
    },
    {
      "inputs": [],
      "name": "getDomainSeparator",
      "outputs": [
        {
          "internalType": "bytes32",
          "name": "",
          "type": "bytes32"
        }
      ],
      "stateMutability": "view",
      "type": "function"
    },
    {
      "inputs": [
        {
          "internalType": "address",
          "name": "account",
          "type": "address"
        },
        {
          "internalType": "bytes",
          "name": "data",
          "type": "bytes"
        },
        {
          "internalType": "uint256",
          "name": "nonce",
          "type": "uint256"
        }
      ],
      "name": "getRequestId",
      "outputs": [
        {
          "internalType": "uint256",
          "name": "requestId",
          "type": "uint256"
        }
      ],
      "stateMutability": "view",
      "type": "function"
    },
    {
      "inputs": [
        {
          "internalType": "uint256",
          "name": "requestId",
          "type": "uint256"
        }
      ],
      "name": "getRequestStatus",
      "outputs": [
        {
          "internalType": "enum OlasMech.RequestStatus",
          "name": "status",
          "type": "uint8"
        }
      ],
      "stateMutability": "view",
      "type": "function"
    },
    {
      "inputs": [
        {
          "internalType": "address",
          "name": "account",
          "type": "address"
        }
      ],
      "name": "getRequestsCount",
      "outputs": [
        {
          "internalType": "uint256",
          "name": "",
          "type": "uint256"
        }
      ],
      "stateMutability": "view",
      "type": "function"
    },
    {
      "inputs": [
        {
          "internalType": "uint256",
          "name": "size",
          "type": "uint256"
        },
        {
          "internalType": "uint256",
          "name": "offset",
          "type": "uint256"
        }
      ],
      "name": "getUndeliveredRequestIds",
      "outputs": [
        {
          "internalType": "uint256[]",
          "name": "requestIds",
          "type": "uint256[]"
        }
      ],
      "stateMutability": "view",
      "type": "function"
    },
    {
      "inputs": [
        {
          "internalType": "address",
          "name": "signer",
          "type": "address"
        }
      ],
      "name": "isOperator",
      "outputs": [
        {
          "internalType": "bool",
          "name": "",
          "type": "bool"
        }
      ],
      "stateMutability": "view",
      "type": "function"
    },
    {
      "inputs": [
        {
          "internalType": "bytes32",
          "name": "hash",
          "type": "bytes32"
        },
        {
          "internalType": "bytes",
          "name": "signature",
          "type": "bytes"
        }
      ],
      "name": "isValidSignature",
      "outputs": [
        {
          "internalType": "bytes4",
          "name": "magicValue",
          "type": "bytes4"
        }
      ],
      "stateMutability": "view",
      "type": "function"
    },
    {
      "inputs": [
        {
          "internalType": "address",
          "name": "",
          "type": "address"
        }
      ],
      "name": "mapDeliveryCounts",
      "outputs": [
        {
          "internalType": "uint256",
          "name": "",
          "type": "uint256"
        }
      ],
      "stateMutability": "view",
      "type": "function"
    },
    {
      "inputs": [
        {
          "internalType": "address",
          "name": "",
          "type": "address"
        }
      ],
      "name": "mapNonces",
      "outputs": [
        {
          "internalType": "uint256",
          "name": "",
          "type": "uint256"
        }
      ],
      "stateMutability": "view",
      "type": "function"
    },
    {
      "inputs": [
        {
          "internalType": "uint256",
          "name": "",
          "type": "uint256"
        }
      ],
      "name": "mapRequestAddresses",
      "outputs": [
        {
          "internalType": "address",
          "name": "",
          "type": "address"
        }
      ],
      "stateMutability": "view",
      "type": "function"
    },
    {
      "inputs": [
        {
          "internalType": "address",
          "name": "",
          "type": "address"
        }
      ],
      "name": "mapRequestCounts",
      "outputs": [
        {
          "internalType": "uint256",
          "name": "",
          "type": "uint256"
        }
      ],
      "stateMutability": "view",
      "type": "function"
    },
    {
      "inputs": [
        {
          "internalType": "uint256",
          "name": "",
          "type": "uint256"
        },
        {
          "internalType": "uint256",
          "name": "",
          "type": "uint256"
        }
      ],
      "name": "mapRequestIds",
      "outputs": [
        {
          "internalType": "uint256",
          "name": "",
          "type": "uint256"
        }
      ],
      "stateMutability": "view",
      "type": "function"
    },
    {
      "inputs": [
        {
          "internalType": "address",
          "name": "",
          "type": "address"
        }
      ],
      "name": "mapUndeliveredRequestsCounts",
      "outputs": [
        {
          "internalType": "uint256",
          "name": "",
          "type": "uint256"
        }
      ],
      "stateMutability": "view",
      "type": "function"
    },
    {
      "inputs": [],
      "name": "mechMarketplace",
      "outputs": [
        {
          "internalType": "address",
          "name": "",
          "type": "address"
        }
      ],
      "stateMutability": "view",
      "type": "function"
    },
    {
      "inputs": [],
      "name": "nonce",
      "outputs": [
        {
          "internalType": "uint256",
          "name": "",
          "type": "uint256"
        }
      ],
      "stateMutability": "view",
      "type": "function"
    },
    {
      "inputs": [],
      "name": "numTotalDeliveries",
      "outputs": [
        {
          "internalType": "uint256",
          "name": "",
          "type": "uint256"
        }
      ],
      "stateMutability": "view",
      "type": "function"
    },
    {
      "inputs": [],
      "name": "numTotalRequests",
      "outputs": [
        {
          "internalType": "uint256",
          "name": "",
          "type": "uint256"
        }
      ],
      "stateMutability": "view",
      "type": "function"
    },
    {
      "inputs": [],
      "name": "numUndeliveredRequests",
      "outputs": [
        {
          "internalType": "uint256",
          "name": "",
          "type": "uint256"
        }
      ],
      "stateMutability": "view",
      "type": "function"
    },
    {
      "inputs": [
        {
          "internalType": "address",
          "name": "",
          "type": "address"
        },
        {
          "internalType": "address",
          "name": "",
          "type": "address"
        },
        {
          "internalType": "uint256[]",
          "name": "",
          "type": "uint256[]"
        },
        {
          "internalType": "uint256[]",
          "name": "",
          "type": "uint256[]"
        },
        {
          "internalType": "bytes",
          "name": "",
          "type": "bytes"
        }
      ],
      "name": "onERC1155BatchReceived",
      "outputs": [
        {
          "internalType": "bytes4",
          "name": "",
          "type": "bytes4"
        }
      ],
      "stateMutability": "pure",
      "type": "function"
    },
    {
      "inputs": [
        {
          "internalType": "address",
          "name": "",
          "type": "address"
        },
        {
          "internalType": "address",
          "name": "",
          "type": "address"
        },
        {
          "internalType": "uint256",
          "name": "",
          "type": "uint256"
        },
        {
          "internalType": "uint256",
          "name": "",
          "type": "uint256"
        },
        {
          "internalType": "bytes",
          "name": "",
          "type": "bytes"
        }
      ],
      "name": "onERC1155Received",
      "outputs": [
        {
          "internalType": "bytes4",
          "name": "",
          "type": "bytes4"
        }
      ],
      "stateMutability": "pure",
      "type": "function"
    },
    {
      "inputs": [
        {
          "internalType": "address",
          "name": "",
          "type": "address"
        },
        {
          "internalType": "address",
          "name": "",
          "type": "address"
        },
        {
          "internalType": "uint256",
          "name": "",
          "type": "uint256"
        },
        {
          "internalType": "bytes",
          "name": "",
          "type": "bytes"
        }
      ],
      "name": "onERC721Received",
      "outputs": [
        {
          "internalType": "bytes4",
          "name": "",
          "type": "bytes4"
        }
      ],
      "stateMutability": "pure",
      "type": "function"
    },
    {
      "inputs": [],
      "name": "price",
      "outputs": [
        {
          "internalType": "uint256",
          "name": "",
          "type": "uint256"
        }
      ],
      "stateMutability": "view",
      "type": "function"
    },
    {
      "inputs": [
        {
          "internalType": "address",
          "name": "account",
          "type": "address"
        },
        {
          "internalType": "uint256",
          "name": "payment",
          "type": "uint256"
        },
        {
          "internalType": "bytes",
          "name": "data",
          "type": "bytes"
        },
        {
          "internalType": "uint256",
          "name": "requestId",
          "type": "uint256"
        }
      ],
      "name": "requestFromMarketplace",
      "outputs": [],
      "stateMutability": "nonpayable",
      "type": "function"
    },
    {
      "inputs": [
        {
          "internalType": "uint256",
          "name": "requestId",
          "type": "uint256"
        }
      ],
      "name": "revokeRequest",
      "outputs": [],
      "stateMutability": "nonpayable",
      "type": "function"
    },
    {
      "inputs": [
        {
          "internalType": "uint256",
          "name": "newPrice",
          "type": "uint256"
        }
      ],
      "name": "setPrice",
      "outputs": [],
      "stateMutability": "nonpayable",
      "type": "function"
    },
    {
      "inputs": [
        {
          "internalType": "bytes",
          "name": "initParams",
          "type": "bytes"
        }
      ],
      "name": "setUp",
      "outputs": [],
      "stateMutability": "nonpayable",
      "type": "function"
    },
    {
      "inputs": [],
      "name": "token",
      "outputs": [
        {
          "internalType": "address",
          "name": "serviceRegistry",
          "type": "address"
        }
      ],
      "stateMutability": "view",
      "type": "function"
    },
    {
      "inputs": [],
      "name": "tokenId",
      "outputs": [
        {
          "internalType": "uint256",
          "name": "",
          "type": "uint256"
        }
      ],
      "stateMutability": "view",
      "type": "function"
    },
    {
      "inputs": [
        {
          "internalType": "address",
          "name": "",
          "type": "address"
        },
        {
          "internalType": "address",
          "name": "",
          "type": "address"
        },
        {
          "internalType": "address",
          "name": "",
          "type": "address"
        },
        {
          "internalType": "uint256",
          "name": "",
          "type": "uint256"
        },
        {
          "internalType": "bytes",
          "name": "",
          "type": "bytes"
        },
        {
          "internalType": "bytes",
          "name": "",
          "type": "bytes"
        }
      ],
      "name": "tokensReceived",
      "outputs": [],
      "stateMutability": "pure",
      "type": "function"
    },
    {
      "inputs": [
        {
          "components": [
            {
              "internalType": "address",
              "name": "sender",
              "type": "address"
            },
            {
              "internalType": "uint256",
              "name": "nonce",
              "type": "uint256"
            },
            {
              "internalType": "bytes",
              "name": "initCode",
              "type": "bytes"
            },
            {
              "internalType": "bytes",
              "name": "callData",
              "type": "bytes"
            },
            {
              "internalType": "uint256",
              "name": "callGasLimit",
              "type": "uint256"
            },
            {
              "internalType": "uint256",
              "name": "verificationGasLimit",
              "type": "uint256"
            },
            {
              "internalType": "uint256",
              "name": "preVerificationGas",
              "type": "uint256"
            },
            {
              "internalType": "uint256",
              "name": "maxFeePerGas",
              "type": "uint256"
            },
            {
              "internalType": "uint256",
              "name": "maxPriorityFeePerGas",
              "type": "uint256"
            },
            {
              "internalType": "bytes",
              "name": "paymasterAndData",
              "type": "bytes"
            },
            {
              "internalType": "bytes",
              "name": "signature",
              "type": "bytes"
            }
          ],
          "internalType": "struct UserOperation",
          "name": "userOp",
          "type": "tuple"
        },
        {
          "internalType": "bytes32",
          "name": "userOpHash",
          "type": "bytes32"
        },
        {
          "internalType": "uint256",
          "name": "missingAccountFunds",
          "type": "uint256"
        }
      ],
      "name": "validateUserOp",
      "outputs": [
        {
          "internalType": "uint256",
          "name": "validationData",
          "type": "uint256"
        }
      ],
      "stateMutability": "nonpayable",
      "type": "function"
    },
    {
      "stateMutability": "payable",
      "type": "receive"
    }
  ],
  "bytecode": "0x60e06040525f5f556001600455348015610017575f5ffd5b506040516137a53803806137a583398101604081905261003691610500565b8383836001600160a01b0382166100605760405163d92e233d60e01b815260040160405180910390fd5b805f0361008057604051637c946ed760e01b815260040160405180910390fd5b604080516001600160a01b03841660208201529081018290525f9060600160408051601f1981840301815290829052630846d5ff60e31b82526004820184905291505f9081906001600160a01b03861690634236aff89060240160e060405180830381865afa1580156100f5573d5f5f3e3d5ffd5b505050506040513d601f19601f820116820180604052508101906101199190610553565b9650505050509250505f6001600160a01b0316826001600160a01b0316036101545760405163d92e233d60e01b815260040160405180910390fd5b6004816005811115610168576101686105e1565b146101a85780600581111561017f5761017f6105e1565b604051633c053f9d60e21b81526004810191909152602481018590526044015b60405180910390fd5b6101b183610202565b6001600160a01b03861660c0524660a0526101ca610264565b6080525050505f84900392506101f691505057604051637c946ed760e01b815260040160405180910390fd5b600b55506106bd915050565b61020a61032c565b51156102585760405162461bcd60e51b815260206004820152601360248201527f416c726561647920696e697469616c697a656400000000000000000000000000604482015260640161019f565b61026181610394565b50565b5f7f8b73c3c69bb8fe3d512ecc4cf759cc79239f7b179b0ffacaa9a75d522b39400f7f493aeac1d921aa02a044029e7fe4be43b1a4e80b40706fa5819e8fbb0d093525604051806040016040528060058152602001640312e312e360dc1b8152506040516020016102d591906105f5565b60408051601f1981840301815282825280516020918201209083019490945281019190915260608101919091524660808201523060a082015260c00160405160208183030381529060405280519060200120905090565b606061038f61038a604051606b60f91b6020820152602560fa1b60218201526001600160601b03193060601b166022820152600160f81b60368201525f90603701604051602081830303815290604052805190602001205f1c905090565b610458565b905090565b5f61039e826104ad565b90505f8151602083015ff09050610404604051606b60f91b6020820152602560fa1b60218201526001600160601b03193060601b166022820152600160f81b60368201525f90603701604051602081830303815290604052805190602001205f1c905090565b6001600160a01b0316816001600160a01b0316146104535760405162461bcd60e51b815260206004820152600c60248201526b15dc9a5d194819985a5b195960a21b604482015260640161019f565b505050565b6060813b6001811161047957505060408051602081019091525f8152919050565b806104838161063e565b9150506040519150601f19601f602083010116820160405280825280600160208401853c50919050565b6060815160016104bd9190610653565b826040516020016104cf92919061066c565b6040516020818303038152906040529050919050565b80516001600160a01b03811681146104fb575f5ffd5b919050565b5f5f5f5f60808587031215610513575f5ffd5b61051c856104e5565b935061052a602086016104e5565b6040860151606090960151949790965092505050565b805163ffffffff811681146104fb575f5ffd5b5f5f5f5f5f5f5f60e0888a031215610569575f5ffd5b87516001600160601b038116811461057f575f5ffd5b965061058d602089016104e5565b9550604088015194506105a260608901610540565b93506105b060808901610540565b92506105be60a08901610540565b915060c0880151600681106105d1575f5ffd5b8091505092959891949750929550565b634e487b7160e01b5f52602160045260245ffd5b602081525f82518060208401528060208501604085015e5f604082850101526040601f19601f83011684010191505092915050565b634e487b7160e01b5f52601160045260245ffd5b5f8161064c5761064c61062a565b505f190190565b808201808211156106665761066661062a565b92915050565b606360f81b815260e083901b6001600160e01b03191660018201526880600e6000396000f360b81b60058201525f600e820181905282518060208501600f85015e5f9201600f019182525092915050565b60805160a05160c05161308d6107185f395f818161059701528181610c4701528181610e2b015281816113ba015281816118ef01526119a201525f818161056401526114cf01525f818161087a0152611504015261308d5ff3fe608060405260043610610278575f3560e01c8063a035b1fe1161014b578063d843b7f4116100c6578063f5dcb7bb1161007c578063f698da2511610062578063f698da2514610869578063fc0c546a1461089c578063ffa1ad74146108b0575f5ffd5b8063f5dcb7bb14610817578063f6171e441461084a575f5ffd5b8063e7d915cf116100ac578063e7d915cf1461079f578063ed24911d146107be578063f23a6e61146107d2575f5ffd5b8063d843b7f414610732578063d8a4676f14610773575f5ffd5b8063b0d691fe1161011b578063bdf8631711610101578063bdf86317146106c6578063c7dec3fc146106db578063cbd6407a14610707575f5ffd5b8063b0d691fe14610659578063bc197c811461067f575f5ffd5b8063a035b1fe146105fd578063a4f9edbf14610612578063a669aaf914610631578063affed0e014610646575f5ffd5b806358ce0909116101f557806391b7f5ed116101ab5780639a8a0592116101915780639a8a0592146105535780639c5e9590146105865780639ec4a5bf146105de575f5ffd5b806391b7f5ed14610509578063982c0db314610528575f5ffd5b80636d70f7ae116101db5780636d70f7ae146104585780637af73473146104875780638fb847ef146104c8575f5ffd5b806358ce09091461040d5780635f117ea914610439575f5ffd5b806317d70f7c1161024a5780633a871cdd116102305780633a871cdd146103ba5780634954bbf1146103d95780634ada3e61146103f8575f5ffd5b806317d70f7c1461037b5780631bbbeeb81461038f575f5ffd5b806223de2914610283578062427c54146102a9578063150b7a02146102e75780631626ba7e1461035c575f5ffd5b3661027f57005b5f5ffd5b34801561028e575f5ffd5b506102a761029d36600461252f565b5050505050505050565b005b3480156102b4575f5ffd5b506102d46102c33660046125de565b60066020525f908152604090205481565b6040519081526020015b60405180910390f35b3480156102f2575f5ffd5b5061032b6103013660046125f9565b7f150b7a020000000000000000000000000000000000000000000000000000000095945050505050565b6040517fffffffff0000000000000000000000000000000000000000000000000000000090911681526020016102de565b348015610367575f5ffd5b5061032b61037636600461273d565b6108f8565b348015610386575f5ffd5b506102d4610a9b565b34801561039a575f5ffd5b506102d46103a93660046125de565b60056020525f908152604090205481565b3480156103c5575f5ffd5b506102d46103d4366004612781565b610abf565b3480156103e4575f5ffd5b506102a76103f33660046127d0565b610afb565b348015610403575f5ffd5b506102d460025481565b348015610418575f5ffd5b5061042c61042736600461282d565b610cbc565b6040516102de919061284d565b348015610444575f5ffd5b506102a761045336600461288f565b610e13565b348015610463575f5ffd5b506104776104723660046125de565b610e96565b60405190151581526020016102de565b348015610492575f5ffd5b506102d46104a13660046125de565b73ffffffffffffffffffffffffffffffffffffffff165f9081526005602052604090205490565b3480156104d3575f5ffd5b506102d46104e23660046125de565b73ffffffffffffffffffffffffffffffffffffffff165f9081526006602052604090205490565b348015610514575f5ffd5b506102a76105233660046128ec565b610f89565b348015610533575f5ffd5b506102d46105423660046125de565b60076020525f908152604090205481565b34801561055e575f5ffd5b506102d47f000000000000000000000000000000000000000000000000000000000000000081565b348015610591575f5ffd5b506105b97f000000000000000000000000000000000000000000000000000000000000000081565b60405173ffffffffffffffffffffffffffffffffffffffff90911681526020016102de565b3480156105e9575f5ffd5b506102d46105f8366004612903565b6110b2565b348015610608575f5ffd5b506102d4600b5481565b34801561061d575f5ffd5b506102a761062c366004612959565b611166565b34801561063c575f5ffd5b506102d460035481565b348015610651575f5ffd5b505f546102d4565b348015610664575f5ffd5b50730576a174d229e3cfa37253523e645a78a0c91b576105b9565b34801561068a575f5ffd5b5061032b6106993660046129d4565b7fbc197c810000000000000000000000000000000000000000000000000000000098975050505050505050565b3480156106d1575f5ffd5b506102d460015481565b3480156106e6575f5ffd5b506106fa6106f5366004612a77565b6111e2565b6040516102de9190612b35565b348015610712575f5ffd5b506102d46107213660046125de565b600a6020525f908152604090205481565b34801561073d575f5ffd5b506105b961074c3660046128ec565b60096020525f908152604090205473ffffffffffffffffffffffffffffffffffffffff1681565b34801561077e575f5ffd5b5061079261078d3660046128ec565b6112cc565b6040516102de9190612b74565b3480156107aa575f5ffd5b506102a76107b93660046128ec565b6113a2565b3480156107c9575f5ffd5b506102d46114cc565b3480156107dd575f5ffd5b5061032b6107ec366004612bb3565b7ff23a6e61000000000000000000000000000000000000000000000000000000009695505050505050565b348015610822575f5ffd5b506102d47f8b73c3c69bb8fe3d512ecc4cf759cc79239f7b179b0ffacaa9a75d522b39400f81565b348015610855575f5ffd5b506102d461086436600461282d565b611526565b348015610874575f5ffd5b506102d47f000000000000000000000000000000000000000000000000000000000000000081565b3480156108a7575f5ffd5b506105b9611548565b3480156108bb575f5ffd5b506106fa6040518060400160405280600581526020017f312e312e3000000000000000000000000000000000000000000000000000000081525081565b5f5f5f5f61091885602081015160408201516060909201515f1a92909190565b9094509250905060ff81165f03610a2e578285830160200161093982610e96565b15801561095c575073ffffffffffffffffffffffffffffffffffffffff82163014155b1561098f57507fffffffff000000000000000000000000000000000000000000000000000000009450610a959350505050565b6040517f1626ba7e00000000000000000000000000000000000000000000000000000000815273ffffffffffffffffffffffffffffffffffffffff831690631626ba7e906109e3908b908590600401612c2a565b602060405180830381865afa1580156109fe573d5f5f3e3d5ffd5b505050506040513d601f19601f82011682018060405250810190610a229190612c42565b95505050505050610a95565b610a3d61047287838686611564565b15610a6e57507f1626ba7e000000000000000000000000000000000000000000000000000000009250610a95915050565b507fffffffff00000000000000000000000000000000000000000000000000000000925050505b92915050565b5f5f610aa5611580565b806020019051810190610ab89190612c81565b9392505050565b5f610ac861164f565b610ad284846116ce565b9050610ae16040850185612cad565b90505f03610af257610af2846117a2565b610ab882611820565b610b0433610e96565b80610b22575033730576a174d229e3cfa37253523e645a78a0c91b57145b610bb3576040517f08c379a000000000000000000000000000000000000000000000000000000000815260206004820152603e60248201527f4f6e6c792063616c6c61626c6520627920746865206d656368206f706572617460448201527f6f72206f722074686520656e74727920706f696e7420636f6e7472616374000060648201526084015b60405180910390fd5b60016004541115610bf0576040517f8beb9d1600000000000000000000000000000000000000000000000000000000815260040160405180910390fd5b60026004555f610c008585611894565b805190915015610cb0576040517f56d0819e00000000000000000000000000000000000000000000000000000000815273ffffffffffffffffffffffffffffffffffffffff7f000000000000000000000000000000000000000000000000000000000000000016906356d0819e90610c82908890859088908890600401612d0e565b5f604051808303815f87803b158015610c99575f5ffd5b505af1158015610cab573d5f5f3e3d5ffd5b505050505b50506001600455505050565b6001546060905f849003610cce578093505b80610cd98486612d7c565b1115610d2657610ce98385612d7c565b6040517f7ae59685000000000000000000000000000000000000000000000000000000008152600481019190915260248101829052604401610baa565b8315610e0c578367ffffffffffffffff811115610d4557610d45612667565b604051908082528060200260200182016040528015610d6e578160200160208202803683370190505b505f80805260086020527f5eff886ea0ce6ca488a3d6e336d6c0f75f46d19b42c06ce5ee98e42c96d256c8549193505b84811015610dc1575f828152600860205260409020600101549150600101610d9e565b505f5b85811015610e095781848281518110610ddf57610ddf612d8f565b6020908102919091018101919091525f838152600890915260409020600101549150600101610dc4565b50505b5092915050565b3373ffffffffffffffffffffffffffffffffffffffff7f00000000000000000000000000000000000000000000000000000000000000001614610e84576040517f26b9d596000000000000000000000000000000000000000000000000000000008152336004820152602401610baa565b610e9084848484611ae7565b50505050565b5f5f5f610ea1611580565b806020019051810190610eb49190612c81565b6040517f4236aff80000000000000000000000000000000000000000000000000000000081526004810182905291935091505f9073ffffffffffffffffffffffffffffffffffffffff841690634236aff89060240160e060405180830381865afa158015610f24573d5f5f3e3d5ffd5b505050506040513d601f19601f82011682018060405250810190610f489190612dcf565b50505050509150508473ffffffffffffffffffffffffffffffffffffffff168173ffffffffffffffffffffffffffffffffffffffff16149350505050919050565b610f9233610e96565b80610fb0575033730576a174d229e3cfa37253523e645a78a0c91b57145b61103c576040517f08c379a000000000000000000000000000000000000000000000000000000000815260206004820152603e60248201527f4f6e6c792063616c6c61626c6520627920746865206d656368206f706572617460448201527f6f72206f722074686520656e74727920706f696e7420636f6e747261637400006064820152608401610baa565b600b545f03611077576040517f7c946ed700000000000000000000000000000000000000000000000000000000815260040160405180910390fd5b600b8190556040518181527f66cbca4f3c64fecf1dcb9ce094abcf7f68c3450a1d4e3a8e917dd621edb4ebe09060200160405180910390a150565b5f6110bb6114cc565b8484846040516020016110d093929190612e66565b604051602081830303815290604052805190602001206040516020016111289291907f190100000000000000000000000000000000000000000000000000000000000081526002810192909252602282015260420190565b604080517fffffffffffffffffffffffffffffffffffffffffffffffffffffffffffffffe08184030181529190528051602090910120949350505050565b61116e611580565b51156111d6576040517f08c379a000000000000000000000000000000000000000000000000000000000815260206004820152601360248201527f416c726561647920696e697469616c697a6564000000000000000000000000006044820152606401610baa565b6111df81611c8f565b50565b60606111ed33610e96565b8061120b575033730576a174d229e3cfa37253523e645a78a0c91b57145b611297576040517f08c379a000000000000000000000000000000000000000000000000000000000815260206004820152603e60248201527f4f6e6c792063616c6c61626c6520627920746865206d656368206f706572617460448201527f6f72206f722074686520656e74727920706f696e7420636f6e747261637400006064820152608401610baa565b5f6112b18787878787156112ab5787611e04565b5a611e04565b92509050806112c257815160208301fd5b5095945050505050565b5f8181526009602052604081205473ffffffffffffffffffffffffffffffffffffffff161561139d575f828152600860205260408082208151808301928390529160029082845b8154815260200190600101908083116113135750505050509050805f6002811061133f5761133f612d8f565b602002015115801561135357506020810151155b801561138857505f805260086020527f5eff886ea0ce6ca488a3d6e336d6c0f75f46d19b42c06ce5ee98e42c96d256c7548314155b15611396576002915061139b565b600191505b505b919050565b3373ffffffffffffffffffffffffffffffffffffffff7f00000000000000000000000000000000000000000000000000000000000000001614611413576040517f26b9d596000000000000000000000000000000000000000000000000000000008152336004820152602401610baa565b5f8181526009602052604090205473ffffffffffffffffffffffffffffffffffffffff168061146e576040517fd92e233d00000000000000000000000000000000000000000000000000000000815260040160405180910390fd5b6114788183611f07565b8073ffffffffffffffffffffffffffffffffffffffff167fa36a540c5fea3a5e69d4b1c2247b28a93fd183ef1314af26a8db7b3ae080bcd0836040516114c091815260200190565b60405180910390a25050565b5f7f00000000000000000000000000000000000000000000000000000000000000004614611501576114fc61205a565b905090565b507f000000000000000000000000000000000000000000000000000000000000000090565b6008602052815f5260405f20816002811061153f575f80fd5b01549150829050565b5f611551611580565b8060200190518101906114fc9190612ea4565b5f5f5f61157387878787612158565b915091506112c281612240565b60606114fc61164a6040517fd60000000000000000000000000000000000000000000000000000000000000060208201527f940000000000000000000000000000000000000000000000000000000000000060218201527fffffffffffffffffffffffffffffffffffffffff0000000000000000000000003060601b1660228201527f010000000000000000000000000000000000000000000000000000000000000060368201525f90603701604051602081830303815290604052805190602001205f1c905090565b6123f2565b33730576a174d229e3cfa37253523e645a78a0c91b57146116cc576040517f08c379a000000000000000000000000000000000000000000000000000000000815260206004820152601c60248201527f6163636f756e743a206e6f742066726f6d20456e747279506f696e74000000006044820152606401610baa565b565b7f19457468657265756d205369676e6564204d6573736167653a0a3332000000005f908152601c829052603c81207f1626ba7e000000000000000000000000000000000000000000000000000000006117688261172f610140880188612cad565b8080601f0160208091040260200160405190810160405280939291908181526020018383808284375f920191909152506108f892505050565b7fffffffff000000000000000000000000000000000000000000000000000000001614611799576001915050610a95565b505f9392505050565b5f8054602083013591806117b583612ebf565b91905055146111df576040517f08c379a000000000000000000000000000000000000000000000000000000000815260206004820152600d60248201527f496e76616c6964206e6f6e6365000000000000000000000000000000000000006044820152606401610baa565b80156111df576040515f9033907fffffffffffffffffffffffffffffffffffffffffffffffffffffffffffffffff90849084818181858888f193505050503d805f8114611888576040519150601f19603f3d011682016040523d82523d5f602084013e61188d565b606091505b5050505050565b5f828152600960205260408082205490517ff2e433bf0000000000000000000000000000000000000000000000000000000081526004810185905260609273ffffffffffffffffffffffffffffffffffffffff9283169290917f00000000000000000000000000000000000000000000000000000000000000009091169063f2e433bf906024016080604051808303815f875af1158015611937573d5f5f3e3d5ffd5b505050506040513d601f19601f8201168201806040525081019061195b9190612ef6565b602081015190915073ffffffffffffffffffffffffffffffffffffffff1615611985575050610a95565b73ffffffffffffffffffffffffffffffffffffffff8216611a39577f000000000000000000000000000000000000000000000000000000000000000073ffffffffffffffffffffffffffffffffffffffff16156119e457806040015191505b73ffffffffffffffffffffffffffffffffffffffff8216611a34576040517ffe23980400000000000000000000000000000000000000000000000000000000815260048101869052602401610baa565b611a43565b611a438286611f07565b73ffffffffffffffffffffffffffffffffffffffff82165f908152600660205260408120805486955091611a7683612ebf565b909155505060038054905f611a8a83612ebf565b91905055503373ffffffffffffffffffffffffffffffffffffffff167f0cd979445339c62199996f208428d987b1cea24d18e62b79ec24d94b636e8b708685604051611ad7929190612c2a565b60405180910390a2505092915050565b611af2838284612447565b73ffffffffffffffffffffffffffffffffffffffff84165f908152600560205260408120805491611b2283612ebf565b909155505073ffffffffffffffffffffffffffffffffffffffff84165f908152600760205260408120805491611b5783612ebf565b90915550505f81815260096020908152604080832080547fffffffffffffffffffffffff00000000000000000000000000000000000000001673ffffffffffffffffffffffffffffffffffffffff891617905560089091528082207f5eff886ea0ce6ca488a3d6e336d6c0f75f46d19b42c06ce5ee98e42c96d256c8805460018381018290559186905580855292842085905580547f5eff886ea0ce6ca488a3d6e336d6c0f75f46d19b42c06ce5ee98e42c96d256c794929392909190611c1d83612ebf565b909155505060028054905f611c3183612ebf565b91905055508673ffffffffffffffffffffffffffffffffffffffff167f4bda649efe6b98b0f9c1d5e859c29e20910f45c66dabfe6fad4a4881f7faf9cc8587604051611c7e929190612c2a565b60405180910390a250505050505050565b5f611c9982612491565b90505f8151602083015ff09050611d6b6040517fd60000000000000000000000000000000000000000000000000000000000000060208201527f940000000000000000000000000000000000000000000000000000000000000060218201527fffffffffffffffffffffffffffffffffffffffff0000000000000000000000003060601b1660228201527f010000000000000000000000000000000000000000000000000000000000000060368201525f90603701604051602081830303815290604052805190602001205f1c905090565b73ffffffffffffffffffffffffffffffffffffffff168173ffffffffffffffffffffffffffffffffffffffff1614611dff576040517f08c379a000000000000000000000000000000000000000000000000000000000815260206004820152600c60248201527f5772697465206661696c656400000000000000000000000000000000000000006044820152606401610baa565b505050565b5f60606001846001811115611e1b57611e1b612b47565b03611e8f578673ffffffffffffffffffffffffffffffffffffffff168386604051611e469190612f90565b5f604051808303818686f4925050503d805f8114611e7f576040519150601f19603f3d011682016040523d82523d5f602084013e611e84565b606091505b509092509050611efd565b8673ffffffffffffffffffffffffffffffffffffffff16838787604051611eb69190612f90565b5f60405180830381858888f193505050503d805f8114611ef1576040519150601f19603f3d011682016040523d82523d5f602084013e611ef6565b606091505b5090925090505b9550959350505050565b73ffffffffffffffffffffffffffffffffffffffff82165f908152600760205260408120805491611f3783612f9b565b909155505060018054905f611f4b83612f9b565b90915550505f818152600860205260408082208151808301928390529160029082845b815481526020019060010190808311611f6e5750505050509050805f60028110611f9a57611f9a612d8f565b6020020151158015611fae57506020810151155b8015611fe357505f805260086020527f5eff886ea0ce6ca488a3d6e336d6c0f75f46d19b42c06ce5ee98e42c96d256c7548214155b1561201d576040517ffe23980400000000000000000000000000000000000000000000000000000000815260048101839052602401610baa565b6020818101805183515f90815260089093526040808420600190810192909255935191518352838320919091559281529081208181559091015550565b5f7f8b73c3c69bb8fe3d512ecc4cf759cc79239f7b179b0ffacaa9a75d522b39400f7f493aeac1d921aa02a044029e7fe4be43b1a4e80b40706fa5819e8fbb0d0935256040518060400160405280600581526020017f312e312e300000000000000000000000000000000000000000000000000000008152506040516020016120e39190612b35565b604080517fffffffffffffffffffffffffffffffffffffffffffffffffffffffffffffffe081840301815282825280516020918201209083019490945281019190915260608101919091524660808201523060a082015260c00160405160208183030381529060405280519060200120905090565b5f807f7fffffffffffffffffffffffffffffff5d576e7357a4501ddfe92f46681b20a083111561218d57505f90506003612237565b604080515f8082526020820180845289905260ff881692820192909252606081018690526080810185905260019060a0016020604051602081039080840390855afa1580156121de573d5f5f3e3d5ffd5b50506040517fffffffffffffffffffffffffffffffffffffffffffffffffffffffffffffffe0015191505073ffffffffffffffffffffffffffffffffffffffff8116612231575f60019250925050612237565b91505f90505b94509492505050565b5f81600481111561225357612253612b47565b0361225b5750565b600181600481111561226f5761226f612b47565b036122d6576040517f08c379a000000000000000000000000000000000000000000000000000000000815260206004820152601860248201527f45434453413a20696e76616c6964207369676e617475726500000000000000006044820152606401610baa565b60028160048111156122ea576122ea612b47565b03612351576040517f08c379a000000000000000000000000000000000000000000000000000000000815260206004820152601f60248201527f45434453413a20696e76616c6964207369676e6174757265206c656e677468006044820152606401610baa565b600381600481111561236557612365612b47565b036111df576040517f08c379a000000000000000000000000000000000000000000000000000000000815260206004820152602260248201527f45434453413a20696e76616c6964207369676e6174757265202773272076616c60448201527f75650000000000000000000000000000000000000000000000000000000000006064820152608401610baa565b6060813b6001811161241357505060408051602081019091525f8152919050565b8061241d81612f9b565b9150506040519150601f19601f602083010116820160405280825280600160208401853c50919050565b600b54831015611dff57600b546040517fb4897828000000000000000000000000000000000000000000000000000000008152610baa918591600401918252602082015260400190565b6060815160016124a19190612d7c565b826040516020016124b3929190612fcf565b6040516020818303038152906040529050919050565b73ffffffffffffffffffffffffffffffffffffffff811681146111df575f5ffd5b5f5f83601f8401126124fa575f5ffd5b50813567ffffffffffffffff811115612511575f5ffd5b602083019150836020828501011115612528575f5ffd5b9250929050565b5f5f5f5f5f5f5f5f60c0898b031215612546575f5ffd5b8835612551816124c9565b97506020890135612561816124c9565b96506040890135612571816124c9565b955060608901359450608089013567ffffffffffffffff811115612593575f5ffd5b61259f8b828c016124ea565b90955093505060a089013567ffffffffffffffff8111156125be575f5ffd5b6125ca8b828c016124ea565b999c989b5096995094979396929594505050565b5f602082840312156125ee575f5ffd5b8135610ab8816124c9565b5f5f5f5f5f6080868803121561260d575f5ffd5b8535612618816124c9565b94506020860135612628816124c9565b935060408601359250606086013567ffffffffffffffff81111561264a575f5ffd5b612656888289016124ea565b969995985093965092949392505050565b7f4e487b71000000000000000000000000000000000000000000000000000000005f52604160045260245ffd5b5f82601f8301126126a3575f5ffd5b813567ffffffffffffffff8111156126bd576126bd612667565b604051601f82017fffffffffffffffffffffffffffffffffffffffffffffffffffffffffffffffe0908116603f0116810167ffffffffffffffff8111828210171561270a5761270a612667565b604052818152838201602001851015612721575f5ffd5b816020850160208301375f918101602001919091529392505050565b5f5f6040838503121561274e575f5ffd5b82359150602083013567ffffffffffffffff81111561276b575f5ffd5b61277785828601612694565b9150509250929050565b5f5f5f60608486031215612793575f5ffd5b833567ffffffffffffffff8111156127a9575f5ffd5b840161016081870312156127bb575f5ffd5b95602085013595506040909401359392505050565b5f5f5f5f608085870312156127e3575f5ffd5b84359350602085013567ffffffffffffffff811115612800575f5ffd5b61280c87828801612694565b935050604085013561281d816124c9565b9396929550929360600135925050565b5f5f6040838503121561283e575f5ffd5b50508035926020909101359150565b602080825282518282018190525f918401906040840190835b81811015612884578351835260209384019390920191600101612866565b509095945050505050565b5f5f5f5f608085870312156128a2575f5ffd5b84356128ad816124c9565b935060208501359250604085013567ffffffffffffffff8111156128cf575f5ffd5b6128db87828801612694565b949793965093946060013593505050565b5f602082840312156128fc575f5ffd5b5035919050565b5f5f5f60608486031215612915575f5ffd5b8335612920816124c9565b9250602084013567ffffffffffffffff81111561293b575f5ffd5b61294786828701612694565b93969395505050506040919091013590565b5f60208284031215612969575f5ffd5b813567ffffffffffffffff81111561297f575f5ffd5b61298b84828501612694565b949350505050565b5f5f83601f8401126129a3575f5ffd5b50813567ffffffffffffffff8111156129ba575f5ffd5b6020830191508360208260051b8501011115612528575f5ffd5b5f5f5f5f5f5f5f5f60a0898b0312156129eb575f5ffd5b88356129f6816124c9565b97506020890135612a06816124c9565b9650604089013567ffffffffffffffff811115612a21575f5ffd5b612a2d8b828c01612993565b909750955050606089013567ffffffffffffffff811115612a4c575f5ffd5b612a588b828c01612993565b909550935050608089013567ffffffffffffffff8111156125be575f5ffd5b5f5f5f5f5f60a08688031215612a8b575f5ffd5b8535612a96816124c9565b945060208601359350604086013567ffffffffffffffff811115612ab8575f5ffd5b612ac488828901612694565b935050606086013560028110612ad8575f5ffd5b949793965091946080013592915050565b5f81518084528060208401602086015e5f6020828601015260207fffffffffffffffffffffffffffffffffffffffffffffffffffffffffffffffe0601f83011685010191505092915050565b602081525f610ab86020830184612ae9565b7f4e487b71000000000000000000000000000000000000000000000000000000005f52602160045260245ffd5b6020810160038310612bad577f4e487b71000000000000000000000000000000000000000000000000000000005f52602160045260245ffd5b91905290565b5f5f5f5f5f5f60a08789031215612bc8575f5ffd5b8635612bd3816124c9565b95506020870135612be3816124c9565b94506040870135935060608701359250608087013567ffffffffffffffff811115612c0c575f5ffd5b612c1889828a016124ea565b979a9699509497509295939492505050565b828152604060208201525f61298b6040830184612ae9565b5f60208284031215612c52575f5ffd5b81517fffffffff0000000000000000000000000000000000000000000000000000000081168114610ab8575f5ffd5b5f5f60408385031215612c92575f5ffd5b8251612c9d816124c9565b6020939093015192949293505050565b5f5f83357fffffffffffffffffffffffffffffffffffffffffffffffffffffffffffffffe1843603018112612ce0575f5ffd5b83018035915067ffffffffffffffff821115612cfa575f5ffd5b602001915036819003821315612528575f5ffd5b848152608060208201525f612d266080830186612ae9565b73ffffffffffffffffffffffffffffffffffffffff949094166040830152506060015292915050565b7f4e487b71000000000000000000000000000000000000000000000000000000005f52601160045260245ffd5b80820180821115610a9557610a95612d4f565b7f4e487b71000000000000000000000000000000000000000000000000000000005f52603260045260245ffd5b805163ffffffff8116811461139d575f5ffd5b5f5f5f5f5f5f5f60e0888a031215612de5575f5ffd5b87516bffffffffffffffffffffffff81168114612e00575f5ffd5b6020890151909750612e11816124c9565b60408901519096509450612e2760608901612dbc565b9350612e3560808901612dbc565b9250612e4360a08901612dbc565b915060c088015160068110612e56575f5ffd5b8091505092959891949750929550565b73ffffffffffffffffffffffffffffffffffffffff84168152606060208201525f612e946060830185612ae9565b9050826040830152949350505050565b5f60208284031215612eb4575f5ffd5b8151610ab8816124c9565b5f7fffffffffffffffffffffffffffffffffffffffffffffffffffffffffffffffff8203612eef57612eef612d4f565b5060010190565b5f6080828403128015612f07575f5ffd5b506040516080810167ffffffffffffffff81118282101715612f2b57612f2b612667565b6040528251612f39816124c9565b81526020830151612f49816124c9565b60208201526040830151612f5c816124c9565b6040820152612f6d60608401612dbc565b60608201529392505050565b5f81518060208401855e5f93019283525090919050565b5f610ab88284612f79565b5f81612fa957612fa9612d4f565b507fffffffffffffffffffffffffffffffffffffffffffffffffffffffffffffffff0190565b7f630000000000000000000000000000000000000000000000000000000000000081527fffffffff000000000000000000000000000000000000000000000000000000008360e01b1660018201527f80600e6000396000f3000000000000000000000000000000000000000000000060058201525f600e8201525f61298b600f830184612f7956fea26469706673582212201e4ec51d95904f3f48332b13c1423197c0b731cb6eba1b7d45af9d50bf09001464736f6c634300081c0033",
  "linkReferences": {},
  "deployedLinkReferences": {}
}