{
  "_format": "hh-sol-artifact-1",
  "contractName": "MechFactoryFixedPriceNative",
  "sourceName": "contracts/mechs/native/MechFactoryFixedPriceNative.sol",
  "abi": [
    {
      "inputs": [
        {
          "internalType": "address",
          "name": "_mechMarketplace",
          "type": "address"
        }
      ],
      "stateMutability": "nonpayable",
      "type": "constructor"
    },
    {
      "inputs": [
        {
          "internalType": "uint256",
          "name": "provided",
          "type": "uint256"
        },
        {
          "internalType": "uint256",
          "name": "expected",
          "type": "uint256"
        }
      ],
      "name": "IncorrectDataLength",
      "type": "error"
    },
    {
      "inputs": [
        {
          "internalType": "address",
          "name": "sender",
          "type": "address"
        },
        {
          "internalType": "address",
          "name": "marketplace",
          "type": "address"
        }
      ],
      "name": "MarketplaceOnly",
      "type": "error"
    },
    {
      "inputs": [],
      "name": "ZeroAddress",
      "type": "error"
    },
    {
      "anonymous": false,
      "inputs": [
        {
          "indexed": true,
          "internalType": "address",
          "name": "mech",
          "type": "address"
        },
        {
          "indexed": true,
          "internalType": "uint256",
          "name": "serviceId",
          "type": "uint256"
        },
        {
          "indexed": false,
          "internalType": "uint256",
          "name": "maxDeliveryRate",
          "type": "uint256"
        }
      ],
      "name": "CreateMechFixedPriceNative",
      "type": "event"
    },
    {
      "inputs": [],
      "name": "VERSION",
      "outputs": [
        {
          "internalType": "string",
          "name": "",
          "type": "string"
        }
      ],
      "stateMutability": "view",
      "type": "function"
    },
    {
      "inputs": [
        {
          "internalType": "address",
          "name": "serviceRegistry",
          "type": "address"
        },
        {
          "internalType": "uint256",
          "name": "serviceId",
          "type": "uint256"
        },
        {
          "internalType": "bytes",
          "name": "payload",
          "type": "bytes"
        }
      ],
      "name": "createMech",
      "outputs": [
        {
          "internalType": "address",
          "name": "mech",
          "type": "address"
        }
      ],
      "stateMutability": "nonpayable",
      "type": "function"
    },
    {
      "inputs": [],
      "name": "mechMarketplace",
      "outputs": [
        {
          "internalType": "address",
          "name": "",
          "type": "address"
        }
      ],
      "stateMutability": "view",
      "type": "function"
    }
  ],
  "bytecode": "0x60a060405234801561000f575f5ffd5b50604051613bdf380380613bdf83398101604081905261002e9161003f565b6001600160a01b031660805261006c565b5f6020828403121561004f575f5ffd5b81516001600160a01b0381168114610065575f5ffd5b9392505050565b608051613b476100985f395f8181608501528181610171015281816101d901526102b20152613b475ff3fe608060405234801561000f575f5ffd5b506004361061003f575f3560e01c80630f7fb56d146100435780639c5e959014610080578063ffa1ad74146100a7575b5f5ffd5b6100566100513660046103d6565b6100f0565b60405173ffffffffffffffffffffffffffffffffffffffff90911681526020015b60405180910390f35b6100567f000000000000000000000000000000000000000000000000000000000000000081565b6100e36040518060400160405280600581526020017f302e312e3000000000000000000000000000000000000000000000000000000081525081565b6040516100779190610545565b5f5f6100fd858585610157565b6040518181529193509150849073ffffffffffffffffffffffffffffffffffffffff8416907f0fa12e8b60b83f27ad2a2028740fbb1954b8edf443193f4a580f0a82c12e5d419060200160405180910390a3509392505050565b5f803373ffffffffffffffffffffffffffffffffffffffff7f0000000000000000000000000000000000000000000000000000000000000000161461020b576040517fe56895c000000000000000000000000000000000000000000000000000000000815233600482015273ffffffffffffffffffffffffffffffffffffffff7f00000000000000000000000000000000000000000000000000000000000000001660248201526044015b60405180910390fd5b82516020146102535782516040517f34c9027a000000000000000000000000000000000000000000000000000000008152600481019190915260206024820152604401610202565b82806020019051810190610267919061055e565b5f805460405192935091610285904290879089908690602001610575565b6040516020818303038152906040528051906020012090508160016102aa91906105a0565b5f556102d9817f0000000000000000000000000000000000000000000000000000000000000000898987610332565b935073ffffffffffffffffffffffffffffffffffffffff8416610328576040517fd92e233d00000000000000000000000000000000000000000000000000000000815260040160405180910390fd5b5050935093915050565b5f85858585856040516103449061039c565b73ffffffffffffffffffffffffffffffffffffffff9485168152939092166020840152604083015260608201526080018190604051809103905ff5905080158015610391573d5f5f3e3d5ffd5b509695505050505050565b613533806105df83390190565b7f4e487b71000000000000000000000000000000000000000000000000000000005f52604160045260245ffd5b5f5f5f606084860312156103e8575f5ffd5b833573ffffffffffffffffffffffffffffffffffffffff8116811461040b575f5ffd5b925060208401359150604084013567ffffffffffffffff81111561042d575f5ffd5b8401601f8101861361043d575f5ffd5b803567ffffffffffffffff811115610457576104576103a9565b6040517fffffffffffffffffffffffffffffffffffffffffffffffffffffffffffffffe0603f7fffffffffffffffffffffffffffffffffffffffffffffffffffffffffffffffe0601f8501160116810181811067ffffffffffffffff821117156104c3576104c36103a9565b6040528181528282016020018810156104da575f5ffd5b816020840160208301375f602083830101528093505050509250925092565b5f81518084528060208401602086015e5f6020828601015260207fffffffffffffffffffffffffffffffffffffffffffffffffffffffffffffffe0601f83011685010191505092915050565b602081525f61055760208301846104f9565b9392505050565b5f6020828403121561056e575f5ffd5b5051919050565b848152608060208201525f61058d60808301866104f9565b6040830194909452506060015292915050565b808201808211156105d8577f4e487b71000000000000000000000000000000000000000000000000000000005f52601160045260245ffd5b9291505056fe60c06040525f5f556001600555348015610017575f5ffd5b506040516135333803806135338339810160408190526100369161043f565b838383837fba699a34be8fe0e7725e93dcbce1701b0211a8ca61330aaeb8a05bf2ec7abed184848484846001600160a01b0385166100875760405163d92e233d60e01b815260040160405180910390fd5b6001600160a01b0384166100ae5760405163d92e233d60e01b815260040160405180910390fd5b8215806100b9575081155b806100c2575080155b156100e057604051637c946ed760e01b815260040160405180910390fd5b604080516001600160a01b03861660208201529081018490525f9060600160408051601f1981840301815290829052630846d5ff60e31b82526004820186905291505f9081906001600160a01b03881690634236aff89060240160e060405180830381865afa158015610155573d5f5f3e3d5ffd5b505050506040513d601f19601f820116820180604052508101906101799190610492565b9650505050509250505f6001600160a01b0316826001600160a01b0316036101b45760405163d92e233d60e01b815260040160405180910390fd5b60048160058111156101c8576101c8610520565b14610208578060058111156101df576101df610520565b604051633c053f9d60e21b81526004810191909152602481018790526044015b60405180910390fd5b61021183610239565b5050506001600160a01b03909416608052600155505060a052506105c7975050505050505050565b61024161026b565b511561025f5760405162dc149f60e41b815260040160405180910390fd5b610268816102d3565b50565b60606102ce6102c9604051606b60f91b6020820152602560fa1b60218201526001600160601b03193060601b166022820152600160f81b60368201525f90603701604051602081830303815290604052805190602001205f1c905090565b610397565b905090565b5f6102dd826103ec565b90505f8151602083015ff09050610343604051606b60f91b6020820152602560fa1b60218201526001600160601b03193060601b166022820152600160f81b60368201525f90603701604051602081830303815290604052805190602001205f1c905090565b6001600160a01b0316816001600160a01b0316146103925760405162461bcd60e51b815260206004820152600c60248201526b15dc9a5d194819985a5b195960a21b60448201526064016101ff565b505050565b6060813b600181116103b857505060408051602081019091525f8152919050565b806103c281610548565b9150506040519150601f19601f602083010116820160405280825280600160208401853c50919050565b6060815160016103fc919061055d565b8260405160200161040e929190610576565b6040516020818303038152906040529050919050565b80516001600160a01b038116811461043a575f5ffd5b919050565b5f5f5f5f60808587031215610452575f5ffd5b61045b85610424565b935061046960208601610424565b6040860151606090960151949790965092505050565b805163ffffffff8116811461043a575f5ffd5b5f5f5f5f5f5f5f60e0888a0312156104a8575f5ffd5b87516001600160601b03811681146104be575f5ffd5b96506104cc60208901610424565b9550604088015194506104e16060890161047f565b93506104ef6080890161047f565b92506104fd60a0890161047f565b915060c088015160068110610510575f5ffd5b8091505092959891949750929550565b634e487b7160e01b5f52602160045260245ffd5b634e487b7160e01b5f52601160045260245ffd5b5f8161055657610556610534565b505f190190565b8082018082111561057057610570610534565b92915050565b606360f81b815260e083901b6001600160e01b03191660018201526880600e6000396000f360b81b60058201525f600e820181905282518060208501600f85015e5f9201600f019182525092915050565b60805160a051612f216106125f395f61031201525f818161043901528181610afa01528181610eaa015281816110d70152818161113f0152818161122e01526112960152612f215ff3fe6080604052600436106101c6575f3560e01c80639c5e9590116100f2578063be2641de11610092578063ecf050e311610062578063ecf050e3146105c7578063f23a6e61146105fa578063fc0c546a1461063f578063ffa1ad7414610653575f5ffd5b8063be2641de14610549578063c2825d9214610568578063c7dec3fc14610587578063e7f43c68146105b3575f5ffd5b8063affed0e0116100cd578063affed0e0146104b4578063b0d691fe146104c7578063bc197c81146104ed578063bdf8631714610534575f5ffd5b80639c5e959014610428578063a4f9edbf14610480578063a669aaf91461049f575f5ffd5b806328c320411161016857806358ce09091161013857806358ce09091461039c5780636d70f7ae146103bb5780636f6885bb146103ea5780639680b60314610409575f5ffd5b806328c32041146103345780632cc0fcb2146103535780633a871cdd146103685780634ada3e6114610387575f5ffd5b8063150b7a02116101a3578063150b7a021461024b5780631626ba7e146102c057806317d70f7c146102df5780632763b8da14610301575f5ffd5b806223de29146101d1578062f20c71146101f757806302c9b8dc14610216575f5ffd5b366101cd57005b5f5ffd5b3480156101dc575f5ffd5b506101f56101eb36600461216f565b5050505050505050565b005b348015610202575f5ffd5b506101f561021136600461221e565b61069b565b348015610221575f5ffd5b50610235610230366004612334565b6107c8565b60405161024291906123a8565b60405180910390f35b348015610256575f5ffd5b5061028f6102653660046123ba565b7f150b7a020000000000000000000000000000000000000000000000000000000095945050505050565b6040517fffffffff000000000000000000000000000000000000000000000000000000009091168152602001610242565b3480156102cb575f5ffd5b5061028f6102da3660046124b2565b61084b565b3480156102ea575f5ffd5b506102f36109ee565b604051908152602001610242565b34801561030c575f5ffd5b506102f37f000000000000000000000000000000000000000000000000000000000000000081565b34801561033f575f5ffd5b506101f561034e366004612575565b610a0a565b34801561035e575f5ffd5b506102f360015481565b348015610373575f5ffd5b506102f3610382366004612667565b610b6e565b348015610392575f5ffd5b506102f360035481565b3480156103a7575f5ffd5b506102356103b63660046126b6565b610bb1565b3480156103c6575f5ffd5b506103da6103d53660046126d6565b610d08565b6040519015158152602001610242565b3480156103f5575f5ffd5b506101f56104043660046126f1565b610d46565b348015610414575f5ffd5b506101f561042336600461221e565b6110bf565b348015610433575f5ffd5b5061045b7f000000000000000000000000000000000000000000000000000000000000000081565b60405173ffffffffffffffffffffffffffffffffffffffff9091168152602001610242565b34801561048b575f5ffd5b506101f561049a36600461274c565b6111ca565b3480156104aa575f5ffd5b506102f360045481565b3480156104bf575f5ffd5b505f546102f3565b3480156104d2575f5ffd5b50730576a174d229e3cfa37253523e645a78a0c91b5761045b565b3480156104f8575f5ffd5b5061028f6105073660046127bf565b7fbc197c810000000000000000000000000000000000000000000000000000000098975050505050505050565b34801561053f575f5ffd5b506102f360025481565b348015610554575f5ffd5b506101f56105633660046126f1565b611216565b348015610573575f5ffd5b506102f36105823660046126b6565b6112d1565b348015610592575f5ffd5b506105a66105a1366004612862565b6112f3565b6040516102429190612920565b3480156105be575f5ffd5b5061045b6113dd565b3480156105d2575f5ffd5b506102f37fba699a34be8fe0e7725e93dcbce1701b0211a8ca61330aaeb8a05bf2ec7abed181565b348015610605575f5ffd5b5061028f610614366004612932565b7ff23a6e61000000000000000000000000000000000000000000000000000000009695505050505050565b34801561064a575f5ffd5b5061045b611505565b34801561065e575f5ffd5b506105a66040518060400160405280600581526020017f312e302e3000000000000000000000000000000000000000000000000000000081525081565b6106a433610d08565b806106c2575033730576a174d229e3cfa37253523e645a78a0c91b57145b610753576040517f08c379a000000000000000000000000000000000000000000000000000000000815260206004820152603e60248201527f4f6e6c792063616c6c61626c6520627920746865206d656368206f706572617460448201527f6f72206f722074686520656e74727920706f696e7420636f6e7472616374000060648201526084015b60405180910390fd5b805f0361078c576040517f7c946ed700000000000000000000000000000000000000000000000000000000815260040160405180910390fd5b60018190556040518181527fb912b1469d50f9612d4378acbbf5469b04e6da0f6fe174443169d704ad534258906020015b60405180910390a150565b80516060908067ffffffffffffffff8111156107e6576107e6612235565b60405190808252806020026020018201604052801561080f578160200160208202803683370190505b5091505f5b8181101561084457600154838281518110610831576108316129a9565b6020908102919091010152600101610814565b5050919050565b5f5f5f5f61086b85602081015160408201516060909201515f1a92909190565b9094509250905060ff81165f03610981578285830160200161088c82610d08565b1580156108af575073ffffffffffffffffffffffffffffffffffffffff82163014155b156108e257507fffffffff0000000000000000000000000000000000000000000000000000000094506109e89350505050565b6040517f1626ba7e00000000000000000000000000000000000000000000000000000000815273ffffffffffffffffffffffffffffffffffffffff831690631626ba7e90610936908b9085906004016129d6565b602060405180830381865afa158015610951573d5f5f3e3d5ffd5b505050506040513d601f19601f8201168201806040525081019061097591906129ee565b955050505050506109e8565b6109906103d587838686611526565b156109c157507f1626ba7e0000000000000000000000000000000000000000000000000000000092506109e8915050565b507fffffffff00000000000000000000000000000000000000000000000000000000925050505b92915050565b5f6109f7611542565b8060200190518101906109e89190612a2d565b610a1333610d08565b80610a31575033730576a174d229e3cfa37253523e645a78a0c91b57145b610abd576040517f08c379a000000000000000000000000000000000000000000000000000000000815260206004820152603e60248201527f4f6e6c792063616c6c61626c6520627920746865206d656368206f706572617460448201527f6f72206f722074686520656e74727920706f696e7420636f6e74726163740000606482015260840161074a565b6040517f28c3204100000000000000000000000000000000000000000000000000000000815273ffffffffffffffffffffffffffffffffffffffff7f000000000000000000000000000000000000000000000000000000000000000016906328c3204190610b3990899089908990899089908990600401612ad1565b5f604051808303815f87803b158015610b50575f5ffd5b505af1158015610b62573d5f5f3e3d5ffd5b50505050505050505050565b5f610b77611611565b610b818484611690565b9050610b906040850185612b5a565b90505f03610ba157610ba184611764565b610baa826117e2565b9392505050565b6002546060905f849003610bc3578093505b80610bce8486612be8565b1115610c1b57610bde8385612be8565b6040517f7ae5968500000000000000000000000000000000000000000000000000000000815260048101919091526024810182905260440161074a565b8315610d01578367ffffffffffffffff811115610c3a57610c3a612235565b604051908082528060200260200182016040528015610c63578160200160208202803683370190505b505f80805260066020527f54cdd369e4e8a8515e52ca72ec816c2101831ad1f18bf44102ed171459c9b4f9549193505b84811015610cb6575f828152600660205260409020600101549150600101610c93565b505f5b85811015610cfe5781848281518110610cd457610cd46129a9565b6020908102919091018101919091525f838152600690915260409020600101549150600101610cb9565b50505b5092915050565b5f610d116113dd565b73ffffffffffffffffffffffffffffffffffffffff168273ffffffffffffffffffffffffffffffffffffffff16149050919050565b610d4f33610d08565b80610d6d575033730576a174d229e3cfa37253523e645a78a0c91b57145b610df9576040517f08c379a000000000000000000000000000000000000000000000000000000000815260206004820152603e60248201527f4f6e6c792063616c6c61626c6520627920746865206d656368206f706572617460448201527f6f72206f722074686520656e74727920706f696e7420636f6e74726163740000606482015260840161074a565b600554600203610e35576040517f8beb9d1600000000000000000000000000000000000000000000000000000000815260040160405180910390fd5b600260055581511580610e4a57508051825114155b15610e8e57815181516040517f8151c1100000000000000000000000000000000000000000000000000000000081526004810192909252602482015260440161074a565b5f610e998383611856565b90505f610ea5846107c8565b90505f7f000000000000000000000000000000000000000000000000000000000000000073ffffffffffffffffffffffffffffffffffffffff166308c38b0c8684866040518463ffffffff1660e01b8152600401610f0593929190612bfb565b5f604051808303815f875af1158015610f20573d5f5f3e3d5ffd5b505050506040513d5f823e601f3d9081017fffffffffffffffffffffffffffffffffffffffffffffffffffffffffffffffe0168201604052610f659190810190612c3d565b85519091505f805b8281101561109a57838181518110610f8757610f876129a9565b60200260200101511561103f5781610f9e81612cd1565b9250503373ffffffffffffffffffffffffffffffffffffffff163073ffffffffffffffffffffffffffffffffffffffff167fb26bbe1b5d72196ae18b7198ae5effbeafd5c75782ac31c6b8445c71f385f49b8a8481518110611002576110026129a9565b602002602001015189858151811061101c5761101c6129a9565b60200260200101516040516110329291906129d6565b60405180910390a3611092565b7fb5863ad79417b48f982fe746b7d7e7c00369bec5f782d4b58537541ff65e841a888281518110611072576110726129a9565b602002602001015160405161108991815260200190565b60405180910390a15b600101610f6d565b508060045f8282546110ac9190612be8565b9091555050600160055550505050505050565b3373ffffffffffffffffffffffffffffffffffffffff7f0000000000000000000000000000000000000000000000000000000000000000161461116c576040517fe56895c000000000000000000000000000000000000000000000000000000000815233600482015273ffffffffffffffffffffffffffffffffffffffff7f000000000000000000000000000000000000000000000000000000000000000016602482015260440161074a565b8060035f82825461117d9190612be8565b925050819055508060045f8282546111959190612be8565b90915550506040518181527fa9650c1f534f48ac9fe2937c5af1eb577dd1c6ade5a0422a538a6253e5d9e529906020016107bd565b6111d2611542565b511561120a576040517f0dc149f000000000000000000000000000000000000000000000000000000000815260040160405180910390fd5b61121381611a28565b50565b3373ffffffffffffffffffffffffffffffffffffffff7f000000000000000000000000000000000000000000000000000000000000000016146112c3576040517fe56895c000000000000000000000000000000000000000000000000000000000815233600482015273ffffffffffffffffffffffffffffffffffffffff7f000000000000000000000000000000000000000000000000000000000000000016602482015260440161074a565b6112cd8282611b9d565b5050565b6006602052815f5260405f2081600281106112ea575f80fd5b01549150829050565b60606112fe33610d08565b8061131c575033730576a174d229e3cfa37253523e645a78a0c91b57145b6113a8576040517f08c379a000000000000000000000000000000000000000000000000000000000815260206004820152603e60248201527f4f6e6c792063616c6c61626c6520627920746865206d656368206f706572617460448201527f6f72206f722074686520656e74727920706f696e7420636f6e74726163740000606482015260840161074a565b5f6113c28787878787156113bc5787611ccf565b5a611ccf565b92509050806113d357815160208301fd5b5095945050505050565b5f5f5f6113e8611542565b8060200190518101906113fb9190612a2d565b915091505f5f8373ffffffffffffffffffffffffffffffffffffffff16634236aff8846040518263ffffffff1660e01b815260040161143c91815260200190565b60e060405180830381865afa158015611457573d5f5f3e3d5ffd5b505050506040513d601f19601f8201168201806040525081019061147b9190612d1b565b9650505050509250506004600581111561149757611497612db2565b8160058111156114a9576114a9612db2565b146114fd578060058111156114c0576114c0612db2565b6040517ff014fe7400000000000000000000000000000000000000000000000000000000815260048101919091526024810184905260440161074a565b509392505050565b5f61150e611542565b8060200190518101906115219190612ddf565b905090565b5f5f5f61153587878787611dd2565b915091506113d381611eba565b606061152161160c6040517fd60000000000000000000000000000000000000000000000000000000000000060208201527f940000000000000000000000000000000000000000000000000000000000000060218201527fffffffffffffffffffffffffffffffffffffffff0000000000000000000000003060601b1660228201527f010000000000000000000000000000000000000000000000000000000000000060368201525f90603701604051602081830303815290604052805190602001205f1c905090565b61206c565b33730576a174d229e3cfa37253523e645a78a0c91b571461168e576040517f08c379a000000000000000000000000000000000000000000000000000000000815260206004820152601c60248201527f6163636f756e743a206e6f742066726f6d20456e747279506f696e7400000000604482015260640161074a565b565b7f19457468657265756d205369676e6564204d6573736167653a0a3332000000005f908152601c829052603c81207f1626ba7e0000000000000000000000000000000000000000000000000000000061172a826116f1610140880188612b5a565b8080601f0160208091040260200160405190810160405280939291908181526020018383808284375f9201919091525061084b92505050565b7fffffffff00000000000000000000000000000000000000000000000000000000161461175b5760019150506109e8565b505f9392505050565b5f80546020830135918061177783612cd1565b9190505514611213576040517f08c379a000000000000000000000000000000000000000000000000000000000815260206004820152600d60248201527f496e76616c6964206e6f6e636500000000000000000000000000000000000000604482015260640161074a565b8015611213576040515f9033907fffffffffffffffffffffffffffffffffffffffffffffffffffffffffffffffff90849084818181858888f193505050503d805f811461184a576040519150601f19603f3d011682016040523d82523d5f602084013e61184f565b606091505b5050505050565b81516060908067ffffffffffffffff81111561187457611874612235565b6040519080825280602002602001820160405280156118a757816020015b60608152602001906001900390816118925790505b5091505f805b82811015611a08575f8682815181106118c8576118c86129a9565b602002602001015190506118f5818784815181106118e8576118e86129a9565b6020026020010151919050565b858381518110611907576119076129a9565b6020908102919091018101919091525f828152600690915260408082208151808301928390529160029082845b8154815260200190600101908083116119345750505050509050805f60028110611960576119606129a9565b602002015115801561197457506020810151155b80156119a957505f805260066020527f54cdd369e4e8a8515e52ca72ec816c2101831ad1f18bf44102ed171459c9b4f8548214155b156119b5575050611a00565b836119bf81612cd1565b6020838101805185515f9081526006909352604080842060019081019290925595519151835285832091909155948152928320838155909301919091555091505b6001016118ad565b508060025f828254611a1a9190612dfa565b909155509295945050505050565b5f611a32826120c1565b90505f8151602083015ff09050611b046040517fd60000000000000000000000000000000000000000000000000000000000000060208201527f940000000000000000000000000000000000000000000000000000000000000060218201527fffffffffffffffffffffffffffffffffffffffff0000000000000000000000003060601b1660228201527f010000000000000000000000000000000000000000000000000000000000000060368201525f90603701604051602081830303815290604052805190602001205f1c905090565b73ffffffffffffffffffffffffffffffffffffffff168173ffffffffffffffffffffffffffffffffffffffff1614611b98576040517f08c379a000000000000000000000000000000000000000000000000000000000815260206004820152600c60248201527f5772697465206661696c65640000000000000000000000000000000000000000604482015260640161074a565b505050565b81515f5b8351811015611c9b575f848281518110611bbd57611bbd6129a9565b60209081029190910181015160069091525f81815260408082207f54cdd369e4e8a8515e52ca72ec816c2101831ad1f18bf44102ed171459c9b4f9805460018301819055908590558084529190922083905586519293507f54cdd369e4e8a8515e52ca72ec816c2101831ad1f18bf44102ed171459c9b4f89230907f1ebd17f97038d3a14148566de635eab9901371bf904262f5498331b0c62921ce9086908a9089908110611c6e57611c6e6129a9565b6020026020010151604051611c849291906129d6565b60405180910390a250505050806001019050611ba1565b508060025f828254611cad9190612be8565b925050819055508060035f828254611cc59190612be8565b9091555050505050565b5f60606001846001811115611ce657611ce6612db2565b03611d5a578673ffffffffffffffffffffffffffffffffffffffff168386604051611d119190612e24565b5f604051808303818686f4925050503d805f8114611d4a576040519150601f19603f3d011682016040523d82523d5f602084013e611d4f565b606091505b509092509050611dc8565b8673ffffffffffffffffffffffffffffffffffffffff16838787604051611d819190612e24565b5f60405180830381858888f193505050503d805f8114611dbc576040519150601f19603f3d011682016040523d82523d5f602084013e611dc1565b606091505b5090925090505b9550959350505050565b5f807f7fffffffffffffffffffffffffffffff5d576e7357a4501ddfe92f46681b20a0831115611e0757505f90506003611eb1565b604080515f8082526020820180845289905260ff881692820192909252606081018690526080810185905260019060a0016020604051602081039080840390855afa158015611e58573d5f5f3e3d5ffd5b50506040517fffffffffffffffffffffffffffffffffffffffffffffffffffffffffffffffe0015191505073ffffffffffffffffffffffffffffffffffffffff8116611eab575f60019250925050611eb1565b91505f90505b94509492505050565b5f816004811115611ecd57611ecd612db2565b03611ed55750565b6001816004811115611ee957611ee9612db2565b03611f50576040517f08c379a000000000000000000000000000000000000000000000000000000000815260206004820152601860248201527f45434453413a20696e76616c6964207369676e61747572650000000000000000604482015260640161074a565b6002816004811115611f6457611f64612db2565b03611fcb576040517f08c379a000000000000000000000000000000000000000000000000000000000815260206004820152601f60248201527f45434453413a20696e76616c6964207369676e6174757265206c656e67746800604482015260640161074a565b6003816004811115611fdf57611fdf612db2565b03611213576040517f08c379a000000000000000000000000000000000000000000000000000000000815260206004820152602260248201527f45434453413a20696e76616c6964207369676e6174757265202773272076616c60448201527f7565000000000000000000000000000000000000000000000000000000000000606482015260840161074a565b6060813b6001811161208d57505060408051602081019091525f8152919050565b8061209781612e2f565b9150506040519150601f19601f602083010116820160405280825280600160208401853c50919050565b6060815160016120d19190612be8565b826040516020016120e3929190612e63565b6040516020818303038152906040529050919050565b73ffffffffffffffffffffffffffffffffffffffff81168114611213575f5ffd5b8035612125816120f9565b919050565b5f5f83601f84011261213a575f5ffd5b50813567ffffffffffffffff811115612151575f5ffd5b602083019150836020828501011115612168575f5ffd5b9250929050565b5f5f5f5f5f5f5f5f60c0898b031215612186575f5ffd5b8835612191816120f9565b975060208901356121a1816120f9565b965060408901356121b1816120f9565b955060608901359450608089013567ffffffffffffffff8111156121d3575f5ffd5b6121df8b828c0161212a565b90955093505060a089013567ffffffffffffffff8111156121fe575f5ffd5b61220a8b828c0161212a565b999c989b5096995094979396929594505050565b5f6020828403121561222e575f5ffd5b5035919050565b7f4e487b71000000000000000000000000000000000000000000000000000000005f52604160045260245ffd5b604051601f82017fffffffffffffffffffffffffffffffffffffffffffffffffffffffffffffffe016810167ffffffffffffffff811182821017156122a9576122a9612235565b604052919050565b5f67ffffffffffffffff8211156122ca576122ca612235565b5060051b60200190565b5f82601f8301126122e3575f5ffd5b81356122f66122f1826122b1565b612262565b8082825260208201915060208360051b860101925085831115612317575f5ffd5b602085015b838110156113d357803583526020928301920161231c565b5f60208284031215612344575f5ffd5b813567ffffffffffffffff81111561235a575f5ffd5b612366848285016122d4565b949350505050565b5f8151808452602084019350602083015f5b8281101561239e578151865260209586019590910190600101612380565b5093949350505050565b602081525f610baa602083018461236e565b5f5f5f5f5f608086880312156123ce575f5ffd5b85356123d9816120f9565b945060208601356123e9816120f9565b935060408601359250606086013567ffffffffffffffff81111561240b575f5ffd5b6124178882890161212a565b969995985093965092949392505050565b5f82601f830112612437575f5ffd5b813567ffffffffffffffff81111561245157612451612235565b61248260207fffffffffffffffffffffffffffffffffffffffffffffffffffffffffffffffe0601f84011601612262565b818152846020838601011115612496575f5ffd5b816020850160208301375f918101602001919091529392505050565b5f5f604083850312156124c3575f5ffd5b82359150602083013567ffffffffffffffff8111156124e0575f5ffd5b6124ec85828601612428565b9150509250929050565b5f82601f830112612505575f5ffd5b81356125136122f1826122b1565b8082825260208201915060208360051b860101925085831115612534575f5ffd5b602085015b838110156113d357803567ffffffffffffffff811115612557575f5ffd5b612566886020838a0101612428565b84525060209283019201612539565b5f5f5f5f5f5f60c0878903121561258a575f5ffd5b6125938761211a565b9550602087013567ffffffffffffffff8111156125ae575f5ffd5b6125ba89828a016124f6565b955050604087013567ffffffffffffffff8111156125d6575f5ffd5b6125e289828a016124f6565b945050606087013567ffffffffffffffff8111156125fe575f5ffd5b61260a89828a016124f6565b935050608087013567ffffffffffffffff811115612626575f5ffd5b61263289828a016122d4565b92505060a087013567ffffffffffffffff81111561264e575f5ffd5b61265a89828a01612428565b9150509295509295509295565b5f5f5f60608486031215612679575f5ffd5b833567ffffffffffffffff81111561268f575f5ffd5b840161016081870312156126a1575f5ffd5b95602085013595506040909401359392505050565b5f5f604083850312156126c7575f5ffd5b50508035926020909101359150565b5f602082840312156126e6575f5ffd5b8135610baa816120f9565b5f5f60408385031215612702575f5ffd5b823567ffffffffffffffff811115612718575f5ffd5b612724858286016122d4565b925050602083013567ffffffffffffffff811115612740575f5ffd5b6124ec858286016124f6565b5f6020828403121561275c575f5ffd5b813567ffffffffffffffff811115612772575f5ffd5b61236684828501612428565b5f5f83601f84011261278e575f5ffd5b50813567ffffffffffffffff8111156127a5575f5ffd5b6020830191508360208260051b8501011115612168575f5ffd5b5f5f5f5f5f5f5f5f60a0898b0312156127d6575f5ffd5b88356127e1816120f9565b975060208901356127f1816120f9565b9650604089013567ffffffffffffffff81111561280c575f5ffd5b6128188b828c0161277e565b909750955050606089013567ffffffffffffffff811115612837575f5ffd5b6128438b828c0161277e565b909550935050608089013567ffffffffffffffff8111156121fe575f5ffd5b5f5f5f5f5f60a08688031215612876575f5ffd5b8535612881816120f9565b945060208601359350604086013567ffffffffffffffff8111156128a3575f5ffd5b6128af88828901612428565b9350506060860135600281106128c3575f5ffd5b949793965091946080013592915050565b5f81518084528060208401602086015e5f6020828601015260207fffffffffffffffffffffffffffffffffffffffffffffffffffffffffffffffe0601f83011685010191505092915050565b602081525f610baa60208301846128d4565b5f5f5f5f5f5f60a08789031215612947575f5ffd5b8635612952816120f9565b95506020870135612962816120f9565b94506040870135935060608701359250608087013567ffffffffffffffff81111561298b575f5ffd5b61299789828a0161212a565b979a9699509497509295939492505050565b7f4e487b71000000000000000000000000000000000000000000000000000000005f52603260045260245ffd5b828152604060208201525f61236660408301846128d4565b5f602082840312156129fe575f5ffd5b81517fffffffff0000000000000000000000000000000000000000000000000000000081168114610baa575f5ffd5b5f5f60408385031215612a3e575f5ffd5b8251612a49816120f9565b6020939093015192949293505050565b5f82825180855260208501945060208160051b830101602085015f5b83811015612ac5577fffffffffffffffffffffffffffffffffffffffffffffffffffffffffffffffe0858403018852612aaf8383516128d4565b6020988901989093509190910190600101612a75565b50909695505050505050565b73ffffffffffffffffffffffffffffffffffffffff8716815260c060208201525f612aff60c0830188612a59565b8281036040840152612b118188612a59565b90508281036060840152612b258187612a59565b90508281036080840152612b39818661236e565b905082810360a0840152612b4d81856128d4565b9998505050505050505050565b5f5f83357fffffffffffffffffffffffffffffffffffffffffffffffffffffffffffffffe1843603018112612b8d575f5ffd5b83018035915067ffffffffffffffff821115612ba7575f5ffd5b602001915036819003821315612168575f5ffd5b7f4e487b71000000000000000000000000000000000000000000000000000000005f52601160045260245ffd5b808201808211156109e8576109e8612bbb565b606081525f612c0d606083018661236e565b8281036020840152612c1f818661236e565b90508281036040840152612c338185612a59565b9695505050505050565b5f60208284031215612c4d575f5ffd5b815167ffffffffffffffff811115612c63575f5ffd5b8201601f81018413612c73575f5ffd5b8051612c816122f1826122b1565b8082825260208201915060208360051b850101925086831115612ca2575f5ffd5b6020840193505b82841015612c335783518015158114612cc0575f5ffd5b825260209384019390910190612ca9565b5f7fffffffffffffffffffffffffffffffffffffffffffffffffffffffffffffffff8203612d0157612d01612bbb565b5060010190565b805163ffffffff81168114612125575f5ffd5b5f5f5f5f5f5f5f60e0888a031215612d31575f5ffd5b87516bffffffffffffffffffffffff81168114612d4c575f5ffd5b6020890151909750612d5d816120f9565b60408901519096509450612d7360608901612d08565b9350612d8160808901612d08565b9250612d8f60a08901612d08565b915060c088015160068110612da2575f5ffd5b8091505092959891949750929550565b7f4e487b71000000000000000000000000000000000000000000000000000000005f52602160045260245ffd5b5f60208284031215612def575f5ffd5b8151610baa816120f9565b818103818111156109e8576109e8612bbb565b5f81518060208401855e5f93019283525090919050565b5f610baa8284612e0d565b5f81612e3d57612e3d612bbb565b507fffffffffffffffffffffffffffffffffffffffffffffffffffffffffffffffff0190565b7f630000000000000000000000000000000000000000000000000000000000000081527fffffffff000000000000000000000000000000000000000000000000000000008360e01b1660018201527f80600e6000396000f3000000000000000000000000000000000000000000000060058201525f600e8201525f612366600f830184612e0d56fea26469706673582212201a1546e85453f408da03f7e4832c255b0f0e556cfa2caada3ec82cd2feaf847564736f6c634300081c0033a2646970667358221220521e59d432b99ee7879b51f580e31e5f74e190b0051c5043668fd708e937006c64736f6c634300081c0033",
  "linkReferences": {},
  "deployedLinkReferences": {}
}