{
  "_format": "hh-sol-artifact-1",
  "contractName": "MechNvmSubscriptionNative",
  "sourceName": "contracts/mechs/nevermined/MechNvmSubscriptionNative.sol",
  "abi": [
    {
      "inputs": [
        {
          "internalType": "address",
          "name": "_mechMarketplace",
          "type": "address"
        },
        {
          "internalType": "address",
          "name": "_serviceRegistry",
          "type": "address"
        },
        {
          "internalType": "uint256",
          "name": "_serviceId",
          "type": "uint256"
        },
        {
          "internalType": "uint256",
          "name": "_maxDeliveryRate",
          "type": "uint256"
        }
      ],
      "stateMutability": "nonpayable",
      "type": "constructor"
    },
    {
      "inputs": [],
      "name": "AlreadyInitialized",
      "type": "error"
    },
    {
      "inputs": [
        {
          "internalType": "address",
          "name": "sender",
          "type": "address"
        },
        {
          "internalType": "address",
          "name": "marketplace",
          "type": "address"
        }
      ],
      "name": "MarketplaceOnly",
      "type": "error"
    },
    {
      "inputs": [
        {
          "internalType": "uint256",
          "name": "provided",
          "type": "uint256"
        },
        {
          "internalType": "uint256",
          "name": "max",
          "type": "uint256"
        }
      ],
      "name": "Overflow",
      "type": "error"
    },
    {
      "inputs": [],
      "name": "ReentrancyGuard",
      "type": "error"
    },
    {
      "inputs": [
        {
          "internalType": "bytes32",
          "name": "requestId",
          "type": "bytes32"
        }
      ],
      "name": "RequestIdNotFound",
      "type": "error"
    },
    {
      "inputs": [
        {
          "internalType": "uint256",
          "name": "numValues1",
          "type": "uint256"
        },
        {
          "internalType": "uint256",
          "name": "numValues2",
          "type": "uint256"
        }
      ],
      "name": "WrongArrayLength",
      "type": "error"
    },
    {
      "inputs": [
        {
          "internalType": "uint256",
          "name": "state",
          "type": "uint256"
        },
        {
          "internalType": "uint256",
          "name": "serviceId",
          "type": "uint256"
        }
      ],
      "name": "WrongServiceState",
      "type": "error"
    },
    {
      "inputs": [],
      "name": "ZeroAddress",
      "type": "error"
    },
    {
      "inputs": [],
      "name": "ZeroValue",
      "type": "error"
    },
    {
      "anonymous": false,
      "inputs": [
        {
          "indexed": true,
          "internalType": "address",
          "name": "mech",
          "type": "address"
        },
        {
          "indexed": true,
          "internalType": "address",
          "name": "mechServiceMultisig",
          "type": "address"
        },
        {
          "indexed": false,
          "internalType": "bytes32",
          "name": "requestId",
          "type": "bytes32"
        },
        {
          "indexed": false,
          "internalType": "bytes",
          "name": "data",
          "type": "bytes"
        }
      ],
      "name": "Deliver",
      "type": "event"
    },
    {
      "anonymous": false,
      "inputs": [
        {
          "indexed": false,
          "internalType": "uint256",
          "name": "maxDeliveryRate",
          "type": "uint256"
        }
      ],
      "name": "MaxDeliveryRateUpdated",
      "type": "event"
    },
    {
      "anonymous": false,
      "inputs": [
        {
          "indexed": false,
          "internalType": "uint256",
          "name": "numRequests",
          "type": "uint256"
        }
      ],
      "name": "NumRequestsIncrease",
      "type": "event"
    },
    {
      "anonymous": false,
      "inputs": [
        {
          "indexed": true,
          "internalType": "address",
          "name": "mech",
          "type": "address"
        },
        {
          "indexed": false,
          "internalType": "bytes32",
          "name": "requestId",
          "type": "bytes32"
        },
        {
          "indexed": false,
          "internalType": "bytes",
          "name": "data",
          "type": "bytes"
        }
      ],
      "name": "Request",
      "type": "event"
    },
    {
      "anonymous": false,
      "inputs": [
        {
          "indexed": true,
          "internalType": "bytes32",
          "name": "requestId",
          "type": "bytes32"
        },
        {
          "indexed": false,
          "internalType": "uint256",
          "name": "deliveryRate",
          "type": "uint256"
        }
      ],
      "name": "RequestRateFinalized",
      "type": "event"
    },
    {
      "anonymous": false,
      "inputs": [
        {
          "indexed": false,
          "internalType": "bytes32",
          "name": "requestId",
          "type": "bytes32"
        }
      ],
      "name": "RevokeRequest",
      "type": "event"
    },
    {
      "inputs": [],
      "name": "PAYMENT_TYPE",
      "outputs": [
        {
          "internalType": "bytes32",
          "name": "",
          "type": "bytes32"
        }
      ],
      "stateMutability": "view",
      "type": "function"
    },
    {
      "inputs": [],
      "name": "VERSION",
      "outputs": [
        {
          "internalType": "string",
          "name": "",
          "type": "string"
        }
      ],
      "stateMutability": "view",
      "type": "function"
    },
    {
      "inputs": [
        {
          "internalType": "uint256",
          "name": "newMaxDeliveryRate",
          "type": "uint256"
        }
      ],
      "name": "changeMaxDeliveryRate",
      "outputs": [],
      "stateMutability": "nonpayable",
      "type": "function"
    },
    {
      "inputs": [
        {
          "internalType": "address",
          "name": "requester",
          "type": "address"
        },
        {
          "internalType": "bytes[]",
          "name": "requestDatas",
          "type": "bytes[]"
        },
        {
          "internalType": "bytes[]",
          "name": "signatures",
          "type": "bytes[]"
        },
        {
          "internalType": "bytes[]",
          "name": "deliveryDatas",
          "type": "bytes[]"
        },
        {
          "internalType": "uint256[]",
          "name": "deliveryRates",
          "type": "uint256[]"
        },
        {
          "internalType": "bytes",
          "name": "paymentData",
          "type": "bytes"
        }
      ],
      "name": "deliverMarketplaceWithSignatures",
      "outputs": [],
      "stateMutability": "nonpayable",
      "type": "function"
    },
    {
      "inputs": [
        {
          "internalType": "bytes32[]",
          "name": "requestIds",
          "type": "bytes32[]"
        },
        {
          "internalType": "bytes[]",
          "name": "datas",
          "type": "bytes[]"
        }
      ],
      "name": "deliverToMarketplace",
      "outputs": [],
      "stateMutability": "nonpayable",
      "type": "function"
    },
    {
      "inputs": [],
      "name": "entryPoint",
      "outputs": [
        {
          "internalType": "contract IEntryPoint",
          "name": "",
          "type": "address"
        }
      ],
      "stateMutability": "view",
      "type": "function"
    },
    {
      "inputs": [
        {
          "internalType": "address",
          "name": "to",
          "type": "address"
        },
        {
          "internalType": "uint256",
          "name": "value",
          "type": "uint256"
        },
        {
          "internalType": "bytes",
          "name": "data",
          "type": "bytes"
        },
        {
          "internalType": "enum Enum.Operation",
          "name": "operation",
          "type": "uint8"
        },
        {
          "internalType": "uint256",
          "name": "txGas",
          "type": "uint256"
        }
      ],
      "name": "exec",
      "outputs": [
        {
          "internalType": "bytes",
          "name": "returnData",
          "type": "bytes"
        }
      ],
      "stateMutability": "nonpayable",
      "type": "function"
    },
    {
      "inputs": [
        {
          "internalType": "bytes32[]",
          "name": "requestIds",
          "type": "bytes32[]"
        }
      ],
      "name": "getFinalizedDeliveryRates",
      "outputs": [
        {
          "internalType": "uint256[]",
          "name": "deliveryRates",
          "type": "uint256[]"
        }
      ],
      "stateMutability": "view",
      "type": "function"
    },
    {
      "inputs": [],
      "name": "getOperator",
      "outputs": [
        {
          "internalType": "address",
          "name": "",
          "type": "address"
        }
      ],
      "stateMutability": "view",
      "type": "function"
    },
    {
      "inputs": [
        {
          "internalType": "uint256",
          "name": "size",
          "type": "uint256"
        },
        {
          "internalType": "uint256",
          "name": "offset",
          "type": "uint256"
        }
      ],
      "name": "getUndeliveredRequestIds",
      "outputs": [
        {
          "internalType": "bytes32[]",
          "name": "requestIds",
          "type": "bytes32[]"
        }
      ],
      "stateMutability": "view",
      "type": "function"
    },
    {
      "inputs": [
        {
          "internalType": "address",
          "name": "multisig",
          "type": "address"
        }
      ],
      "name": "isOperator",
      "outputs": [
        {
          "internalType": "bool",
          "name": "",
          "type": "bool"
        }
      ],
      "stateMutability": "view",
      "type": "function"
    },
    {
      "inputs": [
        {
          "internalType": "bytes32",
          "name": "hash",
          "type": "bytes32"
        },
        {
          "internalType": "bytes",
          "name": "signature",
          "type": "bytes"
        }
      ],
      "name": "isValidSignature",
      "outputs": [
        {
          "internalType": "bytes4",
          "name": "magicValue",
          "type": "bytes4"
        }
      ],
      "stateMutability": "view",
      "type": "function"
    },
    {
      "inputs": [
        {
          "internalType": "bytes32",
          "name": "",
          "type": "bytes32"
        }
      ],
      "name": "mapRequestIdFinalizedRates",
      "outputs": [
        {
          "internalType": "uint256",
          "name": "",
          "type": "uint256"
        }
      ],
      "stateMutability": "view",
      "type": "function"
    },
    {
      "inputs": [
        {
          "internalType": "bytes32",
          "name": "",
          "type": "bytes32"
        },
        {
          "internalType": "uint256",
          "name": "",
          "type": "uint256"
        }
      ],
      "name": "mapRequestIds",
      "outputs": [
        {
          "internalType": "bytes32",
          "name": "",
          "type": "bytes32"
        }
      ],
      "stateMutability": "view",
      "type": "function"
    },
    {
      "inputs": [],
      "name": "maxDeliveryRate",
      "outputs": [
        {
          "internalType": "uint256",
          "name": "",
          "type": "uint256"
        }
      ],
      "stateMutability": "view",
      "type": "function"
    },
    {
      "inputs": [],
      "name": "mechMarketplace",
      "outputs": [
        {
          "internalType": "address",
          "name": "",
          "type": "address"
        }
      ],
      "stateMutability": "view",
      "type": "function"
    },
    {
      "inputs": [],
      "name": "nonce",
      "outputs": [
        {
          "internalType": "uint256",
          "name": "",
          "type": "uint256"
        }
      ],
      "stateMutability": "view",
      "type": "function"
    },
    {
      "inputs": [],
      "name": "numTotalDeliveries",
      "outputs": [
        {
          "internalType": "uint256",
          "name": "",
          "type": "uint256"
        }
      ],
      "stateMutability": "view",
      "type": "function"
    },
    {
      "inputs": [],
      "name": "numTotalRequests",
      "outputs": [
        {
          "internalType": "uint256",
          "name": "",
          "type": "uint256"
        }
      ],
      "stateMutability": "view",
      "type": "function"
    },
    {
      "inputs": [],
      "name": "numUndeliveredRequests",
      "outputs": [
        {
          "internalType": "uint256",
          "name": "",
          "type": "uint256"
        }
      ],
      "stateMutability": "view",
      "type": "function"
    },
    {
      "inputs": [
        {
          "internalType": "address",
          "name": "",
          "type": "address"
        },
        {
          "internalType": "address",
          "name": "",
          "type": "address"
        },
        {
          "internalType": "uint256[]",
          "name": "",
          "type": "uint256[]"
        },
        {
          "internalType": "uint256[]",
          "name": "",
          "type": "uint256[]"
        },
        {
          "internalType": "bytes",
          "name": "",
          "type": "bytes"
        }
      ],
      "name": "onERC1155BatchReceived",
      "outputs": [
        {
          "internalType": "bytes4",
          "name": "",
          "type": "bytes4"
        }
      ],
      "stateMutability": "pure",
      "type": "function"
    },
    {
      "inputs": [
        {
          "internalType": "address",
          "name": "",
          "type": "address"
        },
        {
          "internalType": "address",
          "name": "",
          "type": "address"
        },
        {
          "internalType": "uint256",
          "name": "",
          "type": "uint256"
        },
        {
          "internalType": "uint256",
          "name": "",
          "type": "uint256"
        },
        {
          "internalType": "bytes",
          "name": "",
          "type": "bytes"
        }
      ],
      "name": "onERC1155Received",
      "outputs": [
        {
          "internalType": "bytes4",
          "name": "",
          "type": "bytes4"
        }
      ],
      "stateMutability": "pure",
      "type": "function"
    },
    {
      "inputs": [
        {
          "internalType": "address",
          "name": "",
          "type": "address"
        },
        {
          "internalType": "address",
          "name": "",
          "type": "address"
        },
        {
          "internalType": "uint256",
          "name": "",
          "type": "uint256"
        },
        {
          "internalType": "bytes",
          "name": "",
          "type": "bytes"
        }
      ],
      "name": "onERC721Received",
      "outputs": [
        {
          "internalType": "bytes4",
          "name": "",
          "type": "bytes4"
        }
      ],
      "stateMutability": "pure",
      "type": "function"
    },
    {
      "inputs": [],
      "name": "paymentType",
      "outputs": [
        {
          "internalType": "bytes32",
          "name": "",
          "type": "bytes32"
        }
      ],
      "stateMutability": "view",
      "type": "function"
    },
    {
      "inputs": [
        {
          "internalType": "bytes32[]",
          "name": "requestIds",
          "type": "bytes32[]"
        },
        {
          "internalType": "bytes[]",
          "name": "datas",
          "type": "bytes[]"
        }
      ],
      "name": "requestFromMarketplace",
      "outputs": [],
      "stateMutability": "nonpayable",
      "type": "function"
    },
    {
      "inputs": [
        {
          "internalType": "bytes",
          "name": "initParams",
          "type": "bytes"
        }
      ],
      "name": "setUp",
      "outputs": [],
      "stateMutability": "nonpayable",
      "type": "function"
    },
    {
      "inputs": [],
      "name": "token",
      "outputs": [
        {
          "internalType": "address",
          "name": "serviceRegistry",
          "type": "address"
        }
      ],
      "stateMutability": "view",
      "type": "function"
    },
    {
      "inputs": [],
      "name": "tokenId",
      "outputs": [
        {
          "internalType": "uint256",
          "name": "serviceId",
          "type": "uint256"
        }
      ],
      "stateMutability": "view",
      "type": "function"
    },
    {
      "inputs": [
        {
          "internalType": "address",
          "name": "",
          "type": "address"
        },
        {
          "internalType": "address",
          "name": "",
          "type": "address"
        },
        {
          "internalType": "address",
          "name": "",
          "type": "address"
        },
        {
          "internalType": "uint256",
          "name": "",
          "type": "uint256"
        },
        {
          "internalType": "bytes",
          "name": "",
          "type": "bytes"
        },
        {
          "internalType": "bytes",
          "name": "",
          "type": "bytes"
        }
      ],
      "name": "tokensReceived",
      "outputs": [],
      "stateMutability": "pure",
      "type": "function"
    },
    {
      "inputs": [
        {
          "internalType": "uint256",
          "name": "numRequests",
          "type": "uint256"
        }
      ],
      "name": "updateNumRequests",
      "outputs": [],
      "stateMutability": "nonpayable",
      "type": "function"
    },
    {
      "inputs": [
        {
          "components": [
            {
              "internalType": "address",
              "name": "sender",
              "type": "address"
            },
            {
              "internalType": "uint256",
              "name": "nonce",
              "type": "uint256"
            },
            {
              "internalType": "bytes",
              "name": "initCode",
              "type": "bytes"
            },
            {
              "internalType": "bytes",
              "name": "callData",
              "type": "bytes"
            },
            {
              "internalType": "uint256",
              "name": "callGasLimit",
              "type": "uint256"
            },
            {
              "internalType": "uint256",
              "name": "verificationGasLimit",
              "type": "uint256"
            },
            {
              "internalType": "uint256",
              "name": "preVerificationGas",
              "type": "uint256"
            },
            {
              "internalType": "uint256",
              "name": "maxFeePerGas",
              "type": "uint256"
            },
            {
              "internalType": "uint256",
              "name": "maxPriorityFeePerGas",
              "type": "uint256"
            },
            {
              "internalType": "bytes",
              "name": "paymasterAndData",
              "type": "bytes"
            },
            {
              "internalType": "bytes",
              "name": "signature",
              "type": "bytes"
            }
          ],
          "internalType": "struct UserOperation",
          "name": "userOp",
          "type": "tuple"
        },
        {
          "internalType": "bytes32",
          "name": "userOpHash",
          "type": "bytes32"
        },
        {
          "internalType": "uint256",
          "name": "missingAccountFunds",
          "type": "uint256"
        }
      ],
      "name": "validateUserOp",
      "outputs": [
        {
          "internalType": "uint256",
          "name": "validationData",
          "type": "uint256"
        }
      ],
      "stateMutability": "nonpayable",
      "type": "function"
    },
    {
      "stateMutability": "payable",
      "type": "receive"
    }
  ],
  "bytecode": "0x60c06040525f5f556001600555348015610017575f5ffd5b5060405161367f38038061367f83398101604081905261003691610435565b838383837f803dd08fe79d91027fc9024e254a0942372b92f3ccabc1bd19f4a5c2b251c3166001600160a01b0385166100825760405163d92e233d60e01b815260040160405180910390fd5b6001600160a01b0384166100a95760405163d92e233d60e01b815260040160405180910390fd5b8215806100b4575081155b806100bd575080155b156100db57604051637c946ed760e01b815260040160405180910390fd5b604080516001600160a01b03861660208201529081018490525f9060600160408051601f1981840301815290829052630846d5ff60e31b82526004820186905291505f9081906001600160a01b03881690634236aff89060240160e060405180830381865afa158015610150573d5f5f3e3d5ffd5b505050506040513d601f19601f820116820180604052508101906101749190610488565b9650505050509250505f6001600160a01b0316826001600160a01b0316036101af5760405163d92e233d60e01b815260040160405180910390fd5b60048160058111156101c3576101c3610516565b14610203578060058111156101da576101da610516565b604051633c053f9d60e21b81526004810191909152602481018790526044015b60405180910390fd5b61020c8361022f565b5050506001600160a01b03909416608052600155505060a052506105bd92505050565b610237610261565b51156102555760405162dc149f60e41b815260040160405180910390fd5b61025e816102c9565b50565b60606102c46102bf604051606b60f91b6020820152602560fa1b60218201526001600160601b03193060601b166022820152600160f81b60368201525f90603701604051602081830303815290604052805190602001205f1c905090565b61038d565b905090565b5f6102d3826103e2565b90505f8151602083015ff09050610339604051606b60f91b6020820152602560fa1b60218201526001600160601b03193060601b166022820152600160f81b60368201525f90603701604051602081830303815290604052805190602001205f1c905090565b6001600160a01b0316816001600160a01b0316146103885760405162461bcd60e51b815260206004820152600c60248201526b15dc9a5d194819985a5b195960a21b60448201526064016101fa565b505050565b6060813b600181116103ae57505060408051602081019091525f8152919050565b806103b88161053e565b9150506040519150601f19601f602083010116820160405280825280600160208401853c50919050565b6060815160016103f29190610553565b8260405160200161040492919061056c565b6040516020818303038152906040529050919050565b80516001600160a01b0381168114610430575f5ffd5b919050565b5f5f5f5f60808587031215610448575f5ffd5b6104518561041a565b935061045f6020860161041a565b6040860151606090960151949790965092505050565b805163ffffffff81168114610430575f5ffd5b5f5f5f5f5f5f5f60e0888a03121561049e575f5ffd5b87516001600160601b03811681146104b4575f5ffd5b96506104c26020890161041a565b9550604088015194506104d760608901610475565b93506104e560808901610475565b92506104f360a08901610475565b915060c088015160068110610506575f5ffd5b8091505092959891949750929550565b634e487b7160e01b5f52602160045260245ffd5b634e487b7160e01b5f52601160045260245ffd5b5f8161054c5761054c61052a565b505f190190565b808201808211156105665761056661052a565b92915050565b606360f81b815260e083901b6001600160e01b03191660018201526880600e6000396000f360b81b60058201525f600e820181905282518060208501600f85015e5f9201600f019182525092915050565b60805160a0516130776106085f395f61031d01525f818161046f01528181610b5801528181610f08015281816111350152818161119d0152818161128c01526112f401526130775ff3fe6080604052600436106101d1575f3560e01c80639680b603116100fd578063be2641de11610092578063ecf050e311610062578063ecf050e3146105fd578063f23a6e6114610630578063fc0c546a14610675578063ffa1ad7414610689575f5ffd5b8063be2641de1461057f578063c2825d921461059e578063c7dec3fc146105bd578063e7f43c68146105e9575f5ffd5b8063affed0e0116100cd578063affed0e0146104ea578063b0d691fe146104fd578063bc197c8114610523578063bdf863171461056a575f5ffd5b80639680b6031461043f5780639c5e95901461045e578063a4f9edbf146104b6578063a669aaf9146104d5575f5ffd5b806328c320411161017357806358ce09091161014357806358ce0909146103a7578063682a8ce2146103c65780636d70f7ae146103f15780636f6885bb14610420575f5ffd5b806328c320411461033f5780632cc0fcb21461035e5780633a871cdd146103735780634ada3e6114610392575f5ffd5b8063150b7a02116101ae578063150b7a02146102565780631626ba7e146102cb57806317d70f7c146102ea5780632763b8da1461030c575f5ffd5b806223de29146101dc578062f20c711461020257806302c9b8dc14610221575f5ffd5b366101d857005b5f5ffd5b3480156101e7575f5ffd5b506102006101f636600461223d565b5050505050505050565b005b34801561020d575f5ffd5b5061020061021c3660046122ec565b6106d1565b34801561022c575f5ffd5b5061024061023b366004612402565b6107fe565b60405161024d9190612476565b60405180910390f35b348015610261575f5ffd5b5061029a610270366004612488565b7f150b7a020000000000000000000000000000000000000000000000000000000095945050505050565b6040517fffffffff00000000000000000000000000000000000000000000000000000000909116815260200161024d565b3480156102d6575f5ffd5b5061029a6102e5366004612588565b6108a9565b3480156102f5575f5ffd5b506102fe610a4c565b60405190815260200161024d565b348015610317575f5ffd5b506102fe7f000000000000000000000000000000000000000000000000000000000000000081565b34801561034a575f5ffd5b5061020061035936600461264b565b610a68565b348015610369575f5ffd5b506102fe60015481565b34801561037e575f5ffd5b506102fe61038d36600461273d565b610bcc565b34801561039d575f5ffd5b506102fe60035481565b3480156103b2575f5ffd5b506102406103c136600461278c565b610c0f565b3480156103d1575f5ffd5b506102fe6103e03660046122ec565b60076020525f908152604090205481565b3480156103fc575f5ffd5b5061041061040b3660046127ac565b610d66565b604051901515815260200161024d565b34801561042b575f5ffd5b5061020061043a3660046127c7565b610da4565b34801561044a575f5ffd5b506102006104593660046122ec565b61111d565b348015610469575f5ffd5b506104917f000000000000000000000000000000000000000000000000000000000000000081565b60405173ffffffffffffffffffffffffffffffffffffffff909116815260200161024d565b3480156104c1575f5ffd5b506102006104d0366004612822565b611228565b3480156104e0575f5ffd5b506102fe60045481565b3480156104f5575f5ffd5b505f546102fe565b348015610508575f5ffd5b50730576a174d229e3cfa37253523e645a78a0c91b57610491565b34801561052e575f5ffd5b5061029a61053d366004612895565b7fbc197c810000000000000000000000000000000000000000000000000000000098975050505050505050565b348015610575575f5ffd5b506102fe60025481565b34801561058a575f5ffd5b506102006105993660046127c7565b611274565b3480156105a9575f5ffd5b506102fe6105b836600461278c565b61132f565b3480156105c8575f5ffd5b506105dc6105d7366004612938565b611351565b60405161024d91906129f6565b3480156105f4575f5ffd5b5061049161143b565b348015610608575f5ffd5b506102fe7f803dd08fe79d91027fc9024e254a0942372b92f3ccabc1bd19f4a5c2b251c31681565b34801561063b575f5ffd5b5061029a61064a366004612a08565b7ff23a6e61000000000000000000000000000000000000000000000000000000009695505050505050565b348015610680575f5ffd5b50610491611563565b348015610694575f5ffd5b506105dc6040518060400160405280600581526020017f312e302e3000000000000000000000000000000000000000000000000000000081525081565b6106da33610d66565b806106f8575033730576a174d229e3cfa37253523e645a78a0c91b57145b610789576040517f08c379a000000000000000000000000000000000000000000000000000000000815260206004820152603e60248201527f4f6e6c792063616c6c61626c6520627920746865206d656368206f706572617460448201527f6f72206f722074686520656e74727920706f696e7420636f6e7472616374000060648201526084015b60405180910390fd5b805f036107c2576040517f7c946ed700000000000000000000000000000000000000000000000000000000815260040160405180910390fd5b60018190556040518181527fb912b1469d50f9612d4378acbbf5469b04e6da0f6fe174443169d704ad534258906020015b60405180910390a150565b80516060908067ffffffffffffffff81111561081c5761081c612303565b604051908082528060200260200182016040528015610845578160200160208202803683370190505b5091505f5b818110156108a25760075f85838151811061086757610867612a7f565b602002602001015181526020019081526020015f205483828151811061088f5761088f612a7f565b602090810291909101015260010161084a565b5050919050565b5f5f5f5f6108c985602081015160408201516060909201515f1a92909190565b9094509250905060ff81165f036109df57828583016020016108ea82610d66565b15801561090d575073ffffffffffffffffffffffffffffffffffffffff82163014155b1561094057507fffffffff000000000000000000000000000000000000000000000000000000009450610a469350505050565b6040517f1626ba7e00000000000000000000000000000000000000000000000000000000815273ffffffffffffffffffffffffffffffffffffffff831690631626ba7e90610994908b908590600401612aac565b602060405180830381865afa1580156109af573d5f5f3e3d5ffd5b505050506040513d601f19601f820116820180604052508101906109d39190612ac4565b95505050505050610a46565b6109ee61040b87838686611584565b15610a1f57507f1626ba7e000000000000000000000000000000000000000000000000000000009250610a46915050565b507fffffffff00000000000000000000000000000000000000000000000000000000925050505b92915050565b5f610a556115a0565b806020019051810190610a469190612b03565b610a7133610d66565b80610a8f575033730576a174d229e3cfa37253523e645a78a0c91b57145b610b1b576040517f08c379a000000000000000000000000000000000000000000000000000000000815260206004820152603e60248201527f4f6e6c792063616c6c61626c6520627920746865206d656368206f706572617460448201527f6f72206f722074686520656e74727920706f696e7420636f6e747261637400006064820152608401610780565b6040517f28c3204100000000000000000000000000000000000000000000000000000000815273ffffffffffffffffffffffffffffffffffffffff7f000000000000000000000000000000000000000000000000000000000000000016906328c3204190610b9790899089908990899089908990600401612ba7565b5f604051808303815f87803b158015610bae575f5ffd5b505af1158015610bc0573d5f5f3e3d5ffd5b50505050505050505050565b5f610bd561166f565b610bdf84846116ee565b9050610bee6040850185612c30565b90505f03610bff57610bff846117c2565b610c0882611840565b9392505050565b6002546060905f849003610c21578093505b80610c2c8486612cbe565b1115610c7957610c3c8385612cbe565b6040517f7ae59685000000000000000000000000000000000000000000000000000000008152600481019190915260248101829052604401610780565b8315610d5f578367ffffffffffffffff811115610c9857610c98612303565b604051908082528060200260200182016040528015610cc1578160200160208202803683370190505b505f80805260066020527f54cdd369e4e8a8515e52ca72ec816c2101831ad1f18bf44102ed171459c9b4f9549193505b84811015610d14575f828152600660205260409020600101549150600101610cf1565b505f5b85811015610d5c5781848281518110610d3257610d32612a7f565b6020908102919091018101919091525f838152600690915260409020600101549150600101610d17565b50505b5092915050565b5f610d6f61143b565b73ffffffffffffffffffffffffffffffffffffffff168273ffffffffffffffffffffffffffffffffffffffff16149050919050565b610dad33610d66565b80610dcb575033730576a174d229e3cfa37253523e645a78a0c91b57145b610e57576040517f08c379a000000000000000000000000000000000000000000000000000000000815260206004820152603e60248201527f4f6e6c792063616c6c61626c6520627920746865206d656368206f706572617460448201527f6f72206f722074686520656e74727920706f696e7420636f6e747261637400006064820152608401610780565b600554600203610e93576040517f8beb9d1600000000000000000000000000000000000000000000000000000000815260040160405180910390fd5b600260055581511580610ea857508051825114155b15610eec57815181516040517f8151c11000000000000000000000000000000000000000000000000000000000815260048101929092526024820152604401610780565b5f610ef783836118b4565b90505f610f03846107fe565b90505f7f000000000000000000000000000000000000000000000000000000000000000073ffffffffffffffffffffffffffffffffffffffff166308c38b0c8684866040518463ffffffff1660e01b8152600401610f6393929190612cd1565b5f604051808303815f875af1158015610f7e573d5f5f3e3d5ffd5b505050506040513d5f823e601f3d9081017fffffffffffffffffffffffffffffffffffffffffffffffffffffffffffffffe0168201604052610fc39190810190612d13565b85519091505f805b828110156110f857838181518110610fe557610fe5612a7f565b60200260200101511561109d5781610ffc81612da7565b9250503373ffffffffffffffffffffffffffffffffffffffff163073ffffffffffffffffffffffffffffffffffffffff167fb26bbe1b5d72196ae18b7198ae5effbeafd5c75782ac31c6b8445c71f385f49b8a848151811061106057611060612a7f565b602002602001015189858151811061107a5761107a612a7f565b6020026020010151604051611090929190612aac565b60405180910390a36110f0565b7fb5863ad79417b48f982fe746b7d7e7c00369bec5f782d4b58537541ff65e841a8882815181106110d0576110d0612a7f565b60200260200101516040516110e791815260200190565b60405180910390a15b600101610fcb565b508060045f82825461110a9190612cbe565b9091555050600160055550505050505050565b3373ffffffffffffffffffffffffffffffffffffffff7f000000000000000000000000000000000000000000000000000000000000000016146111ca576040517fe56895c000000000000000000000000000000000000000000000000000000000815233600482015273ffffffffffffffffffffffffffffffffffffffff7f0000000000000000000000000000000000000000000000000000000000000000166024820152604401610780565b8060035f8282546111db9190612cbe565b925050819055508060045f8282546111f39190612cbe565b90915550506040518181527fa9650c1f534f48ac9fe2937c5af1eb577dd1c6ade5a0422a538a6253e5d9e529906020016107f3565b6112306115a0565b5115611268576040517f0dc149f000000000000000000000000000000000000000000000000000000000815260040160405180910390fd5b61127181611a86565b50565b3373ffffffffffffffffffffffffffffffffffffffff7f00000000000000000000000000000000000000000000000000000000000000001614611321576040517fe56895c000000000000000000000000000000000000000000000000000000000815233600482015273ffffffffffffffffffffffffffffffffffffffff7f0000000000000000000000000000000000000000000000000000000000000000166024820152604401610780565b61132b8282611bfb565b5050565b6006602052815f5260405f208160028110611348575f80fd5b01549150829050565b606061135c33610d66565b8061137a575033730576a174d229e3cfa37253523e645a78a0c91b57145b611406576040517f08c379a000000000000000000000000000000000000000000000000000000000815260206004820152603e60248201527f4f6e6c792063616c6c61626c6520627920746865206d656368206f706572617460448201527f6f72206f722074686520656e74727920706f696e7420636f6e747261637400006064820152608401610780565b5f61142087878787871561141a5787611d2d565b5a611d2d565b925090508061143157815160208301fd5b5095945050505050565b5f5f5f6114466115a0565b8060200190518101906114599190612b03565b915091505f5f8373ffffffffffffffffffffffffffffffffffffffff16634236aff8846040518263ffffffff1660e01b815260040161149a91815260200190565b60e060405180830381865afa1580156114b5573d5f5f3e3d5ffd5b505050506040513d601f19601f820116820180604052508101906114d99190612df1565b965050505050925050600460058111156114f5576114f5612e88565b81600581111561150757611507612e88565b1461155b5780600581111561151e5761151e612e88565b6040517ff014fe74000000000000000000000000000000000000000000000000000000008152600481019190915260248101849052604401610780565b509392505050565b5f61156c6115a0565b80602001905181019061157f9190612eb5565b905090565b5f5f5f61159387878787611e30565b9150915061143181611f18565b606061157f61166a6040517fd60000000000000000000000000000000000000000000000000000000000000060208201527f940000000000000000000000000000000000000000000000000000000000000060218201527fffffffffffffffffffffffffffffffffffffffff0000000000000000000000003060601b1660228201527f010000000000000000000000000000000000000000000000000000000000000060368201525f90603701604051602081830303815290604052805190602001205f1c905090565b6120ca565b33730576a174d229e3cfa37253523e645a78a0c91b57146116ec576040517f08c379a000000000000000000000000000000000000000000000000000000000815260206004820152601c60248201527f6163636f756e743a206e6f742066726f6d20456e747279506f696e74000000006044820152606401610780565b565b7f19457468657265756d205369676e6564204d6573736167653a0a3332000000005f908152601c829052603c81207f1626ba7e000000000000000000000000000000000000000000000000000000006117888261174f610140880188612c30565b8080601f0160208091040260200160405190810160405280939291908181526020018383808284375f920191909152506108a992505050565b7fffffffff0000000000000000000000000000000000000000000000000000000016146117b9576001915050610a46565b505f9392505050565b5f8054602083013591806117d583612da7565b9190505514611271576040517f08c379a000000000000000000000000000000000000000000000000000000000815260206004820152600d60248201527f496e76616c6964206e6f6e6365000000000000000000000000000000000000006044820152606401610780565b8015611271576040515f9033907fffffffffffffffffffffffffffffffffffffffffffffffffffffffffffffffff90849084818181858888f193505050503d805f81146118a8576040519150601f19603f3d011682016040523d82523d5f602084013e6118ad565b606091505b5050505050565b81516060908067ffffffffffffffff8111156118d2576118d2612303565b60405190808252806020026020018201604052801561190557816020015b60608152602001906001900390816118f05790505b5091505f805b82811015611a66575f86828151811061192657611926612a7f565b602002602001015190506119538187848151811061194657611946612a7f565b602002602001015161211f565b85838151811061196557611965612a7f565b6020908102919091018101919091525f828152600690915260408082208151808301928390529160029082845b8154815260200190600101908083116119925750505050509050805f600281106119be576119be612a7f565b60200201511580156119d257506020810151155b8015611a0757505f805260066020527f54cdd369e4e8a8515e52ca72ec816c2101831ad1f18bf44102ed171459c9b4f8548214155b15611a13575050611a5e565b83611a1d81612da7565b6020838101805185515f9081526006909352604080842060019081019290925595519151835285832091909155948152928320838155909301919091555091505b60010161190b565b508060025f828254611a789190612ed0565b909155509295945050505050565b5f611a908261218f565b90505f8151602083015ff09050611b626040517fd60000000000000000000000000000000000000000000000000000000000000060208201527f940000000000000000000000000000000000000000000000000000000000000060218201527fffffffffffffffffffffffffffffffffffffffff0000000000000000000000003060601b1660228201527f010000000000000000000000000000000000000000000000000000000000000060368201525f90603701604051602081830303815290604052805190602001205f1c905090565b73ffffffffffffffffffffffffffffffffffffffff168173ffffffffffffffffffffffffffffffffffffffff1614611bf6576040517f08c379a000000000000000000000000000000000000000000000000000000000815260206004820152600c60248201527f5772697465206661696c656400000000000000000000000000000000000000006044820152606401610780565b505050565b81515f5b8351811015611cf9575f848281518110611c1b57611c1b612a7f565b60209081029190910181015160069091525f81815260408082207f54cdd369e4e8a8515e52ca72ec816c2101831ad1f18bf44102ed171459c9b4f9805460018301819055908590558084529190922083905586519293507f54cdd369e4e8a8515e52ca72ec816c2101831ad1f18bf44102ed171459c9b4f89230907f1ebd17f97038d3a14148566de635eab9901371bf904262f5498331b0c62921ce9086908a9089908110611ccc57611ccc612a7f565b6020026020010151604051611ce2929190612aac565b60405180910390a250505050806001019050611bff565b508060025f828254611d0b9190612cbe565b925050819055508060035f828254611d239190612cbe565b9091555050505050565b5f60606001846001811115611d4457611d44612e88565b03611db8578673ffffffffffffffffffffffffffffffffffffffff168386604051611d6f9190612efa565b5f604051808303818686f4925050503d805f8114611da8576040519150601f19603f3d011682016040523d82523d5f602084013e611dad565b606091505b509092509050611e26565b8673ffffffffffffffffffffffffffffffffffffffff16838787604051611ddf9190612efa565b5f60405180830381858888f193505050503d805f8114611e1a576040519150601f19603f3d011682016040523d82523d5f602084013e611e1f565b606091505b5090925090505b9550959350505050565b5f807f7fffffffffffffffffffffffffffffff5d576e7357a4501ddfe92f46681b20a0831115611e6557505f90506003611f0f565b604080515f8082526020820180845289905260ff881692820192909252606081018690526080810185905260019060a0016020604051602081039080840390855afa158015611eb6573d5f5f3e3d5ffd5b50506040517fffffffffffffffffffffffffffffffffffffffffffffffffffffffffffffffe0015191505073ffffffffffffffffffffffffffffffffffffffff8116611f09575f60019250925050611f0f565b91505f90505b94509492505050565b5f816004811115611f2b57611f2b612e88565b03611f335750565b6001816004811115611f4757611f47612e88565b03611fae576040517f08c379a000000000000000000000000000000000000000000000000000000000815260206004820152601860248201527f45434453413a20696e76616c6964207369676e617475726500000000000000006044820152606401610780565b6002816004811115611fc257611fc2612e88565b03612029576040517f08c379a000000000000000000000000000000000000000000000000000000000815260206004820152601f60248201527f45434453413a20696e76616c6964207369676e6174757265206c656e677468006044820152606401610780565b600381600481111561203d5761203d612e88565b03611271576040517f08c379a000000000000000000000000000000000000000000000000000000000815260206004820152602260248201527f45434453413a20696e76616c6964207369676e6174757265202773272076616c60448201527f75650000000000000000000000000000000000000000000000000000000000006064820152608401610780565b6060813b600181116120eb57505060408051602081019091525f8152919050565b806120f581612f05565b9150506040519150601f19601f602083010116820160405280825280600160208401853c50919050565b60605f828060200190518101906121369190612f39565b5f86815260076020526040908190208390555190935090915084907fe965ec1e7fc17336f45a9a0cb807222c188d9791602501b6825c2001d79e765b906121809084815260200190565b60405180910390a25092915050565b60608151600161219f9190612cbe565b826040516020016121b1929190612fb9565b6040516020818303038152906040529050919050565b73ffffffffffffffffffffffffffffffffffffffff81168114611271575f5ffd5b80356121f3816121c7565b919050565b5f5f83601f840112612208575f5ffd5b50813567ffffffffffffffff81111561221f575f5ffd5b602083019150836020828501011115612236575f5ffd5b9250929050565b5f5f5f5f5f5f5f5f60c0898b031215612254575f5ffd5b883561225f816121c7565b9750602089013561226f816121c7565b9650604089013561227f816121c7565b955060608901359450608089013567ffffffffffffffff8111156122a1575f5ffd5b6122ad8b828c016121f8565b90955093505060a089013567ffffffffffffffff8111156122cc575f5ffd5b6122d88b828c016121f8565b999c989b5096995094979396929594505050565b5f602082840312156122fc575f5ffd5b5035919050565b7f4e487b71000000000000000000000000000000000000000000000000000000005f52604160045260245ffd5b604051601f82017fffffffffffffffffffffffffffffffffffffffffffffffffffffffffffffffe016810167ffffffffffffffff8111828210171561237757612377612303565b604052919050565b5f67ffffffffffffffff82111561239857612398612303565b5060051b60200190565b5f82601f8301126123b1575f5ffd5b81356123c46123bf8261237f565b612330565b8082825260208201915060208360051b8601019250858311156123e5575f5ffd5b602085015b838110156114315780358352602092830192016123ea565b5f60208284031215612412575f5ffd5b813567ffffffffffffffff811115612428575f5ffd5b612434848285016123a2565b949350505050565b5f8151808452602084019350602083015f5b8281101561246c57815186526020958601959091019060010161244e565b5093949350505050565b602081525f610c08602083018461243c565b5f5f5f5f5f6080868803121561249c575f5ffd5b85356124a7816121c7565b945060208601356124b7816121c7565b935060408601359250606086013567ffffffffffffffff8111156124d9575f5ffd5b6124e5888289016121f8565b969995985093965092949392505050565b5f67ffffffffffffffff82111561250f5761250f612303565b50601f017fffffffffffffffffffffffffffffffffffffffffffffffffffffffffffffffe01660200190565b5f82601f83011261254a575f5ffd5b81356125586123bf826124f6565b81815284602083860101111561256c575f5ffd5b816020850160208301375f918101602001919091529392505050565b5f5f60408385031215612599575f5ffd5b82359150602083013567ffffffffffffffff8111156125b6575f5ffd5b6125c28582860161253b565b9150509250929050565b5f82601f8301126125db575f5ffd5b81356125e96123bf8261237f565b8082825260208201915060208360051b86010192508583111561260a575f5ffd5b602085015b8381101561143157803567ffffffffffffffff81111561262d575f5ffd5b61263c886020838a010161253b565b8452506020928301920161260f565b5f5f5f5f5f5f60c08789031215612660575f5ffd5b612669876121e8565b9550602087013567ffffffffffffffff811115612684575f5ffd5b61269089828a016125cc565b955050604087013567ffffffffffffffff8111156126ac575f5ffd5b6126b889828a016125cc565b945050606087013567ffffffffffffffff8111156126d4575f5ffd5b6126e089828a016125cc565b935050608087013567ffffffffffffffff8111156126fc575f5ffd5b61270889828a016123a2565b92505060a087013567ffffffffffffffff811115612724575f5ffd5b61273089828a0161253b565b9150509295509295509295565b5f5f5f6060848603121561274f575f5ffd5b833567ffffffffffffffff811115612765575f5ffd5b84016101608187031215612777575f5ffd5b95602085013595506040909401359392505050565b5f5f6040838503121561279d575f5ffd5b50508035926020909101359150565b5f602082840312156127bc575f5ffd5b8135610c08816121c7565b5f5f604083850312156127d8575f5ffd5b823567ffffffffffffffff8111156127ee575f5ffd5b6127fa858286016123a2565b925050602083013567ffffffffffffffff811115612816575f5ffd5b6125c2858286016125cc565b5f60208284031215612832575f5ffd5b813567ffffffffffffffff811115612848575f5ffd5b6124348482850161253b565b5f5f83601f840112612864575f5ffd5b50813567ffffffffffffffff81111561287b575f5ffd5b6020830191508360208260051b8501011115612236575f5ffd5b5f5f5f5f5f5f5f5f60a0898b0312156128ac575f5ffd5b88356128b7816121c7565b975060208901356128c7816121c7565b9650604089013567ffffffffffffffff8111156128e2575f5ffd5b6128ee8b828c01612854565b909750955050606089013567ffffffffffffffff81111561290d575f5ffd5b6129198b828c01612854565b909550935050608089013567ffffffffffffffff8111156122cc575f5ffd5b5f5f5f5f5f60a0868803121561294c575f5ffd5b8535612957816121c7565b945060208601359350604086013567ffffffffffffffff811115612979575f5ffd5b6129858882890161253b565b935050606086013560028110612999575f5ffd5b949793965091946080013592915050565b5f81518084528060208401602086015e5f6020828601015260207fffffffffffffffffffffffffffffffffffffffffffffffffffffffffffffffe0601f83011685010191505092915050565b602081525f610c0860208301846129aa565b5f5f5f5f5f5f60a08789031215612a1d575f5ffd5b8635612a28816121c7565b95506020870135612a38816121c7565b94506040870135935060608701359250608087013567ffffffffffffffff811115612a61575f5ffd5b612a6d89828a016121f8565b979a9699509497509295939492505050565b7f4e487b71000000000000000000000000000000000000000000000000000000005f52603260045260245ffd5b828152604060208201525f61243460408301846129aa565b5f60208284031215612ad4575f5ffd5b81517fffffffff0000000000000000000000000000000000000000000000000000000081168114610c08575f5ffd5b5f5f60408385031215612b14575f5ffd5b8251612b1f816121c7565b6020939093015192949293505050565b5f82825180855260208501945060208160051b830101602085015f5b83811015612b9b577fffffffffffffffffffffffffffffffffffffffffffffffffffffffffffffffe0858403018852612b858383516129aa565b6020988901989093509190910190600101612b4b565b50909695505050505050565b73ffffffffffffffffffffffffffffffffffffffff8716815260c060208201525f612bd560c0830188612b2f565b8281036040840152612be78188612b2f565b90508281036060840152612bfb8187612b2f565b90508281036080840152612c0f818661243c565b905082810360a0840152612c2381856129aa565b9998505050505050505050565b5f5f83357fffffffffffffffffffffffffffffffffffffffffffffffffffffffffffffffe1843603018112612c63575f5ffd5b83018035915067ffffffffffffffff821115612c7d575f5ffd5b602001915036819003821315612236575f5ffd5b7f4e487b71000000000000000000000000000000000000000000000000000000005f52601160045260245ffd5b80820180821115610a4657610a46612c91565b606081525f612ce3606083018661243c565b8281036020840152612cf5818661243c565b90508281036040840152612d098185612b2f565b9695505050505050565b5f60208284031215612d23575f5ffd5b815167ffffffffffffffff811115612d39575f5ffd5b8201601f81018413612d49575f5ffd5b8051612d576123bf8261237f565b8082825260208201915060208360051b850101925086831115612d78575f5ffd5b6020840193505b82841015612d095783518015158114612d96575f5ffd5b825260209384019390910190612d7f565b5f7fffffffffffffffffffffffffffffffffffffffffffffffffffffffffffffffff8203612dd757612dd7612c91565b5060010190565b805163ffffffff811681146121f3575f5ffd5b5f5f5f5f5f5f5f60e0888a031215612e07575f5ffd5b87516bffffffffffffffffffffffff81168114612e22575f5ffd5b6020890151909750612e33816121c7565b60408901519096509450612e4960608901612dde565b9350612e5760808901612dde565b9250612e6560a08901612dde565b915060c088015160068110612e78575f5ffd5b8091505092959891949750929550565b7f4e487b71000000000000000000000000000000000000000000000000000000005f52602160045260245ffd5b5f60208284031215612ec5575f5ffd5b8151610c08816121c7565b81810381811115610a4657610a46612c91565b5f81518060208401855e5f93019283525090919050565b5f610c088284612ee3565b5f81612f1357612f13612c91565b507fffffffffffffffffffffffffffffffffffffffffffffffffffffffffffffffff0190565b5f5f60408385031215612f4a575f5ffd5b8251602084015190925067ffffffffffffffff811115612f68575f5ffd5b8301601f81018513612f78575f5ffd5b8051612f866123bf826124f6565b818152866020838501011115612f9a575f5ffd5b8160208401602083015e5f602083830101528093505050509250929050565b7f630000000000000000000000000000000000000000000000000000000000000081527fffffffff000000000000000000000000000000000000000000000000000000008360e01b1660018201527f80600e6000396000f3000000000000000000000000000000000000000000000060058201525f600e8201525f612434600f830184612ee356fea2646970667358221220c951954e5edb40243da3d62e9fb099ba90bc54cfbfe63ff3d468e1083de3d99c64736f6c634300081c0033",
  "linkReferences": {},
  "deployedLinkReferences": {}
}