{
  "_format": "hh-sol-artifact-1",
  "contractName": "MechFactoryFixedPriceNative",
  "sourceName": "contracts/mechs/native/MechFactoryFixedPriceNative.sol",
  "abi": [
    {
      "inputs": [
        {
          "internalType": "address",
          "name": "_mechMarketplace",
          "type": "address"
        }
      ],
      "stateMutability": "nonpayable",
      "type": "constructor"
    },
    {
      "inputs": [
        {
          "internalType": "uint256",
          "name": "provided",
          "type": "uint256"
        },
        {
          "internalType": "uint256",
          "name": "expected",
          "type": "uint256"
        }
      ],
      "name": "IncorrectDataLength",
      "type": "error"
    },
    {
      "inputs": [
        {
          "internalType": "address",
          "name": "sender",
          "type": "address"
        },
        {
          "internalType": "address",
          "name": "marketplace",
          "type": "address"
        }
      ],
      "name": "MarketplaceOnly",
      "type": "error"
    },
    {
      "inputs": [],
      "name": "ZeroAddress",
      "type": "error"
    },
    {
      "anonymous": false,
      "inputs": [
        {
          "indexed": true,
          "internalType": "address",
          "name": "mech",
          "type": "address"
        },
        {
          "indexed": true,
          "internalType": "uint256",
          "name": "serviceId",
          "type": "uint256"
        },
        {
          "indexed": false,
          "internalType": "uint256",
          "name": "maxDeliveryRate",
          "type": "uint256"
        }
      ],
      "name": "CreateFixedPriceMech",
      "type": "event"
    },
    {
      "inputs": [],
      "name": "VERSION",
      "outputs": [
        {
          "internalType": "string",
          "name": "",
          "type": "string"
        }
      ],
      "stateMutability": "view",
      "type": "function"
    },
    {
      "inputs": [
        {
          "internalType": "address",
          "name": "serviceRegistry",
          "type": "address"
        },
        {
          "internalType": "uint256",
          "name": "serviceId",
          "type": "uint256"
        },
        {
          "internalType": "bytes",
          "name": "payload",
          "type": "bytes"
        }
      ],
      "name": "createMech",
      "outputs": [
        {
          "internalType": "address",
          "name": "mech",
          "type": "address"
        }
      ],
      "stateMutability": "nonpayable",
      "type": "function"
    },
    {
      "inputs": [],
      "name": "mechMarketplace",
      "outputs": [
        {
          "internalType": "address",
          "name": "",
          "type": "address"
        }
      ],
      "stateMutability": "view",
      "type": "function"
    }
  ],
  "bytecode": "0x60a060405234801561000f575f5ffd5b506040516136d53803806136d583398101604081905261002e9161003f565b6001600160a01b031660805261006c565b5f6020828403121561004f575f5ffd5b81516001600160a01b0381168114610065575f5ffd5b9392505050565b60805161363d6100985f395f818160850152818161010901528181610171015261024b015261363d5ff3fe608060405234801561000f575f5ffd5b506004361061003f575f3560e01c80630f7fb56d146100435780639c5e959014610080578063ffa1ad74146100a7575b5f5ffd5b6100566100513660046103ab565b6100f0565b60405173ffffffffffffffffffffffffffffffffffffffff90911681526020015b60405180910390f35b6100567f000000000000000000000000000000000000000000000000000000000000000081565b6100e36040518060400160405280600581526020017f302e312e3000000000000000000000000000000000000000000000000000000081525081565b604051610077919061051a565b5f3373ffffffffffffffffffffffffffffffffffffffff7f000000000000000000000000000000000000000000000000000000000000000016146101a3576040517fe56895c000000000000000000000000000000000000000000000000000000000815233600482015273ffffffffffffffffffffffffffffffffffffffff7f00000000000000000000000000000000000000000000000000000000000000001660248201526044015b60405180910390fd5b81516020146101eb5781516040517f34c9027a00000000000000000000000000000000000000000000000000000000815260048101919091526020602482015260440161019a565b5f828060200190518101906102009190610533565b5f80546040519293509161021e90429087908990869060200161054a565b6040516020818303038152906040528051906020012090508160016102439190610575565b5f81905550807f000000000000000000000000000000000000000000000000000000000000000088888660405161027990610371565b73ffffffffffffffffffffffffffffffffffffffff9485168152939092166020840152604083015260608201526080018190604051809103905ff59050801580156102c6573d5f5f3e3d5ffd5b50935073ffffffffffffffffffffffffffffffffffffffff8416610316576040517fd92e233d00000000000000000000000000000000000000000000000000000000815260040160405180910390fd5b858473ffffffffffffffffffffffffffffffffffffffff167f2219efa5be17147c751a6072bd5576ccbfe22099accfbaa7890ad62ab4b9bf408560405161035f91815260200190565b60405180910390a35050509392505050565b613054806105b483390190565b7f4e487b71000000000000000000000000000000000000000000000000000000005f52604160045260245ffd5b5f5f5f606084860312156103bd575f5ffd5b833573ffffffffffffffffffffffffffffffffffffffff811681146103e0575f5ffd5b925060208401359150604084013567ffffffffffffffff811115610402575f5ffd5b8401601f81018613610412575f5ffd5b803567ffffffffffffffff81111561042c5761042c61037e565b6040517fffffffffffffffffffffffffffffffffffffffffffffffffffffffffffffffe0603f7fffffffffffffffffffffffffffffffffffffffffffffffffffffffffffffffe0601f8501160116810181811067ffffffffffffffff821117156104985761049861037e565b6040528181528282016020018810156104af575f5ffd5b816020840160208301375f602083830101528093505050509250925092565b5f81518084528060208401602086015e5f6020828601015260207fffffffffffffffffffffffffffffffffffffffffffffffffffffffffffffffe0601f83011685010191505092915050565b602081525f61052c60208301846104ce565b9392505050565b5f60208284031215610543575f5ffd5b5051919050565b848152608060208201525f61056260808301866104ce565b6040830194909452506060015292915050565b808201808211156105ad577f4e487b71000000000000000000000000000000000000000000000000000000005f52601160045260245ffd5b9291505056fe60c06040525f5f556001600555348015610017575f5ffd5b5060405161305438038061305483398101604081905261003691610435565b838383837fba699a34be8fe0e7725e93dcbce1701b0211a8ca61330aaeb8a05bf2ec7abed16001600160a01b0385166100825760405163d92e233d60e01b815260040160405180910390fd5b6001600160a01b0384166100a95760405163d92e233d60e01b815260040160405180910390fd5b8215806100b4575081155b806100bd575080155b156100db57604051637c946ed760e01b815260040160405180910390fd5b604080516001600160a01b03861660208201529081018490525f9060600160408051601f1981840301815290829052630846d5ff60e31b82526004820186905291505f9081906001600160a01b03881690634236aff89060240160e060405180830381865afa158015610150573d5f5f3e3d5ffd5b505050506040513d601f19601f820116820180604052508101906101749190610488565b9650505050509250505f6001600160a01b0316826001600160a01b0316036101af5760405163d92e233d60e01b815260040160405180910390fd5b60048160058111156101c3576101c3610516565b14610203578060058111156101da576101da610516565b604051633c053f9d60e21b81526004810191909152602481018790526044015b60405180910390fd5b61020c8361022f565b5050506001600160a01b03909416608052600155505060a052506105bd92505050565b610237610261565b51156102555760405162dc149f60e41b815260040160405180910390fd5b61025e816102c9565b50565b60606102c46102bf604051606b60f91b6020820152602560fa1b60218201526001600160601b03193060601b166022820152600160f81b60368201525f90603701604051602081830303815290604052805190602001205f1c905090565b61038d565b905090565b5f6102d3826103e2565b90505f8151602083015ff09050610339604051606b60f91b6020820152602560fa1b60218201526001600160601b03193060601b166022820152600160f81b60368201525f90603701604051602081830303815290604052805190602001205f1c905090565b6001600160a01b0316816001600160a01b0316146103885760405162461bcd60e51b815260206004820152600c60248201526b15dc9a5d194819985a5b195960a21b60448201526064016101fa565b505050565b6060813b600181116103ae57505060408051602081019091525f8152919050565b806103b88161053e565b9150506040519150601f19601f602083010116820160405280825280600160208401853c50919050565b6060815160016103f29190610553565b8260405160200161040492919061056c565b6040516020818303038152906040529050919050565b80516001600160a01b0381168114610430575f5ffd5b919050565b5f5f5f5f60808587031215610448575f5ffd5b6104518561041a565b935061045f6020860161041a565b6040860151606090960151949790965092505050565b805163ffffffff81168114610430575f5ffd5b5f5f5f5f5f5f5f60e0888a03121561049e575f5ffd5b87516001600160601b03811681146104b4575f5ffd5b96506104c26020890161041a565b9550604088015194506104d760608901610475565b93506104e560808901610475565b92506104f360a08901610475565b915060c088015160068110610506575f5ffd5b8091505092959891949750929550565b634e487b7160e01b5f52602160045260245ffd5b634e487b7160e01b5f52601160045260245ffd5b5f8161054c5761054c61052a565b505f190190565b808201808211156105665761056661052a565b92915050565b606360f81b815260e083901b6001600160e01b03191660018201526880600e6000396000f360b81b60058201525f600e820181905282518060208501600f85015e5f9201600f019182525092915050565b60805160a051612a4c6106085f395f6102ed01525f818161044e01528181610bcc01528181610c3401528181610db801528181610f7501528181610fdd01526117210152612a4c5ff3fe6080604052600436106101d1575f3560e01c80639c5e9590116100fd578063d843b7f411610092578063f23a6e6111610062578063f23a6e6114610631578063f6171e4414610676578063fc0c546a14610695578063ffa1ad74146106a9575f5ffd5b8063d843b7f41461058a578063e7d915cf146105cb578063e7f43c68146105ea578063ecf050e3146105fe575f5ffd5b8063b0d691fe116100cd578063b0d691fe146104dc578063bc197c8114610502578063bdf8631714610549578063c7dec3fc1461055e575f5ffd5b80639c5e95901461043d578063a4f9edbf14610495578063a669aaf9146104b4578063affed0e0146104c9575f5ffd5b80633a871cdd116101735780636d99a988116101435780636d99a988146103b357806379412518146103d4578063851ea704146103f3578063982c0db314610412575f5ffd5b80633a871cdd146103245780634ada3e611461034357806358ce0909146103585780636d70f7ae14610384575f5ffd5b80631626ba7e116101ae5780631626ba7e1461029b57806317d70f7c146102ba5780632763b8da146102dc5780632cc0fcb21461030f575f5ffd5b806223de29146101dc578062f20c7114610202578063150b7a0214610221575f5ffd5b366101d857005b5f5ffd5b3480156101e7575f5ffd5b506102006101f636600461205c565b5050505050505050565b005b34801561020d575f5ffd5b5061020061021c36600461210b565b6106f1565b34801561022c575f5ffd5b5061026561023b366004612122565b7f150b7a020000000000000000000000000000000000000000000000000000000095945050505050565b6040517fffffffff0000000000000000000000000000000000000000000000000000000090911681526020015b60405180910390f35b3480156102a6575f5ffd5b506102656102b5366004612266565b61081d565b3480156102c5575f5ffd5b506102ce6109c0565b604051908152602001610292565b3480156102e7575f5ffd5b506102ce7f000000000000000000000000000000000000000000000000000000000000000081565b34801561031a575f5ffd5b506102ce60015481565b34801561032f575f5ffd5b506102ce61033e3660046122aa565b6109dc565b34801561034e575f5ffd5b506102ce60035481565b348015610363575f5ffd5b506103776103723660046122f9565b610a1f565b6040516102929190612319565b34801561038f575f5ffd5b506103a361039e36600461235b565b610b76565b6040519015158152602001610292565b3480156103be575f5ffd5b506102ce6103cd36600461210b565b5060015490565b3480156103df575f5ffd5b506102006103ee366004612376565b610bb4565b3480156103fe575f5ffd5b5061020061040d366004612266565b610c71565b34801561041d575f5ffd5b506102ce61042c36600461235b565b60066020525f908152604090205481565b348015610448575f5ffd5b506104707f000000000000000000000000000000000000000000000000000000000000000081565b60405173ffffffffffffffffffffffffffffffffffffffff9091168152602001610292565b3480156104a0575f5ffd5b506102006104af3660046123cc565b610e27565b3480156104bf575f5ffd5b506102ce60045481565b3480156104d4575f5ffd5b505f546102ce565b3480156104e7575f5ffd5b50730576a174d229e3cfa37253523e645a78a0c91b57610470565b34801561050d575f5ffd5b5061026561051c366004612447565b7fbc197c810000000000000000000000000000000000000000000000000000000098975050505050505050565b348015610554575f5ffd5b506102ce60025481565b348015610569575f5ffd5b5061057d6105783660046124ea565b610e73565b60405161029291906125a8565b348015610595575f5ffd5b506104706105a436600461210b565b60086020525f908152604090205473ffffffffffffffffffffffffffffffffffffffff1681565b3480156105d6575f5ffd5b506102006105e536600461210b565b610f5d565b3480156105f5575f5ffd5b506104706110c3565b348015610609575f5ffd5b506102ce7fba699a34be8fe0e7725e93dcbce1701b0211a8ca61330aaeb8a05bf2ec7abed181565b34801561063c575f5ffd5b5061026561064b3660046125ba565b7ff23a6e61000000000000000000000000000000000000000000000000000000009695505050505050565b348015610681575f5ffd5b506102ce6106903660046122f9565b6111eb565b3480156106a0575f5ffd5b5061047061120d565b3480156106b4575f5ffd5b5061057d6040518060400160405280600581526020017f312e302e3000000000000000000000000000000000000000000000000000000081525081565b6106fa33610b76565b80610718575033730576a174d229e3cfa37253523e645a78a0c91b57145b6107a9576040517f08c379a000000000000000000000000000000000000000000000000000000000815260206004820152603e60248201527f4f6e6c792063616c6c61626c6520627920746865206d656368206f706572617460448201527f6f72206f722074686520656e74727920706f696e7420636f6e7472616374000060648201526084015b60405180910390fd5b805f036107e2576040517f7c946ed700000000000000000000000000000000000000000000000000000000815260040160405180910390fd5b60018190556040518181527fb912b1469d50f9612d4378acbbf5469b04e6da0f6fe174443169d704ad5342589060200160405180910390a150565b5f5f5f5f61083d85602081015160408201516060909201515f1a92909190565b9094509250905060ff81165f03610953578285830160200161085e82610b76565b158015610881575073ffffffffffffffffffffffffffffffffffffffff82163014155b156108b457507fffffffff0000000000000000000000000000000000000000000000000000000094506109ba9350505050565b6040517f1626ba7e00000000000000000000000000000000000000000000000000000000815273ffffffffffffffffffffffffffffffffffffffff831690631626ba7e90610908908b908590600401612631565b602060405180830381865afa158015610923573d5f5f3e3d5ffd5b505050506040513d601f19601f820116820180604052508101906109479190612649565b955050505050506109ba565b61096261039e8783868661122e565b1561099357507f1626ba7e0000000000000000000000000000000000000000000000000000000092506109ba915050565b507fffffffff00000000000000000000000000000000000000000000000000000000925050505b92915050565b5f6109c961124a565b8060200190518101906109ba9190612688565b5f6109e5611319565b6109ef8484611398565b90506109fe60408501856126b4565b90505f03610a0f57610a0f8461146c565b610a18826114ea565b9392505050565b6002546060905f849003610a31578093505b80610a3c8486612742565b1115610a8957610a4c8385612742565b6040517f7ae596850000000000000000000000000000000000000000000000000000000081526004810191909152602481018290526044016107a0565b8315610b6f578367ffffffffffffffff811115610aa857610aa8612190565b604051908082528060200260200182016040528015610ad1578160200160208202803683370190505b505f80805260076020527f6d5257204ebe7d88fd91ae87941cb2dd9d8062b64ae5a2bd2d28ec40b9fbf6e0549193505b84811015610b24575f828152600760205260409020600101549150600101610b01565b505f5b85811015610b6c5781848281518110610b4257610b42612755565b6020908102919091018101919091525f838152600790915260409020600101549150600101610b27565b50505b5092915050565b5f610b7f6110c3565b73ffffffffffffffffffffffffffffffffffffffff168273ffffffffffffffffffffffffffffffffffffffff16149050919050565b3373ffffffffffffffffffffffffffffffffffffffff7f00000000000000000000000000000000000000000000000000000000000000001614610c61576040517fe56895c000000000000000000000000000000000000000000000000000000000815233600482015273ffffffffffffffffffffffffffffffffffffffff7f00000000000000000000000000000000000000000000000000000000000000001660248201526044016107a0565b610c6c83828461155e565b505050565b610c7a33610b76565b80610c98575033730576a174d229e3cfa37253523e645a78a0c91b57145b610d24576040517f08c379a000000000000000000000000000000000000000000000000000000000815260206004820152603e60248201527f4f6e6c792063616c6c61626c6520627920746865206d656368206f706572617460448201527f6f72206f722074686520656e74727920706f696e7420636f6e7472616374000060648201526084016107a0565b60016005541115610d61576040517f8beb9d1600000000000000000000000000000000000000000000000000000000815260040160405180910390fd5b60026005555f610d7183836116c6565b805190915015610e1d576040517f63a0c91c00000000000000000000000000000000000000000000000000000000815273ffffffffffffffffffffffffffffffffffffffff7f000000000000000000000000000000000000000000000000000000000000000016906363a0c91c90610def9086908590600401612631565b5f604051808303815f87803b158015610e06575f5ffd5b505af1158015610e18573d5f5f3e3d5ffd5b505050505b5050600160055550565b610e2f61124a565b5115610e67576040517f0dc149f000000000000000000000000000000000000000000000000000000000815260040160405180910390fd5b610e7081611909565b50565b6060610e7e33610b76565b80610e9c575033730576a174d229e3cfa37253523e645a78a0c91b57145b610f28576040517f08c379a000000000000000000000000000000000000000000000000000000000815260206004820152603e60248201527f4f6e6c792063616c6c61626c6520627920746865206d656368206f706572617460448201527f6f72206f722074686520656e74727920706f696e7420636f6e7472616374000060648201526084016107a0565b5f610f42878787878715610f3c5787611a79565b5a611a79565b9250905080610f5357815160208301fd5b5095945050505050565b3373ffffffffffffffffffffffffffffffffffffffff7f0000000000000000000000000000000000000000000000000000000000000000161461100a576040517fe56895c000000000000000000000000000000000000000000000000000000000815233600482015273ffffffffffffffffffffffffffffffffffffffff7f00000000000000000000000000000000000000000000000000000000000000001660248201526044016107a0565b5f8181526008602052604090205473ffffffffffffffffffffffffffffffffffffffff1680611065576040517fd92e233d00000000000000000000000000000000000000000000000000000000815260040160405180910390fd5b61106f8183611b7c565b8073ffffffffffffffffffffffffffffffffffffffff167fa36a540c5fea3a5e69d4b1c2247b28a93fd183ef1314af26a8db7b3ae080bcd0836040516110b791815260200190565b60405180910390a25050565b5f5f5f6110ce61124a565b8060200190518101906110e19190612688565b915091505f5f8373ffffffffffffffffffffffffffffffffffffffff16634236aff8846040518263ffffffff1660e01b815260040161112291815260200190565b60e060405180830381865afa15801561113d573d5f5f3e3d5ffd5b505050506040513d601f19601f82011682018060405250810190611161919061279a565b9650505050509250506004600581111561117d5761117d612831565b81600581111561118f5761118f612831565b146111e3578060058111156111a6576111a6612831565b6040517ff014fe740000000000000000000000000000000000000000000000000000000081526004810191909152602481018490526044016107a0565b509392505050565b6007602052815f5260405f208160028110611204575f80fd5b01549150829050565b5f61121661124a565b806020019051810190611229919061285e565b905090565b5f5f5f61123d87878787611ccf565b91509150610f5381611db7565b60606112296113146040517fd60000000000000000000000000000000000000000000000000000000000000060208201527f940000000000000000000000000000000000000000000000000000000000000060218201527fffffffffffffffffffffffffffffffffffffffff0000000000000000000000003060601b1660228201527f010000000000000000000000000000000000000000000000000000000000000060368201525f90603701604051602081830303815290604052805190602001205f1c905090565b611f69565b33730576a174d229e3cfa37253523e645a78a0c91b5714611396576040517f08c379a000000000000000000000000000000000000000000000000000000000815260206004820152601c60248201527f6163636f756e743a206e6f742066726f6d20456e747279506f696e740000000060448201526064016107a0565b565b7f19457468657265756d205369676e6564204d6573736167653a0a3332000000005f908152601c829052603c81207f1626ba7e00000000000000000000000000000000000000000000000000000000611432826113f96101408801886126b4565b8080601f0160208091040260200160405190810160405280939291908181526020018383808284375f9201919091525061081d92505050565b7fffffffff0000000000000000000000000000000000000000000000000000000016146114635760019150506109ba565b505f9392505050565b5f80546020830135918061147f83612879565b9190505514610e70576040517f08c379a000000000000000000000000000000000000000000000000000000000815260206004820152600d60248201527f496e76616c6964206e6f6e63650000000000000000000000000000000000000060448201526064016107a0565b8015610e70576040515f9033907fffffffffffffffffffffffffffffffffffffffffffffffffffffffffffffffff90849084818181858888f193505050503d805f8114611552576040519150601f19603f3d011682016040523d82523d5f602084013e611557565b606091505b5050505050565b73ffffffffffffffffffffffffffffffffffffffff83165f90815260066020526040812080549161158e83612879565b90915550505f82815260086020908152604080832080547fffffffffffffffffffffffff00000000000000000000000000000000000000001673ffffffffffffffffffffffffffffffffffffffff881617905560079091528082207f6d5257204ebe7d88fd91ae87941cb2dd9d8062b64ae5a2bd2d28ec40b9fbf6e080546001830181905590869055808452918320859055600280547f6d5257204ebe7d88fd91ae87941cb2dd9d8062b64ae5a2bd2d28ec40b9fbf6df9492939290919061165583612879565b909155505060038054905f61166983612879565b91905055508573ffffffffffffffffffffffffffffffffffffffff167f4bda649efe6b98b0f9c1d5e859c29e20910f45c66dabfe6fad4a4881f7faf9cc86866040516116b6929190612631565b60405180910390a2505050505050565b5f828152600860205260408082205490517fcb261bec0000000000000000000000000000000000000000000000000000000081526004810185905260609273ffffffffffffffffffffffffffffffffffffffff9283169290917f00000000000000000000000000000000000000000000000000000000000000009091169063cb261bec9060240160a0604051808303815f875af1158015611769573d5f5f3e3d5ffd5b505050506040513d601f19601f8201168201806040525081019061178d91906128b0565b602081015190915073ffffffffffffffffffffffffffffffffffffffff16156117c85760405180602001604052805f815250925050506109ba565b73ffffffffffffffffffffffffffffffffffffffff821661183f576040810151915073ffffffffffffffffffffffffffffffffffffffff821661183a576040517ffe239804000000000000000000000000000000000000000000000000000000008152600481018690526024016107a0565b611849565b6118498286611b7c565b8060800151600154111561189a5760015460808201516040517f7ae59685000000000000000000000000000000000000000000000000000000008152600481019290925260248201526044016107a0565b83600480549194505f6118ac83612879565b91905055503373ffffffffffffffffffffffffffffffffffffffff167f0cd979445339c62199996f208428d987b1cea24d18e62b79ec24d94b636e8b7086856040516118f9929190612631565b60405180910390a2505092915050565b5f61191382611fbe565b90505f8151602083015ff090506119e56040517fd60000000000000000000000000000000000000000000000000000000000000060208201527f940000000000000000000000000000000000000000000000000000000000000060218201527fffffffffffffffffffffffffffffffffffffffff0000000000000000000000003060601b1660228201527f010000000000000000000000000000000000000000000000000000000000000060368201525f90603701604051602081830303815290604052805190602001205f1c905090565b73ffffffffffffffffffffffffffffffffffffffff168173ffffffffffffffffffffffffffffffffffffffff1614610c6c576040517f08c379a000000000000000000000000000000000000000000000000000000000815260206004820152600c60248201527f5772697465206661696c6564000000000000000000000000000000000000000060448201526064016107a0565b5f60606001846001811115611a9057611a90612831565b03611b04578673ffffffffffffffffffffffffffffffffffffffff168386604051611abb919061294f565b5f604051808303818686f4925050503d805f8114611af4576040519150601f19603f3d011682016040523d82523d5f602084013e611af9565b606091505b509092509050611b72565b8673ffffffffffffffffffffffffffffffffffffffff16838787604051611b2b919061294f565b5f60405180830381858888f193505050503d805f8114611b66576040519150601f19603f3d011682016040523d82523d5f602084013e611b6b565b606091505b5090925090505b9550959350505050565b73ffffffffffffffffffffffffffffffffffffffff82165f908152600660205260408120805491611bac8361295a565b909155505060028054905f611bc08361295a565b90915550505f818152600760205260408082208151808301928390529160029082845b815481526020019060010190808311611be35750505050509050805f60028110611c0f57611c0f612755565b6020020151158015611c2357506020810151155b8015611c5857505f805260076020527f6d5257204ebe7d88fd91ae87941cb2dd9d8062b64ae5a2bd2d28ec40b9fbf6df548214155b15611c92576040517ffe239804000000000000000000000000000000000000000000000000000000008152600481018390526024016107a0565b6020818101805183515f90815260079093526040808420600190810192909255935191518352838320919091559281529081208181559091015550565b5f807f7fffffffffffffffffffffffffffffff5d576e7357a4501ddfe92f46681b20a0831115611d0457505f90506003611dae565b604080515f8082526020820180845289905260ff881692820192909252606081018690526080810185905260019060a0016020604051602081039080840390855afa158015611d55573d5f5f3e3d5ffd5b50506040517fffffffffffffffffffffffffffffffffffffffffffffffffffffffffffffffe0015191505073ffffffffffffffffffffffffffffffffffffffff8116611da8575f60019250925050611dae565b91505f90505b94509492505050565b5f816004811115611dca57611dca612831565b03611dd25750565b6001816004811115611de657611de6612831565b03611e4d576040517f08c379a000000000000000000000000000000000000000000000000000000000815260206004820152601860248201527f45434453413a20696e76616c6964207369676e6174757265000000000000000060448201526064016107a0565b6002816004811115611e6157611e61612831565b03611ec8576040517f08c379a000000000000000000000000000000000000000000000000000000000815260206004820152601f60248201527f45434453413a20696e76616c6964207369676e6174757265206c656e6774680060448201526064016107a0565b6003816004811115611edc57611edc612831565b03610e70576040517f08c379a000000000000000000000000000000000000000000000000000000000815260206004820152602260248201527f45434453413a20696e76616c6964207369676e6174757265202773272076616c60448201527f756500000000000000000000000000000000000000000000000000000000000060648201526084016107a0565b6060813b60018111611f8a57505060408051602081019091525f8152919050565b80611f948161295a565b9150506040519150601f19601f602083010116820160405280825280600160208401853c50919050565b606081516001611fce9190612742565b82604051602001611fe092919061298e565b6040516020818303038152906040529050919050565b73ffffffffffffffffffffffffffffffffffffffff81168114610e70575f5ffd5b5f5f83601f840112612027575f5ffd5b50813567ffffffffffffffff81111561203e575f5ffd5b602083019150836020828501011115612055575f5ffd5b9250929050565b5f5f5f5f5f5f5f5f60c0898b031215612073575f5ffd5b883561207e81611ff6565b9750602089013561208e81611ff6565b9650604089013561209e81611ff6565b955060608901359450608089013567ffffffffffffffff8111156120c0575f5ffd5b6120cc8b828c01612017565b90955093505060a089013567ffffffffffffffff8111156120eb575f5ffd5b6120f78b828c01612017565b999c989b5096995094979396929594505050565b5f6020828403121561211b575f5ffd5b5035919050565b5f5f5f5f5f60808688031215612136575f5ffd5b853561214181611ff6565b9450602086013561215181611ff6565b935060408601359250606086013567ffffffffffffffff811115612173575f5ffd5b61217f88828901612017565b969995985093965092949392505050565b7f4e487b71000000000000000000000000000000000000000000000000000000005f52604160045260245ffd5b5f82601f8301126121cc575f5ffd5b813567ffffffffffffffff8111156121e6576121e6612190565b604051601f82017fffffffffffffffffffffffffffffffffffffffffffffffffffffffffffffffe0908116603f0116810167ffffffffffffffff8111828210171561223357612233612190565b60405281815283820160200185101561224a575f5ffd5b816020850160208301375f918101602001919091529392505050565b5f5f60408385031215612277575f5ffd5b82359150602083013567ffffffffffffffff811115612294575f5ffd5b6122a0858286016121bd565b9150509250929050565b5f5f5f606084860312156122bc575f5ffd5b833567ffffffffffffffff8111156122d2575f5ffd5b840161016081870312156122e4575f5ffd5b95602085013595506040909401359392505050565b5f5f6040838503121561230a575f5ffd5b50508035926020909101359150565b602080825282518282018190525f918401906040840190835b81811015612350578351835260209384019390920191600101612332565b509095945050505050565b5f6020828403121561236b575f5ffd5b8135610a1881611ff6565b5f5f5f60608486031215612388575f5ffd5b833561239381611ff6565b9250602084013567ffffffffffffffff8111156123ae575f5ffd5b6123ba868287016121bd565b93969395505050506040919091013590565b5f602082840312156123dc575f5ffd5b813567ffffffffffffffff8111156123f2575f5ffd5b6123fe848285016121bd565b949350505050565b5f5f83601f840112612416575f5ffd5b50813567ffffffffffffffff81111561242d575f5ffd5b6020830191508360208260051b8501011115612055575f5ffd5b5f5f5f5f5f5f5f5f60a0898b03121561245e575f5ffd5b883561246981611ff6565b9750602089013561247981611ff6565b9650604089013567ffffffffffffffff811115612494575f5ffd5b6124a08b828c01612406565b909750955050606089013567ffffffffffffffff8111156124bf575f5ffd5b6124cb8b828c01612406565b909550935050608089013567ffffffffffffffff8111156120eb575f5ffd5b5f5f5f5f5f60a086880312156124fe575f5ffd5b853561250981611ff6565b945060208601359350604086013567ffffffffffffffff81111561252b575f5ffd5b612537888289016121bd565b93505060608601356002811061254b575f5ffd5b949793965091946080013592915050565b5f81518084528060208401602086015e5f6020828601015260207fffffffffffffffffffffffffffffffffffffffffffffffffffffffffffffffe0601f83011685010191505092915050565b602081525f610a18602083018461255c565b5f5f5f5f5f5f60a087890312156125cf575f5ffd5b86356125da81611ff6565b955060208701356125ea81611ff6565b94506040870135935060608701359250608087013567ffffffffffffffff811115612613575f5ffd5b61261f89828a01612017565b979a9699509497509295939492505050565b828152604060208201525f6123fe604083018461255c565b5f60208284031215612659575f5ffd5b81517fffffffff0000000000000000000000000000000000000000000000000000000081168114610a18575f5ffd5b5f5f60408385031215612699575f5ffd5b82516126a481611ff6565b6020939093015192949293505050565b5f5f83357fffffffffffffffffffffffffffffffffffffffffffffffffffffffffffffffe18436030181126126e7575f5ffd5b83018035915067ffffffffffffffff821115612701575f5ffd5b602001915036819003821315612055575f5ffd5b7f4e487b71000000000000000000000000000000000000000000000000000000005f52601160045260245ffd5b808201808211156109ba576109ba612715565b7f4e487b71000000000000000000000000000000000000000000000000000000005f52603260045260245ffd5b805163ffffffff81168114612795575f5ffd5b919050565b5f5f5f5f5f5f5f60e0888a0312156127b0575f5ffd5b87516bffffffffffffffffffffffff811681146127cb575f5ffd5b60208901519097506127dc81611ff6565b604089015190965094506127f260608901612782565b935061280060808901612782565b925061280e60a08901612782565b915060c088015160068110612821575f5ffd5b8091505092959891949750929550565b7f4e487b71000000000000000000000000000000000000000000000000000000005f52602160045260245ffd5b5f6020828403121561286e575f5ffd5b8151610a1881611ff6565b5f7fffffffffffffffffffffffffffffffffffffffffffffffffffffffffffffffff82036128a9576128a9612715565b5060010190565b5f60a08284031280156128c1575f5ffd5b5060405160a0810167ffffffffffffffff811182821017156128e5576128e5612190565b60405282516128f381611ff6565b8152602083015161290381611ff6565b6020820152604083015161291681611ff6565b6040820152606083810151908201526080928301519281019290925250919050565b5f81518060208401855e5f93019283525090919050565b5f610a188284612938565b5f8161296857612968612715565b507fffffffffffffffffffffffffffffffffffffffffffffffffffffffffffffffff0190565b7f630000000000000000000000000000000000000000000000000000000000000081527fffffffff000000000000000000000000000000000000000000000000000000008360e01b1660018201527f80600e6000396000f3000000000000000000000000000000000000000000000060058201525f600e8201525f6123fe600f83018461293856fea2646970667358221220ab9fb2179bdf8f2abfd9383e39c9a1ef241f4bb0373529243da08da804d9f40364736f6c634300081c0033a26469706673582212205cfbc12bc89e20c1b403bc7af165abb615568ac1255a74430c7c4926d089d70a64736f6c634300081c0033",
  "linkReferences": {},
  "deployedLinkReferences": {}
}