{
  "_format": "hh-sol-artifact-1",
  "contractName": "MechMarketplace",
  "sourceName": "contracts/MechMarketplace.sol",
  "abi": [
    {
      "inputs": [
        {
          "internalType": "address",
          "name": "_serviceRegistry",
          "type": "address"
        },
        {
          "internalType": "address",
          "name": "_karma",
          "type": "address"
        }
      ],
      "stateMutability": "nonpayable",
      "type": "constructor"
    },
    {
      "inputs": [
        {
          "internalType": "uint256",
          "name": "requestId",
          "type": "uint256"
        }
      ],
      "name": "AlreadyDelivered",
      "type": "error"
    },
    {
      "inputs": [],
      "name": "AlreadyInitialized",
      "type": "error"
    },
    {
      "inputs": [
        {
          "internalType": "uint256",
          "name": "current",
          "type": "uint256"
        },
        {
          "internalType": "uint256",
          "name": "required",
          "type": "uint256"
        }
      ],
      "name": "InsufficientBalance",
      "type": "error"
    },
    {
      "inputs": [
        {
          "internalType": "uint256",
          "name": "amount",
          "type": "uint256"
        }
      ],
      "name": "NoDepositAllowed",
      "type": "error"
    },
    {
      "inputs": [
        {
          "internalType": "uint256",
          "name": "provided",
          "type": "uint256"
        },
        {
          "internalType": "uint256",
          "name": "min",
          "type": "uint256"
        },
        {
          "internalType": "uint256",
          "name": "max",
          "type": "uint256"
        }
      ],
      "name": "OutOfBounds",
      "type": "error"
    },
    {
      "inputs": [
        {
          "internalType": "uint256",
          "name": "provided",
          "type": "uint256"
        },
        {
          "internalType": "uint256",
          "name": "max",
          "type": "uint256"
        }
      ],
      "name": "Overflow",
      "type": "error"
    },
    {
      "inputs": [
        {
          "internalType": "address",
          "name": "sender",
          "type": "address"
        },
        {
          "internalType": "address",
          "name": "owner",
          "type": "address"
        }
      ],
      "name": "OwnerOnly",
      "type": "error"
    },
    {
      "inputs": [
        {
          "internalType": "uint256",
          "name": "expected",
          "type": "uint256"
        },
        {
          "internalType": "uint256",
          "name": "current",
          "type": "uint256"
        }
      ],
      "name": "PriorityMechResponseTimeout",
      "type": "error"
    },
    {
      "inputs": [],
      "name": "ReentrancyGuard",
      "type": "error"
    },
    {
      "inputs": [
        {
          "internalType": "uint256",
          "name": "requestId",
          "type": "uint256"
        }
      ],
      "name": "RequestIdNotFound",
      "type": "error"
    },
    {
      "inputs": [
        {
          "internalType": "address",
          "name": "stakingInstance",
          "type": "address"
        },
        {
          "internalType": "uint256",
          "name": "serviceId",
          "type": "uint256"
        }
      ],
      "name": "ServiceNotStaked",
      "type": "error"
    },
    {
      "inputs": [
        {
          "internalType": "address",
          "name": "token",
          "type": "address"
        },
        {
          "internalType": "address",
          "name": "from",
          "type": "address"
        },
        {
          "internalType": "address",
          "name": "to",
          "type": "address"
        },
        {
          "internalType": "uint256",
          "name": "amount",
          "type": "uint256"
        }
      ],
      "name": "TransferFailed",
      "type": "error"
    },
    {
      "inputs": [
        {
          "internalType": "address",
          "name": "account",
          "type": "address"
        }
      ],
      "name": "UnauthorizedAccount",
      "type": "error"
    },
    {
      "inputs": [
        {
          "internalType": "uint256",
          "name": "numValues1",
          "type": "uint256"
        },
        {
          "internalType": "uint256",
          "name": "numValues2",
          "type": "uint256"
        }
      ],
      "name": "WrongArrayLength",
      "type": "error"
    },
    {
      "inputs": [
        {
          "internalType": "uint256",
          "name": "state",
          "type": "uint256"
        },
        {
          "internalType": "uint256",
          "name": "serviceId",
          "type": "uint256"
        }
      ],
      "name": "WrongServiceState",
      "type": "error"
    },
    {
      "inputs": [],
      "name": "ZeroAddress",
      "type": "error"
    },
    {
      "inputs": [],
      "name": "ZeroValue",
      "type": "error"
    },
    {
      "anonymous": false,
      "inputs": [
        {
          "indexed": true,
          "internalType": "address",
          "name": "mech",
          "type": "address"
        },
        {
          "indexed": true,
          "internalType": "uint256",
          "name": "serviceId",
          "type": "uint256"
        }
      ],
      "name": "CreateMech",
      "type": "event"
    },
    {
      "anonymous": false,
      "inputs": [
        {
          "indexed": true,
          "internalType": "address",
          "name": "implementation",
          "type": "address"
        }
      ],
      "name": "ImplementationUpdated",
      "type": "event"
    },
    {
      "anonymous": false,
      "inputs": [
        {
          "indexed": true,
          "internalType": "address",
          "name": "priorityMech",
          "type": "address"
        },
        {
          "indexed": true,
          "internalType": "address",
          "name": "actualMech",
          "type": "address"
        },
        {
          "indexed": true,
          "internalType": "address",
          "name": "requester",
          "type": "address"
        },
        {
          "indexed": false,
          "internalType": "uint256",
          "name": "requestId",
          "type": "uint256"
        },
        {
          "indexed": false,
          "internalType": "bytes",
          "name": "data",
          "type": "bytes"
        }
      ],
      "name": "MarketplaceDeliver",
      "type": "event"
    },
    {
      "anonymous": false,
      "inputs": [
        {
          "indexed": false,
          "internalType": "uint256",
          "name": "fee",
          "type": "uint256"
        },
        {
          "indexed": false,
          "internalType": "uint256",
          "name": "minResponseTimeout",
          "type": "uint256"
        },
        {
          "indexed": false,
          "internalType": "uint256",
          "name": "maxResponseTimeout",
          "type": "uint256"
        }
      ],
      "name": "MarketplaceParamsUpdated",
      "type": "event"
    },
    {
      "anonymous": false,
      "inputs": [
        {
          "indexed": true,
          "internalType": "address",
          "name": "requester",
          "type": "address"
        },
        {
          "indexed": true,
          "internalType": "address",
          "name": "requestedMech",
          "type": "address"
        },
        {
          "indexed": false,
          "internalType": "uint256",
          "name": "requestId",
          "type": "uint256"
        },
        {
          "indexed": false,
          "internalType": "bytes",
          "name": "data",
          "type": "bytes"
        }
      ],
      "name": "MarketplaceRequest",
      "type": "event"
    },
    {
      "anonymous": false,
      "inputs": [
        {
          "indexed": true,
          "internalType": "address",
          "name": "owner",
          "type": "address"
        }
      ],
      "name": "OwnerUpdated",
      "type": "event"
    },
    {
      "anonymous": false,
      "inputs": [
        {
          "indexed": false,
          "internalType": "address[]",
          "name": "mechFactories",
          "type": "address[]"
        },
        {
          "indexed": false,
          "internalType": "bool[]",
          "name": "statuses",
          "type": "bool[]"
        }
      ],
      "name": "SetMechFactoryStatuses",
      "type": "event"
    },
    {
      "anonymous": false,
      "inputs": [
        {
          "indexed": false,
          "internalType": "bytes32[]",
          "name": "paymentTypes",
          "type": "bytes32[]"
        },
        {
          "indexed": false,
          "internalType": "address[]",
          "name": "balanceTrackers",
          "type": "address[]"
        }
      ],
      "name": "SetPaymentTypeBalanceTrackers",
      "type": "event"
    },
    {
      "inputs": [],
      "name": "DOMAIN_SEPARATOR_TYPE_HASH",
      "outputs": [
        {
          "internalType": "bytes32",
          "name": "",
          "type": "bytes32"
        }
      ],
      "stateMutability": "view",
      "type": "function"
    },
    {
      "inputs": [],
      "name": "MAX_FEE_FACTOR",
      "outputs": [
        {
          "internalType": "uint256",
          "name": "",
          "type": "uint256"
        }
      ],
      "stateMutability": "view",
      "type": "function"
    },
    {
      "inputs": [],
      "name": "MECH_MARKETPLACE_PROXY",
      "outputs": [
        {
          "internalType": "bytes32",
          "name": "",
          "type": "bytes32"
        }
      ],
      "stateMutability": "view",
      "type": "function"
    },
    {
      "inputs": [],
      "name": "VERSION",
      "outputs": [
        {
          "internalType": "string",
          "name": "",
          "type": "string"
        }
      ],
      "stateMutability": "view",
      "type": "function"
    },
    {
      "inputs": [],
      "name": "chainId",
      "outputs": [
        {
          "internalType": "uint256",
          "name": "",
          "type": "uint256"
        }
      ],
      "stateMutability": "view",
      "type": "function"
    },
    {
      "inputs": [
        {
          "internalType": "address",
          "name": "newImplementation",
          "type": "address"
        }
      ],
      "name": "changeImplementation",
      "outputs": [],
      "stateMutability": "nonpayable",
      "type": "function"
    },
    {
      "inputs": [
        {
          "internalType": "uint256",
          "name": "newFee",
          "type": "uint256"
        },
        {
          "internalType": "uint256",
          "name": "newMinResponseTimeout",
          "type": "uint256"
        },
        {
          "internalType": "uint256",
          "name": "newMaxResponseTimeout",
          "type": "uint256"
        }
      ],
      "name": "changeMarketplaceParams",
      "outputs": [],
      "stateMutability": "nonpayable",
      "type": "function"
    },
    {
      "inputs": [
        {
          "internalType": "address",
          "name": "newOwner",
          "type": "address"
        }
      ],
      "name": "changeOwner",
      "outputs": [],
      "stateMutability": "nonpayable",
      "type": "function"
    },
    {
      "inputs": [
        {
          "internalType": "address",
          "name": "mech",
          "type": "address"
        }
      ],
      "name": "checkMech",
      "outputs": [
        {
          "internalType": "address",
          "name": "multisig",
          "type": "address"
        }
      ],
      "stateMutability": "view",
      "type": "function"
    },
    {
      "inputs": [
        {
          "internalType": "address",
          "name": "requester",
          "type": "address"
        },
        {
          "internalType": "uint256",
          "name": "requesterServiceId",
          "type": "uint256"
        }
      ],
      "name": "checkRequester",
      "outputs": [],
      "stateMutability": "view",
      "type": "function"
    },
    {
      "inputs": [
        {
          "internalType": "uint256",
          "name": "serviceId",
          "type": "uint256"
        },
        {
          "internalType": "address",
          "name": "mechFactory",
          "type": "address"
        },
        {
          "internalType": "bytes",
          "name": "payload",
          "type": "bytes"
        }
      ],
      "name": "create",
      "outputs": [
        {
          "internalType": "address",
          "name": "mech",
          "type": "address"
        }
      ],
      "stateMutability": "nonpayable",
      "type": "function"
    },
    {
      "inputs": [
        {
          "internalType": "uint256",
          "name": "requestId",
          "type": "uint256"
        },
        {
          "internalType": "bytes",
          "name": "requestData",
          "type": "bytes"
        }
      ],
      "name": "deliverMarketplace",
      "outputs": [],
      "stateMutability": "nonpayable",
      "type": "function"
    },
    {
      "inputs": [],
      "name": "domainSeparator",
      "outputs": [
        {
          "internalType": "bytes32",
          "name": "",
          "type": "bytes32"
        }
      ],
      "stateMutability": "view",
      "type": "function"
    },
    {
      "inputs": [],
      "name": "fee",
      "outputs": [
        {
          "internalType": "uint256",
          "name": "",
          "type": "uint256"
        }
      ],
      "stateMutability": "view",
      "type": "function"
    },
    {
      "inputs": [],
      "name": "getDomainSeparator",
      "outputs": [
        {
          "internalType": "bytes32",
          "name": "",
          "type": "bytes32"
        }
      ],
      "stateMutability": "view",
      "type": "function"
    },
    {
      "inputs": [
        {
          "internalType": "address",
          "name": "account",
          "type": "address"
        },
        {
          "internalType": "bytes",
          "name": "data",
          "type": "bytes"
        },
        {
          "internalType": "uint256",
          "name": "nonce",
          "type": "uint256"
        }
      ],
      "name": "getRequestId",
      "outputs": [
        {
          "internalType": "uint256",
          "name": "requestId",
          "type": "uint256"
        }
      ],
      "stateMutability": "view",
      "type": "function"
    },
    {
      "inputs": [
        {
          "internalType": "uint256",
          "name": "requestId",
          "type": "uint256"
        }
      ],
      "name": "getRequestStatus",
      "outputs": [
        {
          "internalType": "enum MechMarketplace.RequestStatus",
          "name": "status",
          "type": "uint8"
        }
      ],
      "stateMutability": "view",
      "type": "function"
    },
    {
      "inputs": [
        {
          "internalType": "uint256",
          "name": "_fee",
          "type": "uint256"
        },
        {
          "internalType": "uint256",
          "name": "_minResponseTimeout",
          "type": "uint256"
        },
        {
          "internalType": "uint256",
          "name": "_maxResponseTimeout",
          "type": "uint256"
        }
      ],
      "name": "initialize",
      "outputs": [],
      "stateMutability": "nonpayable",
      "type": "function"
    },
    {
      "inputs": [],
      "name": "karma",
      "outputs": [
        {
          "internalType": "address",
          "name": "",
          "type": "address"
        }
      ],
      "stateMutability": "view",
      "type": "function"
    },
    {
      "inputs": [
        {
          "internalType": "address",
          "name": "",
          "type": "address"
        }
      ],
      "name": "mapAgentMechFactories",
      "outputs": [
        {
          "internalType": "address",
          "name": "",
          "type": "address"
        }
      ],
      "stateMutability": "view",
      "type": "function"
    },
    {
      "inputs": [
        {
          "internalType": "address",
          "name": "",
          "type": "address"
        }
      ],
      "name": "mapDeliveryCounts",
      "outputs": [
        {
          "internalType": "uint256",
          "name": "",
          "type": "uint256"
        }
      ],
      "stateMutability": "view",
      "type": "function"
    },
    {
      "inputs": [
        {
          "internalType": "address",
          "name": "",
          "type": "address"
        }
      ],
      "name": "mapMechDeliveryCounts",
      "outputs": [
        {
          "internalType": "uint256",
          "name": "",
          "type": "uint256"
        }
      ],
      "stateMutability": "view",
      "type": "function"
    },
    {
      "inputs": [
        {
          "internalType": "address",
          "name": "",
          "type": "address"
        }
      ],
      "name": "mapMechFactories",
      "outputs": [
        {
          "internalType": "bool",
          "name": "",
          "type": "bool"
        }
      ],
      "stateMutability": "view",
      "type": "function"
    },
    {
      "inputs": [
        {
          "internalType": "address",
          "name": "",
          "type": "address"
        }
      ],
      "name": "mapMechServiceDeliveryCounts",
      "outputs": [
        {
          "internalType": "uint256",
          "name": "",
          "type": "uint256"
        }
      ],
      "stateMutability": "view",
      "type": "function"
    },
    {
      "inputs": [
        {
          "internalType": "address",
          "name": "",
          "type": "address"
        }
      ],
      "name": "mapNonces",
      "outputs": [
        {
          "internalType": "uint256",
          "name": "",
          "type": "uint256"
        }
      ],
      "stateMutability": "view",
      "type": "function"
    },
    {
      "inputs": [
        {
          "internalType": "bytes32",
          "name": "",
          "type": "bytes32"
        }
      ],
      "name": "mapPaymentTypeBalanceTrackers",
      "outputs": [
        {
          "internalType": "address",
          "name": "",
          "type": "address"
        }
      ],
      "stateMutability": "view",
      "type": "function"
    },
    {
      "inputs": [
        {
          "internalType": "address",
          "name": "",
          "type": "address"
        }
      ],
      "name": "mapRequestCounts",
      "outputs": [
        {
          "internalType": "uint256",
          "name": "",
          "type": "uint256"
        }
      ],
      "stateMutability": "view",
      "type": "function"
    },
    {
      "inputs": [
        {
          "internalType": "uint256",
          "name": "",
          "type": "uint256"
        }
      ],
      "name": "mapRequestIdDeliveries",
      "outputs": [
        {
          "internalType": "address",
          "name": "priorityMech",
          "type": "address"
        },
        {
          "internalType": "address",
          "name": "deliveryMech",
          "type": "address"
        },
        {
          "internalType": "address",
          "name": "requester",
          "type": "address"
        },
        {
          "internalType": "uint256",
          "name": "responseTimeout",
          "type": "uint256"
        },
        {
          "internalType": "uint256",
          "name": "deliveryRate",
          "type": "uint256"
        }
      ],
      "stateMutability": "view",
      "type": "function"
    },
    {
      "inputs": [
        {
          "internalType": "uint256",
          "name": "",
          "type": "uint256"
        }
      ],
      "name": "mapServiceIdMech",
      "outputs": [
        {
          "internalType": "address",
          "name": "",
          "type": "address"
        }
      ],
      "stateMutability": "view",
      "type": "function"
    },
    {
      "inputs": [],
      "name": "maxResponseTimeout",
      "outputs": [
        {
          "internalType": "uint256",
          "name": "",
          "type": "uint256"
        }
      ],
      "stateMutability": "view",
      "type": "function"
    },
    {
      "inputs": [],
      "name": "minResponseTimeout",
      "outputs": [
        {
          "internalType": "uint256",
          "name": "",
          "type": "uint256"
        }
      ],
      "stateMutability": "view",
      "type": "function"
    },
    {
      "inputs": [],
      "name": "numMechs",
      "outputs": [
        {
          "internalType": "uint256",
          "name": "",
          "type": "uint256"
        }
      ],
      "stateMutability": "view",
      "type": "function"
    },
    {
      "inputs": [],
      "name": "numTotalRequests",
      "outputs": [
        {
          "internalType": "uint256",
          "name": "",
          "type": "uint256"
        }
      ],
      "stateMutability": "view",
      "type": "function"
    },
    {
      "inputs": [],
      "name": "numUndeliveredRequests",
      "outputs": [
        {
          "internalType": "uint256",
          "name": "",
          "type": "uint256"
        }
      ],
      "stateMutability": "view",
      "type": "function"
    },
    {
      "inputs": [],
      "name": "owner",
      "outputs": [
        {
          "internalType": "address",
          "name": "",
          "type": "address"
        }
      ],
      "stateMutability": "view",
      "type": "function"
    },
    {
      "inputs": [
        {
          "internalType": "bytes",
          "name": "data",
          "type": "bytes"
        },
        {
          "internalType": "uint256",
          "name": "priorityMechServiceId",
          "type": "uint256"
        },
        {
          "internalType": "uint256",
          "name": "requesterServiceId",
          "type": "uint256"
        },
        {
          "internalType": "uint256",
          "name": "responseTimeout",
          "type": "uint256"
        },
        {
          "internalType": "bytes",
          "name": "paymentData",
          "type": "bytes"
        }
      ],
      "name": "request",
      "outputs": [
        {
          "internalType": "uint256",
          "name": "requestId",
          "type": "uint256"
        }
      ],
      "stateMutability": "payable",
      "type": "function"
    },
    {
      "inputs": [],
      "name": "serviceRegistry",
      "outputs": [
        {
          "internalType": "address",
          "name": "",
          "type": "address"
        }
      ],
      "stateMutability": "view",
      "type": "function"
    },
    {
      "inputs": [
        {
          "internalType": "address[]",
          "name": "mechFactories",
          "type": "address[]"
        },
        {
          "internalType": "bool[]",
          "name": "statuses",
          "type": "bool[]"
        }
      ],
      "name": "setMechFactoryStatuses",
      "outputs": [],
      "stateMutability": "nonpayable",
      "type": "function"
    },
    {
      "inputs": [
        {
          "internalType": "bytes32[]",
          "name": "paymentTypes",
          "type": "bytes32[]"
        },
        {
          "internalType": "address[]",
          "name": "balanceTrackers",
          "type": "address[]"
        }
      ],
      "name": "setPaymentTypeBalanceTrackers",
      "outputs": [],
      "stateMutability": "nonpayable",
      "type": "function"
    }
  ],
  "bytecode": "0x6101006040526001600655348015610015575f5ffd5b506040516132b23803806132b28339810160408190526100349161017c565b6001600160a01b038216158061005157506001600160a01b038116155b1561006f5760405163d92e233d60e01b815260040160405180910390fd5b6001600160a01b0380831660e052811660c0524660a05261008e610099565b608052506101e29050565b5f7f8b73c3c69bb8fe3d512ecc4cf759cc79239f7b179b0ffacaa9a75d522b39400f7ff376b6313a0837eb351511248cfe7dcc1cd26c49b8e0a47e1eb369dd62c425db604051806040016040528060058152602001640312e312e360dc1b81525060405160200161010a91906101ad565b60408051601f1981840301815282825280516020918201209083019490945281019190915260608101919091524660808201523060a082015260c00160405160208183030381529060405280519060200120905090565b80516001600160a01b0381168114610177575f5ffd5b919050565b5f5f6040838503121561018d575f5ffd5b61019683610161565b91506101a460208401610161565b90509250929050565b602081525f82518060208401528060208501604085015e5f604082850101526040601f19601f83011684010191505092915050565b60805160a05160c05160e05161306c6102465f395f818161076401528181610ee701526110b501525f81816105610152818161174501528181611a7a0152611c9401525f81816105df015261240201525f81816108c50152612437015261306c5ff3fe608060405260043610610290575f3560e01c80638da5cb5b11610165578063d64bf8b0116100c6578063e8eca22d1161007c578063f5dcb7bb11610062578063f5dcb7bb14610881578063f698da25146108b4578063ffa1ad74146108e7575f5ffd5b8063e8eca22d1461083a578063ed24911d1461086d575f5ffd5b8063ddca3f43116100ac578063ddca3f43146107fc578063ded8128614610810578063e0cb19e814610825575f5ffd5b8063d64bf8b0146107b1578063d8a4676f146107d0575f5ffd5b8063bdf863171161011b578063cb261bec11610101578063cb261bec146106aa578063cbcf252a14610753578063cbd6407a14610786575f5ffd5b8063bdf8631714610654578063c69f6f9f14610669575f5ffd5b80639ec4a5bf1161014b5780639ec4a5bf14610601578063a6f9dae114610620578063af4937fc1461063f575f5ffd5b80638da5cb5b146105a25780639a8a0592146105ce575f5ffd5b806343be96431161020f57806357c0762d116101c557806363a0c91c116101ab57806363a0c91c1461053157806374a8569b1461055057806380d8591114610583575f5ffd5b806357c0762d146104ff5780635d24cd291461051e575f5ffd5b80634ada3e61116101f55780634ada3e611461048a5780634eb07dd31461049f57806355e1bfbb146104e0575f5ffd5b806343be96431461044057806346fbcbb21461046b575f5ffd5b8063176b8b01116102645780631bbbeeb81161024a5780631bbbeeb8146103905780632394290e146103bb5780632685937b14610421575f5ffd5b8063176b8b011461034657806317a68dd814610371575f5ffd5b8062427c5414610294578063087f08d4146102d25780630f41196a146102f35780631399991414610308575b5f5ffd5b34801561029f575f5ffd5b506102bf6102ae3660046126a9565b60096020525f908152604090205481565b6040519081526020015b60405180910390f35b3480156102dd575f5ffd5b506102f16102ec3660046127d6565b61093c565b005b3480156102fe575f5ffd5b506102bf60015481565b348015610313575f5ffd5b506103366103223660046126a9565b600d6020525f908152604090205460ff1681565b60405190151581526020016102c9565b348015610351575f5ffd5b506102bf6103603660046126a9565b600a6020525f908152604090205481565b34801561037c575f5ffd5b506102f161038b3660046126a9565b610b56565b34801561039b575f5ffd5b506102bf6103aa3660046126a9565b60086020525f908152604090205481565b3480156103c6575f5ffd5b506103fc6103d53660046128a1565b60116020525f908152604090205473ffffffffffffffffffffffffffffffffffffffff1681565b60405173ffffffffffffffffffffffffffffffffffffffff90911681526020016102c9565b34801561042c575f5ffd5b506103fc61043b3660046126a9565b610c7d565b34801561044b575f5ffd5b506102bf61045a3660046126a9565b600b6020525f908152604090205481565b348015610476575f5ffd5b506103fc610485366004612942565b610e27565b348015610495575f5ffd5b506102bf60045481565b3480156104aa575f5ffd5b506103fc6104b93660046128a1565b600f6020525f908152604090205473ffffffffffffffffffffffffffffffffffffffff1681565b3480156104eb575f5ffd5b506102f16104fa366004612997565b611067565b34801561050a575f5ffd5b506102f16105193660046129c1565b61122c565b6102bf61052c3660046129ea565b6112f0565b34801561053c575f5ffd5b506102f161054b366004612a6a565b6118e5565b34801561055b575f5ffd5b506103fc7f000000000000000000000000000000000000000000000000000000000000000081565b34801561058e575f5ffd5b506102f161059d3660046129c1565b611e8a565b3480156105ad575f5ffd5b506007546103fc9073ffffffffffffffffffffffffffffffffffffffff1681565b3480156105d9575f5ffd5b506102bf7f000000000000000000000000000000000000000000000000000000000000000081565b34801561060c575f5ffd5b506102bf61061b366004612aae565b611f14565b34801561062b575f5ffd5b506102f161063a3660046126a9565b611fca565b34801561064a575f5ffd5b506102bf61271081565b34801561065f575f5ffd5b506102bf60035481565b348015610674575f5ffd5b506103fc6106833660046126a9565b600e6020525f908152604090205473ffffffffffffffffffffffffffffffffffffffff1681565b3480156106b5575f5ffd5b5061070d6106c43660046128a1565b600c6020525f90815260409020805460018201546002830154600384015460049094015473ffffffffffffffffffffffffffffffffffffffff9384169492841693909116919085565b6040805173ffffffffffffffffffffffffffffffffffffffff9687168152948616602086015292909416918301919091526060820152608081019190915260a0016102c9565b34801561075e575f5ffd5b506103fc7f000000000000000000000000000000000000000000000000000000000000000081565b348015610791575f5ffd5b506102bf6107a03660046126a9565b60106020525f908152604090205481565b3480156107bc575f5ffd5b506102f16107cb366004612b04565b6120f8565b3480156107db575f5ffd5b506107ef6107ea3660046128a1565b61234e565b6040516102c99190612be3565b348015610807575f5ffd5b506102bf5f5481565b34801561081b575f5ffd5b506102bf60025481565b348015610830575f5ffd5b506102bf60055481565b348015610845575f5ffd5b506102bf7fe6194b93a7bff0a54130ed8cd277223408a77f3e48bb5104a9db96d334f962ca81565b348015610878575f5ffd5b506102bf6123ff565b34801561088c575f5ffd5b506102bf7f8b73c3c69bb8fe3d512ecc4cf759cc79239f7b179b0ffacaa9a75d522b39400f81565b3480156108bf575f5ffd5b506102bf7f000000000000000000000000000000000000000000000000000000000000000081565b3480156108f2575f5ffd5b5061092f6040518060400160405280600581526020017f312e312e3000000000000000000000000000000000000000000000000000000081525081565b6040516102c99190612c6e565b60075473ffffffffffffffffffffffffffffffffffffffff1633146109b4576007546040517fa43d6ada00000000000000000000000000000000000000000000000000000000815233600482015273ffffffffffffffffffffffffffffffffffffffff90911660248201526044015b60405180910390fd5b80518251146109fc57815181516040517f8151c110000000000000000000000000000000000000000000000000000000008152600481019290925260248201526044016109ab565b5f5b8251811015610b18575f73ffffffffffffffffffffffffffffffffffffffff16838281518110610a3057610a30612c80565b602002602001015173ffffffffffffffffffffffffffffffffffffffff1603610a85576040517fd92e233d00000000000000000000000000000000000000000000000000000000815260040160405180910390fd5b818181518110610a9757610a97612c80565b6020026020010151600d5f858481518110610ab457610ab4612c80565b60209081029190910181015173ffffffffffffffffffffffffffffffffffffffff1682528101919091526040015f2080547fffffffffffffffffffffffffffffffffffffffffffffffffffffffffffffff00169115159190911790556001016109fe565b507f8cc6be981009d13170c616af494b7d671ed2d84b7e6891e4c8f21fe065c00dfc8282604051610b4a929190612cfd565b60405180910390a15050565b60075473ffffffffffffffffffffffffffffffffffffffff163314610bc9576007546040517fa43d6ada00000000000000000000000000000000000000000000000000000000815233600482015273ffffffffffffffffffffffffffffffffffffffff90911660248201526044016109ab565b73ffffffffffffffffffffffffffffffffffffffff8116610c16576040517fd92e233d00000000000000000000000000000000000000000000000000000000815260040160405180910390fd5b7fe6194b93a7bff0a54130ed8cd277223408a77f3e48bb5104a9db96d334f962ca81905560405173ffffffffffffffffffffffffffffffffffffffff8216907f310ba5f1d2ed074b51e2eccd052a47ae9ab7c6b800d1fca3db3999d6a592ca03905f90a250565b5f73ffffffffffffffffffffffffffffffffffffffff8216610ccb576040517fd92e233d00000000000000000000000000000000000000000000000000000000815260040160405180910390fd5b5f8273ffffffffffffffffffffffffffffffffffffffff166317d70f7c6040518163ffffffff1660e01b8152600401602060405180830381865afa158015610d15573d5f5f3e3d5ffd5b505050506040513d601f19601f82011682018060405250810190610d399190612d57565b5f8181526011602052604090205490915073ffffffffffffffffffffffffffffffffffffffff848116911614610db3576040517f32b2baa300000000000000000000000000000000000000000000000000000000815273ffffffffffffffffffffffffffffffffffffffff841660048201526024016109ab565b8273ffffffffffffffffffffffffffffffffffffffff1663e7f43c686040518163ffffffff1660e01b8152600401602060405180830381865afa158015610dfc573d5f5f3e3d5ffd5b505050506040513d601f19601f82011682018060405250810190610e209190612d6e565b9392505050565b73ffffffffffffffffffffffffffffffffffffffff82165f908152600d602052604081205460ff16610e9d576040517f32b2baa300000000000000000000000000000000000000000000000000000000815273ffffffffffffffffffffffffffffffffffffffff841660048201526024016109ab565b6040517f0f7fb56d00000000000000000000000000000000000000000000000000000000815273ffffffffffffffffffffffffffffffffffffffff841690630f7fb56d90610f13907f00000000000000000000000000000000000000000000000000000000000000009088908790600401612d89565b6020604051808303815f875af1158015610f2f573d5f5f3e3d5ffd5b505050506040513d601f19601f82011682018060405250810190610f539190612d6e565b905073ffffffffffffffffffffffffffffffffffffffff8116610fa2576040517fd92e233d00000000000000000000000000000000000000000000000000000000815260040160405180910390fd5b73ffffffffffffffffffffffffffffffffffffffff8082165f818152600e6020908152604080832080549589167fffffffffffffffffffffffff0000000000000000000000000000000000000000968716179055888352601190915281208054909316909117909155600580549161101983612df3565b9091555050604051849073ffffffffffffffffffffffffffffffffffffffff8316907f0dab9459b2f129b692750bed5cc716b07a2fb19ba9fe0a0dc378428a62040367905f90a39392505050565b8015611228576040517f4236aff8000000000000000000000000000000000000000000000000000000008152600481018290525f90819073ffffffffffffffffffffffffffffffffffffffff7f00000000000000000000000000000000000000000000000000000000000000001690634236aff89060240160e060405180830381865afa1580156110fa573d5f5f3e3d5ffd5b505050506040513d601f19601f8201168201806040525081019061111e9190612e42565b9650505050509250506004600581111561113a5761113a612bb6565b81600581111561114c5761114c612bb6565b146111a05780600581111561116357611163612bb6565b6040517ff014fe740000000000000000000000000000000000000000000000000000000081526004810191909152602481018490526044016109ab565b8373ffffffffffffffffffffffffffffffffffffffff168273ffffffffffffffffffffffffffffffffffffffff1614611225576040517fa43d6ada00000000000000000000000000000000000000000000000000000000815273ffffffffffffffffffffffffffffffffffffffff8086166004830152831660248201526044016109ab565b50505b5050565b60075473ffffffffffffffffffffffffffffffffffffffff16331461129f576007546040517fa43d6ada00000000000000000000000000000000000000000000000000000000815233600482015273ffffffffffffffffffffffffffffffffffffffff90911660248201526044016109ab565b6112aa838383612459565b60408051848152602081018490529081018290527f64d0972bd5d0c2828d80911b61084d86d61214c3081656ca3a720047a88320359060600160405180910390a1505050565b5f6001600654111561132e576040517f8beb9d1600000000000000000000000000000000000000000000000000000000815260040160405180910390fd5b600260065563ffffffff6113424285612ed9565b1115611392576113524284612ed9565b6040517f7ae59685000000000000000000000000000000000000000000000000000000008152600481019190915263ffffffff60248201526044016109ab565b6001548310806113a3575060025483115b156113f0576001546002546040517feb373cfe00000000000000000000000000000000000000000000000000000000815260048101869052602481019290925260448201526064016109ab565b85515f0361142a576040517f7c946ed700000000000000000000000000000000000000000000000000000000815260040160405180910390fd5b5f8581526011602052604090205473ffffffffffffffffffffffffffffffffffffffff1680611485576040517fd92e233d00000000000000000000000000000000000000000000000000000000815260040160405180910390fd5b61148f3386611067565b335f818152601060205260409020546114aa91908990611f14565b335f9081526010602052604081208054929450906114c783612df3565b90915550505f828152600c6020526040902080547fffffffffffffffffffffffff00000000000000000000000000000000000000001673ffffffffffffffffffffffffffffffffffffffff83161781556115214286612ed9565b60038201556002810180547fffffffffffffffffffffffff00000000000000000000000000000000000000001633179055604080517f2cc0fcb2000000000000000000000000000000000000000000000000000000008152905173ffffffffffffffffffffffffffffffffffffffff841691632cc0fcb291600480830192602092919082900301815f875af11580156115bc573d5f5f3e3d5ffd5b505050506040513d601f19601f820116820180604052508101906115e09190612d57565b81600401819055505f8273ffffffffffffffffffffffffffffffffffffffff16632763b8da6040518163ffffffff1660e01b81526004016020604051808303815f875af1158015611633573d5f5f3e3d5ffd5b505050506040513d601f19601f820116820180604052508101906116579190612d57565b5f818152600f6020526040908190205460048086015492517f8a7e698d00000000000000000000000000000000000000000000000000000000815293945073ffffffffffffffffffffffffffffffffffffffff909116928392638a7e698d9234926116c892339290918d9101612d89565b5f604051808303818588803b1580156116df575f5ffd5b505af11580156116f1573d5f5f3e3d5ffd5b50506040517f55e7d04400000000000000000000000000000000000000000000000000000000815233600482015273ffffffffffffffffffffffffffffffffffffffff8881166024830152600160448301527f00000000000000000000000000000000000000000000000000000000000000001693506355e7d044925060640190505f604051808303815f87803b15801561178a575f5ffd5b505af115801561179c573d5f5f3e3d5ffd5b5050335f9081526008602052604081208054935091506117bb83612df3565b909155505060038054905f6117cf83612df3565b909155505060048054905f6117e383612df3565b90915550506040517f7941251800000000000000000000000000000000000000000000000000000000815273ffffffffffffffffffffffffffffffffffffffff85169063794125189061183e9033908e908a90600401612ef2565b5f604051808303815f87803b158015611855575f5ffd5b505af1158015611867573d5f5f3e3d5ffd5b505050508373ffffffffffffffffffffffffffffffffffffffff163373ffffffffffffffffffffffffffffffffffffffff167f4827c9fc8074fe94dd4939d4228739ff43d7072a6504a6f413ffa4967c120175878d6040516118ca929190612f30565b60405180910390a35050600160065550909695505050505050565b60016006541115611922576040517f8beb9d1600000000000000000000000000000000000000000000000000000000815260040160405180910390fd5b60026006555f61193133610c7d565b5f848152600c6020526040902080549192509073ffffffffffffffffffffffffffffffffffffffff1680611991576040517fd92e233d00000000000000000000000000000000000000000000000000000000815260040160405180910390fd5b600182015473ffffffffffffffffffffffffffffffffffffffff16156119e6576040517f5b7e8301000000000000000000000000000000000000000000000000000000008152600481018690526024016109ab565b73ffffffffffffffffffffffffffffffffffffffff81163314611b92578160030154421115611b51576040517f4225d37a00000000000000000000000000000000000000000000000000000000815273ffffffffffffffffffffffffffffffffffffffff82811660048301527fffffffffffffffffffffffffffffffffffffffffffffffffffffffffffffffff60248301527f00000000000000000000000000000000000000000000000000000000000000001690634225d37a906044015f604051808303815f87803b158015611abb575f5ffd5b505af1158015611acd573d5f5f3e3d5ffd5b50506040517fe7d915cf0000000000000000000000000000000000000000000000000000000081526004810188905273ffffffffffffffffffffffffffffffffffffffff8416925063e7d915cf91506024015f604051808303815f87803b158015611b36575f5ffd5b505af1158015611b48573d5f5f3e3d5ffd5b50505050611b92565b60038201546040517f177d0c7900000000000000000000000000000000000000000000000000000000815260048101919091524260248201526044016109ab565b6001820180547fffffffffffffffffffffffff0000000000000000000000000000000000000000163317905560038054905f611bcd83612f50565b9091555050600282015473ffffffffffffffffffffffffffffffffffffffff165f908152600960205260408120805491611c0683612df3565b9091555050335f908152600a60205260408120805491611c2583612df3565b909155505073ffffffffffffffffffffffffffffffffffffffff83165f908152600b60205260408120805491611c5a83612df3565b90915550506040517f4225d37a000000000000000000000000000000000000000000000000000000008152336004820152600160248201527f000000000000000000000000000000000000000000000000000000000000000073ffffffffffffffffffffffffffffffffffffffff1690634225d37a906044015f604051808303815f87803b158015611cea575f5ffd5b505af1158015611cfc573d5f5f3e3d5ffd5b505050505f8173ffffffffffffffffffffffffffffffffffffffff16632763b8da6040518163ffffffff1660e01b81526004016020604051808303815f875af1158015611d4b573d5f5f3e3d5ffd5b505050506040513d601f19601f82011682018060405250810190611d6f9190612d57565b5f818152600f602052604080822054600287015460048089015484517ffe71c424000000000000000000000000000000000000000000000000000000008152339281019290925273ffffffffffffffffffffffffffffffffffffffff9283166024830152604482018d9052606482015292519495501692839263fe71c424926084808201939182900301818387803b158015611e09575f5ffd5b505af1158015611e1b573d5f5f3e3d5ffd5b505050600285015460405173ffffffffffffffffffffffffffffffffffffffff918216925033918616907fc0ecbc77097bb637f0b6fa34f169d87906113c1c45a0227113d36cdbae936fc490611e74908c908c90612f30565b60405180910390a4505060016006555050505050565b60075473ffffffffffffffffffffffffffffffffffffffff1615611eda576040517f0dc149f000000000000000000000000000000000000000000000000000000000815260040160405180910390fd5b611ee5838383612459565b5050600780547fffffffffffffffffffffffff0000000000000000000000000000000000000000163317905550565b5f611f1d6123ff565b30858585604051602001611f349493929190612f84565b60405160208183030381529060405280519060200120604051602001611f8c9291907f190100000000000000000000000000000000000000000000000000000000000081526002810192909252602282015260420190565b604080517fffffffffffffffffffffffffffffffffffffffffffffffffffffffffffffffe08184030181529190528051602090910120949350505050565b60075473ffffffffffffffffffffffffffffffffffffffff16331461203d576007546040517fa43d6ada00000000000000000000000000000000000000000000000000000000815233600482015273ffffffffffffffffffffffffffffffffffffffff90911660248201526044016109ab565b73ffffffffffffffffffffffffffffffffffffffff811661208a576040517fd92e233d00000000000000000000000000000000000000000000000000000000815260040160405180910390fd5b600780547fffffffffffffffffffffffff00000000000000000000000000000000000000001673ffffffffffffffffffffffffffffffffffffffff83169081179091556040517f4ffd725fc4a22075e9ec71c59edf9c38cdeb588a91b24fc5b61388c5be41282b905f90a250565b60075473ffffffffffffffffffffffffffffffffffffffff16331461216b576007546040517fa43d6ada00000000000000000000000000000000000000000000000000000000815233600482015273ffffffffffffffffffffffffffffffffffffffff90911660248201526044016109ab565b80518251146121b357815181516040517f8151c110000000000000000000000000000000000000000000000000000000008152600481019290925260248201526044016109ab565b5f5b825181101561231c578281815181106121d0576121d0612c80565b60200260200101515f5f1b03612212576040517f7c946ed700000000000000000000000000000000000000000000000000000000815260040160405180910390fd5b5f73ffffffffffffffffffffffffffffffffffffffff1682828151811061223b5761223b612c80565b602002602001015173ffffffffffffffffffffffffffffffffffffffff1603612290576040517fd92e233d00000000000000000000000000000000000000000000000000000000815260040160405180910390fd5b8181815181106122a2576122a2612c80565b6020026020010151600f5f8584815181106122bf576122bf612c80565b602002602001015181526020019081526020015f205f6101000a81548173ffffffffffffffffffffffffffffffffffffffff021916908373ffffffffffffffffffffffffffffffffffffffff1602179055508060010190506121b5565b507fa9759667b17e564f26a0d91ce1c5e4a1dc3910aee992dc3f5f4da0a59d48f3cb8282604051610b4a929190612fdf565b5f818152600c60209081526040808320815160a081018352815473ffffffffffffffffffffffffffffffffffffffff9081168083526001840154821695830195909552600283015416928101929092526003810154606083015260040154608082015290156123f957602081015173ffffffffffffffffffffffffffffffffffffffff166123f45780606001514211156123eb57600291506123f9565b600191506123f9565b600391505b50919050565b5f7f000000000000000000000000000000000000000000000000000000000000000046146124345761242f612587565b905090565b507f000000000000000000000000000000000000000000000000000000000000000090565b821580612464575081155b8061246d575080155b156124a4576040517f7c946ed700000000000000000000000000000000000000000000000000000000815260040160405180910390fd5b6127108311156124eb576040517f7ae596850000000000000000000000000000000000000000000000000000000081526004810184905261271060248201526044016109ab565b8082111561252f576040517f7ae5968500000000000000000000000000000000000000000000000000000000815260048101839052602481018290526044016109ab565b63ffffffff81111561257a576040517f7ae596850000000000000000000000000000000000000000000000000000000081526004810182905263ffffffff60248201526044016109ab565b5f92909255600155600255565b5f7f8b73c3c69bb8fe3d512ecc4cf759cc79239f7b179b0ffacaa9a75d522b39400f7ff376b6313a0837eb351511248cfe7dcc1cd26c49b8e0a47e1eb369dd62c425db6040518060400160405280600581526020017f312e312e300000000000000000000000000000000000000000000000000000008152506040516020016126109190612c6e565b604080517fffffffffffffffffffffffffffffffffffffffffffffffffffffffffffffffe081840301815282825280516020918201209083019490945281019190915260608101919091524660808201523060a082015260c00160405160208183030381529060405280519060200120905090565b73ffffffffffffffffffffffffffffffffffffffff811681146126a6575f5ffd5b50565b5f602082840312156126b9575f5ffd5b8135610e2081612685565b7f4e487b71000000000000000000000000000000000000000000000000000000005f52604160045260245ffd5b604051601f82017fffffffffffffffffffffffffffffffffffffffffffffffffffffffffffffffe016810167ffffffffffffffff81118282101715612738576127386126c4565b604052919050565b5f67ffffffffffffffff821115612759576127596126c4565b5060051b60200190565b5f82601f830112612772575f5ffd5b813561278561278082612740565b6126f1565b8082825260208201915060208360051b8601019250858311156127a6575f5ffd5b602085015b838110156127cc5780356127be81612685565b8352602092830192016127ab565b5095945050505050565b5f5f604083850312156127e7575f5ffd5b823567ffffffffffffffff8111156127fd575f5ffd5b61280985828601612763565b925050602083013567ffffffffffffffff811115612825575f5ffd5b8301601f81018513612835575f5ffd5b803561284361278082612740565b8082825260208201915060208360051b850101925087831115612864575f5ffd5b6020840193505b828410156128935783358015158114612882575f5ffd5b82526020938401939091019061286b565b809450505050509250929050565b5f602082840312156128b1575f5ffd5b5035919050565b5f82601f8301126128c7575f5ffd5b813567ffffffffffffffff8111156128e1576128e16126c4565b61291260207fffffffffffffffffffffffffffffffffffffffffffffffffffffffffffffffe0601f840116016126f1565b818152846020838601011115612926575f5ffd5b816020850160208301375f918101602001919091529392505050565b5f5f5f60608486031215612954575f5ffd5b83359250602084013561296681612685565b9150604084013567ffffffffffffffff811115612981575f5ffd5b61298d868287016128b8565b9150509250925092565b5f5f604083850312156129a8575f5ffd5b82356129b381612685565b946020939093013593505050565b5f5f5f606084860312156129d3575f5ffd5b505081359360208301359350604090920135919050565b5f5f5f5f5f60a086880312156129fe575f5ffd5b853567ffffffffffffffff811115612a14575f5ffd5b612a20888289016128b8565b955050602086013593506040860135925060608601359150608086013567ffffffffffffffff811115612a51575f5ffd5b612a5d888289016128b8565b9150509295509295909350565b5f5f60408385031215612a7b575f5ffd5b82359150602083013567ffffffffffffffff811115612a98575f5ffd5b612aa4858286016128b8565b9150509250929050565b5f5f5f60608486031215612ac0575f5ffd5b8335612acb81612685565b9250602084013567ffffffffffffffff811115612ae6575f5ffd5b612af2868287016128b8565b93969395505050506040919091013590565b5f5f60408385031215612b15575f5ffd5b823567ffffffffffffffff811115612b2b575f5ffd5b8301601f81018513612b3b575f5ffd5b8035612b4961278082612740565b8082825260208201915060208360051b850101925087831115612b6a575f5ffd5b6020840193505b82841015612b8c578335825260209384019390910190612b71565b9450505050602083013567ffffffffffffffff811115612baa575f5ffd5b612aa485828601612763565b7f4e487b71000000000000000000000000000000000000000000000000000000005f52602160045260245ffd5b6020810160048310612c1c577f4e487b71000000000000000000000000000000000000000000000000000000005f52602160045260245ffd5b91905290565b5f81518084528060208401602086015e5f6020828601015260207fffffffffffffffffffffffffffffffffffffffffffffffffffffffffffffffe0601f83011685010191505092915050565b602081525f610e206020830184612c22565b7f4e487b71000000000000000000000000000000000000000000000000000000005f52603260045260245ffd5b5f8151808452602084019350602083015f5b82811015612cf357815173ffffffffffffffffffffffffffffffffffffffff16865260209586019590910190600101612cbf565b5093949350505050565b604081525f612d0f6040830185612cad565b82810360208401528084518083526020830191506020860192505f5b81811015612d4b5783511515835260209384019390920191600101612d2b565b50909695505050505050565b5f60208284031215612d67575f5ffd5b5051919050565b5f60208284031215612d7e575f5ffd5b8151610e2081612685565b73ffffffffffffffffffffffffffffffffffffffff84168152826020820152606060408201525f612dbd6060830184612c22565b95945050505050565b7f4e487b71000000000000000000000000000000000000000000000000000000005f52601160045260245ffd5b5f7fffffffffffffffffffffffffffffffffffffffffffffffffffffffffffffffff8203612e2357612e23612dc6565b5060010190565b805163ffffffff81168114612e3d575f5ffd5b919050565b5f5f5f5f5f5f5f60e0888a031215612e58575f5ffd5b87516bffffffffffffffffffffffff81168114612e73575f5ffd5b6020890151909750612e8481612685565b60408901519096509450612e9a60608901612e2a565b9350612ea860808901612e2a565b9250612eb660a08901612e2a565b915060c088015160068110612ec9575f5ffd5b8091505092959891949750929550565b80820180821115612eec57612eec612dc6565b92915050565b73ffffffffffffffffffffffffffffffffffffffff84168152606060208201525f612f206060830185612c22565b9050826040830152949350505050565b828152604060208201525f612f486040830184612c22565b949350505050565b5f81612f5e57612f5e612dc6565b507fffffffffffffffffffffffffffffffffffffffffffffffffffffffffffffffff0190565b73ffffffffffffffffffffffffffffffffffffffff8516815273ffffffffffffffffffffffffffffffffffffffff84166020820152608060408201525f612fce6080830185612c22565b905082606083015295945050505050565b604080825283519082018190525f9060208501906060840190835b81811015613018578351835260209384019390920191600101612ffa565b5050838103602085015261302c8186612cad565b969550505050505056fea26469706673582212200cc458e0e431e850bf7563bd21abc543d1c48a154dbc2830f229450695087e4164736f6c634300081c0033",
  "linkReferences": {},
  "deployedLinkReferences": {}
}