{
  "_format": "hh-sol-artifact-1",
  "contractName": "MechFixedPriceNative",
  "sourceName": "contracts/mechs/native/MechFixedPriceNative.sol",
  "abi": [
    {
      "inputs": [
        {
          "internalType": "address",
          "name": "_mechMarketplace",
          "type": "address"
        },
        {
          "internalType": "address",
          "name": "_serviceRegistry",
          "type": "address"
        },
        {
          "internalType": "uint256",
          "name": "_serviceId",
          "type": "uint256"
        },
        {
          "internalType": "uint256",
          "name": "_maxDeliveryRate",
          "type": "uint256"
        }
      ],
      "stateMutability": "nonpayable",
      "type": "constructor"
    },
    {
      "inputs": [],
      "name": "AlreadyInitialized",
      "type": "error"
    },
    {
      "inputs": [
        {
          "internalType": "address",
          "name": "sender",
          "type": "address"
        },
        {
          "internalType": "address",
          "name": "marketplace",
          "type": "address"
        }
      ],
      "name": "MarketplaceOnly",
      "type": "error"
    },
    {
      "inputs": [
        {
          "internalType": "uint256",
          "name": "provided",
          "type": "uint256"
        },
        {
          "internalType": "uint256",
          "name": "max",
          "type": "uint256"
        }
      ],
      "name": "Overflow",
      "type": "error"
    },
    {
      "inputs": [],
      "name": "ReentrancyGuard",
      "type": "error"
    },
    {
      "inputs": [
        {
          "internalType": "bytes32",
          "name": "requestId",
          "type": "bytes32"
        }
      ],
      "name": "RequestIdNotFound",
      "type": "error"
    },
    {
      "inputs": [
        {
          "internalType": "uint256",
          "name": "numValues1",
          "type": "uint256"
        },
        {
          "internalType": "uint256",
          "name": "numValues2",
          "type": "uint256"
        }
      ],
      "name": "WrongArrayLength",
      "type": "error"
    },
    {
      "inputs": [
        {
          "internalType": "uint256",
          "name": "state",
          "type": "uint256"
        },
        {
          "internalType": "uint256",
          "name": "serviceId",
          "type": "uint256"
        }
      ],
      "name": "WrongServiceState",
      "type": "error"
    },
    {
      "inputs": [],
      "name": "ZeroAddress",
      "type": "error"
    },
    {
      "inputs": [],
      "name": "ZeroValue",
      "type": "error"
    },
    {
      "anonymous": false,
      "inputs": [
        {
          "indexed": true,
          "internalType": "address",
          "name": "mech",
          "type": "address"
        },
        {
          "indexed": true,
          "internalType": "address",
          "name": "mechServiceMultisig",
          "type": "address"
        },
        {
          "indexed": false,
          "internalType": "bytes32",
          "name": "requestId",
          "type": "bytes32"
        },
        {
          "indexed": false,
          "internalType": "bytes",
          "name": "data",
          "type": "bytes"
        }
      ],
      "name": "Deliver",
      "type": "event"
    },
    {
      "anonymous": false,
      "inputs": [
        {
          "indexed": false,
          "internalType": "uint256",
          "name": "maxDeliveryRate",
          "type": "uint256"
        }
      ],
      "name": "MaxDeliveryRateUpdated",
      "type": "event"
    },
    {
      "anonymous": false,
      "inputs": [
        {
          "indexed": false,
          "internalType": "uint256",
          "name": "numRequests",
          "type": "uint256"
        }
      ],
      "name": "NumRequestsIncrease",
      "type": "event"
    },
    {
      "anonymous": false,
      "inputs": [
        {
          "indexed": true,
          "internalType": "address",
          "name": "mech",
          "type": "address"
        },
        {
          "indexed": false,
          "internalType": "bytes32",
          "name": "requestId",
          "type": "bytes32"
        },
        {
          "indexed": false,
          "internalType": "bytes",
          "name": "data",
          "type": "bytes"
        }
      ],
      "name": "Request",
      "type": "event"
    },
    {
      "anonymous": false,
      "inputs": [
        {
          "indexed": false,
          "internalType": "bytes32",
          "name": "requestId",
          "type": "bytes32"
        }
      ],
      "name": "RevokeRequest",
      "type": "event"
    },
    {
      "inputs": [],
      "name": "PAYMENT_TYPE",
      "outputs": [
        {
          "internalType": "bytes32",
          "name": "",
          "type": "bytes32"
        }
      ],
      "stateMutability": "view",
      "type": "function"
    },
    {
      "inputs": [],
      "name": "VERSION",
      "outputs": [
        {
          "internalType": "string",
          "name": "",
          "type": "string"
        }
      ],
      "stateMutability": "view",
      "type": "function"
    },
    {
      "inputs": [
        {
          "internalType": "uint256",
          "name": "newMaxDeliveryRate",
          "type": "uint256"
        }
      ],
      "name": "changeMaxDeliveryRate",
      "outputs": [],
      "stateMutability": "nonpayable",
      "type": "function"
    },
    {
      "inputs": [
        {
          "internalType": "address",
          "name": "requester",
          "type": "address"
        },
        {
          "internalType": "uint256",
          "name": "requesterServiceId",
          "type": "uint256"
        },
        {
          "internalType": "bytes[]",
          "name": "requestDatas",
          "type": "bytes[]"
        },
        {
          "internalType": "bytes[]",
          "name": "signatures",
          "type": "bytes[]"
        },
        {
          "internalType": "bytes[]",
          "name": "deliveryDatas",
          "type": "bytes[]"
        },
        {
          "internalType": "uint256[]",
          "name": "deliveryRates",
          "type": "uint256[]"
        },
        {
          "internalType": "bytes",
          "name": "paymentData",
          "type": "bytes"
        }
      ],
      "name": "deliverMarketplaceWithSignatures",
      "outputs": [],
      "stateMutability": "nonpayable",
      "type": "function"
    },
    {
      "inputs": [
        {
          "internalType": "bytes32[]",
          "name": "requestIds",
          "type": "bytes32[]"
        },
        {
          "internalType": "bytes[]",
          "name": "datas",
          "type": "bytes[]"
        }
      ],
      "name": "deliverToMarketplace",
      "outputs": [],
      "stateMutability": "nonpayable",
      "type": "function"
    },
    {
      "inputs": [],
      "name": "entryPoint",
      "outputs": [
        {
          "internalType": "contract IEntryPoint",
          "name": "",
          "type": "address"
        }
      ],
      "stateMutability": "view",
      "type": "function"
    },
    {
      "inputs": [
        {
          "internalType": "address",
          "name": "to",
          "type": "address"
        },
        {
          "internalType": "uint256",
          "name": "value",
          "type": "uint256"
        },
        {
          "internalType": "bytes",
          "name": "data",
          "type": "bytes"
        },
        {
          "internalType": "enum Enum.Operation",
          "name": "operation",
          "type": "uint8"
        },
        {
          "internalType": "uint256",
          "name": "txGas",
          "type": "uint256"
        }
      ],
      "name": "exec",
      "outputs": [
        {
          "internalType": "bytes",
          "name": "returnData",
          "type": "bytes"
        }
      ],
      "stateMutability": "nonpayable",
      "type": "function"
    },
    {
      "inputs": [
        {
          "internalType": "bytes32[]",
          "name": "requestIds",
          "type": "bytes32[]"
        }
      ],
      "name": "getFinalizedDeliveryRates",
      "outputs": [
        {
          "internalType": "uint256[]",
          "name": "deliveryRates",
          "type": "uint256[]"
        }
      ],
      "stateMutability": "view",
      "type": "function"
    },
    {
      "inputs": [],
      "name": "getOperator",
      "outputs": [
        {
          "internalType": "address",
          "name": "",
          "type": "address"
        }
      ],
      "stateMutability": "view",
      "type": "function"
    },
    {
      "inputs": [
        {
          "internalType": "uint256",
          "name": "size",
          "type": "uint256"
        },
        {
          "internalType": "uint256",
          "name": "offset",
          "type": "uint256"
        }
      ],
      "name": "getUndeliveredRequestIds",
      "outputs": [
        {
          "internalType": "bytes32[]",
          "name": "requestIds",
          "type": "bytes32[]"
        }
      ],
      "stateMutability": "view",
      "type": "function"
    },
    {
      "inputs": [
        {
          "internalType": "address",
          "name": "multisig",
          "type": "address"
        }
      ],
      "name": "isOperator",
      "outputs": [
        {
          "internalType": "bool",
          "name": "",
          "type": "bool"
        }
      ],
      "stateMutability": "view",
      "type": "function"
    },
    {
      "inputs": [
        {
          "internalType": "bytes32",
          "name": "hash",
          "type": "bytes32"
        },
        {
          "internalType": "bytes",
          "name": "signature",
          "type": "bytes"
        }
      ],
      "name": "isValidSignature",
      "outputs": [
        {
          "internalType": "bytes4",
          "name": "magicValue",
          "type": "bytes4"
        }
      ],
      "stateMutability": "view",
      "type": "function"
    },
    {
      "inputs": [
        {
          "internalType": "bytes32",
          "name": "",
          "type": "bytes32"
        },
        {
          "internalType": "uint256",
          "name": "",
          "type": "uint256"
        }
      ],
      "name": "mapRequestIds",
      "outputs": [
        {
          "internalType": "bytes32",
          "name": "",
          "type": "bytes32"
        }
      ],
      "stateMutability": "view",
      "type": "function"
    },
    {
      "inputs": [],
      "name": "maxDeliveryRate",
      "outputs": [
        {
          "internalType": "uint256",
          "name": "",
          "type": "uint256"
        }
      ],
      "stateMutability": "view",
      "type": "function"
    },
    {
      "inputs": [],
      "name": "mechMarketplace",
      "outputs": [
        {
          "internalType": "address",
          "name": "",
          "type": "address"
        }
      ],
      "stateMutability": "view",
      "type": "function"
    },
    {
      "inputs": [],
      "name": "nonce",
      "outputs": [
        {
          "internalType": "uint256",
          "name": "",
          "type": "uint256"
        }
      ],
      "stateMutability": "view",
      "type": "function"
    },
    {
      "inputs": [],
      "name": "numTotalDeliveries",
      "outputs": [
        {
          "internalType": "uint256",
          "name": "",
          "type": "uint256"
        }
      ],
      "stateMutability": "view",
      "type": "function"
    },
    {
      "inputs": [],
      "name": "numTotalRequests",
      "outputs": [
        {
          "internalType": "uint256",
          "name": "",
          "type": "uint256"
        }
      ],
      "stateMutability": "view",
      "type": "function"
    },
    {
      "inputs": [],
      "name": "numUndeliveredRequests",
      "outputs": [
        {
          "internalType": "uint256",
          "name": "",
          "type": "uint256"
        }
      ],
      "stateMutability": "view",
      "type": "function"
    },
    {
      "inputs": [
        {
          "internalType": "address",
          "name": "",
          "type": "address"
        },
        {
          "internalType": "address",
          "name": "",
          "type": "address"
        },
        {
          "internalType": "uint256[]",
          "name": "",
          "type": "uint256[]"
        },
        {
          "internalType": "uint256[]",
          "name": "",
          "type": "uint256[]"
        },
        {
          "internalType": "bytes",
          "name": "",
          "type": "bytes"
        }
      ],
      "name": "onERC1155BatchReceived",
      "outputs": [
        {
          "internalType": "bytes4",
          "name": "",
          "type": "bytes4"
        }
      ],
      "stateMutability": "pure",
      "type": "function"
    },
    {
      "inputs": [
        {
          "internalType": "address",
          "name": "",
          "type": "address"
        },
        {
          "internalType": "address",
          "name": "",
          "type": "address"
        },
        {
          "internalType": "uint256",
          "name": "",
          "type": "uint256"
        },
        {
          "internalType": "uint256",
          "name": "",
          "type": "uint256"
        },
        {
          "internalType": "bytes",
          "name": "",
          "type": "bytes"
        }
      ],
      "name": "onERC1155Received",
      "outputs": [
        {
          "internalType": "bytes4",
          "name": "",
          "type": "bytes4"
        }
      ],
      "stateMutability": "pure",
      "type": "function"
    },
    {
      "inputs": [
        {
          "internalType": "address",
          "name": "",
          "type": "address"
        },
        {
          "internalType": "address",
          "name": "",
          "type": "address"
        },
        {
          "internalType": "uint256",
          "name": "",
          "type": "uint256"
        },
        {
          "internalType": "bytes",
          "name": "",
          "type": "bytes"
        }
      ],
      "name": "onERC721Received",
      "outputs": [
        {
          "internalType": "bytes4",
          "name": "",
          "type": "bytes4"
        }
      ],
      "stateMutability": "pure",
      "type": "function"
    },
    {
      "inputs": [],
      "name": "paymentType",
      "outputs": [
        {
          "internalType": "bytes32",
          "name": "",
          "type": "bytes32"
        }
      ],
      "stateMutability": "view",
      "type": "function"
    },
    {
      "inputs": [
        {
          "internalType": "bytes32[]",
          "name": "requestIds",
          "type": "bytes32[]"
        },
        {
          "internalType": "bytes[]",
          "name": "datas",
          "type": "bytes[]"
        }
      ],
      "name": "requestFromMarketplace",
      "outputs": [],
      "stateMutability": "nonpayable",
      "type": "function"
    },
    {
      "inputs": [
        {
          "internalType": "bytes",
          "name": "initParams",
          "type": "bytes"
        }
      ],
      "name": "setUp",
      "outputs": [],
      "stateMutability": "nonpayable",
      "type": "function"
    },
    {
      "inputs": [],
      "name": "token",
      "outputs": [
        {
          "internalType": "address",
          "name": "serviceRegistry",
          "type": "address"
        }
      ],
      "stateMutability": "view",
      "type": "function"
    },
    {
      "inputs": [],
      "name": "tokenId",
      "outputs": [
        {
          "internalType": "uint256",
          "name": "serviceId",
          "type": "uint256"
        }
      ],
      "stateMutability": "view",
      "type": "function"
    },
    {
      "inputs": [
        {
          "internalType": "address",
          "name": "",
          "type": "address"
        },
        {
          "internalType": "address",
          "name": "",
          "type": "address"
        },
        {
          "internalType": "address",
          "name": "",
          "type": "address"
        },
        {
          "internalType": "uint256",
          "name": "",
          "type": "uint256"
        },
        {
          "internalType": "bytes",
          "name": "",
          "type": "bytes"
        },
        {
          "internalType": "bytes",
          "name": "",
          "type": "bytes"
        }
      ],
      "name": "tokensReceived",
      "outputs": [],
      "stateMutability": "pure",
      "type": "function"
    },
    {
      "inputs": [
        {
          "internalType": "uint256",
          "name": "numRequests",
          "type": "uint256"
        }
      ],
      "name": "updateNumRequests",
      "outputs": [],
      "stateMutability": "nonpayable",
      "type": "function"
    },
    {
      "inputs": [
        {
          "components": [
            {
              "internalType": "address",
              "name": "sender",
              "type": "address"
            },
            {
              "internalType": "uint256",
              "name": "nonce",
              "type": "uint256"
            },
            {
              "internalType": "bytes",
              "name": "initCode",
              "type": "bytes"
            },
            {
              "internalType": "bytes",
              "name": "callData",
              "type": "bytes"
            },
            {
              "internalType": "uint256",
              "name": "callGasLimit",
              "type": "uint256"
            },
            {
              "internalType": "uint256",
              "name": "verificationGasLimit",
              "type": "uint256"
            },
            {
              "internalType": "uint256",
              "name": "preVerificationGas",
              "type": "uint256"
            },
            {
              "internalType": "uint256",
              "name": "maxFeePerGas",
              "type": "uint256"
            },
            {
              "internalType": "uint256",
              "name": "maxPriorityFeePerGas",
              "type": "uint256"
            },
            {
              "internalType": "bytes",
              "name": "paymasterAndData",
              "type": "bytes"
            },
            {
              "internalType": "bytes",
              "name": "signature",
              "type": "bytes"
            }
          ],
          "internalType": "struct UserOperation",
          "name": "userOp",
          "type": "tuple"
        },
        {
          "internalType": "bytes32",
          "name": "userOpHash",
          "type": "bytes32"
        },
        {
          "internalType": "uint256",
          "name": "missingAccountFunds",
          "type": "uint256"
        }
      ],
      "name": "validateUserOp",
      "outputs": [
        {
          "internalType": "uint256",
          "name": "validationData",
          "type": "uint256"
        }
      ],
      "stateMutability": "nonpayable",
      "type": "function"
    },
    {
      "stateMutability": "payable",
      "type": "receive"
    }
  ],
  "bytecode": "0x60c06040525f5f556001600555348015610017575f5ffd5b506040516135473803806135478339810160408190526100369161043f565b838383837fba699a34be8fe0e7725e93dcbce1701b0211a8ca61330aaeb8a05bf2ec7abed184848484846001600160a01b0385166100875760405163d92e233d60e01b815260040160405180910390fd5b6001600160a01b0384166100ae5760405163d92e233d60e01b815260040160405180910390fd5b8215806100b9575081155b806100c2575080155b156100e057604051637c946ed760e01b815260040160405180910390fd5b604080516001600160a01b03861660208201529081018490525f9060600160408051601f1981840301815290829052630846d5ff60e31b82526004820186905291505f9081906001600160a01b03881690634236aff89060240160e060405180830381865afa158015610155573d5f5f3e3d5ffd5b505050506040513d601f19601f820116820180604052508101906101799190610492565b9650505050509250505f6001600160a01b0316826001600160a01b0316036101b45760405163d92e233d60e01b815260040160405180910390fd5b60048160058111156101c8576101c8610520565b14610208578060058111156101df576101df610520565b604051633c053f9d60e21b81526004810191909152602481018790526044015b60405180910390fd5b61021183610239565b5050506001600160a01b03909416608052600155505060a052506105c7975050505050505050565b61024161026b565b511561025f5760405162dc149f60e41b815260040160405180910390fd5b610268816102d3565b50565b60606102ce6102c9604051606b60f91b6020820152602560fa1b60218201526001600160601b03193060601b166022820152600160f81b60368201525f90603701604051602081830303815290604052805190602001205f1c905090565b610397565b905090565b5f6102dd826103ec565b90505f8151602083015ff09050610343604051606b60f91b6020820152602560fa1b60218201526001600160601b03193060601b166022820152600160f81b60368201525f90603701604051602081830303815290604052805190602001205f1c905090565b6001600160a01b0316816001600160a01b0316146103925760405162461bcd60e51b815260206004820152600c60248201526b15dc9a5d194819985a5b195960a21b60448201526064016101ff565b505050565b6060813b600181116103b857505060408051602081019091525f8152919050565b806103c281610548565b9150506040519150601f19601f602083010116820160405280825280600160208401853c50919050565b6060815160016103fc919061055d565b8260405160200161040e929190610576565b6040516020818303038152906040529050919050565b80516001600160a01b038116811461043a575f5ffd5b919050565b5f5f5f5f60808587031215610452575f5ffd5b61045b85610424565b935061046960208601610424565b6040860151606090960151949790965092505050565b805163ffffffff8116811461043a575f5ffd5b5f5f5f5f5f5f5f60e0888a0312156104a8575f5ffd5b87516001600160601b03811681146104be575f5ffd5b96506104cc60208901610424565b9550604088015194506104e16060890161047f565b93506104ef6080890161047f565b92506104fd60a0890161047f565b915060c088015160068110610510575f5ffd5b8091505092959891949750929550565b634e487b7160e01b5f52602160045260245ffd5b634e487b7160e01b5f52601160045260245ffd5b5f8161055657610556610534565b505f190190565b8082018082111561057057610570610534565b92915050565b606360f81b815260e083901b6001600160e01b03191660018201526880600e6000396000f360b81b60058201525f600e820181905282518060208501600f85015e5f9201600f019182525092915050565b60805160a051612f356106125f395f61031201525f818161041a01528181610d4601528181610f7301528181610fdb015281816110ca0152818161113201526113690152612f355ff3fe6080604052600436106101c6575f3560e01c8063a4f9edbf116100f2578063c2825d9211610092578063ecf050e311610062578063ecf050e3146105c7578063f23a6e61146105fa578063fc0c546a1461063f578063ffa1ad7414610653575f5ffd5b8063c2825d9214610549578063c7dec3fc14610568578063d466e70a14610594578063e7f43c68146105b3575f5ffd5b8063b0d691fe116100cd578063b0d691fe146104a8578063bc197c81146104ce578063bdf8631714610515578063be2641de1461052a575f5ffd5b8063a4f9edbf14610461578063a669aaf914610480578063affed0e014610495575f5ffd5b80632cc0fcb2116101685780636d70f7ae116101385780636d70f7ae1461039c5780636f6885bb146103cb5780639680b603146103ea5780639c5e959014610409575f5ffd5b80632cc0fcb2146103345780633a871cdd146103495780634ada3e611461036857806358ce09091461037d575f5ffd5b8063150b7a02116101a3578063150b7a021461024b5780631626ba7e146102c057806317d70f7c146102df5780632763b8da14610301575f5ffd5b806223de29146101d1578062f20c71146101f757806302c9b8dc14610216575f5ffd5b366101cd57005b5f5ffd5b3480156101dc575f5ffd5b506101f56101eb366004612172565b5050505050505050565b005b348015610202575f5ffd5b506101f5610211366004612221565b61069b565b348015610221575f5ffd5b50610235610230366004612337565b6107c8565b60405161024291906123ab565b60405180910390f35b348015610256575f5ffd5b5061028f6102653660046123bd565b7f150b7a020000000000000000000000000000000000000000000000000000000095945050505050565b6040517fffffffff000000000000000000000000000000000000000000000000000000009091168152602001610242565b3480156102cb575f5ffd5b5061028f6102da3660046124b5565b61084b565b3480156102ea575f5ffd5b506102f36109ee565b604051908152602001610242565b34801561030c575f5ffd5b506102f37f000000000000000000000000000000000000000000000000000000000000000081565b34801561033f575f5ffd5b506102f360015481565b348015610354575f5ffd5b506102f36103633660046124f9565b610a0a565b348015610373575f5ffd5b506102f360035481565b348015610388575f5ffd5b50610235610397366004612548565b610a4d565b3480156103a7575f5ffd5b506103bb6103b6366004612568565b610ba4565b6040519015158152602001610242565b3480156103d6575f5ffd5b506101f56103e5366004612602565b610be2565b3480156103f5575f5ffd5b506101f5610404366004612221565b610f5b565b348015610414575f5ffd5b5061043c7f000000000000000000000000000000000000000000000000000000000000000081565b60405173ffffffffffffffffffffffffffffffffffffffff9091168152602001610242565b34801561046c575f5ffd5b506101f561047b36600461265d565b611066565b34801561048b575f5ffd5b506102f360045481565b3480156104a0575f5ffd5b505f546102f3565b3480156104b3575f5ffd5b50730576a174d229e3cfa37253523e645a78a0c91b5761043c565b3480156104d9575f5ffd5b5061028f6104e83660046126d0565b7fbc197c810000000000000000000000000000000000000000000000000000000098975050505050505050565b348015610520575f5ffd5b506102f360025481565b348015610535575f5ffd5b506101f5610544366004612602565b6110b2565b348015610554575f5ffd5b506102f3610563366004612548565b61116d565b348015610573575f5ffd5b50610587610582366004612773565b61118f565b6040516102429190612831565b34801561059f575f5ffd5b506101f56105ae366004612843565b611279565b3480156105be575f5ffd5b5061043c6113e0565b3480156105d2575f5ffd5b506102f37fba699a34be8fe0e7725e93dcbce1701b0211a8ca61330aaeb8a05bf2ec7abed181565b348015610605575f5ffd5b5061028f61061436600461293f565b7ff23a6e61000000000000000000000000000000000000000000000000000000009695505050505050565b34801561064a575f5ffd5b5061043c611508565b34801561065e575f5ffd5b506105876040518060400160405280600581526020017f312e302e3000000000000000000000000000000000000000000000000000000081525081565b6106a433610ba4565b806106c2575033730576a174d229e3cfa37253523e645a78a0c91b57145b610753576040517f08c379a000000000000000000000000000000000000000000000000000000000815260206004820152603e60248201527f4f6e6c792063616c6c61626c6520627920746865206d656368206f706572617460448201527f6f72206f722074686520656e74727920706f696e7420636f6e7472616374000060648201526084015b60405180910390fd5b805f0361078c576040517f7c946ed700000000000000000000000000000000000000000000000000000000815260040160405180910390fd5b60018190556040518181527fb912b1469d50f9612d4378acbbf5469b04e6da0f6fe174443169d704ad534258906020015b60405180910390a150565b80516060908067ffffffffffffffff8111156107e6576107e6612238565b60405190808252806020026020018201604052801561080f578160200160208202803683370190505b5091505f5b8181101561084457600154838281518110610831576108316129b6565b6020908102919091010152600101610814565b5050919050565b5f5f5f5f61086b85602081015160408201516060909201515f1a92909190565b9094509250905060ff81165f03610981578285830160200161088c82610ba4565b1580156108af575073ffffffffffffffffffffffffffffffffffffffff82163014155b156108e257507fffffffff0000000000000000000000000000000000000000000000000000000094506109e89350505050565b6040517f1626ba7e00000000000000000000000000000000000000000000000000000000815273ffffffffffffffffffffffffffffffffffffffff831690631626ba7e90610936908b9085906004016129e3565b602060405180830381865afa158015610951573d5f5f3e3d5ffd5b505050506040513d601f19601f8201168201806040525081019061097591906129fb565b955050505050506109e8565b6109906103b687838686611529565b156109c157507f1626ba7e0000000000000000000000000000000000000000000000000000000092506109e8915050565b507fffffffff00000000000000000000000000000000000000000000000000000000925050505b92915050565b5f6109f7611545565b8060200190518101906109e89190612a3a565b5f610a13611614565b610a1d8484611693565b9050610a2c6040850185612a66565b90505f03610a3d57610a3d84611767565b610a46826117e5565b9392505050565b6002546060905f849003610a5f578093505b80610a6a8486612af4565b1115610ab757610a7a8385612af4565b6040517f7ae5968500000000000000000000000000000000000000000000000000000000815260048101919091526024810182905260440161074a565b8315610b9d578367ffffffffffffffff811115610ad657610ad6612238565b604051908082528060200260200182016040528015610aff578160200160208202803683370190505b505f80805260066020527f54cdd369e4e8a8515e52ca72ec816c2101831ad1f18bf44102ed171459c9b4f9549193505b84811015610b52575f828152600660205260409020600101549150600101610b2f565b505f5b85811015610b9a5781848281518110610b7057610b706129b6565b6020908102919091018101919091525f838152600690915260409020600101549150600101610b55565b50505b5092915050565b5f610bad6113e0565b73ffffffffffffffffffffffffffffffffffffffff168273ffffffffffffffffffffffffffffffffffffffff16149050919050565b610beb33610ba4565b80610c09575033730576a174d229e3cfa37253523e645a78a0c91b57145b610c95576040517f08c379a000000000000000000000000000000000000000000000000000000000815260206004820152603e60248201527f4f6e6c792063616c6c61626c6520627920746865206d656368206f706572617460448201527f6f72206f722074686520656e74727920706f696e7420636f6e74726163740000606482015260840161074a565b600554600203610cd1576040517f8beb9d1600000000000000000000000000000000000000000000000000000000815260040160405180910390fd5b600260055581511580610ce657508051825114155b15610d2a57815181516040517f8151c1100000000000000000000000000000000000000000000000000000000081526004810192909252602482015260440161074a565b5f610d358383611859565b90505f610d41846107c8565b90505f7f000000000000000000000000000000000000000000000000000000000000000073ffffffffffffffffffffffffffffffffffffffff166308c38b0c8684866040518463ffffffff1660e01b8152600401610da193929190612b7f565b5f604051808303815f875af1158015610dbc573d5f5f3e3d5ffd5b505050506040513d5f823e601f3d9081017fffffffffffffffffffffffffffffffffffffffffffffffffffffffffffffffe0168201604052610e019190810190612bc1565b85519091505f805b82811015610f3657838181518110610e2357610e236129b6565b602002602001015115610edb5781610e3a81612c55565b9250503373ffffffffffffffffffffffffffffffffffffffff163073ffffffffffffffffffffffffffffffffffffffff167fb26bbe1b5d72196ae18b7198ae5effbeafd5c75782ac31c6b8445c71f385f49b8a8481518110610e9e57610e9e6129b6565b6020026020010151898581518110610eb857610eb86129b6565b6020026020010151604051610ece9291906129e3565b60405180910390a3610f2e565b7fb5863ad79417b48f982fe746b7d7e7c00369bec5f782d4b58537541ff65e841a888281518110610f0e57610f0e6129b6565b6020026020010151604051610f2591815260200190565b60405180910390a15b600101610e09565b508060045f828254610f489190612af4565b9091555050600160055550505050505050565b3373ffffffffffffffffffffffffffffffffffffffff7f00000000000000000000000000000000000000000000000000000000000000001614611008576040517fe56895c000000000000000000000000000000000000000000000000000000000815233600482015273ffffffffffffffffffffffffffffffffffffffff7f000000000000000000000000000000000000000000000000000000000000000016602482015260440161074a565b8060035f8282546110199190612af4565b925050819055508060045f8282546110319190612af4565b90915550506040518181527fa9650c1f534f48ac9fe2937c5af1eb577dd1c6ade5a0422a538a6253e5d9e529906020016107bd565b61106e611545565b51156110a6576040517f0dc149f000000000000000000000000000000000000000000000000000000000815260040160405180910390fd5b6110af81611a2b565b50565b3373ffffffffffffffffffffffffffffffffffffffff7f0000000000000000000000000000000000000000000000000000000000000000161461115f576040517fe56895c000000000000000000000000000000000000000000000000000000000815233600482015273ffffffffffffffffffffffffffffffffffffffff7f000000000000000000000000000000000000000000000000000000000000000016602482015260440161074a565b6111698282611ba0565b5050565b6006602052815f5260405f208160028110611186575f80fd5b01549150829050565b606061119a33610ba4565b806111b8575033730576a174d229e3cfa37253523e645a78a0c91b57145b611244576040517f08c379a000000000000000000000000000000000000000000000000000000000815260206004820152603e60248201527f4f6e6c792063616c6c61626c6520627920746865206d656368206f706572617460448201527f6f72206f722074686520656e74727920706f696e7420636f6e74726163740000606482015260840161074a565b5f61125e8787878787156112585787611cd2565b5a611cd2565b925090508061126f57815160208301fd5b5095945050505050565b61128233610ba4565b806112a0575033730576a174d229e3cfa37253523e645a78a0c91b57145b61132c576040517f08c379a000000000000000000000000000000000000000000000000000000000815260206004820152603e60248201527f4f6e6c792063616c6c61626c6520627920746865206d656368206f706572617460448201527f6f72206f722074686520656e74727920706f696e7420636f6e74726163740000606482015260840161074a565b6040517fd466e70a00000000000000000000000000000000000000000000000000000000815273ffffffffffffffffffffffffffffffffffffffff7f0000000000000000000000000000000000000000000000000000000000000000169063d466e70a906113aa908a908a908a908a908a908a908a90600401612c8c565b5f604051808303815f87803b1580156113c1575f5ffd5b505af11580156113d3573d5f5f3e3d5ffd5b5050505050505050505050565b5f5f5f6113eb611545565b8060200190518101906113fe9190612a3a565b915091505f5f8373ffffffffffffffffffffffffffffffffffffffff16634236aff8846040518263ffffffff1660e01b815260040161143f91815260200190565b60e060405180830381865afa15801561145a573d5f5f3e3d5ffd5b505050506040513d601f19601f8201168201806040525081019061147e9190612d2f565b9650505050509250506004600581111561149a5761149a612dc6565b8160058111156114ac576114ac612dc6565b14611500578060058111156114c3576114c3612dc6565b6040517ff014fe7400000000000000000000000000000000000000000000000000000000815260048101919091526024810184905260440161074a565b509392505050565b5f611511611545565b8060200190518101906115249190612df3565b905090565b5f5f5f61153887878787611dd5565b9150915061126f81611ebd565b606061152461160f6040517fd60000000000000000000000000000000000000000000000000000000000000060208201527f940000000000000000000000000000000000000000000000000000000000000060218201527fffffffffffffffffffffffffffffffffffffffff0000000000000000000000003060601b1660228201527f010000000000000000000000000000000000000000000000000000000000000060368201525f90603701604051602081830303815290604052805190602001205f1c905090565b61206f565b33730576a174d229e3cfa37253523e645a78a0c91b5714611691576040517f08c379a000000000000000000000000000000000000000000000000000000000815260206004820152601c60248201527f6163636f756e743a206e6f742066726f6d20456e747279506f696e7400000000604482015260640161074a565b565b7f19457468657265756d205369676e6564204d6573736167653a0a3332000000005f908152601c829052603c81207f1626ba7e0000000000000000000000000000000000000000000000000000000061172d826116f4610140880188612a66565b8080601f0160208091040260200160405190810160405280939291908181526020018383808284375f9201919091525061084b92505050565b7fffffffff00000000000000000000000000000000000000000000000000000000161461175e5760019150506109e8565b505f9392505050565b5f80546020830135918061177a83612c55565b91905055146110af576040517f08c379a000000000000000000000000000000000000000000000000000000000815260206004820152600d60248201527f496e76616c6964206e6f6e636500000000000000000000000000000000000000604482015260640161074a565b80156110af576040515f9033907fffffffffffffffffffffffffffffffffffffffffffffffffffffffffffffffff90849084818181858888f193505050503d805f811461184d576040519150601f19603f3d011682016040523d82523d5f602084013e611852565b606091505b5050505050565b81516060908067ffffffffffffffff81111561187757611877612238565b6040519080825280602002602001820160405280156118aa57816020015b60608152602001906001900390816118955790505b5091505f805b82811015611a0b575f8682815181106118cb576118cb6129b6565b602002602001015190506118f8818784815181106118eb576118eb6129b6565b6020026020010151919050565b85838151811061190a5761190a6129b6565b6020908102919091018101919091525f828152600690915260408082208151808301928390529160029082845b8154815260200190600101908083116119375750505050509050805f60028110611963576119636129b6565b602002015115801561197757506020810151155b80156119ac57505f805260066020527f54cdd369e4e8a8515e52ca72ec816c2101831ad1f18bf44102ed171459c9b4f8548214155b156119b8575050611a03565b836119c281612c55565b6020838101805185515f9081526006909352604080842060019081019290925595519151835285832091909155948152928320838155909301919091555091505b6001016118b0565b508060025f828254611a1d9190612e0e565b909155509295945050505050565b5f611a35826120c4565b90505f8151602083015ff09050611b076040517fd60000000000000000000000000000000000000000000000000000000000000060208201527f940000000000000000000000000000000000000000000000000000000000000060218201527fffffffffffffffffffffffffffffffffffffffff0000000000000000000000003060601b1660228201527f010000000000000000000000000000000000000000000000000000000000000060368201525f90603701604051602081830303815290604052805190602001205f1c905090565b73ffffffffffffffffffffffffffffffffffffffff168173ffffffffffffffffffffffffffffffffffffffff1614611b9b576040517f08c379a000000000000000000000000000000000000000000000000000000000815260206004820152600c60248201527f5772697465206661696c65640000000000000000000000000000000000000000604482015260640161074a565b505050565b81515f5b8351811015611c9e575f848281518110611bc057611bc06129b6565b60209081029190910181015160069091525f81815260408082207f54cdd369e4e8a8515e52ca72ec816c2101831ad1f18bf44102ed171459c9b4f9805460018301819055908590558084529190922083905586519293507f54cdd369e4e8a8515e52ca72ec816c2101831ad1f18bf44102ed171459c9b4f89230907f1ebd17f97038d3a14148566de635eab9901371bf904262f5498331b0c62921ce9086908a9089908110611c7157611c716129b6565b6020026020010151604051611c879291906129e3565b60405180910390a250505050806001019050611ba4565b508060025f828254611cb09190612af4565b925050819055508060035f828254611cc89190612af4565b9091555050505050565b5f60606001846001811115611ce957611ce9612dc6565b03611d5d578673ffffffffffffffffffffffffffffffffffffffff168386604051611d149190612e38565b5f604051808303818686f4925050503d805f8114611d4d576040519150601f19603f3d011682016040523d82523d5f602084013e611d52565b606091505b509092509050611dcb565b8673ffffffffffffffffffffffffffffffffffffffff16838787604051611d849190612e38565b5f60405180830381858888f193505050503d805f8114611dbf576040519150601f19603f3d011682016040523d82523d5f602084013e611dc4565b606091505b5090925090505b9550959350505050565b5f807f7fffffffffffffffffffffffffffffff5d576e7357a4501ddfe92f46681b20a0831115611e0a57505f90506003611eb4565b604080515f8082526020820180845289905260ff881692820192909252606081018690526080810185905260019060a0016020604051602081039080840390855afa158015611e5b573d5f5f3e3d5ffd5b50506040517fffffffffffffffffffffffffffffffffffffffffffffffffffffffffffffffe0015191505073ffffffffffffffffffffffffffffffffffffffff8116611eae575f60019250925050611eb4565b91505f90505b94509492505050565b5f816004811115611ed057611ed0612dc6565b03611ed85750565b6001816004811115611eec57611eec612dc6565b03611f53576040517f08c379a000000000000000000000000000000000000000000000000000000000815260206004820152601860248201527f45434453413a20696e76616c6964207369676e61747572650000000000000000604482015260640161074a565b6002816004811115611f6757611f67612dc6565b03611fce576040517f08c379a000000000000000000000000000000000000000000000000000000000815260206004820152601f60248201527f45434453413a20696e76616c6964207369676e6174757265206c656e67746800604482015260640161074a565b6003816004811115611fe257611fe2612dc6565b036110af576040517f08c379a000000000000000000000000000000000000000000000000000000000815260206004820152602260248201527f45434453413a20696e76616c6964207369676e6174757265202773272076616c60448201527f7565000000000000000000000000000000000000000000000000000000000000606482015260840161074a565b6060813b6001811161209057505060408051602081019091525f8152919050565b8061209a81612e43565b9150506040519150601f19601f602083010116820160405280825280600160208401853c50919050565b6060815160016120d49190612af4565b826040516020016120e6929190612e77565b6040516020818303038152906040529050919050565b73ffffffffffffffffffffffffffffffffffffffff811681146110af575f5ffd5b8035612128816120fc565b919050565b5f5f83601f84011261213d575f5ffd5b50813567ffffffffffffffff811115612154575f5ffd5b60208301915083602082850101111561216b575f5ffd5b9250929050565b5f5f5f5f5f5f5f5f60c0898b031215612189575f5ffd5b8835612194816120fc565b975060208901356121a4816120fc565b965060408901356121b4816120fc565b955060608901359450608089013567ffffffffffffffff8111156121d6575f5ffd5b6121e28b828c0161212d565b90955093505060a089013567ffffffffffffffff811115612201575f5ffd5b61220d8b828c0161212d565b999c989b5096995094979396929594505050565b5f60208284031215612231575f5ffd5b5035919050565b7f4e487b71000000000000000000000000000000000000000000000000000000005f52604160045260245ffd5b604051601f82017fffffffffffffffffffffffffffffffffffffffffffffffffffffffffffffffe016810167ffffffffffffffff811182821017156122ac576122ac612238565b604052919050565b5f67ffffffffffffffff8211156122cd576122cd612238565b5060051b60200190565b5f82601f8301126122e6575f5ffd5b81356122f96122f4826122b4565b612265565b8082825260208201915060208360051b86010192508583111561231a575f5ffd5b602085015b8381101561126f57803583526020928301920161231f565b5f60208284031215612347575f5ffd5b813567ffffffffffffffff81111561235d575f5ffd5b612369848285016122d7565b949350505050565b5f8151808452602084019350602083015f5b828110156123a1578151865260209586019590910190600101612383565b5093949350505050565b602081525f610a466020830184612371565b5f5f5f5f5f608086880312156123d1575f5ffd5b85356123dc816120fc565b945060208601356123ec816120fc565b935060408601359250606086013567ffffffffffffffff81111561240e575f5ffd5b61241a8882890161212d565b969995985093965092949392505050565b5f82601f83011261243a575f5ffd5b813567ffffffffffffffff81111561245457612454612238565b61248560207fffffffffffffffffffffffffffffffffffffffffffffffffffffffffffffffe0601f84011601612265565b818152846020838601011115612499575f5ffd5b816020850160208301375f918101602001919091529392505050565b5f5f604083850312156124c6575f5ffd5b82359150602083013567ffffffffffffffff8111156124e3575f5ffd5b6124ef8582860161242b565b9150509250929050565b5f5f5f6060848603121561250b575f5ffd5b833567ffffffffffffffff811115612521575f5ffd5b84016101608187031215612533575f5ffd5b95602085013595506040909401359392505050565b5f5f60408385031215612559575f5ffd5b50508035926020909101359150565b5f60208284031215612578575f5ffd5b8135610a46816120fc565b5f82601f830112612592575f5ffd5b81356125a06122f4826122b4565b8082825260208201915060208360051b8601019250858311156125c1575f5ffd5b602085015b8381101561126f57803567ffffffffffffffff8111156125e4575f5ffd5b6125f3886020838a010161242b565b845250602092830192016125c6565b5f5f60408385031215612613575f5ffd5b823567ffffffffffffffff811115612629575f5ffd5b612635858286016122d7565b925050602083013567ffffffffffffffff811115612651575f5ffd5b6124ef85828601612583565b5f6020828403121561266d575f5ffd5b813567ffffffffffffffff811115612683575f5ffd5b6123698482850161242b565b5f5f83601f84011261269f575f5ffd5b50813567ffffffffffffffff8111156126b6575f5ffd5b6020830191508360208260051b850101111561216b575f5ffd5b5f5f5f5f5f5f5f5f60a0898b0312156126e7575f5ffd5b88356126f2816120fc565b97506020890135612702816120fc565b9650604089013567ffffffffffffffff81111561271d575f5ffd5b6127298b828c0161268f565b909750955050606089013567ffffffffffffffff811115612748575f5ffd5b6127548b828c0161268f565b909550935050608089013567ffffffffffffffff811115612201575f5ffd5b5f5f5f5f5f60a08688031215612787575f5ffd5b8535612792816120fc565b945060208601359350604086013567ffffffffffffffff8111156127b4575f5ffd5b6127c08882890161242b565b9350506060860135600281106127d4575f5ffd5b949793965091946080013592915050565b5f81518084528060208401602086015e5f6020828601015260207fffffffffffffffffffffffffffffffffffffffffffffffffffffffffffffffe0601f83011685010191505092915050565b602081525f610a4660208301846127e5565b5f5f5f5f5f5f5f60e0888a031215612859575f5ffd5b6128628861211d565b965060208801359550604088013567ffffffffffffffff811115612884575f5ffd5b6128908a828b01612583565b955050606088013567ffffffffffffffff8111156128ac575f5ffd5b6128b88a828b01612583565b945050608088013567ffffffffffffffff8111156128d4575f5ffd5b6128e08a828b01612583565b93505060a088013567ffffffffffffffff8111156128fc575f5ffd5b6129088a828b016122d7565b92505060c088013567ffffffffffffffff811115612924575f5ffd5b6129308a828b0161242b565b91505092959891949750929550565b5f5f5f5f5f5f60a08789031215612954575f5ffd5b863561295f816120fc565b9550602087013561296f816120fc565b94506040870135935060608701359250608087013567ffffffffffffffff811115612998575f5ffd5b6129a489828a0161212d565b979a9699509497509295939492505050565b7f4e487b71000000000000000000000000000000000000000000000000000000005f52603260045260245ffd5b828152604060208201525f61236960408301846127e5565b5f60208284031215612a0b575f5ffd5b81517fffffffff0000000000000000000000000000000000000000000000000000000081168114610a46575f5ffd5b5f5f60408385031215612a4b575f5ffd5b8251612a56816120fc565b6020939093015192949293505050565b5f5f83357fffffffffffffffffffffffffffffffffffffffffffffffffffffffffffffffe1843603018112612a99575f5ffd5b83018035915067ffffffffffffffff821115612ab3575f5ffd5b60200191503681900382131561216b575f5ffd5b7f4e487b71000000000000000000000000000000000000000000000000000000005f52601160045260245ffd5b808201808211156109e8576109e8612ac7565b5f82825180855260208501945060208160051b830101602085015f5b83811015612b73577fffffffffffffffffffffffffffffffffffffffffffffffffffffffffffffffe0858403018852612b5d8383516127e5565b6020988901989093509190910190600101612b23565b50909695505050505050565b606081525f612b916060830186612371565b8281036020840152612ba38186612371565b90508281036040840152612bb78185612b07565b9695505050505050565b5f60208284031215612bd1575f5ffd5b815167ffffffffffffffff811115612be7575f5ffd5b8201601f81018413612bf7575f5ffd5b8051612c056122f4826122b4565b8082825260208201915060208360051b850101925086831115612c26575f5ffd5b6020840193505b82841015612bb75783518015158114612c44575f5ffd5b825260209384019390910190612c2d565b5f7fffffffffffffffffffffffffffffffffffffffffffffffffffffffffffffffff8203612c8557612c85612ac7565b5060010190565b73ffffffffffffffffffffffffffffffffffffffff8816815286602082015260e060408201525f612cc060e0830188612b07565b8281036060840152612cd28188612b07565b90508281036080840152612ce68187612b07565b905082810360a0840152612cfa8186612371565b905082810360c0840152612d0e81856127e5565b9a9950505050505050505050565b805163ffffffff81168114612128575f5ffd5b5f5f5f5f5f5f5f60e0888a031215612d45575f5ffd5b87516bffffffffffffffffffffffff81168114612d60575f5ffd5b6020890151909750612d71816120fc565b60408901519096509450612d8760608901612d1c565b9350612d9560808901612d1c565b9250612da360a08901612d1c565b915060c088015160068110612db6575f5ffd5b8091505092959891949750929550565b7f4e487b71000000000000000000000000000000000000000000000000000000005f52602160045260245ffd5b5f60208284031215612e03575f5ffd5b8151610a46816120fc565b818103818111156109e8576109e8612ac7565b5f81518060208401855e5f93019283525090919050565b5f610a468284612e21565b5f81612e5157612e51612ac7565b507fffffffffffffffffffffffffffffffffffffffffffffffffffffffffffffffff0190565b7f630000000000000000000000000000000000000000000000000000000000000081527fffffffff000000000000000000000000000000000000000000000000000000008360e01b1660018201527f80600e6000396000f3000000000000000000000000000000000000000000000060058201525f600e8201525f612369600f830184612e2156fea2646970667358221220b7ad21dfe8ac94a3ae3fbe01d031110b0915ceaf1e2cc9c5a1ae6ec30440593a64736f6c634300081c0033",
  "linkReferences": {},
  "deployedLinkReferences": {}
}