{
  "_format": "hh-sol-artifact-1",
  "contractName": "MechMarketplace",
  "sourceName": "contracts/MechMarketplace.sol",
  "abi": [
    {
      "inputs": [
        {
          "internalType": "address",
          "name": "_serviceRegistry",
          "type": "address"
        },
        {
          "internalType": "address",
          "name": "_stakingFactory",
          "type": "address"
        },
        {
          "internalType": "address",
          "name": "_karma",
          "type": "address"
        },
        {
          "internalType": "address",
          "name": "_wrappedNativeToken",
          "type": "address"
        },
        {
          "internalType": "address",
          "name": "_buyBackBurner",
          "type": "address"
        }
      ],
      "stateMutability": "nonpayable",
      "type": "constructor"
    },
    {
      "inputs": [
        {
          "internalType": "uint256",
          "name": "requestId",
          "type": "uint256"
        }
      ],
      "name": "AlreadyDelivered",
      "type": "error"
    },
    {
      "inputs": [],
      "name": "AlreadyInitialized",
      "type": "error"
    },
    {
      "inputs": [
        {
          "internalType": "address",
          "name": "account",
          "type": "address"
        }
      ],
      "name": "NotContract",
      "type": "error"
    },
    {
      "inputs": [
        {
          "internalType": "uint256",
          "name": "provided",
          "type": "uint256"
        },
        {
          "internalType": "uint256",
          "name": "expected",
          "type": "uint256"
        }
      ],
      "name": "NotEnoughPaid",
      "type": "error"
    },
    {
      "inputs": [
        {
          "internalType": "uint256",
          "name": "provided",
          "type": "uint256"
        },
        {
          "internalType": "uint256",
          "name": "min",
          "type": "uint256"
        },
        {
          "internalType": "uint256",
          "name": "max",
          "type": "uint256"
        }
      ],
      "name": "OutOfBounds",
      "type": "error"
    },
    {
      "inputs": [
        {
          "internalType": "uint256",
          "name": "provided",
          "type": "uint256"
        },
        {
          "internalType": "uint256",
          "name": "max",
          "type": "uint256"
        }
      ],
      "name": "Overflow",
      "type": "error"
    },
    {
      "inputs": [
        {
          "internalType": "address",
          "name": "sender",
          "type": "address"
        },
        {
          "internalType": "address",
          "name": "owner",
          "type": "address"
        }
      ],
      "name": "OwnerOnly",
      "type": "error"
    },
    {
      "inputs": [
        {
          "internalType": "uint256",
          "name": "expected",
          "type": "uint256"
        },
        {
          "internalType": "uint256",
          "name": "current",
          "type": "uint256"
        }
      ],
      "name": "PriorityMechResponseTimeout",
      "type": "error"
    },
    {
      "inputs": [],
      "name": "ReentrancyGuard",
      "type": "error"
    },
    {
      "inputs": [
        {
          "internalType": "uint256",
          "name": "requestId",
          "type": "uint256"
        }
      ],
      "name": "RequestIdNotFound",
      "type": "error"
    },
    {
      "inputs": [
        {
          "internalType": "uint256",
          "name": "requestId",
          "type": "uint256"
        }
      ],
      "name": "RequestPaid",
      "type": "error"
    },
    {
      "inputs": [
        {
          "internalType": "address",
          "name": "stakingInstance",
          "type": "address"
        },
        {
          "internalType": "uint256",
          "name": "serviceId",
          "type": "uint256"
        }
      ],
      "name": "ServiceNotStaked",
      "type": "error"
    },
    {
      "inputs": [
        {
          "internalType": "address",
          "name": "token",
          "type": "address"
        },
        {
          "internalType": "address",
          "name": "from",
          "type": "address"
        },
        {
          "internalType": "address",
          "name": "to",
          "type": "address"
        },
        {
          "internalType": "uint256",
          "name": "amount",
          "type": "uint256"
        }
      ],
      "name": "TransferFailed",
      "type": "error"
    },
    {
      "inputs": [
        {
          "internalType": "address",
          "name": "account",
          "type": "address"
        }
      ],
      "name": "UnauthorizedAccount",
      "type": "error"
    },
    {
      "inputs": [
        {
          "internalType": "uint256",
          "name": "numValues1",
          "type": "uint256"
        },
        {
          "internalType": "uint256",
          "name": "numValues2",
          "type": "uint256"
        }
      ],
      "name": "WrongArrayLength",
      "type": "error"
    },
    {
      "inputs": [
        {
          "internalType": "uint256",
          "name": "state",
          "type": "uint256"
        },
        {
          "internalType": "uint256",
          "name": "serviceId",
          "type": "uint256"
        }
      ],
      "name": "WrongServiceState",
      "type": "error"
    },
    {
      "inputs": [],
      "name": "ZeroAddress",
      "type": "error"
    },
    {
      "inputs": [],
      "name": "ZeroValue",
      "type": "error"
    },
    {
      "anonymous": false,
      "inputs": [
        {
          "indexed": true,
          "internalType": "address",
          "name": "mech",
          "type": "address"
        },
        {
          "indexed": true,
          "internalType": "uint256",
          "name": "serviceId",
          "type": "uint256"
        }
      ],
      "name": "CreateMech",
      "type": "event"
    },
    {
      "anonymous": false,
      "inputs": [
        {
          "indexed": true,
          "internalType": "uint256",
          "name": "requestId",
          "type": "uint256"
        },
        {
          "indexed": true,
          "internalType": "address",
          "name": "deliveryMech",
          "type": "address"
        },
        {
          "indexed": false,
          "internalType": "uint256",
          "name": "payment",
          "type": "uint256"
        },
        {
          "indexed": false,
          "internalType": "uint256",
          "name": "fee",
          "type": "uint256"
        }
      ],
      "name": "DeliveryPaymentProcessed",
      "type": "event"
    },
    {
      "anonymous": false,
      "inputs": [
        {
          "indexed": false,
          "internalType": "uint256",
          "name": "collectedFees",
          "type": "uint256"
        }
      ],
      "name": "Drained",
      "type": "event"
    },
    {
      "anonymous": false,
      "inputs": [
        {
          "indexed": true,
          "internalType": "address",
          "name": "implementation",
          "type": "address"
        }
      ],
      "name": "ImplementationUpdated",
      "type": "event"
    },
    {
      "anonymous": false,
      "inputs": [
        {
          "indexed": true,
          "internalType": "address",
          "name": "priorityMech",
          "type": "address"
        },
        {
          "indexed": true,
          "internalType": "address",
          "name": "actualMech",
          "type": "address"
        },
        {
          "indexed": true,
          "internalType": "address",
          "name": "requester",
          "type": "address"
        },
        {
          "indexed": false,
          "internalType": "uint256",
          "name": "requestId",
          "type": "uint256"
        },
        {
          "indexed": false,
          "internalType": "bytes",
          "name": "data",
          "type": "bytes"
        },
        {
          "indexed": false,
          "internalType": "uint256",
          "name": "mechPayment",
          "type": "uint256"
        },
        {
          "indexed": false,
          "internalType": "uint256",
          "name": "marketplaceFee",
          "type": "uint256"
        }
      ],
      "name": "MarketplaceDeliver",
      "type": "event"
    },
    {
      "anonymous": false,
      "inputs": [
        {
          "indexed": false,
          "internalType": "uint256",
          "name": "fee",
          "type": "uint256"
        },
        {
          "indexed": false,
          "internalType": "uint256",
          "name": "minResponseTimeout",
          "type": "uint256"
        },
        {
          "indexed": false,
          "internalType": "uint256",
          "name": "maxResponseTimeout",
          "type": "uint256"
        }
      ],
      "name": "MarketplaceParamsUpdated",
      "type": "event"
    },
    {
      "anonymous": false,
      "inputs": [
        {
          "indexed": true,
          "internalType": "address",
          "name": "requester",
          "type": "address"
        },
        {
          "indexed": true,
          "internalType": "address",
          "name": "requestedMech",
          "type": "address"
        },
        {
          "indexed": false,
          "internalType": "uint256",
          "name": "requestId",
          "type": "uint256"
        },
        {
          "indexed": false,
          "internalType": "bytes",
          "name": "data",
          "type": "bytes"
        }
      ],
      "name": "MarketplaceRequest",
      "type": "event"
    },
    {
      "anonymous": false,
      "inputs": [
        {
          "indexed": true,
          "internalType": "address",
          "name": "owner",
          "type": "address"
        }
      ],
      "name": "OwnerUpdated",
      "type": "event"
    },
    {
      "anonymous": false,
      "inputs": [
        {
          "indexed": false,
          "internalType": "address[]",
          "name": "mechFactories",
          "type": "address[]"
        },
        {
          "indexed": false,
          "internalType": "bool[]",
          "name": "statuses",
          "type": "bool[]"
        }
      ],
      "name": "SetMechFactoryStatuses",
      "type": "event"
    },
    {
      "anonymous": false,
      "inputs": [
        {
          "indexed": true,
          "internalType": "address",
          "name": "mech",
          "type": "address"
        },
        {
          "indexed": false,
          "internalType": "uint256",
          "name": "amount",
          "type": "uint256"
        }
      ],
      "name": "Withdraw",
      "type": "event"
    },
    {
      "inputs": [],
      "name": "DOMAIN_SEPARATOR_TYPE_HASH",
      "outputs": [
        {
          "internalType": "bytes32",
          "name": "",
          "type": "bytes32"
        }
      ],
      "stateMutability": "view",
      "type": "function"
    },
    {
      "inputs": [],
      "name": "MECH_MARKETPLACE_PROXY",
      "outputs": [
        {
          "internalType": "bytes32",
          "name": "",
          "type": "bytes32"
        }
      ],
      "stateMutability": "view",
      "type": "function"
    },
    {
      "inputs": [],
      "name": "VERSION",
      "outputs": [
        {
          "internalType": "string",
          "name": "",
          "type": "string"
        }
      ],
      "stateMutability": "view",
      "type": "function"
    },
    {
      "inputs": [],
      "name": "buyBackBurner",
      "outputs": [
        {
          "internalType": "address",
          "name": "",
          "type": "address"
        }
      ],
      "stateMutability": "view",
      "type": "function"
    },
    {
      "inputs": [],
      "name": "chainId",
      "outputs": [
        {
          "internalType": "uint256",
          "name": "",
          "type": "uint256"
        }
      ],
      "stateMutability": "view",
      "type": "function"
    },
    {
      "inputs": [
        {
          "internalType": "address",
          "name": "newImplementation",
          "type": "address"
        }
      ],
      "name": "changeImplementation",
      "outputs": [],
      "stateMutability": "nonpayable",
      "type": "function"
    },
    {
      "inputs": [
        {
          "internalType": "uint256",
          "name": "newFee",
          "type": "uint256"
        },
        {
          "internalType": "uint256",
          "name": "newMinResponseTimeout",
          "type": "uint256"
        },
        {
          "internalType": "uint256",
          "name": "newMaxResponseTimeout",
          "type": "uint256"
        }
      ],
      "name": "changeMarketplaceParams",
      "outputs": [],
      "stateMutability": "nonpayable",
      "type": "function"
    },
    {
      "inputs": [
        {
          "internalType": "address",
          "name": "newOwner",
          "type": "address"
        }
      ],
      "name": "changeOwner",
      "outputs": [],
      "stateMutability": "nonpayable",
      "type": "function"
    },
    {
      "inputs": [
        {
          "internalType": "address",
          "name": "mech",
          "type": "address"
        },
        {
          "internalType": "address",
          "name": "mechStakingInstance",
          "type": "address"
        },
        {
          "internalType": "uint256",
          "name": "mechServiceId",
          "type": "uint256"
        }
      ],
      "name": "checkMech",
      "outputs": [
        {
          "internalType": "address",
          "name": "multisig",
          "type": "address"
        }
      ],
      "stateMutability": "view",
      "type": "function"
    },
    {
      "inputs": [
        {
          "internalType": "address",
          "name": "requester",
          "type": "address"
        },
        {
          "internalType": "address",
          "name": "requesterStakingInstance",
          "type": "address"
        },
        {
          "internalType": "uint256",
          "name": "requesterServiceId",
          "type": "uint256"
        }
      ],
      "name": "checkRequester",
      "outputs": [],
      "stateMutability": "view",
      "type": "function"
    },
    {
      "inputs": [
        {
          "internalType": "address",
          "name": "stakingInstance",
          "type": "address"
        },
        {
          "internalType": "uint256",
          "name": "serviceId",
          "type": "uint256"
        }
      ],
      "name": "checkServiceAndGetMultisig",
      "outputs": [
        {
          "internalType": "address",
          "name": "multisig",
          "type": "address"
        }
      ],
      "stateMutability": "view",
      "type": "function"
    },
    {
      "inputs": [
        {
          "internalType": "address",
          "name": "stakingInstance",
          "type": "address"
        },
        {
          "internalType": "uint256",
          "name": "serviceId",
          "type": "uint256"
        }
      ],
      "name": "checkStakingInstance",
      "outputs": [],
      "stateMutability": "view",
      "type": "function"
    },
    {
      "inputs": [],
      "name": "collectedFees",
      "outputs": [
        {
          "internalType": "uint256",
          "name": "",
          "type": "uint256"
        }
      ],
      "stateMutability": "view",
      "type": "function"
    },
    {
      "inputs": [
        {
          "internalType": "uint256",
          "name": "serviceId",
          "type": "uint256"
        },
        {
          "internalType": "address",
          "name": "mechFactory",
          "type": "address"
        },
        {
          "internalType": "bytes",
          "name": "payload",
          "type": "bytes"
        }
      ],
      "name": "create",
      "outputs": [
        {
          "internalType": "address",
          "name": "mech",
          "type": "address"
        }
      ],
      "stateMutability": "nonpayable",
      "type": "function"
    },
    {
      "inputs": [
        {
          "internalType": "uint256",
          "name": "requestId",
          "type": "uint256"
        },
        {
          "internalType": "bytes",
          "name": "requestData",
          "type": "bytes"
        },
        {
          "internalType": "address",
          "name": "deliveryMechStakingInstance",
          "type": "address"
        },
        {
          "internalType": "uint256",
          "name": "deliveryMechServiceId",
          "type": "uint256"
        }
      ],
      "name": "deliverMarketplace",
      "outputs": [],
      "stateMutability": "nonpayable",
      "type": "function"
    },
    {
      "inputs": [],
      "name": "domainSeparator",
      "outputs": [
        {
          "internalType": "bytes32",
          "name": "",
          "type": "bytes32"
        }
      ],
      "stateMutability": "view",
      "type": "function"
    },
    {
      "inputs": [],
      "name": "drain",
      "outputs": [],
      "stateMutability": "nonpayable",
      "type": "function"
    },
    {
      "inputs": [],
      "name": "fee",
      "outputs": [
        {
          "internalType": "uint256",
          "name": "",
          "type": "uint256"
        }
      ],
      "stateMutability": "view",
      "type": "function"
    },
    {
      "inputs": [
        {
          "internalType": "address",
          "name": "agentMech",
          "type": "address"
        }
      ],
      "name": "getAgentMechDeliveriesCount",
      "outputs": [
        {
          "internalType": "uint256",
          "name": "",
          "type": "uint256"
        }
      ],
      "stateMutability": "view",
      "type": "function"
    },
    {
      "inputs": [
        {
          "internalType": "address",
          "name": "account",
          "type": "address"
        }
      ],
      "name": "getDeliveriesCount",
      "outputs": [
        {
          "internalType": "uint256",
          "name": "",
          "type": "uint256"
        }
      ],
      "stateMutability": "view",
      "type": "function"
    },
    {
      "inputs": [],
      "name": "getDomainSeparator",
      "outputs": [
        {
          "internalType": "bytes32",
          "name": "",
          "type": "bytes32"
        }
      ],
      "stateMutability": "view",
      "type": "function"
    },
    {
      "inputs": [
        {
          "internalType": "uint256",
          "name": "requestId",
          "type": "uint256"
        }
      ],
      "name": "getMechDeliveryInfo",
      "outputs": [
        {
          "components": [
            {
              "internalType": "address",
              "name": "priorityMech",
              "type": "address"
            },
            {
              "internalType": "address",
              "name": "deliveryMech",
              "type": "address"
            },
            {
              "internalType": "address",
              "name": "requester",
              "type": "address"
            },
            {
              "internalType": "uint256",
              "name": "responseTimeout",
              "type": "uint256"
            },
            {
              "internalType": "uint256",
              "name": "payment",
              "type": "uint256"
            }
          ],
          "internalType": "struct MechDelivery",
          "name": "",
          "type": "tuple"
        }
      ],
      "stateMutability": "view",
      "type": "function"
    },
    {
      "inputs": [
        {
          "internalType": "address",
          "name": "mechServiceMultisig",
          "type": "address"
        }
      ],
      "name": "getMechServiceDeliveriesCount",
      "outputs": [
        {
          "internalType": "uint256",
          "name": "",
          "type": "uint256"
        }
      ],
      "stateMutability": "view",
      "type": "function"
    },
    {
      "inputs": [
        {
          "internalType": "address",
          "name": "account",
          "type": "address"
        },
        {
          "internalType": "bytes",
          "name": "data",
          "type": "bytes"
        },
        {
          "internalType": "uint256",
          "name": "nonce",
          "type": "uint256"
        }
      ],
      "name": "getRequestId",
      "outputs": [
        {
          "internalType": "uint256",
          "name": "requestId",
          "type": "uint256"
        }
      ],
      "stateMutability": "view",
      "type": "function"
    },
    {
      "inputs": [
        {
          "internalType": "uint256",
          "name": "requestId",
          "type": "uint256"
        }
      ],
      "name": "getRequestStatus",
      "outputs": [
        {
          "internalType": "enum MechMarketplace.RequestStatus",
          "name": "status",
          "type": "uint8"
        }
      ],
      "stateMutability": "view",
      "type": "function"
    },
    {
      "inputs": [
        {
          "internalType": "address",
          "name": "account",
          "type": "address"
        }
      ],
      "name": "getRequestsCount",
      "outputs": [
        {
          "internalType": "uint256",
          "name": "",
          "type": "uint256"
        }
      ],
      "stateMutability": "view",
      "type": "function"
    },
    {
      "inputs": [
        {
          "internalType": "uint256",
          "name": "_fee",
          "type": "uint256"
        },
        {
          "internalType": "uint256",
          "name": "_minResponseTimeout",
          "type": "uint256"
        },
        {
          "internalType": "uint256",
          "name": "_maxResponseTimeout",
          "type": "uint256"
        }
      ],
      "name": "initialize",
      "outputs": [],
      "stateMutability": "nonpayable",
      "type": "function"
    },
    {
      "inputs": [],
      "name": "karma",
      "outputs": [
        {
          "internalType": "address",
          "name": "",
          "type": "address"
        }
      ],
      "stateMutability": "view",
      "type": "function"
    },
    {
      "inputs": [
        {
          "internalType": "address",
          "name": "",
          "type": "address"
        }
      ],
      "name": "mapAgentMechDeliveryCounts",
      "outputs": [
        {
          "internalType": "uint256",
          "name": "",
          "type": "uint256"
        }
      ],
      "stateMutability": "view",
      "type": "function"
    },
    {
      "inputs": [
        {
          "internalType": "address",
          "name": "",
          "type": "address"
        }
      ],
      "name": "mapAgentMechFactories",
      "outputs": [
        {
          "internalType": "address",
          "name": "",
          "type": "address"
        }
      ],
      "stateMutability": "view",
      "type": "function"
    },
    {
      "inputs": [
        {
          "internalType": "address",
          "name": "",
          "type": "address"
        }
      ],
      "name": "mapDeliveryCounts",
      "outputs": [
        {
          "internalType": "uint256",
          "name": "",
          "type": "uint256"
        }
      ],
      "stateMutability": "view",
      "type": "function"
    },
    {
      "inputs": [
        {
          "internalType": "address",
          "name": "",
          "type": "address"
        }
      ],
      "name": "mapMechBalances",
      "outputs": [
        {
          "internalType": "uint256",
          "name": "",
          "type": "uint256"
        }
      ],
      "stateMutability": "view",
      "type": "function"
    },
    {
      "inputs": [
        {
          "internalType": "address",
          "name": "",
          "type": "address"
        }
      ],
      "name": "mapMechFactories",
      "outputs": [
        {
          "internalType": "bool",
          "name": "",
          "type": "bool"
        }
      ],
      "stateMutability": "view",
      "type": "function"
    },
    {
      "inputs": [
        {
          "internalType": "address",
          "name": "",
          "type": "address"
        }
      ],
      "name": "mapMechServiceDeliveryCounts",
      "outputs": [
        {
          "internalType": "uint256",
          "name": "",
          "type": "uint256"
        }
      ],
      "stateMutability": "view",
      "type": "function"
    },
    {
      "inputs": [
        {
          "internalType": "address",
          "name": "",
          "type": "address"
        }
      ],
      "name": "mapNonces",
      "outputs": [
        {
          "internalType": "uint256",
          "name": "",
          "type": "uint256"
        }
      ],
      "stateMutability": "view",
      "type": "function"
    },
    {
      "inputs": [
        {
          "internalType": "address",
          "name": "",
          "type": "address"
        }
      ],
      "name": "mapRequestCounts",
      "outputs": [
        {
          "internalType": "uint256",
          "name": "",
          "type": "uint256"
        }
      ],
      "stateMutability": "view",
      "type": "function"
    },
    {
      "inputs": [
        {
          "internalType": "uint256",
          "name": "",
          "type": "uint256"
        }
      ],
      "name": "mapRequestIdDeliveries",
      "outputs": [
        {
          "internalType": "address",
          "name": "priorityMech",
          "type": "address"
        },
        {
          "internalType": "address",
          "name": "deliveryMech",
          "type": "address"
        },
        {
          "internalType": "address",
          "name": "requester",
          "type": "address"
        },
        {
          "internalType": "uint256",
          "name": "responseTimeout",
          "type": "uint256"
        },
        {
          "internalType": "uint256",
          "name": "payment",
          "type": "uint256"
        }
      ],
      "stateMutability": "view",
      "type": "function"
    },
    {
      "inputs": [],
      "name": "maxResponseTimeout",
      "outputs": [
        {
          "internalType": "uint256",
          "name": "",
          "type": "uint256"
        }
      ],
      "stateMutability": "view",
      "type": "function"
    },
    {
      "inputs": [],
      "name": "minResponseTimeout",
      "outputs": [
        {
          "internalType": "uint256",
          "name": "",
          "type": "uint256"
        }
      ],
      "stateMutability": "view",
      "type": "function"
    },
    {
      "inputs": [],
      "name": "numMechs",
      "outputs": [
        {
          "internalType": "uint256",
          "name": "",
          "type": "uint256"
        }
      ],
      "stateMutability": "view",
      "type": "function"
    },
    {
      "inputs": [],
      "name": "numTotalRequests",
      "outputs": [
        {
          "internalType": "uint256",
          "name": "",
          "type": "uint256"
        }
      ],
      "stateMutability": "view",
      "type": "function"
    },
    {
      "inputs": [],
      "name": "numUndeliveredRequests",
      "outputs": [
        {
          "internalType": "uint256",
          "name": "",
          "type": "uint256"
        }
      ],
      "stateMutability": "view",
      "type": "function"
    },
    {
      "inputs": [],
      "name": "owner",
      "outputs": [
        {
          "internalType": "address",
          "name": "",
          "type": "address"
        }
      ],
      "stateMutability": "view",
      "type": "function"
    },
    {
      "inputs": [
        {
          "internalType": "bytes",
          "name": "data",
          "type": "bytes"
        },
        {
          "internalType": "address",
          "name": "priorityMech",
          "type": "address"
        },
        {
          "internalType": "address",
          "name": "priorityMechStakingInstance",
          "type": "address"
        },
        {
          "internalType": "uint256",
          "name": "priorityMechServiceId",
          "type": "uint256"
        },
        {
          "internalType": "address",
          "name": "requesterStakingInstance",
          "type": "address"
        },
        {
          "internalType": "uint256",
          "name": "requesterServiceId",
          "type": "uint256"
        },
        {
          "internalType": "uint256",
          "name": "responseTimeout",
          "type": "uint256"
        }
      ],
      "name": "request",
      "outputs": [
        {
          "internalType": "uint256",
          "name": "requestId",
          "type": "uint256"
        }
      ],
      "stateMutability": "payable",
      "type": "function"
    },
    {
      "inputs": [],
      "name": "serviceRegistry",
      "outputs": [
        {
          "internalType": "address",
          "name": "",
          "type": "address"
        }
      ],
      "stateMutability": "view",
      "type": "function"
    },
    {
      "inputs": [
        {
          "internalType": "address[]",
          "name": "mechFactories",
          "type": "address[]"
        },
        {
          "internalType": "bool[]",
          "name": "statuses",
          "type": "bool[]"
        }
      ],
      "name": "setMechFactoryStatuses",
      "outputs": [],
      "stateMutability": "nonpayable",
      "type": "function"
    },
    {
      "inputs": [
        {
          "internalType": "uint256",
          "name": "",
          "type": "uint256"
        }
      ],
      "name": "setMechs",
      "outputs": [
        {
          "internalType": "address",
          "name": "",
          "type": "address"
        }
      ],
      "stateMutability": "view",
      "type": "function"
    },
    {
      "inputs": [],
      "name": "stakingFactory",
      "outputs": [
        {
          "internalType": "address",
          "name": "",
          "type": "address"
        }
      ],
      "stateMutability": "view",
      "type": "function"
    },
    {
      "inputs": [],
      "name": "withdraw",
      "outputs": [],
      "stateMutability": "nonpayable",
      "type": "function"
    },
    {
      "inputs": [],
      "name": "wrappedNativeToken",
      "outputs": [
        {
          "internalType": "address",
          "name": "",
          "type": "address"
        }
      ],
      "stateMutability": "view",
      "type": "function"
    }
  ],
  "bytecode": "0x6101606040526001600755348015610015575f5ffd5b50604051613c03380380613c03833981016040819052610034916101ca565b6001600160a01b038516158061005157506001600160a01b038416155b8061006357506001600160a01b038316155b8061007557506001600160a01b038216155b8061008757506001600160a01b038116155b156100a55760405163d92e233d60e01b815260040160405180910390fd5b6001600160a01b038086166101005284811660e05283811660c052828116610120528116610140524660a0526100d96100e7565b608052506102609350505050565b5f7f8b73c3c69bb8fe3d512ecc4cf759cc79239f7b179b0ffacaa9a75d522b39400f7ff376b6313a0837eb351511248cfe7dcc1cd26c49b8e0a47e1eb369dd62c425db604051806040016040528060058152602001640312e312e360dc1b815250604051602001610158919061022b565b60408051601f1981840301815282825280516020918201209083019490945281019190915260608101919091524660808201523060a082015260c00160405160208183030381529060405280519060200120905090565b80516001600160a01b03811681146101c5575f5ffd5b919050565b5f5f5f5f5f60a086880312156101de575f5ffd5b6101e7866101af565b94506101f5602087016101af565b9350610203604087016101af565b9250610211606087016101af565b915061021f608087016101af565b90509295509295909350565b602081525f82518060208401528060208501604085015e5f604082850101526040601f19601f83011684010191505092915050565b60805160a05160c05160e0516101005161012051610140516139056102fe5f395f8181610721015261217701525f818161045e015281816121a60152612c7a01525f818161098c0152818161134d015261173001525f818161053e0152610f0101525f81816106ad01528181611a9701528181611cad01526127e101525f81816108090152612a3101525f8181610c2b0152612a6601526139055ff3fe608060405260043610610318575f3560e01c806380d859111161019c578063cbcf252a116100e7578063e679803511610092578063f2e433bf1161006d578063f2e433bf14610ab5578063f5dcb7bb14610be7578063f698da2514610c1a578063ffa1ad7414610c4d575f5ffd5b8063e679803514610a43578063e8eca22d14610a6e578063ed24911d14610aa1575f5ffd5b8063ddca3f43116100c2578063ddca3f4314610a05578063ded8128614610a19578063e0cb19e814610a2e575f5ffd5b8063cbcf252a1461097b578063cbd6407a146109ae578063d8a4676f146109d9575f5ffd5b80639ec4a5bf11610147578063bdf8631711610122578063bdf863171461087c578063c69f6f9f14610891578063cb261bec146108d2575f5ffd5b80639ec4a5bf1461082b578063a6f9dae11461084a578063ad16ee7314610869575f5ffd5b80639003adfe116101775780639003adfe146107cf5780639890220b146107e45780639a8a0592146107f8575f5ffd5b806380d85911146107435780638da5cb5b146107625780638fb847ef1461078e575f5ffd5b8063291347681161026757806356d0819e1161021257806371db00c4116101ed57806371db00c41461067d57806374a8569b1461069c5780637af73473146106cf578063803551a914610710575f5ffd5b806356d0819e146105fe57806357c0762d1461061d57806360b24e0a1461063c575f5ffd5b806346fbcbb21161024257806346fbcbb21461059f5780634ada3e61146105be578063551399bb146105d3575f5ffd5b8063291347681461052d5780633ccfd60b1461056057806343be964314610574575f5ffd5b806317a68dd8116102c75780631a4d8fc8116102a25780631a4d8fc8146104c45780631bbbeeb8146104e3578063203a993c1461050e575f5ffd5b806317a68dd81461042e57806317fcb39b1461044d578063187cc7f2146104a5575f5ffd5b80630ed8078b116102f75780630ed8078b146103bc5780630f41196a146103db57806313999914146103f0575f5ffd5b8062427c541461031c57806305b040b21461035a578063087f08d41461039b575b5f5ffd5b348015610327575f5ffd5b50610347610336366004612e1a565b600a6020525f908152604090205481565b6040519081526020015b60405180910390f35b348015610365575f5ffd5b50610347610374366004612e1a565b73ffffffffffffffffffffffffffffffffffffffff165f908152600b602052604090205490565b3480156103a6575f5ffd5b506103ba6103b5366004612f7d565b610ca2565b005b3480156103c7575f5ffd5b506103ba6103d6366004613042565b610ebc565b3480156103e6575f5ffd5b5061034760015481565b3480156103fb575f5ffd5b5061041e61040a366004612e1a565b600e6020525f908152604090205460ff1681565b6040519015158152602001610351565b348015610439575f5ffd5b506103ba610448366004612e1a565b6110b8565b348015610458575f5ffd5b506104807f000000000000000000000000000000000000000000000000000000000000000081565b60405173ffffffffffffffffffffffffffffffffffffffff9091168152602001610351565b3480156104b0575f5ffd5b506104806104bf36600461306c565b6111df565b3480156104cf575f5ffd5b506103ba6104de366004613083565b611214565b3480156104ee575f5ffd5b506103476104fd366004612e1a565b60096020525f908152604090205481565b348015610519575f5ffd5b50610480610528366004613042565b611300565b348015610538575f5ffd5b506104807f000000000000000000000000000000000000000000000000000000000000000081565b34801561056b575f5ffd5b506103ba61150f565b34801561057f575f5ffd5b5061034761058e366004612e1a565b600c6020525f908152604090205481565b3480156105aa575f5ffd5b506104806105b936600461314b565b61166e565b3480156105c9575f5ffd5b5061034760055481565b3480156105de575f5ffd5b506103476105ed366004612e1a565b600b6020525f908152604090205481565b348015610609575f5ffd5b506103ba6106183660046131a0565b6118a9565b348015610628575f5ffd5b506103ba6106373660046131fd565b611dc0565b348015610647575f5ffd5b50610347610656366004612e1a565b73ffffffffffffffffffffffffffffffffffffffff165f908152600c602052604090205490565b348015610688575f5ffd5b50610480610697366004613083565b611e84565b3480156106a7575f5ffd5b506104807f000000000000000000000000000000000000000000000000000000000000000081565b3480156106da575f5ffd5b506103476106e9366004612e1a565b73ffffffffffffffffffffffffffffffffffffffff165f9081526009602052604090205490565b34801561071b575f5ffd5b506104807f000000000000000000000000000000000000000000000000000000000000000081565b34801561074e575f5ffd5b506103ba61075d3660046131fd565b612024565b34801561076d575f5ffd5b506008546104809073ffffffffffffffffffffffffffffffffffffffff1681565b348015610799575f5ffd5b506103476107a8366004612e1a565b73ffffffffffffffffffffffffffffffffffffffff165f908152600a602052604090205490565b3480156107da575f5ffd5b5061034760035481565b3480156107ef575f5ffd5b506103ba6120ae565b348015610803575f5ffd5b506103477f000000000000000000000000000000000000000000000000000000000000000081565b348015610836575f5ffd5b50610347610845366004613226565b61224c565b348015610855575f5ffd5b506103ba610864366004612e1a565b612302565b61034761087736600461327c565b612430565b348015610887575f5ffd5b5061034760045481565b34801561089c575f5ffd5b506104806108ab366004612e1a565b600f6020525f908152604090205473ffffffffffffffffffffffffffffffffffffffff1681565b3480156108dd575f5ffd5b506109356108ec36600461306c565b600d6020525f90815260409020805460018201546002830154600384015460049094015473ffffffffffffffffffffffffffffffffffffffff9384169492841693909116919085565b6040805173ffffffffffffffffffffffffffffffffffffffff9687168152948616602086015292909416918301919091526060820152608081019190915260a001610351565b348015610986575f5ffd5b506104807f000000000000000000000000000000000000000000000000000000000000000081565b3480156109b9575f5ffd5b506103476109c8366004612e1a565b60116020525f908152604090205481565b3480156109e4575f5ffd5b506109f86109f336600461306c565b61297d565b6040516103519190613336565b348015610a10575f5ffd5b506103475f5481565b348015610a24575f5ffd5b5061034760025481565b348015610a39575f5ffd5b5061034760065481565b348015610a4e575f5ffd5b50610347610a5d366004612e1a565b60106020525f908152604090205481565b348015610a79575f5ffd5b506103477fe6194b93a7bff0a54130ed8cd277223408a77f3e48bb5104a9db96d334f962ca81565b348015610aac575f5ffd5b50610347612a2e565b348015610ac0575f5ffd5b50610b64610acf36600461306c565b6040805160a0810182525f80825260208201819052918101829052606081018290526080810191909152505f908152600d6020908152604091829020825160a081018452815473ffffffffffffffffffffffffffffffffffffffff9081168252600183015481169382019390935260028201549092169282019290925260038201546060820152600490910154608082015290565b60405161035191905f60a08201905073ffffffffffffffffffffffffffffffffffffffff835116825273ffffffffffffffffffffffffffffffffffffffff602084015116602083015273ffffffffffffffffffffffffffffffffffffffff6040840151166040830152606083015160608301526080830151608083015292915050565b348015610bf2575f5ffd5b506103477f8b73c3c69bb8fe3d512ecc4cf759cc79239f7b179b0ffacaa9a75d522b39400f81565b348015610c25575f5ffd5b506103477f000000000000000000000000000000000000000000000000000000000000000081565b348015610c58575f5ffd5b50610c956040518060400160405280600581526020017f312e312e3000000000000000000000000000000000000000000000000000000081525081565b60405161035191906133c1565b60085473ffffffffffffffffffffffffffffffffffffffff163314610d1a576008546040517fa43d6ada00000000000000000000000000000000000000000000000000000000815233600482015273ffffffffffffffffffffffffffffffffffffffff90911660248201526044015b60405180910390fd5b8051825114610d6257815181516040517f8151c11000000000000000000000000000000000000000000000000000000000815260048101929092526024820152604401610d11565b5f5b8251811015610e7e575f73ffffffffffffffffffffffffffffffffffffffff16838281518110610d9657610d966133d3565b602002602001015173ffffffffffffffffffffffffffffffffffffffff1603610deb576040517fd92e233d00000000000000000000000000000000000000000000000000000000815260040160405180910390fd5b818181518110610dfd57610dfd6133d3565b6020026020010151600e5f858481518110610e1a57610e1a6133d3565b60209081029190910181015173ffffffffffffffffffffffffffffffffffffffff1682528101919091526040015f2080547fffffffffffffffffffffffffffffffffffffffffffffffffffffffffffffff0016911515919091179055600101610d64565b507f8cc6be981009d13170c616af494b7d671ed2d84b7e6891e4c8f21fe065c00dfc8282604051610eb0929190613400565b60405180910390a15050565b6040517f479e372e00000000000000000000000000000000000000000000000000000000815273ffffffffffffffffffffffffffffffffffffffff83811660048301527f0000000000000000000000000000000000000000000000000000000000000000169063479e372e90602401602060405180830381865afa158015610f46573d5f5f3e3d5ffd5b505050506040513d601f19601f82011682018060405250810190610f6a9190613498565b610fb8576040517f32b2baa300000000000000000000000000000000000000000000000000000000815273ffffffffffffffffffffffffffffffffffffffff83166004820152602401610d11565b6040517ffd0bba8c000000000000000000000000000000000000000000000000000000008152600481018290525f9073ffffffffffffffffffffffffffffffffffffffff84169063fd0bba8c90602401602060405180830381865afa158015611023573d5f5f3e3d5ffd5b505050506040513d601f19601f8201168201806040525081019061104791906134b3565b9050600181600281111561105d5761105d613309565b146110b3576040517fcaf8924d00000000000000000000000000000000000000000000000000000000815273ffffffffffffffffffffffffffffffffffffffff8416600482015260248101839052604401610d11565b505050565b60085473ffffffffffffffffffffffffffffffffffffffff16331461112b576008546040517fa43d6ada00000000000000000000000000000000000000000000000000000000815233600482015273ffffffffffffffffffffffffffffffffffffffff9091166024820152604401610d11565b73ffffffffffffffffffffffffffffffffffffffff8116611178576040517fd92e233d00000000000000000000000000000000000000000000000000000000815260040160405180910390fd5b7fe6194b93a7bff0a54130ed8cd277223408a77f3e48bb5104a9db96d334f962ca81905560405173ffffffffffffffffffffffffffffffffffffffff8216907f310ba5f1d2ed074b51e2eccd052a47ae9ab7c6b800d1fca3db3999d6a592ca03905f90a250565b601281815481106111ee575f80fd5b5f9182526020909120015473ffffffffffffffffffffffffffffffffffffffff16905081565b80156112b2575f6112258383611300565b90508373ffffffffffffffffffffffffffffffffffffffff168173ffffffffffffffffffffffffffffffffffffffff16146112ac576040517fa43d6ada00000000000000000000000000000000000000000000000000000000815273ffffffffffffffffffffffffffffffffffffffff808616600483015282166024820152604401610d11565b50505050565b73ffffffffffffffffffffffffffffffffffffffff8216156110b3576040517f7c946ed700000000000000000000000000000000000000000000000000000000815260040160405180910390fd5b5f73ffffffffffffffffffffffffffffffffffffffff831661144b576040517f4236aff8000000000000000000000000000000000000000000000000000000008152600481018390525f907f000000000000000000000000000000000000000000000000000000000000000073ffffffffffffffffffffffffffffffffffffffff1690634236aff89060240160e060405180830381865afa1580156113a7573d5f5f3e3d5ffd5b505050506040513d601f19601f820116820180604052508101906113cb91906134e9565b949750939550600494506113df9350505050565b8160058111156113f1576113f1613309565b146114455780600581111561140857611408613309565b6040517ff014fe74000000000000000000000000000000000000000000000000000000008152600481019190915260248101849052604401610d11565b50611509565b6114558383610ebc565b6040517f82a8ea58000000000000000000000000000000000000000000000000000000008152600481018390525f9073ffffffffffffffffffffffffffffffffffffffff8516906382a8ea58906024015f60405180830381865afa1580156114bf573d5f5f3e3d5ffd5b505050506040513d5f823e601f3d9081017fffffffffffffffffffffffffffffffffffffffffffffffffffffffffffffffe01682016040526115049190810190613580565b519150505b92915050565b6001600754111561154c576040517f8beb9d1600000000000000000000000000000000000000000000000000000000815260040160405180910390fd5b6002600755335f908152601060205260408120549081900361159c576040517f32b2baa3000000000000000000000000000000000000000000000000000000008152336004820152602401610d11565b6040515f90339083908381818185875af1925050503d805f81146115db576040519150601f19603f3d011682016040523d82523d5f602084013e6115e0565b606091505b5050905080611630576040517fcd3f16590000000000000000000000000000000000000000000000000000000081525f600482015230602482015233604482015260648101839052608401610d11565b60405182815233907f884edad9ce6fa2440d8a54cc123490eb96d2768479d49ff9c7366125a94243649060200160405180910390a250506001600755565b73ffffffffffffffffffffffffffffffffffffffff82165f908152600e602052604081205460ff166116e4576040517f32b2baa300000000000000000000000000000000000000000000000000000000815273ffffffffffffffffffffffffffffffffffffffff84166004820152602401610d11565b6040517f2732cb0200000000000000000000000000000000000000000000000000000000815273ffffffffffffffffffffffffffffffffffffffff841690632732cb029061175c9030907f00000000000000000000000000000000000000000000000000000000000000009089908890600401613689565b6020604051808303815f875af1158015611778573d5f5f3e3d5ffd5b505050506040513d601f19601f8201168201806040525081019061179c91906136e3565b905073ffffffffffffffffffffffffffffffffffffffff81166117eb576040517fd92e233d00000000000000000000000000000000000000000000000000000000815260040160405180910390fd5b73ffffffffffffffffffffffffffffffffffffffff8082165f818152600f602052604080822080549488167fffffffffffffffffffffffff0000000000000000000000000000000000000000958616179055601280546001810182558184527fbb8a6a4669ba250d26cd7a459eca9d215f8307e33aebe50379bc5a3617ec344401805490951684179094559254600655915186927f0dab9459b2f129b692750bed5cc716b07a2fb19ba9fe0a0dc378428a6204036791a39392505050565b600160075411156118e6576040517f8beb9d1600000000000000000000000000000000000000000000000000000000815260040160405180910390fd5b60026007555f6118f7338484611e84565b5f868152600d6020526040902080549192509073ffffffffffffffffffffffffffffffffffffffff1680611957576040517fd92e233d00000000000000000000000000000000000000000000000000000000815260040160405180910390fd5b600282015473ffffffffffffffffffffffffffffffffffffffff16338190036119ae576040517f32b2baa3000000000000000000000000000000000000000000000000000000008152336004820152602401610d11565b600183015473ffffffffffffffffffffffffffffffffffffffff1615611a03576040517f5b7e830100000000000000000000000000000000000000000000000000000000815260048101899052602401610d11565b73ffffffffffffffffffffffffffffffffffffffff82163314611baf578260030154421115611b6e576040517f4225d37a00000000000000000000000000000000000000000000000000000000815273ffffffffffffffffffffffffffffffffffffffff83811660048301527fffffffffffffffffffffffffffffffffffffffffffffffffffffffffffffffff60248301527f00000000000000000000000000000000000000000000000000000000000000001690634225d37a906044015f604051808303815f87803b158015611ad8575f5ffd5b505af1158015611aea573d5f5f3e3d5ffd5b50506040517fe7d915cf000000000000000000000000000000000000000000000000000000008152600481018b905273ffffffffffffffffffffffffffffffffffffffff8516925063e7d915cf91506024015f604051808303815f87803b158015611b53575f5ffd5b505af1158015611b65573d5f5f3e3d5ffd5b50505050611baf565b60038301546040517f177d0c790000000000000000000000000000000000000000000000000000000081526004810191909152426024820152604401610d11565b6001830180547fffffffffffffffffffffffff0000000000000000000000000000000000000000163317905560048054905f611bea8361372b565b909155505073ffffffffffffffffffffffffffffffffffffffff81165f908152600a60205260408120805491611c1f8361375f565b9091555050335f908152600b60205260408120805491611c3e8361375f565b909155505073ffffffffffffffffffffffffffffffffffffffff84165f908152600c60205260408120805491611c738361375f565b90915550506040517f4225d37a000000000000000000000000000000000000000000000000000000008152336004820152600160248201527f000000000000000000000000000000000000000000000000000000000000000073ffffffffffffffffffffffffffffffffffffffff1690634225d37a906044015f604051808303815f87803b158015611d03575f5ffd5b505af1158015611d15573d5f5f3e3d5ffd5b505050505f5f611d29338660040154612a88565b915091508273ffffffffffffffffffffffffffffffffffffffff163373ffffffffffffffffffffffffffffffffffffffff168573ffffffffffffffffffffffffffffffffffffffff167f11e005e94e7fe3e65c3476728664cce8c02a074d70cfb51e10f8c7df60f3d6268d8d8787604051611da79493929190613796565b60405180910390a4505060016007555050505050505050565b60085473ffffffffffffffffffffffffffffffffffffffff163314611e33576008546040517fa43d6ada00000000000000000000000000000000000000000000000000000000815233600482015273ffffffffffffffffffffffffffffffffffffffff9091166024820152604401610d11565b611e3e838383612b4a565b60408051848152602081018490529081018290527f64d0972bd5d0c2828d80911b61084d86d61214c3081656ca3a720047a88320359060600160405180910390a1505050565b5f815f03611ebe576040517f7c946ed700000000000000000000000000000000000000000000000000000000815260040160405180910390fd5b73ffffffffffffffffffffffffffffffffffffffff8481165f908152600f602052604090205416611f33576040517f32b2baa300000000000000000000000000000000000000000000000000000000815273ffffffffffffffffffffffffffffffffffffffff85166004820152602401610d11565b611f3d8383611300565b6040517f6d70f7ae00000000000000000000000000000000000000000000000000000000815273ffffffffffffffffffffffffffffffffffffffff808316600483015291925090851690636d70f7ae90602401602060405180830381865afa158015611fab573d5f5f3e3d5ffd5b505050506040513d601f19601f82011682018060405250810190611fcf9190613498565b61201d576040517f32b2baa300000000000000000000000000000000000000000000000000000000815273ffffffffffffffffffffffffffffffffffffffff85166004820152602401610d11565b9392505050565b60085473ffffffffffffffffffffffffffffffffffffffff1615612074576040517f0dc149f000000000000000000000000000000000000000000000000000000000815260040160405180910390fd5b61207f838383612b4a565b5050600880547fffffffffffffffffffffffff0000000000000000000000000000000000000000163317905550565b600160075411156120eb576040517f8beb9d1600000000000000000000000000000000000000000000000000000000815260040160405180910390fd5b60026007556003545f81900361212d576040517f7c946ed700000000000000000000000000000000000000000000000000000000815260040160405180910390fd5b5f60035561213a81612c78565b6040517fa9059cbb00000000000000000000000000000000000000000000000000000000815273ffffffffffffffffffffffffffffffffffffffff7f000000000000000000000000000000000000000000000000000000000000000081166004830152602482018390527f0000000000000000000000000000000000000000000000000000000000000000169063a9059cbb906044016020604051808303815f875af11580156121ec573d5f5f3e3d5ffd5b505050506040513d601f19601f820116820180604052508101906122109190613498565b506040518181527fdef931299fe61d176f949118058530c1f3f539dcb6950b4e372c9b835c33ca079060200160405180910390a1506001600755565b5f612255612a2e565b4285858560405160200161226c94939291906137c1565b604051602081830303815290604052805190602001206040516020016122c49291907f190100000000000000000000000000000000000000000000000000000000000081526002810192909252602282015260420190565b604080517fffffffffffffffffffffffffffffffffffffffffffffffffffffffffffffffe08184030181529190528051602090910120949350505050565b60085473ffffffffffffffffffffffffffffffffffffffff163314612375576008546040517fa43d6ada00000000000000000000000000000000000000000000000000000000815233600482015273ffffffffffffffffffffffffffffffffffffffff9091166024820152604401610d11565b73ffffffffffffffffffffffffffffffffffffffff81166123c2576040517fd92e233d00000000000000000000000000000000000000000000000000000000815260040160405180910390fd5b600880547fffffffffffffffffffffffff00000000000000000000000000000000000000001673ffffffffffffffffffffffffffffffffffffffff83169081179091556040517f4ffd725fc4a22075e9ec71c59edf9c38cdeb588a91b24fc5b61388c5be41282b905f90a250565b5f6001600754111561246e576040517f8beb9d1600000000000000000000000000000000000000000000000000000000815260040160405180910390fd5b600260075573ffffffffffffffffffffffffffffffffffffffff87166124c0576040517fd92e233d00000000000000000000000000000000000000000000000000000000815260040160405180910390fd5b8373ffffffffffffffffffffffffffffffffffffffff168673ffffffffffffffffffffffffffffffffffffffff16148015612510575073ffffffffffffffffffffffffffffffffffffffff861615155b1561255f576040517f32b2baa300000000000000000000000000000000000000000000000000000000815273ffffffffffffffffffffffffffffffffffffffff87166004820152602401610d11565b73ffffffffffffffffffffffffffffffffffffffff871633036125b0576040517f32b2baa3000000000000000000000000000000000000000000000000000000008152336004820152602401610d11565b6001548210806125c1575060025482115b1561260e576001546002546040517feb373cfe0000000000000000000000000000000000000000000000000000000081526004810185905260248101929092526044820152606401610d11565b63ffffffff61261d4284613806565b111561266d5761262d4283613806565b6040517f7ae59685000000000000000000000000000000000000000000000000000000008152600481019190915263ffffffff6024820152604401610d11565b87515f036126a7576040517f7c946ed700000000000000000000000000000000000000000000000000000000815260040160405180910390fd5b6126b2878787611e84565b506126be338585611214565b335f818152601160205260409020546126d991908a9061224c565b335f9081526011602052604081208054929350906126f68361375f565b90915550505f818152600d6020526040902080547fffffffffffffffffffffffff00000000000000000000000000000000000000001673ffffffffffffffffffffffffffffffffffffffff89161781556127504284613806565b60038201556002810180547fffffffffffffffffffffffff00000000000000000000000000000000000000001633908117909155346004808401919091556040517f55e7d0440000000000000000000000000000000000000000000000000000000081529081019190915273ffffffffffffffffffffffffffffffffffffffff8981166024830152600160448301527f000000000000000000000000000000000000000000000000000000000000000016906355e7d044906064015f604051808303815f87803b158015612822575f5ffd5b505af1158015612834573d5f5f3e3d5ffd5b5050335f9081526009602052604081208054935091506128538361375f565b909155505060048054905f6128678361375f565b909155505060058054905f61287b8361375f565b90915550506040517f5f117ea900000000000000000000000000000000000000000000000000000000815273ffffffffffffffffffffffffffffffffffffffff891690635f117ea9906128d890339034908e908890600401613819565b5f604051808303815f87803b1580156128ef575f5ffd5b505af1158015612901573d5f5f3e3d5ffd5b505050508773ffffffffffffffffffffffffffffffffffffffff163373ffffffffffffffffffffffffffffffffffffffff167f4827c9fc8074fe94dd4939d4228739ff43d7072a6504a6f413ffa4967c120175848c60405161296492919061384d565b60405180910390a3506001600755979650505050505050565b5f818152600d60209081526040808320815160a081018352815473ffffffffffffffffffffffffffffffffffffffff908116808352600184015482169583019590955260028301541692810192909252600381015460608301526004015460808201529015612a2857602081015173ffffffffffffffffffffffffffffffffffffffff16612a23578060600151421115612a1a5760029150612a28565b60019150612a28565b600391505b50919050565b5f7f00000000000000000000000000000000000000000000000000000000000000004614612a6357612a5e612cf8565b905090565b507f000000000000000000000000000000000000000000000000000000000000000090565b5f808215612b43576127105f5484612aa0919061386d565b612aaa9190613884565b9050612ab681846138bc565b9150815f03612af1576040517f7c946ed700000000000000000000000000000000000000000000000000000000815260040160405180910390fd5b73ffffffffffffffffffffffffffffffffffffffff84165f9081526010602052604081208054849290612b25908490613806565b925050819055508060035f828254612b3d9190613806565b90915550505b9250929050565b821580612b55575081155b80612b5e575080155b15612b95576040517f7c946ed700000000000000000000000000000000000000000000000000000000815260040160405180910390fd5b612710831115612bdc576040517f7ae59685000000000000000000000000000000000000000000000000000000008152600481018490526127106024820152604401610d11565b80821115612c20576040517f7ae596850000000000000000000000000000000000000000000000000000000081526004810183905260248101829052604401610d11565b63ffffffff811115612c6b576040517f7ae596850000000000000000000000000000000000000000000000000000000081526004810182905263ffffffff6024820152604401610d11565b5f92909255600155600255565b7f000000000000000000000000000000000000000000000000000000000000000073ffffffffffffffffffffffffffffffffffffffff1663d0e30db0826040518263ffffffff1660e01b81526004015f604051808303818588803b158015612cde575f5ffd5b505af1158015612cf0573d5f5f3e3d5ffd5b505050505050565b5f7f8b73c3c69bb8fe3d512ecc4cf759cc79239f7b179b0ffacaa9a75d522b39400f7ff376b6313a0837eb351511248cfe7dcc1cd26c49b8e0a47e1eb369dd62c425db6040518060400160405280600581526020017f312e312e30000000000000000000000000000000000000000000000000000000815250604051602001612d8191906133c1565b604080517fffffffffffffffffffffffffffffffffffffffffffffffffffffffffffffffe081840301815282825280516020918201209083019490945281019190915260608101919091524660808201523060a082015260c00160405160208183030381529060405280519060200120905090565b73ffffffffffffffffffffffffffffffffffffffff81168114612e17575f5ffd5b50565b5f60208284031215612e2a575f5ffd5b813561201d81612df6565b7f4e487b71000000000000000000000000000000000000000000000000000000005f52604160045260245ffd5b60405160c0810167ffffffffffffffff81118282101715612e8557612e85612e35565b60405290565b604051601f82017fffffffffffffffffffffffffffffffffffffffffffffffffffffffffffffffe016810167ffffffffffffffff81118282101715612ed257612ed2612e35565b604052919050565b5f67ffffffffffffffff821115612ef357612ef3612e35565b5060051b60200190565b8015158114612e17575f5ffd5b5f82601f830112612f19575f5ffd5b8135612f2c612f2782612eda565b612e8b565b8082825260208201915060208360051b860101925085831115612f4d575f5ffd5b602085015b83811015612f73578035612f6581612efd565b835260209283019201612f52565b5095945050505050565b5f5f60408385031215612f8e575f5ffd5b823567ffffffffffffffff811115612fa4575f5ffd5b8301601f81018513612fb4575f5ffd5b8035612fc2612f2782612eda565b8082825260208201915060208360051b850101925087831115612fe3575f5ffd5b6020840193505b8284101561300e578335612ffd81612df6565b825260209384019390910190612fea565b9450505050602083013567ffffffffffffffff81111561302c575f5ffd5b61303885828601612f0a565b9150509250929050565b5f5f60408385031215613053575f5ffd5b823561305e81612df6565b946020939093013593505050565b5f6020828403121561307c575f5ffd5b5035919050565b5f5f5f60608486031215613095575f5ffd5b83356130a081612df6565b925060208401356130b081612df6565b929592945050506040919091013590565b5f82601f8301126130d0575f5ffd5b813567ffffffffffffffff8111156130ea576130ea612e35565b61311b60207fffffffffffffffffffffffffffffffffffffffffffffffffffffffffffffffe0601f84011601612e8b565b81815284602083860101111561312f575f5ffd5b816020850160208301375f918101602001919091529392505050565b5f5f5f6060848603121561315d575f5ffd5b83359250602084013561316f81612df6565b9150604084013567ffffffffffffffff81111561318a575f5ffd5b613196868287016130c1565b9150509250925092565b5f5f5f5f608085870312156131b3575f5ffd5b84359350602085013567ffffffffffffffff8111156131d0575f5ffd5b6131dc878288016130c1565b93505060408501356131ed81612df6565b9396929550929360600135925050565b5f5f5f6060848603121561320f575f5ffd5b505081359360208301359350604090920135919050565b5f5f5f60608486031215613238575f5ffd5b833561324381612df6565b9250602084013567ffffffffffffffff81111561325e575f5ffd5b61326a868287016130c1565b93969395505050506040919091013590565b5f5f5f5f5f5f5f60e0888a031215613292575f5ffd5b873567ffffffffffffffff8111156132a8575f5ffd5b6132b48a828b016130c1565b97505060208801356132c581612df6565b955060408801356132d581612df6565b94506060880135935060808801356132ec81612df6565b9699959850939692959460a0840135945060c09093013592915050565b7f4e487b71000000000000000000000000000000000000000000000000000000005f52602160045260245ffd5b602081016004831061336f577f4e487b71000000000000000000000000000000000000000000000000000000005f52602160045260245ffd5b91905290565b5f81518084528060208401602086015e5f6020828601015260207fffffffffffffffffffffffffffffffffffffffffffffffffffffffffffffffe0601f83011685010191505092915050565b602081525f61201d6020830184613375565b7f4e487b71000000000000000000000000000000000000000000000000000000005f52603260045260245ffd5b604080825283519082018190525f9060208501906060840190835b8181101561344f57835173ffffffffffffffffffffffffffffffffffffffff1683526020938401939092019160010161341b565b5050838103602080860191909152855180835291810192508501905f5b8181101561348c578251151584526020938401939092019160010161346c565b50919695505050505050565b5f602082840312156134a8575f5ffd5b815161201d81612efd565b5f602082840312156134c3575f5ffd5b81516003811061201d575f5ffd5b805163ffffffff811681146134e4575f5ffd5b919050565b5f5f5f5f5f5f5f60e0888a0312156134ff575f5ffd5b87516bffffffffffffffffffffffff8116811461351a575f5ffd5b602089015190975061352b81612df6565b60408901519096509450613541606089016134d1565b935061354f608089016134d1565b925061355d60a089016134d1565b915060c088015160068110613570575f5ffd5b8091505092959891949750929550565b5f60208284031215613590575f5ffd5b815167ffffffffffffffff8111156135a6575f5ffd5b820160c081850312156135b7575f5ffd5b6135bf612e62565b81516135ca81612df6565b815260208201516135da81612df6565b6020820152604082015167ffffffffffffffff8111156135f8575f5ffd5b8201601f81018613613608575f5ffd5b8051613616612f2782612eda565b8082825260208201915060208360051b850101925088831115613637575f5ffd5b6020840193505b8284101561365957835182526020938401939091019061363e565b6040850152505050606082810151908201526080808301519082015260a091820151918101919091529392505050565b73ffffffffffffffffffffffffffffffffffffffff8516815273ffffffffffffffffffffffffffffffffffffffff84166020820152826040820152608060608201525f6136d96080830184613375565b9695505050505050565b5f602082840312156136f3575f5ffd5b815161201d81612df6565b7f4e487b71000000000000000000000000000000000000000000000000000000005f52601160045260245ffd5b5f81613739576137396136fe565b507fffffffffffffffffffffffffffffffffffffffffffffffffffffffffffffffff0190565b5f7fffffffffffffffffffffffffffffffffffffffffffffffffffffffffffffffff820361378f5761378f6136fe565b5060010190565b848152608060208201525f6137ae6080830186613375565b6040830194909452506060015292915050565b84815273ffffffffffffffffffffffffffffffffffffffff84166020820152608060408201525f6137f56080830185613375565b905082606083015295945050505050565b80820180821115611509576115096136fe565b73ffffffffffffffffffffffffffffffffffffffff85168152836020820152608060408201525f6137f56080830185613375565b828152604060208201525f6138656040830184613375565b949350505050565b8082028115828204841417611509576115096136fe565b5f826138b7577f4e487b71000000000000000000000000000000000000000000000000000000005f52601260045260245ffd5b500490565b81810381811115611509576115096136fe56fea26469706673582212203f2c770afd56d0571158fed8446df27b410f091c59505b5ff22e6e16c9675dd864736f6c634300081c0033",
  "linkReferences": {},
  "deployedLinkReferences": {}
}