{
  "_format": "hh-sol-artifact-1",
  "contractName": "MechMarketplace",
  "sourceName": "contracts/MechMarketplace.sol",
  "abi": [
    {
      "inputs": [
        {
          "internalType": "address",
          "name": "_serviceRegistry",
          "type": "address"
        },
        {
          "internalType": "address",
          "name": "_karma",
          "type": "address"
        }
      ],
      "stateMutability": "nonpayable",
      "type": "constructor"
    },
    {
      "inputs": [],
      "name": "AlreadyInitialized",
      "type": "error"
    },
    {
      "inputs": [
        {
          "internalType": "bytes32",
          "name": "requestId",
          "type": "bytes32"
        }
      ],
      "name": "AlreadyRequested",
      "type": "error"
    },
    {
      "inputs": [
        {
          "internalType": "bytes",
          "name": "signature",
          "type": "bytes"
        },
        {
          "internalType": "uint256",
          "name": "provided",
          "type": "uint256"
        },
        {
          "internalType": "uint256",
          "name": "expected",
          "type": "uint256"
        }
      ],
      "name": "IncorrectSignatureLength",
      "type": "error"
    },
    {
      "inputs": [
        {
          "internalType": "uint256",
          "name": "current",
          "type": "uint256"
        },
        {
          "internalType": "uint256",
          "name": "required",
          "type": "uint256"
        }
      ],
      "name": "InsufficientBalance",
      "type": "error"
    },
    {
      "inputs": [
        {
          "internalType": "uint256",
          "name": "amount",
          "type": "uint256"
        }
      ],
      "name": "NoDepositAllowed",
      "type": "error"
    },
    {
      "inputs": [
        {
          "internalType": "uint256",
          "name": "provided",
          "type": "uint256"
        },
        {
          "internalType": "uint256",
          "name": "min",
          "type": "uint256"
        },
        {
          "internalType": "uint256",
          "name": "max",
          "type": "uint256"
        }
      ],
      "name": "OutOfBounds",
      "type": "error"
    },
    {
      "inputs": [
        {
          "internalType": "uint256",
          "name": "provided",
          "type": "uint256"
        },
        {
          "internalType": "uint256",
          "name": "max",
          "type": "uint256"
        }
      ],
      "name": "Overflow",
      "type": "error"
    },
    {
      "inputs": [
        {
          "internalType": "address",
          "name": "sender",
          "type": "address"
        },
        {
          "internalType": "address",
          "name": "owner",
          "type": "address"
        }
      ],
      "name": "OwnerOnly",
      "type": "error"
    },
    {
      "inputs": [],
      "name": "ReentrancyGuard",
      "type": "error"
    },
    {
      "inputs": [
        {
          "internalType": "address",
          "name": "requester",
          "type": "address"
        },
        {
          "internalType": "bytes32",
          "name": "msgHash",
          "type": "bytes32"
        },
        {
          "internalType": "bytes",
          "name": "signature",
          "type": "bytes"
        }
      ],
      "name": "SignatureNotValidated",
      "type": "error"
    },
    {
      "inputs": [
        {
          "internalType": "address",
          "name": "token",
          "type": "address"
        },
        {
          "internalType": "address",
          "name": "from",
          "type": "address"
        },
        {
          "internalType": "address",
          "name": "to",
          "type": "address"
        },
        {
          "internalType": "uint256",
          "name": "amount",
          "type": "uint256"
        }
      ],
      "name": "TransferFailed",
      "type": "error"
    },
    {
      "inputs": [
        {
          "internalType": "address",
          "name": "account",
          "type": "address"
        }
      ],
      "name": "UnauthorizedAccount",
      "type": "error"
    },
    {
      "inputs": [
        {
          "internalType": "uint256",
          "name": "numValues1",
          "type": "uint256"
        },
        {
          "internalType": "uint256",
          "name": "numValues2",
          "type": "uint256"
        }
      ],
      "name": "WrongArrayLength",
      "type": "error"
    },
    {
      "inputs": [
        {
          "internalType": "bytes32",
          "name": "paymentType",
          "type": "bytes32"
        }
      ],
      "name": "WrongPaymentType",
      "type": "error"
    },
    {
      "inputs": [
        {
          "internalType": "uint256",
          "name": "state",
          "type": "uint256"
        },
        {
          "internalType": "uint256",
          "name": "serviceId",
          "type": "uint256"
        }
      ],
      "name": "WrongServiceState",
      "type": "error"
    },
    {
      "inputs": [],
      "name": "ZeroAddress",
      "type": "error"
    },
    {
      "inputs": [],
      "name": "ZeroValue",
      "type": "error"
    },
    {
      "anonymous": false,
      "inputs": [
        {
          "indexed": true,
          "internalType": "address",
          "name": "mech",
          "type": "address"
        },
        {
          "indexed": true,
          "internalType": "uint256",
          "name": "serviceId",
          "type": "uint256"
        },
        {
          "indexed": true,
          "internalType": "address",
          "name": "mechFactory",
          "type": "address"
        }
      ],
      "name": "CreateMech",
      "type": "event"
    },
    {
      "anonymous": false,
      "inputs": [
        {
          "indexed": true,
          "internalType": "address",
          "name": "mech",
          "type": "address"
        },
        {
          "indexed": true,
          "internalType": "address",
          "name": "mechServiceMultisig",
          "type": "address"
        },
        {
          "indexed": false,
          "internalType": "bytes32",
          "name": "requestId",
          "type": "bytes32"
        },
        {
          "indexed": false,
          "internalType": "uint256",
          "name": "deliveryRate",
          "type": "uint256"
        },
        {
          "indexed": false,
          "internalType": "bytes",
          "name": "data",
          "type": "bytes"
        }
      ],
      "name": "Deliver",
      "type": "event"
    },
    {
      "anonymous": false,
      "inputs": [
        {
          "indexed": true,
          "internalType": "address",
          "name": "implementation",
          "type": "address"
        }
      ],
      "name": "ImplementationUpdated",
      "type": "event"
    },
    {
      "anonymous": false,
      "inputs": [
        {
          "indexed": true,
          "internalType": "address",
          "name": "deliveryMech",
          "type": "address"
        },
        {
          "indexed": true,
          "internalType": "address[]",
          "name": "requesters",
          "type": "address[]"
        },
        {
          "indexed": false,
          "internalType": "uint256",
          "name": "numDeliveries",
          "type": "uint256"
        },
        {
          "indexed": false,
          "internalType": "bytes32[]",
          "name": "requestIds",
          "type": "bytes32[]"
        },
        {
          "indexed": false,
          "internalType": "bool[]",
          "name": "deliveredRequests",
          "type": "bool[]"
        }
      ],
      "name": "MarketplaceDelivery",
      "type": "event"
    },
    {
      "anonymous": false,
      "inputs": [
        {
          "indexed": true,
          "internalType": "address",
          "name": "deliveryMech",
          "type": "address"
        },
        {
          "indexed": true,
          "internalType": "address",
          "name": "requester",
          "type": "address"
        },
        {
          "indexed": false,
          "internalType": "uint256",
          "name": "numDeliveries",
          "type": "uint256"
        },
        {
          "indexed": false,
          "internalType": "bytes32[]",
          "name": "requestIds",
          "type": "bytes32[]"
        }
      ],
      "name": "MarketplaceDeliveryWithSignatures",
      "type": "event"
    },
    {
      "anonymous": false,
      "inputs": [
        {
          "indexed": false,
          "internalType": "uint256",
          "name": "fee",
          "type": "uint256"
        },
        {
          "indexed": false,
          "internalType": "uint256",
          "name": "minResponseTimeout",
          "type": "uint256"
        },
        {
          "indexed": false,
          "internalType": "uint256",
          "name": "maxResponseTimeout",
          "type": "uint256"
        }
      ],
      "name": "MarketplaceParamsUpdated",
      "type": "event"
    },
    {
      "anonymous": false,
      "inputs": [
        {
          "indexed": true,
          "internalType": "address",
          "name": "priorityMech",
          "type": "address"
        },
        {
          "indexed": true,
          "internalType": "address",
          "name": "requester",
          "type": "address"
        },
        {
          "indexed": false,
          "internalType": "uint256",
          "name": "numRequests",
          "type": "uint256"
        },
        {
          "indexed": false,
          "internalType": "bytes32[]",
          "name": "requestIds",
          "type": "bytes32[]"
        }
      ],
      "name": "MarketplaceRequest",
      "type": "event"
    },
    {
      "anonymous": false,
      "inputs": [
        {
          "indexed": true,
          "internalType": "address",
          "name": "owner",
          "type": "address"
        }
      ],
      "name": "OwnerUpdated",
      "type": "event"
    },
    {
      "anonymous": false,
      "inputs": [
        {
          "indexed": false,
          "internalType": "address[]",
          "name": "mechFactories",
          "type": "address[]"
        },
        {
          "indexed": false,
          "internalType": "bool[]",
          "name": "statuses",
          "type": "bool[]"
        }
      ],
      "name": "SetMechFactoryStatuses",
      "type": "event"
    },
    {
      "anonymous": false,
      "inputs": [
        {
          "indexed": false,
          "internalType": "bytes32[]",
          "name": "paymentTypes",
          "type": "bytes32[]"
        },
        {
          "indexed": false,
          "internalType": "address[]",
          "name": "balanceTrackers",
          "type": "address[]"
        }
      ],
      "name": "SetPaymentTypeBalanceTrackers",
      "type": "event"
    },
    {
      "inputs": [],
      "name": "DOMAIN_SEPARATOR_TYPE_HASH",
      "outputs": [
        {
          "internalType": "bytes32",
          "name": "",
          "type": "bytes32"
        }
      ],
      "stateMutability": "view",
      "type": "function"
    },
    {
      "inputs": [],
      "name": "MAX_FEE_FACTOR",
      "outputs": [
        {
          "internalType": "uint256",
          "name": "",
          "type": "uint256"
        }
      ],
      "stateMutability": "view",
      "type": "function"
    },
    {
      "inputs": [],
      "name": "MECH_MARKETPLACE_PROXY",
      "outputs": [
        {
          "internalType": "bytes32",
          "name": "",
          "type": "bytes32"
        }
      ],
      "stateMutability": "view",
      "type": "function"
    },
    {
      "inputs": [],
      "name": "VERSION",
      "outputs": [
        {
          "internalType": "string",
          "name": "",
          "type": "string"
        }
      ],
      "stateMutability": "view",
      "type": "function"
    },
    {
      "inputs": [],
      "name": "chainId",
      "outputs": [
        {
          "internalType": "uint256",
          "name": "",
          "type": "uint256"
        }
      ],
      "stateMutability": "view",
      "type": "function"
    },
    {
      "inputs": [
        {
          "internalType": "address",
          "name": "newImplementation",
          "type": "address"
        }
      ],
      "name": "changeImplementation",
      "outputs": [],
      "stateMutability": "nonpayable",
      "type": "function"
    },
    {
      "inputs": [
        {
          "internalType": "uint256",
          "name": "newFee",
          "type": "uint256"
        },
        {
          "internalType": "uint256",
          "name": "newMinResponseTimeout",
          "type": "uint256"
        },
        {
          "internalType": "uint256",
          "name": "newMaxResponseTimeout",
          "type": "uint256"
        }
      ],
      "name": "changeMarketplaceParams",
      "outputs": [],
      "stateMutability": "nonpayable",
      "type": "function"
    },
    {
      "inputs": [
        {
          "internalType": "address",
          "name": "newOwner",
          "type": "address"
        }
      ],
      "name": "changeOwner",
      "outputs": [],
      "stateMutability": "nonpayable",
      "type": "function"
    },
    {
      "inputs": [
        {
          "internalType": "address",
          "name": "mech",
          "type": "address"
        }
      ],
      "name": "checkMech",
      "outputs": [
        {
          "internalType": "address",
          "name": "multisig",
          "type": "address"
        }
      ],
      "stateMutability": "view",
      "type": "function"
    },
    {
      "inputs": [
        {
          "internalType": "uint256",
          "name": "serviceId",
          "type": "uint256"
        },
        {
          "internalType": "address",
          "name": "mechFactory",
          "type": "address"
        },
        {
          "internalType": "bytes",
          "name": "payload",
          "type": "bytes"
        }
      ],
      "name": "create",
      "outputs": [
        {
          "internalType": "address",
          "name": "mech",
          "type": "address"
        }
      ],
      "stateMutability": "nonpayable",
      "type": "function"
    },
    {
      "inputs": [
        {
          "internalType": "bytes32[]",
          "name": "requestIds",
          "type": "bytes32[]"
        },
        {
          "internalType": "uint256[]",
          "name": "deliveryRates",
          "type": "uint256[]"
        }
      ],
      "name": "deliverMarketplace",
      "outputs": [
        {
          "internalType": "bool[]",
          "name": "deliveredRequests",
          "type": "bool[]"
        }
      ],
      "stateMutability": "nonpayable",
      "type": "function"
    },
    {
      "inputs": [
        {
          "internalType": "address",
          "name": "requester",
          "type": "address"
        },
        {
          "components": [
            {
              "internalType": "bytes",
              "name": "requestData",
              "type": "bytes"
            },
            {
              "internalType": "bytes",
              "name": "signature",
              "type": "bytes"
            },
            {
              "internalType": "bytes",
              "name": "deliveryData",
              "type": "bytes"
            }
          ],
          "internalType": "struct DeliverWithSignature[]",
          "name": "deliverWithSignatures",
          "type": "tuple[]"
        },
        {
          "internalType": "uint256[]",
          "name": "deliveryRates",
          "type": "uint256[]"
        },
        {
          "internalType": "bytes",
          "name": "paymentData",
          "type": "bytes"
        }
      ],
      "name": "deliverMarketplaceWithSignatures",
      "outputs": [],
      "stateMutability": "nonpayable",
      "type": "function"
    },
    {
      "inputs": [],
      "name": "domainSeparator",
      "outputs": [
        {
          "internalType": "bytes32",
          "name": "",
          "type": "bytes32"
        }
      ],
      "stateMutability": "view",
      "type": "function"
    },
    {
      "inputs": [],
      "name": "fee",
      "outputs": [
        {
          "internalType": "uint256",
          "name": "",
          "type": "uint256"
        }
      ],
      "stateMutability": "view",
      "type": "function"
    },
    {
      "inputs": [],
      "name": "getDomainSeparator",
      "outputs": [
        {
          "internalType": "bytes32",
          "name": "",
          "type": "bytes32"
        }
      ],
      "stateMutability": "view",
      "type": "function"
    },
    {
      "inputs": [
        {
          "internalType": "address",
          "name": "mech",
          "type": "address"
        },
        {
          "internalType": "address",
          "name": "requester",
          "type": "address"
        },
        {
          "internalType": "bytes",
          "name": "data",
          "type": "bytes"
        },
        {
          "internalType": "uint256",
          "name": "deliveryRate",
          "type": "uint256"
        },
        {
          "internalType": "bytes32",
          "name": "paymentType",
          "type": "bytes32"
        },
        {
          "internalType": "uint256",
          "name": "nonce",
          "type": "uint256"
        }
      ],
      "name": "getRequestId",
      "outputs": [
        {
          "internalType": "bytes32",
          "name": "requestId",
          "type": "bytes32"
        }
      ],
      "stateMutability": "view",
      "type": "function"
    },
    {
      "inputs": [
        {
          "internalType": "bytes32",
          "name": "requestId",
          "type": "bytes32"
        }
      ],
      "name": "getRequestStatus",
      "outputs": [
        {
          "internalType": "enum MechMarketplace.RequestStatus",
          "name": "status",
          "type": "uint8"
        }
      ],
      "stateMutability": "view",
      "type": "function"
    },
    {
      "inputs": [
        {
          "internalType": "uint256",
          "name": "_fee",
          "type": "uint256"
        },
        {
          "internalType": "uint256",
          "name": "_minResponseTimeout",
          "type": "uint256"
        },
        {
          "internalType": "uint256",
          "name": "_maxResponseTimeout",
          "type": "uint256"
        }
      ],
      "name": "initialize",
      "outputs": [],
      "stateMutability": "nonpayable",
      "type": "function"
    },
    {
      "inputs": [],
      "name": "karma",
      "outputs": [
        {
          "internalType": "address",
          "name": "",
          "type": "address"
        }
      ],
      "stateMutability": "view",
      "type": "function"
    },
    {
      "inputs": [
        {
          "internalType": "address",
          "name": "",
          "type": "address"
        }
      ],
      "name": "mapAgentMechFactories",
      "outputs": [
        {
          "internalType": "address",
          "name": "",
          "type": "address"
        }
      ],
      "stateMutability": "view",
      "type": "function"
    },
    {
      "inputs": [
        {
          "internalType": "address",
          "name": "",
          "type": "address"
        }
      ],
      "name": "mapDeliveryCounts",
      "outputs": [
        {
          "internalType": "uint256",
          "name": "",
          "type": "uint256"
        }
      ],
      "stateMutability": "view",
      "type": "function"
    },
    {
      "inputs": [
        {
          "internalType": "address",
          "name": "",
          "type": "address"
        }
      ],
      "name": "mapMechDeliveryCounts",
      "outputs": [
        {
          "internalType": "uint256",
          "name": "",
          "type": "uint256"
        }
      ],
      "stateMutability": "view",
      "type": "function"
    },
    {
      "inputs": [
        {
          "internalType": "address",
          "name": "",
          "type": "address"
        }
      ],
      "name": "mapMechFactories",
      "outputs": [
        {
          "internalType": "bool",
          "name": "",
          "type": "bool"
        }
      ],
      "stateMutability": "view",
      "type": "function"
    },
    {
      "inputs": [
        {
          "internalType": "address",
          "name": "",
          "type": "address"
        }
      ],
      "name": "mapMechServiceDeliveryCounts",
      "outputs": [
        {
          "internalType": "uint256",
          "name": "",
          "type": "uint256"
        }
      ],
      "stateMutability": "view",
      "type": "function"
    },
    {
      "inputs": [
        {
          "internalType": "address",
          "name": "",
          "type": "address"
        }
      ],
      "name": "mapNonces",
      "outputs": [
        {
          "internalType": "uint256",
          "name": "",
          "type": "uint256"
        }
      ],
      "stateMutability": "view",
      "type": "function"
    },
    {
      "inputs": [
        {
          "internalType": "bytes32",
          "name": "",
          "type": "bytes32"
        }
      ],
      "name": "mapPaymentTypeBalanceTrackers",
      "outputs": [
        {
          "internalType": "address",
          "name": "",
          "type": "address"
        }
      ],
      "stateMutability": "view",
      "type": "function"
    },
    {
      "inputs": [
        {
          "internalType": "address",
          "name": "",
          "type": "address"
        }
      ],
      "name": "mapRequestCounts",
      "outputs": [
        {
          "internalType": "uint256",
          "name": "",
          "type": "uint256"
        }
      ],
      "stateMutability": "view",
      "type": "function"
    },
    {
      "inputs": [
        {
          "internalType": "bytes32",
          "name": "",
          "type": "bytes32"
        }
      ],
      "name": "mapRequestIdInfos",
      "outputs": [
        {
          "internalType": "address",
          "name": "priorityMech",
          "type": "address"
        },
        {
          "internalType": "address",
          "name": "deliveryMech",
          "type": "address"
        },
        {
          "internalType": "address",
          "name": "requester",
          "type": "address"
        },
        {
          "internalType": "uint256",
          "name": "responseTimeout",
          "type": "uint256"
        },
        {
          "internalType": "uint256",
          "name": "deliveryRate",
          "type": "uint256"
        },
        {
          "internalType": "bytes32",
          "name": "paymentType",
          "type": "bytes32"
        }
      ],
      "stateMutability": "view",
      "type": "function"
    },
    {
      "inputs": [],
      "name": "maxResponseTimeout",
      "outputs": [
        {
          "internalType": "uint256",
          "name": "",
          "type": "uint256"
        }
      ],
      "stateMutability": "view",
      "type": "function"
    },
    {
      "inputs": [],
      "name": "minResponseTimeout",
      "outputs": [
        {
          "internalType": "uint256",
          "name": "",
          "type": "uint256"
        }
      ],
      "stateMutability": "view",
      "type": "function"
    },
    {
      "inputs": [],
      "name": "numMechs",
      "outputs": [
        {
          "internalType": "uint256",
          "name": "",
          "type": "uint256"
        }
      ],
      "stateMutability": "view",
      "type": "function"
    },
    {
      "inputs": [],
      "name": "numTotalRequests",
      "outputs": [
        {
          "internalType": "uint256",
          "name": "",
          "type": "uint256"
        }
      ],
      "stateMutability": "view",
      "type": "function"
    },
    {
      "inputs": [],
      "name": "numUndeliveredRequests",
      "outputs": [
        {
          "internalType": "uint256",
          "name": "",
          "type": "uint256"
        }
      ],
      "stateMutability": "view",
      "type": "function"
    },
    {
      "inputs": [],
      "name": "owner",
      "outputs": [
        {
          "internalType": "address",
          "name": "",
          "type": "address"
        }
      ],
      "stateMutability": "view",
      "type": "function"
    },
    {
      "inputs": [
        {
          "internalType": "bytes",
          "name": "requestData",
          "type": "bytes"
        },
        {
          "internalType": "uint256",
          "name": "maxDeliveryRate",
          "type": "uint256"
        },
        {
          "internalType": "bytes32",
          "name": "paymentType",
          "type": "bytes32"
        },
        {
          "internalType": "address",
          "name": "priorityMech",
          "type": "address"
        },
        {
          "internalType": "uint256",
          "name": "responseTimeout",
          "type": "uint256"
        },
        {
          "internalType": "bytes",
          "name": "paymentData",
          "type": "bytes"
        }
      ],
      "name": "request",
      "outputs": [
        {
          "internalType": "bytes32",
          "name": "requestId",
          "type": "bytes32"
        }
      ],
      "stateMutability": "payable",
      "type": "function"
    },
    {
      "inputs": [
        {
          "internalType": "bytes[]",
          "name": "requestDatas",
          "type": "bytes[]"
        },
        {
          "internalType": "uint256",
          "name": "maxDeliveryRate",
          "type": "uint256"
        },
        {
          "internalType": "bytes32",
          "name": "paymentType",
          "type": "bytes32"
        },
        {
          "internalType": "address",
          "name": "priorityMech",
          "type": "address"
        },
        {
          "internalType": "uint256",
          "name": "responseTimeout",
          "type": "uint256"
        },
        {
          "internalType": "bytes",
          "name": "paymentData",
          "type": "bytes"
        }
      ],
      "name": "requestBatch",
      "outputs": [
        {
          "internalType": "bytes32[]",
          "name": "requestIds",
          "type": "bytes32[]"
        }
      ],
      "stateMutability": "payable",
      "type": "function"
    },
    {
      "inputs": [],
      "name": "serviceRegistry",
      "outputs": [
        {
          "internalType": "address",
          "name": "",
          "type": "address"
        }
      ],
      "stateMutability": "view",
      "type": "function"
    },
    {
      "inputs": [
        {
          "internalType": "address[]",
          "name": "mechFactories",
          "type": "address[]"
        },
        {
          "internalType": "bool[]",
          "name": "statuses",
          "type": "bool[]"
        }
      ],
      "name": "setMechFactoryStatuses",
      "outputs": [],
      "stateMutability": "nonpayable",
      "type": "function"
    },
    {
      "inputs": [
        {
          "internalType": "bytes32[]",
          "name": "paymentTypes",
          "type": "bytes32[]"
        },
        {
          "internalType": "address[]",
          "name": "balanceTrackers",
          "type": "address[]"
        }
      ],
      "name": "setPaymentTypeBalanceTrackers",
      "outputs": [],
      "stateMutability": "nonpayable",
      "type": "function"
    }
  ],
  "bytecode": "0x60e060405234801561000f575f5ffd5b506040516145dc3803806145dc83398101604081905261002e9161009f565b6001600160a01b038216158061004b57506001600160a01b038116155b156100695760405163d92e233d60e01b815260040160405180910390fd5b6001600160a01b0391821660c0521660a052466080526100d0565b80516001600160a01b038116811461009a575f5ffd5b919050565b5f5f604083850312156100b0575f5ffd5b6100b983610084565b91506100c760208401610084565b90509250929050565b60805160a05160c0516144aa6101325f395f818161077401528181610ea4015261103c01525f818161051a015281816119b001528181611c010152818161282e015281816128b8015261320401525f818161066b01526121a301526144aa5ff3fe608060405260043610610290575f3560e01c80638da5cb5b11610165578063d64bf8b0116100c6578063ed24911d1161007c578063f6938b0911610062578063f6938b0914610899578063f698da25146108ac578063ffa1ad74146108c0575f5ffd5b8063ed24911d14610852578063f5dcb7bb14610866575f5ffd5b8063ded81286116100ac578063ded81286146107f5578063e0cb19e81461080a578063e8eca22d1461081f575f5ffd5b8063d64bf8b0146107c1578063ddca3f43146107e0575f5ffd5b8063bdf863171161011b578063c7b6a9f011610101578063c7b6a9f014610743578063cbcf252a14610763578063cbd6407a14610796575f5ffd5b8063bdf86317146106ed578063c69f6f9f14610702575f5ffd5b80639e592bb91161014b5780639e592bb91461068d578063a6f9dae1146106b9578063af4937fc146106d8575f5ffd5b80638da5cb5b1461062e5780639a8a05921461065a575f5ffd5b806345d076641161020f57806357c0762d116101c55780637ecb65f6116101ab5780637ecb65f61461053c57806380d859111461055b5780638342d20e1461057a575f5ffd5b806357c0762d146104ea57806374a8569b14610509575f5ffd5b80634ada3e61116101f55780634ada3e61146104755780634e894dd11461048a5780634eb07dd3146104a9575f5ffd5b806345d076641461042a57806346fbcbb214610456575f5ffd5b8063176b8b01116102645780631bbbeeb81161024a5780631bbbeeb8146103905780632685937b146103bb57806343be9643146103ff575f5ffd5b8063176b8b011461034657806317a68dd814610371575f5ffd5b8062427c5414610294578063087f08d4146102d25780630f41196a146102f35780631399991414610308575b5f5ffd5b34801561029f575f5ffd5b506102bf6102ae3660046136dc565b600a6020525f908152604090205481565b6040519081526020015b60405180910390f35b3480156102dd575f5ffd5b506102f16102ec366004613746565b610915565b005b3480156102fe575f5ffd5b506102bf60025481565b348015610313575f5ffd5b506103366103223660046136dc565b600e6020525f908152604090205460ff1681565b60405190151581526020016102c9565b348015610351575f5ffd5b506102bf6103603660046136dc565b600b6020525f908152604090205481565b34801561037c575f5ffd5b506102f161038b3660046136dc565b610b3e565b34801561039b575f5ffd5b506102bf6103aa3660046136dc565b60096020525f908152604090205481565b3480156103c6575f5ffd5b506103da6103d53660046136dc565b610c65565b60405173ffffffffffffffffffffffffffffffffffffffff90911681526020016102c9565b34801561040a575f5ffd5b506102bf6104193660046136dc565b600c6020525f908152604090205481565b348015610435575f5ffd5b506104496104443660046137b2565b610d9b565b6040516102c991906137c9565b348015610461575f5ffd5b506103da61047036600461390e565b610e5c565b348015610480575f5ffd5b506102bf60055481565b348015610495575f5ffd5b506102f16104a43660046139a1565b6111c0565b3480156104b4575f5ffd5b506103da6104c33660046137b2565b60106020525f908152604090205473ffffffffffffffffffffffffffffffffffffffff1681565b3480156104f5575f5ffd5b506102f1610504366004613a52565b6113c1565b348015610514575f5ffd5b506103da7f000000000000000000000000000000000000000000000000000000000000000081565b348015610547575f5ffd5b506102bf610556366004613a7b565b611485565b348015610566575f5ffd5b506102f1610575366004613a52565b61154f565b348015610585575f5ffd5b506105e36105943660046137b2565b600d6020525f908152604090208054600182015460028301546003840154600485015460059095015473ffffffffffffffffffffffffffffffffffffffff948516959385169490921692909186565b6040805173ffffffffffffffffffffffffffffffffffffffff9788168152958716602087015293909516928401929092526060830152608082015260a081019190915260c0016102c9565b348015610639575f5ffd5b506008546103da9073ffffffffffffffffffffffffffffffffffffffff1681565b348015610665575f5ffd5b506102bf7f000000000000000000000000000000000000000000000000000000000000000081565b348015610698575f5ffd5b506106ac6106a7366004613746565b6115e8565b6040516102c99190613b30565b3480156106c4575f5ffd5b506102f16106d33660046136dc565b611db9565b3480156106e3575f5ffd5b506102bf61271081565b3480156106f8575f5ffd5b506102bf60045481565b34801561070d575f5ffd5b506103da61071c3660046136dc565b600f6020525f908152604090205473ffffffffffffffffffffffffffffffffffffffff1681565b610756610751366004613b42565b611ee7565b6040516102c99190613c7b565b34801561076e575f5ffd5b506103da7f000000000000000000000000000000000000000000000000000000000000000081565b3480156107a1575f5ffd5b506102bf6107b03660046136dc565b60116020525f908152604090205481565b3480156107cc575f5ffd5b506102f16107db366004613746565b611f4a565b3480156107eb575f5ffd5b506102bf60015481565b348015610800575f5ffd5b506102bf60035481565b348015610815575f5ffd5b506102bf60065481565b34801561082a575f5ffd5b506102bf7fe6194b93a7bff0a54130ed8cd277223408a77f3e48bb5104a9db96d334f962ca81565b34801561085d575f5ffd5b506102bf6121a0565b348015610871575f5ffd5b506102bf7f8b73c3c69bb8fe3d512ecc4cf759cc79239f7b179b0ffacaa9a75d522b39400f81565b6102bf6108a7366004613c8d565b6121db565b3480156108b7575f5ffd5b506102bf5f5481565b3480156108cb575f5ffd5b506109086040518060400160405280600581526020017f312e312e3000000000000000000000000000000000000000000000000000000081525081565b6040516102c99190613d30565b60085473ffffffffffffffffffffffffffffffffffffffff16331461098d576008546040517fa43d6ada00000000000000000000000000000000000000000000000000000000815233600482015273ffffffffffffffffffffffffffffffffffffffff90911660248201526044015b60405180910390fd5b8281146109d0576040517f8151c1100000000000000000000000000000000000000000000000000000000081526004810184905260248101829052604401610984565b5f5b83811015610afa575f8585838181106109ed576109ed613d42565b9050602002016020810190610a0291906136dc565b73ffffffffffffffffffffffffffffffffffffffff1603610a4f576040517fd92e233d00000000000000000000000000000000000000000000000000000000815260040160405180910390fd5b828282818110610a6157610a61613d42565b9050602002016020810190610a769190613d7e565b600e5f878785818110610a8b57610a8b613d42565b9050602002016020810190610aa091906136dc565b73ffffffffffffffffffffffffffffffffffffffff16815260208101919091526040015f2080547fffffffffffffffffffffffffffffffffffffffffffffffffffffffffffffff00169115159190911790556001016109d2565b507f8cc6be981009d13170c616af494b7d671ed2d84b7e6891e4c8f21fe065c00dfc84848484604051610b309493929190613de2565b60405180910390a150505050565b60085473ffffffffffffffffffffffffffffffffffffffff163314610bb1576008546040517fa43d6ada00000000000000000000000000000000000000000000000000000000815233600482015273ffffffffffffffffffffffffffffffffffffffff9091166024820152604401610984565b73ffffffffffffffffffffffffffffffffffffffff8116610bfe576040517fd92e233d00000000000000000000000000000000000000000000000000000000815260040160405180910390fd5b7fe6194b93a7bff0a54130ed8cd277223408a77f3e48bb5104a9db96d334f962ca81905560405173ffffffffffffffffffffffffffffffffffffffff8216907f310ba5f1d2ed074b51e2eccd052a47ae9ab7c6b800d1fca3db3999d6a592ca03905f90a250565b5f73ffffffffffffffffffffffffffffffffffffffff8216610cb3576040517fd92e233d00000000000000000000000000000000000000000000000000000000815260040160405180910390fd5b73ffffffffffffffffffffffffffffffffffffffff8281165f908152600f602052604090205416610d28576040517f32b2baa300000000000000000000000000000000000000000000000000000000815273ffffffffffffffffffffffffffffffffffffffff83166004820152602401610984565b8173ffffffffffffffffffffffffffffffffffffffff1663e7f43c686040518163ffffffff1660e01b8152600401602060405180830381865afa158015610d71573d5f5f3e3d5ffd5b505050506040513d601f19601f82011682018060405250810190610d959190613e3c565b92915050565b5f818152600d60209081526040808320815160c081018352815473ffffffffffffffffffffffffffffffffffffffff90811680835260018401548216958301959095526002830154169281019290925260038101546060830152600481015460808301526005015460a082015290610e1557505f92915050565b602081015173ffffffffffffffffffffffffffffffffffffffff1615610e3e5750600392915050565b8060600151421115610e535750600292915050565b50600192915050565b6040517f4236aff8000000000000000000000000000000000000000000000000000000008152600481018490525f90819073ffffffffffffffffffffffffffffffffffffffff7f00000000000000000000000000000000000000000000000000000000000000001690634236aff89060240160e060405180830381865afa158015610ee9573d5f5f3e3d5ffd5b505050506040513d601f19601f82011682018060405250810190610f0d9190613e6a565b50505050509150508073ffffffffffffffffffffffffffffffffffffffff163373ffffffffffffffffffffffffffffffffffffffff1614610f7c576040517f32b2baa3000000000000000000000000000000000000000000000000000000008152336004820152602401610984565b73ffffffffffffffffffffffffffffffffffffffff84165f908152600e602052604090205460ff16610ff2576040517f32b2baa300000000000000000000000000000000000000000000000000000000815273ffffffffffffffffffffffffffffffffffffffff85166004820152602401610984565b6040517f0f7fb56d00000000000000000000000000000000000000000000000000000000815273ffffffffffffffffffffffffffffffffffffffff851690630f7fb56d90611068907f00000000000000000000000000000000000000000000000000000000000000009089908890600401613f01565b6020604051808303815f875af1158015611084573d5f5f3e3d5ffd5b505050506040513d601f19601f820116820180604052508101906110a89190613e3c565b915073ffffffffffffffffffffffffffffffffffffffff82166110f7576040517fd92e233d00000000000000000000000000000000000000000000000000000000815260040160405180910390fd5b73ffffffffffffffffffffffffffffffffffffffff8281165f908152600f6020526040812080547fffffffffffffffffffffffff00000000000000000000000000000000000000001692871692909217909155600680549161115883613f6b565b91905055508373ffffffffffffffffffffffffffffffffffffffff16858373ffffffffffffffffffffffffffffffffffffffff167f46e1ca45c09520471c43e2e88eca33bb51803011cfd456933629dcc645ecacd660405160405180910390a4509392505050565b6007546002036111fc576040517f8beb9d1600000000000000000000000000000000000000000000000000000000815260040160405180910390fd5b600260075584158061120e5750848314155b1561124f576040517f8151c1100000000000000000000000000000000000000000000000000000000081526004810186905260248101849052604401610984565b5f3373ffffffffffffffffffffffffffffffffffffffff16632763b8da6040518163ffffffff1660e01b8152600401602060405180830381865afa158015611299573d5f5f3e3d5ffd5b505050506040513d601f19601f820116820180604052508101906112bd9190613fa2565b90506112cd8882898989896122cc565b5f8181526010602052604090205473ffffffffffffffffffffffffffffffffffffffff1680611328576040517fd92e233d00000000000000000000000000000000000000000000000000000000815260040160405180910390fd5b6040517f6072dd2c00000000000000000000000000000000000000000000000000000000815273ffffffffffffffffffffffffffffffffffffffff821690636072dd2c906113849033908d908b908b908b908b90600401614049565b5f604051808303815f87803b15801561139b575f5ffd5b505af11580156113ad573d5f5f3e3d5ffd5b505060016007555050505050505050505050565b60085473ffffffffffffffffffffffffffffffffffffffff163314611434576008546040517fa43d6ada00000000000000000000000000000000000000000000000000000000815233600482015273ffffffffffffffffffffffffffffffffffffffff9091166024820152604401610984565b61143f8383836129ff565b60408051848152602081018490529081018290527f64d0972bd5d0c2828d80911b61084d86d61214c3081656ca3a720047a88320359060600160405180910390a1505050565b5f61148e6121a0565b85516020968701206040805130818a015273ffffffffffffffffffffffffffffffffffffffff9a8b1681830152989099166060890152608088015260a08701949094525060c085019190915260e08085019190915284518085039091018152610100840185528051908301207f19010000000000000000000000000000000000000000000000000000000000006101208501526101228401919091526101428084019190915283518084039091018152610162909201909252805191012090565b60085473ffffffffffffffffffffffffffffffffffffffff161561159f576040517f0dc149f000000000000000000000000000000000000000000000000000000000815260040160405180910390fd5b6115aa8383836129ff565b6115b2612b25565b5f555050600880547fffffffffffffffffffffffff00000000000000000000000000000000000000001633179055506001600755565b6060600754600203611626576040517f8beb9d1600000000000000000000000000000000000000000000000000000000815260040160405180910390fd5b60026007558315806116385750838214155b15611679576040517f8151c1100000000000000000000000000000000000000000000000000000000081526004810185905260248101839052604401610984565b5f61168333610c65565b90505f858067ffffffffffffffff8111156116a0576116a0613808565b6040519080825280602002602001820160405280156116c9578160200160208202803683370190505b5093505f8167ffffffffffffffff8111156116e6576116e6613808565b60405190808252806020026020018201604052801561170f578160200160208202803683370190505b5090505f8267ffffffffffffffff81111561172c5761172c613808565b604051908082528060200260200182016040528015611755578160200160208202803683370190505b5090505f3373ffffffffffffffffffffffffffffffffffffffff16632763b8da6040518163ffffffff1660e01b8152600401602060405180830381865afa1580156117a2573d5f5f3e3d5ffd5b505050506040513d601f19601f820116820180604052508101906117c69190613fa2565b90505f5b84811015611b53575f600d5f8e8e858181106117e8576117e8613d42565b602090810292909201358352508101919091526040015f20805490915073ffffffffffffffffffffffffffffffffffffffff1680611852576040517fd92e233d00000000000000000000000000000000000000000000000000000000815260040160405180910390fd5b83826005015414611892576040517f7fec71d700000000000000000000000000000000000000000000000000000000815260048101859052602401610984565b600182015473ffffffffffffffffffffffffffffffffffffffff16156118b9575050611b4b565b81600401548584815181106118d0576118d0613d42565b6020026020010181815250508483815181106118ee576118ee613d42565b60200260200101518c8c8581811061190857611908613d42565b90506020020135111561191c575050611b4b565b73ffffffffffffffffffffffffffffffffffffffff81163314611a13578160030154421115611a0c576040517f4225d37a00000000000000000000000000000000000000000000000000000000815273ffffffffffffffffffffffffffffffffffffffff82811660048301527fffffffffffffffffffffffffffffffffffffffffffffffffffffffffffffffff60248301527f00000000000000000000000000000000000000000000000000000000000000001690634225d37a906044015f604051808303815f87803b1580156119f1575f5ffd5b505af1158015611a03573d5f5f3e3d5ffd5b50505050611a13565b5050611b4b565b6001820180547fffffffffffffffffffffffff000000000000000000000000000000000000000016331790556002820154865173ffffffffffffffffffffffffffffffffffffffff9190911690879085908110611a7257611a72613d42565b602002602001019073ffffffffffffffffffffffffffffffffffffffff16908173ffffffffffffffffffffffffffffffffffffffff1681525050600a5f878581518110611ac157611ac1613d42565b602002602001015173ffffffffffffffffffffffffffffffffffffffff1673ffffffffffffffffffffffffffffffffffffffff1681526020019081526020015f205f815480929190611b1290613f6b565b919050555060018a8481518110611b2b57611b2b613d42565b9115156020928302919091019091015287611b4581613f6b565b98505050505b6001016117ca565b508415611d3b578460045f828254611b6b91906140b4565b9091555050335f908152600b602052604081208054879290611b8e9084906140c7565b909155505073ffffffffffffffffffffffffffffffffffffffff86165f908152600c602052604081208054879290611bc79084906140c7565b90915550506040517f4225d37a000000000000000000000000000000000000000000000000000000008152336004820152602481018690527f000000000000000000000000000000000000000000000000000000000000000073ffffffffffffffffffffffffffffffffffffffff1690634225d37a906044015f604051808303815f87803b158015611c57575f5ffd5b505af1158015611c69573d5f5f3e3d5ffd5b5050505f8281526010602052604090205473ffffffffffffffffffffffffffffffffffffffff16905080611cc9576040517fd92e233d00000000000000000000000000000000000000000000000000000000815260040160405180910390fd5b8073ffffffffffffffffffffffffffffffffffffffff166379e4afe833868b8e8e896040518763ffffffff1660e01b8152600401611d0c969594939291906140da565b5f604051808303815f87803b158015611d23575f5ffd5b505af1158015611d35573d5f5f3e3d5ffd5b50505050505b82604051611d499190614185565b60405180910390203373ffffffffffffffffffffffffffffffffffffffff167f894bb814a80f77e14febccf552394d95b38cc21a6dda1b0cf26434433fdf3e4c878e8e8c604051611d9d94939291906141d0565b60405180910390a3505060016007555092979650505050505050565b60085473ffffffffffffffffffffffffffffffffffffffff163314611e2c576008546040517fa43d6ada00000000000000000000000000000000000000000000000000000000815233600482015273ffffffffffffffffffffffffffffffffffffffff9091166024820152604401610984565b73ffffffffffffffffffffffffffffffffffffffff8116611e79576040517fd92e233d00000000000000000000000000000000000000000000000000000000815260040160405180910390fd5b600880547fffffffffffffffffffffffff00000000000000000000000000000000000000001673ffffffffffffffffffffffffffffffffffffffff83169081179091556040517f4ffd725fc4a22075e9ec71c59edf9c38cdeb588a91b24fc5b61388c5be41282b905f90a250565b6060600754600203611f25576040517f8beb9d1600000000000000000000000000000000000000000000000000000000815260040160405180910390fd5b6002600755611f3988888888888888612c23565b600160075598975050505050505050565b60085473ffffffffffffffffffffffffffffffffffffffff163314611fbd576008546040517fa43d6ada00000000000000000000000000000000000000000000000000000000815233600482015273ffffffffffffffffffffffffffffffffffffffff9091166024820152604401610984565b828114612000576040517f8151c1100000000000000000000000000000000000000000000000000000000081526004810184905260248101829052604401610984565b5f5b8381101561216a5784848281811061201c5761201c613d42565b905060200201355f5f1b0361205d576040517f7c946ed700000000000000000000000000000000000000000000000000000000815260040160405180910390fd5b5f83838381811061207057612070613d42565b905060200201602081019061208591906136dc565b73ffffffffffffffffffffffffffffffffffffffff16036120d2576040517fd92e233d00000000000000000000000000000000000000000000000000000000815260040160405180910390fd5b8282828181106120e4576120e4613d42565b90506020020160208101906120f991906136dc565b60105f87878581811061210e5761210e613d42565b9050602002013581526020019081526020015f205f6101000a81548173ffffffffffffffffffffffffffffffffffffffff021916908373ffffffffffffffffffffffffffffffffffffffff160217905550806001019050612002565b507fa9759667b17e564f26a0d91ce1c5e4a1dc3910aee992dc3f5f4da0a59d48f3cb84848484604051610b309493929190614206565b5f7f000000000000000000000000000000000000000000000000000000000000000046146121d5576121d0612b25565b905090565b505f5490565b5f600754600203612218576040517f8beb9d1600000000000000000000000000000000000000000000000000000000815260040160405180910390fd5b60026007556040805160018082528183019092525f91816020015b60608152602001906001900390816122335750506040805160018082528183019092529192505f91906020808301908036833701905050905089825f8151811061227f5761227f613d42565b6020026020010181905250612299828a8a8a8a8a8a612c23565b9050805f815181106122ad576122ad613d42565b6020026020010151925060016007819055505050979650505050505050565b5f6122d633610c65565b9050835f8167ffffffffffffffff8111156122f3576122f3613808565b60405190808252806020026020018201604052801561231c578160200160208202803683370190505b5073ffffffffffffffffffffffffffffffffffffffff8a165f908152601160205260408120549192505b838110156126e85788888281811061236057612360613d42565b9050602002810190612372919061422c565b61237c9080614268565b90505f036123b6576040517f7c946ed700000000000000000000000000000000000000000000000000000000815260040160405180910390fd5b61243f338c8b8b858181106123cd576123cd613d42565b90506020028101906123df919061422c565b6123e99080614268565b8080601f0160208091040260200160405190810160405280939291908181526020018383808284375f920191909152508d92508c915087905081811061243157612431613d42565b905060200201358e87611485565b83828151811061245157612451613d42565b6020026020010181815250506124e68b84838151811061247357612473613d42565b60200260200101518b8b8581811061248d5761248d613d42565b905060200281019061249f919061422c565b6124ad906020810190614268565b8080601f0160208091040260200160405190810160405280939291908181526020018383808284375f9201919091525061339392505050565b5f600d5f8584815181106124fc576124fc613d42565b60209081029190910181015182528101919091526040015f20805490915073ffffffffffffffffffffffffffffffffffffffff16156125845783828151811061254757612547613d42565b60200260200101516040517fec0db69800000000000000000000000000000000000000000000000000000000815260040161098491815260200190565b8054337fffffffffffffffffffffffff0000000000000000000000000000000000000000918216811783556001830180548316909117905560028201805490911673ffffffffffffffffffffffffffffffffffffffff8e161790558787838181106125f1576125f1613d42565b6020029190910135600483015550600581018b90558261261081613f6b565b9350508573ffffffffffffffffffffffffffffffffffffffff163373ffffffffffffffffffffffffffffffffffffffff167fb0d013658abb05dd269ff3ab257175d5ae3fa4107d4e142abd96e947cd5cb06f86858151811061267457612674613d42565b60200260200101518b8b8781811061268e5761268e613d42565b905060200201358e8e888181106126a7576126a7613d42565b90506020028101906126b9919061422c565b6126c7906040810190614268565b6040516126d794939291906142c9565b60405180910390a350600101612346565b5073ffffffffffffffffffffffffffffffffffffffff8a165f90815260116020908152604080832084905560099091528120805485929061272a9084906140c7565b909155505073ffffffffffffffffffffffffffffffffffffffff8a165f908152600a6020526040812080548592906127639084906140c7565b9091555050335f908152600b6020526040812080548592906127869084906140c7565b909155505073ffffffffffffffffffffffffffffffffffffffff84165f908152600c6020526040812080548592906127bf9084906140c7565b925050819055508260055f8282546127d791906140c7565b90915550506040517f55e7d04400000000000000000000000000000000000000000000000000000000815273ffffffffffffffffffffffffffffffffffffffff8b81166004830152336024830152604482018590527f000000000000000000000000000000000000000000000000000000000000000016906355e7d044906064015f604051808303815f87803b15801561286f575f5ffd5b505af1158015612881573d5f5f3e3d5ffd5b50506040517f4225d37a000000000000000000000000000000000000000000000000000000008152336004820152602481018690527f000000000000000000000000000000000000000000000000000000000000000073ffffffffffffffffffffffffffffffffffffffff169250634225d37a91506044015f604051808303815f87803b158015612910575f5ffd5b505af1158015612922573d5f5f3e3d5ffd5b50506040517f9680b60300000000000000000000000000000000000000000000000000000000815260048101869052339250639680b60391506024015f604051808303815f87803b158015612975575f5ffd5b505af1158015612987573d5f5f3e3d5ffd5b505050508973ffffffffffffffffffffffffffffffffffffffff163373ffffffffffffffffffffffffffffffffffffffff167ff980d83e9456535b0f9f3634d171df2a5f052f5d5e706b75d30c4e0433da927d8451856040516129eb9291906142f2565b60405180910390a350505050505050505050565b811580612a0a575080155b15612a41576040517f7c946ed700000000000000000000000000000000000000000000000000000000815260040160405180910390fd5b612710831115612a88576040517f7ae59685000000000000000000000000000000000000000000000000000000008152600481018490526127106024820152604401610984565b80821115612acc576040517f7ae596850000000000000000000000000000000000000000000000000000000081526004810183905260248101829052604401610984565b63ffffffff811115612b17576040517f7ae596850000000000000000000000000000000000000000000000000000000081526004810182905263ffffffff6024820152604401610984565b600192909255600255600355565b5f7f8b73c3c69bb8fe3d512ecc4cf759cc79239f7b179b0ffacaa9a75d522b39400f7ff376b6313a0837eb351511248cfe7dcc1cd26c49b8e0a47e1eb369dd62c425db6040518060400160405280600581526020017f312e312e30000000000000000000000000000000000000000000000000000000815250604051602001612bae9190613d30565b604080517fffffffffffffffffffffffffffffffffffffffffffffffffffffffffffffffe081840301815282825280516020918201209083019490945281019190915260608101919091524660808201523060a082015260c00160405160208183030381529060405280519060200120905090565b606063ffffffff612c3442866140c7565b1115612c8457612c4442856140c7565b6040517f7ae59685000000000000000000000000000000000000000000000000000000008152600481019190915263ffffffff6024820152604401610984565b600254841080612c95575060035484115b15612ce2576002546003546040517feb373cfe0000000000000000000000000000000000000000000000000000000081526004810187905260248101929092526044820152606401610984565b861580612ced575085155b15612d24576040517f7c946ed700000000000000000000000000000000000000000000000000000000815260040160405180910390fd5b87515f819003612d60576040517f7c946ed700000000000000000000000000000000000000000000000000000000815260040160405180910390fd5b612d6986610c65565b508067ffffffffffffffff811115612d8357612d83613808565b604051908082528060200260200182016040528015612dac578160200160208202803683370190505b5091505f8673ffffffffffffffffffffffffffffffffffffffff16632cc0fcb26040518163ffffffff1660e01b8152600401602060405180830381865afa158015612df9573d5f5f3e3d5ffd5b505050506040513d601f19601f82011682018060405250810190612e1d9190613fa2565b905088811115612e63576040517f7ae5968500000000000000000000000000000000000000000000000000000000815260048101829052602481018a9052604401610984565b8673ffffffffffffffffffffffffffffffffffffffff16632763b8da6040518163ffffffff1660e01b8152600401602060405180830381865afa158015612eac573d5f5f3e3d5ffd5b505050506040513d601f19601f82011682018060405250810190612ed09190613fa2565b8814612f0b576040517f7fec71d700000000000000000000000000000000000000000000000000000000815260048101899052602401610984565b335f90815260116020526040812054905b8b518110156130be578b8181518110612f3757612f37613d42565b6020026020010151515f03612f78576040517f7c946ed700000000000000000000000000000000000000000000000000000000815260040160405180910390fd5b612f9f89338e8481518110612f8f57612f8f613d42565b6020026020010151868e87611485565b858281518110612fb157612fb1613d42565b6020026020010181815250505f600d5f878481518110612fd357612fd3613d42565b60209081029190910181015182528101919091526040015f20805490915073ffffffffffffffffffffffffffffffffffffffff161561301e5785828151811061254757612547613d42565b80547fffffffffffffffffffffffff00000000000000000000000000000000000000001673ffffffffffffffffffffffffffffffffffffffff8b16178155613066428a6140c7565b60038201556002810180547fffffffffffffffffffffffff0000000000000000000000000000000000000000163317905560048101849055600581018b9055826130af81613f6b565b93505050806001019050612f1c565b50335f9081526011602090815260408083208490558b8352601090915290205473ffffffffffffffffffffffffffffffffffffffff168061312b576040517fd92e233d00000000000000000000000000000000000000000000000000000000815260040160405180910390fd5b6040517f38603a3900000000000000000000000000000000000000000000000000000000815273ffffffffffffffffffffffffffffffffffffffff8216906338603a39903490613187903390899089908e908e90600401614312565b5f604051808303818588803b15801561319e575f5ffd5b505af11580156131b0573d5f5f3e3d5ffd5b50506040517f55e7d04400000000000000000000000000000000000000000000000000000000815233600482015273ffffffffffffffffffffffffffffffffffffffff8d81166024830152604482018990527f00000000000000000000000000000000000000000000000000000000000000001693506355e7d044925060640190505f604051808303815f87803b158015613249575f5ffd5b505af115801561325b573d5f5f3e3d5ffd5b5050335f908152600960205260408120805488945090925061327e9084906140c7565b925050819055508360045f82825461329691906140c7565b925050819055508360055f8282546132ae91906140c7565b925050819055508873ffffffffffffffffffffffffffffffffffffffff1663be2641de868e6040518363ffffffff1660e01b81526004016132f092919061434d565b5f604051808303815f87803b158015613307575f5ffd5b505af1158015613319573d5f5f3e3d5ffd5b505050503373ffffffffffffffffffffffffffffffffffffffff168973ffffffffffffffffffffffffffffffffffffffff167f5d60556939d4ab71b3129033c865bf7e828306916fd94fd35019d3d530eb36b3868860405161337c9291906142f2565b60405180910390a350505050979650505050505050565b73ffffffffffffffffffffffffffffffffffffffff83166133e0576040517fd92e233d00000000000000000000000000000000000000000000000000000000815260040160405180910390fd5b73ffffffffffffffffffffffffffffffffffffffff83163b156134f6576040517f1626ba7e000000000000000000000000000000000000000000000000000000008082529073ffffffffffffffffffffffffffffffffffffffff851690631626ba7e9061345390869086906004016143e0565b602060405180830381865afa15801561346e573d5f5f3e3d5ffd5b505050506040513d601f19601f8201168201806040525081019061349291906143f8565b7fffffffff0000000000000000000000000000000000000000000000000000000016036134be57505050565b8282826040517f02d51bb200000000000000000000000000000000000000000000000000000000815260040161098493929190613f01565b80516041146135385780516040517f1d9f5a5f000000000000000000000000000000000000000000000000000000008152610984918391604190600401614437565b5f8160408151811061354c5761354c613d42565b016020015160f81c9050600481101561356d5761356a601b8261445b565b90505b602082015160408301517f7fffffffffffffffffffffffffffffff5d576e7357a4501ddfe92f46681b20a08111156135d7578585856040517f02d51bb200000000000000000000000000000000000000000000000000000000815260040161098493929190613f01565b604080515f8082526020820180845288905260ff861692820192909252606081018490526080810183905260019060a0016020604051602081039080840390855afa158015613628573d5f5f3e3d5ffd5b5050506020604051035190508673ffffffffffffffffffffffffffffffffffffffff168173ffffffffffffffffffffffffffffffffffffffff161461369f578686866040517f02d51bb200000000000000000000000000000000000000000000000000000000815260040161098493929190613f01565b50505050505050565b73ffffffffffffffffffffffffffffffffffffffff811681146136c9575f5ffd5b50565b80356136d7816136a8565b919050565b5f602082840312156136ec575f5ffd5b81356136f7816136a8565b9392505050565b5f5f83601f84011261370e575f5ffd5b50813567ffffffffffffffff811115613725575f5ffd5b6020830191508360208260051b850101111561373f575f5ffd5b9250929050565b5f5f5f5f60408587031215613759575f5ffd5b843567ffffffffffffffff81111561376f575f5ffd5b61377b878288016136fe565b909550935050602085013567ffffffffffffffff81111561379a575f5ffd5b6137a6878288016136fe565b95989497509550505050565b5f602082840312156137c2575f5ffd5b5035919050565b6020810160048310613802577f4e487b71000000000000000000000000000000000000000000000000000000005f52602160045260245ffd5b91905290565b7f4e487b71000000000000000000000000000000000000000000000000000000005f52604160045260245ffd5b604051601f82017fffffffffffffffffffffffffffffffffffffffffffffffffffffffffffffffe016810167ffffffffffffffff8111828210171561387c5761387c613808565b604052919050565b5f82601f830112613893575f5ffd5b813567ffffffffffffffff8111156138ad576138ad613808565b6138de60207fffffffffffffffffffffffffffffffffffffffffffffffffffffffffffffffe0601f84011601613835565b8181528460208386010111156138f2575f5ffd5b816020850160208301375f918101602001919091529392505050565b5f5f5f60608486031215613920575f5ffd5b833592506020840135613932816136a8565b9150604084013567ffffffffffffffff81111561394d575f5ffd5b61395986828701613884565b9150509250925092565b5f5f83601f840112613973575f5ffd5b50813567ffffffffffffffff81111561398a575f5ffd5b60208301915083602082850101111561373f575f5ffd5b5f5f5f5f5f5f5f6080888a0312156139b7575f5ffd5b87356139c2816136a8565b9650602088013567ffffffffffffffff8111156139dd575f5ffd5b6139e98a828b016136fe565b909750955050604088013567ffffffffffffffff811115613a08575f5ffd5b613a148a828b016136fe565b909550935050606088013567ffffffffffffffff811115613a33575f5ffd5b613a3f8a828b01613963565b989b979a50959850939692959293505050565b5f5f5f60608486031215613a64575f5ffd5b505081359360208301359350604090920135919050565b5f5f5f5f5f5f60c08789031215613a90575f5ffd5b8635613a9b816136a8565b95506020870135613aab816136a8565b9450604087013567ffffffffffffffff811115613ac6575f5ffd5b613ad289828a01613884565b969995985095966060810135965060808101359560a090910135945092505050565b5f8151808452602084019350602083015f5b82811015613b265781511515865260209586019590910190600101613b06565b5093949350505050565b602081525f6136f76020830184613af4565b5f5f5f5f5f5f5f60c0888a031215613b58575f5ffd5b873567ffffffffffffffff811115613b6e575f5ffd5b8801601f81018a13613b7e575f5ffd5b803567ffffffffffffffff811115613b9857613b98613808565b8060051b613ba860208201613835565b9182526020818401810192908101908d841115613bc3575f5ffd5b6020850192505b83831015613c0957823567ffffffffffffffff811115613be8575f5ffd5b613bf78f602083890101613884565b83525060209283019290910190613bca565b9a50505050602089013596505060408801359450613c29606089016136cc565b93506080880135925060a088013567ffffffffffffffff811115613a33575f5ffd5b5f8151808452602084019350602083015f5b82811015613b26578151865260209586019590910190600101613c5d565b602081525f6136f76020830184613c4b565b5f5f5f5f5f5f5f60c0888a031215613ca3575f5ffd5b873567ffffffffffffffff811115613cb9575f5ffd5b613cc58a828b01613884565b97505060208801359550604088013594506060880135613c29816136a8565b5f81518084528060208401602086015e5f6020828601015260207fffffffffffffffffffffffffffffffffffffffffffffffffffffffffffffffe0601f83011685010191505092915050565b602081525f6136f76020830184613ce4565b7f4e487b71000000000000000000000000000000000000000000000000000000005f52603260045260245ffd5b803580151581146136d7575f5ffd5b5f60208284031215613d8e575f5ffd5b6136f782613d6f565b8183526020830192505f815f5b84811015613b26578135613db7816136a8565b73ffffffffffffffffffffffffffffffffffffffff1686526020958601959190910190600101613da4565b604081525f613df5604083018688613d97565b8281036020808501919091528482528591015f5b85811015613e3057613e1a83613d6f565b1515825260209283019290910190600101613e09565b50979650505050505050565b5f60208284031215613e4c575f5ffd5b81516136f7816136a8565b805163ffffffff811681146136d7575f5ffd5b5f5f5f5f5f5f5f60e0888a031215613e80575f5ffd5b87516bffffffffffffffffffffffff81168114613e9b575f5ffd5b6020890151909750613eac816136a8565b60408901519096509450613ec260608901613e57565b9350613ed060808901613e57565b9250613ede60a08901613e57565b915060c088015160068110613ef1575f5ffd5b8091505092959891949750929550565b73ffffffffffffffffffffffffffffffffffffffff84168152826020820152606060408201525f613f356060830184613ce4565b95945050505050565b7f4e487b71000000000000000000000000000000000000000000000000000000005f52601160045260245ffd5b5f7fffffffffffffffffffffffffffffffffffffffffffffffffffffffffffffffff8203613f9b57613f9b613f3e565b5060010190565b5f60208284031215613fb2575f5ffd5b5051919050565b8183525f7f07ffffffffffffffffffffffffffffffffffffffffffffffffffffffffffffff831115613fe9575f5ffd5b8260051b80836020870137939093016020019392505050565b81835281816020850137505f602082840101525f60207fffffffffffffffffffffffffffffffffffffffffffffffffffffffffffffffe0601f840116840101905092915050565b73ffffffffffffffffffffffffffffffffffffffff8716815273ffffffffffffffffffffffffffffffffffffffff86166020820152608060408201525f614094608083018688613fb9565b82810360608401526140a7818587614002565b9998505050505050505050565b81810381811115610d9557610d95613f3e565b80820180821115610d9557610d95613f3e565b5f60a0820173ffffffffffffffffffffffffffffffffffffffff8916835260a0602084015280885180835260c08501915060208a0192505f5b8181101561414757835173ffffffffffffffffffffffffffffffffffffffff16835260209384019390920191600101614113565b5050838103604085015261415b8189613af4565b9150508281036060840152614171818688613fb9565b905082810360808401526140a78185613c4b565b81515f90829060208501835b828110156141c557815173ffffffffffffffffffffffffffffffffffffffff16845260209384019390910190600101614191565b509195945050505050565b848152606060208201525f6141e9606083018587613fb9565b82810360408401526141fb8185613af4565b979650505050505050565b604081525f614219604083018688613fb9565b82810360208401526141fb818587613d97565b5f82357fffffffffffffffffffffffffffffffffffffffffffffffffffffffffffffffa183360301811261425e575f5ffd5b9190910192915050565b5f5f83357fffffffffffffffffffffffffffffffffffffffffffffffffffffffffffffffe184360301811261429b575f5ffd5b83018035915067ffffffffffffffff8211156142b5575f5ffd5b60200191503681900382131561373f575f5ffd5b848152836020820152606060408201525f6142e8606083018486614002565b9695505050505050565b828152604060208201525f61430a6040830184613c4b565b949350505050565b73ffffffffffffffffffffffffffffffffffffffff86168152846020820152836040820152608060608201525f6141fb608083018486614002565b604081525f61435f6040830185613c4b565b828103602084015280845180835260208301915060208160051b840101602087015f5b838110156143d2577fffffffffffffffffffffffffffffffffffffffffffffffffffffffffffffffe08684030185526143bc838351613ce4565b6020958601959093509190910190600101614382565b509098975050505050505050565b828152604060208201525f61430a6040830184613ce4565b5f60208284031215614408575f5ffd5b81517fffffffff00000000000000000000000000000000000000000000000000000000811681146136f7575f5ffd5b606081525f6144496060830186613ce4565b60208301949094525060400152919050565b60ff8181168382160190811115610d9557610d95613f3e56fea2646970667358221220b2dfae8f25aaca221f5212152a9d442f4d89f4807e13fa39eefd537e326c070964736f6c634300081c0033",
  "linkReferences": {},
  "deployedLinkReferences": {}
}