{
  "_format": "hh-sol-artifact-1",
  "contractName": "MechNvmSubscriptionTokenUSDC",
  "sourceName": "contracts/mechs/nevermined_token/usdc/MechNvmSubscriptionTokenUSDC.sol",
  "abi": [
    {
      "inputs": [
        {
          "internalType": "address",
          "name": "_mechMarketplace",
          "type": "address"
        },
        {
          "internalType": "address",
          "name": "_serviceRegistry",
          "type": "address"
        },
        {
          "internalType": "uint256",
          "name": "_serviceId",
          "type": "uint256"
        },
        {
          "internalType": "uint256",
          "name": "_maxDeliveryRate",
          "type": "uint256"
        }
      ],
      "stateMutability": "nonpayable",
      "type": "constructor"
    },
    {
      "inputs": [],
      "name": "AlreadyInitialized",
      "type": "error"
    },
    {
      "inputs": [
        {
          "internalType": "address",
          "name": "sender",
          "type": "address"
        },
        {
          "internalType": "address",
          "name": "marketplace",
          "type": "address"
        }
      ],
      "name": "MarketplaceOnly",
      "type": "error"
    },
    {
      "inputs": [
        {
          "internalType": "uint256",
          "name": "provided",
          "type": "uint256"
        },
        {
          "internalType": "uint256",
          "name": "max",
          "type": "uint256"
        }
      ],
      "name": "Overflow",
      "type": "error"
    },
    {
      "inputs": [],
      "name": "ReentrancyGuard",
      "type": "error"
    },
    {
      "inputs": [
        {
          "internalType": "uint256",
          "name": "numValues1",
          "type": "uint256"
        },
        {
          "internalType": "uint256",
          "name": "numValues2",
          "type": "uint256"
        }
      ],
      "name": "WrongArrayLength",
      "type": "error"
    },
    {
      "inputs": [
        {
          "internalType": "uint256",
          "name": "state",
          "type": "uint256"
        },
        {
          "internalType": "uint256",
          "name": "serviceId",
          "type": "uint256"
        }
      ],
      "name": "WrongServiceState",
      "type": "error"
    },
    {
      "inputs": [],
      "name": "ZeroAddress",
      "type": "error"
    },
    {
      "inputs": [],
      "name": "ZeroValue",
      "type": "error"
    },
    {
      "anonymous": false,
      "inputs": [
        {
          "indexed": true,
          "internalType": "address",
          "name": "mech",
          "type": "address"
        },
        {
          "indexed": true,
          "internalType": "address",
          "name": "mechServiceMultisig",
          "type": "address"
        },
        {
          "indexed": false,
          "internalType": "bytes32",
          "name": "requestId",
          "type": "bytes32"
        },
        {
          "indexed": false,
          "internalType": "uint256",
          "name": "deliveryRate",
          "type": "uint256"
        },
        {
          "indexed": false,
          "internalType": "bytes",
          "name": "data",
          "type": "bytes"
        }
      ],
      "name": "Deliver",
      "type": "event"
    },
    {
      "anonymous": false,
      "inputs": [
        {
          "indexed": false,
          "internalType": "uint256",
          "name": "maxDeliveryRate",
          "type": "uint256"
        }
      ],
      "name": "MaxDeliveryRateUpdated",
      "type": "event"
    },
    {
      "anonymous": false,
      "inputs": [
        {
          "indexed": false,
          "internalType": "uint256",
          "name": "numRequests",
          "type": "uint256"
        }
      ],
      "name": "NumRequestsIncrease",
      "type": "event"
    },
    {
      "anonymous": false,
      "inputs": [
        {
          "indexed": true,
          "internalType": "address",
          "name": "mech",
          "type": "address"
        },
        {
          "indexed": false,
          "internalType": "bytes32",
          "name": "requestId",
          "type": "bytes32"
        },
        {
          "indexed": false,
          "internalType": "bytes",
          "name": "data",
          "type": "bytes"
        }
      ],
      "name": "Request",
      "type": "event"
    },
    {
      "anonymous": false,
      "inputs": [
        {
          "indexed": true,
          "internalType": "bytes32",
          "name": "requestId",
          "type": "bytes32"
        },
        {
          "indexed": false,
          "internalType": "uint256",
          "name": "deliveryRate",
          "type": "uint256"
        }
      ],
      "name": "RequestRateFinalized",
      "type": "event"
    },
    {
      "anonymous": false,
      "inputs": [
        {
          "indexed": false,
          "internalType": "bytes32",
          "name": "requestId",
          "type": "bytes32"
        }
      ],
      "name": "RevokeRequest",
      "type": "event"
    },
    {
      "inputs": [],
      "name": "PAYMENT_TYPE",
      "outputs": [
        {
          "internalType": "bytes32",
          "name": "",
          "type": "bytes32"
        }
      ],
      "stateMutability": "view",
      "type": "function"
    },
    {
      "inputs": [],
      "name": "VERSION",
      "outputs": [
        {
          "internalType": "string",
          "name": "",
          "type": "string"
        }
      ],
      "stateMutability": "view",
      "type": "function"
    },
    {
      "inputs": [
        {
          "internalType": "uint256",
          "name": "newMaxDeliveryRate",
          "type": "uint256"
        }
      ],
      "name": "changeMaxDeliveryRate",
      "outputs": [],
      "stateMutability": "nonpayable",
      "type": "function"
    },
    {
      "inputs": [
        {
          "internalType": "address",
          "name": "requester",
          "type": "address"
        },
        {
          "components": [
            {
              "internalType": "bytes",
              "name": "requestData",
              "type": "bytes"
            },
            {
              "internalType": "bytes",
              "name": "signature",
              "type": "bytes"
            },
            {
              "internalType": "bytes",
              "name": "deliveryData",
              "type": "bytes"
            }
          ],
          "internalType": "struct DeliverWithSignature[]",
          "name": "deliverWithSignatures",
          "type": "tuple[]"
        },
        {
          "internalType": "uint256[]",
          "name": "deliveryRates",
          "type": "uint256[]"
        },
        {
          "internalType": "bytes",
          "name": "paymentData",
          "type": "bytes"
        }
      ],
      "name": "deliverMarketplaceWithSignatures",
      "outputs": [],
      "stateMutability": "nonpayable",
      "type": "function"
    },
    {
      "inputs": [
        {
          "internalType": "bytes32[]",
          "name": "requestIds",
          "type": "bytes32[]"
        },
        {
          "internalType": "bytes[]",
          "name": "datas",
          "type": "bytes[]"
        }
      ],
      "name": "deliverToMarketplace",
      "outputs": [
        {
          "internalType": "bool[]",
          "name": "deliveredRequests",
          "type": "bool[]"
        }
      ],
      "stateMutability": "nonpayable",
      "type": "function"
    },
    {
      "inputs": [],
      "name": "entryPoint",
      "outputs": [
        {
          "internalType": "contract IEntryPoint",
          "name": "",
          "type": "address"
        }
      ],
      "stateMutability": "view",
      "type": "function"
    },
    {
      "inputs": [
        {
          "internalType": "address",
          "name": "to",
          "type": "address"
        },
        {
          "internalType": "uint256",
          "name": "value",
          "type": "uint256"
        },
        {
          "internalType": "bytes",
          "name": "data",
          "type": "bytes"
        },
        {
          "internalType": "enum Enum.Operation",
          "name": "operation",
          "type": "uint8"
        },
        {
          "internalType": "uint256",
          "name": "txGas",
          "type": "uint256"
        }
      ],
      "name": "exec",
      "outputs": [
        {
          "internalType": "bytes",
          "name": "returnData",
          "type": "bytes"
        }
      ],
      "stateMutability": "nonpayable",
      "type": "function"
    },
    {
      "inputs": [],
      "name": "getOperator",
      "outputs": [
        {
          "internalType": "address",
          "name": "",
          "type": "address"
        }
      ],
      "stateMutability": "view",
      "type": "function"
    },
    {
      "inputs": [
        {
          "internalType": "uint256",
          "name": "size",
          "type": "uint256"
        },
        {
          "internalType": "uint256",
          "name": "offset",
          "type": "uint256"
        }
      ],
      "name": "getUndeliveredRequestIds",
      "outputs": [
        {
          "internalType": "bytes32[]",
          "name": "requestIds",
          "type": "bytes32[]"
        }
      ],
      "stateMutability": "view",
      "type": "function"
    },
    {
      "inputs": [
        {
          "internalType": "address",
          "name": "multisig",
          "type": "address"
        }
      ],
      "name": "isOperator",
      "outputs": [
        {
          "internalType": "bool",
          "name": "",
          "type": "bool"
        }
      ],
      "stateMutability": "view",
      "type": "function"
    },
    {
      "inputs": [
        {
          "internalType": "bytes32",
          "name": "hash",
          "type": "bytes32"
        },
        {
          "internalType": "bytes",
          "name": "signature",
          "type": "bytes"
        }
      ],
      "name": "isValidSignature",
      "outputs": [
        {
          "internalType": "bytes4",
          "name": "magicValue",
          "type": "bytes4"
        }
      ],
      "stateMutability": "view",
      "type": "function"
    },
    {
      "inputs": [
        {
          "internalType": "bytes32",
          "name": "",
          "type": "bytes32"
        },
        {
          "internalType": "uint256",
          "name": "",
          "type": "uint256"
        }
      ],
      "name": "mapRequestIds",
      "outputs": [
        {
          "internalType": "bytes32",
          "name": "",
          "type": "bytes32"
        }
      ],
      "stateMutability": "view",
      "type": "function"
    },
    {
      "inputs": [],
      "name": "maxDeliveryRate",
      "outputs": [
        {
          "internalType": "uint256",
          "name": "",
          "type": "uint256"
        }
      ],
      "stateMutability": "view",
      "type": "function"
    },
    {
      "inputs": [],
      "name": "mechMarketplace",
      "outputs": [
        {
          "internalType": "address",
          "name": "",
          "type": "address"
        }
      ],
      "stateMutability": "view",
      "type": "function"
    },
    {
      "inputs": [],
      "name": "nonce",
      "outputs": [
        {
          "internalType": "uint256",
          "name": "",
          "type": "uint256"
        }
      ],
      "stateMutability": "view",
      "type": "function"
    },
    {
      "inputs": [],
      "name": "numTotalDeliveries",
      "outputs": [
        {
          "internalType": "uint256",
          "name": "",
          "type": "uint256"
        }
      ],
      "stateMutability": "view",
      "type": "function"
    },
    {
      "inputs": [],
      "name": "numTotalRequests",
      "outputs": [
        {
          "internalType": "uint256",
          "name": "",
          "type": "uint256"
        }
      ],
      "stateMutability": "view",
      "type": "function"
    },
    {
      "inputs": [],
      "name": "numUndeliveredRequests",
      "outputs": [
        {
          "internalType": "uint256",
          "name": "",
          "type": "uint256"
        }
      ],
      "stateMutability": "view",
      "type": "function"
    },
    {
      "inputs": [
        {
          "internalType": "address",
          "name": "",
          "type": "address"
        },
        {
          "internalType": "address",
          "name": "",
          "type": "address"
        },
        {
          "internalType": "uint256[]",
          "name": "",
          "type": "uint256[]"
        },
        {
          "internalType": "uint256[]",
          "name": "",
          "type": "uint256[]"
        },
        {
          "internalType": "bytes",
          "name": "",
          "type": "bytes"
        }
      ],
      "name": "onERC1155BatchReceived",
      "outputs": [
        {
          "internalType": "bytes4",
          "name": "",
          "type": "bytes4"
        }
      ],
      "stateMutability": "pure",
      "type": "function"
    },
    {
      "inputs": [
        {
          "internalType": "address",
          "name": "",
          "type": "address"
        },
        {
          "internalType": "address",
          "name": "",
          "type": "address"
        },
        {
          "internalType": "uint256",
          "name": "",
          "type": "uint256"
        },
        {
          "internalType": "uint256",
          "name": "",
          "type": "uint256"
        },
        {
          "internalType": "bytes",
          "name": "",
          "type": "bytes"
        }
      ],
      "name": "onERC1155Received",
      "outputs": [
        {
          "internalType": "bytes4",
          "name": "",
          "type": "bytes4"
        }
      ],
      "stateMutability": "pure",
      "type": "function"
    },
    {
      "inputs": [
        {
          "internalType": "address",
          "name": "",
          "type": "address"
        },
        {
          "internalType": "address",
          "name": "",
          "type": "address"
        },
        {
          "internalType": "uint256",
          "name": "",
          "type": "uint256"
        },
        {
          "internalType": "bytes",
          "name": "",
          "type": "bytes"
        }
      ],
      "name": "onERC721Received",
      "outputs": [
        {
          "internalType": "bytes4",
          "name": "",
          "type": "bytes4"
        }
      ],
      "stateMutability": "pure",
      "type": "function"
    },
    {
      "inputs": [],
      "name": "paymentType",
      "outputs": [
        {
          "internalType": "bytes32",
          "name": "",
          "type": "bytes32"
        }
      ],
      "stateMutability": "view",
      "type": "function"
    },
    {
      "inputs": [
        {
          "internalType": "bytes32[]",
          "name": "requestIds",
          "type": "bytes32[]"
        },
        {
          "internalType": "bytes[]",
          "name": "datas",
          "type": "bytes[]"
        }
      ],
      "name": "requestFromMarketplace",
      "outputs": [],
      "stateMutability": "nonpayable",
      "type": "function"
    },
    {
      "inputs": [],
      "name": "serviceId",
      "outputs": [
        {
          "internalType": "uint256",
          "name": "",
          "type": "uint256"
        }
      ],
      "stateMutability": "view",
      "type": "function"
    },
    {
      "inputs": [],
      "name": "serviceRegistry",
      "outputs": [
        {
          "internalType": "address",
          "name": "",
          "type": "address"
        }
      ],
      "stateMutability": "view",
      "type": "function"
    },
    {
      "inputs": [
        {
          "internalType": "bytes",
          "name": "",
          "type": "bytes"
        }
      ],
      "name": "setUp",
      "outputs": [],
      "stateMutability": "pure",
      "type": "function"
    },
    {
      "inputs": [],
      "name": "token",
      "outputs": [
        {
          "internalType": "address",
          "name": "",
          "type": "address"
        }
      ],
      "stateMutability": "view",
      "type": "function"
    },
    {
      "inputs": [],
      "name": "tokenId",
      "outputs": [
        {
          "internalType": "uint256",
          "name": "",
          "type": "uint256"
        }
      ],
      "stateMutability": "view",
      "type": "function"
    },
    {
      "inputs": [
        {
          "internalType": "address",
          "name": "",
          "type": "address"
        },
        {
          "internalType": "address",
          "name": "",
          "type": "address"
        },
        {
          "internalType": "address",
          "name": "",
          "type": "address"
        },
        {
          "internalType": "uint256",
          "name": "",
          "type": "uint256"
        },
        {
          "internalType": "bytes",
          "name": "",
          "type": "bytes"
        },
        {
          "internalType": "bytes",
          "name": "",
          "type": "bytes"
        }
      ],
      "name": "tokensReceived",
      "outputs": [],
      "stateMutability": "pure",
      "type": "function"
    },
    {
      "inputs": [
        {
          "internalType": "uint256",
          "name": "numRequests",
          "type": "uint256"
        }
      ],
      "name": "updateNumRequests",
      "outputs": [],
      "stateMutability": "nonpayable",
      "type": "function"
    },
    {
      "inputs": [
        {
          "components": [
            {
              "internalType": "address",
              "name": "sender",
              "type": "address"
            },
            {
              "internalType": "uint256",
              "name": "nonce",
              "type": "uint256"
            },
            {
              "internalType": "bytes",
              "name": "initCode",
              "type": "bytes"
            },
            {
              "internalType": "bytes",
              "name": "callData",
              "type": "bytes"
            },
            {
              "internalType": "uint256",
              "name": "callGasLimit",
              "type": "uint256"
            },
            {
              "internalType": "uint256",
              "name": "verificationGasLimit",
              "type": "uint256"
            },
            {
              "internalType": "uint256",
              "name": "preVerificationGas",
              "type": "uint256"
            },
            {
              "internalType": "uint256",
              "name": "maxFeePerGas",
              "type": "uint256"
            },
            {
              "internalType": "uint256",
              "name": "maxPriorityFeePerGas",
              "type": "uint256"
            },
            {
              "internalType": "bytes",
              "name": "paymasterAndData",
              "type": "bytes"
            },
            {
              "internalType": "bytes",
              "name": "signature",
              "type": "bytes"
            }
          ],
          "internalType": "struct UserOperation",
          "name": "userOp",
          "type": "tuple"
        },
        {
          "internalType": "bytes32",
          "name": "userOpHash",
          "type": "bytes32"
        },
        {
          "internalType": "uint256",
          "name": "missingAccountFunds",
          "type": "uint256"
        }
      ],
      "name": "validateUserOp",
      "outputs": [
        {
          "internalType": "uint256",
          "name": "validationData",
          "type": "uint256"
        }
      ],
      "stateMutability": "nonpayable",
      "type": "function"
    },
    {
      "stateMutability": "payable",
      "type": "receive"
    }
  ],
  "bytecode": "0x6101006040525f5f556001600555348015610018575f5ffd5b5060405161302f38038061302f8339810160408190526100379161021d565b838383837f0d6fd99afa9c4c580fab5e341922c2a5c4b61d880da60506193d7bf88944dd146001600160a01b0385166100835760405163d92e233d60e01b815260040160405180910390fd5b6001600160a01b0384166100aa5760405163d92e233d60e01b815260040160405180910390fd5b8215806100b5575081155b806100be575080155b156100dc57604051637c946ed760e01b815260040160405180910390fd5b604051630846d5ff60e31b8152600481018490525f9081906001600160a01b03871690634236aff89060240160e060405180830381865afa158015610123573d5f5f3e3d5ffd5b505050506040513d601f19601f820116820180604052508101906101479190610270565b9650505050509250505f6001600160a01b0316826001600160a01b0316036101825760405163d92e233d60e01b815260040160405180910390fd5b6004816005811115610196576101966102fe565b146101d5578060058111156101ad576101ad6102fe565b604051633c053f9d60e21b815260048101919091526024810186905260440160405180910390fd5b50506001600160a01b039485166080529290931660a05260c05260019190915560e0525061031292505050565b80516001600160a01b0381168114610218575f5ffd5b919050565b5f5f5f5f60808587031215610230575f5ffd5b61023985610202565b935061024760208601610202565b6040860151606090960151949790965092505050565b805163ffffffff81168114610218575f5ffd5b5f5f5f5f5f5f5f60e0888a031215610286575f5ffd5b87516001600160601b038116811461029c575f5ffd5b96506102aa60208901610202565b9550604088015194506102bf6060890161025d565b93506102cd6080890161025d565b92506102db60a0890161025d565b915060c0880151600681106102ee575f5ffd5b8091505092959891949750929550565b634e487b7160e01b5f52602160045260245ffd5b60805160a05160c05160e051612c9d6103925f395f61030701525f81816102c801528181610606015281816113e4015261150301525f81816105d3015281816106c2015261142501525f818161044801528181610b3101528181610ed1015281816110cc015281816111340152818161120901526112710152612c9d5ff3fe6080604052600436106101d1575f3560e01c8063a4f9edbf116100fd578063c7dec3fc11610092578063ecf050e311610062578063ecf050e31461063c578063f23a6e611461066f578063fc0c546a146106b4578063ffa1ad74146106e6575f5ffd5b8063c7dec3fc14610596578063cbcf252a146105c2578063da20ec6a146105f5578063e7f43c6814610628575f5ffd5b8063bc197c81116100cd578063bc197c81146104fc578063bdf8631714610543578063be2641de14610558578063c2825d9214610577575f5ffd5b8063a4f9edbf1461048f578063a669aaf9146104ae578063affed0e0146104c3578063b0d691fe146104d6575f5ffd5b80633a871cdd116101735780636d70f7ae116101435780636d70f7ae146103bd5780636f6885bb146103ec5780639680b603146104185780639c5e959014610437575f5ffd5b80633a871cdd1461033e5780634ada3e611461035d5780634e894dd11461037257806358ce090914610391575f5ffd5b80631626ba7e116101ae5780631626ba7e1461029b57806317d70f7c146102ba5780632763b8da146102f65780632cc0fcb214610329575f5ffd5b806223de29146101dc578062f20c7114610202578063150b7a0214610221575f5ffd5b366101d857005b5f5ffd5b3480156101e7575f5ffd5b506102006101f6366004611f64565b5050505050505050565b005b34801561020d575f5ffd5b5061020061021c366004612013565b61072e565b34801561022c575f5ffd5b5061026561023b36600461202a565b7f150b7a020000000000000000000000000000000000000000000000000000000095945050505050565b6040517fffffffff0000000000000000000000000000000000000000000000000000000090911681526020015b60405180910390f35b3480156102a6575f5ffd5b506102656102b536600461219e565b61085b565b3480156102c5575f5ffd5b507f00000000000000000000000000000000000000000000000000000000000000005b604051908152602001610292565b348015610301575f5ffd5b506102e87f000000000000000000000000000000000000000000000000000000000000000081565b348015610334575f5ffd5b506102e860015481565b348015610349575f5ffd5b506102e86103583660046121e2565b6109fe565b348015610368575f5ffd5b506102e860035481565b34801561037d575f5ffd5b5061020061038c366004612272565b610a41565b34801561039c575f5ffd5b506103b06103ab366004612323565b610ba8565b6040516102929190612343565b3480156103c8575f5ffd5b506103dc6103d7366004612385565b610cff565b6040519015158152602001610292565b3480156103f7575f5ffd5b5061040b6104063660046123a0565b610d3d565b604051610292919061240c565b348015610423575f5ffd5b50610200610432366004612013565b6110b4565b348015610442575f5ffd5b5061046a7f000000000000000000000000000000000000000000000000000000000000000081565b60405173ffffffffffffffffffffffffffffffffffffffff9091168152602001610292565b34801561049a575f5ffd5b506102006104a9366004612445565b6111bf565b3480156104b9575f5ffd5b506102e860045481565b3480156104ce575f5ffd5b505f546102e8565b3480156104e1575f5ffd5b50730576a174d229e3cfa37253523e645a78a0c91b5761046a565b348015610507575f5ffd5b5061026561051636600461247f565b7fbc197c810000000000000000000000000000000000000000000000000000000098975050505050505050565b34801561054e575f5ffd5b506102e860025481565b348015610563575f5ffd5b506102006105723660046123a0565b6111f1565b348015610582575f5ffd5b506102e8610591366004612323565b6112b0565b3480156105a1575f5ffd5b506105b56105b0366004612522565b6112d2565b60405161029291906125e0565b3480156105cd575f5ffd5b5061046a7f000000000000000000000000000000000000000000000000000000000000000081565b348015610600575f5ffd5b506102e87f000000000000000000000000000000000000000000000000000000000000000081565b348015610633575f5ffd5b5061046a6113bc565b348015610647575f5ffd5b506102e87f0d6fd99afa9c4c580fab5e341922c2a5c4b61d880da60506193d7bf88944dd1481565b34801561067a575f5ffd5b506102656106893660046125f2565b7ff23a6e61000000000000000000000000000000000000000000000000000000009695505050505050565b3480156106bf575f5ffd5b507f000000000000000000000000000000000000000000000000000000000000000061046a565b3480156106f1575f5ffd5b506105b56040518060400160405280600581526020017f312e302e3000000000000000000000000000000000000000000000000000000081525081565b61073733610cff565b80610755575033730576a174d229e3cfa37253523e645a78a0c91b57145b6107e6576040517f08c379a000000000000000000000000000000000000000000000000000000000815260206004820152603e60248201527f4f6e6c792063616c6c61626c6520627920746865206d656368206f706572617460448201527f6f72206f722074686520656e74727920706f696e7420636f6e7472616374000060648201526084015b60405180910390fd5b805f0361081f576040517f7c946ed700000000000000000000000000000000000000000000000000000000815260040160405180910390fd5b60018190556040518181527fb912b1469d50f9612d4378acbbf5469b04e6da0f6fe174443169d704ad534258906020015b60405180910390a150565b5f5f5f5f61087b85602081015160408201516060909201515f1a92909190565b9094509250905060ff81165f03610991578285830160200161089c82610cff565b1580156108bf575073ffffffffffffffffffffffffffffffffffffffff82163014155b156108f257507fffffffff0000000000000000000000000000000000000000000000000000000094506109f89350505050565b6040517f1626ba7e00000000000000000000000000000000000000000000000000000000815273ffffffffffffffffffffffffffffffffffffffff831690631626ba7e90610946908b908590600401612669565b602060405180830381865afa158015610961573d5f5f3e3d5ffd5b505050506040513d601f19601f820116820180604052508101906109859190612681565b955050505050506109f8565b6109a06103d787838686611535565b156109d157507f1626ba7e0000000000000000000000000000000000000000000000000000000092506109f8915050565b507fffffffff00000000000000000000000000000000000000000000000000000000925050505b92915050565b5f610a07611551565b610a1184846115d0565b9050610a2060408501856126c0565b90505f03610a3157610a31846116a4565b610a3a82611725565b9392505050565b610a4a33610cff565b80610a68575033730576a174d229e3cfa37253523e645a78a0c91b57145b610af4576040517f08c379a000000000000000000000000000000000000000000000000000000000815260206004820152603e60248201527f4f6e6c792063616c6c61626c6520627920746865206d656368206f706572617460448201527f6f72206f722074686520656e74727920706f696e7420636f6e7472616374000060648201526084016107dd565b6040517f4e894dd100000000000000000000000000000000000000000000000000000000815273ffffffffffffffffffffffffffffffffffffffff7f00000000000000000000000000000000000000000000000000000000000000001690634e894dd190610b72908a908a908a908a908a908a908a90600401612811565b5f604051808303815f87803b158015610b89575f5ffd5b505af1158015610b9b573d5f5f3e3d5ffd5b5050505050505050505050565b6002546060905f849003610bba578093505b80610bc58486612999565b1115610c1257610bd58385612999565b6040517f7ae596850000000000000000000000000000000000000000000000000000000081526004810191909152602481018290526044016107dd565b8315610cf8578367ffffffffffffffff811115610c3157610c31612098565b604051908082528060200260200182016040528015610c5a578160200160208202803683370190505b505f80805260066020527f54cdd369e4e8a8515e52ca72ec816c2101831ad1f18bf44102ed171459c9b4f9549193505b84811015610cad575f828152600660205260409020600101549150600101610c8a565b505f5b85811015610cf55781848281518110610ccb57610ccb6129ac565b6020908102919091018101919091525f838152600690915260409020600101549150600101610cb0565b50505b5092915050565b5f610d086113bc565b73ffffffffffffffffffffffffffffffffffffffff168273ffffffffffffffffffffffffffffffffffffffff16149050919050565b6060610d4833610cff565b80610d66575033730576a174d229e3cfa37253523e645a78a0c91b57145b610df2576040517f08c379a000000000000000000000000000000000000000000000000000000000815260206004820152603e60248201527f4f6e6c792063616c6c61626c6520627920746865206d656368206f706572617460448201527f6f72206f722074686520656e74727920706f696e7420636f6e7472616374000060648201526084016107dd565b600554600203610e2e576040517f8beb9d1600000000000000000000000000000000000000000000000000000000815260040160405180910390fd5b6002600555831580610e405750838214155b15610e81576040517f8151c11000000000000000000000000000000000000000000000000000000000815260048101859052602481018390526044016107dd565b5f5f610e8f87878787611799565b6040517f9e592bb9000000000000000000000000000000000000000000000000000000008152919350915073ffffffffffffffffffffffffffffffffffffffff7f00000000000000000000000000000000000000000000000000000000000000001690639e592bb990610f0a908a908a9086906004016129d9565b5f604051808303815f875af1158015610f25573d5f5f3e3d5ffd5b505050506040513d5f823e601f3d9081017fffffffffffffffffffffffffffffffffffffffffffffffffffffffffffffffe0168201604052610f6a9190810190612a33565b9250855f805b8281101561108b57858181518110610f8a57610f8a6129ac565b6020026020010151156110315781610fa181612aeb565b9250339050307fb0d013658abb05dd269ff3ab257175d5ae3fa4107d4e142abd96e947cd5cb06f8c8c85818110610fda57610fda6129ac565b90506020020135878581518110610ff357610ff36129ac565b602002602001015189868151811061100d5761100d6129ac565b602002602001015160405161102493929190612b22565b60405180910390a3611083565b7fb5863ad79417b48f982fe746b7d7e7c00369bec5f782d4b58537541ff65e841a8a8a83818110611064576110646129ac565b9050602002013560405161107a91815260200190565b60405180910390a15b600101610f70565b508060045f82825461109d9190612999565b909155505060016005555092979650505050505050565b3373ffffffffffffffffffffffffffffffffffffffff7f00000000000000000000000000000000000000000000000000000000000000001614611161576040517fe56895c000000000000000000000000000000000000000000000000000000000815233600482015273ffffffffffffffffffffffffffffffffffffffff7f00000000000000000000000000000000000000000000000000000000000000001660248201526044016107dd565b8060035f8282546111729190612999565b925050819055508060045f82825461118a9190612999565b90915550506040518181527fa9650c1f534f48ac9fe2937c5af1eb577dd1c6ade5a0422a538a6253e5d9e52990602001610850565b6040517f0dc149f000000000000000000000000000000000000000000000000000000000815260040160405180910390fd5b3373ffffffffffffffffffffffffffffffffffffffff7f0000000000000000000000000000000000000000000000000000000000000000161461129e576040517fe56895c000000000000000000000000000000000000000000000000000000000815233600482015273ffffffffffffffffffffffffffffffffffffffff7f00000000000000000000000000000000000000000000000000000000000000001660248201526044016107dd565b6112aa848484846119d9565b50505050565b6006602052815f5260405f2081600281106112c9575f80fd5b01549150829050565b60606112dd33610cff565b806112fb575033730576a174d229e3cfa37253523e645a78a0c91b57145b611387576040517f08c379a000000000000000000000000000000000000000000000000000000000815260206004820152603e60248201527f4f6e6c792063616c6c61626c6520627920746865206d656368206f706572617460448201527f6f72206f722074686520656e74727920706f696e7420636f6e7472616374000060648201526084016107dd565b5f6113a187878787871561139b5787611b0f565b5a611b0f565b92509050806113b257815160208301fd5b5095945050505050565b6040517f4236aff80000000000000000000000000000000000000000000000000000000081527f000000000000000000000000000000000000000000000000000000000000000060048201525f908190819073ffffffffffffffffffffffffffffffffffffffff7f00000000000000000000000000000000000000000000000000000000000000001690634236aff89060240160e060405180830381865afa15801561146a573d5f5f3e3d5ffd5b505050506040513d601f19601f8201168201806040525081019061148e9190612b61565b965050505050925050600460058111156114aa576114aa612bf8565b8160058111156114bc576114bc612bf8565b1461152f578060058111156114d3576114d3612bf8565b6040517ff014fe7400000000000000000000000000000000000000000000000000000000815260048101919091527f000000000000000000000000000000000000000000000000000000000000000060248201526044016107dd565b50919050565b5f5f5f61154487878787611c12565b915091506113b281611cfa565b33730576a174d229e3cfa37253523e645a78a0c91b57146115ce576040517f08c379a000000000000000000000000000000000000000000000000000000000815260206004820152601c60248201527f6163636f756e743a206e6f742066726f6d20456e747279506f696e740000000060448201526064016107dd565b565b7f19457468657265756d205369676e6564204d6573736167653a0a3332000000005f908152601c829052603c81207f1626ba7e0000000000000000000000000000000000000000000000000000000061166a826116316101408801886126c0565b8080601f0160208091040260200160405190810160405280939291908181526020018383808284375f9201919091525061085b92505050565b7fffffffff00000000000000000000000000000000000000000000000000000000161461169b5760019150506109f8565b505f9392505050565b5f8054602083013591806116b783612aeb565b9190505514611722576040517f08c379a000000000000000000000000000000000000000000000000000000000815260206004820152600d60248201527f496e76616c6964206e6f6e63650000000000000000000000000000000000000060448201526064016107dd565b50565b8015611722576040515f9033907fffffffffffffffffffffffffffffffffffffffffffffffffffffffffffffffff90849084818181858888f193505050503d805f811461178d576040519150601f19603f3d011682016040523d82523d5f602084013e611792565b606091505b5050505050565b606080848067ffffffffffffffff8111156117b6576117b6612098565b6040519080825280602002602001820160405280156117e957816020015b60608152602001906001900390816117d45790505b5092508067ffffffffffffffff81111561180557611805612098565b60405190808252806020026020018201604052801561182e578160200160208202803683370190505b5091505f805b828110156119b5575f89898381811061184f5761184f6129ac565b9050602002013590506118858189898581811061186e5761186e6129ac565b905060200281019061188091906126c0565b611eac565b878481518110611897576118976129ac565b602002602001018785815181106118b0576118b06129ac565b602090810291909101810192909252919091525f828152600690915260408082208151808301928390529160029082845b8154815260200190600101908083116118e15750505050509050805f6002811061190d5761190d6129ac565b602002015115801561192157506020810151155b801561195657505f805260066020527f54cdd369e4e8a8515e52ca72ec816c2101831ad1f18bf44102ed171459c9b4f8548214155b156119625750506119ad565b8361196c81612aeb565b6020838101805185515f9081526006909352604080842060019081019290925595519151835285832091909155948152928320838155909301919091555091505b600101611834565b508060025f8282546119c79190612c25565b92505081905550505094509492505050565b825f5b84811015611ad9575f8686838181106119f7576119f76129ac565b600660209081520291909101355f81815260408082207f54cdd369e4e8a8515e52ca72ec816c2101831ad1f18bf44102ed171459c9b4f980546001830181905590859055808452919092208390559193507f54cdd369e4e8a8515e52ca72ec816c2101831ad1f18bf44102ed171459c9b4f8925090307f1ebd17f97038d3a14148566de635eab9901371bf904262f5498331b0c62921ce858a8a89818110611aa157611aa16129ac565b9050602002810190611ab391906126c0565b604051611ac293929190612c38565b60405180910390a2505050508060010190506119dc565b508060025f828254611aeb9190612999565b925050819055508060035f828254611b039190612999565b90915550505050505050565b5f60606001846001811115611b2657611b26612bf8565b03611b9a578673ffffffffffffffffffffffffffffffffffffffff168386604051611b519190612c51565b5f604051808303818686f4925050503d805f8114611b8a576040519150601f19603f3d011682016040523d82523d5f602084013e611b8f565b606091505b509092509050611c08565b8673ffffffffffffffffffffffffffffffffffffffff16838787604051611bc19190612c51565b5f60405180830381858888f193505050503d805f8114611bfc576040519150601f19603f3d011682016040523d82523d5f602084013e611c01565b606091505b5090925090505b9550959350505050565b5f807f7fffffffffffffffffffffffffffffff5d576e7357a4501ddfe92f46681b20a0831115611c4757505f90506003611cf1565b604080515f8082526020820180845289905260ff881692820192909252606081018690526080810185905260019060a0016020604051602081039080840390855afa158015611c98573d5f5f3e3d5ffd5b50506040517fffffffffffffffffffffffffffffffffffffffffffffffffffffffffffffffe0015191505073ffffffffffffffffffffffffffffffffffffffff8116611ceb575f60019250925050611cf1565b91505f90505b94509492505050565b5f816004811115611d0d57611d0d612bf8565b03611d155750565b6001816004811115611d2957611d29612bf8565b03611d90576040517f08c379a000000000000000000000000000000000000000000000000000000000815260206004820152601860248201527f45434453413a20696e76616c6964207369676e6174757265000000000000000060448201526064016107dd565b6002816004811115611da457611da4612bf8565b03611e0b576040517f08c379a000000000000000000000000000000000000000000000000000000000815260206004820152601f60248201527f45434453413a20696e76616c6964207369676e6174757265206c656e6774680060448201526064016107dd565b6003816004811115611e1f57611e1f612bf8565b03611722576040517f08c379a000000000000000000000000000000000000000000000000000000000815260206004820152602260248201527f45434453413a20696e76616c6964207369676e6174757265202773272076616c60448201527f756500000000000000000000000000000000000000000000000000000000000060648201526084016107dd565b60605f611ebb8385018561219e565b60405182815290935090915085907fe965ec1e7fc17336f45a9a0cb807222c188d9791602501b6825c2001d79e765b9060200160405180910390a2935093915050565b73ffffffffffffffffffffffffffffffffffffffff81168114611722575f5ffd5b5f5f83601f840112611f2f575f5ffd5b50813567ffffffffffffffff811115611f46575f5ffd5b602083019150836020828501011115611f5d575f5ffd5b9250929050565b5f5f5f5f5f5f5f5f60c0898b031215611f7b575f5ffd5b8835611f8681611efe565b97506020890135611f9681611efe565b96506040890135611fa681611efe565b955060608901359450608089013567ffffffffffffffff811115611fc8575f5ffd5b611fd48b828c01611f1f565b90955093505060a089013567ffffffffffffffff811115611ff3575f5ffd5b611fff8b828c01611f1f565b999c989b5096995094979396929594505050565b5f60208284031215612023575f5ffd5b5035919050565b5f5f5f5f5f6080868803121561203e575f5ffd5b853561204981611efe565b9450602086013561205981611efe565b935060408601359250606086013567ffffffffffffffff81111561207b575f5ffd5b61208788828901611f1f565b969995985093965092949392505050565b7f4e487b71000000000000000000000000000000000000000000000000000000005f52604160045260245ffd5b604051601f82017fffffffffffffffffffffffffffffffffffffffffffffffffffffffffffffffe016810167ffffffffffffffff8111828210171561210c5761210c612098565b604052919050565b5f82601f830112612123575f5ffd5b813567ffffffffffffffff81111561213d5761213d612098565b61216e60207fffffffffffffffffffffffffffffffffffffffffffffffffffffffffffffffe0601f840116016120c5565b818152846020838601011115612182575f5ffd5b816020850160208301375f918101602001919091529392505050565b5f5f604083850312156121af575f5ffd5b82359150602083013567ffffffffffffffff8111156121cc575f5ffd5b6121d885828601612114565b9150509250929050565b5f5f5f606084860312156121f4575f5ffd5b833567ffffffffffffffff81111561220a575f5ffd5b8401610160818703121561221c575f5ffd5b95602085013595506040909401359392505050565b5f5f83601f840112612241575f5ffd5b50813567ffffffffffffffff811115612258575f5ffd5b6020830191508360208260051b8501011115611f5d575f5ffd5b5f5f5f5f5f5f5f6080888a031215612288575f5ffd5b873561229381611efe565b9650602088013567ffffffffffffffff8111156122ae575f5ffd5b6122ba8a828b01612231565b909750955050604088013567ffffffffffffffff8111156122d9575f5ffd5b6122e58a828b01612231565b909550935050606088013567ffffffffffffffff811115612304575f5ffd5b6123108a828b01611f1f565b989b979a50959850939692959293505050565b5f5f60408385031215612334575f5ffd5b50508035926020909101359150565b602080825282518282018190525f918401906040840190835b8181101561237a57835183526020938401939092019160010161235c565b509095945050505050565b5f60208284031215612395575f5ffd5b8135610a3a81611efe565b5f5f5f5f604085870312156123b3575f5ffd5b843567ffffffffffffffff8111156123c9575f5ffd5b6123d587828801612231565b909550935050602085013567ffffffffffffffff8111156123f4575f5ffd5b61240087828801612231565b95989497509550505050565b602080825282518282018190525f918401906040840190835b8181101561237a5783511515835260209384019390920191600101612425565b5f60208284031215612455575f5ffd5b813567ffffffffffffffff81111561246b575f5ffd5b61247784828501612114565b949350505050565b5f5f5f5f5f5f5f5f60a0898b031215612496575f5ffd5b88356124a181611efe565b975060208901356124b181611efe565b9650604089013567ffffffffffffffff8111156124cc575f5ffd5b6124d88b828c01612231565b909750955050606089013567ffffffffffffffff8111156124f7575f5ffd5b6125038b828c01612231565b909550935050608089013567ffffffffffffffff811115611ff3575f5ffd5b5f5f5f5f5f60a08688031215612536575f5ffd5b853561254181611efe565b945060208601359350604086013567ffffffffffffffff811115612563575f5ffd5b61256f88828901612114565b935050606086013560028110612583575f5ffd5b949793965091946080013592915050565b5f81518084528060208401602086015e5f6020828601015260207fffffffffffffffffffffffffffffffffffffffffffffffffffffffffffffffe0601f83011685010191505092915050565b602081525f610a3a6020830184612594565b5f5f5f5f5f5f60a08789031215612607575f5ffd5b863561261281611efe565b9550602087013561262281611efe565b94506040870135935060608701359250608087013567ffffffffffffffff81111561264b575f5ffd5b61265789828a01611f1f565b979a9699509497509295939492505050565b828152604060208201525f6124776040830184612594565b5f60208284031215612691575f5ffd5b81517fffffffff0000000000000000000000000000000000000000000000000000000081168114610a3a575f5ffd5b5f5f83357fffffffffffffffffffffffffffffffffffffffffffffffffffffffffffffffe18436030181126126f3575f5ffd5b83018035915067ffffffffffffffff82111561270d575f5ffd5b602001915036819003821315611f5d575f5ffd5b5f5f83357fffffffffffffffffffffffffffffffffffffffffffffffffffffffffffffffe1843603018112612754575f5ffd5b830160208101925035905067ffffffffffffffff811115612773575f5ffd5b803603821315611f5d575f5ffd5b81835281816020850137505f602082840101525f60207fffffffffffffffffffffffffffffffffffffffffffffffffffffffffffffffe0601f840116840101905092915050565b8183525f7f07ffffffffffffffffffffffffffffffffffffffffffffffffffffffffffffff8311156127f8575f5ffd5b8260051b80836020870137939093016020019392505050565b5f6080820173ffffffffffffffffffffffffffffffffffffffff8a168352608060208401528088825260a08401905060a08960051b8501019150895f7fffffffffffffffffffffffffffffffffffffffffffffffffffffffffffffffa18c3603015b8b821015612932577fffffffffffffffffffffffffffffffffffffffffffffffffffffffffffffff6087860301845282358181126128af575f5ffd5b8d016128bb8180612721565b606088526128cd606089018284612781565b9150506128dd6020830183612721565b88830360208a01526128f0838284612781565b925050506129016040830183612721565b92508782036040890152612916828483612781565b9750505050602083019250602084019350600182019150612873565b5050505082810360408401526129498187896127c8565b9050828103606084015261295e818587612781565b9a9950505050505050505050565b7f4e487b71000000000000000000000000000000000000000000000000000000005f52601160045260245ffd5b808201808211156109f8576109f861296c565b7f4e487b71000000000000000000000000000000000000000000000000000000005f52603260045260245ffd5b604081525f6129ec6040830185876127c8565b82810360208401528084518083526020830191506020860192505f5b81811015612a26578351835260209384019390920191600101612a08565b5090979650505050505050565b5f60208284031215612a43575f5ffd5b815167ffffffffffffffff811115612a59575f5ffd5b8201601f81018413612a69575f5ffd5b805167ffffffffffffffff811115612a8357612a83612098565b8060051b612a93602082016120c5565b91825260208184018101929081019087841115612aae575f5ffd5b6020850194505b83851015612ae057845192508215158314612ace575f5ffd5b82825260209485019490910190612ab5565b979650505050505050565b5f7fffffffffffffffffffffffffffffffffffffffffffffffffffffffffffffffff8203612b1b57612b1b61296c565b5060010190565b838152826020820152606060408201525f612b406060830184612594565b95945050505050565b805163ffffffff81168114612b5c575f5ffd5b919050565b5f5f5f5f5f5f5f60e0888a031215612b77575f5ffd5b87516bffffffffffffffffffffffff81168114612b92575f5ffd5b6020890151909750612ba381611efe565b60408901519096509450612bb960608901612b49565b9350612bc760808901612b49565b9250612bd560a08901612b49565b915060c088015160068110612be8575f5ffd5b8091505092959891949750929550565b7f4e487b71000000000000000000000000000000000000000000000000000000005f52602160045260245ffd5b818103818111156109f8576109f861296c565b838152604060208201525f612b40604083018486612781565b5f82518060208501845e5f92019182525091905056fea2646970667358221220a60108112a7a4b17bc3d0e14ce0096b9d67cdb59a480d83301d989061ad0952d64736f6c634300081c0033",
  "linkReferences": {},
  "deployedLinkReferences": {}
}