{"abi":[{"type":"constructor","inputs":[{"name":"_serviceRegistry","type":"address","internalType":"address"},{"name":"_karma","type":"address","internalType":"address"}],"stateMutability":"nonpayable"},{"type":"function","name":"DOMAIN_SEPARATOR_TYPE_HASH","inputs":[],"outputs":[{"name":"","type":"bytes32","internalType":"bytes32"}],"stateMutability":"view"},{"type":"function","name":"MAX_FEE_FACTOR","inputs":[],"outputs":[{"name":"","type":"uint256","internalType":"uint256"}],"stateMutability":"view"},{"type":"function","name":"MECH_MARKETPLACE_PROXY","inputs":[],"outputs":[{"name":"","type":"bytes32","internalType":"bytes32"}],"stateMutability":"view"},{"type":"function","name":"VERSION","inputs":[],"outputs":[{"name":"","type":"string","internalType":"string"}],"stateMutability":"view"},{"type":"function","name":"chainId","inputs":[],"outputs":[{"name":"","type":"uint256","internalType":"uint256"}],"stateMutability":"view"},{"type":"function","name":"changeImplementation","inputs":[{"name":"newImplementation","type":"address","internalType":"address"}],"outputs":[],"stateMutability":"nonpayable"},{"type":"function","name":"changeMarketplaceParams","inputs":[{"name":"newFee","type":"uint256","internalType":"uint256"},{"name":"newMinResponseTimeout","type":"uint256","internalType":"uint256"},{"name":"newMaxResponseTimeout","type":"uint256","internalType":"uint256"}],"outputs":[],"stateMutability":"nonpayable"},{"type":"function","name":"changeOwner","inputs":[{"name":"newOwner","type":"address","internalType":"address"}],"outputs":[],"stateMutability":"nonpayable"},{"type":"function","name":"checkMech","inputs":[{"name":"mech","type":"address","internalType":"address"}],"outputs":[{"name":"multisig","type":"address","internalType":"address"}],"stateMutability":"view"},{"type":"function","name":"create","inputs":[{"name":"serviceId","type":"uint256","internalType":"uint256"},{"name":"mechFactory","type":"address","internalType":"address"},{"name":"payload","type":"bytes","internalType":"bytes"}],"outputs":[{"name":"mech","type":"address","internalType":"address"}],"stateMutability":"nonpayable"},{"type":"function","name":"deliverMarketplace","inputs":[{"name":"requestIds","type":"bytes32[]","internalType":"bytes32[]"},{"name":"deliveryRates","type":"uint256[]","internalType":"uint256[]"}],"outputs":[{"name":"deliveredRequests","type":"bool[]","internalType":"bool[]"}],"stateMutability":"nonpayable"},{"type":"function","name":"deliverMarketplaceWithSignatures","inputs":[{"name":"requester","type":"address","internalType":"address"},{"name":"deliverWithSignatures","type":"tuple[]","internalType":"struct DeliverWithSignature[]","components":[{"name":"requestData","type":"bytes","internalType":"bytes"},{"name":"signature","type":"bytes","internalType":"bytes"},{"name":"deliveryData","type":"bytes","internalType":"bytes"}]},{"name":"deliveryRates","type":"uint256[]","internalType":"uint256[]"},{"name":"paymentData","type":"bytes","internalType":"bytes"}],"outputs":[],"stateMutability":"nonpayable"},{"type":"function","name":"domainSeparator","inputs":[],"outputs":[{"name":"","type":"bytes32","internalType":"bytes32"}],"stateMutability":"view"},{"type":"function","name":"fee","inputs":[],"outputs":[{"name":"","type":"uint256","internalType":"uint256"}],"stateMutability":"view"},{"type":"function","name":"getDomainSeparator","inputs":[],"outputs":[{"name":"","type":"bytes32","internalType":"bytes32"}],"stateMutability":"view"},{"type":"function","name":"getRequestId","inputs":[{"name":"mech","type":"address","internalType":"address"},{"name":"requester","type":"address","internalType":"address"},{"name":"data","type":"bytes","internalType":"bytes"},{"name":"deliveryRate","type":"uint256","internalType":"uint256"},{"name":"paymentType","type":"bytes32","internalType":"bytes32"},{"name":"nonce","type":"uint256","internalType":"uint256"}],"outputs":[{"name":"requestId","type":"bytes32","internalType":"bytes32"}],"stateMutability":"view"},{"type":"function","name":"getRequestStatus","inputs":[{"name":"requestId","type":"bytes32","internalType":"bytes32"}],"outputs":[{"name":"status","type":"uint8","internalType":"enum MechMarketplace.RequestStatus"}],"stateMutability":"view"},{"type":"function","name":"initialize","inputs":[{"name":"_fee","type":"uint256","internalType":"uint256"},{"name":"_minResponseTimeout","type":"uint256","internalType":"uint256"},{"name":"_maxResponseTimeout","type":"uint256","internalType":"uint256"}],"outputs":[],"stateMutability":"nonpayable"},{"type":"function","name":"karma","inputs":[],"outputs":[{"name":"","type":"address","internalType":"address"}],"stateMutability":"view"},{"type":"function","name":"mapAgentMechFactories","inputs":[{"name":"","type":"address","internalType":"address"}],"outputs":[{"name":"","type":"address","internalType":"address"}],"stateMutability":"view"},{"type":"function","name":"mapDeliveryCounts","inputs":[{"name":"","type":"address","internalType":"address"}],"outputs":[{"name":"","type":"uint256","internalType":"uint256"}],"stateMutability":"view"},{"type":"function","name":"mapMechDeliveryCounts","inputs":[{"name":"","type":"address","internalType":"address"}],"outputs":[{"name":"","type":"uint256","internalType":"uint256"}],"stateMutability":"view"},{"type":"function","name":"mapMechFactories","inputs":[{"name":"","type":"address","internalType":"address"}],"outputs":[{"name":"","type":"bool","internalType":"bool"}],"stateMutability":"view"},{"type":"function","name":"mapMechServiceDeliveryCounts","inputs":[{"name":"","type":"address","internalType":"address"}],"outputs":[{"name":"","type":"uint256","internalType":"uint256"}],"stateMutability":"view"},{"type":"function","name":"mapNonces","inputs":[{"name":"","type":"address","internalType":"address"}],"outputs":[{"name":"","type":"uint256","internalType":"uint256"}],"stateMutability":"view"},{"type":"function","name":"mapPaymentTypeBalanceTrackers","inputs":[{"name":"","type":"bytes32","internalType":"bytes32"}],"outputs":[{"name":"","type":"address","internalType":"address"}],"stateMutability":"view"},{"type":"function","name":"mapRequestCounts","inputs":[{"name":"","type":"address","internalType":"address"}],"outputs":[{"name":"","type":"uint256","internalType":"uint256"}],"stateMutability":"view"},{"type":"function","name":"mapRequestIdInfos","inputs":[{"name":"","type":"bytes32","internalType":"bytes32"}],"outputs":[{"name":"priorityMech","type":"address","internalType":"address"},{"name":"deliveryMech","type":"address","internalType":"address"},{"name":"requester","type":"address","internalType":"address"},{"name":"responseTimeout","type":"uint256","internalType":"uint256"},{"name":"deliveryRate","type":"uint256","internalType":"uint256"},{"name":"paymentType","type":"bytes32","internalType":"bytes32"}],"stateMutability":"view"},{"type":"function","name":"maxResponseTimeout","inputs":[],"outputs":[{"name":"","type":"uint256","internalType":"uint256"}],"stateMutability":"view"},{"type":"function","name":"minResponseTimeout","inputs":[],"outputs":[{"name":"","type":"uint256","internalType":"uint256"}],"stateMutability":"view"},{"type":"function","name":"numMechs","inputs":[],"outputs":[{"name":"","type":"uint256","internalType":"uint256"}],"stateMutability":"view"},{"type":"function","name":"numTotalRequests","inputs":[],"outputs":[{"name":"","type":"uint256","internalType":"uint256"}],"stateMutability":"view"},{"type":"function","name":"numUndeliveredRequests","inputs":[],"outputs":[{"name":"","type":"uint256","internalType":"uint256"}],"stateMutability":"view"},{"type":"function","name":"owner","inputs":[],"outputs":[{"name":"","type":"address","internalType":"address"}],"stateMutability":"view"},{"type":"function","name":"request","inputs":[{"name":"requestData","type":"bytes","internalType":"bytes"},{"name":"maxDeliveryRate","type":"uint256","internalType":"uint256"},{"name":"paymentType","type":"bytes32","internalType":"bytes32"},{"name":"priorityMech","type":"address","internalType":"address"},{"name":"responseTimeout","type":"uint256","internalType":"uint256"},{"name":"paymentData","type":"bytes","internalType":"bytes"}],"outputs":[{"name":"requestId","type":"bytes32","internalType":"bytes32"}],"stateMutability":"payable"},{"type":"function","name":"requestBatch","inputs":[{"name":"requestDatas","type":"bytes[]","internalType":"bytes[]"},{"name":"maxDeliveryRate","type":"uint256","internalType":"uint256"},{"name":"paymentType","type":"bytes32","internalType":"bytes32"},{"name":"priorityMech","type":"address","internalType":"address"},{"name":"responseTimeout","type":"uint256","internalType":"uint256"},{"name":"paymentData","type":"bytes","internalType":"bytes"}],"outputs":[{"name":"requestIds","type":"bytes32[]","internalType":"bytes32[]"}],"stateMutability":"payable"},{"type":"function","name":"serviceRegistry","inputs":[],"outputs":[{"name":"","type":"address","internalType":"address"}],"stateMutability":"view"},{"type":"function","name":"setMechFactoryStatuses","inputs":[{"name":"mechFactories","type":"address[]","internalType":"address[]"},{"name":"statuses","type":"bool[]","internalType":"bool[]"}],"outputs":[],"stateMutability":"nonpayable"},{"type":"function","name":"setPaymentTypeBalanceTrackers","inputs":[{"name":"paymentTypes","type":"bytes32[]","internalType":"bytes32[]"},{"name":"balanceTrackers","type":"address[]","internalType":"address[]"}],"outputs":[],"stateMutability":"nonpayable"},{"type":"event","name":"CreateMech","inputs":[{"name":"mech","type":"address","indexed":true,"internalType":"address"},{"name":"serviceId","type":"uint256","indexed":true,"internalType":"uint256"},{"name":"mechFactory","type":"address","indexed":true,"internalType":"address"}],"anonymous":false},{"type":"event","name":"Deliver","inputs":[{"name":"mech","type":"address","indexed":true,"internalType":"address"},{"name":"mechServiceMultisig","type":"address","indexed":true,"internalType":"address"},{"name":"requestId","type":"bytes32","indexed":false,"internalType":"bytes32"},{"name":"deliveryRate","type":"uint256","indexed":false,"internalType":"uint256"},{"name":"data","type":"bytes","indexed":false,"internalType":"bytes"}],"anonymous":false},{"type":"event","name":"ImplementationUpdated","inputs":[{"name":"implementation","type":"address","indexed":true,"internalType":"address"}],"anonymous":false},{"type":"event","name":"MarketplaceDelivery","inputs":[{"name":"deliveryMech","type":"address","indexed":true,"internalType":"address"},{"name":"requesters","type":"address[]","indexed":true,"internalType":"address[]"},{"name":"numDeliveries","type":"uint256","indexed":false,"internalType":"uint256"},{"name":"requestIds","type":"bytes32[]","indexed":false,"internalType":"bytes32[]"},{"name":"deliveredRequests","type":"bool[]","indexed":false,"internalType":"bool[]"}],"anonymous":false},{"type":"event","name":"MarketplaceDeliveryWithSignatures","inputs":[{"name":"deliveryMech","type":"address","indexed":true,"internalType":"address"},{"name":"requester","type":"address","indexed":true,"internalType":"address"},{"name":"numDeliveries","type":"uint256","indexed":false,"internalType":"uint256"},{"name":"requestIds","type":"bytes32[]","indexed":false,"internalType":"bytes32[]"}],"anonymous":false},{"type":"event","name":"MarketplaceParamsUpdated","inputs":[{"name":"fee","type":"uint256","indexed":false,"internalType":"uint256"},{"name":"minResponseTimeout","type":"uint256","indexed":false,"internalType":"uint256"},{"name":"maxResponseTimeout","type":"uint256","indexed":false,"internalType":"uint256"}],"anonymous":false},{"type":"event","name":"MarketplaceRequest","inputs":[{"name":"priorityMech","type":"address","indexed":true,"internalType":"address"},{"name":"requester","type":"address","indexed":true,"internalType":"address"},{"name":"numRequests","type":"uint256","indexed":false,"internalType":"uint256"},{"name":"requestIds","type":"bytes32[]","indexed":false,"internalType":"bytes32[]"}],"anonymous":false},{"type":"event","name":"OwnerUpdated","inputs":[{"name":"owner","type":"address","indexed":true,"internalType":"address"}],"anonymous":false},{"type":"event","name":"SetMechFactoryStatuses","inputs":[{"name":"mechFactories","type":"address[]","indexed":false,"internalType":"address[]"},{"name":"statuses","type":"bool[]","indexed":false,"internalType":"bool[]"}],"anonymous":false},{"type":"event","name":"SetPaymentTypeBalanceTrackers","inputs":[{"name":"paymentTypes","type":"bytes32[]","indexed":false,"internalType":"bytes32[]"},{"name":"balanceTrackers","type":"address[]","indexed":false,"internalType":"address[]"}],"anonymous":false},{"type":"error","name":"AlreadyInitialized","inputs":[]},{"type":"error","name":"AlreadyRequested","inputs":[{"name":"requestId","type":"bytes32","internalType":"bytes32"}]},{"type":"error","name":"IncorrectSignatureLength","inputs":[{"name":"signature","type":"bytes","internalType":"bytes"},{"name":"provided","type":"uint256","internalType":"uint256"},{"name":"expected","type":"uint256","internalType":"uint256"}]},{"type":"error","name":"InsufficientBalance","inputs":[{"name":"current","type":"uint256","internalType":"uint256"},{"name":"required","type":"uint256","internalType":"uint256"}]},{"type":"error","name":"NoDepositAllowed","inputs":[{"name":"amount","type":"uint256","internalType":"uint256"}]},{"type":"error","name":"OutOfBounds","inputs":[{"name":"provided","type":"uint256","internalType":"uint256"},{"name":"min","type":"uint256","internalType":"uint256"},{"name":"max","type":"uint256","internalType":"uint256"}]},{"type":"error","name":"Overflow","inputs":[{"name":"provided","type":"uint256","internalType":"uint256"},{"name":"max","type":"uint256","internalType":"uint256"}]},{"type":"error","name":"OwnerOnly","inputs":[{"name":"sender","type":"address","internalType":"address"},{"name":"owner","type":"address","internalType":"address"}]},{"type":"error","name":"ReentrancyGuard","inputs":[]},{"type":"error","name":"SignatureNotValidated","inputs":[{"name":"requester","type":"address","internalType":"address"},{"name":"msgHash","type":"bytes32","internalType":"bytes32"},{"name":"signature","type":"bytes","internalType":"bytes"}]},{"type":"error","name":"TransferFailed","inputs":[{"name":"token","type":"address","internalType":"address"},{"name":"from","type":"address","internalType":"address"},{"name":"to","type":"address","internalType":"address"},{"name":"amount","type":"uint256","internalType":"uint256"}]},{"type":"error","name":"UnauthorizedAccount","inputs":[{"name":"account","type":"address","internalType":"address"}]},{"type":"error","name":"WrongArrayLength","inputs":[{"name":"numValues1","type":"uint256","internalType":"uint256"},{"name":"numValues2","type":"uint256","internalType":"uint256"}]},{"type":"error","name":"WrongPaymentType","inputs":[{"name":"paymentType","type":"bytes32","internalType":"bytes32"}]},{"type":"error","name":"WrongServiceState","inputs":[{"name":"state","type":"uint256","internalType":"uint256"},{"name":"serviceId","type":"uint256","internalType":"uint256"}]},{"type":"error","name":"ZeroAddress","inputs":[]},{"type":"error","name":"ZeroValue","inputs":[]}],"bytecode":{"object":"0x60e060405234801561000f575f5ffd5b506040516164f93803806164f9833981810160405281019061003191906101a2565b5f73ffffffffffffffffffffffffffffffffffffffff168273ffffffffffffffffffffffffffffffffffffffff16148061009657505f73ffffffffffffffffffffffffffffffffffffffff168173ffffffffffffffffffffffffffffffffffffffff16145b156100cd576040517fd92e233d00000000000000000000000000000000000000000000000000000000815260040160405180910390fd5b8173ffffffffffffffffffffffffffffffffffffffff1660c08173ffffffffffffffffffffffffffffffffffffffff16815250508073ffffffffffffffffffffffffffffffffffffffff1660a08173ffffffffffffffffffffffffffffffffffffffff1681525050466080818152505050506101e0565b5f5ffd5b5f73ffffffffffffffffffffffffffffffffffffffff82169050919050565b5f61017182610148565b9050919050565b61018181610167565b811461018b575f5ffd5b50565b5f8151905061019c81610178565b92915050565b5f5f604083850312156101b8576101b7610144565b5b5f6101c58582860161018e565b92505060206101d68582860161018e565b9150509250929050565b60805160a05160c0516162b06102495f395f81816111aa0152818161127801528181611431015261273801525f818161198201528181612002015281816122e00152818161332b015281816133b50152613dff01525f8181611bc10152612a7e01526162b05ff3fe60806040526004361061022e575f3560e01c80638da5cb5b1161012d578063d64bf8b0116100aa578063ed24911d1161006e578063ed24911d146108bf578063f5dcb7bb146108e9578063f6938b0914610913578063f698da2514610943578063ffa1ad741461096d5761022e565b8063d64bf8b0146107ef578063ddca3f4314610817578063ded8128614610841578063e0cb19e81461086b578063e8eca22d146108955761022e565b8063bdf86317116100f1578063bdf86317146106f3578063c69f6f9f1461071d578063c7b6a9f014610759578063cbcf252a14610789578063cbd6407a146107b35761022e565b80638da5cb5b146106115780639a8a05921461063b5780639e592bb914610665578063a6f9dae1146106a1578063af4937fc146106c95761022e565b806345d07664116101bb57806357c0762d1161017f57806357c0762d1461051a57806374a8569b146105425780637ecb65f61461056c57806380d85911146105a85780638342d20e146105d05761022e565b806345d076641461041457806346fbcbb2146104505780634ada3e611461048c5780634e894dd1146104b65780634eb07dd3146104de5761022e565b8063176b8b0111610202578063176b8b01146102fc57806317a68dd8146103385780631bbbeeb8146103605780632685937b1461039c57806343be9643146103d85761022e565b8062427c5414610232578063087f08d41461026e5780630f41196a1461029657806313999914146102c0575b5f5ffd5b34801561023d575f5ffd5b50610258600480360381019061025391906143b3565b610997565b60405161026591906143f6565b60405180910390f35b348015610279575f5ffd5b50610294600480360381019061028f91906144c5565b6109ac565b005b3480156102a1575f5ffd5b506102aa610c3f565b6040516102b791906143f6565b60405180910390f35b3480156102cb575f5ffd5b506102e660048036038101906102e191906143b3565b610c45565b6040516102f3919061455d565b60405180910390f35b348015610307575f5ffd5b50610322600480360381019061031d91906143b3565b610c62565b60405161032f91906143f6565b60405180910390f35b348015610343575f5ffd5b5061035e600480360381019061035991906143b3565b610c77565b005b34801561036b575f5ffd5b50610386600480360381019061038191906143b3565b610df9565b60405161039391906143f6565b60405180910390f35b3480156103a7575f5ffd5b506103c260048036038101906103bd91906143b3565b610e0e565b6040516103cf9190614585565b60405180910390f35b3480156103e3575f5ffd5b506103fe60048036038101906103f991906143b3565b610fb4565b60405161040b91906143f6565b60405180910390f35b34801561041f575f5ffd5b5061043a600480360381019061043591906145d1565b610fc9565b604051610447919061466f565b60405180910390f35b34801561045b575f5ffd5b50610476600480360381019061047191906147ea565b6111a6565b6040516104839190614585565b60405180910390f35b348015610497575f5ffd5b506104a061160c565b6040516104ad91906143f6565b60405180910390f35b3480156104c1575f5ffd5b506104dc60048036038101906104d79190614955565b611612565b005b3480156104e9575f5ffd5b5061050460048036038101906104ff91906145d1565b611851565b6040516105119190614585565b60405180910390f35b348015610525575f5ffd5b50610540600480360381019061053b9190614a19565b611881565b005b34801561054d575f5ffd5b50610556611980565b6040516105639190614585565b60405180910390f35b348015610577575f5ffd5b50610592600480360381019061058d9190614a69565b6119a4565b60405161059f9190614b1d565b60405180910390f35b3480156105b3575f5ffd5b506105ce60048036038101906105c99190614a19565b611a1a565b005b3480156105db575f5ffd5b506105f660048036038101906105f191906145d1565b611b05565b60405161060896959493929190614b36565b60405180910390f35b34801561061c575f5ffd5b50610625611b9a565b6040516106329190614585565b60405180910390f35b348015610646575f5ffd5b5061064f611bbf565b60405161065c91906143f6565b60405180910390f35b348015610670575f5ffd5b5061068b60048036038101906106869190614bea565b611be3565b6040516106989190614d1f565b60405180910390f35b3480156106ac575f5ffd5b506106c760048036038101906106c291906143b3565b6124f1565b005b3480156106d4575f5ffd5b506106dd612690565b6040516106ea91906143f6565b60405180910390f35b3480156106fe575f5ffd5b50610707612696565b60405161071491906143f6565b60405180910390f35b348015610728575f5ffd5b50610743600480360381019061073e91906143b3565b61269c565b6040516107509190614585565b60405180910390f35b610773600480360381019061076e9190614e1d565b6126cc565b6040516107809190614f9a565b60405180910390f35b348015610794575f5ffd5b5061079d612736565b6040516107aa9190614585565b60405180910390f35b3480156107be575f5ffd5b506107d960048036038101906107d491906143b3565b61275a565b6040516107e691906143f6565b60405180910390f35b3480156107fa575f5ffd5b5061081560048036038101906108109190614fba565b61276f565b005b348015610822575f5ffd5b5061082b612a43565b60405161083891906143f6565b60405180910390f35b34801561084c575f5ffd5b50610855612a49565b60405161086291906143f6565b60405180910390f35b348015610876575f5ffd5b5061087f612a4f565b60405161088c91906143f6565b60405180910390f35b3480156108a0575f5ffd5b506108a9612a55565b6040516108b69190614b1d565b60405180910390f35b3480156108ca575f5ffd5b506108d3612a7b565b6040516108e09190614b1d565b60405180910390f35b3480156108f4575f5ffd5b506108fd612ab8565b60405161090a9190614b1d565b60405180910390f35b61092d60048036038101906109289190615038565b612adc565b60405161093a9190614b1d565b60405180910390f35b34801561094e575f5ffd5b50610957612c22565b6040516109649190614b1d565b60405180910390f35b348015610978575f5ffd5b50610981612c27565b60405161098e919061515e565b60405180910390f35b600a602052805f5260405f205f915090505481565b60085f9054906101000a900473ffffffffffffffffffffffffffffffffffffffff1673ffffffffffffffffffffffffffffffffffffffff163373ffffffffffffffffffffffffffffffffffffffff1614610a60573360085f9054906101000a900473ffffffffffffffffffffffffffffffffffffffff166040517fa43d6ada000000000000000000000000000000000000000000000000000000008152600401610a5792919061517e565b60405180910390fd5b818190508484905014610ab25783839050828290506040517f8151c110000000000000000000000000000000000000000000000000000000008152600401610aa99291906151a5565b60405180910390fd5b5f5f90505b84849050811015610bfb575f73ffffffffffffffffffffffffffffffffffffffff16858583818110610aec57610aeb6151cc565b5b9050602002016020810190610b0191906143b3565b73ffffffffffffffffffffffffffffffffffffffff1603610b4e576040517fd92e233d00000000000000000000000000000000000000000000000000000000815260040160405180910390fd5b828282818110610b6157610b606151cc565b5b9050602002016020810190610b769190615223565b600e5f878785818110610b8c57610b8b6151cc565b5b9050602002016020810190610ba191906143b3565b73ffffffffffffffffffffffffffffffffffffffff1673ffffffffffffffffffffffffffffffffffffffff1681526020019081526020015f205f6101000a81548160ff021916908315150217905550806001019050610ab7565b507f8cc6be981009d13170c616af494b7d671ed2d84b7e6891e4c8f21fe065c00dfc84848484604051610c319493929190615390565b60405180910390a150505050565b60025481565b600e602052805f5260405f205f915054906101000a900460ff1681565b600b602052805f5260405f205f915090505481565b60085f9054906101000a900473ffffffffffffffffffffffffffffffffffffffff1673ffffffffffffffffffffffffffffffffffffffff163373ffffffffffffffffffffffffffffffffffffffff1614610d2b573360085f9054906101000a900473ffffffffffffffffffffffffffffffffffffffff166040517fa43d6ada000000000000000000000000000000000000000000000000000000008152600401610d2292919061517e565b60405180910390fd5b5f73ffffffffffffffffffffffffffffffffffffffff168173ffffffffffffffffffffffffffffffffffffffff1603610d90576040517fd92e233d00000000000000000000000000000000000000000000000000000000815260040160405180910390fd5b807fe6194b93a7bff0a54130ed8cd277223408a77f3e48bb5104a9db96d334f962ca558073ffffffffffffffffffffffffffffffffffffffff167f310ba5f1d2ed074b51e2eccd052a47ae9ab7c6b800d1fca3db3999d6a592ca0360405160405180910390a250565b6009602052805f5260405f205f915090505481565b5f5f73ffffffffffffffffffffffffffffffffffffffff168273ffffffffffffffffffffffffffffffffffffffff1603610e74576040517fd92e233d00000000000000000000000000000000000000000000000000000000815260040160405180910390fd5b5f73ffffffffffffffffffffffffffffffffffffffff16600f5f8473ffffffffffffffffffffffffffffffffffffffff1673ffffffffffffffffffffffffffffffffffffffff1681526020019081526020015f205f9054906101000a900473ffffffffffffffffffffffffffffffffffffffff1673ffffffffffffffffffffffffffffffffffffffff1603610f4057816040517f32b2baa3000000000000000000000000000000000000000000000000000000008152600401610f379190614585565b60405180910390fd5b8173ffffffffffffffffffffffffffffffffffffffff1663e7f43c686040518163ffffffff1660e01b8152600401602060405180830381865afa158015610f89573d5f5f3e3d5ffd5b505050506040513d601f19601f82011682018060405250810190610fad91906153dd565b9050919050565b600c602052805f5260405f205f915090505481565b5f5f600d5f8481526020019081526020015f206040518060c00160405290815f82015f9054906101000a900473ffffffffffffffffffffffffffffffffffffffff1673ffffffffffffffffffffffffffffffffffffffff1673ffffffffffffffffffffffffffffffffffffffff168152602001600182015f9054906101000a900473ffffffffffffffffffffffffffffffffffffffff1673ffffffffffffffffffffffffffffffffffffffff1673ffffffffffffffffffffffffffffffffffffffff168152602001600282015f9054906101000a900473ffffffffffffffffffffffffffffffffffffffff1673ffffffffffffffffffffffffffffffffffffffff1673ffffffffffffffffffffffffffffffffffffffff168152602001600382015481526020016004820154815260200160058201548152505090505f73ffffffffffffffffffffffffffffffffffffffff16815f015173ffffffffffffffffffffffffffffffffffffffff1603611144575f9150506111a1565b5f73ffffffffffffffffffffffffffffffffffffffff16816020015173ffffffffffffffffffffffffffffffffffffffff16146111855760039150506111a1565b806060015142111561119b5760029150506111a1565b60019150505b919050565b5f5f7f000000000000000000000000000000000000000000000000000000000000000073ffffffffffffffffffffffffffffffffffffffff16636352211e866040518263ffffffff1660e01b815260040161120191906143f6565b602060405180830381865afa15801561121c573d5f5f3e3d5ffd5b505050506040513d601f19601f8201168201806040525081019061124091906153dd565b90508073ffffffffffffffffffffffffffffffffffffffff163373ffffffffffffffffffffffffffffffffffffffff1614611388575f7f000000000000000000000000000000000000000000000000000000000000000073ffffffffffffffffffffffffffffffffffffffff16634236aff8876040518263ffffffff1660e01b81526004016112cf91906143f6565b60e060405180830381865afa1580156112ea573d5f5f3e3d5ffd5b505050506040513d601f19601f8201168201806040525081019061130e91906154b9565b50505050509150508073ffffffffffffffffffffffffffffffffffffffff163373ffffffffffffffffffffffffffffffffffffffff161461138657336040517f32b2baa300000000000000000000000000000000000000000000000000000000815260040161137d9190614585565b60405180910390fd5b505b600e5f8573ffffffffffffffffffffffffffffffffffffffff1673ffffffffffffffffffffffffffffffffffffffff1681526020019081526020015f205f9054906101000a900460ff1661141357836040517f32b2baa300000000000000000000000000000000000000000000000000000000815260040161140a9190614585565b60405180910390fd5b8373ffffffffffffffffffffffffffffffffffffffff16630f7fb56d7f000000000000000000000000000000000000000000000000000000000000000087866040518463ffffffff1660e01b8152600401611470939291906155a8565b6020604051808303815f875af115801561148c573d5f5f3e3d5ffd5b505050506040513d601f19601f820116820180604052508101906114b091906153dd565b91505f73ffffffffffffffffffffffffffffffffffffffff168273ffffffffffffffffffffffffffffffffffffffff1603611517576040517fd92e233d00000000000000000000000000000000000000000000000000000000815260040160405180910390fd5b83600f5f8473ffffffffffffffffffffffffffffffffffffffff1673ffffffffffffffffffffffffffffffffffffffff1681526020019081526020015f205f6101000a81548173ffffffffffffffffffffffffffffffffffffffff021916908373ffffffffffffffffffffffffffffffffffffffff16021790555060065f8154809291906115a490615611565b91905055508373ffffffffffffffffffffffffffffffffffffffff16858373ffffffffffffffffffffffffffffffffffffffff167f46e1ca45c09520471c43e2e88eca33bb51803011cfd456933629dcc645ecacd660405160405180910390a4509392505050565b60055481565b60026007540361164e576040517f8beb9d1600000000000000000000000000000000000000000000000000000000815260040160405180910390fd5b60026007819055505f86869050148061166d5750838390508686905014155b156116b75785859050848490506040517f8151c1100000000000000000000000000000000000000000000000000000000081526004016116ae9291906151a5565b60405180910390fd5b5f3373ffffffffffffffffffffffffffffffffffffffff16632763b8da6040518163ffffffff1660e01b8152600401602060405180830381865afa158015611701573d5f5f3e3d5ffd5b505050506040513d601f19601f820116820180604052508101906117259190615658565b9050611735888289898989612c60565b5f60105f8381526020019081526020015f205f9054906101000a900473ffffffffffffffffffffffffffffffffffffffff1690505f73ffffffffffffffffffffffffffffffffffffffff168173ffffffffffffffffffffffffffffffffffffffff16036117ce576040517fd92e233d00000000000000000000000000000000000000000000000000000000815260040160405180910390fd5b8073ffffffffffffffffffffffffffffffffffffffff16636072dd2c338b898989896040518763ffffffff1660e01b815260040161181196959493929190615727565b5f604051808303815f87803b158015611828575f5ffd5b505af115801561183a573d5f5f3e3d5ffd5b505050506001600781905550505050505050505050565b6010602052805f5260405f205f915054906101000a900473ffffffffffffffffffffffffffffffffffffffff1681565b60085f9054906101000a900473ffffffffffffffffffffffffffffffffffffffff1673ffffffffffffffffffffffffffffffffffffffff163373ffffffffffffffffffffffffffffffffffffffff1614611935573360085f9054906101000a900473ffffffffffffffffffffffffffffffffffffffff166040517fa43d6ada00000000000000000000000000000000000000000000000000000000815260040161192c92919061517e565b60405180910390fd5b611940838383613515565b7f64d0972bd5d0c2828d80911b61084d86d61214c3081656ca3a720047a88320358383836040516119739392919061577c565b60405180910390a1505050565b7f000000000000000000000000000000000000000000000000000000000000000081565b5f6119ad612a7b565b30888888805190602001208888886040516020016119d197969594939291906157b1565b604051602081830303815290604052805190602001206040516020016119f8929190615892565b6040516020818303038152906040528051906020012090509695505050505050565b5f73ffffffffffffffffffffffffffffffffffffffff1660085f9054906101000a900473ffffffffffffffffffffffffffffffffffffffff1673ffffffffffffffffffffffffffffffffffffffff1614611aa0576040517f0dc149f000000000000000000000000000000000000000000000000000000000815260040160405180910390fd5b611aab838383613515565b611ab3613656565b5f819055503360085f6101000a81548173ffffffffffffffffffffffffffffffffffffffff021916908373ffffffffffffffffffffffffffffffffffffffff1602179055506001600781905550505050565b600d602052805f5260405f205f91509050805f015f9054906101000a900473ffffffffffffffffffffffffffffffffffffffff1690806001015f9054906101000a900473ffffffffffffffffffffffffffffffffffffffff1690806002015f9054906101000a900473ffffffffffffffffffffffffffffffffffffffff16908060030154908060040154908060050154905086565b60085f9054906101000a900473ffffffffffffffffffffffffffffffffffffffff1681565b7f000000000000000000000000000000000000000000000000000000000000000081565b6060600260075403611c21576040517f8beb9d1600000000000000000000000000000000000000000000000000000000815260040160405180910390fd5b60026007819055505f858590501480611c405750828290508585905014155b15611c8a5784849050838390506040517f8151c110000000000000000000000000000000000000000000000000000000008152600401611c819291906151a5565b60405180910390fd5b5f611c9433610e0e565b90505f5f8787905090508067ffffffffffffffff811115611cb857611cb76146c6565b5b604051908082528060200260200182016040528015611ce65781602001602082028036833780820191505090505b5093505f8167ffffffffffffffff811115611d0457611d036146c6565b5b604051908082528060200260200182016040528015611d325781602001602082028036833780820191505090505b5090505f8267ffffffffffffffff811115611d5057611d4f6146c6565b5b604051908082528060200260200182016040528015611d7e5781602001602082028036833780820191505090505b5090505f3373ffffffffffffffffffffffffffffffffffffffff16632763b8da6040518163ffffffff1660e01b8152600401602060405180830381865afa158015611dcb573d5f5f3e3d5ffd5b505050506040513d601f19601f82011682018060405250810190611def9190615658565b90505f5f90505b84811015612217575f600d5f8e8e85818110611e1557611e146151cc565b5b9050602002013581526020019081526020015f2090505f815f015f9054906101000a900473ffffffffffffffffffffffffffffffffffffffff1690505f73ffffffffffffffffffffffffffffffffffffffff168173ffffffffffffffffffffffffffffffffffffffff1603611eb6576040517fd92e233d00000000000000000000000000000000000000000000000000000000815260040160405180910390fd5b83826005015414611efe57836040517f7fec71d7000000000000000000000000000000000000000000000000000000008152600401611ef59190614b1d565b60405180910390fd5b5f73ffffffffffffffffffffffffffffffffffffffff16826001015f9054906101000a900473ffffffffffffffffffffffffffffffffffffffff1673ffffffffffffffffffffffffffffffffffffffff1614611f5b57505061220c565b8160040154858481518110611f7357611f726151cc565b5b602002602001018181525050848381518110611f9257611f916151cc565b5b60200260200101518c8c85818110611fad57611fac6151cc565b5b905060200201351115611fc157505061220c565b3373ffffffffffffffffffffffffffffffffffffffff168173ffffffffffffffffffffffffffffffffffffffff16146120b55781600301544211156120ad577f000000000000000000000000000000000000000000000000000000000000000073ffffffffffffffffffffffffffffffffffffffff16634225d37a827fffffffffffffffffffffffffffffffffffffffffffffffffffffffffffffffff6040518363ffffffff1660e01b815260040161207b929190615913565b5f604051808303815f87803b158015612092575f5ffd5b505af11580156120a4573d5f5f3e3d5ffd5b505050506120b4565b505061220c565b5b33826001015f6101000a81548173ffffffffffffffffffffffffffffffffffffffff021916908373ffffffffffffffffffffffffffffffffffffffff160217905550816002015f9054906101000a900473ffffffffffffffffffffffffffffffffffffffff1686848151811061212e5761212d6151cc565b5b602002602001019073ffffffffffffffffffffffffffffffffffffffff16908173ffffffffffffffffffffffffffffffffffffffff1681525050600a5f87858151811061217e5761217d6151cc565b5b602002602001015173ffffffffffffffffffffffffffffffffffffffff1673ffffffffffffffffffffffffffffffffffffffff1681526020019081526020015f205f8154809291906121cf90615611565b919050555060018a84815181106121e9576121e86151cc565b5b602002602001019015159081151581525050878061220690615611565b98505050505b806001019050611df6565b505f851115612471578460045f828254612231919061593a565b9250508190555084600b5f3373ffffffffffffffffffffffffffffffffffffffff1673ffffffffffffffffffffffffffffffffffffffff1681526020019081526020015f205f828254612284919061596d565b9250508190555084600c5f8873ffffffffffffffffffffffffffffffffffffffff1673ffffffffffffffffffffffffffffffffffffffff1681526020019081526020015f205f8282546122d7919061596d565b925050819055507f000000000000000000000000000000000000000000000000000000000000000073ffffffffffffffffffffffffffffffffffffffff16634225d37a33876040518363ffffffff1660e01b81526004016123399291906159af565b5f604051808303815f87803b158015612350575f5ffd5b505af1158015612362573d5f5f3e3d5ffd5b505050505f60105f8381526020019081526020015f205f9054906101000a900473ffffffffffffffffffffffffffffffffffffffff1690505f73ffffffffffffffffffffffffffffffffffffffff168173ffffffffffffffffffffffffffffffffffffffff16036123ff576040517fd92e233d00000000000000000000000000000000000000000000000000000000815260040160405180910390fd5b8073ffffffffffffffffffffffffffffffffffffffff166379e4afe833868b8e8e896040518763ffffffff1660e01b815260040161244296959493929190615afe565b5f604051808303815f87803b158015612459575f5ffd5b505af115801561246b573d5f5f3e3d5ffd5b50505050505b8260405161247f9190615bf9565b60405180910390203373ffffffffffffffffffffffffffffffffffffffff167f894bb814a80f77e14febccf552394d95b38cc21a6dda1b0cf26434433fdf3e4c878e8e8c6040516124d39493929190615c6a565b60405180910390a36001600781905550505050505050949350505050565b60085f9054906101000a900473ffffffffffffffffffffffffffffffffffffffff1673ffffffffffffffffffffffffffffffffffffffff163373ffffffffffffffffffffffffffffffffffffffff16146125a5573360085f9054906101000a900473ffffffffffffffffffffffffffffffffffffffff166040517fa43d6ada00000000000000000000000000000000000000000000000000000000815260040161259c92919061517e565b60405180910390fd5b5f73ffffffffffffffffffffffffffffffffffffffff168173ffffffffffffffffffffffffffffffffffffffff160361260a576040517fd92e233d00000000000000000000000000000000000000000000000000000000815260040160405180910390fd5b8060085f6101000a81548173ffffffffffffffffffffffffffffffffffffffff021916908373ffffffffffffffffffffffffffffffffffffffff1602179055508073ffffffffffffffffffffffffffffffffffffffff167f4ffd725fc4a22075e9ec71c59edf9c38cdeb588a91b24fc5b61388c5be41282b60405160405180910390a250565b61271081565b60045481565b600f602052805f5260405f205f915054906101000a900473ffffffffffffffffffffffffffffffffffffffff1681565b606060026007540361270a576040517f8beb9d1600000000000000000000000000000000000000000000000000000000815260040160405180910390fd5b600260078190555061272188888888888888613726565b90506001600781905550979650505050505050565b7f000000000000000000000000000000000000000000000000000000000000000081565b6011602052805f5260405f205f915090505481565b60085f9054906101000a900473ffffffffffffffffffffffffffffffffffffffff1673ffffffffffffffffffffffffffffffffffffffff163373ffffffffffffffffffffffffffffffffffffffff1614612823573360085f9054906101000a900473ffffffffffffffffffffffffffffffffffffffff166040517fa43d6ada00000000000000000000000000000000000000000000000000000000815260040161281a92919061517e565b60405180910390fd5b8181905084849050146128755783839050828290506040517f8151c11000000000000000000000000000000000000000000000000000000000815260040161286c9291906151a5565b60405180910390fd5b5f5f90505b848490508110156129ff575f5f1b85858381811061289b5761289a6151cc565b5b90506020020135036128d9576040517f7c946ed700000000000000000000000000000000000000000000000000000000815260040160405180910390fd5b5f73ffffffffffffffffffffffffffffffffffffffff16838383818110612903576129026151cc565b5b905060200201602081019061291891906143b3565b73ffffffffffffffffffffffffffffffffffffffff1603612965576040517fd92e233d00000000000000000000000000000000000000000000000000000000815260040160405180910390fd5b828282818110612978576129776151cc565b5b905060200201602081019061298d91906143b3565b60105f8787858181106129a3576129a26151cc565b5b9050602002013581526020019081526020015f205f6101000a81548173ffffffffffffffffffffffffffffffffffffffff021916908373ffffffffffffffffffffffffffffffffffffffff16021790555080600101905061287a565b507fa9759667b17e564f26a0d91ce1c5e4a1dc3910aee992dc3f5f4da0a59d48f3cb84848484604051612a359493929190615caf565b60405180910390a150505050565b60015481565b60035481565b60065481565b7fe6194b93a7bff0a54130ed8cd277223408a77f3e48bb5104a9db96d334f962ca5f1b81565b5f7f00000000000000000000000000000000000000000000000000000000000000004614612ab057612aab613656565b612ab3565b5f545b905090565b7f8b73c3c69bb8fe3d512ecc4cf759cc79239f7b179b0ffacaa9a75d522b39400f81565b5f600260075403612b19576040517f8beb9d1600000000000000000000000000000000000000000000000000000000815260040160405180910390fd5b60026007819055505f600167ffffffffffffffff811115612b3d57612b3c6146c6565b5b604051908082528060200260200182016040528015612b7057816020015b6060815260200190600190039081612b5b5790505b5090505f600167ffffffffffffffff811115612b8f57612b8e6146c6565b5b604051908082528060200260200182016040528015612bbd5781602001602082028036833780820191505090505b50905089825f81518110612bd457612bd36151cc565b5b6020026020010181905250612bee828a8a8a8a8a8a613726565b9050805f81518110612c0357612c026151cc565b5b6020026020010151925060016007819055505050979650505050505050565b5f5481565b6040518060400160405280600581526020017f312e312e3000000000000000000000000000000000000000000000000000000081525081565b5f612c6a33610e0e565b90505f8585905090505f8167ffffffffffffffff811115612c8e57612c8d6146c6565b5b604051908082528060200260200182016040528015612cbc5781602001602082028036833780820191505090505b5090505f60115f8b73ffffffffffffffffffffffffffffffffffffffff1673ffffffffffffffffffffffffffffffffffffffff1681526020019081526020015f205490505f5f90505b83811015613182575f898983818110612d2157612d206151cc565b5b9050602002810190612d339190615cf4565b805f0190612d419190615d1b565b905003612d7a576040517f7c946ed700000000000000000000000000000000000000000000000000000000815260040160405180910390fd5b612e15338c8b8b85818110612d9257612d916151cc565b5b9050602002810190612da49190615cf4565b805f0190612db29190615d1b565b8080601f0160208091040260200160405190810160405280939291908181526020018383808284375f81840152601f19601f820116905080830192505050505050508a8a86818110612e0757612e066151cc565b5b905060200201358e876119a4565b838281518110612e2857612e276151cc565b5b602002602001018181525050612ece8b848381518110612e4b57612e4a6151cc565b5b60200260200101518b8b85818110612e6657612e656151cc565b5b9050602002810190612e789190615cf4565b8060200190612e879190615d1b565b8080601f0160208091040260200160405190810160405280939291908181526020018383808284375f81840152601f19601f82011690508083019250505050505050613fe8565b5f600d5f858481518110612ee557612ee46151cc565b5b602002602001015181526020019081526020015f2090505f73ffffffffffffffffffffffffffffffffffffffff16815f015f9054906101000a900473ffffffffffffffffffffffffffffffffffffffff1673ffffffffffffffffffffffffffffffffffffffff1614612fa857838281518110612f6457612f636151cc565b5b60200260200101516040517fec0db698000000000000000000000000000000000000000000000000000000008152600401612f9f9190614b1d565b60405180910390fd5b33815f015f6101000a81548173ffffffffffffffffffffffffffffffffffffffff021916908373ffffffffffffffffffffffffffffffffffffffff16021790555033816001015f6101000a81548173ffffffffffffffffffffffffffffffffffffffff021916908373ffffffffffffffffffffffffffffffffffffffff1602179055508b816002015f6101000a81548173ffffffffffffffffffffffffffffffffffffffff021916908373ffffffffffffffffffffffffffffffffffffffff1602179055508787838181106130805761307f6151cc565b5b9050602002013581600401819055508a816005018190555082806130a390615611565b9350508573ffffffffffffffffffffffffffffffffffffffff163373ffffffffffffffffffffffffffffffffffffffff167fb0d013658abb05dd269ff3ab257175d5ae3fa4107d4e142abd96e947cd5cb06f868581518110613108576131076151cc565b5b60200260200101518b8b87818110613123576131226151cc565b5b905060200201358e8e8881811061313d5761313c6151cc565b5b905060200281019061314f9190615cf4565b806040019061315e9190615d1b565b60405161316e9493929190615d7d565b60405180910390a350806001019050612d05565b508060115f8c73ffffffffffffffffffffffffffffffffffffffff1673ffffffffffffffffffffffffffffffffffffffff1681526020019081526020015f20819055508260095f8c73ffffffffffffffffffffffffffffffffffffffff1673ffffffffffffffffffffffffffffffffffffffff1681526020019081526020015f205f828254613211919061596d565b9250508190555082600a5f8c73ffffffffffffffffffffffffffffffffffffffff1673ffffffffffffffffffffffffffffffffffffffff1681526020019081526020015f205f828254613264919061596d565b9250508190555082600b5f3373ffffffffffffffffffffffffffffffffffffffff1673ffffffffffffffffffffffffffffffffffffffff1681526020019081526020015f205f8282546132b7919061596d565b9250508190555082600c5f8673ffffffffffffffffffffffffffffffffffffffff1673ffffffffffffffffffffffffffffffffffffffff1681526020019081526020015f205f82825461330a919061596d565b925050819055508260055f828254613322919061596d565b925050819055507f000000000000000000000000000000000000000000000000000000000000000073ffffffffffffffffffffffffffffffffffffffff166355e7d0448b33866040518463ffffffff1660e01b815260040161338693929190615dbb565b5f604051808303815f87803b15801561339d575f5ffd5b505af11580156133af573d5f5f3e3d5ffd5b505050507f000000000000000000000000000000000000000000000000000000000000000073ffffffffffffffffffffffffffffffffffffffff16634225d37a33856040518363ffffffff1660e01b815260040161340e9291906159af565b5f604051808303815f87803b158015613425575f5ffd5b505af1158015613437573d5f5f3e3d5ffd5b505050503373ffffffffffffffffffffffffffffffffffffffff16639680b603846040518263ffffffff1660e01b815260040161347491906143f6565b5f604051808303815f87803b15801561348b575f5ffd5b505af115801561349d573d5f5f3e3d5ffd5b505050508973ffffffffffffffffffffffffffffffffffffffff163373ffffffffffffffffffffffffffffffffffffffff167ff980d83e9456535b0f9f3634d171df2a5f052f5d5e706b75d30c4e0433da927d845185604051613501929190615df0565b60405180910390a350505050505050505050565b5f82148061352257505f81145b15613559576040517f7c946ed700000000000000000000000000000000000000000000000000000000815260040160405180910390fd5b6127108311156135a457826127106040517f7ae5968500000000000000000000000000000000000000000000000000000000815260040161359b9291906151a5565b60405180910390fd5b808211156135eb5781816040517f7ae596850000000000000000000000000000000000000000000000000000000081526004016135e29291906151a5565b60405180910390fd5b63ffffffff801681111561363c578063ffffffff6040517f7ae59685000000000000000000000000000000000000000000000000000000008152600401613633929190615e4e565b60405180910390fd5b826001819055508160028190555080600381905550505050565b5f7f8b73c3c69bb8fe3d512ecc4cf759cc79239f7b179b0ffacaa9a75d522b39400f7ff376b6313a0837eb351511248cfe7dcc1cd26c49b8e0a47e1eb369dd62c425db6040518060400160405280600581526020017f312e312e300000000000000000000000000000000000000000000000000000008152506040516020016136df919061515e565b60405160208183030381529060405280519060200120463060405160200161370b959493929190615e75565b60405160208183030381529060405280519060200120905090565b606063ffffffff8016428561373b919061596d565b111561378f57428461374d919061596d565b63ffffffff6040517f7ae59685000000000000000000000000000000000000000000000000000000008152600401613786929190615e4e565b60405180910390fd5b6002548410806137a0575060035484115b156137ea57836002546003546040517feb373cfe0000000000000000000000000000000000000000000000000000000081526004016137e19392919061577c565b60405180910390fd5b5f8714806137f957505f5f1b86145b15613830576040517f7c946ed700000000000000000000000000000000000000000000000000000000815260040160405180910390fd5b5f885190505f810361386e576040517f7c946ed700000000000000000000000000000000000000000000000000000000815260040160405180910390fd5b61387786610e0e565b508067ffffffffffffffff811115613892576138916146c6565b5b6040519080825280602002602001820160405280156138c05781602001602082028036833780820191505090505b5091505f8673ffffffffffffffffffffffffffffffffffffffff16632cc0fcb26040518163ffffffff1660e01b8152600401602060405180830381865afa15801561390d573d5f5f3e3d5ffd5b505050506040513d601f19601f820116820180604052508101906139319190615eda565b90508881111561397a5780896040517f7ae596850000000000000000000000000000000000000000000000000000000081526004016139719291906151a5565b60405180910390fd5b8673ffffffffffffffffffffffffffffffffffffffff16632763b8da6040518163ffffffff1660e01b8152600401602060405180830381865afa1580156139c3573d5f5f3e3d5ffd5b505050506040513d601f19601f820116820180604052508101906139e79190615658565b8814613a2a57876040517f7fec71d7000000000000000000000000000000000000000000000000000000008152600401613a219190614b1d565b60405180910390fd5b5f60115f3373ffffffffffffffffffffffffffffffffffffffff1673ffffffffffffffffffffffffffffffffffffffff1681526020019081526020015f205490505f5f90505b8b51811015613cb1575f8c8281518110613a8d57613a8c6151cc565b5b60200260200101515103613acd576040517f7c946ed700000000000000000000000000000000000000000000000000000000815260040160405180910390fd5b613af589338e8481518110613ae557613ae46151cc565b5b6020026020010151868e876119a4565b858281518110613b0857613b076151cc565b5b6020026020010181815250505f600d5f878481518110613b2b57613b2a6151cc565b5b602002602001015181526020019081526020015f2090505f73ffffffffffffffffffffffffffffffffffffffff16815f015f9054906101000a900473ffffffffffffffffffffffffffffffffffffffff1673ffffffffffffffffffffffffffffffffffffffff1614613bee57858281518110613baa57613ba96151cc565b5b60200260200101516040517fec0db698000000000000000000000000000000000000000000000000000000008152600401613be59190614b1d565b60405180910390fd5b89815f015f6101000a81548173ffffffffffffffffffffffffffffffffffffffff021916908373ffffffffffffffffffffffffffffffffffffffff1602179055504289613c3b919061596d565b816003018190555033816002015f6101000a81548173ffffffffffffffffffffffffffffffffffffffff021916908373ffffffffffffffffffffffffffffffffffffffff1602179055508381600401819055508a81600501819055508280613ca290615611565b93505050806001019050613a70565b508060115f3373ffffffffffffffffffffffffffffffffffffffff1673ffffffffffffffffffffffffffffffffffffffff1681526020019081526020015f20819055505f60105f8b81526020019081526020015f205f9054906101000a900473ffffffffffffffffffffffffffffffffffffffff1690505f73ffffffffffffffffffffffffffffffffffffffff168173ffffffffffffffffffffffffffffffffffffffff1603613d8d576040517fd92e233d00000000000000000000000000000000000000000000000000000000815260040160405180910390fd5b8073ffffffffffffffffffffffffffffffffffffffff166338603a39343387878c8c6040518763ffffffff1660e01b8152600401613dcf959493929190615f05565b5f604051808303818588803b158015613de6575f5ffd5b505af1158015613df8573d5f5f3e3d5ffd5b50505050507f000000000000000000000000000000000000000000000000000000000000000073ffffffffffffffffffffffffffffffffffffffff166355e7d044338b876040518463ffffffff1660e01b8152600401613e5a93929190615dbb565b5f604051808303815f87803b158015613e71575f5ffd5b505af1158015613e83573d5f5f3e3d5ffd5b505050508360095f3373ffffffffffffffffffffffffffffffffffffffff1673ffffffffffffffffffffffffffffffffffffffff1681526020019081526020015f205f828254613ed3919061596d565b925050819055508360045f828254613eeb919061596d565b925050819055508360055f828254613f03919061596d565b925050819055508873ffffffffffffffffffffffffffffffffffffffff1663be2641de868e6040518363ffffffff1660e01b8152600401613f45929190616054565b5f604051808303815f87803b158015613f5c575f5ffd5b505af1158015613f6e573d5f5f3e3d5ffd5b505050503373ffffffffffffffffffffffffffffffffffffffff168973ffffffffffffffffffffffffffffffffffffffff167f5d60556939d4ab71b3129033c865bf7e828306916fd94fd35019d3d530eb36b38688604051613fd1929190615df0565b60405180910390a350505050979650505050505050565b5f73ffffffffffffffffffffffffffffffffffffffff168373ffffffffffffffffffffffffffffffffffffffff160361404d576040517fd92e233d00000000000000000000000000000000000000000000000000000000815260040160405180910390fd5b5f8373ffffffffffffffffffffffffffffffffffffffff163b111561417357631626ba7e60e01b7bffffffffffffffffffffffffffffffffffffffffffffffffffffffff19168373ffffffffffffffffffffffffffffffffffffffff16631626ba7e84846040518363ffffffff1660e01b81526004016140ce929190616089565b602060405180830381865afa1580156140e9573d5f5f3e3d5ffd5b505050506040513d601f19601f8201168201806040525081019061410d919061610c565b7bffffffffffffffffffffffffffffffffffffffffffffffffffffffff19160315614343578282826040517f02d51bb200000000000000000000000000000000000000000000000000000000815260040161416a93929190616137565b60405180910390fd5b60418151146141bf5780815160416040517f1d9f5a5f0000000000000000000000000000000000000000000000000000000081526004016141b6939291906161ac565b60405180910390fd5b5f816040815181106141d4576141d36151cc565b5b602001015160f81c60f81b60f81c905060048160ff16101561420057601b816141fd91906161f4565b90505b5f5f60208401519150604084015190507f7fffffffffffffffffffffffffffffff5d576e7357a4501ddfe92f46681b20a0815f1c111561427b578585856040517f02d51bb200000000000000000000000000000000000000000000000000000000815260040161427293929190616137565b60405180910390fd5b5f6001868585856040515f815260200160405260405161429e9493929190616237565b6020604051602081039080840390855afa1580156142be573d5f5f3e3d5ffd5b5050506020604051035190508673ffffffffffffffffffffffffffffffffffffffff168173ffffffffffffffffffffffffffffffffffffffff161461433e578686866040517f02d51bb200000000000000000000000000000000000000000000000000000000815260040161433593929190616137565b60405180910390fd5b505050505b505050565b5f604051905090565b5f5ffd5b5f5ffd5b5f73ffffffffffffffffffffffffffffffffffffffff82169050919050565b5f61438282614359565b9050919050565b61439281614378565b811461439c575f5ffd5b50565b5f813590506143ad81614389565b92915050565b5f602082840312156143c8576143c7614351565b5b5f6143d58482850161439f565b91505092915050565b5f819050919050565b6143f0816143de565b82525050565b5f6020820190506144095f8301846143e7565b92915050565b5f5ffd5b5f5ffd5b5f5ffd5b5f5f83601f8401126144305761442f61440f565b5b8235905067ffffffffffffffff81111561444d5761444c614413565b5b60208301915083602082028301111561446957614468614417565b5b9250929050565b5f5f83601f8401126144855761448461440f565b5b8235905067ffffffffffffffff8111156144a2576144a1614413565b5b6020830191508360208202830111156144be576144bd614417565b5b9250929050565b5f5f5f5f604085870312156144dd576144dc614351565b5b5f85013567ffffffffffffffff8111156144fa576144f9614355565b5b6145068782880161441b565b9450945050602085013567ffffffffffffffff81111561452957614528614355565b5b61453587828801614470565b925092505092959194509250565b5f8115159050919050565b61455781614543565b82525050565b5f6020820190506145705f83018461454e565b92915050565b61457f81614378565b82525050565b5f6020820190506145985f830184614576565b92915050565b5f819050919050565b6145b08161459e565b81146145ba575f5ffd5b50565b5f813590506145cb816145a7565b92915050565b5f602082840312156145e6576145e5614351565b5b5f6145f3848285016145bd565b91505092915050565b7f4e487b71000000000000000000000000000000000000000000000000000000005f52602160045260245ffd5b6004811061463a576146396145fc565b5b50565b5f81905061464a82614629565b919050565b5f6146598261463d565b9050919050565b6146698161464f565b82525050565b5f6020820190506146825f830184614660565b92915050565b614691816143de565b811461469b575f5ffd5b50565b5f813590506146ac81614688565b92915050565b5f5ffd5b5f601f19601f8301169050919050565b7f4e487b71000000000000000000000000000000000000000000000000000000005f52604160045260245ffd5b6146fc826146b6565b810181811067ffffffffffffffff8211171561471b5761471a6146c6565b5b80604052505050565b5f61472d614348565b905061473982826146f3565b919050565b5f67ffffffffffffffff821115614758576147576146c6565b5b614761826146b6565b9050602081019050919050565b828183375f83830152505050565b5f61478e6147898461473e565b614724565b9050828152602081018484840111156147aa576147a96146b2565b5b6147b584828561476e565b509392505050565b5f82601f8301126147d1576147d061440f565b5b81356147e184826020860161477c565b91505092915050565b5f5f5f6060848603121561480157614800614351565b5b5f61480e8682870161469e565b935050602061481f8682870161439f565b925050604084013567ffffffffffffffff8111156148405761483f614355565b5b61484c868287016147bd565b9150509250925092565b5f5f83601f84011261486b5761486a61440f565b5b8235905067ffffffffffffffff81111561488857614887614413565b5b6020830191508360208202830111156148a4576148a3614417565b5b9250929050565b5f5f83601f8401126148c0576148bf61440f565b5b8235905067ffffffffffffffff8111156148dd576148dc614413565b5b6020830191508360208202830111156148f9576148f8614417565b5b9250929050565b5f5f83601f8401126149155761491461440f565b5b8235905067ffffffffffffffff81111561493257614931614413565b5b60208301915083600182028301111561494e5761494d614417565b5b9250929050565b5f5f5f5f5f5f5f6080888a0312156149705761496f614351565b5b5f61497d8a828b0161439f565b975050602088013567ffffffffffffffff81111561499e5761499d614355565b5b6149aa8a828b01614856565b9650965050604088013567ffffffffffffffff8111156149cd576149cc614355565b5b6149d98a828b016148ab565b9450945050606088013567ffffffffffffffff8111156149fc576149fb614355565b5b614a088a828b01614900565b925092505092959891949750929550565b5f5f5f60608486031215614a3057614a2f614351565b5b5f614a3d8682870161469e565b9350506020614a4e8682870161469e565b9250506040614a5f8682870161469e565b9150509250925092565b5f5f5f5f5f5f60c08789031215614a8357614a82614351565b5b5f614a9089828a0161439f565b9650506020614aa189828a0161439f565b955050604087013567ffffffffffffffff811115614ac257614ac1614355565b5b614ace89828a016147bd565b9450506060614adf89828a0161469e565b9350506080614af089828a016145bd565b92505060a0614b0189828a0161469e565b9150509295509295509295565b614b178161459e565b82525050565b5f602082019050614b305f830184614b0e565b92915050565b5f60c082019050614b495f830189614576565b614b566020830188614576565b614b636040830187614576565b614b7060608301866143e7565b614b7d60808301856143e7565b614b8a60a0830184614b0e565b979650505050505050565b5f5f83601f840112614baa57614ba961440f565b5b8235905067ffffffffffffffff811115614bc757614bc6614413565b5b602083019150836020820283011115614be357614be2614417565b5b9250929050565b5f5f5f5f60408587031215614c0257614c01614351565b5b5f85013567ffffffffffffffff811115614c1f57614c1e614355565b5b614c2b87828801614b95565b9450945050602085013567ffffffffffffffff811115614c4e57614c4d614355565b5b614c5a878288016148ab565b925092505092959194509250565b5f81519050919050565b5f82825260208201905092915050565b5f819050602082019050919050565b614c9a81614543565b82525050565b5f614cab8383614c91565b60208301905092915050565b5f602082019050919050565b5f614ccd82614c68565b614cd78185614c72565b9350614ce283614c82565b805f5b83811015614d12578151614cf98882614ca0565b9750614d0483614cb7565b925050600181019050614ce5565b5085935050505092915050565b5f6020820190508181035f830152614d378184614cc3565b905092915050565b5f67ffffffffffffffff821115614d5957614d586146c6565b5b602082029050602081019050919050565b5f614d7c614d7784614d3f565b614724565b90508083825260208201905060208402830185811115614d9f57614d9e614417565b5b835b81811015614de657803567ffffffffffffffff811115614dc457614dc361440f565b5b808601614dd189826147bd565b85526020850194505050602081019050614da1565b5050509392505050565b5f82601f830112614e0457614e0361440f565b5b8135614e14848260208601614d6a565b91505092915050565b5f5f5f5f5f5f5f60c0888a031215614e3857614e37614351565b5b5f88013567ffffffffffffffff811115614e5557614e54614355565b5b614e618a828b01614df0565b9750506020614e728a828b0161469e565b9650506040614e838a828b016145bd565b9550506060614e948a828b0161439f565b9450506080614ea58a828b0161469e565b93505060a088013567ffffffffffffffff811115614ec657614ec5614355565b5b614ed28a828b01614900565b925092505092959891949750929550565b5f81519050919050565b5f82825260208201905092915050565b5f819050602082019050919050565b614f158161459e565b82525050565b5f614f268383614f0c565b60208301905092915050565b5f602082019050919050565b5f614f4882614ee3565b614f528185614eed565b9350614f5d83614efd565b805f5b83811015614f8d578151614f748882614f1b565b9750614f7f83614f32565b925050600181019050614f60565b5085935050505092915050565b5f6020820190508181035f830152614fb28184614f3e565b905092915050565b5f5f5f5f60408587031215614fd257614fd1614351565b5b5f85013567ffffffffffffffff811115614fef57614fee614355565b5b614ffb87828801614b95565b9450945050602085013567ffffffffffffffff81111561501e5761501d614355565b5b61502a8782880161441b565b925092505092959194509250565b5f5f5f5f5f5f5f60c0888a03121561505357615052614351565b5b5f88013567ffffffffffffffff8111156150705761506f614355565b5b61507c8a828b016147bd565b975050602061508d8a828b0161469e565b965050604061509e8a828b016145bd565b95505060606150af8a828b0161439f565b94505060806150c08a828b0161469e565b93505060a088013567ffffffffffffffff8111156150e1576150e0614355565b5b6150ed8a828b01614900565b925092505092959891949750929550565b5f81519050919050565b5f82825260208201905092915050565b8281835e5f83830152505050565b5f615130826150fe565b61513a8185615108565b935061514a818560208601615118565b615153816146b6565b840191505092915050565b5f6020820190508181035f8301526151768184615126565b905092915050565b5f6040820190506151915f830185614576565b61519e6020830184614576565b9392505050565b5f6040820190506151b85f8301856143e7565b6151c560208301846143e7565b9392505050565b7f4e487b71000000000000000000000000000000000000000000000000000000005f52603260045260245ffd5b61520281614543565b811461520c575f5ffd5b50565b5f8135905061521d816151f9565b92915050565b5f6020828403121561523857615237614351565b5b5f6152458482850161520f565b91505092915050565b5f82825260208201905092915050565b5f819050919050565b61527081614378565b82525050565b5f6152818383615267565b60208301905092915050565b5f61529b602084018461439f565b905092915050565b5f602082019050919050565b5f6152ba838561524e565b93506152c58261525e565b805f5b858110156152fd576152da828461528d565b6152e48882615276565b97506152ef836152a3565b9250506001810190506152c8565b5085925050509392505050565b5f819050919050565b5f615321602084018461520f565b905092915050565b5f602082019050919050565b5f6153408385614c72565b935061534b8261530a565b805f5b85811015615383576153608284615313565b61536a8882614ca0565b975061537583615329565b92505060018101905061534e565b5085925050509392505050565b5f6040820190508181035f8301526153a98186886152af565b905081810360208301526153be818486615335565b905095945050505050565b5f815190506153d781614389565b92915050565b5f602082840312156153f2576153f1614351565b5b5f6153ff848285016153c9565b91505092915050565b5f6bffffffffffffffffffffffff82169050919050565b61542881615408565b8114615432575f5ffd5b50565b5f815190506154438161541f565b92915050565b5f81519050615457816145a7565b92915050565b5f63ffffffff82169050919050565b6154758161545d565b811461547f575f5ffd5b50565b5f815190506154908161546c565b92915050565b600681106154a2575f5ffd5b50565b5f815190506154b381615496565b92915050565b5f5f5f5f5f5f5f60e0888a0312156154d4576154d3614351565b5b5f6154e18a828b01615435565b97505060206154f28a828b016153c9565b96505060406155038a828b01615449565b95505060606155148a828b01615482565b94505060806155258a828b01615482565b93505060a06155368a828b01615482565b92505060c06155478a828b016154a5565b91505092959891949750929550565b5f81519050919050565b5f82825260208201905092915050565b5f61557a82615556565b6155848185615560565b9350615594818560208601615118565b61559d816146b6565b840191505092915050565b5f6060820190506155bb5f830186614576565b6155c860208301856143e7565b81810360408301526155da8184615570565b9050949350505050565b7f4e487b71000000000000000000000000000000000000000000000000000000005f52601160045260245ffd5b5f61561b826143de565b91507fffffffffffffffffffffffffffffffffffffffffffffffffffffffffffffffff820361564d5761564c6155e4565b5b600182019050919050565b5f6020828403121561566d5761566c614351565b5b5f61567a84828501615449565b91505092915050565b5f82825260208201905092915050565b5f5ffd5b82818337505050565b5f6156ab8385615683565b93507f07ffffffffffffffffffffffffffffffffffffffffffffffffffffffffffffff8311156156de576156dd615693565b5b6020830292506156ef838584615697565b82840190509392505050565b5f6157068385615560565b935061571383858461476e565b61571c836146b6565b840190509392505050565b5f60808201905061573a5f830189614576565b6157476020830188614576565b818103604083015261575a8186886156a0565b9050818103606083015261576f8184866156fb565b9050979650505050505050565b5f60608201905061578f5f8301866143e7565b61579c60208301856143e7565b6157a960408301846143e7565b949350505050565b5f60e0820190506157c45f83018a614576565b6157d16020830189614576565b6157de6040830188614576565b6157eb6060830187614b0e565b6157f860808301866143e7565b61580560a0830185614b0e565b61581260c08301846143e7565b98975050505050505050565b5f81905092915050565b7f19010000000000000000000000000000000000000000000000000000000000005f82015250565b5f61585c60028361581e565b915061586782615828565b600282019050919050565b5f819050919050565b61588c6158878261459e565b615872565b82525050565b5f61589c82615850565b91506158a8828561587b565b6020820191506158b8828461587b565b6020820191508190509392505050565b5f819050919050565b5f819050919050565b5f819050919050565b5f6158fd6158f86158f3846158c8565b6158da565b6158d1565b9050919050565b61590d816158e3565b82525050565b5f6040820190506159265f830185614576565b6159336020830184615904565b9392505050565b5f615944826143de565b915061594f836143de565b9250828203905081811115615967576159666155e4565b5b92915050565b5f615977826143de565b9150615982836143de565b925082820190508082111561599a576159996155e4565b5b92915050565b6159a9816158d1565b82525050565b5f6040820190506159c25f830185614576565b6159cf60208301846159a0565b9392505050565b5f81519050919050565b5f819050602082019050919050565b5f602082019050919050565b5f615a05826159d6565b615a0f818561524e565b9350615a1a836159e0565b805f5b83811015615a4a578151615a318882615276565b9750615a3c836159ef565b925050600181019050615a1d565b5085935050505092915050565b5f81519050919050565b5f819050602082019050919050565b615a79816143de565b82525050565b5f615a8a8383615a70565b60208301905092915050565b5f602082019050919050565b5f615aac82615a57565b615ab68185615683565b9350615ac183615a61565b805f5b83811015615af1578151615ad88882615a7f565b9750615ae383615a96565b925050600181019050615ac4565b5085935050505092915050565b5f60a082019050615b115f830189614576565b8181036020830152615b2381886159fb565b90508181036040830152615b378187614cc3565b90508181036060830152615b4c8185876156a0565b90508181036080830152615b608184615aa2565b9050979650505050505050565b5f81905092915050565b615b8081614378565b82525050565b5f615b918383615b77565b60208301905092915050565b5f615ba7826159d6565b615bb18185615b6d565b9350615bbc836159e0565b805f5b83811015615bec578151615bd38882615b86565b9750615bde836159ef565b925050600181019050615bbf565b5085935050505092915050565b5f615c048284615b9d565b915081905092915050565b5f615c1a8385614eed565b93507f07ffffffffffffffffffffffffffffffffffffffffffffffffffffffffffffff831115615c4d57615c4c615693565b5b602083029250615c5e838584615697565b82840190509392505050565b5f606082019050615c7d5f8301876143e7565b8181036020830152615c90818587615c0f565b90508181036040830152615ca48184614cc3565b905095945050505050565b5f6040820190508181035f830152615cc8818688615c0f565b90508181036020830152615cdd8184866152af565b905095945050505050565b5f5ffd5b5f5ffd5b5f5ffd5b5f82356001606003833603038112615d0f57615d0e615ce8565b5b80830191505092915050565b5f5f83356001602003843603038112615d3757615d36615ce8565b5b80840192508235915067ffffffffffffffff821115615d5957615d58615cec565b5b602083019250600182023603831315615d7557615d74615cf0565b5b509250929050565b5f606082019050615d905f830187614b0e565b615d9d60208301866143e7565b8181036040830152615db08184866156fb565b905095945050505050565b5f606082019050615dce5f830186614576565b615ddb6020830185614576565b615de860408301846159a0565b949350505050565b5f604082019050615e035f8301856143e7565b8181036020830152615e158184614f3e565b90509392505050565b5f615e38615e33615e2e8461545d565b6158da565b6143de565b9050919050565b615e4881615e1e565b82525050565b5f604082019050615e615f8301856143e7565b615e6e6020830184615e3f565b9392505050565b5f60a082019050615e885f830188614b0e565b615e956020830187614b0e565b615ea26040830186614b0e565b615eaf60608301856143e7565b615ebc6080830184614576565b9695505050505050565b5f81519050615ed481614688565b92915050565b5f60208284031215615eef57615eee614351565b5b5f615efc84828501615ec6565b91505092915050565b5f608082019050615f185f830188614576565b615f2560208301876143e7565b615f3260408301866143e7565b8181036060830152615f458184866156fb565b90509695505050505050565b5f81519050919050565b5f82825260208201905092915050565b5f819050602082019050919050565b5f82825260208201905092915050565b5f615f9482615556565b615f9e8185615f7a565b9350615fae818560208601615118565b615fb7816146b6565b840191505092915050565b5f615fcd8383615f8a565b905092915050565b5f602082019050919050565b5f615feb82615f51565b615ff58185615f5b565b93508360208202850161600785615f6b565b805f5b8581101561604257848403895281516160238582615fc2565b945061602e83615fd5565b925060208a0199505060018101905061600a565b50829750879550505050505092915050565b5f6040820190508181035f83015261606c8185614f3e565b905081810360208301526160808184615fe1565b90509392505050565b5f60408201905061609c5f830185614b0e565b81810360208301526160ae8184615570565b90509392505050565b5f7fffffffff0000000000000000000000000000000000000000000000000000000082169050919050565b6160eb816160b7565b81146160f5575f5ffd5b50565b5f81519050616106816160e2565b92915050565b5f6020828403121561612157616120614351565b5b5f61612e848285016160f8565b91505092915050565b5f60608201905061614a5f830186614576565b6161576020830185614b0e565b81810360408301526161698184615570565b9050949350505050565b5f819050919050565b5f61619661619161618c84616173565b6158da565b6143de565b9050919050565b6161a68161617c565b82525050565b5f6060820190508181035f8301526161c48186615570565b90506161d360208301856143e7565b6161e0604083018461619d565b949350505050565b5f60ff82169050919050565b5f6161fe826161e8565b9150616209836161e8565b9250828201905060ff811115616222576162216155e4565b5b92915050565b616231816161e8565b82525050565b5f60808201905061624a5f830187614b0e565b6162576020830186616228565b6162646040830185614b0e565b6162716060830184614b0e565b9594505050505056fea2646970667358221220303d71ffb21fc6e4ae071e9083dad9882f75c43ab63e833808c29f2119d8b44364736f6c634300081e0033","linkReferences":{}},"methodIdentifiers":{"DOMAIN_SEPARATOR_TYPE_HASH()":"f5dcb7bb","MAX_FEE_FACTOR()":"af4937fc","MECH_MARKETPLACE_PROXY()":"e8eca22d","VERSION()":"ffa1ad74","chainId()":"9a8a0592","changeImplementation(address)":"17a68dd8","changeMarketplaceParams(uint256,uint256,uint256)":"57c0762d","changeOwner(address)":"a6f9dae1","checkMech(address)":"2685937b","create(uint256,address,bytes)":"46fbcbb2","deliverMarketplace(bytes32[],uint256[])":"9e592bb9","deliverMarketplaceWithSignatures(address,(bytes,bytes,bytes)[],uint256[],bytes)":"4e894dd1","domainSeparator()":"f698da25","fee()":"ddca3f43","getDomainSeparator()":"ed24911d","getRequestId(address,address,bytes,uint256,bytes32,uint256)":"7ecb65f6","getRequestStatus(bytes32)":"45d07664","initialize(uint256,uint256,uint256)":"80d85911","karma()":"74a8569b","mapAgentMechFactories(address)":"c69f6f9f","mapDeliveryCounts(address)":"00427c54","mapMechDeliveryCounts(address)":"176b8b01","mapMechFactories(address)":"13999914","mapMechServiceDeliveryCounts(address)":"43be9643","mapNonces(address)":"cbd6407a","mapPaymentTypeBalanceTrackers(bytes32)":"4eb07dd3","mapRequestCounts(address)":"1bbbeeb8","mapRequestIdInfos(bytes32)":"8342d20e","maxResponseTimeout()":"ded81286","minResponseTimeout()":"0f41196a","numMechs()":"e0cb19e8","numTotalRequests()":"4ada3e61","numUndeliveredRequests()":"bdf86317","owner()":"8da5cb5b","request(bytes,uint256,bytes32,address,uint256,bytes)":"f6938b09","requestBatch(bytes[],uint256,bytes32,address,uint256,bytes)":"c7b6a9f0","serviceRegistry()":"cbcf252a","setMechFactoryStatuses(address[],bool[])":"087f08d4","setPaymentTypeBalanceTrackers(bytes32[],address[])":"d64bf8b0"},"id":4}