{
  "_format": "hh-sol-artifact-1",
  "contractName": "SubscriptionProvider",
  "sourceName": "contracts/mechs/nevermined/utils/SubscriptionProvider.sol",
  "abi": [
    {
      "inputs": [
        {
          "internalType": "address",
          "name": "_didRegistry",
          "type": "address"
        },
        {
          "internalType": "address",
          "name": "_transferNFTCondition",
          "type": "address"
        },
        {
          "internalType": "address",
          "name": "_escrowPaymentCondition",
          "type": "address"
        }
      ],
      "stateMutability": "nonpayable",
      "type": "constructor"
    },
    {
      "inputs": [
        {
          "internalType": "address",
          "name": "sender",
          "type": "address"
        },
        {
          "internalType": "address",
          "name": "owner",
          "type": "address"
        }
      ],
      "name": "OwnerOnly",
      "type": "error"
    },
    {
      "inputs": [],
      "name": "ZeroAddress",
      "type": "error"
    },
    {
      "anonymous": false,
      "inputs": [
        {
          "indexed": true,
          "internalType": "address",
          "name": "owner",
          "type": "address"
        }
      ],
      "name": "OwnerUpdated",
      "type": "event"
    },
    {
      "inputs": [
        {
          "internalType": "bytes32",
          "name": "did",
          "type": "bytes32"
        },
        {
          "internalType": "address",
          "name": "provider",
          "type": "address"
        }
      ],
      "name": "addDIDProvider",
      "outputs": [],
      "stateMutability": "nonpayable",
      "type": "function"
    },
    {
      "inputs": [
        {
          "internalType": "address",
          "name": "newOwner",
          "type": "address"
        }
      ],
      "name": "changeOwner",
      "outputs": [],
      "stateMutability": "nonpayable",
      "type": "function"
    },
    {
      "inputs": [],
      "name": "didRegistry",
      "outputs": [
        {
          "internalType": "address",
          "name": "",
          "type": "address"
        }
      ],
      "stateMutability": "view",
      "type": "function"
    },
    {
      "inputs": [],
      "name": "escrowPaymentCondition",
      "outputs": [
        {
          "internalType": "address",
          "name": "",
          "type": "address"
        }
      ],
      "stateMutability": "view",
      "type": "function"
    },
    {
      "inputs": [
        {
          "internalType": "bytes32",
          "name": "agreementId",
          "type": "bytes32"
        },
        {
          "internalType": "bytes32",
          "name": "did",
          "type": "bytes32"
        },
        {
          "components": [
            {
              "internalType": "address",
              "name": "nftHolder",
              "type": "address"
            },
            {
              "internalType": "address",
              "name": "nftReceiver",
              "type": "address"
            },
            {
              "internalType": "uint256",
              "name": "nftAmount",
              "type": "uint256"
            },
            {
              "internalType": "bytes32",
              "name": "lockPaymentCondition",
              "type": "bytes32"
            },
            {
              "internalType": "address",
              "name": "nftContractAddress",
              "type": "address"
            },
            {
              "internalType": "bool",
              "name": "transfer",
              "type": "bool"
            },
            {
              "internalType": "uint256",
              "name": "expirationBlock",
              "type": "uint256"
            }
          ],
          "internalType": "struct FulfillForDelegateParams",
          "name": "fulfillForDelegateParams",
          "type": "tuple"
        },
        {
          "components": [
            {
              "internalType": "uint256[]",
              "name": "amounts",
              "type": "uint256[]"
            },
            {
              "internalType": "address[]",
              "name": "receivers",
              "type": "address[]"
            },
            {
              "internalType": "address",
              "name": "returnAddress",
              "type": "address"
            },
            {
              "internalType": "address",
              "name": "lockPaymentAddress",
              "type": "address"
            },
            {
              "internalType": "address",
              "name": "tokenAddress",
              "type": "address"
            },
            {
              "internalType": "bytes32",
              "name": "lockCondition",
              "type": "bytes32"
            },
            {
              "internalType": "bytes32",
              "name": "releaseCondition",
              "type": "bytes32"
            }
          ],
          "internalType": "struct FulfillParams",
          "name": "fulfillParams",
          "type": "tuple"
        }
      ],
      "name": "fulfill",
      "outputs": [
        {
          "internalType": "enum NVM.ConditionState",
          "name": "fulfillForDelegateConditionState",
          "type": "uint8"
        },
        {
          "internalType": "enum NVM.ConditionState",
          "name": "fulfillConditionState",
          "type": "uint8"
        }
      ],
      "stateMutability": "nonpayable",
      "type": "function"
    },
    {
      "inputs": [],
      "name": "owner",
      "outputs": [
        {
          "internalType": "address",
          "name": "",
          "type": "address"
        }
      ],
      "stateMutability": "view",
      "type": "function"
    },
    {
      "inputs": [
        {
          "internalType": "bytes32",
          "name": "did",
          "type": "bytes32"
        },
        {
          "internalType": "address",
          "name": "provider",
          "type": "address"
        }
      ],
      "name": "removeDIDProvider",
      "outputs": [],
      "stateMutability": "nonpayable",
      "type": "function"
    },
    {
      "inputs": [],
      "name": "transferNFTCondition",
      "outputs": [
        {
          "internalType": "address",
          "name": "",
          "type": "address"
        }
      ],
      "stateMutability": "view",
      "type": "function"
    },
    {
      "inputs": [
        {
          "internalType": "bytes32",
          "name": "did",
          "type": "bytes32"
        },
        {
          "internalType": "address",
          "name": "newOwner",
          "type": "address"
        }
      ],
      "name": "transferOwnership",
      "outputs": [],
      "stateMutability": "nonpayable",
      "type": "function"
    }
  ],
  "bytecode": "0x60e060405234801561000f575f5ffd5b50604051610e50380380610e5083398101604081905261002e91610077565b6001600160a01b0392831660805290821660a0521660c0525f80546001600160a01b031916331790556100b7565b80516001600160a01b0381168114610072575f5ffd5b919050565b5f5f5f60608486031215610089575f5ffd5b6100928461005c565b92506100a06020850161005c565b91506100ae6040850161005c565b90509250925092565b60805160a05160c051610d4e6101025f395f818160a8015261061801525f818161013501526105a701525f818160f901528181610292015281816103ab01526107a20152610d4e5ff3fe608060405234801561000f575f5ffd5b506004361061009f575f3560e01c80638da5cb5b11610072578063a6f9dae111610058578063a6f9dae114610189578063affe02a11461019c578063ef5d6bbb146101bd575f5ffd5b80638da5cb5b14610157578063a2d28d4614610176575f5ffd5b806319e19bbe146100a3578063577f9fb1146100f45780637ac5f7c81461011b57806388364bfd14610130575b5f5ffd5b6100ca7f000000000000000000000000000000000000000000000000000000000000000081565b60405173ffffffffffffffffffffffffffffffffffffffff90911681526020015b60405180910390f35b6100ca7f000000000000000000000000000000000000000000000000000000000000000081565b61012e6101293660046107f9565b6101d0565b005b6100ca7f000000000000000000000000000000000000000000000000000000000000000081565b5f546100ca9073ffffffffffffffffffffffffffffffffffffffff1681565b61012e6101843660046107f9565b6102ee565b61012e610197366004610823565b6103da565b6101af6101aa366004610a90565b610504565b6040516100eb929190610bbb565b61012e6101cb3660046107f9565b6106e5565b5f5473ffffffffffffffffffffffffffffffffffffffff163314610246575f546040517fa43d6ada00000000000000000000000000000000000000000000000000000000815233600482015273ffffffffffffffffffffffffffffffffffffffff90911660248201526044015b60405180910390fd5b6040517f7ac5f7c80000000000000000000000000000000000000000000000000000000081526004810183905273ffffffffffffffffffffffffffffffffffffffff82811660248301527f00000000000000000000000000000000000000000000000000000000000000001690637ac5f7c8906044015b5f604051808303815f87803b1580156102d4575f5ffd5b505af11580156102e6573d5f5f3e3d5ffd5b505050505050565b5f5473ffffffffffffffffffffffffffffffffffffffff16331461035f575f546040517fa43d6ada00000000000000000000000000000000000000000000000000000000815233600482015273ffffffffffffffffffffffffffffffffffffffff909116602482015260440161023d565b6040517fa2d28d460000000000000000000000000000000000000000000000000000000081526004810183905273ffffffffffffffffffffffffffffffffffffffff82811660248301527f0000000000000000000000000000000000000000000000000000000000000000169063a2d28d46906044016102bd565b5f5473ffffffffffffffffffffffffffffffffffffffff16331461044b575f546040517fa43d6ada00000000000000000000000000000000000000000000000000000000815233600482015273ffffffffffffffffffffffffffffffffffffffff909116602482015260440161023d565b73ffffffffffffffffffffffffffffffffffffffff8116610498576040517fd92e233d00000000000000000000000000000000000000000000000000000000815260040160405180910390fd5b5f80547fffffffffffffffffffffffff00000000000000000000000000000000000000001673ffffffffffffffffffffffffffffffffffffffff8316908117825560405190917f4ffd725fc4a22075e9ec71c59edf9c38cdeb588a91b24fc5b61388c5be41282b91a250565b815160208301516040808501516060860151608087015160a088015160c089015194517fefd2e57e000000000000000000000000000000000000000000000000000000008152600481018c9052602481018b905273ffffffffffffffffffffffffffffffffffffffff97881660448201529587166064870152608486019390935260a4850191909152841660c4840152151560e48301526101048201525f9182917f00000000000000000000000000000000000000000000000000000000000000009091169063efd2e57e90610124016020604051808303815f875af11580156105f0573d5f5f3e3d5ffd5b505050506040513d601f19601f820116820180604052508101906106149190610bd6565b91507f000000000000000000000000000000000000000000000000000000000000000073ffffffffffffffffffffffffffffffffffffffff16638550d8208787865f01518760200151886040015189606001518a608001518b60a001518c60c001516040518a63ffffffff1660e01b815260040161069a99989796959493929190610c44565b6020604051808303815f875af11580156106b6573d5f5f3e3d5ffd5b505050506040513d601f19601f820116820180604052508101906106da9190610bd6565b905094509492505050565b5f5473ffffffffffffffffffffffffffffffffffffffff163314610756575f546040517fa43d6ada00000000000000000000000000000000000000000000000000000000815233600482015273ffffffffffffffffffffffffffffffffffffffff909116602482015260440161023d565b6040517fef5d6bbb0000000000000000000000000000000000000000000000000000000081526004810183905273ffffffffffffffffffffffffffffffffffffffff82811660248301527f0000000000000000000000000000000000000000000000000000000000000000169063ef5d6bbb906044016102bd565b803573ffffffffffffffffffffffffffffffffffffffff811681146107f4575f5ffd5b919050565b5f5f6040838503121561080a575f5ffd5b8235915061081a602084016107d1565b90509250929050565b5f60208284031215610833575f5ffd5b61083c826107d1565b9392505050565b7f4e487b71000000000000000000000000000000000000000000000000000000005f52604160045260245ffd5b60405160e0810167ffffffffffffffff8111828210171561089357610893610843565b60405290565b604051601f82017fffffffffffffffffffffffffffffffffffffffffffffffffffffffffffffffe016810167ffffffffffffffff811182821017156108e0576108e0610843565b604052919050565b5f67ffffffffffffffff82111561090157610901610843565b5060051b60200190565b5f82601f83011261091a575f5ffd5b813561092d610928826108e8565b610899565b8082825260208201915060208360051b86010192508583111561094e575f5ffd5b602085015b8381101561096b578035835260209283019201610953565b5095945050505050565b5f82601f830112610984575f5ffd5b8135610992610928826108e8565b8082825260208201915060208360051b8601019250858311156109b3575f5ffd5b602085015b8381101561096b576109c9816107d1565b8352602092830192016109b8565b5f60e082840312156109e7575f5ffd5b6109ef610870565b9050813567ffffffffffffffff811115610a07575f5ffd5b610a138482850161090b565b825250602082013567ffffffffffffffff811115610a2f575f5ffd5b610a3b84828501610975565b602083015250610a4d604083016107d1565b6040820152610a5e606083016107d1565b6060820152610a6f608083016107d1565b608082015260a0828101359082015260c09182013591810191909152919050565b5f5f5f5f848603610140811215610aa5575f5ffd5b853594506020860135935060e07fffffffffffffffffffffffffffffffffffffffffffffffffffffffffffffffc082011215610adf575f5ffd5b50610ae8610870565b610af4604087016107d1565b8152610b02606087016107d1565b60208201526080860135604082015260a08601356060820152610b2760c087016107d1565b608082015260e08601358015158114610b3e575f5ffd5b60a082015261010086013560c0820152915061012085013567ffffffffffffffff811115610b6a575f5ffd5b610b76878288016109d7565b91505092959194509250565b60048110610bb7577f4e487b71000000000000000000000000000000000000000000000000000000005f52602160045260245ffd5b9052565b60408101610bc98285610b82565b61083c6020830184610b82565b5f60208284031215610be6575f5ffd5b81516004811061083c575f5ffd5b5f8151808452602084019350602083015f5b82811015610c3a57815173ffffffffffffffffffffffffffffffffffffffff16865260209586019590910190600101610c06565b5093949350505050565b5f61012082018b83528a60208401526101206040840152808a518083526101408501915060208c0192505f5b81811015610c8e578351835260209384019390920191600101610c70565b50508381036060850152610ca2818b610bf4565b92505050610cc8608083018873ffffffffffffffffffffffffffffffffffffffff169052565b73ffffffffffffffffffffffffffffffffffffffff861660a083015273ffffffffffffffffffffffffffffffffffffffff851660c083015260e0820193909352610100015297965050505050505056fea2646970667358221220b7c8d63d59a4de78051ee1b678f291a27e33491d1cff95984a1738e83c4fea5964736f6c634300081e0033",
  "linkReferences": {},
  "deployedLinkReferences": {}
}