{
  "_format": "hh-sol-artifact-1",
  "contractName": "AgentMech",
  "sourceName": "contracts/AgentMech.sol",
  "abi": [
    {
      "inputs": [
        {
          "internalType": "address",
          "name": "_token",
          "type": "address"
        },
        {
          "internalType": "uint256",
          "name": "_tokenId",
          "type": "uint256"
        },
        {
          "internalType": "uint256",
          "name": "_price",
          "type": "uint256"
        }
      ],
      "stateMutability": "nonpayable",
      "type": "constructor"
    },
    {
      "inputs": [
        {
          "internalType": "uint256",
          "name": "agentId",
          "type": "uint256"
        }
      ],
      "name": "AgentNotFound",
      "type": "error"
    },
    {
      "inputs": [
        {
          "internalType": "uint256",
          "name": "provided",
          "type": "uint256"
        },
        {
          "internalType": "uint256",
          "name": "expected",
          "type": "uint256"
        }
      ],
      "name": "NotEnoughPaid",
      "type": "error"
    },
    {
      "inputs": [
        {
          "internalType": "uint256",
          "name": "provided",
          "type": "uint256"
        },
        {
          "internalType": "uint256",
          "name": "max",
          "type": "uint256"
        }
      ],
      "name": "Overflow",
      "type": "error"
    },
    {
      "inputs": [
        {
          "internalType": "uint256",
          "name": "requestId",
          "type": "uint256"
        }
      ],
      "name": "RequestIdNotFound",
      "type": "error"
    },
    {
      "inputs": [],
      "name": "ZeroAddress",
      "type": "error"
    },
    {
      "anonymous": false,
      "inputs": [
        {
          "indexed": true,
          "internalType": "address",
          "name": "sender",
          "type": "address"
        },
        {
          "indexed": false,
          "internalType": "uint256",
          "name": "requestId",
          "type": "uint256"
        },
        {
          "indexed": false,
          "internalType": "bytes",
          "name": "data",
          "type": "bytes"
        }
      ],
      "name": "Deliver",
      "type": "event"
    },
    {
      "anonymous": false,
      "inputs": [
        {
          "indexed": false,
          "internalType": "uint256",
          "name": "price",
          "type": "uint256"
        }
      ],
      "name": "PriceUpdated",
      "type": "event"
    },
    {
      "anonymous": false,
      "inputs": [
        {
          "indexed": true,
          "internalType": "address",
          "name": "sender",
          "type": "address"
        },
        {
          "indexed": false,
          "internalType": "uint256",
          "name": "requestId",
          "type": "uint256"
        },
        {
          "indexed": false,
          "internalType": "bytes",
          "name": "data",
          "type": "bytes"
        }
      ],
      "name": "Request",
      "type": "event"
    },
    {
      "inputs": [],
      "name": "DOMAIN_SEPARATOR_TYPE_HASH",
      "outputs": [
        {
          "internalType": "bytes32",
          "name": "",
          "type": "bytes32"
        }
      ],
      "stateMutability": "view",
      "type": "function"
    },
    {
      "inputs": [],
      "name": "VERSION",
      "outputs": [
        {
          "internalType": "string",
          "name": "",
          "type": "string"
        }
      ],
      "stateMutability": "view",
      "type": "function"
    },
    {
      "inputs": [],
      "name": "chainId",
      "outputs": [
        {
          "internalType": "uint256",
          "name": "",
          "type": "uint256"
        }
      ],
      "stateMutability": "view",
      "type": "function"
    },
    {
      "inputs": [
        {
          "internalType": "uint256",
          "name": "requestId",
          "type": "uint256"
        },
        {
          "internalType": "bytes",
          "name": "data",
          "type": "bytes"
        }
      ],
      "name": "deliver",
      "outputs": [],
      "stateMutability": "nonpayable",
      "type": "function"
    },
    {
      "inputs": [],
      "name": "domainSeparator",
      "outputs": [
        {
          "internalType": "bytes32",
          "name": "",
          "type": "bytes32"
        }
      ],
      "stateMutability": "view",
      "type": "function"
    },
    {
      "inputs": [],
      "name": "entryPoint",
      "outputs": [
        {
          "internalType": "contract IEntryPoint",
          "name": "",
          "type": "address"
        }
      ],
      "stateMutability": "view",
      "type": "function"
    },
    {
      "inputs": [
        {
          "internalType": "address",
          "name": "to",
          "type": "address"
        },
        {
          "internalType": "uint256",
          "name": "value",
          "type": "uint256"
        },
        {
          "internalType": "bytes",
          "name": "data",
          "type": "bytes"
        },
        {
          "internalType": "enum Enum.Operation",
          "name": "operation",
          "type": "uint8"
        },
        {
          "internalType": "uint256",
          "name": "txGas",
          "type": "uint256"
        }
      ],
      "name": "exec",
      "outputs": [
        {
          "internalType": "bytes",
          "name": "returnData",
          "type": "bytes"
        }
      ],
      "stateMutability": "nonpayable",
      "type": "function"
    },
    {
      "inputs": [],
      "name": "getDomainSeparator",
      "outputs": [
        {
          "internalType": "bytes32",
          "name": "",
          "type": "bytes32"
        }
      ],
      "stateMutability": "view",
      "type": "function"
    },
    {
      "inputs": [
        {
          "internalType": "address",
          "name": "account",
          "type": "address"
        },
        {
          "internalType": "bytes",
          "name": "data",
          "type": "bytes"
        }
      ],
      "name": "getRequestId",
      "outputs": [
        {
          "internalType": "uint256",
          "name": "requestId",
          "type": "uint256"
        }
      ],
      "stateMutability": "view",
      "type": "function"
    },
    {
      "inputs": [
        {
          "internalType": "address",
          "name": "account",
          "type": "address"
        },
        {
          "internalType": "bytes",
          "name": "data",
          "type": "bytes"
        },
        {
          "internalType": "uint256",
          "name": "nonce",
          "type": "uint256"
        }
      ],
      "name": "getRequestIdWithNonce",
      "outputs": [
        {
          "internalType": "uint256",
          "name": "requestId",
          "type": "uint256"
        }
      ],
      "stateMutability": "view",
      "type": "function"
    },
    {
      "inputs": [
        {
          "internalType": "uint256",
          "name": "requestId",
          "type": "uint256"
        }
      ],
      "name": "getRequestStatus",
      "outputs": [
        {
          "internalType": "enum AgentMech.RequestStatus",
          "name": "status",
          "type": "uint8"
        }
      ],
      "stateMutability": "view",
      "type": "function"
    },
    {
      "inputs": [
        {
          "internalType": "address",
          "name": "account",
          "type": "address"
        }
      ],
      "name": "getRequestsCount",
      "outputs": [
        {
          "internalType": "uint256",
          "name": "requestsCount",
          "type": "uint256"
        }
      ],
      "stateMutability": "view",
      "type": "function"
    },
    {
      "inputs": [
        {
          "internalType": "uint256",
          "name": "size",
          "type": "uint256"
        },
        {
          "internalType": "uint256",
          "name": "offset",
          "type": "uint256"
        }
      ],
      "name": "getUndeliveredRequestIds",
      "outputs": [
        {
          "internalType": "uint256[]",
          "name": "requestIds",
          "type": "uint256[]"
        }
      ],
      "stateMutability": "view",
      "type": "function"
    },
    {
      "inputs": [
        {
          "internalType": "address",
          "name": "signer",
          "type": "address"
        }
      ],
      "name": "isOperator",
      "outputs": [
        {
          "internalType": "bool",
          "name": "",
          "type": "bool"
        }
      ],
      "stateMutability": "view",
      "type": "function"
    },
    {
      "inputs": [
        {
          "internalType": "bytes32",
          "name": "hash",
          "type": "bytes32"
        },
        {
          "internalType": "bytes",
          "name": "signature",
          "type": "bytes"
        }
      ],
      "name": "isValidSignature",
      "outputs": [
        {
          "internalType": "bytes4",
          "name": "magicValue",
          "type": "bytes4"
        }
      ],
      "stateMutability": "view",
      "type": "function"
    },
    {
      "inputs": [
        {
          "internalType": "address",
          "name": "",
          "type": "address"
        }
      ],
      "name": "mapNonces",
      "outputs": [
        {
          "internalType": "uint256",
          "name": "",
          "type": "uint256"
        }
      ],
      "stateMutability": "view",
      "type": "function"
    },
    {
      "inputs": [
        {
          "internalType": "uint256",
          "name": "",
          "type": "uint256"
        }
      ],
      "name": "mapRequestAddresses",
      "outputs": [
        {
          "internalType": "address",
          "name": "",
          "type": "address"
        }
      ],
      "stateMutability": "view",
      "type": "function"
    },
    {
      "inputs": [
        {
          "internalType": "uint256",
          "name": "",
          "type": "uint256"
        },
        {
          "internalType": "uint256",
          "name": "",
          "type": "uint256"
        }
      ],
      "name": "mapRequestIds",
      "outputs": [
        {
          "internalType": "uint256",
          "name": "",
          "type": "uint256"
        }
      ],
      "stateMutability": "view",
      "type": "function"
    },
    {
      "inputs": [
        {
          "internalType": "address",
          "name": "",
          "type": "address"
        }
      ],
      "name": "mapRequestsCounts",
      "outputs": [
        {
          "internalType": "uint256",
          "name": "",
          "type": "uint256"
        }
      ],
      "stateMutability": "view",
      "type": "function"
    },
    {
      "inputs": [],
      "name": "nonce",
      "outputs": [
        {
          "internalType": "uint256",
          "name": "",
          "type": "uint256"
        }
      ],
      "stateMutability": "view",
      "type": "function"
    },
    {
      "inputs": [],
      "name": "numTotalRequests",
      "outputs": [
        {
          "internalType": "uint256",
          "name": "",
          "type": "uint256"
        }
      ],
      "stateMutability": "view",
      "type": "function"
    },
    {
      "inputs": [],
      "name": "numUndeliveredRequests",
      "outputs": [
        {
          "internalType": "uint256",
          "name": "",
          "type": "uint256"
        }
      ],
      "stateMutability": "view",
      "type": "function"
    },
    {
      "inputs": [
        {
          "internalType": "address",
          "name": "",
          "type": "address"
        },
        {
          "internalType": "address",
          "name": "",
          "type": "address"
        },
        {
          "internalType": "uint256[]",
          "name": "",
          "type": "uint256[]"
        },
        {
          "internalType": "uint256[]",
          "name": "",
          "type": "uint256[]"
        },
        {
          "internalType": "bytes",
          "name": "",
          "type": "bytes"
        }
      ],
      "name": "onERC1155BatchReceived",
      "outputs": [
        {
          "internalType": "bytes4",
          "name": "",
          "type": "bytes4"
        }
      ],
      "stateMutability": "pure",
      "type": "function"
    },
    {
      "inputs": [
        {
          "internalType": "address",
          "name": "",
          "type": "address"
        },
        {
          "internalType": "address",
          "name": "",
          "type": "address"
        },
        {
          "internalType": "uint256",
          "name": "",
          "type": "uint256"
        },
        {
          "internalType": "uint256",
          "name": "",
          "type": "uint256"
        },
        {
          "internalType": "bytes",
          "name": "",
          "type": "bytes"
        }
      ],
      "name": "onERC1155Received",
      "outputs": [
        {
          "internalType": "bytes4",
          "name": "",
          "type": "bytes4"
        }
      ],
      "stateMutability": "pure",
      "type": "function"
    },
    {
      "inputs": [
        {
          "internalType": "address",
          "name": "",
          "type": "address"
        },
        {
          "internalType": "address",
          "name": "",
          "type": "address"
        },
        {
          "internalType": "uint256",
          "name": "",
          "type": "uint256"
        },
        {
          "internalType": "bytes",
          "name": "",
          "type": "bytes"
        }
      ],
      "name": "onERC721Received",
      "outputs": [
        {
          "internalType": "bytes4",
          "name": "",
          "type": "bytes4"
        }
      ],
      "stateMutability": "pure",
      "type": "function"
    },
    {
      "inputs": [],
      "name": "price",
      "outputs": [
        {
          "internalType": "uint256",
          "name": "",
          "type": "uint256"
        }
      ],
      "stateMutability": "view",
      "type": "function"
    },
    {
      "inputs": [
        {
          "internalType": "bytes",
          "name": "data",
          "type": "bytes"
        }
      ],
      "name": "request",
      "outputs": [
        {
          "internalType": "uint256",
          "name": "requestId",
          "type": "uint256"
        }
      ],
      "stateMutability": "payable",
      "type": "function"
    },
    {
      "inputs": [
        {
          "internalType": "uint256",
          "name": "newPrice",
          "type": "uint256"
        }
      ],
      "name": "setPrice",
      "outputs": [],
      "stateMutability": "nonpayable",
      "type": "function"
    },
    {
      "inputs": [
        {
          "internalType": "bytes",
          "name": "initParams",
          "type": "bytes"
        }
      ],
      "name": "setUp",
      "outputs": [],
      "stateMutability": "nonpayable",
      "type": "function"
    },
    {
      "inputs": [],
      "name": "token",
      "outputs": [
        {
          "internalType": "contract IERC721",
          "name": "",
          "type": "address"
        }
      ],
      "stateMutability": "view",
      "type": "function"
    },
    {
      "inputs": [],
      "name": "tokenId",
      "outputs": [
        {
          "internalType": "uint256",
          "name": "",
          "type": "uint256"
        }
      ],
      "stateMutability": "view",
      "type": "function"
    },
    {
      "inputs": [
        {
          "internalType": "address",
          "name": "",
          "type": "address"
        },
        {
          "internalType": "address",
          "name": "",
          "type": "address"
        },
        {
          "internalType": "address",
          "name": "",
          "type": "address"
        },
        {
          "internalType": "uint256",
          "name": "",
          "type": "uint256"
        },
        {
          "internalType": "bytes",
          "name": "",
          "type": "bytes"
        },
        {
          "internalType": "bytes",
          "name": "",
          "type": "bytes"
        }
      ],
      "name": "tokensReceived",
      "outputs": [],
      "stateMutability": "pure",
      "type": "function"
    },
    {
      "inputs": [
        {
          "components": [
            {
              "internalType": "address",
              "name": "sender",
              "type": "address"
            },
            {
              "internalType": "uint256",
              "name": "nonce",
              "type": "uint256"
            },
            {
              "internalType": "bytes",
              "name": "initCode",
              "type": "bytes"
            },
            {
              "internalType": "bytes",
              "name": "callData",
              "type": "bytes"
            },
            {
              "internalType": "uint256",
              "name": "callGasLimit",
              "type": "uint256"
            },
            {
              "internalType": "uint256",
              "name": "verificationGasLimit",
              "type": "uint256"
            },
            {
              "internalType": "uint256",
              "name": "preVerificationGas",
              "type": "uint256"
            },
            {
              "internalType": "uint256",
              "name": "maxFeePerGas",
              "type": "uint256"
            },
            {
              "internalType": "uint256",
              "name": "maxPriorityFeePerGas",
              "type": "uint256"
            },
            {
              "internalType": "bytes",
              "name": "paymasterAndData",
              "type": "bytes"
            },
            {
              "internalType": "bytes",
              "name": "signature",
              "type": "bytes"
            }
          ],
          "internalType": "struct UserOperation",
          "name": "userOp",
          "type": "tuple"
        },
        {
          "internalType": "bytes32",
          "name": "userOpHash",
          "type": "bytes32"
        },
        {
          "internalType": "uint256",
          "name": "missingAccountFunds",
          "type": "uint256"
        }
      ],
      "name": "validateUserOp",
      "outputs": [
        {
          "internalType": "uint256",
          "name": "validationData",
          "type": "uint256"
        }
      ],
      "stateMutability": "nonpayable",
      "type": "function"
    },
    {
      "stateMutability": "payable",
      "type": "receive"
    }
  ],
  "bytecode": "0x60c06040525f805534801562000013575f80fd5b5060405162002e2d38038062002e2d83398101604081905262000036916200046f565b604080516001600160a01b03851660208201528082018490528151808203830181526060909101909152839083906200006f8162000159565b5050506001600160a01b0383166200009a5760405163d92e233d60e01b815260040160405180910390fd5b6040516331a9108f60e11b8152600481018390525f906001600160a01b03851690636352211e90602401602060405180830381865afa158015620000e0573d5f803e3d5ffd5b505050506040513d601f19601f82011682018060405250810190620001069190620004a4565b90506001600160a01b0381166200013857604051630ede975960e01b8152600481018490526024015b60405180910390fd5b60018290554660a0526200014b620001c1565b60805250620005bf92505050565b620001636200028b565b5115620001b35760405162461bcd60e51b815260206004820152601360248201527f416c726561647920696e697469616c697a65640000000000000000000000000060448201526064016200012f565b620001be81620002f6565b50565b5f7f8b73c3c69bb8fe3d512ecc4cf759cc79239f7b179b0ffacaa9a75d522b39400f7f493aeac1d921aa02a044029e7fe4be43b1a4e80b40706fa5819e8fbb0d093525604051806040016040528060058152602001640312e302e360dc1b815250604051602001620002349190620004eb565b60408051601f1981840301815282825280516020918201209083019490945281019190915260608101919091524660808201523060a082015260c00160405160208183030381529060405280519060200120905090565b6060620002f1620002eb604051606b60f91b6020820152602560fa1b60218201526001600160601b03193060601b166022820152600160f81b60368201525f90603701604051602081830303815290604052805190602001205f1c905090565b620003bf565b905090565b5f620003028262000417565b90505f8151602083015ff0905062000369604051606b60f91b6020820152602560fa1b60218201526001600160601b03193060601b166022820152600160f81b60368201525f90603701604051602081830303815290604052805190602001205f1c905090565b6001600160a01b0316816001600160a01b031614620003ba5760405162461bcd60e51b815260206004820152600c60248201526b15dc9a5d194819985a5b195960a21b60448201526064016200012f565b505050565b6060813b60018111620003e157505060408051602081019091525f8152919050565b80620003ed8162000533565b9150506040519150601f19601f602083010116820160405280825280600160208401853c50919050565b6060815160016200042991906200054b565b826040516020016200043d92919062000567565b6040516020818303038152906040529050919050565b80516001600160a01b03811681146200046a575f80fd5b919050565b5f805f6060848603121562000482575f80fd5b6200048d8462000453565b925060208401519150604084015190509250925092565b5f60208284031215620004b5575f80fd5b620004c08262000453565b9392505050565b5f5b83811015620004e3578181015183820152602001620004c9565b50505f910152565b602081525f82518060208401526200050b816040850160208701620004c7565b601f01601f19169190910160400192915050565b634e487b7160e01b5f52601160045260245ffd5b5f816200054457620005446200051f565b505f190190565b808201808211156200056157620005616200051f565b92915050565b606360f81b815260e083901b6001600160e01b03191660018201526880600e6000396000f360b81b60058201525f600e82018190528251620005b181600f850160208701620004c7565b91909101600f019392505050565b60805160a05161283e620005ef5f395f818161042d01526112c601525f81816106eb01526112fb015261283e5ff3fe6080604052600436106101f7575f3560e01c8063b0d691fe11610117578063e00b9118116100ac578063f6171e441161007c578063fba5c56b11610062578063fba5c56b1461070d578063fc0c546a1461072c578063ffa1ad7414610740575f80fd5b8063f6171e44146106bb578063f698da25146106da575f80fd5b8063e00b911814610610578063ed24911d1461062f578063f23a6e6114610643578063f5dcb7bb14610688575f80fd5b8063c7dec3fc116100e7578063c7dec3fc1461054c578063cbd6407a14610578578063d843b7f4146105a3578063d8a4676f146105e4575f80fd5b8063b0d691fe14610496578063b94207d3146104dd578063bc197c81146104f0578063bdf8631714610537575f80fd5b80635fee60851161018d5780639a8a05921161015d5780639a8a05921461041c578063a035b1fe1461044f578063a4f9edbf14610464578063affed0e014610483575f80fd5b80635fee6085146103625780636d70f7ae1461038d5780637af73473146103bc57806391b7f5ed146103fd575f80fd5b806317d70f7c116101c857806317d70f7c146102e05780633a871cdd146103025780634ada3e611461032157806358ce090914610336575f80fd5b806223de2914610202578063150b7a0214610228578063157305fe146102a25780631626ba7e146102c1575f80fd5b366101fe57005b5f80fd5b34801561020d575f80fd5b5061022661021c366004611eb9565b5050505050505050565b005b348015610233575f80fd5b5061026c610242366004611f63565b7f150b7a020000000000000000000000000000000000000000000000000000000095945050505050565b6040517fffffffff0000000000000000000000000000000000000000000000000000000090911681526020015b60405180910390f35b3480156102ad575f80fd5b506102266102bc3660046120a5565b610788565b3480156102cc575f80fd5b5061026c6102db3660046120a5565b6109b5565b3480156102eb575f80fd5b506102f4610b58565b604051908152602001610299565b34801561030d575f80fd5b506102f461031c3660046120e9565b610b7c565b34801561032c575f80fd5b506102f460035481565b348015610341575f80fd5b50610355610350366004612138565b610bb8565b6040516102999190612158565b34801561036d575f80fd5b506102f461037c36600461219b565b60046020525f908152604090205481565b348015610398575f80fd5b506103ac6103a736600461219b565b610d1e565b6040519015158152602001610299565b3480156103c7575f80fd5b506102f46103d636600461219b565b73ffffffffffffffffffffffffffffffffffffffff165f9081526004602052604090205490565b348015610408575f80fd5b506102266104173660046121b6565b610df0565b348015610427575f80fd5b506102f47f000000000000000000000000000000000000000000000000000000000000000081565b34801561045a575f80fd5b506102f460015481565b34801561046f575f80fd5b5061022661047e3660046121cd565b610ede565b34801561048e575f80fd5b505f546102f4565b3480156104a1575f80fd5b50730576a174d229e3cfa37253523e645a78a0c91b575b60405173ffffffffffffffffffffffffffffffffffffffff9091168152602001610299565b6102f46104eb3660046121cd565b610f5a565b3480156104fb575f80fd5b5061026c61050a366004612248565b7fbc197c810000000000000000000000000000000000000000000000000000000098975050505050505050565b348015610542575f80fd5b506102f460025481565b348015610557575f80fd5b5061056b6105663660046122de565b6110d1565b60405161029991906123bb565b348015610583575f80fd5b506102f461059236600461219b565b60076020525f908152604090205481565b3480156105ae575f80fd5b506104b86105bd3660046121b6565b60066020525f908152604090205473ffffffffffffffffffffffffffffffffffffffff1681565b3480156105ef575f80fd5b506106036105fe3660046121b6565b6111bb565b60405161029991906123fa565b34801561061b575f80fd5b506102f461062a366004612439565b611291565b34801561063a575f80fd5b506102f46112c3565b34801561064e575f80fd5b5061026c61065d366004612470565b7ff23a6e61000000000000000000000000000000000000000000000000000000009695505050505050565b348015610693575f80fd5b506102f47f8b73c3c69bb8fe3d512ecc4cf759cc79239f7b179b0ffacaa9a75d522b39400f81565b3480156106c6575f80fd5b506102f46106d5366004612138565b61131d565b3480156106e5575f80fd5b506102f47f000000000000000000000000000000000000000000000000000000000000000081565b348015610718575f80fd5b506102f46107273660046124e7565b61133f565b348015610737575f80fd5b506104b86113f3565b34801561074b575f80fd5b5061056b6040518060400160405280600581526020017f312e302e3000000000000000000000000000000000000000000000000000000081525081565b61079133610d1e565b806107af575033730576a174d229e3cfa37253523e645a78a0c91b57145b610840576040517f08c379a000000000000000000000000000000000000000000000000000000000815260206004820152603e60248201527f4f6e6c792063616c6c61626c6520627920746865206d656368206f706572617460448201527f6f72206f722074686520656e74727920706f696e7420636f6e7472616374000060648201526084015b60405180910390fd5b5f8281526005602052604080822081518083019283905284939290919060029082845b8154815260200190600101908083116108635750505050509050805f6002811061088f5761088f61253c565b60200201511580156108a357506020810151155b80156108d857505f805260056020527f05b8ccbb9d4d8fb16ea74ce3c29a41f1b461fbdaff4714a0d9a8eb05499746bc548414155b15610912576040517ffe23980400000000000000000000000000000000000000000000000000000000815260048101859052602401610837565b6020818101805183515f908152600590935260408084206001908101929092558451925184528084209290925586835290822082815501819055600280549161095a83612596565b91905055503373ffffffffffffffffffffffffffffffffffffffff167f0cd979445339c62199996f208428d987b1cea24d18e62b79ec24d94b636e8b7085846040516109a79291906125ca565b60405180910390a250505050565b5f805f806109d585602081015160408201516060909201515f1a92909190565b9094509250905060ff81165f03610aeb57828583016020016109f682610d1e565b158015610a19575073ffffffffffffffffffffffffffffffffffffffff82163014155b15610a4c57507fffffffff000000000000000000000000000000000000000000000000000000009450610b529350505050565b6040517f1626ba7e00000000000000000000000000000000000000000000000000000000815273ffffffffffffffffffffffffffffffffffffffff831690631626ba7e90610aa0908b9085906004016125ca565b602060405180830381865afa158015610abb573d5f803e3d5ffd5b505050506040513d601f19601f82011682018060405250810190610adf91906125e2565b95505050505050610b52565b610afa6103a787838686611410565b15610b2b57507f1626ba7e000000000000000000000000000000000000000000000000000000009250610b52915050565b507fffffffff00000000000000000000000000000000000000000000000000000000925050505b92915050565b5f80610b6261142c565b806020019051810190610b759190612621565b9392505050565b5f610b856114fb565b610b8f848461157a565b9050610b9e604085018561264d565b90505f03610baf57610baf8461167a565b610b75826116f8565b6002546060905f849003610bca578093505b80610bd584866126ae565b1115610c2257610be583856126ae565b6040517f7ae59685000000000000000000000000000000000000000000000000000000008152600481019190915260248101829052604401610837565b8315610d17578367ffffffffffffffff811115610c4157610c41611fd1565b604051908082528060200260200182016040528015610c6a578160200160208202803683370190505b505f80805260056020527f05b8ccbb9d4d8fb16ea74ce3c29a41f1b461fbdaff4714a0d9a8eb05499746bd549193505b84811015610cc5575f828152600560205260409020600101549150610cbe816126c1565b9050610c9a565b505f5b85811015610d145781848281518110610ce357610ce361253c565b6020908102919091018101919091525f9283526005905260409091206001015490610d0d816126c1565b9050610cc8565b50505b5092915050565b5f805f610d2961142c565b806020019051810190610d3c9190612621565b915091508373ffffffffffffffffffffffffffffffffffffffff168273ffffffffffffffffffffffffffffffffffffffff16636352211e836040518263ffffffff1660e01b8152600401610d9291815260200190565b602060405180830381865afa158015610dad573d5f803e3d5ffd5b505050506040513d601f19601f82011682018060405250810190610dd191906126f8565b73ffffffffffffffffffffffffffffffffffffffff1614949350505050565b610df933610d1e565b80610e17575033730576a174d229e3cfa37253523e645a78a0c91b57145b610ea3576040517f08c379a000000000000000000000000000000000000000000000000000000000815260206004820152603e60248201527f4f6e6c792063616c6c61626c6520627920746865206d656368206f706572617460448201527f6f72206f722074686520656e74727920706f696e7420636f6e747261637400006064820152608401610837565b60018190556040518181527f66cbca4f3c64fecf1dcb9ce094abcf7f68c3450a1d4e3a8e917dd621edb4ebe09060200160405180910390a150565b610ee661142c565b5115610f4e576040517f08c379a000000000000000000000000000000000000000000000000000000000815260206004820152601360248201527f416c726561647920696e697469616c697a6564000000000000000000000000006044820152606401610837565b610f578161176c565b50565b5f610f653383611291565b9050610f723482846118e1565b335f908152600460205260408120805491610f8c836126c1565b90915550505f81815260066020908152604080832080547fffffffffffffffffffffffff00000000000000000000000000000000000000001633908117909155835260079091528120805491610fe1836126c1565b909155505060056020525f81815260408082207f05b8ccbb9d4d8fb16ea74ce3c29a41f1b461fbdaff4714a0d9a8eb05499746bd80546001830181905590859055808452918320849055600280547f05b8ccbb9d4d8fb16ea74ce3c29a41f1b461fbdaff4714a0d9a8eb05499746bc94929392909190611060836126c1565b909155505060038054905f611074836126c1565b91905055503373ffffffffffffffffffffffffffffffffffffffff167f4bda649efe6b98b0f9c1d5e859c29e20910f45c66dabfe6fad4a4881f7faf9cc85876040516110c19291906125ca565b60405180910390a2505050919050565b60606110dc33610d1e565b806110fa575033730576a174d229e3cfa37253523e645a78a0c91b57145b611186576040517f08c379a000000000000000000000000000000000000000000000000000000000815260206004820152603e60248201527f4f6e6c792063616c6c61626c6520627920746865206d656368206f706572617460448201527f6f72206f722074686520656e74727920706f696e7420636f6e747261637400006064820152608401610837565b5f6111a087878787871561119a578761192b565b5a61192b565b92509050806111b157815160208301fd5b5095945050505050565b5f8181526006602052604081205473ffffffffffffffffffffffffffffffffffffffff161561128c575f828152600560205260408082208151808301928390529160029082845b8154815260200190600101908083116112025750505050509050805f6002811061122e5761122e61253c565b602002015115801561124257506020810151155b801561127757505f805260056020527f05b8ccbb9d4d8fb16ea74ce3c29a41f1b461fbdaff4714a0d9a8eb05499746bc548314155b15611285576002915061128a565b600191505b505b919050565b73ffffffffffffffffffffffffffffffffffffffff82165f90815260076020526040812054610b75908490849061133f565b5f7f000000000000000000000000000000000000000000000000000000000000000046146112f8576112f3611a2e565b905090565b507f000000000000000000000000000000000000000000000000000000000000000090565b6005602052815f5260405f208160028110611336575f80fd5b01549150829050565b5f6113486112c3565b84848460405160200161135d93929190612713565b604051602081830303815290604052805190602001206040516020016113b59291907f190100000000000000000000000000000000000000000000000000000000000081526002810192909252602282015260420190565b604080517fffffffffffffffffffffffffffffffffffffffffffffffffffffffffffffffe08184030181529190528051602090910120949350505050565b5f806113fd61142c565b806020019051810190610b5291906126f8565b5f805f61141f87878787611b2c565b915091506111b181611c14565b60606112f36114f66040517fd60000000000000000000000000000000000000000000000000000000000000060208201527f940000000000000000000000000000000000000000000000000000000000000060218201527fffffffffffffffffffffffffffffffffffffffff0000000000000000000000003060601b1660228201527f010000000000000000000000000000000000000000000000000000000000000060368201525f90603701604051602081830303815290604052805190602001205f1c905090565b611dc6565b33730576a174d229e3cfa37253523e645a78a0c91b5714611578576040517f08c379a000000000000000000000000000000000000000000000000000000000815260206004820152601c60248201527f6163636f756e743a206e6f742066726f6d20456e747279506f696e74000000006044820152606401610837565b565b5f806115d2836040517f19457468657265756d205369676e6564204d6573736167653a0a3332000000006020820152603c81018290525f90605c01604051602081830303815290604052805190602001209050919050565b90507f1626ba7e000000000000000000000000000000000000000000000000000000006116408261160761014088018861264d565b8080601f0160208091040260200160405190810160405280939291908181526020018383808284375f920191909152506109b592505050565b7fffffffff000000000000000000000000000000000000000000000000000000001614611671576001915050610b52565b505f9392505050565b5f80546020830135918061168d836126c1565b9190505514610f57576040517f08c379a000000000000000000000000000000000000000000000000000000000815260206004820152600d60248201527f496e76616c6964206e6f6e6365000000000000000000000000000000000000006044820152606401610837565b8015610f57576040515f9033907fffffffffffffffffffffffffffffffffffffffffffffffffffffffffffffffff90849084818181858888f193505050503d805f8114611760576040519150601f19603f3d011682016040523d82523d5f602084013e611765565b606091505b5050505050565b5f61177682611e1b565b90505f8151602083015ff090506118486040517fd60000000000000000000000000000000000000000000000000000000000000060208201527f940000000000000000000000000000000000000000000000000000000000000060218201527fffffffffffffffffffffffffffffffffffffffff0000000000000000000000003060601b1660228201527f010000000000000000000000000000000000000000000000000000000000000060368201525f90603701604051602081830303815290604052805190602001205f1c905090565b73ffffffffffffffffffffffffffffffffffffffff168173ffffffffffffffffffffffffffffffffffffffff16146118dc576040517f08c379a000000000000000000000000000000000000000000000000000000000815260206004820152600c60248201527f5772697465206661696c656400000000000000000000000000000000000000006044820152606401610837565b505050565b6001548310156118dc576001546040517fb4897828000000000000000000000000000000000000000000000000000000008152610837918591600401918252602082015260400190565b5f60606001846001811115611942576119426123cd565b036119b6578673ffffffffffffffffffffffffffffffffffffffff16838660405161196d9190612751565b5f604051808303818686f4925050503d805f81146119a6576040519150601f19603f3d011682016040523d82523d5f602084013e6119ab565b606091505b509092509050611a24565b8673ffffffffffffffffffffffffffffffffffffffff168387876040516119dd9190612751565b5f60405180830381858888f193505050503d805f8114611a18576040519150601f19603f3d011682016040523d82523d5f602084013e611a1d565b606091505b5090925090505b9550959350505050565b5f7f8b73c3c69bb8fe3d512ecc4cf759cc79239f7b179b0ffacaa9a75d522b39400f7f493aeac1d921aa02a044029e7fe4be43b1a4e80b40706fa5819e8fbb0d0935256040518060400160405280600581526020017f312e302e30000000000000000000000000000000000000000000000000000000815250604051602001611ab791906123bb565b604080517fffffffffffffffffffffffffffffffffffffffffffffffffffffffffffffffe081840301815282825280516020918201209083019490945281019190915260608101919091524660808201523060a082015260c00160405160208183030381529060405280519060200120905090565b5f807f7fffffffffffffffffffffffffffffff5d576e7357a4501ddfe92f46681b20a0831115611b6157505f90506003611c0b565b604080515f8082526020820180845289905260ff881692820192909252606081018690526080810185905260019060a0016020604051602081039080840390855afa158015611bb2573d5f803e3d5ffd5b50506040517fffffffffffffffffffffffffffffffffffffffffffffffffffffffffffffffe0015191505073ffffffffffffffffffffffffffffffffffffffff8116611c05575f60019250925050611c0b565b91505f90505b94509492505050565b5f816004811115611c2757611c276123cd565b03611c2f5750565b6001816004811115611c4357611c436123cd565b03611caa576040517f08c379a000000000000000000000000000000000000000000000000000000000815260206004820152601860248201527f45434453413a20696e76616c6964207369676e617475726500000000000000006044820152606401610837565b6002816004811115611cbe57611cbe6123cd565b03611d25576040517f08c379a000000000000000000000000000000000000000000000000000000000815260206004820152601f60248201527f45434453413a20696e76616c6964207369676e6174757265206c656e677468006044820152606401610837565b6003816004811115611d3957611d396123cd565b03610f57576040517f08c379a000000000000000000000000000000000000000000000000000000000815260206004820152602260248201527f45434453413a20696e76616c6964207369676e6174757265202773272076616c60448201527f75650000000000000000000000000000000000000000000000000000000000006064820152608401610837565b6060813b60018111611de757505060408051602081019091525f8152919050565b80611df181612596565b9150506040519150601f19601f602083010116820160405280825280600160208401853c50919050565b606081516001611e2b91906126ae565b82604051602001611e3d92919061276c565b6040516020818303038152906040529050919050565b73ffffffffffffffffffffffffffffffffffffffff81168114610f57575f80fd5b5f8083601f840112611e84575f80fd5b50813567ffffffffffffffff811115611e9b575f80fd5b602083019150836020828501011115611eb2575f80fd5b9250929050565b5f805f805f805f8060c0898b031215611ed0575f80fd5b8835611edb81611e53565b97506020890135611eeb81611e53565b96506040890135611efb81611e53565b955060608901359450608089013567ffffffffffffffff80821115611f1e575f80fd5b611f2a8c838d01611e74565b909650945060a08b0135915080821115611f42575f80fd5b50611f4f8b828c01611e74565b999c989b5096995094979396929594505050565b5f805f805f60808688031215611f77575f80fd5b8535611f8281611e53565b94506020860135611f9281611e53565b935060408601359250606086013567ffffffffffffffff811115611fb4575f80fd5b611fc088828901611e74565b969995985093965092949392505050565b7f4e487b71000000000000000000000000000000000000000000000000000000005f52604160045260245ffd5b5f82601f83011261200d575f80fd5b813567ffffffffffffffff8082111561202857612028611fd1565b604051601f83017fffffffffffffffffffffffffffffffffffffffffffffffffffffffffffffffe0908116603f0116810190828211818310171561206e5761206e611fd1565b81604052838152866020858801011115612086575f80fd5b836020870160208301375f602085830101528094505050505092915050565b5f80604083850312156120b6575f80fd5b82359150602083013567ffffffffffffffff8111156120d3575f80fd5b6120df85828601611ffe565b9150509250929050565b5f805f606084860312156120fb575f80fd5b833567ffffffffffffffff811115612111575f80fd5b84016101608187031215612123575f80fd5b95602085013595506040909401359392505050565b5f8060408385031215612149575f80fd5b50508035926020909101359150565b602080825282518282018190525f9190848201906040850190845b8181101561218f57835183529284019291840191600101612173565b50909695505050505050565b5f602082840312156121ab575f80fd5b8135610b7581611e53565b5f602082840312156121c6575f80fd5b5035919050565b5f602082840312156121dd575f80fd5b813567ffffffffffffffff8111156121f3575f80fd5b6121ff84828501611ffe565b949350505050565b5f8083601f840112612217575f80fd5b50813567ffffffffffffffff81111561222e575f80fd5b6020830191508360208260051b8501011115611eb2575f80fd5b5f805f805f805f8060a0898b03121561225f575f80fd5b883561226a81611e53565b9750602089013561227a81611e53565b9650604089013567ffffffffffffffff80821115612296575f80fd5b6122a28c838d01612207565b909850965060608b01359150808211156122ba575f80fd5b6122c68c838d01612207565b909650945060808b0135915080821115611f42575f80fd5b5f805f805f60a086880312156122f2575f80fd5b85356122fd81611e53565b945060208601359350604086013567ffffffffffffffff81111561231f575f80fd5b61232b88828901611ffe565b93505060608601356002811061233f575f80fd5b949793965091946080013592915050565b5f5b8381101561236a578181015183820152602001612352565b50505f910152565b5f8151808452612389816020860160208601612350565b601f017fffffffffffffffffffffffffffffffffffffffffffffffffffffffffffffffe0169290920160200192915050565b602081525f610b756020830184612372565b7f4e487b71000000000000000000000000000000000000000000000000000000005f52602160045260245ffd5b6020810160038310612433577f4e487b71000000000000000000000000000000000000000000000000000000005f52602160045260245ffd5b91905290565b5f806040838503121561244a575f80fd5b823561245581611e53565b9150602083013567ffffffffffffffff8111156120d3575f80fd5b5f805f805f8060a08789031215612485575f80fd5b863561249081611e53565b955060208701356124a081611e53565b94506040870135935060608701359250608087013567ffffffffffffffff8111156124c9575f80fd5b6124d589828a01611e74565b979a9699509497509295939492505050565b5f805f606084860312156124f9575f80fd5b833561250481611e53565b9250602084013567ffffffffffffffff81111561251f575f80fd5b61252b86828701611ffe565b925050604084013590509250925092565b7f4e487b71000000000000000000000000000000000000000000000000000000005f52603260045260245ffd5b7f4e487b71000000000000000000000000000000000000000000000000000000005f52601160045260245ffd5b5f816125a4576125a4612569565b507fffffffffffffffffffffffffffffffffffffffffffffffffffffffffffffffff0190565b828152604060208201525f6121ff6040830184612372565b5f602082840312156125f2575f80fd5b81517fffffffff0000000000000000000000000000000000000000000000000000000081168114610b75575f80fd5b5f8060408385031215612632575f80fd5b825161263d81611e53565b6020939093015192949293505050565b5f8083357fffffffffffffffffffffffffffffffffffffffffffffffffffffffffffffffe1843603018112612680575f80fd5b83018035915067ffffffffffffffff82111561269a575f80fd5b602001915036819003821315611eb2575f80fd5b80820180821115610b5257610b52612569565b5f7fffffffffffffffffffffffffffffffffffffffffffffffffffffffffffffffff82036126f1576126f1612569565b5060010190565b5f60208284031215612708575f80fd5b8151610b7581611e53565b73ffffffffffffffffffffffffffffffffffffffff84168152606060208201525f6127416060830185612372565b9050826040830152949350505050565b5f8251612762818460208701612350565b9190910192915050565b7f630000000000000000000000000000000000000000000000000000000000000081527fffffffff000000000000000000000000000000000000000000000000000000008360e01b1660018201527f80600e6000396000f3000000000000000000000000000000000000000000000060058201525f600e8201525f82516127fa81600f850160208701612350565b91909101600f01939250505056fea26469706673582212201c49ef1d37036a86e2a275e45bd2226018870ce127108112aa22cac18dc0771564736f6c63430008150033",
  "linkReferences": {},
  "deployedLinkReferences": {}
}