{
  "_format": "hh-sol-artifact-1",
  "contractName": "AgentMech",
  "sourceName": "contracts/AgentMech.sol",
  "abi": [
    {
      "inputs": [
        {
          "internalType": "address",
          "name": "_token",
          "type": "address"
        },
        {
          "internalType": "uint256",
          "name": "_tokenId",
          "type": "uint256"
        },
        {
          "internalType": "uint256",
          "name": "_price",
          "type": "uint256"
        }
      ],
      "stateMutability": "nonpayable",
      "type": "constructor"
    },
    {
      "inputs": [
        {
          "internalType": "uint256",
          "name": "agentId",
          "type": "uint256"
        }
      ],
      "name": "AgentNotFound",
      "type": "error"
    },
    {
      "inputs": [
        {
          "internalType": "uint256",
          "name": "provided",
          "type": "uint256"
        },
        {
          "internalType": "uint256",
          "name": "expected",
          "type": "uint256"
        }
      ],
      "name": "NotEnoughPaid",
      "type": "error"
    },
    {
      "inputs": [],
      "name": "ZeroAddress",
      "type": "error"
    },
    {
      "anonymous": false,
      "inputs": [
        {
          "indexed": true,
          "internalType": "address",
          "name": "sender",
          "type": "address"
        },
        {
          "indexed": false,
          "internalType": "uint256",
          "name": "requestId",
          "type": "uint256"
        },
        {
          "indexed": false,
          "internalType": "bytes",
          "name": "data",
          "type": "bytes"
        }
      ],
      "name": "Deliver",
      "type": "event"
    },
    {
      "anonymous": false,
      "inputs": [
        {
          "indexed": true,
          "internalType": "address",
          "name": "sender",
          "type": "address"
        },
        {
          "indexed": false,
          "internalType": "bytes32",
          "name": "taskHash",
          "type": "bytes32"
        }
      ],
      "name": "Perform",
      "type": "event"
    },
    {
      "anonymous": false,
      "inputs": [
        {
          "indexed": false,
          "internalType": "uint256",
          "name": "price",
          "type": "uint256"
        }
      ],
      "name": "PriceUpdated",
      "type": "event"
    },
    {
      "anonymous": false,
      "inputs": [
        {
          "indexed": true,
          "internalType": "address",
          "name": "sender",
          "type": "address"
        },
        {
          "indexed": false,
          "internalType": "uint256",
          "name": "requestId",
          "type": "uint256"
        },
        {
          "indexed": false,
          "internalType": "bytes",
          "name": "data",
          "type": "bytes"
        }
      ],
      "name": "Request",
      "type": "event"
    },
    {
      "inputs": [
        {
          "internalType": "uint256",
          "name": "requestId",
          "type": "uint256"
        },
        {
          "internalType": "bytes",
          "name": "data",
          "type": "bytes"
        }
      ],
      "name": "deliver",
      "outputs": [],
      "stateMutability": "nonpayable",
      "type": "function"
    },
    {
      "inputs": [],
      "name": "entryPoint",
      "outputs": [
        {
          "internalType": "contract IEntryPoint",
          "name": "",
          "type": "address"
        }
      ],
      "stateMutability": "view",
      "type": "function"
    },
    {
      "inputs": [
        {
          "internalType": "address",
          "name": "to",
          "type": "address"
        },
        {
          "internalType": "uint256",
          "name": "value",
          "type": "uint256"
        },
        {
          "internalType": "bytes",
          "name": "data",
          "type": "bytes"
        },
        {
          "internalType": "enum Enum.Operation",
          "name": "operation",
          "type": "uint8"
        },
        {
          "internalType": "uint256",
          "name": "txGas",
          "type": "uint256"
        }
      ],
      "name": "exec",
      "outputs": [
        {
          "internalType": "bytes",
          "name": "returnData",
          "type": "bytes"
        }
      ],
      "stateMutability": "nonpayable",
      "type": "function"
    },
    {
      "inputs": [
        {
          "internalType": "address",
          "name": "account",
          "type": "address"
        },
        {
          "internalType": "bytes",
          "name": "data",
          "type": "bytes"
        }
      ],
      "name": "getRequestId",
      "outputs": [
        {
          "internalType": "uint256",
          "name": "requestId",
          "type": "uint256"
        }
      ],
      "stateMutability": "pure",
      "type": "function"
    },
    {
      "inputs": [
        {
          "internalType": "address",
          "name": "account",
          "type": "address"
        }
      ],
      "name": "getRequestsCount",
      "outputs": [
        {
          "internalType": "uint256",
          "name": "requestsCount",
          "type": "uint256"
        }
      ],
      "stateMutability": "view",
      "type": "function"
    },
    {
      "inputs": [
        {
          "internalType": "address",
          "name": "signer",
          "type": "address"
        }
      ],
      "name": "isOperator",
      "outputs": [
        {
          "internalType": "bool",
          "name": "",
          "type": "bool"
        }
      ],
      "stateMutability": "view",
      "type": "function"
    },
    {
      "inputs": [
        {
          "internalType": "bytes32",
          "name": "hash",
          "type": "bytes32"
        },
        {
          "internalType": "bytes",
          "name": "signature",
          "type": "bytes"
        }
      ],
      "name": "isValidSignature",
      "outputs": [
        {
          "internalType": "bytes4",
          "name": "magicValue",
          "type": "bytes4"
        }
      ],
      "stateMutability": "view",
      "type": "function"
    },
    {
      "inputs": [
        {
          "internalType": "address",
          "name": "",
          "type": "address"
        }
      ],
      "name": "mapRequestsCounts",
      "outputs": [
        {
          "internalType": "uint256",
          "name": "",
          "type": "uint256"
        }
      ],
      "stateMutability": "view",
      "type": "function"
    },
    {
      "inputs": [],
      "name": "nonce",
      "outputs": [
        {
          "internalType": "uint256",
          "name": "",
          "type": "uint256"
        }
      ],
      "stateMutability": "view",
      "type": "function"
    },
    {
      "inputs": [
        {
          "internalType": "address",
          "name": "",
          "type": "address"
        },
        {
          "internalType": "address",
          "name": "",
          "type": "address"
        },
        {
          "internalType": "uint256[]",
          "name": "",
          "type": "uint256[]"
        },
        {
          "internalType": "uint256[]",
          "name": "",
          "type": "uint256[]"
        },
        {
          "internalType": "bytes",
          "name": "",
          "type": "bytes"
        }
      ],
      "name": "onERC1155BatchReceived",
      "outputs": [
        {
          "internalType": "bytes4",
          "name": "",
          "type": "bytes4"
        }
      ],
      "stateMutability": "pure",
      "type": "function"
    },
    {
      "inputs": [
        {
          "internalType": "address",
          "name": "",
          "type": "address"
        },
        {
          "internalType": "address",
          "name": "",
          "type": "address"
        },
        {
          "internalType": "uint256",
          "name": "",
          "type": "uint256"
        },
        {
          "internalType": "uint256",
          "name": "",
          "type": "uint256"
        },
        {
          "internalType": "bytes",
          "name": "",
          "type": "bytes"
        }
      ],
      "name": "onERC1155Received",
      "outputs": [
        {
          "internalType": "bytes4",
          "name": "",
          "type": "bytes4"
        }
      ],
      "stateMutability": "pure",
      "type": "function"
    },
    {
      "inputs": [
        {
          "internalType": "address",
          "name": "",
          "type": "address"
        },
        {
          "internalType": "address",
          "name": "",
          "type": "address"
        },
        {
          "internalType": "uint256",
          "name": "",
          "type": "uint256"
        },
        {
          "internalType": "bytes",
          "name": "",
          "type": "bytes"
        }
      ],
      "name": "onERC721Received",
      "outputs": [
        {
          "internalType": "bytes4",
          "name": "",
          "type": "bytes4"
        }
      ],
      "stateMutability": "pure",
      "type": "function"
    },
    {
      "inputs": [],
      "name": "price",
      "outputs": [
        {
          "internalType": "uint256",
          "name": "",
          "type": "uint256"
        }
      ],
      "stateMutability": "view",
      "type": "function"
    },
    {
      "inputs": [
        {
          "internalType": "bytes",
          "name": "data",
          "type": "bytes"
        }
      ],
      "name": "request",
      "outputs": [
        {
          "internalType": "uint256",
          "name": "requestId",
          "type": "uint256"
        }
      ],
      "stateMutability": "payable",
      "type": "function"
    },
    {
      "inputs": [
        {
          "internalType": "uint256",
          "name": "newPrice",
          "type": "uint256"
        }
      ],
      "name": "setPrice",
      "outputs": [],
      "stateMutability": "nonpayable",
      "type": "function"
    },
    {
      "inputs": [
        {
          "internalType": "bytes",
          "name": "initParams",
          "type": "bytes"
        }
      ],
      "name": "setUp",
      "outputs": [],
      "stateMutability": "nonpayable",
      "type": "function"
    },
    {
      "inputs": [],
      "name": "token",
      "outputs": [
        {
          "internalType": "contract IERC721",
          "name": "",
          "type": "address"
        }
      ],
      "stateMutability": "view",
      "type": "function"
    },
    {
      "inputs": [],
      "name": "tokenId",
      "outputs": [
        {
          "internalType": "uint256",
          "name": "",
          "type": "uint256"
        }
      ],
      "stateMutability": "view",
      "type": "function"
    },
    {
      "inputs": [
        {
          "internalType": "address",
          "name": "",
          "type": "address"
        },
        {
          "internalType": "address",
          "name": "",
          "type": "address"
        },
        {
          "internalType": "address",
          "name": "",
          "type": "address"
        },
        {
          "internalType": "uint256",
          "name": "",
          "type": "uint256"
        },
        {
          "internalType": "bytes",
          "name": "",
          "type": "bytes"
        },
        {
          "internalType": "bytes",
          "name": "",
          "type": "bytes"
        }
      ],
      "name": "tokensReceived",
      "outputs": [],
      "stateMutability": "pure",
      "type": "function"
    },
    {
      "inputs": [
        {
          "components": [
            {
              "internalType": "address",
              "name": "sender",
              "type": "address"
            },
            {
              "internalType": "uint256",
              "name": "nonce",
              "type": "uint256"
            },
            {
              "internalType": "bytes",
              "name": "initCode",
              "type": "bytes"
            },
            {
              "internalType": "bytes",
              "name": "callData",
              "type": "bytes"
            },
            {
              "internalType": "uint256",
              "name": "callGasLimit",
              "type": "uint256"
            },
            {
              "internalType": "uint256",
              "name": "verificationGasLimit",
              "type": "uint256"
            },
            {
              "internalType": "uint256",
              "name": "preVerificationGas",
              "type": "uint256"
            },
            {
              "internalType": "uint256",
              "name": "maxFeePerGas",
              "type": "uint256"
            },
            {
              "internalType": "uint256",
              "name": "maxPriorityFeePerGas",
              "type": "uint256"
            },
            {
              "internalType": "bytes",
              "name": "paymasterAndData",
              "type": "bytes"
            },
            {
              "internalType": "bytes",
              "name": "signature",
              "type": "bytes"
            }
          ],
          "internalType": "struct UserOperation",
          "name": "userOp",
          "type": "tuple"
        },
        {
          "internalType": "bytes32",
          "name": "userOpHash",
          "type": "bytes32"
        },
        {
          "internalType": "uint256",
          "name": "missingAccountFunds",
          "type": "uint256"
        }
      ],
      "name": "validateUserOp",
      "outputs": [
        {
          "internalType": "uint256",
          "name": "validationData",
          "type": "uint256"
        }
      ],
      "stateMutability": "nonpayable",
      "type": "function"
    },
    {
      "stateMutability": "payable",
      "type": "receive"
    }
  ],
  "bytecode": "0x60806040525f805534801562000013575f80fd5b506040516200229638038062002296833981016040819052620000369162000391565b604080516001600160a01b03851660208201528082018490528151808203830181526060909101909152839083906200006f8162000145565b5050506001600160a01b0383166200009a5760405163d92e233d60e01b815260040160405180910390fd5b6040516331a9108f60e11b8152600481018390525f906001600160a01b03851690636352211e90602401602060405180830381865afa158015620000e0573d5f803e3d5ffd5b505050506040513d601f19601f82011682018060405250810190620001069190620003c6565b90506001600160a01b0381166200013857604051630ede975960e01b8152600481018490526024015b60405180910390fd5b50600155506200049a9050565b6200014f620001ad565b51156200019f5760405162461bcd60e51b815260206004820152601360248201527f416c726561647920696e697469616c697a65640000000000000000000000000060448201526064016200012f565b620001aa8162000218565b50565b6060620002136200020d604051606b60f91b6020820152602560fa1b60218201526001600160601b03193060601b166022820152600160f81b60368201525f90603701604051602081830303815290604052805190602001205f1c905090565b620002e1565b905090565b5f620002248262000339565b90505f8151602083015ff090506200028b604051606b60f91b6020820152602560fa1b60218201526001600160601b03193060601b166022820152600160f81b60368201525f90603701604051602081830303815290604052805190602001205f1c905090565b6001600160a01b0316816001600160a01b031614620002dc5760405162461bcd60e51b815260206004820152600c60248201526b15dc9a5d194819985a5b195960a21b60448201526064016200012f565b505050565b6060813b600181116200030357505060408051602081019091525f8152919050565b806200030f81620003fd565b9150506040519150601f19601f602083010116820160405280825280600160208401853c50919050565b6060815160016200034b919062000415565b826040516020016200035f92919062000431565b6040516020818303038152906040529050919050565b80516001600160a01b03811681146200038c575f80fd5b919050565b5f805f60608486031215620003a4575f80fd5b620003af8462000375565b925060208401519150604084015190509250925092565b5f60208284031215620003d7575f80fd5b620003e28262000375565b9392505050565b634e487b7160e01b5f52601160045260245ffd5b5f816200040e576200040e620003e9565b505f190190565b808201808211156200042b576200042b620003e9565b92915050565b606360f81b815260e083901b6001600160e01b03191660018201526880600e6000396000f360b81b60058201525f600e82018190528251815b8181101562000489576020818601810151600f8684010152016200046a565b505f9201600f019182525092915050565b611dee80620004a85f395ff3fe608060405260043610610159575f3560e01c8063a035b1fe116100bb578063bc197c8111610071578063e00b911811610057578063e00b911814610451578063f23a6e6114610470578063fc0c546a146104b5575f80fd5b8063bc197c81146103de578063c7dec3fc14610425575f80fd5b8063affed0e0116100a1578063affed0e014610371578063b0d691fe14610384578063b94207d3146103cb575f80fd5b8063a035b1fe1461033d578063a4f9edbf14610352575f80fd5b80633a871cdd116101105780636d70f7ae116100f65780636d70f7ae146102ae5780637af73473146102dd57806391b7f5ed1461031e575f80fd5b80633a871cdd146102645780635fee608514610283575f80fd5b8063157305fe11610140578063157305fe146102045780631626ba7e1461022357806317d70f7c14610242575f80fd5b806223de2914610164578063150b7a021461018a575f80fd5b3661016057005b5f80fd5b34801561016f575f80fd5b5061018861017e36600461159d565b5050505050505050565b005b348015610195575f80fd5b506101ce6101a4366004611647565b7f150b7a020000000000000000000000000000000000000000000000000000000095945050505050565b6040517fffffffff0000000000000000000000000000000000000000000000000000000090911681526020015b60405180910390f35b34801561020f575f80fd5b5061018861021e366004611789565b6104c9565b34801561022e575f80fd5b506101ce61023d366004611789565b6105d5565b34801561024d575f80fd5b50610256610778565b6040519081526020016101fb565b34801561026f575f80fd5b5061025661027e3660046117cd565b61079c565b34801561028e575f80fd5b5061025661029d36600461181c565b60026020525f908152604090205481565b3480156102b9575f80fd5b506102cd6102c836600461181c565b6107d8565b60405190151581526020016101fb565b3480156102e8575f80fd5b506102566102f736600461181c565b73ffffffffffffffffffffffffffffffffffffffff165f9081526002602052604090205490565b348015610329575f80fd5b50610188610338366004611837565b6108aa565b348015610348575f80fd5b5061025660015481565b34801561035d575f80fd5b5061018861036c36600461184e565b610998565b34801561037c575f80fd5b505f54610256565b34801561038f575f80fd5b50730576a174d229e3cfa37253523e645a78a0c91b575b60405173ffffffffffffffffffffffffffffffffffffffff90911681526020016101fb565b6102566103d936600461184e565b610a14565b3480156103e9575f80fd5b506101ce6103f83660046118c9565b7fbc197c810000000000000000000000000000000000000000000000000000000098975050505050505050565b348015610430575f80fd5b5061044461043f36600461195f565b610adf565b6040516101fb9190611a3c565b34801561045c575f80fd5b5061025661046b366004611a4e565b610bc9565b34801561047b575f80fd5b506101ce61048a366004611a85565b7ff23a6e61000000000000000000000000000000000000000000000000000000009695505050505050565b3480156104c0575f80fd5b506103a6610c1a565b6104d2336107d8565b806104f0575033730576a174d229e3cfa37253523e645a78a0c91b57145b610581576040517f08c379a000000000000000000000000000000000000000000000000000000000815260206004820152603e60248201527f4f6e6c792063616c6c61626c6520627920746865206d656368206f706572617460448201527f6f72206f722074686520656e74727920706f696e7420636f6e7472616374000060648201526084015b60405180910390fd5b3373ffffffffffffffffffffffffffffffffffffffff167f0cd979445339c62199996f208428d987b1cea24d18e62b79ec24d94b636e8b7083836040516105c9929190611afc565b60405180910390a25050565b5f805f806105f585602081015160408201516060909201515f1a92909190565b9094509250905060ff81165f0361070b5782858301602001610616826107d8565b158015610639575073ffffffffffffffffffffffffffffffffffffffff82163014155b1561066c57507fffffffff0000000000000000000000000000000000000000000000000000000094506107729350505050565b6040517f1626ba7e00000000000000000000000000000000000000000000000000000000815273ffffffffffffffffffffffffffffffffffffffff831690631626ba7e906106c0908b908590600401611afc565b602060405180830381865afa1580156106db573d5f803e3d5ffd5b505050506040513d601f19601f820116820180604052508101906106ff9190611b14565b95505050505050610772565b61071a6102c887838686610c37565b1561074b57507f1626ba7e000000000000000000000000000000000000000000000000000000009250610772915050565b507fffffffff00000000000000000000000000000000000000000000000000000000925050505b92915050565b5f80610782610c53565b8060200190518101906107959190611b53565b9392505050565b5f6107a5610d27565b6107af8484610da6565b90506107be6040850185611b7f565b90505f036107cf576107cf84610ea6565b61079582610f24565b5f805f6107e3610c53565b8060200190518101906107f69190611b53565b915091508373ffffffffffffffffffffffffffffffffffffffff168273ffffffffffffffffffffffffffffffffffffffff16636352211e836040518263ffffffff1660e01b815260040161084c91815260200190565b602060405180830381865afa158015610867573d5f803e3d5ffd5b505050506040513d601f19601f8201168201806040525081019061088b9190611be0565b73ffffffffffffffffffffffffffffffffffffffff1614949350505050565b6108b3336107d8565b806108d1575033730576a174d229e3cfa37253523e645a78a0c91b57145b61095d576040517f08c379a000000000000000000000000000000000000000000000000000000000815260206004820152603e60248201527f4f6e6c792063616c6c61626c6520627920746865206d656368206f706572617460448201527f6f72206f722074686520656e74727920706f696e7420636f6e747261637400006064820152608401610578565b60018190556040518181527f66cbca4f3c64fecf1dcb9ce094abcf7f68c3450a1d4e3a8e917dd621edb4ebe09060200160405180910390a150565b6109a0610c53565b5115610a08576040517f08c379a000000000000000000000000000000000000000000000000000000000815260206004820152601360248201527f416c726561647920696e697469616c697a6564000000000000000000000000006044820152606401610578565b610a1181610f98565b50565b5f600154341015610a5e576001546040517fb48978280000000000000000000000000000000000000000000000000000000081523460048201526024810191909152604401610578565b610a683383610bc9565b335f908152600260205260408120805492935090610a8583611c28565b91905055503373ffffffffffffffffffffffffffffffffffffffff167f4bda649efe6b98b0f9c1d5e859c29e20910f45c66dabfe6fad4a4881f7faf9cc8284604051610ad2929190611afc565b60405180910390a2919050565b6060610aea336107d8565b80610b08575033730576a174d229e3cfa37253523e645a78a0c91b57145b610b94576040517f08c379a000000000000000000000000000000000000000000000000000000000815260206004820152603e60248201527f4f6e6c792063616c6c61626c6520627920746865206d656368206f706572617460448201527f6f72206f722074686520656e74727920706f696e7420636f6e747261637400006064820152608401610578565b5f610bae878787878715610ba8578761110d565b5a61110d565b9250905080610bbf57815160208301fd5b5095945050505050565b5f8282604051602001610bdd929190611c5f565b604080517fffffffffffffffffffffffffffffffffffffffffffffffffffffffffffffffe081840301815291905280516020909101209392505050565b5f80610c24610c53565b8060200190518101906107729190611be0565b5f805f610c4687878787611210565b91509150610bbf816112f8565b6060610d22610d1d6040517fd60000000000000000000000000000000000000000000000000000000000000060208201527f940000000000000000000000000000000000000000000000000000000000000060218201527fffffffffffffffffffffffffffffffffffffffff0000000000000000000000003060601b1660228201527f010000000000000000000000000000000000000000000000000000000000000060368201525f90603701604051602081830303815290604052805190602001205f1c905090565b6114aa565b905090565b33730576a174d229e3cfa37253523e645a78a0c91b5714610da4576040517f08c379a000000000000000000000000000000000000000000000000000000000815260206004820152601c60248201527f6163636f756e743a206e6f742066726f6d20456e747279506f696e74000000006044820152606401610578565b565b5f80610dfe836040517f19457468657265756d205369676e6564204d6573736167653a0a3332000000006020820152603c81018290525f90605c01604051602081830303815290604052805190602001209050919050565b90507f1626ba7e00000000000000000000000000000000000000000000000000000000610e6c82610e33610140880188611b7f565b8080601f0160208091040260200160405190810160405280939291908181526020018383808284375f920191909152506105d592505050565b7fffffffff000000000000000000000000000000000000000000000000000000001614610e9d576001915050610772565b505f9392505050565b5f805460208301359180610eb983611c28565b9190505514610a11576040517f08c379a000000000000000000000000000000000000000000000000000000000815260206004820152600d60248201527f496e76616c6964206e6f6e6365000000000000000000000000000000000000006044820152606401610578565b8015610a11576040515f9033907fffffffffffffffffffffffffffffffffffffffffffffffffffffffffffffffff90849084818181858888f193505050503d805f8114610f8c576040519150601f19603f3d011682016040523d82523d5f602084013e610f91565b606091505b5050505050565b5f610fa2826114ff565b90505f8151602083015ff090506110746040517fd60000000000000000000000000000000000000000000000000000000000000060208201527f940000000000000000000000000000000000000000000000000000000000000060218201527fffffffffffffffffffffffffffffffffffffffff0000000000000000000000003060601b1660228201527f010000000000000000000000000000000000000000000000000000000000000060368201525f90603701604051602081830303815290604052805190602001205f1c905090565b73ffffffffffffffffffffffffffffffffffffffff168173ffffffffffffffffffffffffffffffffffffffff1614611108576040517f08c379a000000000000000000000000000000000000000000000000000000000815260206004820152600c60248201527f5772697465206661696c656400000000000000000000000000000000000000006044820152606401610578565b505050565b5f6060600184600181111561112457611124611c8d565b03611198578673ffffffffffffffffffffffffffffffffffffffff16838660405161114f9190611cba565b5f604051808303818686f4925050503d805f8114611188576040519150601f19603f3d011682016040523d82523d5f602084013e61118d565b606091505b509092509050611206565b8673ffffffffffffffffffffffffffffffffffffffff168387876040516111bf9190611cba565b5f60405180830381858888f193505050503d805f81146111fa576040519150601f19603f3d011682016040523d82523d5f602084013e6111ff565b606091505b5090925090505b9550959350505050565b5f807f7fffffffffffffffffffffffffffffff5d576e7357a4501ddfe92f46681b20a083111561124557505f905060036112ef565b604080515f8082526020820180845289905260ff881692820192909252606081018690526080810185905260019060a0016020604051602081039080840390855afa158015611296573d5f803e3d5ffd5b50506040517fffffffffffffffffffffffffffffffffffffffffffffffffffffffffffffffe0015191505073ffffffffffffffffffffffffffffffffffffffff81166112e9575f600192509250506112ef565b91505f90505b94509492505050565b5f81600481111561130b5761130b611c8d565b036113135750565b600181600481111561132757611327611c8d565b0361138e576040517f08c379a000000000000000000000000000000000000000000000000000000000815260206004820152601860248201527f45434453413a20696e76616c6964207369676e617475726500000000000000006044820152606401610578565b60028160048111156113a2576113a2611c8d565b03611409576040517f08c379a000000000000000000000000000000000000000000000000000000000815260206004820152601f60248201527f45434453413a20696e76616c6964207369676e6174757265206c656e677468006044820152606401610578565b600381600481111561141d5761141d611c8d565b03610a11576040517f08c379a000000000000000000000000000000000000000000000000000000000815260206004820152602260248201527f45434453413a20696e76616c6964207369676e6174757265202773272076616c60448201527f75650000000000000000000000000000000000000000000000000000000000006064820152608401610578565b6060813b600181116114cb57505060408051602081019091525f8152919050565b806114d581611cd5565b9150506040519150601f19601f602083010116820160405280825280600160208401853c50919050565b60608151600161150f9190611d09565b82604051602001611521929190611d1c565b6040516020818303038152906040529050919050565b73ffffffffffffffffffffffffffffffffffffffff81168114610a11575f80fd5b5f8083601f840112611568575f80fd5b50813567ffffffffffffffff81111561157f575f80fd5b602083019150836020828501011115611596575f80fd5b9250929050565b5f805f805f805f8060c0898b0312156115b4575f80fd5b88356115bf81611537565b975060208901356115cf81611537565b965060408901356115df81611537565b955060608901359450608089013567ffffffffffffffff80821115611602575f80fd5b61160e8c838d01611558565b909650945060a08b0135915080821115611626575f80fd5b506116338b828c01611558565b999c989b5096995094979396929594505050565b5f805f805f6080868803121561165b575f80fd5b853561166681611537565b9450602086013561167681611537565b935060408601359250606086013567ffffffffffffffff811115611698575f80fd5b6116a488828901611558565b969995985093965092949392505050565b7f4e487b71000000000000000000000000000000000000000000000000000000005f52604160045260245ffd5b5f82601f8301126116f1575f80fd5b813567ffffffffffffffff8082111561170c5761170c6116b5565b604051601f83017fffffffffffffffffffffffffffffffffffffffffffffffffffffffffffffffe0908116603f01168101908282118183101715611752576117526116b5565b8160405283815286602085880101111561176a575f80fd5b836020870160208301375f602085830101528094505050505092915050565b5f806040838503121561179a575f80fd5b82359150602083013567ffffffffffffffff8111156117b7575f80fd5b6117c3858286016116e2565b9150509250929050565b5f805f606084860312156117df575f80fd5b833567ffffffffffffffff8111156117f5575f80fd5b84016101608187031215611807575f80fd5b95602085013595506040909401359392505050565b5f6020828403121561182c575f80fd5b813561079581611537565b5f60208284031215611847575f80fd5b5035919050565b5f6020828403121561185e575f80fd5b813567ffffffffffffffff811115611874575f80fd5b611880848285016116e2565b949350505050565b5f8083601f840112611898575f80fd5b50813567ffffffffffffffff8111156118af575f80fd5b6020830191508360208260051b8501011115611596575f80fd5b5f805f805f805f8060a0898b0312156118e0575f80fd5b88356118eb81611537565b975060208901356118fb81611537565b9650604089013567ffffffffffffffff80821115611917575f80fd5b6119238c838d01611888565b909850965060608b013591508082111561193b575f80fd5b6119478c838d01611888565b909650945060808b0135915080821115611626575f80fd5b5f805f805f60a08688031215611973575f80fd5b853561197e81611537565b945060208601359350604086013567ffffffffffffffff8111156119a0575f80fd5b6119ac888289016116e2565b9350506060860135600281106119c0575f80fd5b949793965091946080013592915050565b5f5b838110156119eb5781810151838201526020016119d3565b50505f910152565b5f8151808452611a0a8160208601602086016119d1565b601f017fffffffffffffffffffffffffffffffffffffffffffffffffffffffffffffffe0169290920160200192915050565b602081525f61079560208301846119f3565b5f8060408385031215611a5f575f80fd5b8235611a6a81611537565b9150602083013567ffffffffffffffff8111156117b7575f80fd5b5f805f805f8060a08789031215611a9a575f80fd5b8635611aa581611537565b95506020870135611ab581611537565b94506040870135935060608701359250608087013567ffffffffffffffff811115611ade575f80fd5b611aea89828a01611558565b979a9699509497509295939492505050565b828152604060208201525f61188060408301846119f3565b5f60208284031215611b24575f80fd5b81517fffffffff0000000000000000000000000000000000000000000000000000000081168114610795575f80fd5b5f8060408385031215611b64575f80fd5b8251611b6f81611537565b6020939093015192949293505050565b5f8083357fffffffffffffffffffffffffffffffffffffffffffffffffffffffffffffffe1843603018112611bb2575f80fd5b83018035915067ffffffffffffffff821115611bcc575f80fd5b602001915036819003821315611596575f80fd5b5f60208284031215611bf0575f80fd5b815161079581611537565b7f4e487b71000000000000000000000000000000000000000000000000000000005f52601160045260245ffd5b5f7fffffffffffffffffffffffffffffffffffffffffffffffffffffffffffffffff8203611c5857611c58611bfb565b5060010190565b73ffffffffffffffffffffffffffffffffffffffff83168152604060208201525f61188060408301846119f3565b7f4e487b71000000000000000000000000000000000000000000000000000000005f52602160045260245ffd5b5f8251611ccb8184602087016119d1565b9190910192915050565b5f81611ce357611ce3611bfb565b507fffffffffffffffffffffffffffffffffffffffffffffffffffffffffffffffff0190565b8082018082111561077257610772611bfb565b7f630000000000000000000000000000000000000000000000000000000000000081527fffffffff000000000000000000000000000000000000000000000000000000008360e01b1660018201527f80600e6000396000f3000000000000000000000000000000000000000000000060058201525f600e8201525f8251611daa81600f8501602087016119d1565b91909101600f01939250505056fea264697066735822122095f8b9d54e488640bb8af3a1548faf779501856a06c519d628fea3d064487ff064736f6c63430008150033",
  "linkReferences": {},
  "deployedLinkReferences": {}
}