{
  "_format": "hh-sol-artifact-1",
  "contractName": "AgentMech",
  "sourceName": "contracts/AgentMech.sol",
  "abi": [
    {
      "inputs": [
        {
          "internalType": "address",
          "name": "_token",
          "type": "address"
        },
        {
          "internalType": "uint256",
          "name": "_tokenId",
          "type": "uint256"
        },
        {
          "internalType": "uint256",
          "name": "_price",
          "type": "uint256"
        }
      ],
      "stateMutability": "nonpayable",
      "type": "constructor"
    },
    {
      "inputs": [
        {
          "internalType": "uint256",
          "name": "agentId",
          "type": "uint256"
        }
      ],
      "name": "AgentNotFound",
      "type": "error"
    },
    {
      "inputs": [
        {
          "internalType": "uint256",
          "name": "provided",
          "type": "uint256"
        },
        {
          "internalType": "uint256",
          "name": "expected",
          "type": "uint256"
        }
      ],
      "name": "NotEnoughPaid",
      "type": "error"
    },
    {
      "inputs": [],
      "name": "ZeroAddress",
      "type": "error"
    },
    {
      "anonymous": false,
      "inputs": [
        {
          "indexed": false,
          "internalType": "uint256",
          "name": "requestId",
          "type": "uint256"
        },
        {
          "indexed": false,
          "internalType": "bytes",
          "name": "data",
          "type": "bytes"
        }
      ],
      "name": "Deliver",
      "type": "event"
    },
    {
      "anonymous": false,
      "inputs": [
        {
          "indexed": true,
          "internalType": "address",
          "name": "sender",
          "type": "address"
        },
        {
          "indexed": false,
          "internalType": "bytes32",
          "name": "taskHash",
          "type": "bytes32"
        }
      ],
      "name": "Perform",
      "type": "event"
    },
    {
      "anonymous": false,
      "inputs": [
        {
          "indexed": false,
          "internalType": "uint256",
          "name": "price",
          "type": "uint256"
        }
      ],
      "name": "PriceUpdated",
      "type": "event"
    },
    {
      "anonymous": false,
      "inputs": [
        {
          "indexed": true,
          "internalType": "address",
          "name": "sender",
          "type": "address"
        },
        {
          "indexed": false,
          "internalType": "uint256",
          "name": "requestId",
          "type": "uint256"
        },
        {
          "indexed": false,
          "internalType": "bytes",
          "name": "data",
          "type": "bytes"
        }
      ],
      "name": "Request",
      "type": "event"
    },
    {
      "inputs": [
        {
          "internalType": "uint256",
          "name": "requestId",
          "type": "uint256"
        },
        {
          "internalType": "bytes",
          "name": "data",
          "type": "bytes"
        }
      ],
      "name": "deliver",
      "outputs": [],
      "stateMutability": "nonpayable",
      "type": "function"
    },
    {
      "inputs": [],
      "name": "entryPoint",
      "outputs": [
        {
          "internalType": "contract IEntryPoint",
          "name": "",
          "type": "address"
        }
      ],
      "stateMutability": "view",
      "type": "function"
    },
    {
      "inputs": [
        {
          "internalType": "address",
          "name": "to",
          "type": "address"
        },
        {
          "internalType": "uint256",
          "name": "value",
          "type": "uint256"
        },
        {
          "internalType": "bytes",
          "name": "data",
          "type": "bytes"
        },
        {
          "internalType": "enum Enum.Operation",
          "name": "operation",
          "type": "uint8"
        },
        {
          "internalType": "uint256",
          "name": "txGas",
          "type": "uint256"
        }
      ],
      "name": "exec",
      "outputs": [
        {
          "internalType": "bytes",
          "name": "returnData",
          "type": "bytes"
        }
      ],
      "stateMutability": "nonpayable",
      "type": "function"
    },
    {
      "inputs": [
        {
          "internalType": "address",
          "name": "account",
          "type": "address"
        },
        {
          "internalType": "bytes",
          "name": "data",
          "type": "bytes"
        }
      ],
      "name": "getRequestId",
      "outputs": [
        {
          "internalType": "uint256",
          "name": "requestId",
          "type": "uint256"
        }
      ],
      "stateMutability": "pure",
      "type": "function"
    },
    {
      "inputs": [
        {
          "internalType": "address",
          "name": "account",
          "type": "address"
        }
      ],
      "name": "getRequestsCount",
      "outputs": [
        {
          "internalType": "uint256",
          "name": "requestsCount",
          "type": "uint256"
        }
      ],
      "stateMutability": "view",
      "type": "function"
    },
    {
      "inputs": [
        {
          "internalType": "address",
          "name": "signer",
          "type": "address"
        }
      ],
      "name": "isOperator",
      "outputs": [
        {
          "internalType": "bool",
          "name": "",
          "type": "bool"
        }
      ],
      "stateMutability": "view",
      "type": "function"
    },
    {
      "inputs": [
        {
          "internalType": "bytes32",
          "name": "hash",
          "type": "bytes32"
        },
        {
          "internalType": "bytes",
          "name": "signature",
          "type": "bytes"
        }
      ],
      "name": "isValidSignature",
      "outputs": [
        {
          "internalType": "bytes4",
          "name": "magicValue",
          "type": "bytes4"
        }
      ],
      "stateMutability": "view",
      "type": "function"
    },
    {
      "inputs": [
        {
          "internalType": "address",
          "name": "",
          "type": "address"
        }
      ],
      "name": "mapRequestsCounts",
      "outputs": [
        {
          "internalType": "uint256",
          "name": "",
          "type": "uint256"
        }
      ],
      "stateMutability": "view",
      "type": "function"
    },
    {
      "inputs": [],
      "name": "nonce",
      "outputs": [
        {
          "internalType": "uint256",
          "name": "",
          "type": "uint256"
        }
      ],
      "stateMutability": "view",
      "type": "function"
    },
    {
      "inputs": [
        {
          "internalType": "address",
          "name": "",
          "type": "address"
        },
        {
          "internalType": "address",
          "name": "",
          "type": "address"
        },
        {
          "internalType": "uint256[]",
          "name": "",
          "type": "uint256[]"
        },
        {
          "internalType": "uint256[]",
          "name": "",
          "type": "uint256[]"
        },
        {
          "internalType": "bytes",
          "name": "",
          "type": "bytes"
        }
      ],
      "name": "onERC1155BatchReceived",
      "outputs": [
        {
          "internalType": "bytes4",
          "name": "",
          "type": "bytes4"
        }
      ],
      "stateMutability": "pure",
      "type": "function"
    },
    {
      "inputs": [
        {
          "internalType": "address",
          "name": "",
          "type": "address"
        },
        {
          "internalType": "address",
          "name": "",
          "type": "address"
        },
        {
          "internalType": "uint256",
          "name": "",
          "type": "uint256"
        },
        {
          "internalType": "uint256",
          "name": "",
          "type": "uint256"
        },
        {
          "internalType": "bytes",
          "name": "",
          "type": "bytes"
        }
      ],
      "name": "onERC1155Received",
      "outputs": [
        {
          "internalType": "bytes4",
          "name": "",
          "type": "bytes4"
        }
      ],
      "stateMutability": "pure",
      "type": "function"
    },
    {
      "inputs": [
        {
          "internalType": "address",
          "name": "",
          "type": "address"
        },
        {
          "internalType": "address",
          "name": "",
          "type": "address"
        },
        {
          "internalType": "uint256",
          "name": "",
          "type": "uint256"
        },
        {
          "internalType": "bytes",
          "name": "",
          "type": "bytes"
        }
      ],
      "name": "onERC721Received",
      "outputs": [
        {
          "internalType": "bytes4",
          "name": "",
          "type": "bytes4"
        }
      ],
      "stateMutability": "pure",
      "type": "function"
    },
    {
      "inputs": [],
      "name": "price",
      "outputs": [
        {
          "internalType": "uint256",
          "name": "",
          "type": "uint256"
        }
      ],
      "stateMutability": "view",
      "type": "function"
    },
    {
      "inputs": [
        {
          "internalType": "bytes",
          "name": "data",
          "type": "bytes"
        }
      ],
      "name": "request",
      "outputs": [
        {
          "internalType": "uint256",
          "name": "requestId",
          "type": "uint256"
        }
      ],
      "stateMutability": "payable",
      "type": "function"
    },
    {
      "inputs": [
        {
          "internalType": "uint256",
          "name": "newPrice",
          "type": "uint256"
        }
      ],
      "name": "setPrice",
      "outputs": [],
      "stateMutability": "nonpayable",
      "type": "function"
    },
    {
      "inputs": [
        {
          "internalType": "bytes",
          "name": "initParams",
          "type": "bytes"
        }
      ],
      "name": "setUp",
      "outputs": [],
      "stateMutability": "nonpayable",
      "type": "function"
    },
    {
      "inputs": [],
      "name": "token",
      "outputs": [
        {
          "internalType": "contract IERC721",
          "name": "",
          "type": "address"
        }
      ],
      "stateMutability": "view",
      "type": "function"
    },
    {
      "inputs": [],
      "name": "tokenId",
      "outputs": [
        {
          "internalType": "uint256",
          "name": "",
          "type": "uint256"
        }
      ],
      "stateMutability": "view",
      "type": "function"
    },
    {
      "inputs": [
        {
          "internalType": "address",
          "name": "",
          "type": "address"
        },
        {
          "internalType": "address",
          "name": "",
          "type": "address"
        },
        {
          "internalType": "address",
          "name": "",
          "type": "address"
        },
        {
          "internalType": "uint256",
          "name": "",
          "type": "uint256"
        },
        {
          "internalType": "bytes",
          "name": "",
          "type": "bytes"
        },
        {
          "internalType": "bytes",
          "name": "",
          "type": "bytes"
        }
      ],
      "name": "tokensReceived",
      "outputs": [],
      "stateMutability": "pure",
      "type": "function"
    },
    {
      "inputs": [
        {
          "components": [
            {
              "internalType": "address",
              "name": "sender",
              "type": "address"
            },
            {
              "internalType": "uint256",
              "name": "nonce",
              "type": "uint256"
            },
            {
              "internalType": "bytes",
              "name": "initCode",
              "type": "bytes"
            },
            {
              "internalType": "bytes",
              "name": "callData",
              "type": "bytes"
            },
            {
              "internalType": "uint256",
              "name": "callGasLimit",
              "type": "uint256"
            },
            {
              "internalType": "uint256",
              "name": "verificationGasLimit",
              "type": "uint256"
            },
            {
              "internalType": "uint256",
              "name": "preVerificationGas",
              "type": "uint256"
            },
            {
              "internalType": "uint256",
              "name": "maxFeePerGas",
              "type": "uint256"
            },
            {
              "internalType": "uint256",
              "name": "maxPriorityFeePerGas",
              "type": "uint256"
            },
            {
              "internalType": "bytes",
              "name": "paymasterAndData",
              "type": "bytes"
            },
            {
              "internalType": "bytes",
              "name": "signature",
              "type": "bytes"
            }
          ],
          "internalType": "struct UserOperation",
          "name": "userOp",
          "type": "tuple"
        },
        {
          "internalType": "bytes32",
          "name": "userOpHash",
          "type": "bytes32"
        },
        {
          "internalType": "uint256",
          "name": "missingAccountFunds",
          "type": "uint256"
        }
      ],
      "name": "validateUserOp",
      "outputs": [
        {
          "internalType": "uint256",
          "name": "validationData",
          "type": "uint256"
        }
      ],
      "stateMutability": "nonpayable",
      "type": "function"
    },
    {
      "stateMutability": "payable",
      "type": "receive"
    }
  ],
  "bytecode": "0x60806040525f805534801562000013575f80fd5b5060405162001d3538038062001d35833981016040819052620000369162000391565b604080516001600160a01b03851660208201528082018490528151808203830181526060909101909152839083906200006f8162000145565b5050506001600160a01b0383166200009a5760405163d92e233d60e01b815260040160405180910390fd5b6040516331a9108f60e11b8152600481018390525f906001600160a01b03851690636352211e90602401602060405180830381865afa158015620000e0573d5f803e3d5ffd5b505050506040513d601f19601f82011682018060405250810190620001069190620003c6565b90506001600160a01b0381166200013857604051630ede975960e01b8152600481018490526024015b60405180910390fd5b50600155506200049a9050565b6200014f620001ad565b51156200019f5760405162461bcd60e51b815260206004820152601360248201527f416c726561647920696e697469616c697a65640000000000000000000000000060448201526064016200012f565b620001aa8162000218565b50565b6060620002136200020d604051606b60f91b6020820152602560fa1b60218201526001600160601b03193060601b166022820152600160f81b60368201525f90603701604051602081830303815290604052805190602001205f1c905090565b620002e1565b905090565b5f620002248262000339565b90505f8151602083015ff090506200028b604051606b60f91b6020820152602560fa1b60218201526001600160601b03193060601b166022820152600160f81b60368201525f90603701604051602081830303815290604052805190602001205f1c905090565b6001600160a01b0316816001600160a01b031614620002dc5760405162461bcd60e51b815260206004820152600c60248201526b15dc9a5d194819985a5b195960a21b60448201526064016200012f565b505050565b6060813b600181116200030357505060408051602081019091525f8152919050565b806200030f81620003fd565b9150506040519150601f19601f602083010116820160405280825280600160208401853c50919050565b6060815160016200034b919062000415565b826040516020016200035f92919062000431565b6040516020818303038152906040529050919050565b80516001600160a01b03811681146200038c575f80fd5b919050565b5f805f60608486031215620003a4575f80fd5b620003af8462000375565b925060208401519150604084015190509250925092565b5f60208284031215620003d7575f80fd5b620003e28262000375565b9392505050565b634e487b7160e01b5f52601160045260245ffd5b5f816200040e576200040e620003e9565b505f190190565b808201808211156200042b576200042b620003e9565b92915050565b606360f81b815260e083901b6001600160e01b03191660018201526880600e6000396000f360b81b60058201525f600e82018190528251815b8181101562000489576020818601810151600f8684010152016200046a565b505f9201600f019182525092915050565b61188d80620004a85f395ff3fe608060405260043610610159575f3560e01c8063a035b1fe116100bb578063bc197c8111610071578063e00b911811610057578063e00b9118146103ed578063f23a6e611461040c578063fc0c546a14610438575f80fd5b8063bc197c8114610393578063c7dec3fc146103c1575f80fd5b8063affed0e0116100a1578063affed0e014610333578063b0d691fe14610346578063b94207d314610380575f80fd5b8063a035b1fe146102ff578063a4f9edbf14610314575f80fd5b80633a871cdd116101105780636d70f7ae116100f65780636d70f7ae1461027d5780637af73473146102ac57806391b7f5ed146102e0575f80fd5b80633a871cdd146102335780635fee608514610252575f80fd5b8063157305fe11610140578063157305fe146101d35780631626ba7e146101f257806317d70f7c14610211575f80fd5b806223de2914610164578063150b7a021461018a575f80fd5b3661016057005b5f80fd5b34801561016f575f80fd5b5061018861017e366004611179565b5050505050505050565b005b348015610195575f80fd5b506101b56101a4366004611223565b630a85bd0160e11b95945050505050565b6040516001600160e01b031990911681526020015b60405180910390f35b3480156101de575f80fd5b506101886101ed36600461132e565b61044c565b3480156101fd575f80fd5b506101b561020c36600461132e565b610527565b34801561021c575f80fd5b5061022561064e565b6040519081526020016101ca565b34801561023e575f80fd5b5061022561024d366004611372565b610672565b34801561025d575f80fd5b5061022561026c3660046113c1565b60026020525f908152604090205481565b348015610288575f80fd5b5061029c6102973660046113c1565b6106ae565b60405190151581526020016101ca565b3480156102b7575f80fd5b506102256102c63660046113c1565b6001600160a01b03165f9081526002602052604090205490565b3480156102eb575f80fd5b506101886102fa3660046113dc565b610759565b34801561030a575f80fd5b5061022560015481565b34801561031f575f80fd5b5061018861032e3660046113f3565b61082d565b34801561033e575f80fd5b505f54610225565b348015610351575f80fd5b50730576a174d229e3cfa37253523e645a78a0c91b575b6040516001600160a01b0390911681526020016101ca565b61022561038e3660046113f3565b61088f565b34801561039e575f80fd5b506101b56103ad36600461146e565b63bc197c8160e01b98975050505050505050565b3480156103cc575f80fd5b506103e06103db366004611504565b610934565b6040516101ca91906115c3565b3480156103f8575f80fd5b506102256104073660046115d5565b610a04565b348015610417575f80fd5b506101b561042636600461160c565b63f23a6e6160e01b9695505050505050565b348015610443575f80fd5b50610368610a37565b610455336106ae565b80610473575033730576a174d229e3cfa37253523e645a78a0c91b57145b6104ea5760405162461bcd60e51b815260206004820152603e60248201527f4f6e6c792063616c6c61626c6520627920746865206d656368206f706572617460448201527f6f72206f722074686520656e74727920706f696e7420636f6e7472616374000060648201526084015b60405180910390fd5b7f3ec84da2cdc1ce60c063642b69ff2e65f3b69787a2b90443457ba274e51e7c72828260405161051b929190611683565b60405180910390a15050565b5f805f8061054785602081015160408201516060909201515f1a92909190565b9094509250905060ff81165f036106125782858301602001610568826106ae565b15801561057e57506001600160a01b0382163014155b1561059957506001600160e01b031994506106489350505050565b604051630b135d3f60e11b81526001600160a01b03831690631626ba7e906105c7908b908590600401611683565b602060405180830381865afa1580156105e2573d5f803e3d5ffd5b505050506040513d601f19601f82011682018060405250810190610606919061169b565b95505050505050610648565b61062161029787838686610a54565b156106395750630b135d3f60e11b9250610648915050565b506001600160e01b0319925050505b92915050565b5f80610658610a70565b80602001905181019061066b91906116c2565b9392505050565b5f61067b610add565b6106858484610b42565b905061069460408501856116ee565b90505f036106a5576106a584610c11565b61066b82610c75565b5f805f6106b9610a70565b8060200190518101906106cc91906116c2565b91509150836001600160a01b0316826001600160a01b0316636352211e836040518263ffffffff1660e01b815260040161070891815260200190565b602060405180830381865afa158015610723573d5f803e3d5ffd5b505050506040513d601f19601f820116820180604052508101906107479190611731565b6001600160a01b031614949350505050565b610762336106ae565b80610780575033730576a174d229e3cfa37253523e645a78a0c91b57145b6107f25760405162461bcd60e51b815260206004820152603e60248201527f4f6e6c792063616c6c61626c6520627920746865206d656368206f706572617460448201527f6f72206f722074686520656e74727920706f696e7420636f6e7472616374000060648201526084016104e1565b60018190556040518181527f66cbca4f3c64fecf1dcb9ce094abcf7f68c3450a1d4e3a8e917dd621edb4ebe09060200160405180910390a150565b610835610a70565b51156108835760405162461bcd60e51b815260206004820152601360248201527f416c726561647920696e697469616c697a65640000000000000000000000000060448201526064016104e1565b61088c81610cca565b50565b5f6001543410156108c0576001546040516316912f0560e31b815234600482015260248101919091526044016104e1565b6108ca3383610a04565b335f9081526002602052604081208054929350906108e783611760565b9190505550336001600160a01b03167f4bda649efe6b98b0f9c1d5e859c29e20910f45c66dabfe6fad4a4881f7faf9cc8284604051610927929190611683565b60405180910390a2919050565b606061093f336106ae565b8061095d575033730576a174d229e3cfa37253523e645a78a0c91b57145b6109cf5760405162461bcd60e51b815260206004820152603e60248201527f4f6e6c792063616c6c61626c6520627920746865206d656368206f706572617460448201527f6f72206f722074686520656e74727920706f696e7420636f6e7472616374000060648201526084016104e1565b5f6109e98787878787156109e35787610da4565b5a610da4565b92509050806109fa57815160208301fd5b5095945050505050565b5f8282604051602001610a18929190611778565b60408051601f1981840301815291905280516020909101209392505050565b5f80610a41610a70565b8060200190518101906106489190611731565b5f805f610a6387878787610e8d565b915091506109fa81610f4a565b6060610ad8610ad3604051606b60f91b6020820152602560fa1b60218201526bffffffffffffffffffffffff193060601b166022820152600160f81b60368201525f90603701604051602081830303815290604052805190602001205f1c905090565b611093565b905090565b33730576a174d229e3cfa37253523e645a78a0c91b5714610b405760405162461bcd60e51b815260206004820152601c60248201527f6163636f756e743a206e6f742066726f6d20456e747279506f696e740000000060448201526064016104e1565b565b5f80610b9a836040517f19457468657265756d205369676e6564204d6573736167653a0a3332000000006020820152603c81018290525f90605c01604051602081830303815290604052805190602001209050919050565b9050630b135d3f60e11b610bef82610bb66101408801886116ee565b8080601f0160208091040260200160405190810160405280939291908181526020018383808284375f9201919091525061052792505050565b6001600160e01b03191614610c08576001915050610648565b505f9392505050565b5f805460208301359180610c2483611760565b919050551461088c5760405162461bcd60e51b815260206004820152600d60248201527f496e76616c6964206e6f6e63650000000000000000000000000000000000000060448201526064016104e1565b801561088c576040515f9033905f1990849084818181858888f193505050503d805f8114610cbe576040519150601f19603f3d011682016040523d82523d5f602084013e610cc3565b606091505b5050505050565b5f610cd4826110e8565b90505f8151602083015ff09050610d3f604051606b60f91b6020820152602560fa1b60218201526bffffffffffffffffffffffff193060601b166022820152600160f81b60368201525f90603701604051602081830303815290604052805190602001205f1c905090565b6001600160a01b0316816001600160a01b031614610d9f5760405162461bcd60e51b815260206004820152600c60248201527f5772697465206661696c6564000000000000000000000000000000000000000060448201526064016104e1565b505050565b5f60606001846001811115610dbb57610dbb611799565b03610e2257866001600160a01b03168386604051610dd991906117ad565b5f604051808303818686f4925050503d805f8114610e12576040519150601f19603f3d011682016040523d82523d5f602084013e610e17565b606091505b509092509050610e83565b866001600160a01b0316838787604051610e3c91906117ad565b5f60405180830381858888f193505050503d805f8114610e77576040519150601f19603f3d011682016040523d82523d5f602084013e610e7c565b606091505b5090925090505b9550959350505050565b5f807f7fffffffffffffffffffffffffffffff5d576e7357a4501ddfe92f46681b20a0831115610ec257505f90506003610f41565b604080515f8082526020820180845289905260ff881692820192909252606081018690526080810185905260019060a0016020604051602081039080840390855afa158015610f13573d5f803e3d5ffd5b5050604051601f1901519150506001600160a01b038116610f3b575f60019250925050610f41565b91505f90505b94509492505050565b5f816004811115610f5d57610f5d611799565b03610f655750565b6001816004811115610f7957610f79611799565b03610fc65760405162461bcd60e51b815260206004820152601860248201527f45434453413a20696e76616c6964207369676e6174757265000000000000000060448201526064016104e1565b6002816004811115610fda57610fda611799565b036110275760405162461bcd60e51b815260206004820152601f60248201527f45434453413a20696e76616c6964207369676e6174757265206c656e6774680060448201526064016104e1565b600381600481111561103b5761103b611799565b0361088c5760405162461bcd60e51b815260206004820152602260248201527f45434453413a20696e76616c6964207369676e6174757265202773272076616c604482015261756560f01b60648201526084016104e1565b6060813b600181116110b457505060408051602081019091525f8152919050565b806110be816117c8565b9150506040519150601f19601f602083010116820160405280825280600160208401853c50919050565b6060815160016110f891906117dd565b8260405160200161110a9291906117f0565b6040516020818303038152906040529050919050565b6001600160a01b038116811461088c575f80fd5b5f8083601f840112611144575f80fd5b50813567ffffffffffffffff81111561115b575f80fd5b602083019150836020828501011115611172575f80fd5b9250929050565b5f805f805f805f8060c0898b031215611190575f80fd5b883561119b81611120565b975060208901356111ab81611120565b965060408901356111bb81611120565b955060608901359450608089013567ffffffffffffffff808211156111de575f80fd5b6111ea8c838d01611134565b909650945060a08b0135915080821115611202575f80fd5b5061120f8b828c01611134565b999c989b5096995094979396929594505050565b5f805f805f60808688031215611237575f80fd5b853561124281611120565b9450602086013561125281611120565b935060408601359250606086013567ffffffffffffffff811115611274575f80fd5b61128088828901611134565b969995985093965092949392505050565b634e487b7160e01b5f52604160045260245ffd5b5f82601f8301126112b4575f80fd5b813567ffffffffffffffff808211156112cf576112cf611291565b604051601f8301601f19908116603f011681019082821181831017156112f7576112f7611291565b8160405283815286602085880101111561130f575f80fd5b836020870160208301375f602085830101528094505050505092915050565b5f806040838503121561133f575f80fd5b82359150602083013567ffffffffffffffff81111561135c575f80fd5b611368858286016112a5565b9150509250929050565b5f805f60608486031215611384575f80fd5b833567ffffffffffffffff81111561139a575f80fd5b840161016081870312156113ac575f80fd5b95602085013595506040909401359392505050565b5f602082840312156113d1575f80fd5b813561066b81611120565b5f602082840312156113ec575f80fd5b5035919050565b5f60208284031215611403575f80fd5b813567ffffffffffffffff811115611419575f80fd5b611425848285016112a5565b949350505050565b5f8083601f84011261143d575f80fd5b50813567ffffffffffffffff811115611454575f80fd5b6020830191508360208260051b8501011115611172575f80fd5b5f805f805f805f8060a0898b031215611485575f80fd5b883561149081611120565b975060208901356114a081611120565b9650604089013567ffffffffffffffff808211156114bc575f80fd5b6114c88c838d0161142d565b909850965060608b01359150808211156114e0575f80fd5b6114ec8c838d0161142d565b909650945060808b0135915080821115611202575f80fd5b5f805f805f60a08688031215611518575f80fd5b853561152381611120565b945060208601359350604086013567ffffffffffffffff811115611545575f80fd5b611551888289016112a5565b935050606086013560028110611565575f80fd5b949793965091946080013592915050565b5f5b83811015611590578181015183820152602001611578565b50505f910152565b5f81518084526115af816020860160208601611576565b601f01601f19169290920160200192915050565b602081525f61066b6020830184611598565b5f80604083850312156115e6575f80fd5b82356115f181611120565b9150602083013567ffffffffffffffff81111561135c575f80fd5b5f805f805f8060a08789031215611621575f80fd5b863561162c81611120565b9550602087013561163c81611120565b94506040870135935060608701359250608087013567ffffffffffffffff811115611665575f80fd5b61167189828a01611134565b979a9699509497509295939492505050565b828152604060208201525f6114256040830184611598565b5f602082840312156116ab575f80fd5b81516001600160e01b03198116811461066b575f80fd5b5f80604083850312156116d3575f80fd5b82516116de81611120565b6020939093015192949293505050565b5f808335601e19843603018112611703575f80fd5b83018035915067ffffffffffffffff82111561171d575f80fd5b602001915036819003821315611172575f80fd5b5f60208284031215611741575f80fd5b815161066b81611120565b634e487b7160e01b5f52601160045260245ffd5b5f600182016117715761177161174c565b5060010190565b6001600160a01b0383168152604060208201525f6114256040830184611598565b634e487b7160e01b5f52602160045260245ffd5b5f82516117be818460208701611576565b9190910192915050565b5f816117d6576117d661174c565b505f190190565b808201808211156106485761064861174c565b606360f81b815263ffffffff60e01b8360e01b1660018201527f80600e6000396000f3000000000000000000000000000000000000000000000060058201525f600e8201525f825161184981600f850160208701611576565b91909101600f01939250505056fea26469706673582212207b5c549a315195b544af85392e545db5a2af7fecb2db42b2fa37291bb22f367f64736f6c63430008150033",
  "linkReferences": {},
  "deployedLinkReferences": {}
}