{
  "_format": "hh-sol-artifact-1",
  "contractName": "AgentFactory",
  "sourceName": "contracts/AgentFactory.sol",
  "abi": [
    {
      "inputs": [
        {
          "internalType": "address",
          "name": "_agentRegistry",
          "type": "address"
        }
      ],
      "stateMutability": "nonpayable",
      "type": "constructor"
    },
    {
      "inputs": [
        {
          "internalType": "address",
          "name": "operator",
          "type": "address"
        }
      ],
      "name": "AgentInstanceRegistered",
      "type": "error"
    },
    {
      "inputs": [
        {
          "internalType": "uint256",
          "name": "serviceId",
          "type": "uint256"
        }
      ],
      "name": "AgentInstancesSlotsFilled",
      "type": "error"
    },
    {
      "inputs": [
        {
          "internalType": "uint256",
          "name": "agentId",
          "type": "uint256"
        }
      ],
      "name": "AgentNotFound",
      "type": "error"
    },
    {
      "inputs": [
        {
          "internalType": "uint256",
          "name": "agentId",
          "type": "uint256"
        },
        {
          "internalType": "uint256",
          "name": "serviceId",
          "type": "uint256"
        }
      ],
      "name": "AgentNotInService",
      "type": "error"
    },
    {
      "inputs": [
        {
          "internalType": "uint256",
          "name": "componentId",
          "type": "uint256"
        }
      ],
      "name": "ComponentNotFound",
      "type": "error"
    },
    {
      "inputs": [],
      "name": "HashExists",
      "type": "error"
    },
    {
      "inputs": [
        {
          "internalType": "uint256",
          "name": "sent",
          "type": "uint256"
        },
        {
          "internalType": "uint256",
          "name": "expected",
          "type": "uint256"
        },
        {
          "internalType": "uint256",
          "name": "serviceId",
          "type": "uint256"
        }
      ],
      "name": "IncorrectAgentBondingValue",
      "type": "error"
    },
    {
      "inputs": [
        {
          "internalType": "uint256",
          "name": "sent",
          "type": "uint256"
        },
        {
          "internalType": "uint256",
          "name": "expected",
          "type": "uint256"
        },
        {
          "internalType": "uint256",
          "name": "serviceId",
          "type": "uint256"
        }
      ],
      "name": "IncorrectRegistrationDepositValue",
      "type": "error"
    },
    {
      "inputs": [
        {
          "internalType": "address",
          "name": "sender",
          "type": "address"
        },
        {
          "internalType": "address",
          "name": "manager",
          "type": "address"
        }
      ],
      "name": "ManagerOnly",
      "type": "error"
    },
    {
      "inputs": [
        {
          "internalType": "address",
          "name": "provided",
          "type": "address"
        },
        {
          "internalType": "address",
          "name": "expected",
          "type": "address"
        },
        {
          "internalType": "uint256",
          "name": "serviceId",
          "type": "uint256"
        }
      ],
      "name": "OnlyOwnServiceMultisig",
      "type": "error"
    },
    {
      "inputs": [
        {
          "internalType": "address",
          "name": "operator",
          "type": "address"
        },
        {
          "internalType": "uint256",
          "name": "serviceId",
          "type": "uint256"
        }
      ],
      "name": "OperatorHasNoInstances",
      "type": "error"
    },
    {
      "inputs": [
        {
          "internalType": "uint256",
          "name": "provided",
          "type": "uint256"
        },
        {
          "internalType": "uint256",
          "name": "max",
          "type": "uint256"
        }
      ],
      "name": "Overflow",
      "type": "error"
    },
    {
      "inputs": [
        {
          "internalType": "address",
          "name": "sender",
          "type": "address"
        },
        {
          "internalType": "address",
          "name": "owner",
          "type": "address"
        }
      ],
      "name": "OwnerOnly",
      "type": "error"
    },
    {
      "inputs": [],
      "name": "Paused",
      "type": "error"
    },
    {
      "inputs": [],
      "name": "ReentrancyGuard",
      "type": "error"
    },
    {
      "inputs": [
        {
          "internalType": "uint256",
          "name": "serviceId",
          "type": "uint256"
        }
      ],
      "name": "ServiceMustBeInactive",
      "type": "error"
    },
    {
      "inputs": [
        {
          "internalType": "address",
          "name": "token",
          "type": "address"
        },
        {
          "internalType": "address",
          "name": "from",
          "type": "address"
        },
        {
          "internalType": "address",
          "name": "to",
          "type": "address"
        },
        {
          "internalType": "uint256",
          "name": "value",
          "type": "uint256"
        }
      ],
      "name": "TransferFailed",
      "type": "error"
    },
    {
      "inputs": [
        {
          "internalType": "address",
          "name": "multisig",
          "type": "address"
        }
      ],
      "name": "UnauthorizedMultisig",
      "type": "error"
    },
    {
      "inputs": [
        {
          "internalType": "uint256",
          "name": "agentId",
          "type": "uint256"
        }
      ],
      "name": "WrongAgentId",
      "type": "error"
    },
    {
      "inputs": [
        {
          "internalType": "uint256",
          "name": "numValues1",
          "type": "uint256"
        },
        {
          "internalType": "uint256",
          "name": "numValues2",
          "type": "uint256"
        }
      ],
      "name": "WrongArrayLength",
      "type": "error"
    },
    {
      "inputs": [
        {
          "internalType": "uint256",
          "name": "serviceId",
          "type": "uint256"
        }
      ],
      "name": "WrongOperator",
      "type": "error"
    },
    {
      "inputs": [
        {
          "internalType": "uint256",
          "name": "state",
          "type": "uint256"
        },
        {
          "internalType": "uint256",
          "name": "serviceId",
          "type": "uint256"
        }
      ],
      "name": "WrongServiceState",
      "type": "error"
    },
    {
      "inputs": [
        {
          "internalType": "uint256",
          "name": "currentThreshold",
          "type": "uint256"
        },
        {
          "internalType": "uint256",
          "name": "minThreshold",
          "type": "uint256"
        },
        {
          "internalType": "uint256",
          "name": "maxThreshold",
          "type": "uint256"
        }
      ],
      "name": "WrongThreshold",
      "type": "error"
    },
    {
      "inputs": [],
      "name": "ZeroAddress",
      "type": "error"
    },
    {
      "inputs": [],
      "name": "ZeroValue",
      "type": "error"
    },
    {
      "anonymous": false,
      "inputs": [
        {
          "indexed": true,
          "internalType": "address",
          "name": "mech",
          "type": "address"
        },
        {
          "indexed": true,
          "internalType": "uint256",
          "name": "agentId",
          "type": "uint256"
        },
        {
          "indexed": true,
          "internalType": "uint256",
          "name": "price",
          "type": "uint256"
        }
      ],
      "name": "CreateMech",
      "type": "event"
    },
    {
      "anonymous": false,
      "inputs": [
        {
          "indexed": true,
          "internalType": "address",
          "name": "owner",
          "type": "address"
        }
      ],
      "name": "OwnerUpdated",
      "type": "event"
    },
    {
      "anonymous": false,
      "inputs": [
        {
          "indexed": true,
          "internalType": "address",
          "name": "owner",
          "type": "address"
        }
      ],
      "name": "Pause",
      "type": "event"
    },
    {
      "anonymous": false,
      "inputs": [
        {
          "indexed": true,
          "internalType": "address",
          "name": "owner",
          "type": "address"
        }
      ],
      "name": "Unpause",
      "type": "event"
    },
    {
      "inputs": [],
      "name": "VERSION",
      "outputs": [
        {
          "internalType": "string",
          "name": "",
          "type": "string"
        }
      ],
      "stateMutability": "view",
      "type": "function"
    },
    {
      "inputs": [],
      "name": "agentRegistry",
      "outputs": [
        {
          "internalType": "address",
          "name": "",
          "type": "address"
        }
      ],
      "stateMutability": "view",
      "type": "function"
    },
    {
      "inputs": [
        {
          "internalType": "address",
          "name": "newOwner",
          "type": "address"
        }
      ],
      "name": "changeOwner",
      "outputs": [],
      "stateMutability": "nonpayable",
      "type": "function"
    },
    {
      "inputs": [
        {
          "internalType": "address",
          "name": "agentOwner",
          "type": "address"
        },
        {
          "internalType": "bytes32",
          "name": "agentHash",
          "type": "bytes32"
        },
        {
          "internalType": "uint256",
          "name": "price",
          "type": "uint256"
        }
      ],
      "name": "create",
      "outputs": [
        {
          "internalType": "uint256",
          "name": "agentId",
          "type": "uint256"
        },
        {
          "internalType": "address",
          "name": "mech",
          "type": "address"
        }
      ],
      "stateMutability": "nonpayable",
      "type": "function"
    },
    {
      "inputs": [],
      "name": "owner",
      "outputs": [
        {
          "internalType": "address",
          "name": "",
          "type": "address"
        }
      ],
      "stateMutability": "view",
      "type": "function"
    },
    {
      "inputs": [],
      "name": "pause",
      "outputs": [],
      "stateMutability": "nonpayable",
      "type": "function"
    },
    {
      "inputs": [],
      "name": "paused",
      "outputs": [
        {
          "internalType": "bool",
          "name": "",
          "type": "bool"
        }
      ],
      "stateMutability": "view",
      "type": "function"
    },
    {
      "inputs": [],
      "name": "unpause",
      "outputs": [],
      "stateMutability": "nonpayable",
      "type": "function"
    }
  ],
  "bytecode": "0x60a060405234801561000f575f80fd5b506040516138b53803806138b583398101604081905261002e91610050565b6001600160a01b03166080525f80546001600160a01b0319163317905561007d565b5f60208284031215610060575f80fd5b81516001600160a01b0381168114610076575f80fd5b9392505050565b6080516138136100a25f395f8181609a0152818161043e01526104f801526138135ff3fe608060405234801562000010575f80fd5b506004361062000090575f3560e01c80638da5cb5b116200005f5780638da5cb5b14620001325780638f9ade5e1462000152578063a6f9dae11462000194578063ffa1ad7414620001ab575f80fd5b80630d1cfcae14620000945780633f4ba83a14620000e65780635c975abb14620000f25780638456cb591462000128575b5f80fd5b620000bc7f000000000000000000000000000000000000000000000000000000000000000081565b60405173ffffffffffffffffffffffffffffffffffffffff90911681526020015b60405180910390f35b620000f0620001f7565b005b5f54620001179074010000000000000000000000000000000000000000900460ff1681565b6040519015158152602001620000dd565b620000f0620002bf565b5f54620000bc9073ffffffffffffffffffffffffffffffffffffffff1681565b620001696200016336600462000738565b6200039a565b6040805192835273ffffffffffffffffffffffffffffffffffffffff909116602083015201620000dd565b620000f0620001a53660046200076b565b6200056f565b620001e86040518060400160405280600581526020017f312e302e3000000000000000000000000000000000000000000000000000000081525081565b604051620000dd91906200078e565b5f5473ffffffffffffffffffffffffffffffffffffffff1633146200026e575f546040517fa43d6ada00000000000000000000000000000000000000000000000000000000815233600482015273ffffffffffffffffffffffffffffffffffffffff90911660248201526044015b60405180910390fd5b5f80547fffffffffffffffffffffff00ffffffffffffffffffffffffffffffffffffffff16815560405133917faeb196d352664784d1900b0e7414a8face7d29f4dae8c4b0cf68ed477423bbf491a2565b5f5473ffffffffffffffffffffffffffffffffffffffff16331462000332575f546040517fa43d6ada00000000000000000000000000000000000000000000000000000000815233600482015273ffffffffffffffffffffffffffffffffffffffff909116602482015260440162000265565b5f80547fffffffffffffffffffffff00ffffffffffffffffffffffffffffffffffffffff167401000000000000000000000000000000000000000017815560405133917f5ee71a369c8672edded508e624ffc9257fa1ae6886ef32905c18e60196bca39991a2565b5f8054819074010000000000000000000000000000000000000000900460ff1615620003f2576040517f9e87fac800000000000000000000000000000000000000000000000000000000815260040160405180910390fd5b6040517fa3def92300000000000000000000000000000000000000000000000000000000815273ffffffffffffffffffffffffffffffffffffffff8681166004830152602482018690527f0000000000000000000000000000000000000000000000000000000000000000169063a3def923906044016020604051808303815f875af115801562000485573d5f803e3d5ffd5b505050506040513d601f19601f82011682018060405250810190620004ab9190620007f9565b6040805173ffffffffffffffffffffffffffffffffffffffff881660208201529081018290529092505f906060016040516020818303038152906040528051906020012090506200051f817f000000000000000000000000000000000000000000000000000000000000000085876200069c565b915083838373ffffffffffffffffffffffffffffffffffffffff167f67a2e45041c70013518c5b9b849a6944a6c17ff44d66be1c707020460ecbd1db60405160405180910390a450935093915050565b5f5473ffffffffffffffffffffffffffffffffffffffff163314620005e2575f546040517fa43d6ada00000000000000000000000000000000000000000000000000000000815233600482015273ffffffffffffffffffffffffffffffffffffffff909116602482015260440162000265565b73ffffffffffffffffffffffffffffffffffffffff811662000630576040517fd92e233d00000000000000000000000000000000000000000000000000000000815260040160405180910390fd5b5f80547fffffffffffffffffffffffff00000000000000000000000000000000000000001673ffffffffffffffffffffffffffffffffffffffff8316908117825560405190917f4ffd725fc4a22075e9ec71c59edf9c38cdeb588a91b24fc5b61388c5be41282b91a250565b5f84848484604051620006af9062000701565b73ffffffffffffffffffffffffffffffffffffffff9093168352602083019190915260408201526060018190604051809103905ff5905080158015620006f7573d5f803e3d5ffd5b5095945050505050565b612fcc806200081283390190565b803573ffffffffffffffffffffffffffffffffffffffff8116811462000733575f80fd5b919050565b5f805f606084860312156200074b575f80fd5b62000756846200070f565b95602085013595506040909401359392505050565b5f602082840312156200077c575f80fd5b62000787826200070f565b9392505050565b5f6020808352835180828501525f5b81811015620007bb578581018301518582016040015282016200079d565b505f6040828601015260407fffffffffffffffffffffffffffffffffffffffffffffffffffffffffffffffe0601f8301168501019250505092915050565b5f602082840312156200080a575f80fd5b505191905056fe60c06040525f805534801562000013575f80fd5b5060405162002fcc38038062002fcc83398101604081905262000036916200046f565b604080516001600160a01b03851660208201528082018490528151808203830181526060909101909152839083906200006f8162000159565b5050506001600160a01b0383166200009a5760405163d92e233d60e01b815260040160405180910390fd5b6040516331a9108f60e11b8152600481018390525f906001600160a01b03851690636352211e90602401602060405180830381865afa158015620000e0573d5f803e3d5ffd5b505050506040513d601f19601f82011682018060405250810190620001069190620004a4565b90506001600160a01b0381166200013857604051630ede975960e01b8152600481018490526024015b60405180910390fd5b60018290554660a0526200014b620001c1565b60805250620005bf92505050565b620001636200028b565b5115620001b35760405162461bcd60e51b815260206004820152601360248201527f416c726561647920696e697469616c697a65640000000000000000000000000060448201526064016200012f565b620001be81620002f6565b50565b5f7f8b73c3c69bb8fe3d512ecc4cf759cc79239f7b179b0ffacaa9a75d522b39400f7f493aeac1d921aa02a044029e7fe4be43b1a4e80b40706fa5819e8fbb0d093525604051806040016040528060058152602001640312e302e360dc1b815250604051602001620002349190620004eb565b60408051601f1981840301815282825280516020918201209083019490945281019190915260608101919091524660808201523060a082015260c00160405160208183030381529060405280519060200120905090565b6060620002f1620002eb604051606b60f91b6020820152602560fa1b60218201526001600160601b03193060601b166022820152600160f81b60368201525f90603701604051602081830303815290604052805190602001205f1c905090565b620003bf565b905090565b5f620003028262000417565b90505f8151602083015ff0905062000369604051606b60f91b6020820152602560fa1b60218201526001600160601b03193060601b166022820152600160f81b60368201525f90603701604051602081830303815290604052805190602001205f1c905090565b6001600160a01b0316816001600160a01b031614620003ba5760405162461bcd60e51b815260206004820152600c60248201526b15dc9a5d194819985a5b195960a21b60448201526064016200012f565b505050565b6060813b60018111620003e157505060408051602081019091525f8152919050565b80620003ed8162000533565b9150506040519150601f19601f602083010116820160405280825280600160208401853c50919050565b6060815160016200042991906200054b565b826040516020016200043d92919062000567565b6040516020818303038152906040529050919050565b80516001600160a01b03811681146200046a575f80fd5b919050565b5f805f6060848603121562000482575f80fd5b6200048d8462000453565b925060208401519150604084015190509250925092565b5f60208284031215620004b5575f80fd5b620004c08262000453565b9392505050565b5f5b83811015620004e3578181015183820152602001620004c9565b50505f910152565b602081525f82518060208401526200050b816040850160208701620004c7565b601f01601f19169190910160400192915050565b634e487b7160e01b5f52601160045260245ffd5b5f816200054457620005446200051f565b505f190190565b808201808211156200056157620005616200051f565b92915050565b606360f81b815260e083901b6001600160e01b03191660018201526880600e6000396000f360b81b60058201525f600e82018190528251620005b181600f850160208701620004c7565b91909101600f019392505050565b60805160a0516129dd620005ef5f395f8181610453015261115601525f8181610726015261118b01526129dd5ff3fe608060405260043610610211575f3560e01c8063b94207d311610117578063ed24911d116100ac578063f698da251161007c578063fc0c546a11610062578063fc0c546a14610767578063fe266bb91461077b578063ffa1ad741461079a575f80fd5b8063f698da2514610715578063fba5c56b14610748575f80fd5b8063ed24911d1461066a578063f23a6e611461067e578063f5dcb7bb146106c3578063f6171e44146106f6575f80fd5b8063cbd6407a116100e7578063cbd6407a146105b3578063d843b7f4146105de578063d8a4676f1461061f578063e00b91181461064b575f80fd5b8063b94207d314610503578063bc197c811461052b578063bdf8631714610572578063c7dec3fc14610587575f80fd5b80636d70f7ae116101a75780639a8a059211610177578063a4f9edbf1161015d578063a4f9edbf1461048a578063affed0e0146104a9578063b0d691fe146104bc575f80fd5b80639a8a059214610442578063a035b1fe14610475575f80fd5b80636d70f7ae146103885780637af73473146103b757806391b7f5ed146103f8578063982c0db314610417575f80fd5b80633a871cdd116101e25780633a871cdd146102fd5780634ada3e611461031c57806358ce0909146103315780635fee60851461035d575f80fd5b806223de291461021c578063150b7a02146102425780631626ba7e146102bc57806317d70f7c146102db575f80fd5b3661021857005b5f80fd5b348015610227575f80fd5b50610240610236366004611fb7565b5050505050505050565b005b34801561024d575f80fd5b5061028661025c366004612061565b7f150b7a020000000000000000000000000000000000000000000000000000000095945050505050565b6040517fffffffff0000000000000000000000000000000000000000000000000000000090911681526020015b60405180910390f35b3480156102c7575f80fd5b506102866102d63660046121a3565b6107e2565b3480156102e6575f80fd5b506102ef610985565b6040519081526020016102b3565b348015610308575f80fd5b506102ef6103173660046121e7565b6109a9565b348015610327575f80fd5b506102ef60035481565b34801561033c575f80fd5b5061035061034b366004612236565b6109e5565b6040516102b39190612256565b348015610368575f80fd5b506102ef610377366004612299565b60046020525f908152604090205481565b348015610393575f80fd5b506103a76103a2366004612299565b610b50565b60405190151581526020016102b3565b3480156103c2575f80fd5b506102ef6103d1366004612299565b73ffffffffffffffffffffffffffffffffffffffff165f9081526004602052604090205490565b348015610403575f80fd5b506102406104123660046122b4565b610c22565b348015610422575f80fd5b506102ef610431366004612299565b60056020525f908152604090205481565b34801561044d575f80fd5b506102ef7f000000000000000000000000000000000000000000000000000000000000000081565b348015610480575f80fd5b506102ef60015481565b348015610495575f80fd5b506102406104a43660046122cb565b610d10565b3480156104b4575f80fd5b505f546102ef565b3480156104c7575f80fd5b50730576a174d229e3cfa37253523e645a78a0c91b575b60405173ffffffffffffffffffffffffffffffffffffffff90911681526020016102b3565b6105166105113660046122cb565b610d8c565b604080519283526020830191909152016102b3565b348015610536575f80fd5b50610286610545366004612346565b7fbc197c810000000000000000000000000000000000000000000000000000000098975050505050505050565b34801561057d575f80fd5b506102ef60025481565b348015610592575f80fd5b506105a66105a13660046123dc565b610f42565b6040516102b391906124b9565b3480156105be575f80fd5b506102ef6105cd366004612299565b60086020525f908152604090205481565b3480156105e9575f80fd5b506104de6105f83660046122b4565b60076020525f908152604090205473ffffffffffffffffffffffffffffffffffffffff1681565b34801561062a575f80fd5b5061063e6106393660046122b4565b61102c565b6040516102b391906124f8565b348015610656575f80fd5b506102ef610665366004612537565b611102565b348015610675575f80fd5b506102ef611153565b348015610689575f80fd5b5061028661069836600461256e565b7ff23a6e61000000000000000000000000000000000000000000000000000000009695505050505050565b3480156106ce575f80fd5b506102ef7f8b73c3c69bb8fe3d512ecc4cf759cc79239f7b179b0ffacaa9a75d522b39400f81565b348015610701575f80fd5b506102ef610710366004612236565b6111ad565b348015610720575f80fd5b506102ef7f000000000000000000000000000000000000000000000000000000000000000081565b348015610753575f80fd5b506102ef6107623660046125e5565b6111cf565b348015610772575f80fd5b506104de611283565b348015610786575f80fd5b5061024061079536600461263a565b6112a0565b3480156107a5575f80fd5b506105a66040518060400160405280600581526020017f312e302e3000000000000000000000000000000000000000000000000000000081525081565b5f805f8061080285602081015160408201516060909201515f1a92909190565b9094509250905060ff81165f03610918578285830160200161082382610b50565b158015610846575073ffffffffffffffffffffffffffffffffffffffff82163014155b1561087957507fffffffff00000000000000000000000000000000000000000000000000000000945061097f9350505050565b6040517f1626ba7e00000000000000000000000000000000000000000000000000000000815273ffffffffffffffffffffffffffffffffffffffff831690631626ba7e906108cd908b908590600401612686565b602060405180830381865afa1580156108e8573d5f803e3d5ffd5b505050506040513d601f19601f8201168201806040525081019061090c919061269e565b9550505050505061097f565b6109276103a28783868661150e565b1561095857507f1626ba7e00000000000000000000000000000000000000000000000000000000925061097f915050565b507fffffffff00000000000000000000000000000000000000000000000000000000925050505b92915050565b5f8061098f61152a565b8060200190518101906109a291906126dd565b9392505050565b5f6109b26115f9565b6109bc8484611678565b90506109cb6040850185612709565b90505f036109dc576109dc84611778565b6109a2826117f6565b6002546060905f8490036109f7578093505b80610a028486612797565b1115610a5457610a128385612797565b6040517f7ae596850000000000000000000000000000000000000000000000000000000081526004810191909152602481018290526044015b60405180910390fd5b8315610b49578367ffffffffffffffff811115610a7357610a736120cf565b604051908082528060200260200182016040528015610a9c578160200160208202803683370190505b505f80805260066020527f54cdd369e4e8a8515e52ca72ec816c2101831ad1f18bf44102ed171459c9b4f9549193505b84811015610af7575f828152600660205260409020600101549150610af0816127d7565b9050610acc565b505f5b85811015610b465781848281518110610b1557610b156127aa565b6020908102919091018101919091525f9283526006905260409091206001015490610b3f816127d7565b9050610afa565b50505b5092915050565b5f805f610b5b61152a565b806020019051810190610b6e91906126dd565b915091508373ffffffffffffffffffffffffffffffffffffffff168273ffffffffffffffffffffffffffffffffffffffff16636352211e836040518263ffffffff1660e01b8152600401610bc491815260200190565b602060405180830381865afa158015610bdf573d5f803e3d5ffd5b505050506040513d601f19601f82011682018060405250810190610c03919061280e565b73ffffffffffffffffffffffffffffffffffffffff1614949350505050565b610c2b33610b50565b80610c49575033730576a174d229e3cfa37253523e645a78a0c91b57145b610cd5576040517f08c379a000000000000000000000000000000000000000000000000000000000815260206004820152603e60248201527f4f6e6c792063616c6c61626c6520627920746865206d656368206f706572617460448201527f6f72206f722074686520656e74727920706f696e7420636f6e747261637400006064820152608401610a4b565b60018190556040518181527f66cbca4f3c64fecf1dcb9ce094abcf7f68c3450a1d4e3a8e917dd621edb4ebe09060200160405180910390a150565b610d1861152a565b5115610d80576040517f08c379a000000000000000000000000000000000000000000000000000000000815260206004820152601360248201527f416c726561647920696e697469616c697a6564000000000000000000000000006044820152606401610a4b565b610d898161186a565b50565b5f80610d983384611102565b335f81815260086020526040902054919350610db59185906111cf565b9050610dc23482856119df565b335f908152600460205260408120805491610ddc836127d7565b9091555050335f908152600560205260408120805491610dfb836127d7565b90915550505f81815260076020908152604080832080547fffffffffffffffffffffffff00000000000000000000000000000000000000001633908117909155835260089091528120805491610e50836127d7565b909155505060066020525f81815260408082207f54cdd369e4e8a8515e52ca72ec816c2101831ad1f18bf44102ed171459c9b4f980546001830181905590859055808452918320849055600280547f54cdd369e4e8a8515e52ca72ec816c2101831ad1f18bf44102ed171459c9b4f894929392909190610ecf836127d7565b909155505060038054905f610ee3836127d7565b91905055503373ffffffffffffffffffffffffffffffffffffffff167f415baea36dd0457eaf27cbe8dd3691cb1d0b387aac1539c4d118198aba024db3868689604051610f3293929190612829565b60405180910390a2505050915091565b6060610f4d33610b50565b80610f6b575033730576a174d229e3cfa37253523e645a78a0c91b57145b610ff7576040517f08c379a000000000000000000000000000000000000000000000000000000000815260206004820152603e60248201527f4f6e6c792063616c6c61626c6520627920746865206d656368206f706572617460448201527f6f72206f722074686520656e74727920706f696e7420636f6e747261637400006064820152608401610a4b565b5f61101187878787871561100b5787611a29565b5a611a29565b925090508061102257815160208301fd5b5095945050505050565b5f8181526007602052604081205473ffffffffffffffffffffffffffffffffffffffff16156110fd575f828152600660205260408082208151808301928390529160029082845b8154815260200190600101908083116110735750505050509050805f6002811061109f5761109f6127aa565b60200201511580156110b357506020810151155b80156110e857505f805260066020527f54cdd369e4e8a8515e52ca72ec816c2101831ad1f18bf44102ed171459c9b4f8548314155b156110f657600291506110fb565b600191505b505b919050565b5f8282604051602001611116929190612850565b604080517fffffffffffffffffffffffffffffffffffffffffffffffffffffffffffffffe081840301815291905280516020909101209392505050565b5f7f0000000000000000000000000000000000000000000000000000000000000000461461118857611183611b2c565b905090565b507f000000000000000000000000000000000000000000000000000000000000000090565b6006602052815f5260405f2081600281106111c6575f80fd5b01549150829050565b5f6111d8611153565b8484846040516020016111ed9392919061287e565b604051602081830303815290604052805190602001206040516020016112459291907f190100000000000000000000000000000000000000000000000000000000000081526002810192909252602282015260420190565b604080517fffffffffffffffffffffffffffffffffffffffffffffffffffffffffffffffe08184030181529190528051602090910120949350505050565b5f8061128d61152a565b80602001905181019061097f919061280e565b6112a933610b50565b806112c7575033730576a174d229e3cfa37253523e645a78a0c91b57145b611353576040517f08c379a000000000000000000000000000000000000000000000000000000000815260206004820152603e60248201527f4f6e6c792063616c6c61626c6520627920746865206d656368206f706572617460448201527f6f72206f722074686520656e74727920706f696e7420636f6e747261637400006064820152608401610a4b565b5f8281526006602052604080822081518083019283905284939290919060029082845b8154815260200190600101908083116113765750505050509050805f600281106113a2576113a26127aa565b60200201511580156113b657506020810151155b80156113eb57505f805260066020527f54cdd369e4e8a8515e52ca72ec816c2101831ad1f18bf44102ed171459c9b4f8548414155b15611425576040517ffe23980400000000000000000000000000000000000000000000000000000000815260048101859052602401610a4b565b6020818101805183515f9081526006909352604080842060010191909155835191518352822055600280549161145a836128bc565b90915550505f8481526007602090815260408083205473ffffffffffffffffffffffffffffffffffffffff16808452600590925282208054919261149d836128bc565b90915550505f858152600660205260408120818155600101553373ffffffffffffffffffffffffffffffffffffffff167f0cd979445339c62199996f208428d987b1cea24d18e62b79ec24d94b636e8b7087856040516114fe929190612686565b60405180910390a2505050505050565b5f805f61151d87878787611c2a565b9150915061102281611d12565b60606111836115f46040517fd60000000000000000000000000000000000000000000000000000000000000060208201527f940000000000000000000000000000000000000000000000000000000000000060218201527fffffffffffffffffffffffffffffffffffffffff0000000000000000000000003060601b1660228201527f010000000000000000000000000000000000000000000000000000000000000060368201525f90603701604051602081830303815290604052805190602001205f1c905090565b611ec4565b33730576a174d229e3cfa37253523e645a78a0c91b5714611676576040517f08c379a000000000000000000000000000000000000000000000000000000000815260206004820152601c60248201527f6163636f756e743a206e6f742066726f6d20456e747279506f696e74000000006044820152606401610a4b565b565b5f806116d0836040517f19457468657265756d205369676e6564204d6573736167653a0a3332000000006020820152603c81018290525f90605c01604051602081830303815290604052805190602001209050919050565b90507f1626ba7e0000000000000000000000000000000000000000000000000000000061173e82611705610140880188612709565b8080601f0160208091040260200160405190810160405280939291908181526020018383808284375f920191909152506107e292505050565b7fffffffff00000000000000000000000000000000000000000000000000000000161461176f57600191505061097f565b505f9392505050565b5f80546020830135918061178b836127d7565b9190505514610d89576040517f08c379a000000000000000000000000000000000000000000000000000000000815260206004820152600d60248201527f496e76616c6964206e6f6e6365000000000000000000000000000000000000006044820152606401610a4b565b8015610d89576040515f9033907fffffffffffffffffffffffffffffffffffffffffffffffffffffffffffffffff90849084818181858888f193505050503d805f811461185e576040519150601f19603f3d011682016040523d82523d5f602084013e611863565b606091505b5050505050565b5f61187482611f19565b90505f8151602083015ff090506119466040517fd60000000000000000000000000000000000000000000000000000000000000060208201527f940000000000000000000000000000000000000000000000000000000000000060218201527fffffffffffffffffffffffffffffffffffffffff0000000000000000000000003060601b1660228201527f010000000000000000000000000000000000000000000000000000000000000060368201525f90603701604051602081830303815290604052805190602001205f1c905090565b73ffffffffffffffffffffffffffffffffffffffff168173ffffffffffffffffffffffffffffffffffffffff16146119da576040517f08c379a000000000000000000000000000000000000000000000000000000000815260206004820152600c60248201527f5772697465206661696c656400000000000000000000000000000000000000006044820152606401610a4b565b505050565b6001548310156119da576001546040517fb4897828000000000000000000000000000000000000000000000000000000008152610a4b918591600401918252602082015260400190565b5f60606001846001811115611a4057611a406124cb565b03611ab4578673ffffffffffffffffffffffffffffffffffffffff168386604051611a6b91906128f0565b5f604051808303818686f4925050503d805f8114611aa4576040519150601f19603f3d011682016040523d82523d5f602084013e611aa9565b606091505b509092509050611b22565b8673ffffffffffffffffffffffffffffffffffffffff16838787604051611adb91906128f0565b5f60405180830381858888f193505050503d805f8114611b16576040519150601f19603f3d011682016040523d82523d5f602084013e611b1b565b606091505b5090925090505b9550959350505050565b5f7f8b73c3c69bb8fe3d512ecc4cf759cc79239f7b179b0ffacaa9a75d522b39400f7f493aeac1d921aa02a044029e7fe4be43b1a4e80b40706fa5819e8fbb0d0935256040518060400160405280600581526020017f312e302e30000000000000000000000000000000000000000000000000000000815250604051602001611bb591906124b9565b604080517fffffffffffffffffffffffffffffffffffffffffffffffffffffffffffffffe081840301815282825280516020918201209083019490945281019190915260608101919091524660808201523060a082015260c00160405160208183030381529060405280519060200120905090565b5f807f7fffffffffffffffffffffffffffffff5d576e7357a4501ddfe92f46681b20a0831115611c5f57505f90506003611d09565b604080515f8082526020820180845289905260ff881692820192909252606081018690526080810185905260019060a0016020604051602081039080840390855afa158015611cb0573d5f803e3d5ffd5b50506040517fffffffffffffffffffffffffffffffffffffffffffffffffffffffffffffffe0015191505073ffffffffffffffffffffffffffffffffffffffff8116611d03575f60019250925050611d09565b91505f90505b94509492505050565b5f816004811115611d2557611d256124cb565b03611d2d5750565b6001816004811115611d4157611d416124cb565b03611da8576040517f08c379a000000000000000000000000000000000000000000000000000000000815260206004820152601860248201527f45434453413a20696e76616c6964207369676e617475726500000000000000006044820152606401610a4b565b6002816004811115611dbc57611dbc6124cb565b03611e23576040517f08c379a000000000000000000000000000000000000000000000000000000000815260206004820152601f60248201527f45434453413a20696e76616c6964207369676e6174757265206c656e677468006044820152606401610a4b565b6003816004811115611e3757611e376124cb565b03610d89576040517f08c379a000000000000000000000000000000000000000000000000000000000815260206004820152602260248201527f45434453413a20696e76616c6964207369676e6174757265202773272076616c60448201527f75650000000000000000000000000000000000000000000000000000000000006064820152608401610a4b565b6060813b60018111611ee557505060408051602081019091525f8152919050565b80611eef816128bc565b9150506040519150601f19601f602083010116820160405280825280600160208401853c50919050565b606081516001611f299190612797565b82604051602001611f3b92919061290b565b6040516020818303038152906040529050919050565b73ffffffffffffffffffffffffffffffffffffffff81168114610d89575f80fd5b5f8083601f840112611f82575f80fd5b50813567ffffffffffffffff811115611f99575f80fd5b602083019150836020828501011115611fb0575f80fd5b9250929050565b5f805f805f805f8060c0898b031215611fce575f80fd5b8835611fd981611f51565b97506020890135611fe981611f51565b96506040890135611ff981611f51565b955060608901359450608089013567ffffffffffffffff8082111561201c575f80fd5b6120288c838d01611f72565b909650945060a08b0135915080821115612040575f80fd5b5061204d8b828c01611f72565b999c989b5096995094979396929594505050565b5f805f805f60808688031215612075575f80fd5b853561208081611f51565b9450602086013561209081611f51565b935060408601359250606086013567ffffffffffffffff8111156120b2575f80fd5b6120be88828901611f72565b969995985093965092949392505050565b7f4e487b71000000000000000000000000000000000000000000000000000000005f52604160045260245ffd5b5f82601f83011261210b575f80fd5b813567ffffffffffffffff80821115612126576121266120cf565b604051601f83017fffffffffffffffffffffffffffffffffffffffffffffffffffffffffffffffe0908116603f0116810190828211818310171561216c5761216c6120cf565b81604052838152866020858801011115612184575f80fd5b836020870160208301375f602085830101528094505050505092915050565b5f80604083850312156121b4575f80fd5b82359150602083013567ffffffffffffffff8111156121d1575f80fd5b6121dd858286016120fc565b9150509250929050565b5f805f606084860312156121f9575f80fd5b833567ffffffffffffffff81111561220f575f80fd5b84016101608187031215612221575f80fd5b95602085013595506040909401359392505050565b5f8060408385031215612247575f80fd5b50508035926020909101359150565b602080825282518282018190525f9190848201906040850190845b8181101561228d57835183529284019291840191600101612271565b50909695505050505050565b5f602082840312156122a9575f80fd5b81356109a281611f51565b5f602082840312156122c4575f80fd5b5035919050565b5f602082840312156122db575f80fd5b813567ffffffffffffffff8111156122f1575f80fd5b6122fd848285016120fc565b949350505050565b5f8083601f840112612315575f80fd5b50813567ffffffffffffffff81111561232c575f80fd5b6020830191508360208260051b8501011115611fb0575f80fd5b5f805f805f805f8060a0898b03121561235d575f80fd5b883561236881611f51565b9750602089013561237881611f51565b9650604089013567ffffffffffffffff80821115612394575f80fd5b6123a08c838d01612305565b909850965060608b01359150808211156123b8575f80fd5b6123c48c838d01612305565b909650945060808b0135915080821115612040575f80fd5b5f805f805f60a086880312156123f0575f80fd5b85356123fb81611f51565b945060208601359350604086013567ffffffffffffffff81111561241d575f80fd5b612429888289016120fc565b93505060608601356002811061243d575f80fd5b949793965091946080013592915050565b5f5b83811015612468578181015183820152602001612450565b50505f910152565b5f815180845261248781602086016020860161244e565b601f017fffffffffffffffffffffffffffffffffffffffffffffffffffffffffffffffe0169290920160200192915050565b602081525f6109a26020830184612470565b7f4e487b71000000000000000000000000000000000000000000000000000000005f52602160045260245ffd5b6020810160038310612531577f4e487b71000000000000000000000000000000000000000000000000000000005f52602160045260245ffd5b91905290565b5f8060408385031215612548575f80fd5b823561255381611f51565b9150602083013567ffffffffffffffff8111156121d1575f80fd5b5f805f805f8060a08789031215612583575f80fd5b863561258e81611f51565b9550602087013561259e81611f51565b94506040870135935060608701359250608087013567ffffffffffffffff8111156125c7575f80fd5b6125d389828a01611f72565b979a9699509497509295939492505050565b5f805f606084860312156125f7575f80fd5b833561260281611f51565b9250602084013567ffffffffffffffff81111561261d575f80fd5b612629868287016120fc565b925050604084013590509250925092565b5f805f6060848603121561264c575f80fd5b8335925060208401359150604084013567ffffffffffffffff811115612670575f80fd5b61267c868287016120fc565b9150509250925092565b828152604060208201525f6122fd6040830184612470565b5f602082840312156126ae575f80fd5b81517fffffffff00000000000000000000000000000000000000000000000000000000811681146109a2575f80fd5b5f80604083850312156126ee575f80fd5b82516126f981611f51565b6020939093015192949293505050565b5f8083357fffffffffffffffffffffffffffffffffffffffffffffffffffffffffffffffe184360301811261273c575f80fd5b83018035915067ffffffffffffffff821115612756575f80fd5b602001915036819003821315611fb0575f80fd5b7f4e487b71000000000000000000000000000000000000000000000000000000005f52601160045260245ffd5b8082018082111561097f5761097f61276a565b7f4e487b71000000000000000000000000000000000000000000000000000000005f52603260045260245ffd5b5f7fffffffffffffffffffffffffffffffffffffffffffffffffffffffffffffffff82036128075761280761276a565b5060010190565b5f6020828403121561281e575f80fd5b81516109a281611f51565b838152826020820152606060408201525f6128476060830184612470565b95945050505050565b73ffffffffffffffffffffffffffffffffffffffff83168152604060208201525f6122fd6040830184612470565b73ffffffffffffffffffffffffffffffffffffffff84168152606060208201525f6128ac6060830185612470565b9050826040830152949350505050565b5f816128ca576128ca61276a565b507fffffffffffffffffffffffffffffffffffffffffffffffffffffffffffffffff0190565b5f825161290181846020870161244e565b9190910192915050565b7f630000000000000000000000000000000000000000000000000000000000000081527fffffffff000000000000000000000000000000000000000000000000000000008360e01b1660018201527f80600e6000396000f3000000000000000000000000000000000000000000000060058201525f600e8201525f825161299981600f85016020870161244e565b91909101600f01939250505056fea2646970667358221220c0a55f4aff92567eea031e755e48b47f3261a77217f135e77b437bffbd35e2a864736f6c63430008150033a2646970667358221220b08d8d25ea1ef67bffdbfc410a4e96e619a565b086cb5f598d6b240a2233a95d64736f6c63430008150033",
  "linkReferences": {},
  "deployedLinkReferences": {}
}