{
  "_format": "hh-sol-artifact-1",
  "contractName": "AgentFactory",
  "sourceName": "contracts/AgentFactory.sol",
  "abi": [
    {
      "inputs": [
        {
          "internalType": "address",
          "name": "_agentRegistry",
          "type": "address"
        }
      ],
      "stateMutability": "nonpayable",
      "type": "constructor"
    },
    {
      "inputs": [
        {
          "internalType": "address",
          "name": "operator",
          "type": "address"
        }
      ],
      "name": "AgentInstanceRegistered",
      "type": "error"
    },
    {
      "inputs": [
        {
          "internalType": "uint256",
          "name": "serviceId",
          "type": "uint256"
        }
      ],
      "name": "AgentInstancesSlotsFilled",
      "type": "error"
    },
    {
      "inputs": [
        {
          "internalType": "uint256",
          "name": "agentId",
          "type": "uint256"
        }
      ],
      "name": "AgentNotFound",
      "type": "error"
    },
    {
      "inputs": [
        {
          "internalType": "uint256",
          "name": "agentId",
          "type": "uint256"
        },
        {
          "internalType": "uint256",
          "name": "serviceId",
          "type": "uint256"
        }
      ],
      "name": "AgentNotInService",
      "type": "error"
    },
    {
      "inputs": [
        {
          "internalType": "uint256",
          "name": "componentId",
          "type": "uint256"
        }
      ],
      "name": "ComponentNotFound",
      "type": "error"
    },
    {
      "inputs": [],
      "name": "HashExists",
      "type": "error"
    },
    {
      "inputs": [
        {
          "internalType": "uint256",
          "name": "sent",
          "type": "uint256"
        },
        {
          "internalType": "uint256",
          "name": "expected",
          "type": "uint256"
        },
        {
          "internalType": "uint256",
          "name": "serviceId",
          "type": "uint256"
        }
      ],
      "name": "IncorrectAgentBondingValue",
      "type": "error"
    },
    {
      "inputs": [
        {
          "internalType": "uint256",
          "name": "sent",
          "type": "uint256"
        },
        {
          "internalType": "uint256",
          "name": "expected",
          "type": "uint256"
        },
        {
          "internalType": "uint256",
          "name": "serviceId",
          "type": "uint256"
        }
      ],
      "name": "IncorrectRegistrationDepositValue",
      "type": "error"
    },
    {
      "inputs": [
        {
          "internalType": "address",
          "name": "sender",
          "type": "address"
        },
        {
          "internalType": "address",
          "name": "manager",
          "type": "address"
        }
      ],
      "name": "ManagerOnly",
      "type": "error"
    },
    {
      "inputs": [
        {
          "internalType": "address",
          "name": "provided",
          "type": "address"
        },
        {
          "internalType": "address",
          "name": "expected",
          "type": "address"
        },
        {
          "internalType": "uint256",
          "name": "serviceId",
          "type": "uint256"
        }
      ],
      "name": "OnlyOwnServiceMultisig",
      "type": "error"
    },
    {
      "inputs": [
        {
          "internalType": "address",
          "name": "operator",
          "type": "address"
        },
        {
          "internalType": "uint256",
          "name": "serviceId",
          "type": "uint256"
        }
      ],
      "name": "OperatorHasNoInstances",
      "type": "error"
    },
    {
      "inputs": [
        {
          "internalType": "uint256",
          "name": "provided",
          "type": "uint256"
        },
        {
          "internalType": "uint256",
          "name": "max",
          "type": "uint256"
        }
      ],
      "name": "Overflow",
      "type": "error"
    },
    {
      "inputs": [
        {
          "internalType": "address",
          "name": "sender",
          "type": "address"
        },
        {
          "internalType": "address",
          "name": "owner",
          "type": "address"
        }
      ],
      "name": "OwnerOnly",
      "type": "error"
    },
    {
      "inputs": [],
      "name": "Paused",
      "type": "error"
    },
    {
      "inputs": [],
      "name": "ReentrancyGuard",
      "type": "error"
    },
    {
      "inputs": [
        {
          "internalType": "uint256",
          "name": "serviceId",
          "type": "uint256"
        }
      ],
      "name": "ServiceMustBeInactive",
      "type": "error"
    },
    {
      "inputs": [
        {
          "internalType": "address",
          "name": "token",
          "type": "address"
        },
        {
          "internalType": "address",
          "name": "from",
          "type": "address"
        },
        {
          "internalType": "address",
          "name": "to",
          "type": "address"
        },
        {
          "internalType": "uint256",
          "name": "value",
          "type": "uint256"
        }
      ],
      "name": "TransferFailed",
      "type": "error"
    },
    {
      "inputs": [
        {
          "internalType": "address",
          "name": "multisig",
          "type": "address"
        }
      ],
      "name": "UnauthorizedMultisig",
      "type": "error"
    },
    {
      "inputs": [
        {
          "internalType": "uint256",
          "name": "agentId",
          "type": "uint256"
        }
      ],
      "name": "WrongAgentId",
      "type": "error"
    },
    {
      "inputs": [
        {
          "internalType": "uint256",
          "name": "numValues1",
          "type": "uint256"
        },
        {
          "internalType": "uint256",
          "name": "numValues2",
          "type": "uint256"
        }
      ],
      "name": "WrongArrayLength",
      "type": "error"
    },
    {
      "inputs": [
        {
          "internalType": "uint256",
          "name": "serviceId",
          "type": "uint256"
        }
      ],
      "name": "WrongOperator",
      "type": "error"
    },
    {
      "inputs": [
        {
          "internalType": "uint256",
          "name": "state",
          "type": "uint256"
        },
        {
          "internalType": "uint256",
          "name": "serviceId",
          "type": "uint256"
        }
      ],
      "name": "WrongServiceState",
      "type": "error"
    },
    {
      "inputs": [
        {
          "internalType": "uint256",
          "name": "currentThreshold",
          "type": "uint256"
        },
        {
          "internalType": "uint256",
          "name": "minThreshold",
          "type": "uint256"
        },
        {
          "internalType": "uint256",
          "name": "maxThreshold",
          "type": "uint256"
        }
      ],
      "name": "WrongThreshold",
      "type": "error"
    },
    {
      "inputs": [],
      "name": "ZeroAddress",
      "type": "error"
    },
    {
      "inputs": [],
      "name": "ZeroValue",
      "type": "error"
    },
    {
      "anonymous": false,
      "inputs": [
        {
          "indexed": true,
          "internalType": "address",
          "name": "mech",
          "type": "address"
        },
        {
          "indexed": true,
          "internalType": "uint256",
          "name": "agentId",
          "type": "uint256"
        },
        {
          "indexed": true,
          "internalType": "uint256",
          "name": "price",
          "type": "uint256"
        }
      ],
      "name": "CreateMech",
      "type": "event"
    },
    {
      "anonymous": false,
      "inputs": [
        {
          "indexed": true,
          "internalType": "address",
          "name": "owner",
          "type": "address"
        }
      ],
      "name": "OwnerUpdated",
      "type": "event"
    },
    {
      "anonymous": false,
      "inputs": [
        {
          "indexed": true,
          "internalType": "address",
          "name": "owner",
          "type": "address"
        }
      ],
      "name": "Pause",
      "type": "event"
    },
    {
      "anonymous": false,
      "inputs": [
        {
          "indexed": true,
          "internalType": "address",
          "name": "owner",
          "type": "address"
        }
      ],
      "name": "Unpause",
      "type": "event"
    },
    {
      "inputs": [],
      "name": "VERSION",
      "outputs": [
        {
          "internalType": "string",
          "name": "",
          "type": "string"
        }
      ],
      "stateMutability": "view",
      "type": "function"
    },
    {
      "inputs": [],
      "name": "agentRegistry",
      "outputs": [
        {
          "internalType": "address",
          "name": "",
          "type": "address"
        }
      ],
      "stateMutability": "view",
      "type": "function"
    },
    {
      "inputs": [
        {
          "internalType": "address",
          "name": "newOwner",
          "type": "address"
        }
      ],
      "name": "changeOwner",
      "outputs": [],
      "stateMutability": "nonpayable",
      "type": "function"
    },
    {
      "inputs": [
        {
          "internalType": "address",
          "name": "agentOwner",
          "type": "address"
        },
        {
          "internalType": "bytes32",
          "name": "agentHash",
          "type": "bytes32"
        },
        {
          "internalType": "uint256",
          "name": "price",
          "type": "uint256"
        }
      ],
      "name": "create",
      "outputs": [
        {
          "internalType": "uint256",
          "name": "agentId",
          "type": "uint256"
        },
        {
          "internalType": "address",
          "name": "mech",
          "type": "address"
        }
      ],
      "stateMutability": "nonpayable",
      "type": "function"
    },
    {
      "inputs": [],
      "name": "owner",
      "outputs": [
        {
          "internalType": "address",
          "name": "",
          "type": "address"
        }
      ],
      "stateMutability": "view",
      "type": "function"
    },
    {
      "inputs": [],
      "name": "pause",
      "outputs": [],
      "stateMutability": "nonpayable",
      "type": "function"
    },
    {
      "inputs": [],
      "name": "paused",
      "outputs": [
        {
          "internalType": "bool",
          "name": "",
          "type": "bool"
        }
      ],
      "stateMutability": "view",
      "type": "function"
    },
    {
      "inputs": [],
      "name": "unpause",
      "outputs": [],
      "stateMutability": "nonpayable",
      "type": "function"
    }
  ],
  "bytecode": "0x60a060405234801561000f575f80fd5b50604051612f08380380612f0883398101604081905261002e91610050565b6001600160a01b03166080525f80546001600160a01b0319163317905561007d565b5f60208284031215610060575f80fd5b81516001600160a01b0381168114610076575f80fd5b9392505050565b608051612e666100a25f395f8181609a0152818161043e01526104f40152612e665ff3fe608060405234801562000010575f80fd5b506004361062000090575f3560e01c80638da5cb5b116200005f5780638da5cb5b14620001325780638f9ade5e1462000152578063a6f9dae11462000194578063ffa1ad7414620001ab575f80fd5b80630d1cfcae14620000945780633f4ba83a14620000e65780635c975abb14620000f25780638456cb591462000128575b5f80fd5b620000bc7f000000000000000000000000000000000000000000000000000000000000000081565b60405173ffffffffffffffffffffffffffffffffffffffff90911681526020015b60405180910390f35b620000f0620001f7565b005b5f54620001179074010000000000000000000000000000000000000000900460ff1681565b6040519015158152602001620000dd565b620000f0620002bf565b5f54620000bc9073ffffffffffffffffffffffffffffffffffffffff1681565b620001696200016336600462000720565b6200039a565b6040805192835273ffffffffffffffffffffffffffffffffffffffff909116602083015201620000dd565b620000f0620001a536600462000753565b620005bc565b620001e86040518060400160405280600581526020017f312e302e3000000000000000000000000000000000000000000000000000000081525081565b604051620000dd919062000776565b5f5473ffffffffffffffffffffffffffffffffffffffff1633146200026e575f546040517fa43d6ada00000000000000000000000000000000000000000000000000000000815233600482015273ffffffffffffffffffffffffffffffffffffffff90911660248201526044015b60405180910390fd5b5f80547fffffffffffffffffffffff00ffffffffffffffffffffffffffffffffffffffff16815560405133917faeb196d352664784d1900b0e7414a8face7d29f4dae8c4b0cf68ed477423bbf491a2565b5f5473ffffffffffffffffffffffffffffffffffffffff16331462000332575f546040517fa43d6ada00000000000000000000000000000000000000000000000000000000815233600482015273ffffffffffffffffffffffffffffffffffffffff909116602482015260440162000265565b5f80547fffffffffffffffffffffff00ffffffffffffffffffffffffffffffffffffffff167401000000000000000000000000000000000000000017815560405133917f5ee71a369c8672edded508e624ffc9257fa1ae6886ef32905c18e60196bca39991a2565b5f8054819074010000000000000000000000000000000000000000900460ff1615620003f2576040517f9e87fac800000000000000000000000000000000000000000000000000000000815260040160405180910390fd5b6040517fa3def92300000000000000000000000000000000000000000000000000000000815273ffffffffffffffffffffffffffffffffffffffff8681166004830152602482018690527f0000000000000000000000000000000000000000000000000000000000000000169063a3def923906044016020604051808303815f875af115801562000485573d5f803e3d5ffd5b505050506040513d601f19601f82011682018060405250810190620004ab9190620007e1565b6040805173ffffffffffffffffffffffffffffffffffffffff881660208201529081018290529092505f90606001604051602081830303815290604052805190602001209050807f000000000000000000000000000000000000000000000000000000000000000084866040516200052390620006e9565b73ffffffffffffffffffffffffffffffffffffffff9093168352602083019190915260408201526060018190604051809103905ff59050801580156200056b573d5f803e3d5ffd5b50915083838373ffffffffffffffffffffffffffffffffffffffff167f67a2e45041c70013518c5b9b849a6944a6c17ff44d66be1c707020460ecbd1db60405160405180910390a450935093915050565b5f5473ffffffffffffffffffffffffffffffffffffffff1633146200062f575f546040517fa43d6ada00000000000000000000000000000000000000000000000000000000815233600482015273ffffffffffffffffffffffffffffffffffffffff909116602482015260440162000265565b73ffffffffffffffffffffffffffffffffffffffff81166200067d576040517fd92e233d00000000000000000000000000000000000000000000000000000000815260040160405180910390fd5b5f80547fffffffffffffffffffffffff00000000000000000000000000000000000000001673ffffffffffffffffffffffffffffffffffffffff8316908117825560405190917f4ffd725fc4a22075e9ec71c59edf9c38cdeb588a91b24fc5b61388c5be41282b91a250565b61263780620007fa83390190565b803573ffffffffffffffffffffffffffffffffffffffff811681146200071b575f80fd5b919050565b5f805f6060848603121562000733575f80fd5b6200073e84620006f7565b95602085013595506040909401359392505050565b5f6020828403121562000764575f80fd5b6200076f82620006f7565b9392505050565b5f6020808352835180828501525f5b81811015620007a35785810183015185820160400152820162000785565b505f6040828601015260407fffffffffffffffffffffffffffffffffffffffffffffffffffffffffffffffe0601f8301168501019250505092915050565b5f60208284031215620007f2575f80fd5b505191905056fe60806040525f805534801562000013575f80fd5b506040516200263738038062002637833981016040819052620000369162000391565b604080516001600160a01b03851660208201528082018490528151808203830181526060909101909152839083906200006f8162000145565b5050506001600160a01b0383166200009a5760405163d92e233d60e01b815260040160405180910390fd5b6040516331a9108f60e11b8152600481018390525f906001600160a01b03851690636352211e90602401602060405180830381865afa158015620000e0573d5f803e3d5ffd5b505050506040513d601f19601f82011682018060405250810190620001069190620003c6565b90506001600160a01b0381166200013857604051630ede975960e01b8152600481018490526024015b60405180910390fd5b50600155506200049a9050565b6200014f620001ad565b51156200019f5760405162461bcd60e51b815260206004820152601360248201527f416c726561647920696e697469616c697a65640000000000000000000000000060448201526064016200012f565b620001aa8162000218565b50565b6060620002136200020d604051606b60f91b6020820152602560fa1b60218201526001600160601b03193060601b166022820152600160f81b60368201525f90603701604051602081830303815290604052805190602001205f1c905090565b620002e1565b905090565b5f620002248262000339565b90505f8151602083015ff090506200028b604051606b60f91b6020820152602560fa1b60218201526001600160601b03193060601b166022820152600160f81b60368201525f90603701604051602081830303815290604052805190602001205f1c905090565b6001600160a01b0316816001600160a01b031614620002dc5760405162461bcd60e51b815260206004820152600c60248201526b15dc9a5d194819985a5b195960a21b60448201526064016200012f565b505050565b6060813b600181116200030357505060408051602081019091525f8152919050565b806200030f81620003fd565b9150506040519150601f19601f602083010116820160405280825280600160208401853c50919050565b6060815160016200034b919062000415565b826040516020016200035f92919062000431565b6040516020818303038152906040529050919050565b80516001600160a01b03811681146200038c575f80fd5b919050565b5f805f60608486031215620003a4575f80fd5b620003af8462000375565b925060208401519150604084015190509250925092565b5f60208284031215620003d7575f80fd5b620003e28262000375565b9392505050565b634e487b7160e01b5f52601160045260245ffd5b5f816200040e576200040e620003e9565b505f190190565b808201808211156200042b576200042b620003e9565b92915050565b606360f81b815260e083901b6001600160e01b03191660018201526880600e6000396000f360b81b60058201525f600e82018190528251815b8181101562000489576020818601810151600f8684010152016200046a565b505f9201600f019182525092915050565b61218f80620004a85f395ff3fe60806040526004361061017a575f3560e01c8063a035b1fe116100d1578063bdf863171161007c578063f23a6e6111610057578063f23a6e61146104c7578063f6171e441461050c578063fc0c546a1461052b575f80fd5b8063bdf8631714610467578063c7dec3fc1461047c578063e00b9118146104a8575f80fd5b8063b0d691fe116100ac578063b0d691fe146103c6578063b94207d31461040d578063bc197c8114610420575f80fd5b8063a035b1fe1461037f578063a4f9edbf14610394578063affed0e0146103b3575f80fd5b80633a871cdd116101315780636e3ec0391161010c5780636e3ec039146102fe5780637af734731461031f57806391b7f5ed14610360575f80fd5b80633a871cdd146102855780635fee6085146102a45780636d70f7ae146102cf575f80fd5b8063157305fe11610161578063157305fe146102255780631626ba7e1461024457806317d70f7c14610263575f80fd5b806223de2914610185578063150b7a02146101ab575f80fd5b3661018157005b5f80fd5b348015610190575f80fd5b506101a961019f3660046118ae565b5050505050505050565b005b3480156101b6575f80fd5b506101ef6101c5366004611958565b7f150b7a020000000000000000000000000000000000000000000000000000000095945050505050565b6040517fffffffff0000000000000000000000000000000000000000000000000000000090911681526020015b60405180910390f35b348015610230575f80fd5b506101a961023f366004611a9a565b61053f565b34801561024f575f80fd5b506101ef61025e366004611a9a565b610766565b34801561026e575f80fd5b50610277610909565b60405190815260200161021c565b348015610290575f80fd5b5061027761029f366004611ade565b61092d565b3480156102af575f80fd5b506102776102be366004611b2d565b60036020525f908152604090205481565b3480156102da575f80fd5b506102ee6102e9366004611b2d565b610969565b604051901515815260200161021c565b348015610309575f80fd5b50610312610a3b565b60405161021c9190611b48565b34801561032a575f80fd5b50610277610339366004611b2d565b73ffffffffffffffffffffffffffffffffffffffff165f9081526003602052604090205490565b34801561036b575f80fd5b506101a961037a366004611b8b565b610b0c565b34801561038a575f80fd5b5061027760015481565b34801561039f575f80fd5b506101a96103ae366004611ba2565b610bfa565b3480156103be575f80fd5b505f54610277565b3480156103d1575f80fd5b50730576a174d229e3cfa37253523e645a78a0c91b575b60405173ffffffffffffffffffffffffffffffffffffffff909116815260200161021c565b61027761041b366004611ba2565b610c76565b34801561042b575f80fd5b506101ef61043a366004611c1d565b7fbc197c810000000000000000000000000000000000000000000000000000000098975050505050505050565b348015610472575f80fd5b5061027760025481565b348015610487575f80fd5b5061049b610496366004611cb3565b610dce565b60405161021c9190611d90565b3480156104b3575f80fd5b506102776104c2366004611da2565b610eb8565b3480156104d2575f80fd5b506101ef6104e1366004611dd9565b7ff23a6e61000000000000000000000000000000000000000000000000000000009695505050505050565b348015610517575f80fd5b50610277610526366004611e50565b610f09565b348015610536575f80fd5b506103e8610f2b565b61054833610969565b80610566575033730576a174d229e3cfa37253523e645a78a0c91b57145b6105f7576040517f08c379a000000000000000000000000000000000000000000000000000000000815260206004820152603e60248201527f4f6e6c792063616c6c61626c6520627920746865206d656368206f706572617460448201527f6f72206f722074686520656e74727920706f696e7420636f6e7472616374000060648201526084015b60405180910390fd5b5f828152600460205260408082208151808301928390529160029082845b8154815260200190600101908083116106155750505050509050805f6002811061064157610641611e70565b602002015115801561065557506020810151155b801561068a57505f805260046020527f17ef568e3e12ab5b9c7254a8d58478811de00f9e6eb34345acd53bf8fd09d3ed548314155b156106c4576040517ffe239804000000000000000000000000000000000000000000000000000000008152600481018490526024016105ee565b6020818101805183515f908152600490935260408084206001908101929092558451925184528084209290925585835290822082815501819055600280549161070c83611eca565b91905055503373ffffffffffffffffffffffffffffffffffffffff167f0cd979445339c62199996f208428d987b1cea24d18e62b79ec24d94b636e8b708484604051610759929190611efe565b60405180910390a2505050565b5f805f8061078685602081015160408201516060909201515f1a92909190565b9094509250905060ff81165f0361089c57828583016020016107a782610969565b1580156107ca575073ffffffffffffffffffffffffffffffffffffffff82163014155b156107fd57507fffffffff0000000000000000000000000000000000000000000000000000000094506109039350505050565b6040517f1626ba7e00000000000000000000000000000000000000000000000000000000815273ffffffffffffffffffffffffffffffffffffffff831690631626ba7e90610851908b908590600401611efe565b602060405180830381865afa15801561086c573d5f803e3d5ffd5b505050506040513d601f19601f820116820180604052508101906108909190611f16565b95505050505050610903565b6108ab6102e987838686610f48565b156108dc57507f1626ba7e000000000000000000000000000000000000000000000000000000009250610903915050565b507fffffffff00000000000000000000000000000000000000000000000000000000925050505b92915050565b5f80610913610f64565b8060200190518101906109269190611f55565b9392505050565b5f610936611038565b61094084846110b7565b905061094f6040850185611f81565b90505f0361096057610960846111b7565b61092682611235565b5f805f610974610f64565b8060200190518101906109879190611f55565b915091508373ffffffffffffffffffffffffffffffffffffffff168273ffffffffffffffffffffffffffffffffffffffff16636352211e836040518263ffffffff1660e01b81526004016109dd91815260200190565b602060405180830381865afa1580156109f8573d5f803e3d5ffd5b505050506040513d601f19601f82011682018060405250810190610a1c9190611fe2565b73ffffffffffffffffffffffffffffffffffffffff1614949350505050565b6002546060908015610b08578067ffffffffffffffff811115610a6057610a606119c6565b604051908082528060200260200182016040528015610a89578160200160208202803683370190505b505f80805260046020527f17ef568e3e12ab5b9c7254a8d58478811de00f9e6eb34345acd53bf8fd09d3ed549193505b82811015610b055781848281518110610ad457610ad4611e70565b6020908102919091018101919091525f9283526004905260409091206001015490610afe81611ffd565b9050610ab9565b50505b5090565b610b1533610969565b80610b33575033730576a174d229e3cfa37253523e645a78a0c91b57145b610bbf576040517f08c379a000000000000000000000000000000000000000000000000000000000815260206004820152603e60248201527f4f6e6c792063616c6c61626c6520627920746865206d656368206f706572617460448201527f6f72206f722074686520656e74727920706f696e7420636f6e7472616374000060648201526084016105ee565b60018190556040518181527f66cbca4f3c64fecf1dcb9ce094abcf7f68c3450a1d4e3a8e917dd621edb4ebe09060200160405180910390a150565b610c02610f64565b5115610c6a576040517f08c379a000000000000000000000000000000000000000000000000000000000815260206004820152601360248201527f416c726561647920696e697469616c697a65640000000000000000000000000060448201526064016105ee565b610c73816112a9565b50565b5f600154341015610cc0576001546040517fb489782800000000000000000000000000000000000000000000000000000000815234600482015260248101919091526044016105ee565b610cca3383610eb8565b335f908152600360205260408120805492935090610ce783611ffd565b909155505060046020525f81815260408082207f17ef568e3e12ab5b9c7254a8d58478811de00f9e6eb34345acd53bf8fd09d3ed805460018301819055908590558084529183208490557f17ef568e3e12ab5b9c7254a8d58478811de00f9e6eb34345acd53bf8fd09d3ec8054909391929103610d62578383555b60028054905f610d7183611ffd565b91905055503373ffffffffffffffffffffffffffffffffffffffff167f4bda649efe6b98b0f9c1d5e859c29e20910f45c66dabfe6fad4a4881f7faf9cc8587604051610dbe929190611efe565b60405180910390a2505050919050565b6060610dd933610969565b80610df7575033730576a174d229e3cfa37253523e645a78a0c91b57145b610e83576040517f08c379a000000000000000000000000000000000000000000000000000000000815260206004820152603e60248201527f4f6e6c792063616c6c61626c6520627920746865206d656368206f706572617460448201527f6f72206f722074686520656e74727920706f696e7420636f6e7472616374000060648201526084016105ee565b5f610e9d878787878715610e97578761141e565b5a61141e565b9250905080610eae57815160208301fd5b5095945050505050565b5f8282604051602001610ecc929190612034565b604080517fffffffffffffffffffffffffffffffffffffffffffffffffffffffffffffffe081840301815291905280516020909101209392505050565b6004602052815f5260405f208160028110610f22575f80fd5b01549150829050565b5f80610f35610f64565b8060200190518101906109039190611fe2565b5f805f610f5787878787611521565b91509150610eae81611609565b606061103361102e6040517fd60000000000000000000000000000000000000000000000000000000000000060208201527f940000000000000000000000000000000000000000000000000000000000000060218201527fffffffffffffffffffffffffffffffffffffffff0000000000000000000000003060601b1660228201527f010000000000000000000000000000000000000000000000000000000000000060368201525f90603701604051602081830303815290604052805190602001205f1c905090565b6117bb565b905090565b33730576a174d229e3cfa37253523e645a78a0c91b57146110b5576040517f08c379a000000000000000000000000000000000000000000000000000000000815260206004820152601c60248201527f6163636f756e743a206e6f742066726f6d20456e747279506f696e740000000060448201526064016105ee565b565b5f8061110f836040517f19457468657265756d205369676e6564204d6573736167653a0a3332000000006020820152603c81018290525f90605c01604051602081830303815290604052805190602001209050919050565b90507f1626ba7e0000000000000000000000000000000000000000000000000000000061117d82611144610140880188611f81565b8080601f0160208091040260200160405190810160405280939291908181526020018383808284375f9201919091525061076692505050565b7fffffffff0000000000000000000000000000000000000000000000000000000016146111ae576001915050610903565b505f9392505050565b5f8054602083013591806111ca83611ffd565b9190505514610c73576040517f08c379a000000000000000000000000000000000000000000000000000000000815260206004820152600d60248201527f496e76616c6964206e6f6e63650000000000000000000000000000000000000060448201526064016105ee565b8015610c73576040515f9033907fffffffffffffffffffffffffffffffffffffffffffffffffffffffffffffffff90849084818181858888f193505050503d805f811461129d576040519150601f19603f3d011682016040523d82523d5f602084013e6112a2565b606091505b5050505050565b5f6112b382611810565b90505f8151602083015ff090506113856040517fd60000000000000000000000000000000000000000000000000000000000000060208201527f940000000000000000000000000000000000000000000000000000000000000060218201527fffffffffffffffffffffffffffffffffffffffff0000000000000000000000003060601b1660228201527f010000000000000000000000000000000000000000000000000000000000000060368201525f90603701604051602081830303815290604052805190602001205f1c905090565b73ffffffffffffffffffffffffffffffffffffffff168173ffffffffffffffffffffffffffffffffffffffff1614611419576040517f08c379a000000000000000000000000000000000000000000000000000000000815260206004820152600c60248201527f5772697465206661696c6564000000000000000000000000000000000000000060448201526064016105ee565b505050565b5f6060600184600181111561143557611435612062565b036114a9578673ffffffffffffffffffffffffffffffffffffffff168386604051611460919061208f565b5f604051808303818686f4925050503d805f8114611499576040519150601f19603f3d011682016040523d82523d5f602084013e61149e565b606091505b509092509050611517565b8673ffffffffffffffffffffffffffffffffffffffff168387876040516114d0919061208f565b5f60405180830381858888f193505050503d805f811461150b576040519150601f19603f3d011682016040523d82523d5f602084013e611510565b606091505b5090925090505b9550959350505050565b5f807f7fffffffffffffffffffffffffffffff5d576e7357a4501ddfe92f46681b20a083111561155657505f90506003611600565b604080515f8082526020820180845289905260ff881692820192909252606081018690526080810185905260019060a0016020604051602081039080840390855afa1580156115a7573d5f803e3d5ffd5b50506040517fffffffffffffffffffffffffffffffffffffffffffffffffffffffffffffffe0015191505073ffffffffffffffffffffffffffffffffffffffff81166115fa575f60019250925050611600565b91505f90505b94509492505050565b5f81600481111561161c5761161c612062565b036116245750565b600181600481111561163857611638612062565b0361169f576040517f08c379a000000000000000000000000000000000000000000000000000000000815260206004820152601860248201527f45434453413a20696e76616c6964207369676e6174757265000000000000000060448201526064016105ee565b60028160048111156116b3576116b3612062565b0361171a576040517f08c379a000000000000000000000000000000000000000000000000000000000815260206004820152601f60248201527f45434453413a20696e76616c6964207369676e6174757265206c656e6774680060448201526064016105ee565b600381600481111561172e5761172e612062565b03610c73576040517f08c379a000000000000000000000000000000000000000000000000000000000815260206004820152602260248201527f45434453413a20696e76616c6964207369676e6174757265202773272076616c60448201527f756500000000000000000000000000000000000000000000000000000000000060648201526084016105ee565b6060813b600181116117dc57505060408051602081019091525f8152919050565b806117e681611eca565b9150506040519150601f19601f602083010116820160405280825280600160208401853c50919050565b60608151600161182091906120aa565b826040516020016118329291906120bd565b6040516020818303038152906040529050919050565b73ffffffffffffffffffffffffffffffffffffffff81168114610c73575f80fd5b5f8083601f840112611879575f80fd5b50813567ffffffffffffffff811115611890575f80fd5b6020830191508360208285010111156118a7575f80fd5b9250929050565b5f805f805f805f8060c0898b0312156118c5575f80fd5b88356118d081611848565b975060208901356118e081611848565b965060408901356118f081611848565b955060608901359450608089013567ffffffffffffffff80821115611913575f80fd5b61191f8c838d01611869565b909650945060a08b0135915080821115611937575f80fd5b506119448b828c01611869565b999c989b5096995094979396929594505050565b5f805f805f6080868803121561196c575f80fd5b853561197781611848565b9450602086013561198781611848565b935060408601359250606086013567ffffffffffffffff8111156119a9575f80fd5b6119b588828901611869565b969995985093965092949392505050565b7f4e487b71000000000000000000000000000000000000000000000000000000005f52604160045260245ffd5b5f82601f830112611a02575f80fd5b813567ffffffffffffffff80821115611a1d57611a1d6119c6565b604051601f83017fffffffffffffffffffffffffffffffffffffffffffffffffffffffffffffffe0908116603f01168101908282118183101715611a6357611a636119c6565b81604052838152866020858801011115611a7b575f80fd5b836020870160208301375f602085830101528094505050505092915050565b5f8060408385031215611aab575f80fd5b82359150602083013567ffffffffffffffff811115611ac8575f80fd5b611ad4858286016119f3565b9150509250929050565b5f805f60608486031215611af0575f80fd5b833567ffffffffffffffff811115611b06575f80fd5b84016101608187031215611b18575f80fd5b95602085013595506040909401359392505050565b5f60208284031215611b3d575f80fd5b813561092681611848565b602080825282518282018190525f9190848201906040850190845b81811015611b7f57835183529284019291840191600101611b63565b50909695505050505050565b5f60208284031215611b9b575f80fd5b5035919050565b5f60208284031215611bb2575f80fd5b813567ffffffffffffffff811115611bc8575f80fd5b611bd4848285016119f3565b949350505050565b5f8083601f840112611bec575f80fd5b50813567ffffffffffffffff811115611c03575f80fd5b6020830191508360208260051b85010111156118a7575f80fd5b5f805f805f805f8060a0898b031215611c34575f80fd5b8835611c3f81611848565b97506020890135611c4f81611848565b9650604089013567ffffffffffffffff80821115611c6b575f80fd5b611c778c838d01611bdc565b909850965060608b0135915080821115611c8f575f80fd5b611c9b8c838d01611bdc565b909650945060808b0135915080821115611937575f80fd5b5f805f805f60a08688031215611cc7575f80fd5b8535611cd281611848565b945060208601359350604086013567ffffffffffffffff811115611cf4575f80fd5b611d00888289016119f3565b935050606086013560028110611d14575f80fd5b949793965091946080013592915050565b5f5b83811015611d3f578181015183820152602001611d27565b50505f910152565b5f8151808452611d5e816020860160208601611d25565b601f017fffffffffffffffffffffffffffffffffffffffffffffffffffffffffffffffe0169290920160200192915050565b602081525f6109266020830184611d47565b5f8060408385031215611db3575f80fd5b8235611dbe81611848565b9150602083013567ffffffffffffffff811115611ac8575f80fd5b5f805f805f8060a08789031215611dee575f80fd5b8635611df981611848565b95506020870135611e0981611848565b94506040870135935060608701359250608087013567ffffffffffffffff811115611e32575f80fd5b611e3e89828a01611869565b979a9699509497509295939492505050565b5f8060408385031215611e61575f80fd5b50508035926020909101359150565b7f4e487b71000000000000000000000000000000000000000000000000000000005f52603260045260245ffd5b7f4e487b71000000000000000000000000000000000000000000000000000000005f52601160045260245ffd5b5f81611ed857611ed8611e9d565b507fffffffffffffffffffffffffffffffffffffffffffffffffffffffffffffffff0190565b828152604060208201525f611bd46040830184611d47565b5f60208284031215611f26575f80fd5b81517fffffffff0000000000000000000000000000000000000000000000000000000081168114610926575f80fd5b5f8060408385031215611f66575f80fd5b8251611f7181611848565b6020939093015192949293505050565b5f8083357fffffffffffffffffffffffffffffffffffffffffffffffffffffffffffffffe1843603018112611fb4575f80fd5b83018035915067ffffffffffffffff821115611fce575f80fd5b6020019150368190038213156118a7575f80fd5b5f60208284031215611ff2575f80fd5b815161092681611848565b5f7fffffffffffffffffffffffffffffffffffffffffffffffffffffffffffffffff820361202d5761202d611e9d565b5060010190565b73ffffffffffffffffffffffffffffffffffffffff83168152604060208201525f611bd46040830184611d47565b7f4e487b71000000000000000000000000000000000000000000000000000000005f52602160045260245ffd5b5f82516120a0818460208701611d25565b9190910192915050565b8082018082111561090357610903611e9d565b7f630000000000000000000000000000000000000000000000000000000000000081527fffffffff000000000000000000000000000000000000000000000000000000008360e01b1660018201527f80600e6000396000f3000000000000000000000000000000000000000000000060058201525f600e8201525f825161214b81600f850160208701611d25565b91909101600f01939250505056fea26469706673582212208ee99f5816e66f69a8926786a9858f1caf0bbd099c82d85d9db66d927e9986f664736f6c63430008150033a26469706673582212208c567fe1bca2e8845ee63761d92e29a21b1c2be026fa2116ead8140c095e0f4164736f6c63430008150033",
  "linkReferences": {},
  "deployedLinkReferences": {}
}