{
  "_format": "hh-sol-artifact-1",
  "contractName": "AgentRegistry",
  "sourceName": "contracts/AgentRegistry.sol",
  "abi": [
    {
      "inputs": [
        {
          "internalType": "string",
          "name": "_name",
          "type": "string"
        },
        {
          "internalType": "string",
          "name": "_symbol",
          "type": "string"
        },
        {
          "internalType": "string",
          "name": "_baseURI",
          "type": "string"
        }
      ],
      "stateMutability": "nonpayable",
      "type": "constructor"
    },
    {
      "inputs": [
        {
          "internalType": "address",
          "name": "operator",
          "type": "address"
        }
      ],
      "name": "AgentInstanceRegistered",
      "type": "error"
    },
    {
      "inputs": [
        {
          "internalType": "uint256",
          "name": "serviceId",
          "type": "uint256"
        }
      ],
      "name": "AgentInstancesSlotsFilled",
      "type": "error"
    },
    {
      "inputs": [
        {
          "internalType": "uint256",
          "name": "agentId",
          "type": "uint256"
        }
      ],
      "name": "AgentNotFound",
      "type": "error"
    },
    {
      "inputs": [
        {
          "internalType": "uint256",
          "name": "agentId",
          "type": "uint256"
        },
        {
          "internalType": "uint256",
          "name": "serviceId",
          "type": "uint256"
        }
      ],
      "name": "AgentNotInService",
      "type": "error"
    },
    {
      "inputs": [
        {
          "internalType": "uint256",
          "name": "componentId",
          "type": "uint256"
        }
      ],
      "name": "ComponentNotFound",
      "type": "error"
    },
    {
      "inputs": [],
      "name": "HashExists",
      "type": "error"
    },
    {
      "inputs": [
        {
          "internalType": "uint256",
          "name": "sent",
          "type": "uint256"
        },
        {
          "internalType": "uint256",
          "name": "expected",
          "type": "uint256"
        },
        {
          "internalType": "uint256",
          "name": "serviceId",
          "type": "uint256"
        }
      ],
      "name": "IncorrectAgentBondingValue",
      "type": "error"
    },
    {
      "inputs": [
        {
          "internalType": "uint256",
          "name": "sent",
          "type": "uint256"
        },
        {
          "internalType": "uint256",
          "name": "expected",
          "type": "uint256"
        },
        {
          "internalType": "uint256",
          "name": "serviceId",
          "type": "uint256"
        }
      ],
      "name": "IncorrectRegistrationDepositValue",
      "type": "error"
    },
    {
      "inputs": [
        {
          "internalType": "address",
          "name": "sender",
          "type": "address"
        },
        {
          "internalType": "address",
          "name": "manager",
          "type": "address"
        }
      ],
      "name": "ManagerOnly",
      "type": "error"
    },
    {
      "inputs": [
        {
          "internalType": "address",
          "name": "provided",
          "type": "address"
        },
        {
          "internalType": "address",
          "name": "expected",
          "type": "address"
        },
        {
          "internalType": "uint256",
          "name": "serviceId",
          "type": "uint256"
        }
      ],
      "name": "OnlyOwnServiceMultisig",
      "type": "error"
    },
    {
      "inputs": [
        {
          "internalType": "address",
          "name": "operator",
          "type": "address"
        },
        {
          "internalType": "uint256",
          "name": "serviceId",
          "type": "uint256"
        }
      ],
      "name": "OperatorHasNoInstances",
      "type": "error"
    },
    {
      "inputs": [
        {
          "internalType": "address",
          "name": "sender",
          "type": "address"
        },
        {
          "internalType": "address",
          "name": "owner",
          "type": "address"
        },
        {
          "internalType": "uint256",
          "name": "agentId",
          "type": "uint256"
        }
      ],
      "name": "OperatorOnly",
      "type": "error"
    },
    {
      "inputs": [
        {
          "internalType": "uint256",
          "name": "provided",
          "type": "uint256"
        },
        {
          "internalType": "uint256",
          "name": "max",
          "type": "uint256"
        }
      ],
      "name": "Overflow",
      "type": "error"
    },
    {
      "inputs": [
        {
          "internalType": "address",
          "name": "sender",
          "type": "address"
        },
        {
          "internalType": "address",
          "name": "owner",
          "type": "address"
        }
      ],
      "name": "OwnerOnly",
      "type": "error"
    },
    {
      "inputs": [],
      "name": "Paused",
      "type": "error"
    },
    {
      "inputs": [],
      "name": "ReentrancyGuard",
      "type": "error"
    },
    {
      "inputs": [
        {
          "internalType": "uint256",
          "name": "serviceId",
          "type": "uint256"
        }
      ],
      "name": "ServiceMustBeInactive",
      "type": "error"
    },
    {
      "inputs": [
        {
          "internalType": "address",
          "name": "token",
          "type": "address"
        },
        {
          "internalType": "address",
          "name": "from",
          "type": "address"
        },
        {
          "internalType": "address",
          "name": "to",
          "type": "address"
        },
        {
          "internalType": "uint256",
          "name": "value",
          "type": "uint256"
        }
      ],
      "name": "TransferFailed",
      "type": "error"
    },
    {
      "inputs": [
        {
          "internalType": "address",
          "name": "multisig",
          "type": "address"
        }
      ],
      "name": "UnauthorizedMultisig",
      "type": "error"
    },
    {
      "inputs": [
        {
          "internalType": "uint256",
          "name": "agentId",
          "type": "uint256"
        }
      ],
      "name": "WrongAgentId",
      "type": "error"
    },
    {
      "inputs": [
        {
          "internalType": "uint256",
          "name": "numValues1",
          "type": "uint256"
        },
        {
          "internalType": "uint256",
          "name": "numValues2",
          "type": "uint256"
        }
      ],
      "name": "WrongArrayLength",
      "type": "error"
    },
    {
      "inputs": [
        {
          "internalType": "uint256",
          "name": "serviceId",
          "type": "uint256"
        }
      ],
      "name": "WrongOperator",
      "type": "error"
    },
    {
      "inputs": [
        {
          "internalType": "uint256",
          "name": "state",
          "type": "uint256"
        },
        {
          "internalType": "uint256",
          "name": "serviceId",
          "type": "uint256"
        }
      ],
      "name": "WrongServiceState",
      "type": "error"
    },
    {
      "inputs": [
        {
          "internalType": "uint256",
          "name": "currentThreshold",
          "type": "uint256"
        },
        {
          "internalType": "uint256",
          "name": "minThreshold",
          "type": "uint256"
        },
        {
          "internalType": "uint256",
          "name": "maxThreshold",
          "type": "uint256"
        }
      ],
      "name": "WrongThreshold",
      "type": "error"
    },
    {
      "inputs": [],
      "name": "ZeroAddress",
      "type": "error"
    },
    {
      "inputs": [],
      "name": "ZeroValue",
      "type": "error"
    },
    {
      "anonymous": false,
      "inputs": [
        {
          "indexed": true,
          "internalType": "address",
          "name": "owner",
          "type": "address"
        },
        {
          "indexed": true,
          "internalType": "address",
          "name": "spender",
          "type": "address"
        },
        {
          "indexed": true,
          "internalType": "uint256",
          "name": "id",
          "type": "uint256"
        }
      ],
      "name": "Approval",
      "type": "event"
    },
    {
      "anonymous": false,
      "inputs": [
        {
          "indexed": true,
          "internalType": "address",
          "name": "owner",
          "type": "address"
        },
        {
          "indexed": true,
          "internalType": "address",
          "name": "operator",
          "type": "address"
        },
        {
          "indexed": false,
          "internalType": "bool",
          "name": "approved",
          "type": "bool"
        }
      ],
      "name": "ApprovalForAll",
      "type": "event"
    },
    {
      "anonymous": false,
      "inputs": [
        {
          "indexed": false,
          "internalType": "string",
          "name": "baseURI",
          "type": "string"
        }
      ],
      "name": "BaseURIChanged",
      "type": "event"
    },
    {
      "anonymous": false,
      "inputs": [
        {
          "indexed": true,
          "internalType": "uint256",
          "name": "agentId",
          "type": "uint256"
        },
        {
          "indexed": false,
          "internalType": "bytes32",
          "name": "agentHash",
          "type": "bytes32"
        }
      ],
      "name": "CreateAgent",
      "type": "event"
    },
    {
      "anonymous": false,
      "inputs": [
        {
          "indexed": true,
          "internalType": "address",
          "name": "manager",
          "type": "address"
        }
      ],
      "name": "ManagerUpdated",
      "type": "event"
    },
    {
      "anonymous": false,
      "inputs": [
        {
          "indexed": true,
          "internalType": "address",
          "name": "owner",
          "type": "address"
        }
      ],
      "name": "OwnerUpdated",
      "type": "event"
    },
    {
      "anonymous": false,
      "inputs": [
        {
          "indexed": true,
          "internalType": "address",
          "name": "from",
          "type": "address"
        },
        {
          "indexed": true,
          "internalType": "address",
          "name": "to",
          "type": "address"
        },
        {
          "indexed": true,
          "internalType": "uint256",
          "name": "id",
          "type": "uint256"
        }
      ],
      "name": "Transfer",
      "type": "event"
    },
    {
      "anonymous": false,
      "inputs": [
        {
          "indexed": true,
          "internalType": "uint256",
          "name": "agentId",
          "type": "uint256"
        },
        {
          "indexed": false,
          "internalType": "bytes32",
          "name": "agentHash",
          "type": "bytes32"
        }
      ],
      "name": "UpdateAgentHash",
      "type": "event"
    },
    {
      "inputs": [],
      "name": "CID_PREFIX",
      "outputs": [
        {
          "internalType": "string",
          "name": "",
          "type": "string"
        }
      ],
      "stateMutability": "view",
      "type": "function"
    },
    {
      "inputs": [],
      "name": "VERSION",
      "outputs": [
        {
          "internalType": "string",
          "name": "",
          "type": "string"
        }
      ],
      "stateMutability": "view",
      "type": "function"
    },
    {
      "inputs": [
        {
          "internalType": "address",
          "name": "spender",
          "type": "address"
        },
        {
          "internalType": "uint256",
          "name": "id",
          "type": "uint256"
        }
      ],
      "name": "approve",
      "outputs": [],
      "stateMutability": "nonpayable",
      "type": "function"
    },
    {
      "inputs": [
        {
          "internalType": "address",
          "name": "owner",
          "type": "address"
        }
      ],
      "name": "balanceOf",
      "outputs": [
        {
          "internalType": "uint256",
          "name": "",
          "type": "uint256"
        }
      ],
      "stateMutability": "view",
      "type": "function"
    },
    {
      "inputs": [],
      "name": "baseURI",
      "outputs": [
        {
          "internalType": "string",
          "name": "",
          "type": "string"
        }
      ],
      "stateMutability": "view",
      "type": "function"
    },
    {
      "inputs": [
        {
          "internalType": "address",
          "name": "newManager",
          "type": "address"
        }
      ],
      "name": "changeManager",
      "outputs": [],
      "stateMutability": "nonpayable",
      "type": "function"
    },
    {
      "inputs": [
        {
          "internalType": "address",
          "name": "newOwner",
          "type": "address"
        }
      ],
      "name": "changeOwner",
      "outputs": [],
      "stateMutability": "nonpayable",
      "type": "function"
    },
    {
      "inputs": [
        {
          "internalType": "address",
          "name": "agentOwner",
          "type": "address"
        },
        {
          "internalType": "bytes32",
          "name": "agentHash",
          "type": "bytes32"
        }
      ],
      "name": "create",
      "outputs": [
        {
          "internalType": "uint256",
          "name": "agentId",
          "type": "uint256"
        }
      ],
      "stateMutability": "nonpayable",
      "type": "function"
    },
    {
      "inputs": [
        {
          "internalType": "uint256",
          "name": "unitId",
          "type": "uint256"
        }
      ],
      "name": "exists",
      "outputs": [
        {
          "internalType": "bool",
          "name": "",
          "type": "bool"
        }
      ],
      "stateMutability": "view",
      "type": "function"
    },
    {
      "inputs": [
        {
          "internalType": "uint256",
          "name": "",
          "type": "uint256"
        }
      ],
      "name": "getApproved",
      "outputs": [
        {
          "internalType": "address",
          "name": "",
          "type": "address"
        }
      ],
      "stateMutability": "view",
      "type": "function"
    },
    {
      "inputs": [
        {
          "internalType": "uint256",
          "name": "agentId",
          "type": "uint256"
        }
      ],
      "name": "getHashes",
      "outputs": [
        {
          "internalType": "uint256",
          "name": "numHashes",
          "type": "uint256"
        },
        {
          "internalType": "bytes32[]",
          "name": "agentHashes",
          "type": "bytes32[]"
        }
      ],
      "stateMutability": "view",
      "type": "function"
    },
    {
      "inputs": [
        {
          "internalType": "address",
          "name": "",
          "type": "address"
        },
        {
          "internalType": "address",
          "name": "",
          "type": "address"
        }
      ],
      "name": "isApprovedForAll",
      "outputs": [
        {
          "internalType": "bool",
          "name": "",
          "type": "bool"
        }
      ],
      "stateMutability": "view",
      "type": "function"
    },
    {
      "inputs": [],
      "name": "manager",
      "outputs": [
        {
          "internalType": "address",
          "name": "",
          "type": "address"
        }
      ],
      "stateMutability": "view",
      "type": "function"
    },
    {
      "inputs": [
        {
          "internalType": "uint256",
          "name": "",
          "type": "uint256"
        },
        {
          "internalType": "uint256",
          "name": "",
          "type": "uint256"
        }
      ],
      "name": "mapAgentIdHashes",
      "outputs": [
        {
          "internalType": "bytes32",
          "name": "",
          "type": "bytes32"
        }
      ],
      "stateMutability": "view",
      "type": "function"
    },
    {
      "inputs": [],
      "name": "name",
      "outputs": [
        {
          "internalType": "string",
          "name": "",
          "type": "string"
        }
      ],
      "stateMutability": "view",
      "type": "function"
    },
    {
      "inputs": [],
      "name": "owner",
      "outputs": [
        {
          "internalType": "address",
          "name": "",
          "type": "address"
        }
      ],
      "stateMutability": "view",
      "type": "function"
    },
    {
      "inputs": [
        {
          "internalType": "uint256",
          "name": "id",
          "type": "uint256"
        }
      ],
      "name": "ownerOf",
      "outputs": [
        {
          "internalType": "address",
          "name": "owner",
          "type": "address"
        }
      ],
      "stateMutability": "view",
      "type": "function"
    },
    {
      "inputs": [
        {
          "internalType": "address",
          "name": "from",
          "type": "address"
        },
        {
          "internalType": "address",
          "name": "to",
          "type": "address"
        },
        {
          "internalType": "uint256",
          "name": "id",
          "type": "uint256"
        }
      ],
      "name": "safeTransferFrom",
      "outputs": [],
      "stateMutability": "nonpayable",
      "type": "function"
    },
    {
      "inputs": [
        {
          "internalType": "address",
          "name": "from",
          "type": "address"
        },
        {
          "internalType": "address",
          "name": "to",
          "type": "address"
        },
        {
          "internalType": "uint256",
          "name": "id",
          "type": "uint256"
        },
        {
          "internalType": "bytes",
          "name": "data",
          "type": "bytes"
        }
      ],
      "name": "safeTransferFrom",
      "outputs": [],
      "stateMutability": "nonpayable",
      "type": "function"
    },
    {
      "inputs": [
        {
          "internalType": "address",
          "name": "operator",
          "type": "address"
        },
        {
          "internalType": "bool",
          "name": "approved",
          "type": "bool"
        }
      ],
      "name": "setApprovalForAll",
      "outputs": [],
      "stateMutability": "nonpayable",
      "type": "function"
    },
    {
      "inputs": [
        {
          "internalType": "string",
          "name": "bURI",
          "type": "string"
        }
      ],
      "name": "setBaseURI",
      "outputs": [],
      "stateMutability": "nonpayable",
      "type": "function"
    },
    {
      "inputs": [
        {
          "internalType": "bytes4",
          "name": "interfaceId",
          "type": "bytes4"
        }
      ],
      "name": "supportsInterface",
      "outputs": [
        {
          "internalType": "bool",
          "name": "",
          "type": "bool"
        }
      ],
      "stateMutability": "view",
      "type": "function"
    },
    {
      "inputs": [],
      "name": "symbol",
      "outputs": [
        {
          "internalType": "string",
          "name": "",
          "type": "string"
        }
      ],
      "stateMutability": "view",
      "type": "function"
    },
    {
      "inputs": [
        {
          "internalType": "uint256",
          "name": "id",
          "type": "uint256"
        }
      ],
      "name": "tokenByIndex",
      "outputs": [
        {
          "internalType": "uint256",
          "name": "unitId",
          "type": "uint256"
        }
      ],
      "stateMutability": "view",
      "type": "function"
    },
    {
      "inputs": [
        {
          "internalType": "uint256",
          "name": "unitId",
          "type": "uint256"
        }
      ],
      "name": "tokenURI",
      "outputs": [
        {
          "internalType": "string",
          "name": "",
          "type": "string"
        }
      ],
      "stateMutability": "view",
      "type": "function"
    },
    {
      "inputs": [],
      "name": "totalSupply",
      "outputs": [
        {
          "internalType": "uint256",
          "name": "",
          "type": "uint256"
        }
      ],
      "stateMutability": "view",
      "type": "function"
    },
    {
      "inputs": [
        {
          "internalType": "address",
          "name": "from",
          "type": "address"
        },
        {
          "internalType": "address",
          "name": "to",
          "type": "address"
        },
        {
          "internalType": "uint256",
          "name": "id",
          "type": "uint256"
        }
      ],
      "name": "transferFrom",
      "outputs": [],
      "stateMutability": "nonpayable",
      "type": "function"
    },
    {
      "inputs": [
        {
          "internalType": "uint256",
          "name": "agentId",
          "type": "uint256"
        },
        {
          "internalType": "bytes32",
          "name": "agentHash",
          "type": "bytes32"
        }
      ],
      "name": "updateHash",
      "outputs": [
        {
          "internalType": "bool",
          "name": "success",
          "type": "bool"
        }
      ],
      "stateMutability": "nonpayable",
      "type": "function"
    }
  ],
  "bytecode": "0x60806040526001600a553480156200001657600080fd5b50604051620027fa380380620027fa833981016040819052620000399162000150565b8282600062000049838262000272565b50600162000058828262000272565b50600891506200006b9050828262000272565b5050600680546001600160a01b03191633179055506200033e9050565b634e487b7160e01b600052604160045260246000fd5b600082601f830112620000b057600080fd5b81516001600160401b0380821115620000cd57620000cd62000088565b604051601f8301601f19908116603f01168101908282118183101715620000f857620000f862000088565b81604052838152602092508660208588010111156200011657600080fd5b600091505b838210156200013a57858201830151818301840152908201906200011b565b6000602085830101528094505050505092915050565b6000806000606084860312156200016657600080fd5b83516001600160401b03808211156200017e57600080fd5b6200018c878388016200009e565b94506020860151915080821115620001a357600080fd5b620001b1878388016200009e565b93506040860151915080821115620001c857600080fd5b50620001d7868287016200009e565b9150509250925092565b600181811c90821680620001f657607f821691505b6020821081036200021757634e487b7160e01b600052602260045260246000fd5b50919050565b601f8211156200026d576000816000526020600020601f850160051c81016020861015620002485750805b601f850160051c820191505b81811015620002695782815560010162000254565b5050505b505050565b81516001600160401b038111156200028e576200028e62000088565b620002a6816200029f8454620001e1565b846200021d565b602080601f831160018114620002de5760008415620002c55750858301515b600019600386901b1c1916600185901b17855562000269565b600085815260208120601f198616915b828110156200030f57888601518255948401946001909101908401620002ee565b50858210156200032e5787850151600019600388901b60f8161c191681555b5050505050600190811b01905550565b6124ac806200034e6000396000f3fe608060405234801561001057600080fd5b50600436106101c45760003560e01c806370a08231116100f9578063a3fbbaae11610097578063b88d4fde11610071578063b88d4fde14610431578063c87b56dd14610444578063e985e9c514610457578063ffa1ad741461048557600080fd5b8063a3fbbaae146103f8578063a6f9dae11461040b578063b1f52e801461041e57600080fd5b80638da5cb5b116100d35780638da5cb5b146103aa57806395d89b41146103ca578063a22cb465146103d2578063a3def923146103e557600080fd5b806370a08231146103485780637647a90c1461035b5780637c5e63e01461036e57600080fd5b806342842e0e116101665780634f6ccce7116101405780634f6ccce71461030757806355f804b31461031a5780636352211e1461032d5780636c0360eb1461034057600080fd5b806342842e0e146102c1578063481c6a75146102d45780634f558e79146102f457600080fd5b8063081812fc116101a2578063081812fc14610227578063095ea7b31461028257806318160ddd1461029757806323b872dd146102ae57600080fd5b806301ffc9a7146101c957806302a8ca10146101f157806306fdde0314610212575b600080fd5b6101dc6101d7366004611cc9565b6104c1565b60405190151581526020015b60405180910390f35b6102046101ff366004611ced565b6105a6565b6040516101e8929190611d06565b61021a610664565b6040516101e89190611d7a565b61025d610235366004611ced565b60046020526000908152604090205473ffffffffffffffffffffffffffffffffffffffff1681565b60405173ffffffffffffffffffffffffffffffffffffffff90911681526020016101e8565b610295610290366004611def565b6106f2565b005b6102a060095481565b6040519081526020016101e8565b6102956102bc366004611e19565b61083c565b6102956102cf366004611e19565b610b03565b60075461025d9073ffffffffffffffffffffffffffffffffffffffff1681565b6101dc610302366004611ced565b610c6a565b6102a0610315366004611ced565b610c8c565b610295610328366004611e84565b610cea565b61025d61033b366004611ced565b610ddf565b61021a610e6b565b6102a0610356366004611f53565b610e78565b6102a0610369366004611f6e565b610f20565b61021a6040518060400160405280600981526020017f663031373031323230000000000000000000000000000000000000000000000081525081565b60065461025d9073ffffffffffffffffffffffffffffffffffffffff1681565b61021a610f51565b6102956103e0366004611f90565b610f5e565b6102a06103f3366004611def565b610ff5565b610295610406366004611f53565b6111bb565b610295610419366004611f53565b6112ea565b6101dc61042c366004611f6e565b611419565b61029561043f366004611fcc565b611538565b61021a610452366004611ced565b61168f565b6101dc610465366004612067565b600560209081526000928352604080842090915290825290205460ff1681565b61021a6040518060400160405280600581526020017f312e302e3000000000000000000000000000000000000000000000000000000081525081565b60007f01ffc9a7000000000000000000000000000000000000000000000000000000007fffffffff000000000000000000000000000000000000000000000000000000008316148061055457507f80ac58cd000000000000000000000000000000000000000000000000000000007fffffffff000000000000000000000000000000000000000000000000000000008316145b806105a057507f5b5e139f000000000000000000000000000000000000000000000000000000007fffffffff000000000000000000000000000000000000000000000000000000008316145b92915050565b600060606000831180156105bc57506009548311155b15610621576000838152600b60209081526040918290208054835181840281018401909452808452909183018282801561061557602002820191906000526020600020905b815481526020019060010190808311610601575b5050505050905061065b565b6040517f0ede9759000000000000000000000000000000000000000000000000000000008152600481018490526024015b60405180910390fd5b80519150915091565b600080546106719061209a565b80601f016020809104026020016040519081016040528092919081815260200182805461069d9061209a565b80156106ea5780601f106106bf576101008083540402835291602001916106ea565b820191906000526020600020905b8154815290600101906020018083116106cd57829003601f168201915b505050505081565b60008181526002602052604090205473ffffffffffffffffffffffffffffffffffffffff1633811480610755575073ffffffffffffffffffffffffffffffffffffffff8116600090815260056020908152604080832033845290915290205460ff165b6107bb576040517f08c379a000000000000000000000000000000000000000000000000000000000815260206004820152600e60248201527f4e4f545f415554484f52495a45440000000000000000000000000000000000006044820152606401610652565b60008281526004602052604080822080547fffffffffffffffffffffffff00000000000000000000000000000000000000001673ffffffffffffffffffffffffffffffffffffffff87811691821790925591518593918516917f8c5be1e5ebec7d5bd14f71427d1e84f3dd0314c0f7b2291e5b200ac8c7c3b92591a4505050565b60008181526002602052604090205473ffffffffffffffffffffffffffffffffffffffff8481169116146108cc576040517f08c379a000000000000000000000000000000000000000000000000000000000815260206004820152600a60248201527f57524f4e475f46524f4d000000000000000000000000000000000000000000006044820152606401610652565b73ffffffffffffffffffffffffffffffffffffffff8216610949576040517f08c379a000000000000000000000000000000000000000000000000000000000815260206004820152601160248201527f494e56414c49445f524543495049454e540000000000000000000000000000006044820152606401610652565b3373ffffffffffffffffffffffffffffffffffffffff8416148061099d575073ffffffffffffffffffffffffffffffffffffffff8316600090815260056020908152604080832033845290915290205460ff165b806109cb575060008181526004602052604090205473ffffffffffffffffffffffffffffffffffffffff1633145b610a31576040517f08c379a000000000000000000000000000000000000000000000000000000000815260206004820152600e60248201527f4e4f545f415554484f52495a45440000000000000000000000000000000000006044820152606401610652565b73ffffffffffffffffffffffffffffffffffffffff808416600081815260036020908152604080832080547fffffffffffffffffffffffffffffffffffffffffffffffffffffffffffffffff019055938616808352848320805460010190558583526002825284832080547fffffffffffffffffffffffff00000000000000000000000000000000000000009081168317909155600490925284832080549092169091559251849392917fddf252ad1be2c89b69c2b068fc378daa952ba7f163c4a11628f55a4df523b3ef91a4505050565b610b0e83838361083c565b73ffffffffffffffffffffffffffffffffffffffff82163b15610c65576040517f150b7a020000000000000000000000000000000000000000000000000000000080825233600483015273ffffffffffffffffffffffffffffffffffffffff858116602484015260448301849052608060648401526000608484015290919084169063150b7a029060a4016020604051808303816000875af1158015610bb8573d6000803e3d6000fd5b505050506040513d601f19601f82011682018060405250810190610bdc91906120ed565b7fffffffff000000000000000000000000000000000000000000000000000000001614610c65576040517f08c379a000000000000000000000000000000000000000000000000000000000815260206004820152601060248201527f554e534146455f524543495049454e54000000000000000000000000000000006044820152606401610652565b505050565b600080821180156105a05750600954610c84906001612139565b821092915050565b6000610c99826001612139565b9050600954811115610ce5576009546040517f7ae59685000000000000000000000000000000000000000000000000000000008152610652918391600401918252602082015260400190565b919050565b60065473ffffffffffffffffffffffffffffffffffffffff163314610d5d576006546040517fa43d6ada00000000000000000000000000000000000000000000000000000000815233600482015273ffffffffffffffffffffffffffffffffffffffff9091166024820152604401610652565b8051600003610d98576040517f7c946ed700000000000000000000000000000000000000000000000000000000815260040160405180910390fd5b6008610da4828261219c565b507f5411e8ebf1636d9e83d5fc4900bf80cbac82e8790da2a4c94db4895e889eedf681604051610dd49190611d7a565b60405180910390a150565b60008181526002602052604090205473ffffffffffffffffffffffffffffffffffffffff1680610ce5576040517f08c379a000000000000000000000000000000000000000000000000000000000815260206004820152600a60248201527f4e4f545f4d494e544544000000000000000000000000000000000000000000006044820152606401610652565b600880546106719061209a565b600073ffffffffffffffffffffffffffffffffffffffff8216610ef7576040517f08c379a000000000000000000000000000000000000000000000000000000000815260206004820152600c60248201527f5a45524f5f4144445245535300000000000000000000000000000000000000006044820152606401610652565b5073ffffffffffffffffffffffffffffffffffffffff1660009081526003602052604090205490565b600b6020528160005260406000208181548110610f3c57600080fd5b90600052602060002001600091509150505481565b600180546106719061209a565b33600081815260056020908152604080832073ffffffffffffffffffffffffffffffffffffffff87168085529083529281902080547fffffffffffffffffffffffffffffffffffffffffffffffffffffffffffffff001686151590811790915590519081529192917f17307eab39ab6107e8899845ad3d59bd9653f200f220920489ca2b5937696c31910160405180910390a35050565b60006001600a541115611034576040517f8beb9d1600000000000000000000000000000000000000000000000000000000815260040160405180910390fd5b6002600a5560075473ffffffffffffffffffffffffffffffffffffffff1633146110ac576007546040517f625a43fe00000000000000000000000000000000000000000000000000000000815233600482015273ffffffffffffffffffffffffffffffffffffffff9091166024820152604401610652565b73ffffffffffffffffffffffffffffffffffffffff83166110f9576040517fd92e233d00000000000000000000000000000000000000000000000000000000815260040160405180910390fd5b6000829003611134576040517f7c946ed700000000000000000000000000000000000000000000000000000000815260040160405180910390fd5b5060095480611142816122b6565b6000818152600b60209081526040822080546001810182559083529120018490556009819055915061117690508382611716565b807f17139772d2eecff1a9acaf38c64bfda7c833f94bf253bbdc6353c31e2f50712c836040516111a891815260200190565b60405180910390a26001600a5592915050565b60065473ffffffffffffffffffffffffffffffffffffffff16331461122e576006546040517fa43d6ada00000000000000000000000000000000000000000000000000000000815233600482015273ffffffffffffffffffffffffffffffffffffffff9091166024820152604401610652565b73ffffffffffffffffffffffffffffffffffffffff811661127b576040517fd92e233d00000000000000000000000000000000000000000000000000000000815260040160405180910390fd5b600780547fffffffffffffffffffffffff00000000000000000000000000000000000000001673ffffffffffffffffffffffffffffffffffffffff83169081179091556040517f2c1c11af44aa5608f1dca38c00275c30ea091e02417d36e70e9a1538689c433d90600090a250565b60065473ffffffffffffffffffffffffffffffffffffffff16331461135d576006546040517fa43d6ada00000000000000000000000000000000000000000000000000000000815233600482015273ffffffffffffffffffffffffffffffffffffffff9091166024820152604401610652565b73ffffffffffffffffffffffffffffffffffffffff81166113aa576040517fd92e233d00000000000000000000000000000000000000000000000000000000815260040160405180910390fd5b600680547fffffffffffffffffffffffff00000000000000000000000000000000000000001673ffffffffffffffffffffffffffffffffffffffff83169081179091556040517f4ffd725fc4a22075e9ec71c59edf9c38cdeb588a91b24fc5b61388c5be41282b90600090a250565b60008061142584610ddf565b905073ffffffffffffffffffffffffffffffffffffffff8116331461149b576040517f10c932fe00000000000000000000000000000000000000000000000000000000815273ffffffffffffffffffffffffffffffffffffffff8216600482015233602482015260448101859052606401610652565b60008390036114d6576040517f7c946ed700000000000000000000000000000000000000000000000000000000815260040160405180910390fd5b6000848152600b60209081526040808320805460018082018355918552938390209093018690555185815291935085917f4d9628eae8c81a6e4982f671587b937bacf76b149b3458fb5a8aec776b4c129a910160405180910390a25092915050565b61154385858561083c565b73ffffffffffffffffffffffffffffffffffffffff84163b15611688576040517f150b7a02000000000000000000000000000000000000000000000000000000008082529073ffffffffffffffffffffffffffffffffffffffff86169063150b7a02906115bc9033908a908990899089906004016122ee565b6020604051808303816000875af11580156115db573d6000803e3d6000fd5b505050506040513d601f19601f820116820180604052508101906115ff91906120ed565b7fffffffff000000000000000000000000000000000000000000000000000000001614611688576040517f08c379a000000000000000000000000000000000000000000000000000000000815260206004820152601060248201527f554e534146455f524543495049454e54000000000000000000000000000000006044820152606401610652565b5050505050565b6060600061169c83611878565b905060086040518060400160405280600981526020017f66303137303132323000000000000000000000000000000000000000000000008152506116df83611917565b6116ec608085901b611917565b6040516020016116ff949392919061236d565b604051602081830303815290604052915050919050565b6117208282611aff565b73ffffffffffffffffffffffffffffffffffffffff82163b15611874576040517f150b7a0200000000000000000000000000000000000000000000000000000000808252336004830152600060248301819052604483018490526080606484015260848301529073ffffffffffffffffffffffffffffffffffffffff84169063150b7a029060a4016020604051808303816000875af11580156117c7573d6000803e3d6000fd5b505050506040513d601f19601f820116820180604052508101906117eb91906120ed565b7fffffffff000000000000000000000000000000000000000000000000000000001614611874576040517f08c379a000000000000000000000000000000000000000000000000000000000815260206004820152601060248201527f554e534146455f524543495049454e54000000000000000000000000000000006044820152606401610652565b5050565b6000808211801561188b57506009548211155b156118e2576000828152600b60205260408120546118ab9060019061241d565b6000848152600b60205260409020805491925090829081106118cf576118cf612430565b9060005260206000200154915050919050565b6040517f0ede975900000000000000000000000000000000000000000000000000000000815260048101839052602401610652565b7aff00000000000000ff00000000000000ff00000000000000ff00006bffffffff0000000000000000604083901c9081167bffffffff00000000000000000000000000000000000000000000000084161760201c6fffffffff000000000000000000000000919091167fffffffff0000000000000000000000000000000000000000000000000000000084161717601081901c9182167eff00000000000000ff00000000000000ff00000000000000ff000000000000821617600890811c7bff00000000000000ff00000000000000ff00000000000000ff000000939093167fff00000000000000ff00000000000000ff00000000000000ff000000000000009290921691909117919091179081901c7e0f000f000f000f000f000f000f000f000f000f000f000f000f000f000f000f167f0f000f000f000f000f000f000f000f000f000f000f000f000f000f000f000f00600492831c161790611a9b827f0606060606060606060606060606060606060606060606060606060606060606612139565b901c7f0f0f0f0f0f0f0f0f0f0f0f0f0f0f0f0f0f0f0f0f0f0f0f0f0f0f0f0f0f0f0f0f166027611acb919061245f565b611af5827f3030303030303030303030303030303030303030303030303030303030303030612139565b6105a09190612139565b73ffffffffffffffffffffffffffffffffffffffff8216611b7c576040517f08c379a000000000000000000000000000000000000000000000000000000000815260206004820152601160248201527f494e56414c49445f524543495049454e540000000000000000000000000000006044820152606401610652565b60008181526002602052604090205473ffffffffffffffffffffffffffffffffffffffff1615611c08576040517f08c379a000000000000000000000000000000000000000000000000000000000815260206004820152600e60248201527f414c52454144595f4d494e5445440000000000000000000000000000000000006044820152606401610652565b73ffffffffffffffffffffffffffffffffffffffff8216600081815260036020908152604080832080546001019055848352600290915280822080547fffffffffffffffffffffffff0000000000000000000000000000000000000000168417905551839291907fddf252ad1be2c89b69c2b068fc378daa952ba7f163c4a11628f55a4df523b3ef908290a45050565b7fffffffff0000000000000000000000000000000000000000000000000000000081168114611cc657600080fd5b50565b600060208284031215611cdb57600080fd5b8135611ce681611c98565b9392505050565b600060208284031215611cff57600080fd5b5035919050565b60006040820184835260206040602085015281855180845260608601915060208701935060005b81811015611d4957845183529383019391830191600101611d2d565b5090979650505050505050565b60005b83811015611d71578181015183820152602001611d59565b50506000910152565b6020815260008251806020840152611d99816040850160208701611d56565b601f017fffffffffffffffffffffffffffffffffffffffffffffffffffffffffffffffe0169190910160400192915050565b803573ffffffffffffffffffffffffffffffffffffffff81168114610ce557600080fd5b60008060408385031215611e0257600080fd5b611e0b83611dcb565b946020939093013593505050565b600080600060608486031215611e2e57600080fd5b611e3784611dcb565b9250611e4560208501611dcb565b9150604084013590509250925092565b7f4e487b7100000000000000000000000000000000000000000000000000000000600052604160045260246000fd5b600060208284031215611e9657600080fd5b813567ffffffffffffffff80821115611eae57600080fd5b818401915084601f830112611ec257600080fd5b813581811115611ed457611ed4611e55565b604051601f82017fffffffffffffffffffffffffffffffffffffffffffffffffffffffffffffffe0908116603f01168101908382118183101715611f1a57611f1a611e55565b81604052828152876020848701011115611f3357600080fd5b826020860160208301376000928101602001929092525095945050505050565b600060208284031215611f6557600080fd5b611ce682611dcb565b60008060408385031215611f8157600080fd5b50508035926020909101359150565b60008060408385031215611fa357600080fd5b611fac83611dcb565b915060208301358015158114611fc157600080fd5b809150509250929050565b600080600080600060808688031215611fe457600080fd5b611fed86611dcb565b9450611ffb60208701611dcb565b935060408601359250606086013567ffffffffffffffff8082111561201f57600080fd5b818801915088601f83011261203357600080fd5b81358181111561204257600080fd5b89602082850101111561205457600080fd5b9699959850939650602001949392505050565b6000806040838503121561207a57600080fd5b61208383611dcb565b915061209160208401611dcb565b90509250929050565b600181811c908216806120ae57607f821691505b6020821081036120e7577f4e487b7100000000000000000000000000000000000000000000000000000000600052602260045260246000fd5b50919050565b6000602082840312156120ff57600080fd5b8151611ce681611c98565b7f4e487b7100000000000000000000000000000000000000000000000000000000600052601160045260246000fd5b808201808211156105a0576105a061210a565b601f821115610c65576000816000526020600020601f850160051c810160208610156121755750805b601f850160051c820191505b8181101561219457828155600101612181565b505050505050565b815167ffffffffffffffff8111156121b6576121b6611e55565b6121ca816121c4845461209a565b8461214c565b602080601f83116001811461221d57600084156121e75750858301515b7fffffffffffffffffffffffffffffffffffffffffffffffffffffffffffffffff600386901b1c1916600185901b178555612194565b6000858152602081207fffffffffffffffffffffffffffffffffffffffffffffffffffffffffffffffe08616915b8281101561226a5788860151825594840194600190910190840161224b565b50858210156122a657878501517fffffffffffffffffffffffffffffffffffffffffffffffffffffffffffffffff600388901b60f8161c191681555b5050505050600190811b01905550565b60007fffffffffffffffffffffffffffffffffffffffffffffffffffffffffffffffff82036122e7576122e761210a565b5060010190565b600073ffffffffffffffffffffffffffffffffffffffff808816835280871660208401525084604083015260806060830152826080830152828460a0840137600060a0848401015260a07fffffffffffffffffffffffffffffffffffffffffffffffffffffffffffffffe0601f85011683010190509695505050505050565b600080865461237b8161209a565b6001828116801561239357600181146123c6576123f5565b7fffffffffffffffffffffffffffffffffffffffffffffffffffffffffffffff00841687528215158302870194506123f5565b8a60005260208060002060005b858110156123ec5781548a8201529084019082016123d3565b50505082870194505b505050508551612409818360208a01611d56565b019384525050602082015260400192915050565b818103818111156105a0576105a061210a565b7f4e487b7100000000000000000000000000000000000000000000000000000000600052603260045260246000fd5b80820281158282048414176105a0576105a061210a56fea26469706673582212204efd1af7aa6010e58904cbd97b87de0696c2b71a0e7a7d48cf812ac79fd54d4464736f6c63430008170033",
  "linkReferences": {},
  "deployedLinkReferences": {}
}