{
  "_format": "hh-sol-artifact-1",
  "contractName": "AgentFactorySubscription",
  "sourceName": "contracts/integrations/nevermined/AgentFactorySubscription.sol",
  "abi": [
    {
      "inputs": [
        {
          "internalType": "address",
          "name": "_agentRegistry",
          "type": "address"
        }
      ],
      "stateMutability": "nonpayable",
      "type": "constructor"
    },
    {
      "inputs": [
        {
          "internalType": "address",
          "name": "operator",
          "type": "address"
        }
      ],
      "name": "AgentInstanceRegistered",
      "type": "error"
    },
    {
      "inputs": [
        {
          "internalType": "uint256",
          "name": "serviceId",
          "type": "uint256"
        }
      ],
      "name": "AgentInstancesSlotsFilled",
      "type": "error"
    },
    {
      "inputs": [
        {
          "internalType": "uint256",
          "name": "agentId",
          "type": "uint256"
        }
      ],
      "name": "AgentNotFound",
      "type": "error"
    },
    {
      "inputs": [
        {
          "internalType": "uint256",
          "name": "agentId",
          "type": "uint256"
        },
        {
          "internalType": "uint256",
          "name": "serviceId",
          "type": "uint256"
        }
      ],
      "name": "AgentNotInService",
      "type": "error"
    },
    {
      "inputs": [
        {
          "internalType": "uint256",
          "name": "componentId",
          "type": "uint256"
        }
      ],
      "name": "ComponentNotFound",
      "type": "error"
    },
    {
      "inputs": [],
      "name": "HashExists",
      "type": "error"
    },
    {
      "inputs": [
        {
          "internalType": "uint256",
          "name": "sent",
          "type": "uint256"
        },
        {
          "internalType": "uint256",
          "name": "expected",
          "type": "uint256"
        },
        {
          "internalType": "uint256",
          "name": "serviceId",
          "type": "uint256"
        }
      ],
      "name": "IncorrectAgentBondingValue",
      "type": "error"
    },
    {
      "inputs": [
        {
          "internalType": "uint256",
          "name": "sent",
          "type": "uint256"
        },
        {
          "internalType": "uint256",
          "name": "expected",
          "type": "uint256"
        },
        {
          "internalType": "uint256",
          "name": "serviceId",
          "type": "uint256"
        }
      ],
      "name": "IncorrectRegistrationDepositValue",
      "type": "error"
    },
    {
      "inputs": [
        {
          "internalType": "address",
          "name": "sender",
          "type": "address"
        },
        {
          "internalType": "address",
          "name": "manager",
          "type": "address"
        }
      ],
      "name": "ManagerOnly",
      "type": "error"
    },
    {
      "inputs": [
        {
          "internalType": "address",
          "name": "provided",
          "type": "address"
        },
        {
          "internalType": "address",
          "name": "expected",
          "type": "address"
        },
        {
          "internalType": "uint256",
          "name": "serviceId",
          "type": "uint256"
        }
      ],
      "name": "OnlyOwnServiceMultisig",
      "type": "error"
    },
    {
      "inputs": [
        {
          "internalType": "address",
          "name": "operator",
          "type": "address"
        },
        {
          "internalType": "uint256",
          "name": "serviceId",
          "type": "uint256"
        }
      ],
      "name": "OperatorHasNoInstances",
      "type": "error"
    },
    {
      "inputs": [
        {
          "internalType": "uint256",
          "name": "provided",
          "type": "uint256"
        },
        {
          "internalType": "uint256",
          "name": "max",
          "type": "uint256"
        }
      ],
      "name": "Overflow",
      "type": "error"
    },
    {
      "inputs": [
        {
          "internalType": "address",
          "name": "sender",
          "type": "address"
        },
        {
          "internalType": "address",
          "name": "owner",
          "type": "address"
        }
      ],
      "name": "OwnerOnly",
      "type": "error"
    },
    {
      "inputs": [],
      "name": "Paused",
      "type": "error"
    },
    {
      "inputs": [],
      "name": "ReentrancyGuard",
      "type": "error"
    },
    {
      "inputs": [
        {
          "internalType": "uint256",
          "name": "serviceId",
          "type": "uint256"
        }
      ],
      "name": "ServiceMustBeInactive",
      "type": "error"
    },
    {
      "inputs": [
        {
          "internalType": "address",
          "name": "token",
          "type": "address"
        },
        {
          "internalType": "address",
          "name": "from",
          "type": "address"
        },
        {
          "internalType": "address",
          "name": "to",
          "type": "address"
        },
        {
          "internalType": "uint256",
          "name": "value",
          "type": "uint256"
        }
      ],
      "name": "TransferFailed",
      "type": "error"
    },
    {
      "inputs": [
        {
          "internalType": "address",
          "name": "multisig",
          "type": "address"
        }
      ],
      "name": "UnauthorizedMultisig",
      "type": "error"
    },
    {
      "inputs": [
        {
          "internalType": "uint256",
          "name": "agentId",
          "type": "uint256"
        }
      ],
      "name": "WrongAgentId",
      "type": "error"
    },
    {
      "inputs": [
        {
          "internalType": "uint256",
          "name": "numValues1",
          "type": "uint256"
        },
        {
          "internalType": "uint256",
          "name": "numValues2",
          "type": "uint256"
        }
      ],
      "name": "WrongArrayLength",
      "type": "error"
    },
    {
      "inputs": [
        {
          "internalType": "uint256",
          "name": "serviceId",
          "type": "uint256"
        }
      ],
      "name": "WrongOperator",
      "type": "error"
    },
    {
      "inputs": [
        {
          "internalType": "uint256",
          "name": "state",
          "type": "uint256"
        },
        {
          "internalType": "uint256",
          "name": "serviceId",
          "type": "uint256"
        }
      ],
      "name": "WrongServiceState",
      "type": "error"
    },
    {
      "inputs": [
        {
          "internalType": "uint256",
          "name": "currentThreshold",
          "type": "uint256"
        },
        {
          "internalType": "uint256",
          "name": "minThreshold",
          "type": "uint256"
        },
        {
          "internalType": "uint256",
          "name": "maxThreshold",
          "type": "uint256"
        }
      ],
      "name": "WrongThreshold",
      "type": "error"
    },
    {
      "inputs": [],
      "name": "ZeroAddress",
      "type": "error"
    },
    {
      "inputs": [],
      "name": "ZeroValue",
      "type": "error"
    },
    {
      "anonymous": false,
      "inputs": [
        {
          "indexed": true,
          "internalType": "address",
          "name": "mech",
          "type": "address"
        },
        {
          "indexed": true,
          "internalType": "uint256",
          "name": "agentId",
          "type": "uint256"
        },
        {
          "indexed": false,
          "internalType": "uint256",
          "name": "minCreditsPerRequest",
          "type": "uint256"
        },
        {
          "indexed": true,
          "internalType": "address",
          "name": "subscriptionNFT",
          "type": "address"
        },
        {
          "indexed": false,
          "internalType": "uint256",
          "name": "subscriptionTokenId",
          "type": "uint256"
        }
      ],
      "name": "CreateMech",
      "type": "event"
    },
    {
      "anonymous": false,
      "inputs": [
        {
          "indexed": true,
          "internalType": "address",
          "name": "owner",
          "type": "address"
        }
      ],
      "name": "OwnerUpdated",
      "type": "event"
    },
    {
      "anonymous": false,
      "inputs": [
        {
          "indexed": true,
          "internalType": "address",
          "name": "owner",
          "type": "address"
        }
      ],
      "name": "Pause",
      "type": "event"
    },
    {
      "anonymous": false,
      "inputs": [
        {
          "indexed": true,
          "internalType": "address",
          "name": "owner",
          "type": "address"
        }
      ],
      "name": "Unpause",
      "type": "event"
    },
    {
      "inputs": [],
      "name": "VERSION",
      "outputs": [
        {
          "internalType": "string",
          "name": "",
          "type": "string"
        }
      ],
      "stateMutability": "view",
      "type": "function"
    },
    {
      "inputs": [],
      "name": "agentRegistry",
      "outputs": [
        {
          "internalType": "address",
          "name": "",
          "type": "address"
        }
      ],
      "stateMutability": "view",
      "type": "function"
    },
    {
      "inputs": [
        {
          "internalType": "address",
          "name": "newOwner",
          "type": "address"
        }
      ],
      "name": "changeOwner",
      "outputs": [],
      "stateMutability": "nonpayable",
      "type": "function"
    },
    {
      "inputs": [
        {
          "internalType": "address",
          "name": "agentOwner",
          "type": "address"
        },
        {
          "internalType": "bytes32",
          "name": "agentHash",
          "type": "bytes32"
        },
        {
          "internalType": "uint256",
          "name": "minCreditsPerRequest",
          "type": "uint256"
        },
        {
          "internalType": "address",
          "name": "subscriptionNFT",
          "type": "address"
        },
        {
          "internalType": "uint256",
          "name": "subscriptionTokenId",
          "type": "uint256"
        }
      ],
      "name": "create",
      "outputs": [
        {
          "internalType": "uint256",
          "name": "agentId",
          "type": "uint256"
        },
        {
          "internalType": "address",
          "name": "mech",
          "type": "address"
        }
      ],
      "stateMutability": "nonpayable",
      "type": "function"
    },
    {
      "inputs": [],
      "name": "owner",
      "outputs": [
        {
          "internalType": "address",
          "name": "",
          "type": "address"
        }
      ],
      "stateMutability": "view",
      "type": "function"
    },
    {
      "inputs": [],
      "name": "pause",
      "outputs": [],
      "stateMutability": "nonpayable",
      "type": "function"
    },
    {
      "inputs": [],
      "name": "paused",
      "outputs": [
        {
          "internalType": "bool",
          "name": "",
          "type": "bool"
        }
      ],
      "stateMutability": "view",
      "type": "function"
    },
    {
      "inputs": [],
      "name": "unpause",
      "outputs": [],
      "stateMutability": "nonpayable",
      "type": "function"
    }
  ],
  "bytecode": "0x60a060405234801561001057600080fd5b506040516141c33803806141c383398101604081905261002f91610052565b6001600160a01b0316608052600080546001600160a01b03191633179055610082565b60006020828403121561006457600080fd5b81516001600160a01b038116811461007b57600080fd5b9392505050565b6080516141196100aa60003960008181609e0152818161057b015261063501526141196000f3fe60806040523480156200001157600080fd5b5060043610620000935760003560e01c80638da5cb5b11620000625780638da5cb5b1462000137578063a6f9dae11462000158578063de307f46146200016f578063ffa1ad7414620001b157600080fd5b80630d1cfcae14620000985780633f4ba83a14620000ea5780635c975abb14620000f65780638456cb59146200012d575b600080fd5b620000c07f000000000000000000000000000000000000000000000000000000000000000081565b60405173ffffffffffffffffffffffffffffffffffffffff90911681526020015b60405180910390f35b620000f4620001fd565b005b6000546200011c9074010000000000000000000000000000000000000000900460ff1681565b6040519015158152602001620000e1565b620000f4620002c8565b600054620000c09073ffffffffffffffffffffffffffffffffffffffff1681565b620000f4620001693660046200077c565b620003a6565b6200018662000180366004620007a1565b620004d6565b6040805192835273ffffffffffffffffffffffffffffffffffffffff909116602083015201620000e1565b620001ee6040518060400160405280600581526020017f312e302e3000000000000000000000000000000000000000000000000000000081525081565b604051620000e19190620007f4565b60005473ffffffffffffffffffffffffffffffffffffffff16331462000276576000546040517fa43d6ada00000000000000000000000000000000000000000000000000000000815233600482015273ffffffffffffffffffffffffffffffffffffffff90911660248201526044015b60405180910390fd5b600080547fffffffffffffffffffffff00ffffffffffffffffffffffffffffffffffffffff16815560405133917faeb196d352664784d1900b0e7414a8face7d29f4dae8c4b0cf68ed477423bbf491a2565b60005473ffffffffffffffffffffffffffffffffffffffff1633146200033d576000546040517fa43d6ada00000000000000000000000000000000000000000000000000000000815233600482015273ffffffffffffffffffffffffffffffffffffffff90911660248201526044016200026d565b600080547fffffffffffffffffffffff00ffffffffffffffffffffffffffffffffffffffff167401000000000000000000000000000000000000000017815560405133917f5ee71a369c8672edded508e624ffc9257fa1ae6886ef32905c18e60196bca39991a2565b60005473ffffffffffffffffffffffffffffffffffffffff1633146200041b576000546040517fa43d6ada00000000000000000000000000000000000000000000000000000000815233600482015273ffffffffffffffffffffffffffffffffffffffff90911660248201526044016200026d565b73ffffffffffffffffffffffffffffffffffffffff811662000469576040517fd92e233d00000000000000000000000000000000000000000000000000000000815260040160405180910390fd5b600080547fffffffffffffffffffffffff00000000000000000000000000000000000000001673ffffffffffffffffffffffffffffffffffffffff8316908117825560405190917f4ffd725fc4a22075e9ec71c59edf9c38cdeb588a91b24fc5b61388c5be41282b91a250565b60008054819074010000000000000000000000000000000000000000900460ff16156200052f576040517f9e87fac800000000000000000000000000000000000000000000000000000000815260040160405180910390fd5b6040517fa3def92300000000000000000000000000000000000000000000000000000000815273ffffffffffffffffffffffffffffffffffffffff8881166004830152602482018890527f0000000000000000000000000000000000000000000000000000000000000000169063a3def923906044016020604051808303816000875af1158015620005c5573d6000803e3d6000fd5b505050506040513d601f19601f82011682018060405250810190620005eb919062000863565b6040805173ffffffffffffffffffffffffffffffffffffffff8a166020820152908101829052909250600090606001604051602081830303815290604052805190602001209050807f000000000000000000000000000000000000000000000000000000000000000084888888604051620006669062000744565b73ffffffffffffffffffffffffffffffffffffffff9586168152602081019490945260408401929092529092166060820152608081019190915260a0018190604051809103906000f5905080158015620006c4573d6000803e3d6000fd5b5091508473ffffffffffffffffffffffffffffffffffffffff16838373ffffffffffffffffffffffffffffffffffffffff167ff5bcf7f211d4b6f9a7c854a16f2d552d7827ca39de6c38f3506e2d1f9eae66a7898860405162000731929190918252602082015260400190565b60405180910390a4509550959350505050565b613866806200087e83390190565b803573ffffffffffffffffffffffffffffffffffffffff811681146200077757600080fd5b919050565b6000602082840312156200078f57600080fd5b6200079a8262000752565b9392505050565b600080600080600060a08688031215620007ba57600080fd5b620007c58662000752565b94506020860135935060408601359250620007e36060870162000752565b949793965091946080013592915050565b60006020808352835180602085015260005b81811015620008245785810183015185820160400152820162000806565b5060006040828601015260407fffffffffffffffffffffffffffffffffffffffffffffffffffffffffffffffe0601f8301168501019250505092915050565b6000602082840312156200087657600080fd5b505191905056fe60c0604052600080556001600b553480156200001a57600080fd5b5060405162003866380380620038668339810160408190526200003d9162000508565b8484848282600082826040516020016200006c9291906001600160a01b03929092168252602082015260400190565b60408051601f1981840301815291905290506200008981620001e8565b5050506001600160a01b038316620000b45760405163d92e233d60e01b815260040160405180910390fd5b6040516331a9108f60e11b8152600481018390526000906001600160a01b03851690636352211e90602401602060405180830381865afa158015620000fd573d6000803e3d6000fd5b505050506040513d601f19601f820116820180604052508101906200012391906200055d565b90506001600160a01b0381166200015557604051630ede975960e01b8152600481018490526024015b60405180910390fd5b60018290554660a0526200016862000250565b6080525050506001600160a01b03831690506200019857604051631f0f7ba560e11b815260040160405180910390fd5b80600003620001ba57604051631fed7fc560e01b815260040160405180910390fd5b600980546001600160a01b0319166001600160a01b039390931692909217909155600a555062000682915050565b620001f26200031b565b5115620002425760405162461bcd60e51b815260206004820152601360248201527f416c726561647920696e697469616c697a65640000000000000000000000000060448201526064016200014c565b6200024d8162000388565b50565b60007f8b73c3c69bb8fe3d512ecc4cf759cc79239f7b179b0ffacaa9a75d522b39400f7f493aeac1d921aa02a044029e7fe4be43b1a4e80b40706fa5819e8fbb0d093525604051806040016040528060058152602001640312e302e360dc1b815250604051602001620002c49190620005a8565b60408051601f1981840301815282825280516020918201209083019490945281019190915260608101919091524660808201523060a082015260c00160405160208183030381529060405280519060200120905090565b6060620003836200037d604051606b60f91b6020820152602560fa1b60218201526001600160601b03193060601b166022820152600160f81b60368201526000906037016040516020818303038152906040528051906020012060001c905090565b62000456565b905090565b60006200039582620004af565b905060008151602083016000f0905062000400604051606b60f91b6020820152602560fa1b60218201526001600160601b03193060601b166022820152600160f81b60368201526000906037016040516020818303038152906040528051906020012060001c905090565b6001600160a01b0316816001600160a01b031614620004515760405162461bcd60e51b815260206004820152600c60248201526b15dc9a5d194819985a5b195960a21b60448201526064016200014c565b505050565b6060813b6001811162000479575050604080516020810190915260008152919050565b806200048581620005f3565b9150506040519150601f19601f602083010116820160405280825280600160208401853c50919050565b606081516001620004c191906200060d565b82604051602001620004d592919062000629565b6040516020818303038152906040529050919050565b80516001600160a01b03811681146200050357600080fd5b919050565b600080600080600060a086880312156200052157600080fd5b6200052c86620004eb565b945060208601519350604086015192506200054a60608701620004eb565b9150608086015190509295509295909350565b6000602082840312156200057057600080fd5b6200057b82620004eb565b9392505050565b60005b838110156200059f57818101518382015260200162000585565b50506000910152565b6020815260008251806020840152620005c981604085016020870162000582565b601f01601f19169190910160400192915050565b634e487b7160e01b600052601160045260246000fd5b600081620006055762000605620005dd565b506000190190565b80820180821115620006235762000623620005dd565b92915050565b606360f81b815260e083901b6001600160e01b03191660018201526880600e6000396000f360b81b60058201526000600e820181905282516200067481600f85016020870162000582565b91909101600f019392505050565b60805160a0516131b0620006b660003960008181610548015261140b01526000818161080d015261144001526131b06000f3fe60806040526004361061026d5760003560e01c8063affed0e011610153578063e00b9118116100cb578063f698da251161007f578063fc0c546a11610064578063fc0c546a1461084f578063fe266bb914610864578063ffa1ad741461088457600080fd5b8063f698da25146107fb578063fba5c56b1461082f57600080fd5b8063f23a6e61116100b0578063f23a6e6114610761578063f5dcb7bb146107a7578063f6171e44146107db57600080fd5b8063e00b91181461072c578063ed24911d1461074c57600080fd5b8063bdf8631711610122578063cbd6407a11610107578063cbd6407a1461068f578063d843b7f4146106bc578063d8a4676f146106ff57600080fd5b8063bdf863171461064c578063c7dec3fc1461066257600080fd5b8063affed0e0146105a0578063b0d691fe146105b5578063b94207d3146105dc578063bc197c811461060457600080fd5b80636d70f7ae116101e657806391b7f5ed116101b55780639a8a05921161019a5780639a8a059214610536578063a035b1fe1461056a578063a4f9edbf1461058057600080fd5b806391b7f5ed146104e9578063982c0db31461050957600080fd5b80636d70f7ae1461040e5780637af734731461043e57806385cf724414610481578063878b1132146104d357600080fd5b80632ebfc9271161023d5780634ada3e61116102225780634ada3e611461039e57806358ce0909146103b45780635fee6085146103e157600080fd5b80632ebfc9271461035e5780633a871cdd1461037e57600080fd5b806223de2914610279578063150b7a02146102a05780631626ba7e1461031b57806317d70f7c1461033b57600080fd5b3661027457005b600080fd5b34801561028557600080fd5b5061029e610294366004612605565b5050505050505050565b005b3480156102ac57600080fd5b506102e56102bb3660046126b6565b7f150b7a020000000000000000000000000000000000000000000000000000000095945050505050565b6040517fffffffff0000000000000000000000000000000000000000000000000000000090911681526020015b60405180910390f35b34801561032757600080fd5b506102e5610336366004612843565b6108cd565b34801561034757600080fd5b50610350610a76565b604051908152602001610312565b34801561036a57600080fd5b5061029e61037936600461288a565b610a9b565b34801561038a57600080fd5b506103506103993660046128b6565b610c59565b3480156103aa57600080fd5b5061035060035481565b3480156103c057600080fd5b506103d46103cf36600461290a565b610c97565b604051610312919061292c565b3480156103ed57600080fd5b506103506103fc366004612970565b60046020526000908152604090205481565b34801561041a57600080fd5b5061042e610429366004612970565b610df3565b6040519015158152602001610312565b34801561044a57600080fd5b50610350610459366004612970565b73ffffffffffffffffffffffffffffffffffffffff1660009081526004602052604090205490565b34801561048d57600080fd5b506009546104ae9073ffffffffffffffffffffffffffffffffffffffff1681565b60405173ffffffffffffffffffffffffffffffffffffffff9091168152602001610312565b3480156104df57600080fd5b50610350600a5481565b3480156104f557600080fd5b5061029e61050436600461298d565b610ec9565b34801561051557600080fd5b50610350610524366004612970565b60056020526000908152604090205481565b34801561054257600080fd5b506103507f000000000000000000000000000000000000000000000000000000000000000081565b34801561057657600080fd5b5061035060015481565b34801561058c57600080fd5b5061029e61059b3660046129a6565b610fb7565b3480156105ac57600080fd5b50600054610350565b3480156105c157600080fd5b50730576a174d229e3cfa37253523e645a78a0c91b576104ae565b6105ef6105ea3660046129a6565b611033565b60408051928352602083019190915201610312565b34801561061057600080fd5b506102e561061f366004612a28565b7fbc197c810000000000000000000000000000000000000000000000000000000098975050505050505050565b34801561065857600080fd5b5061035060025481565b34801561066e57600080fd5b5061068261067d366004612ac6565b6111f0565b6040516103129190612bac565b34801561069b57600080fd5b506103506106aa366004612970565b60086020526000908152604090205481565b3480156106c857600080fd5b506104ae6106d736600461298d565b60076020526000908152604090205473ffffffffffffffffffffffffffffffffffffffff1681565b34801561070b57600080fd5b5061071f61071a36600461298d565b6112db565b6040516103129190612bee565b34801561073857600080fd5b50610350610747366004612c2f565b6113b5565b34801561075857600080fd5b50610350611407565b34801561076d57600080fd5b506102e561077c366004612c69565b7ff23a6e61000000000000000000000000000000000000000000000000000000009695505050505050565b3480156107b357600080fd5b506103507f8b73c3c69bb8fe3d512ecc4cf759cc79239f7b179b0ffacaa9a75d522b39400f81565b3480156107e757600080fd5b506103506107f636600461290a565b611462565b34801561080757600080fd5b506103507f000000000000000000000000000000000000000000000000000000000000000081565b34801561083b57600080fd5b5061035061084a366004612ce5565b611487565b34801561085b57600080fd5b506104ae61153c565b34801561087057600080fd5b5061029e61087f366004612d3e565b61155a565b34801561089057600080fd5b506106826040518060400160405280600581526020017f312e302e3000000000000000000000000000000000000000000000000000000081525081565b6000806000806108f0856020810151604082015160609092015160001a92909190565b9094509250905060ff8116600003610a09578285830160200161091282610df3565b158015610935575073ffffffffffffffffffffffffffffffffffffffff82163014155b1561096857507fffffffff000000000000000000000000000000000000000000000000000000009450610a709350505050565b6040517f1626ba7e00000000000000000000000000000000000000000000000000000000815273ffffffffffffffffffffffffffffffffffffffff831690631626ba7e906109bc908b908590600401612d8e565b602060405180830381865afa1580156109d9573d6000803e3d6000fd5b505050506040513d601f19601f820116820180604052508101906109fd9190612da7565b95505050505050610a70565b610a18610429878386866117db565b15610a4957507f1626ba7e000000000000000000000000000000000000000000000000000000009250610a70915050565b507fffffffff00000000000000000000000000000000000000000000000000000000925050505b92915050565b600080610a816117f9565b806020019051810190610a949190612de9565b9392505050565b610aa433610df3565b80610ac2575033730576a174d229e3cfa37253523e645a78a0c91b57145b610b53576040517f08c379a000000000000000000000000000000000000000000000000000000000815260206004820152603e60248201527f4f6e6c792063616c6c61626c6520627920746865206d656368206f706572617460448201527f6f72206f722074686520656e74727920706f696e7420636f6e7472616374000060648201526084015b60405180910390fd5b73ffffffffffffffffffffffffffffffffffffffff8216610ba0576040517f3e1ef74a00000000000000000000000000000000000000000000000000000000815260040160405180910390fd5b80600003610bda576040517f1fed7fc500000000000000000000000000000000000000000000000000000000815260040160405180910390fd5b600980547fffffffffffffffffffffffff00000000000000000000000000000000000000001673ffffffffffffffffffffffffffffffffffffffff8416908117909155600a8290556040518281527fa739b38899b4a928ed52e053d6cad069a2f5e76ebeea63aa310f9595e28c5f209060200160405180910390a25050565b6000610c636118ca565b610c6d8484611949565b9050610c7c6040850185612e17565b9050600003610c8e57610c8e84611a4d565b610a9482611acc565b6002546060906000849003610caa578093505b80610cb58486612eab565b1115610d0257610cc58385612eab565b6040517f7ae59685000000000000000000000000000000000000000000000000000000008152600481019190915260248101829052604401610b4a565b8315610dec578367ffffffffffffffff811115610d2157610d21612729565b604051908082528060200260200182016040528015610d4a578160200160208202803683370190505b50600080805260066020527f54cdd369e4e8a8515e52ca72ec816c2101831ad1f18bf44102ed171459c9b4f9549193505b84811015610d9f576000828152600660205260409020600101549150600101610d7b565b5060005b85811015610de95781848281518110610dbe57610dbe612ebe565b6020908102919091018101919091526000838152600690915260409020600101549150600101610da3565b50505b5092915050565b6000806000610e006117f9565b806020019051810190610e139190612de9565b915091508373ffffffffffffffffffffffffffffffffffffffff168273ffffffffffffffffffffffffffffffffffffffff16636352211e836040518263ffffffff1660e01b8152600401610e6991815260200190565b602060405180830381865afa158015610e86573d6000803e3d6000fd5b505050506040513d601f19601f82011682018060405250810190610eaa9190612eed565b73ffffffffffffffffffffffffffffffffffffffff1614949350505050565b610ed233610df3565b80610ef0575033730576a174d229e3cfa37253523e645a78a0c91b57145b610f7c576040517f08c379a000000000000000000000000000000000000000000000000000000000815260206004820152603e60248201527f4f6e6c792063616c6c61626c6520627920746865206d656368206f706572617460448201527f6f72206f722074686520656e74727920706f696e7420636f6e747261637400006064820152608401610b4a565b60018190556040518181527f66cbca4f3c64fecf1dcb9ce094abcf7f68c3450a1d4e3a8e917dd621edb4ebe09060200160405180910390a150565b610fbf6117f9565b5115611027576040517f08c379a000000000000000000000000000000000000000000000000000000000815260206004820152601360248201527f416c726561647920696e697469616c697a6564000000000000000000000000006044820152606401610b4a565b61103081611b43565b50565b60008061104033846113b5565b3360008181526008602052604090205491935061105e918590611487565b905061106b348285611cbd565b33600090815260046020526040812080549161108683612f0a565b90915550503360009081526005602052604081208054916110a683612f0a565b9091555050600081815260076020908152604080832080547fffffffffffffffffffffffff000000000000000000000000000000000000000016339081179091558352600890915281208054916110fc83612f0a565b90915550506006602052600081815260408082207f54cdd369e4e8a8515e52ca72ec816c2101831ad1f18bf44102ed171459c9b4f980546001830181905590859055808452918320849055600280547f54cdd369e4e8a8515e52ca72ec816c2101831ad1f18bf44102ed171459c9b4f89492939290919061117c83612f0a565b90915550506003805490600061119183612f0a565b91905055503373ffffffffffffffffffffffffffffffffffffffff167f415baea36dd0457eaf27cbe8dd3691cb1d0b387aac1539c4d118198aba024db38686896040516111e093929190612f42565b60405180910390a2505050915091565b60606111fb33610df3565b80611219575033730576a174d229e3cfa37253523e645a78a0c91b57145b6112a5576040517f08c379a000000000000000000000000000000000000000000000000000000000815260206004820152603e60248201527f4f6e6c792063616c6c61626c6520627920746865206d656368206f706572617460448201527f6f72206f722074686520656e74727920706f696e7420636f6e747261637400006064820152608401610b4a565b60006112c08787878787156112ba5787611e58565b5a611e58565b92509050806112d157815160208301fd5b5095945050505050565b60008181526007602052604081205473ffffffffffffffffffffffffffffffffffffffff16156113b0576000828152600660205260408082208151808301928390529160029082845b81548152602001906001019080831161132457505050505090508060006002811061135157611351612ebe565b602002015115801561136557506020810151155b801561139b57506000805260066020527f54cdd369e4e8a8515e52ca72ec816c2101831ad1f18bf44102ed171459c9b4f8548314155b156113a957600291506113ae565b600191505b505b919050565b600082826040516020016113ca929190612f6a565b604080517fffffffffffffffffffffffffffffffffffffffffffffffffffffffffffffffe081840301815291905280516020909101209392505050565b60007f0000000000000000000000000000000000000000000000000000000000000000461461143d57611438611f62565b905090565b507f000000000000000000000000000000000000000000000000000000000000000090565b6006602052816000526040600020816002811061147e57600080fd5b01549150829050565b6000611491611407565b8484846040516020016114a693929190612f99565b604051602081830303815290604052805190602001206040516020016114fe9291907f190100000000000000000000000000000000000000000000000000000000000081526002810192909252602282015260420190565b604080517fffffffffffffffffffffffffffffffffffffffffffffffffffffffffffffffe08184030181529190528051602090910120949350505050565b6000806115476117f9565b806020019051810190610a709190612eed565b61156333610df3565b80611581575033730576a174d229e3cfa37253523e645a78a0c91b57145b61160d576040517f08c379a000000000000000000000000000000000000000000000000000000000815260206004820152603e60248201527f4f6e6c792063616c6c61626c6520627920746865206d656368206f706572617460448201527f6f72206f722074686520656e74727920706f696e7420636f6e747261637400006064820152608401610b4a565b60006116198383612061565b6000848152600660205260408082208151808301928390529394509192919060029082845b81548152602001906001019080831161163e57505050505090508060006002811061166b5761166b612ebe565b602002015115801561167f57506020810151155b80156116b557506000805260066020527f54cdd369e4e8a8515e52ca72ec816c2101831ad1f18bf44102ed171459c9b4f8548414155b156116ef576040517ffe23980400000000000000000000000000000000000000000000000000000000815260048101859052602401610b4a565b60208181018051835160009081526006909352604080842060010191909155835191518352822055600280549161172583612fd8565b909155505060008481526007602090815260408083205473ffffffffffffffffffffffffffffffffffffffff16808452600590925282208054919261176983612fd8565b90915550506000858152600660205260408120818155600101553373ffffffffffffffffffffffffffffffffffffffff167f0cd979445339c62199996f208428d987b1cea24d18e62b79ec24d94b636e8b7087856040516117cb929190612d8e565b60405180910390a2505050505050565b60008060006117ec8787878761226a565b915091506112d181612359565b60606114386118c56040517fd60000000000000000000000000000000000000000000000000000000000000060208201527f940000000000000000000000000000000000000000000000000000000000000060218201527fffffffffffffffffffffffffffffffffffffffff0000000000000000000000003060601b1660228201527f010000000000000000000000000000000000000000000000000000000000000060368201526000906037016040516020818303038152906040528051906020012060001c905090565b61250c565b33730576a174d229e3cfa37253523e645a78a0c91b5714611947576040517f08c379a000000000000000000000000000000000000000000000000000000000815260206004820152601c60248201527f6163636f756e743a206e6f742066726f6d20456e747279506f696e74000000006044820152606401610b4a565b565b6000806119a3836040517f19457468657265756d205369676e6564204d6573736167653a0a3332000000006020820152603c8101829052600090605c01604051602081830303815290604052805190602001209050919050565b90507f1626ba7e00000000000000000000000000000000000000000000000000000000611a12826119d8610140880188612e17565b8080601f0160208091040260200160405190810160405280939291908181526020018383808284376000920191909152506108cd92505050565b7fffffffff000000000000000000000000000000000000000000000000000000001614611a43576001915050610a70565b5060009392505050565b6000805460208301359180611a6183612f0a565b9190505514611030576040517f08c379a000000000000000000000000000000000000000000000000000000000815260206004820152600d60248201527f496e76616c6964206e6f6e6365000000000000000000000000000000000000006044820152606401610b4a565b80156110305760405160009033907fffffffffffffffffffffffffffffffffffffffffffffffffffffffffffffffff90849084818181858888f193505050503d8060008114611b37576040519150601f19603f3d011682016040523d82523d6000602084013e611b3c565b606091505b5050505050565b6000611b4e82612562565b905060008151602083016000f09050611c246040517fd60000000000000000000000000000000000000000000000000000000000000060208201527f940000000000000000000000000000000000000000000000000000000000000060218201527fffffffffffffffffffffffffffffffffffffffff0000000000000000000000003060601b1660228201527f010000000000000000000000000000000000000000000000000000000000000060368201526000906037016040516020818303038152906040528051906020012060001c905090565b73ffffffffffffffffffffffffffffffffffffffff168173ffffffffffffffffffffffffffffffffffffffff1614611cb8576040517f08c379a000000000000000000000000000000000000000000000000000000000815260206004820152600c60248201527f5772697465206661696c656400000000000000000000000000000000000000006044820152606401610b4a565b505050565b6001600b541115611cfa576040517f8beb9d1600000000000000000000000000000000000000000000000000000000815260040160405180910390fd5b6002600b558215611d3a576040517f0f0fe74c00000000000000000000000000000000000000000000000000000000815260048101849052602401610b4a565b600954600a546040517efdd58e000000000000000000000000000000000000000000000000000000008152336004820152602481019190915260009173ffffffffffffffffffffffffffffffffffffffff169062fdd58e90604401602060405180830381865afa158015611db2573d6000803e3d6000fd5b505050506040513d601f19601f82011682018060405250810190611dd6919061300d565b3360009081526005602052604081205460018054939450909290611dfb908490612eab565b611e059190613026565b905080831015611e4b576040517facff13ae0000000000000000000000000000000000000000000000000000000081526004810184905260248101829052604401610b4a565b50506001600b5550505050565b600060606001846001811115611e7057611e70612bbf565b03611ee7578673ffffffffffffffffffffffffffffffffffffffff168386604051611e9b919061303d565b6000604051808303818686f4925050503d8060008114611ed7576040519150601f19603f3d011682016040523d82523d6000602084013e611edc565b606091505b509092509050611f58565b8673ffffffffffffffffffffffffffffffffffffffff16838787604051611f0e919061303d565b600060405180830381858888f193505050503d8060008114611f4c576040519150601f19603f3d011682016040523d82523d6000602084013e611f51565b606091505b5090925090505b9550959350505050565b60007f8b73c3c69bb8fe3d512ecc4cf759cc79239f7b179b0ffacaa9a75d522b39400f7f493aeac1d921aa02a044029e7fe4be43b1a4e80b40706fa5819e8fbb0d0935256040518060400160405280600581526020017f312e302e30000000000000000000000000000000000000000000000000000000815250604051602001611fec9190612bac565b604080517fffffffffffffffffffffffffffffffffffffffffffffffffffffffffffffffe081840301815282825280516020918201209083019490945281019190915260608101919091524660808201523060a082015260c00160405160208183030381529060405280519060200120905090565b60606001600b5411156120a0576040517f8beb9d1600000000000000000000000000000000000000000000000000000000815260040160405180910390fd5b6002600b5581516000906120bd9084016020908101908501613059565b60008681526007602052604080822054600954600a5492517efdd58e00000000000000000000000000000000000000000000000000000000815273ffffffffffffffffffffffffffffffffffffffff9283166004820181905260248201949094529497509495509093919291169062fdd58e90604401602060405180830381865afa158015612150573d6000803e3d6000fd5b505050506040513d601f19601f82011682018060405250810190612174919061300d565b905082818111156121825750805b801561221f57600954600a546040517ff5298aca00000000000000000000000000000000000000000000000000000000815273ffffffffffffffffffffffffffffffffffffffff868116600483015260248201929092526044810184905291169063f5298aca90606401600060405180830381600087803b15801561220657600080fd5b505af115801561221a573d6000803e3d6000fd5b505050505b604080518581526020810183905288917fc618cebcfec26828410db514432d580b183e1e3e9e97cc6ab5ef9922b0a1c4c1910160405180910390a250506001600b5550909392505050565b6000807f7fffffffffffffffffffffffffffffff5d576e7357a4501ddfe92f46681b20a08311156122a15750600090506003612350565b6040805160008082526020820180845289905260ff881692820192909252606081018690526080810185905260019060a0016020604051602081039080840390855afa1580156122f5573d6000803e3d6000fd5b50506040517fffffffffffffffffffffffffffffffffffffffffffffffffffffffffffffffe0015191505073ffffffffffffffffffffffffffffffffffffffff811661234957600060019250925050612350565b9150600090505b94509492505050565b600081600481111561236d5761236d612bbf565b036123755750565b600181600481111561238957612389612bbf565b036123f0576040517f08c379a000000000000000000000000000000000000000000000000000000000815260206004820152601860248201527f45434453413a20696e76616c6964207369676e617475726500000000000000006044820152606401610b4a565b600281600481111561240457612404612bbf565b0361246b576040517f08c379a000000000000000000000000000000000000000000000000000000000815260206004820152601f60248201527f45434453413a20696e76616c6964207369676e6174757265206c656e677468006044820152606401610b4a565b600381600481111561247f5761247f612bbf565b03611030576040517f08c379a000000000000000000000000000000000000000000000000000000000815260206004820152602260248201527f45434453413a20696e76616c6964207369676e6174757265202773272076616c60448201527f75650000000000000000000000000000000000000000000000000000000000006064820152608401610b4a565b6060813b6001811161252e575050604080516020810190915260008152919050565b8061253881612fd8565b9150506040519150601f19601f602083010116820160405280825280600160208401853c50919050565b6060815160016125729190612eab565b826040516020016125849291906130dc565b6040516020818303038152906040529050919050565b73ffffffffffffffffffffffffffffffffffffffff8116811461103057600080fd5b60008083601f8401126125ce57600080fd5b50813567ffffffffffffffff8111156125e657600080fd5b6020830191508360208285010111156125fe57600080fd5b9250929050565b60008060008060008060008060c0898b03121561262157600080fd5b883561262c8161259a565b9750602089013561263c8161259a565b9650604089013561264c8161259a565b955060608901359450608089013567ffffffffffffffff8082111561267057600080fd5b61267c8c838d016125bc565b909650945060a08b013591508082111561269557600080fd5b506126a28b828c016125bc565b999c989b5096995094979396929594505050565b6000806000806000608086880312156126ce57600080fd5b85356126d98161259a565b945060208601356126e98161259a565b935060408601359250606086013567ffffffffffffffff81111561270c57600080fd5b612718888289016125bc565b969995985093965092949392505050565b7f4e487b7100000000000000000000000000000000000000000000000000000000600052604160045260246000fd5b604051601f82017fffffffffffffffffffffffffffffffffffffffffffffffffffffffffffffffe016810167ffffffffffffffff8111828210171561279f5761279f612729565b604052919050565b600067ffffffffffffffff8211156127c1576127c1612729565b50601f017fffffffffffffffffffffffffffffffffffffffffffffffffffffffffffffffe01660200190565b600082601f8301126127fe57600080fd5b813561281161280c826127a7565b612758565b81815284602083860101111561282657600080fd5b816020850160208301376000918101602001919091529392505050565b6000806040838503121561285657600080fd5b82359150602083013567ffffffffffffffff81111561287457600080fd5b612880858286016127ed565b9150509250929050565b6000806040838503121561289d57600080fd5b82356128a88161259a565b946020939093013593505050565b6000806000606084860312156128cb57600080fd5b833567ffffffffffffffff8111156128e257600080fd5b840161016081870312156128f557600080fd5b95602085013595506040909401359392505050565b6000806040838503121561291d57600080fd5b50508035926020909101359150565b6020808252825182820181905260009190848201906040850190845b8181101561296457835183529284019291840191600101612948565b50909695505050505050565b60006020828403121561298257600080fd5b8135610a948161259a565b60006020828403121561299f57600080fd5b5035919050565b6000602082840312156129b857600080fd5b813567ffffffffffffffff8111156129cf57600080fd5b6129db848285016127ed565b949350505050565b60008083601f8401126129f557600080fd5b50813567ffffffffffffffff811115612a0d57600080fd5b6020830191508360208260051b85010111156125fe57600080fd5b60008060008060008060008060a0898b031215612a4457600080fd5b8835612a4f8161259a565b97506020890135612a5f8161259a565b9650604089013567ffffffffffffffff80821115612a7c57600080fd5b612a888c838d016129e3565b909850965060608b0135915080821115612aa157600080fd5b612aad8c838d016129e3565b909650945060808b013591508082111561269557600080fd5b600080600080600060a08688031215612ade57600080fd5b8535612ae98161259a565b945060208601359350604086013567ffffffffffffffff811115612b0c57600080fd5b612b18888289016127ed565b935050606086013560028110612b2d57600080fd5b949793965091946080013592915050565b60005b83811015612b59578181015183820152602001612b41565b50506000910152565b60008151808452612b7a816020860160208601612b3e565b601f017fffffffffffffffffffffffffffffffffffffffffffffffffffffffffffffffe0169290920160200192915050565b602081526000610a946020830184612b62565b7f4e487b7100000000000000000000000000000000000000000000000000000000600052602160045260246000fd5b6020810160038310612c29577f4e487b7100000000000000000000000000000000000000000000000000000000600052602160045260246000fd5b91905290565b60008060408385031215612c4257600080fd5b8235612c4d8161259a565b9150602083013567ffffffffffffffff81111561287457600080fd5b60008060008060008060a08789031215612c8257600080fd5b8635612c8d8161259a565b95506020870135612c9d8161259a565b94506040870135935060608701359250608087013567ffffffffffffffff811115612cc757600080fd5b612cd389828a016125bc565b979a9699509497509295939492505050565b600080600060608486031215612cfa57600080fd5b8335612d058161259a565b9250602084013567ffffffffffffffff811115612d2157600080fd5b612d2d868287016127ed565b925050604084013590509250925092565b600080600060608486031215612d5357600080fd5b8335925060208401359150604084013567ffffffffffffffff811115612d7857600080fd5b612d84868287016127ed565b9150509250925092565b8281526040602082015260006129db6040830184612b62565b600060208284031215612db957600080fd5b81517fffffffff0000000000000000000000000000000000000000000000000000000081168114610a9457600080fd5b60008060408385031215612dfc57600080fd5b8251612e078161259a565b6020939093015192949293505050565b60008083357fffffffffffffffffffffffffffffffffffffffffffffffffffffffffffffffe1843603018112612e4c57600080fd5b83018035915067ffffffffffffffff821115612e6757600080fd5b6020019150368190038213156125fe57600080fd5b7f4e487b7100000000000000000000000000000000000000000000000000000000600052601160045260246000fd5b80820180821115610a7057610a70612e7c565b7f4e487b7100000000000000000000000000000000000000000000000000000000600052603260045260246000fd5b600060208284031215612eff57600080fd5b8151610a948161259a565b60007fffffffffffffffffffffffffffffffffffffffffffffffffffffffffffffffff8203612f3b57612f3b612e7c565b5060010190565b838152826020820152606060408201526000612f616060830184612b62565b95945050505050565b73ffffffffffffffffffffffffffffffffffffffff831681526040602082015260006129db6040830184612b62565b73ffffffffffffffffffffffffffffffffffffffff84168152606060208201526000612fc86060830185612b62565b9050826040830152949350505050565b600081612fe757612fe7612e7c565b507fffffffffffffffffffffffffffffffffffffffffffffffffffffffffffffffff0190565b60006020828403121561301f57600080fd5b5051919050565b8082028115828204841417610a7057610a70612e7c565b6000825161304f818460208701612b3e565b9190910192915050565b6000806040838503121561306c57600080fd5b82519150602083015167ffffffffffffffff81111561308a57600080fd5b8301601f8101851361309b57600080fd5b80516130a961280c826127a7565b8181528660208385010111156130be57600080fd5b6130cf826020830160208601612b3e565b8093505050509250929050565b7f630000000000000000000000000000000000000000000000000000000000000081527fffffffff000000000000000000000000000000000000000000000000000000008360e01b1660018201527f80600e6000396000f3000000000000000000000000000000000000000000000060058201526000600e8201526000825161316c81600f850160208701612b3e565b91909101600f01939250505056fea264697066735822122078dc3da3680727535ec874bff6125877e08d014a51709f64084f887d617c334b64736f6c63430008170033a2646970667358221220de6a88ebc6aff9f30b2c0e2b5aa1a6108bf78b28e2d6fe5c82a7afe52bf274cf64736f6c63430008170033",
  "linkReferences": {},
  "deployedLinkReferences": {}
}